{
  "address": "0x3179D16f01Db4D9f226f6d5cC8B5bE4E25C5891A",
  "abi": [
    {
      "inputs": [
        {
          "internalType": "string",
          "name": "message",
          "type": "string"
        }
      ],
      "name": "InvalidInput",
      "type": "error"
    },
    {
      "anonymous": false,
      "inputs": [
        {
          "indexed": true,
          "internalType": "address",
          "name": "by",
          "type": "address"
        },
        {
          "indexed": false,
          "internalType": "uint256[]",
          "name": "tokenIds",
          "type": "uint256[]"
        },
        {
          "indexed": false,
          "internalType": "uint256[]",
          "name": "values",
          "type": "uint256[]"
        }
      ],
      "name": "ComicsBurned",
      "type": "event"
    },
    {
      "anonymous": false,
      "inputs": [
        {
          "indexed": false,
          "internalType": "uint8",
          "name": "version",
          "type": "uint8"
        }
      ],
      "name": "Initialized",
      "type": "event"
    },
    {
      "anonymous": false,
      "inputs": [
        {
          "indexed": true,
          "internalType": "address",
          "name": "by",
          "type": "address"
        },
        {
          "indexed": false,
          "internalType": "uint256[]",
          "name": "tokenIds",
          "type": "uint256[]"
        },
        {
          "indexed": false,
          "internalType": "uint256[]",
          "name": "values",
          "type": "uint256[]"
        }
      ],
      "name": "ItemsMinted",
      "type": "event"
    },
    {
      "anonymous": false,
      "inputs": [
        {
          "indexed": true,
          "internalType": "address",
          "name": "previousOwner",
          "type": "address"
        },
        {
          "indexed": true,
          "internalType": "address",
          "name": "newOwner",
          "type": "address"
        }
      ],
      "name": "OwnershipTransferred",
      "type": "event"
    },
    {
      "anonymous": false,
      "inputs": [
        {
          "indexed": false,
          "internalType": "address",
          "name": "account",
          "type": "address"
        }
      ],
      "name": "Paused",
      "type": "event"
    },
    {
      "anonymous": false,
      "inputs": [
        {
          "indexed": false,
          "internalType": "address",
          "name": "account",
          "type": "address"
        }
      ],
      "name": "Unpaused",
      "type": "event"
    },
    {
      "inputs": [
        {
          "internalType": "uint256[]",
          "name": "comicIds",
          "type": "uint256[]"
        },
        {
          "internalType": "uint256[]",
          "name": "comicValues",
          "type": "uint256[]"
        }
      ],
      "name": "burnComics",
      "outputs": [],
      "stateMutability": "nonpayable",
      "type": "function"
    },
    {
      "inputs": [
        {
          "internalType": "address",
          "name": "owner",
          "type": "address"
        },
        {
          "internalType": "uint256[]",
          "name": "comicIds",
          "type": "uint256[]"
        },
        {
          "internalType": "uint256[]",
          "name": "comicValues",
          "type": "uint256[]"
        },
        {
          "internalType": "uint256",
          "name": "deadline",
          "type": "uint256"
        },
        {
          "internalType": "bytes",
          "name": "sig",
          "type": "bytes"
        }
      ],
      "name": "burnComicsForWithPermit",
      "outputs": [],
      "stateMutability": "nonpayable",
      "type": "function"
    },
    {
      "inputs": [
        {
          "internalType": "uint256[]",
          "name": "comicIds",
          "type": "uint256[]"
        },
        {
          "internalType": "uint256[]",
          "name": "comicValues",
          "type": "uint256[]"
        },
        {
          "internalType": "uint256",
          "name": "deadline",
          "type": "uint256"
        },
        {
          "internalType": "bytes",
          "name": "sig",
          "type": "bytes"
        }
      ],
      "name": "burnComicsWithPermit",
      "outputs": [],
      "stateMutability": "nonpayable",
      "type": "function"
    },
    {
      "inputs": [
        {
          "internalType": "address",
          "name": "marketplace_",
          "type": "address"
        }
      ],
      "name": "initialize",
      "outputs": [],
      "stateMutability": "nonpayable",
      "type": "function"
    },
    {
      "inputs": [],
      "name": "marketplace",
      "outputs": [
        {
          "internalType": "address",
          "name": "",
          "type": "address"
        }
      ],
      "stateMutability": "view",
      "type": "function"
    },
    {
      "inputs": [],
      "name": "owner",
      "outputs": [
        {
          "internalType": "address",
          "name": "",
          "type": "address"
        }
      ],
      "stateMutability": "view",
      "type": "function"
    },
    {
      "inputs": [],
      "name": "pause",
      "outputs": [],
      "stateMutability": "nonpayable",
      "type": "function"
    },
    {
      "inputs": [],
      "name": "paused",
      "outputs": [
        {
          "internalType": "bool",
          "name": "",
          "type": "bool"
        }
      ],
      "stateMutability": "view",
      "type": "function"
    },
    {
      "inputs": [],
      "name": "renounceOwnership",
      "outputs": [],
      "stateMutability": "nonpayable",
      "type": "function"
    },
    {
      "inputs": [
        {
          "internalType": "address",
          "name": "newOwner",
          "type": "address"
        }
      ],
      "name": "transferOwnership",
      "outputs": [],
      "stateMutability": "nonpayable",
      "type": "function"
    },
    {
      "inputs": [],
      "name": "unpause",
      "outputs": [],
      "stateMutability": "nonpayable",
      "type": "function"
    }
  ],
  "transactionHash": "0xc634dbe4104b17a51b43ec884f7b2b998b51ff5c696ab0316a445572f425a5fb",
  "args": [],
  "numDeployments": 1,
  "solcInputHash": "cbabdff66b55f207387ad7eee07485a5",
  "bytecode": "0x608060405234801561001057600080fd5b50611309806100206000396000f3fe608060405234801561001057600080fd5b50600436106100a95760003560e01c80638da5cb5b116100715780638da5cb5b146100f6578063abc8c7af1461011b578063b172f3d21461012e578063c4d66de814610141578063caa9bfdd14610154578063f2fde38b1461016757600080fd5b80633f4ba83a146100ae57806350157b9b146100b85780635c975abb146100cb578063715018a6146100e65780638456cb59146100ee575b600080fd5b6100b661017a565b005b6100b66100c6366004610de0565b61018c565b60655460ff1660405190151581526020015b60405180910390f35b6100b66101b9565b6100b66101cb565b6033546001600160a01b03165b6040516001600160a01b0390911681526020016100dd565b60c954610103906001600160a01b031681565b6100b661013c366004610eaa565b6101db565b6100b661014f366004610f5e565b6102b2565b6100b6610162366004610f80565b610444565b6100b6610175366004610f5e565b610520565b610182610599565b61018a6105f3565b565b610194610645565b61019c61069e565b6101a933858585856106e4565b6101b36001609755565b50505050565b6101c1610599565b61018a6000610b2c565b6101d3610599565b61018a610b7e565b6101e3610645565b6101eb61069e565b878383838080601f0160208091040260200160405190810160405280939291908181526020018383808284376000920191909152505060c95460405163d6b0b3f160e01b81526001600160a01b03909116925063d6b0b3f1915061025c908690309060019088908890600401611024565b600060405180830381600087803b15801561027657600080fd5b505af115801561028a573d6000803e3d6000fd5b5050505061029b8b8b8b8b8b6106e4565b5050506102a86001609755565b5050505050505050565b600054610100900460ff16158080156102d25750600054600160ff909116105b806102ec5750303b1580156102ec575060005460ff166001145b6103545760405162461bcd60e51b815260206004820152602e60248201527f496e697469616c697a61626c653a20636f6e747261637420697320616c72656160448201526d191e481a5b9a5d1a585b1a5e995960921b60648201526084015b60405180910390fd5b6000805460ff191660011790558015610377576000805461ff0019166101001790555b6001600160a01b0382166103c75760405163d647364f60e01b8152602060048201526016602482015275496e76616c696420636f6d696373206164647265737360501b604482015260640161034b565b6103cf610bbb565b6103d7610bea565b6103df610c19565b60c980546001600160a01b0319166001600160a01b0384161790558015610440576000805461ff0019169055604051600181527f7f26b83ff96e1f2b6a682f133852f6798a09c465da95921460cefb38474024989060200160405180910390a15b5050565b61044c610645565b61045461069e565b338383838080601f0160208091040260200160405190810160405280939291908181526020018383808284376000920191909152505060c95460405163d6b0b3f160e01b81526001600160a01b03909116925063d6b0b3f191506104c5908690309060019088908890600401611024565b600060405180830381600087803b1580156104df57600080fd5b505af11580156104f3573d6000803e3d6000fd5b5050505061050a6105013390565b8b8b8b8b6106e4565b5050506105176001609755565b50505050505050565b610528610599565b6001600160a01b03811661058d5760405162461bcd60e51b815260206004820152602660248201527f4f776e61626c653a206e6577206f776e657220697320746865207a65726f206160448201526564647265737360d01b606482015260840161034b565b61059681610b2c565b50565b6033546001600160a01b0316331461018a5760405162461bcd60e51b815260206004820181905260248201527f4f776e61626c653a2063616c6c6572206973206e6f7420746865206f776e6572604482015260640161034b565b6105fb610c48565b6065805460ff191690557f5db9ee0a495bf2e6ff9c91a7834c1ba4fdd244a5e8aa4e537bd38aeae4b073aa335b6040516001600160a01b03909116815260200160405180910390a1565b6002609754036106975760405162461bcd60e51b815260206004820152601f60248201527f5265656e7472616e637947756172643a207265656e7472616e742063616c6c00604482015260640161034b565b6002609755565b60655460ff161561018a5760405162461bcd60e51b815260206004820152601060248201526f14185d5cd8589b194e881c185d5cd95960821b604482015260640161034b565b8281146107345760405163d647364f60e01b815260206004820181905260248201527f417272617973206d7573742068617665207468652073616d65206c656e677468604482015260640161034b565b6000610772838380806020026020016040519081016040528093929190818152602001838360200280828437600092019190915250610c9192505050565b905083600082610783576000610786565b60015b6107939060ff16836110b4565b905060008167ffffffffffffffff8111156107b0576107b06110cd565b6040519080825280602002602001820160405280156107d9578160200160208202803683370190505b50905060008267ffffffffffffffff8111156107f7576107f76110cd565b604051908082528060200260200182016040528015610820578160200160208202803683370190505b5090508460005b858110156109335760068b8b83818110610843576108436110e3565b90506020020135111561088c5760405163d647364f60e01b815260206004820152601060248201526f125b9d985b1a590818dbdb5a58c8125160821b604482015260640161034b565b8a8a8281811061089e5761089e6110e3565b9050602002013560646108b191906110b4565b8482815181106108c3576108c36110e3565b6020026020010181815250506000878a8a848181106108e4576108e46110e3565b905060200201356108f591906110f9565b90508084838151811061090a5761090a6110e3565b602090810291909101015261091f81846110b4565b9250508061092c9061110c565b9050610827565b50851561097a57606b83868151811061094e5761094e6110e3565b6020026020010181815250508582868151811061096d5761096d6110e3565b6020026020010181815250505b806000036109be5760405163d647364f60e01b815260206004820152601060248201526f139bc81a5d195b5cc81d1bc81b5a5b9d60821b604482015260640161034b565b60c954604051631ac8311560e21b81526001600160a01b0390911690636b20c454906109f6908e908e908e908e908e90600401611157565b600060405180830381600087803b158015610a1057600080fd5b505af1158015610a24573d6000803e3d6000fd5b505050508a6001600160a01b03167f61ae20b90b5539676f6e0d4a5afbf874157b645ef9f8163171f73c1adc74e5eb8b8b8b8b604051610a67949392919061119b565b60405180910390a260c954604051631873bfdb60e31b81526001600160a01b039091169063c39dfed890610aa3908e9087908790600401611208565b600060405180830381600087803b158015610abd57600080fd5b505af1158015610ad1573d6000803e3d6000fd5b505050508a6001600160a01b03167f23519238b590c499a2abcf44a33b5f431ac6ca51c22fad26bc2c3d08b97eaa218484604051610b1092919061125a565b60405180910390a25050505050505050505050565b6001609755565b603380546001600160a01b038381166001600160a01b0319831681179093556040519116919082907f8be0079c531659141344cd1fd0a4f28419497f9722a3daafe3b4186f6b6457e090600090a35050565b610b8661069e565b6065805460ff191660011790557f62e78cea01bee320cd4e420270b5ea74000d11b0c9f74754ebdbfc544b05a2586106283390565b600054610100900460ff16610be25760405162461bcd60e51b815260040161034b90611288565b61018a610d0a565b600054610100900460ff16610c115760405162461bcd60e51b815260040161034b90611288565b61018a610d3a565b600054610100900460ff16610c405760405162461bcd60e51b815260040161034b90611288565b61018a610d61565b60655460ff1661018a5760405162461bcd60e51b815260206004820152601460248201527314185d5cd8589b194e881b9bdd081c185d5cd95960621b604482015260640161034b565b60008151600614610ca457506000919050565b815160001960005b82811015610d025781858281518110610cc757610cc76110e3565b60200260200101511015610cf257848181518110610ce757610ce76110e3565b602002602001015191505b610cfb8161110c565b9050610cac565b509392505050565b600054610100900460ff16610d315760405162461bcd60e51b815260040161034b90611288565b61018a33610b2c565b600054610100900460ff16610b255760405162461bcd60e51b815260040161034b90611288565b600054610100900460ff16610d885760405162461bcd60e51b815260040161034b90611288565b6065805460ff19169055565b60008083601f840112610da657600080fd5b50813567ffffffffffffffff811115610dbe57600080fd5b6020830191508360208260051b8501011115610dd957600080fd5b9250929050565b60008060008060408587031215610df657600080fd5b843567ffffffffffffffff80821115610e0e57600080fd5b610e1a88838901610d94565b90965094506020870135915080821115610e3357600080fd5b50610e4087828801610d94565b95989497509550505050565b80356001600160a01b0381168114610e6357600080fd5b919050565b60008083601f840112610e7a57600080fd5b50813567ffffffffffffffff811115610e9257600080fd5b602083019150836020828501011115610dd957600080fd5b60008060008060008060008060a0898b031215610ec657600080fd5b610ecf89610e4c565b9750602089013567ffffffffffffffff80821115610eec57600080fd5b610ef88c838d01610d94565b909950975060408b0135915080821115610f1157600080fd5b610f1d8c838d01610d94565b909750955060608b0135945060808b0135915080821115610f3d57600080fd5b50610f4a8b828c01610e68565b999c989b5096995094979396929594505050565b600060208284031215610f7057600080fd5b610f7982610e4c565b9392505050565b60008060008060008060006080888a031215610f9b57600080fd5b873567ffffffffffffffff80821115610fb357600080fd5b610fbf8b838c01610d94565b909950975060208a0135915080821115610fd857600080fd5b610fe48b838c01610d94565b909750955060408a0135945060608a013591508082111561100457600080fd5b506110118a828b01610e68565b989b979a50959850939692959293505050565b600060018060a01b038088168352602081881681850152861515604085015285606085015260a06080850152845191508160a085015260005b828110156110795785810182015185820160c00152810161105d565b5050600060c0828501015260c0601f19601f8301168401019150509695505050505050565b634e487b7160e01b600052601160045260246000fd5b808201808211156110c7576110c761109e565b92915050565b634e487b7160e01b600052604160045260246000fd5b634e487b7160e01b600052603260045260246000fd5b818103818111156110c7576110c761109e565b60006001820161111e5761111e61109e565b5060010190565b81835260006001600160fb1b0383111561113e57600080fd5b8260051b80836020870137939093016020019392505050565b6001600160a01b038616815260606020820181905260009061117c9083018688611125565b828103604084015261118f818587611125565b98975050505050505050565b6040815260006111af604083018688611125565b82810360208401526111c2818587611125565b979650505050505050565b600081518084526020808501945080840160005b838110156111fd578151875295820195908201906001016111e1565b509495945050505050565b6001600160a01b038416815260806020820181905260009061122c908301856111cd565b828103604084015261123e81856111cd565b8381036060909401939093525050600081526020019392505050565b60408152600061126d60408301856111cd565b828103602084015261127f81856111cd565b95945050505050565b6020808252602b908201527f496e697469616c697a61626c653a20636f6e7472616374206973206e6f74206960408201526a6e697469616c697a696e6760a81b60608201526080019056fea2646970667358221220747a1958c7d8bb9804b090faad0b0cdcecd02309268e1b9308331250ce8a7a8064736f6c63430008130033",
  "devdoc": {
    "events": {
      "Initialized(uint8)": {
        "details": "Triggered when the contract has been initialized or reinitialized."
      },
      "Paused(address)": {
        "details": "Emitted when the pause is triggered by `account`."
      },
      "Unpaused(address)": {
        "details": "Emitted when the pause is lifted by `account`."
      }
    },
    "kind": "dev",
    "methods": {
      "burnComics(uint256[],uint256[])": {
        "params": {
          "comicIds": "The list of comic IDs to burn.",
          "comicValues": "Number of comics to burn, nth value means the number of nth comics(tokenId = n) to burn."
        }
      },
      "burnComicsForWithPermit(address,uint256[],uint256[],uint256,bytes)": {
        "params": {
          "comicIds": "The list of comic IDs to burn.",
          "comicValues": "Number of comics to burn, nth value means the number of nth comics(tokenId = n) to burn.",
          "deadline": "The deadline timestamp for the permit signature.",
          "owner": "The NFT owner burning comics.",
          "sig": "The permit signature."
        }
      },
      "burnComicsWithPermit(uint256[],uint256[],uint256,bytes)": {
        "params": {
          "comicIds": "The list of comic IDs to burn.",
          "comicValues": "Number of comics to burn, nth value means the number of nth comics(tokenId = n) to burn.",
          "deadline": "The deadline timestamp for the permit signature.",
          "sig": "The permit signature."
        }
      },
      "owner()": {
        "details": "Returns the address of the current owner."
      },
      "pause()": {
        "details": "Only owner"
      },
      "paused()": {
        "details": "Returns true if the contract is paused, and false otherwise."
      },
      "renounceOwnership()": {
        "details": "Leaves the contract without owner. It will not be possible to call `onlyOwner` functions. Can only be called by the current owner. NOTE: Renouncing ownership will leave the contract without an owner, thereby disabling any functionality that is only available to the owner."
      },
      "transferOwnership(address)": {
        "details": "Transfers ownership of the contract to a new account (`newOwner`). Can only be called by the current owner."
      },
      "unpause()": {
        "details": "Only owner"
      }
    },
    "stateVariables": {
      "marketplace": {
        "details": "Nifty Marketplace address"
      }
    },
    "version": 1
  },
  "userdoc": {
    "kind": "user",
    "methods": {
      "burnComics(uint256[],uint256[])": {
        "notice": "Burns comic page(s) with prior approval to receive items associated with each page in return."
      },
      "burnComicsForWithPermit(address,uint256[],uint256[],uint256,bytes)": {
        "notice": "Burns comic page(s) on behalf of owner to provide items associated with each page in return."
      },
      "burnComicsWithPermit(uint256[],uint256[],uint256,bytes)": {
        "notice": "Burns comic page(s) without prior approval to receive items associated with each page in return."
      },
      "pause()": {
        "notice": "Pause comics burning"
      },
      "unpause()": {
        "notice": "Unpause comics burning"
      }
    },
    "version": 1
  },
  "storageLayout": {
    "storage": [
      {
        "astId": 2753,
        "contract": "src/contracts/imx/ComicsBurner.sol:ComicsBurner",
        "label": "_initialized",
        "offset": 0,
        "slot": "0",
        "type": "t_uint8"
      },
      {
        "astId": 2756,
        "contract": "src/contracts/imx/ComicsBurner.sol:ComicsBurner",
        "label": "_initializing",
        "offset": 1,
        "slot": "0",
        "type": "t_bool"
      },
      {
        "astId": 5688,
        "contract": "src/contracts/imx/ComicsBurner.sol:ComicsBurner",
        "label": "__gap",
        "offset": 0,
        "slot": "1",
        "type": "t_array(t_uint256)50_storage"
      },
      {
        "astId": 2625,
        "contract": "src/contracts/imx/ComicsBurner.sol:ComicsBurner",
        "label": "_owner",
        "offset": 0,
        "slot": "51",
        "type": "t_address"
      },
      {
        "astId": 2745,
        "contract": "src/contracts/imx/ComicsBurner.sol:ComicsBurner",
        "label": "__gap",
        "offset": 0,
        "slot": "52",
        "type": "t_array(t_uint256)49_storage"
      },
      {
        "astId": 2937,
        "contract": "src/contracts/imx/ComicsBurner.sol:ComicsBurner",
        "label": "_paused",
        "offset": 0,
        "slot": "101",
        "type": "t_bool"
      },
      {
        "astId": 3042,
        "contract": "src/contracts/imx/ComicsBurner.sol:ComicsBurner",
        "label": "__gap",
        "offset": 0,
        "slot": "102",
        "type": "t_array(t_uint256)49_storage"
      },
      {
        "astId": 3058,
        "contract": "src/contracts/imx/ComicsBurner.sol:ComicsBurner",
        "label": "_status",
        "offset": 0,
        "slot": "151",
        "type": "t_uint256"
      },
      {
        "astId": 3127,
        "contract": "src/contracts/imx/ComicsBurner.sol:ComicsBurner",
        "label": "__gap",
        "offset": 0,
        "slot": "152",
        "type": "t_array(t_uint256)49_storage"
      },
      {
        "astId": 31814,
        "contract": "src/contracts/imx/ComicsBurner.sol:ComicsBurner",
        "label": "marketplace",
        "offset": 0,
        "slot": "201",
        "type": "t_address"
      }
    ],
    "types": {
      "t_address": {
        "encoding": "inplace",
        "label": "address",
        "numberOfBytes": "20"
      },
      "t_array(t_uint256)49_storage": {
        "base": "t_uint256",
        "encoding": "inplace",
        "label": "uint256[49]",
        "numberOfBytes": "1568"
      },
      "t_array(t_uint256)50_storage": {
        "base": "t_uint256",
        "encoding": "inplace",
        "label": "uint256[50]",
        "numberOfBytes": "1600"
      },
      "t_bool": {
        "encoding": "inplace",
        "label": "bool",
        "numberOfBytes": "1"
      },
      "t_uint256": {
        "encoding": "inplace",
        "label": "uint256",
        "numberOfBytes": "32"
      },
      "t_uint8": {
        "encoding": "inplace",
        "label": "uint8",
        "numberOfBytes": "1"
      }
    }
  }
}