{
  "address": "0xCf9Eb2e135ea84681C5fdfd178b3c527195Be00C",
  "abi": [
    {
      "inputs": [
        {
          "internalType": "address",
          "name": "owner",
          "type": "address"
        },
        {
          "internalType": "string",
          "name": "name_",
          "type": "string"
        },
        {
          "internalType": "string",
          "name": "symbol_",
          "type": "string"
        },
        {
          "internalType": "string",
          "name": "baseURI_",
          "type": "string"
        },
        {
          "internalType": "string",
          "name": "contractURI_",
          "type": "string"
        },
        {
          "internalType": "address",
          "name": "_operatorAllowlist",
          "type": "address"
        },
        {
          "internalType": "address",
          "name": "_receiver",
          "type": "address"
        },
        {
          "internalType": "uint96",
          "name": "_feeNumerator",
          "type": "uint96"
        }
      ],
      "stateMutability": "payable",
      "type": "constructor"
    },
    {
      "inputs": [],
      "name": "AllowlistDoesNotImplementIOperatorAllowlist",
      "type": "error"
    },
    {
      "inputs": [
        {
          "internalType": "address",
          "name": "target",
          "type": "address"
        }
      ],
      "name": "ApproveTargetNotInAllowlist",
      "type": "error"
    },
    {
      "inputs": [
        {
          "internalType": "address",
          "name": "approver",
          "type": "address"
        }
      ],
      "name": "ApproverNotInAllowlist",
      "type": "error"
    },
    {
      "inputs": [
        {
          "internalType": "address",
          "name": "caller",
          "type": "address"
        }
      ],
      "name": "CallerNotInAllowlist",
      "type": "error"
    },
    {
      "inputs": [],
      "name": "InvalidShortString",
      "type": "error"
    },
    {
      "inputs": [],
      "name": "InvalidSignature",
      "type": "error"
    },
    {
      "inputs": [],
      "name": "PermitExpired",
      "type": "error"
    },
    {
      "inputs": [
        {
          "internalType": "string",
          "name": "str",
          "type": "string"
        }
      ],
      "name": "StringTooLong",
      "type": "error"
    },
    {
      "inputs": [
        {
          "internalType": "address",
          "name": "from",
          "type": "address"
        }
      ],
      "name": "TransferFromNotInAllowlist",
      "type": "error"
    },
    {
      "inputs": [
        {
          "internalType": "address",
          "name": "to",
          "type": "address"
        }
      ],
      "name": "TransferToNotInAllowlist",
      "type": "error"
    },
    {
      "anonymous": false,
      "inputs": [
        {
          "indexed": true,
          "internalType": "address",
          "name": "account",
          "type": "address"
        },
        {
          "indexed": true,
          "internalType": "address",
          "name": "operator",
          "type": "address"
        },
        {
          "indexed": false,
          "internalType": "bool",
          "name": "approved",
          "type": "bool"
        }
      ],
      "name": "ApprovalForAll",
      "type": "event"
    },
    {
      "anonymous": false,
      "inputs": [],
      "name": "EIP712DomainChanged",
      "type": "event"
    },
    {
      "anonymous": false,
      "inputs": [
        {
          "indexed": false,
          "internalType": "address",
          "name": "oldRegistry",
          "type": "address"
        },
        {
          "indexed": false,
          "internalType": "address",
          "name": "newRegistry",
          "type": "address"
        }
      ],
      "name": "OperatorAllowlistRegistryUpdated",
      "type": "event"
    },
    {
      "anonymous": false,
      "inputs": [
        {
          "indexed": true,
          "internalType": "bytes32",
          "name": "role",
          "type": "bytes32"
        },
        {
          "indexed": true,
          "internalType": "bytes32",
          "name": "previousAdminRole",
          "type": "bytes32"
        },
        {
          "indexed": true,
          "internalType": "bytes32",
          "name": "newAdminRole",
          "type": "bytes32"
        }
      ],
      "name": "RoleAdminChanged",
      "type": "event"
    },
    {
      "anonymous": false,
      "inputs": [
        {
          "indexed": true,
          "internalType": "bytes32",
          "name": "role",
          "type": "bytes32"
        },
        {
          "indexed": true,
          "internalType": "address",
          "name": "account",
          "type": "address"
        },
        {
          "indexed": true,
          "internalType": "address",
          "name": "sender",
          "type": "address"
        }
      ],
      "name": "RoleGranted",
      "type": "event"
    },
    {
      "anonymous": false,
      "inputs": [
        {
          "indexed": true,
          "internalType": "bytes32",
          "name": "role",
          "type": "bytes32"
        },
        {
          "indexed": true,
          "internalType": "address",
          "name": "account",
          "type": "address"
        },
        {
          "indexed": true,
          "internalType": "address",
          "name": "sender",
          "type": "address"
        }
      ],
      "name": "RoleRevoked",
      "type": "event"
    },
    {
      "anonymous": false,
      "inputs": [
        {
          "indexed": true,
          "internalType": "address",
          "name": "operator",
          "type": "address"
        },
        {
          "indexed": true,
          "internalType": "address",
          "name": "from",
          "type": "address"
        },
        {
          "indexed": true,
          "internalType": "address",
          "name": "to",
          "type": "address"
        },
        {
          "indexed": false,
          "internalType": "uint256[]",
          "name": "ids",
          "type": "uint256[]"
        },
        {
          "indexed": false,
          "internalType": "uint256[]",
          "name": "values",
          "type": "uint256[]"
        }
      ],
      "name": "TransferBatch",
      "type": "event"
    },
    {
      "anonymous": false,
      "inputs": [
        {
          "indexed": true,
          "internalType": "address",
          "name": "operator",
          "type": "address"
        },
        {
          "indexed": true,
          "internalType": "address",
          "name": "from",
          "type": "address"
        },
        {
          "indexed": true,
          "internalType": "address",
          "name": "to",
          "type": "address"
        },
        {
          "indexed": false,
          "internalType": "uint256",
          "name": "id",
          "type": "uint256"
        },
        {
          "indexed": false,
          "internalType": "uint256",
          "name": "value",
          "type": "uint256"
        }
      ],
      "name": "TransferSingle",
      "type": "event"
    },
    {
      "anonymous": false,
      "inputs": [
        {
          "indexed": false,
          "internalType": "string",
          "name": "value",
          "type": "string"
        },
        {
          "indexed": true,
          "internalType": "uint256",
          "name": "id",
          "type": "uint256"
        }
      ],
      "name": "URI",
      "type": "event"
    },
    {
      "inputs": [],
      "name": "DEFAULT_ADMIN_ROLE",
      "outputs": [
        {
          "internalType": "bytes32",
          "name": "",
          "type": "bytes32"
        }
      ],
      "stateMutability": "view",
      "type": "function"
    },
    {
      "inputs": [],
      "name": "DOMAIN_SEPARATOR",
      "outputs": [
        {
          "internalType": "bytes32",
          "name": "",
          "type": "bytes32"
        }
      ],
      "stateMutability": "view",
      "type": "function"
    },
    {
      "inputs": [],
      "name": "MINTER_ROLE",
      "outputs": [
        {
          "internalType": "bytes32",
          "name": "",
          "type": "bytes32"
        }
      ],
      "stateMutability": "view",
      "type": "function"
    },
    {
      "inputs": [
        {
          "internalType": "address",
          "name": "account",
          "type": "address"
        },
        {
          "internalType": "uint256",
          "name": "id",
          "type": "uint256"
        }
      ],
      "name": "balanceOf",
      "outputs": [
        {
          "internalType": "uint256",
          "name": "",
          "type": "uint256"
        }
      ],
      "stateMutability": "view",
      "type": "function"
    },
    {
      "inputs": [
        {
          "internalType": "address[]",
          "name": "accounts",
          "type": "address[]"
        },
        {
          "internalType": "uint256[]",
          "name": "ids",
          "type": "uint256[]"
        }
      ],
      "name": "balanceOfBatch",
      "outputs": [
        {
          "internalType": "uint256[]",
          "name": "",
          "type": "uint256[]"
        }
      ],
      "stateMutability": "view",
      "type": "function"
    },
    {
      "inputs": [],
      "name": "baseURI",
      "outputs": [
        {
          "internalType": "string",
          "name": "",
          "type": "string"
        }
      ],
      "stateMutability": "view",
      "type": "function"
    },
    {
      "inputs": [
        {
          "internalType": "address",
          "name": "account",
          "type": "address"
        },
        {
          "internalType": "uint256",
          "name": "id",
          "type": "uint256"
        },
        {
          "internalType": "uint256",
          "name": "value",
          "type": "uint256"
        }
      ],
      "name": "burn",
      "outputs": [],
      "stateMutability": "nonpayable",
      "type": "function"
    },
    {
      "inputs": [
        {
          "internalType": "address",
          "name": "account",
          "type": "address"
        },
        {
          "internalType": "uint256[]",
          "name": "ids",
          "type": "uint256[]"
        },
        {
          "internalType": "uint256[]",
          "name": "values",
          "type": "uint256[]"
        }
      ],
      "name": "burnBatch",
      "outputs": [],
      "stateMutability": "nonpayable",
      "type": "function"
    },
    {
      "inputs": [],
      "name": "contractURI",
      "outputs": [
        {
          "internalType": "string",
          "name": "",
          "type": "string"
        }
      ],
      "stateMutability": "view",
      "type": "function"
    },
    {
      "inputs": [],
      "name": "eip712Domain",
      "outputs": [
        {
          "internalType": "bytes1",
          "name": "fields",
          "type": "bytes1"
        },
        {
          "internalType": "string",
          "name": "name",
          "type": "string"
        },
        {
          "internalType": "string",
          "name": "version",
          "type": "string"
        },
        {
          "internalType": "uint256",
          "name": "chainId",
          "type": "uint256"
        },
        {
          "internalType": "address",
          "name": "verifyingContract",
          "type": "address"
        },
        {
          "internalType": "bytes32",
          "name": "salt",
          "type": "bytes32"
        },
        {
          "internalType": "uint256[]",
          "name": "extensions",
          "type": "uint256[]"
        }
      ],
      "stateMutability": "view",
      "type": "function"
    },
    {
      "inputs": [
        {
          "internalType": "uint256",
          "name": "id",
          "type": "uint256"
        }
      ],
      "name": "exists",
      "outputs": [
        {
          "internalType": "bool",
          "name": "",
          "type": "bool"
        }
      ],
      "stateMutability": "view",
      "type": "function"
    },
    {
      "inputs": [],
      "name": "getAdmins",
      "outputs": [
        {
          "internalType": "address[]",
          "name": "",
          "type": "address[]"
        }
      ],
      "stateMutability": "view",
      "type": "function"
    },
    {
      "inputs": [
        {
          "internalType": "bytes32",
          "name": "role",
          "type": "bytes32"
        }
      ],
      "name": "getRoleAdmin",
      "outputs": [
        {
          "internalType": "bytes32",
          "name": "",
          "type": "bytes32"
        }
      ],
      "stateMutability": "view",
      "type": "function"
    },
    {
      "inputs": [
        {
          "internalType": "bytes32",
          "name": "role",
          "type": "bytes32"
        },
        {
          "internalType": "uint256",
          "name": "index",
          "type": "uint256"
        }
      ],
      "name": "getRoleMember",
      "outputs": [
        {
          "internalType": "address",
          "name": "",
          "type": "address"
        }
      ],
      "stateMutability": "view",
      "type": "function"
    },
    {
      "inputs": [
        {
          "internalType": "bytes32",
          "name": "role",
          "type": "bytes32"
        }
      ],
      "name": "getRoleMemberCount",
      "outputs": [
        {
          "internalType": "uint256",
          "name": "",
          "type": "uint256"
        }
      ],
      "stateMutability": "view",
      "type": "function"
    },
    {
      "inputs": [
        {
          "internalType": "address",
          "name": "user",
          "type": "address"
        }
      ],
      "name": "grantMinterRole",
      "outputs": [],
      "stateMutability": "nonpayable",
      "type": "function"
    },
    {
      "inputs": [
        {
          "internalType": "bytes32",
          "name": "role",
          "type": "bytes32"
        },
        {
          "internalType": "address",
          "name": "account",
          "type": "address"
        }
      ],
      "name": "grantRole",
      "outputs": [],
      "stateMutability": "nonpayable",
      "type": "function"
    },
    {
      "inputs": [
        {
          "internalType": "bytes32",
          "name": "role",
          "type": "bytes32"
        },
        {
          "internalType": "address",
          "name": "account",
          "type": "address"
        }
      ],
      "name": "hasRole",
      "outputs": [
        {
          "internalType": "bool",
          "name": "",
          "type": "bool"
        }
      ],
      "stateMutability": "view",
      "type": "function"
    },
    {
      "inputs": [
        {
          "internalType": "address",
          "name": "account",
          "type": "address"
        },
        {
          "internalType": "address",
          "name": "operator",
          "type": "address"
        }
      ],
      "name": "isApprovedForAll",
      "outputs": [
        {
          "internalType": "bool",
          "name": "",
          "type": "bool"
        }
      ],
      "stateMutability": "view",
      "type": "function"
    },
    {
      "inputs": [],
      "name": "name",
      "outputs": [
        {
          "internalType": "string",
          "name": "",
          "type": "string"
        }
      ],
      "stateMutability": "view",
      "type": "function"
    },
    {
      "inputs": [
        {
          "internalType": "address",
          "name": "owner",
          "type": "address"
        }
      ],
      "name": "nonces",
      "outputs": [
        {
          "internalType": "uint256",
          "name": "",
          "type": "uint256"
        }
      ],
      "stateMutability": "view",
      "type": "function"
    },
    {
      "inputs": [],
      "name": "operatorAllowlist",
      "outputs": [
        {
          "internalType": "contract IOperatorAllowlist",
          "name": "",
          "type": "address"
        }
      ],
      "stateMutability": "view",
      "type": "function"
    },
    {
      "inputs": [
        {
          "internalType": "address",
          "name": "owner",
          "type": "address"
        },
        {
          "internalType": "address",
          "name": "spender",
          "type": "address"
        },
        {
          "internalType": "bool",
          "name": "approved",
          "type": "bool"
        },
        {
          "internalType": "uint256",
          "name": "deadline",
          "type": "uint256"
        },
        {
          "internalType": "bytes",
          "name": "sig",
          "type": "bytes"
        }
      ],
      "name": "permit",
      "outputs": [],
      "stateMutability": "nonpayable",
      "type": "function"
    },
    {
      "inputs": [
        {
          "internalType": "bytes32",
          "name": "role",
          "type": "bytes32"
        },
        {
          "internalType": "address",
          "name": "account",
          "type": "address"
        }
      ],
      "name": "renounceRole",
      "outputs": [],
      "stateMutability": "nonpayable",
      "type": "function"
    },
    {
      "inputs": [
        {
          "internalType": "address",
          "name": "user",
          "type": "address"
        }
      ],
      "name": "revokeMinterRole",
      "outputs": [],
      "stateMutability": "nonpayable",
      "type": "function"
    },
    {
      "inputs": [
        {
          "internalType": "bytes32",
          "name": "role",
          "type": "bytes32"
        },
        {
          "internalType": "address",
          "name": "account",
          "type": "address"
        }
      ],
      "name": "revokeRole",
      "outputs": [],
      "stateMutability": "nonpayable",
      "type": "function"
    },
    {
      "inputs": [
        {
          "internalType": "uint256",
          "name": "tokenId",
          "type": "uint256"
        },
        {
          "internalType": "uint256",
          "name": "salePrice",
          "type": "uint256"
        }
      ],
      "name": "royaltyInfo",
      "outputs": [
        {
          "internalType": "address",
          "name": "",
          "type": "address"
        },
        {
          "internalType": "uint256",
          "name": "",
          "type": "uint256"
        }
      ],
      "stateMutability": "view",
      "type": "function"
    },
    {
      "inputs": [
        {
          "internalType": "address",
          "name": "from",
          "type": "address"
        },
        {
          "internalType": "address",
          "name": "to",
          "type": "address"
        },
        {
          "internalType": "uint256[]",
          "name": "ids",
          "type": "uint256[]"
        },
        {
          "internalType": "uint256[]",
          "name": "amounts",
          "type": "uint256[]"
        },
        {
          "internalType": "bytes",
          "name": "data",
          "type": "bytes"
        }
      ],
      "name": "safeBatchTransferFrom",
      "outputs": [],
      "stateMutability": "nonpayable",
      "type": "function"
    },
    {
      "inputs": [
        {
          "internalType": "address",
          "name": "to",
          "type": "address"
        },
        {
          "internalType": "uint256",
          "name": "id",
          "type": "uint256"
        },
        {
          "internalType": "uint256",
          "name": "value",
          "type": "uint256"
        },
        {
          "internalType": "bytes",
          "name": "data",
          "type": "bytes"
        }
      ],
      "name": "safeMint",
      "outputs": [],
      "stateMutability": "nonpayable",
      "type": "function"
    },
    {
      "inputs": [
        {
          "internalType": "address",
          "name": "to",
          "type": "address"
        },
        {
          "internalType": "uint256[]",
          "name": "ids",
          "type": "uint256[]"
        },
        {
          "internalType": "uint256[]",
          "name": "values",
          "type": "uint256[]"
        },
        {
          "internalType": "bytes",
          "name": "data",
          "type": "bytes"
        }
      ],
      "name": "safeMintBatch",
      "outputs": [],
      "stateMutability": "nonpayable",
      "type": "function"
    },
    {
      "inputs": [
        {
          "internalType": "address",
          "name": "from",
          "type": "address"
        },
        {
          "internalType": "address",
          "name": "to",
          "type": "address"
        },
        {
          "internalType": "uint256",
          "name": "id",
          "type": "uint256"
        },
        {
          "internalType": "uint256",
          "name": "amount",
          "type": "uint256"
        },
        {
          "internalType": "bytes",
          "name": "data",
          "type": "bytes"
        }
      ],
      "name": "safeTransferFrom",
      "outputs": [],
      "stateMutability": "nonpayable",
      "type": "function"
    },
    {
      "inputs": [
        {
          "internalType": "address",
          "name": "operator",
          "type": "address"
        },
        {
          "internalType": "bool",
          "name": "approved",
          "type": "bool"
        }
      ],
      "name": "setApprovalForAll",
      "outputs": [],
      "stateMutability": "nonpayable",
      "type": "function"
    },
    {
      "inputs": [
        {
          "internalType": "string",
          "name": "baseURI_",
          "type": "string"
        }
      ],
      "name": "setBaseURI",
      "outputs": [],
      "stateMutability": "nonpayable",
      "type": "function"
    },
    {
      "inputs": [
        {
          "internalType": "string",
          "name": "contractURI_",
          "type": "string"
        }
      ],
      "name": "setContractURI",
      "outputs": [],
      "stateMutability": "nonpayable",
      "type": "function"
    },
    {
      "inputs": [
        {
          "internalType": "address",
          "name": "receiver",
          "type": "address"
        },
        {
          "internalType": "uint96",
          "name": "feeNumerator",
          "type": "uint96"
        }
      ],
      "name": "setDefaultRoyaltyReceiver",
      "outputs": [],
      "stateMutability": "nonpayable",
      "type": "function"
    },
    {
      "inputs": [
        {
          "internalType": "uint256",
          "name": "tokenId",
          "type": "uint256"
        },
        {
          "internalType": "address",
          "name": "receiver",
          "type": "address"
        },
        {
          "internalType": "uint96",
          "name": "feeNumerator",
          "type": "uint96"
        }
      ],
      "name": "setNFTRoyaltyReceiver",
      "outputs": [],
      "stateMutability": "nonpayable",
      "type": "function"
    },
    {
      "inputs": [
        {
          "internalType": "uint256[]",
          "name": "tokenIds",
          "type": "uint256[]"
        },
        {
          "internalType": "address",
          "name": "receiver",
          "type": "address"
        },
        {
          "internalType": "uint96",
          "name": "feeNumerator",
          "type": "uint96"
        }
      ],
      "name": "setNFTRoyaltyReceiverBatch",
      "outputs": [],
      "stateMutability": "nonpayable",
      "type": "function"
    },
    {
      "inputs": [
        {
          "internalType": "bytes4",
          "name": "interfaceId",
          "type": "bytes4"
        }
      ],
      "name": "supportsInterface",
      "outputs": [
        {
          "internalType": "bool",
          "name": "",
          "type": "bool"
        }
      ],
      "stateMutability": "view",
      "type": "function"
    },
    {
      "inputs": [],
      "name": "symbol",
      "outputs": [
        {
          "internalType": "string",
          "name": "",
          "type": "string"
        }
      ],
      "stateMutability": "view",
      "type": "function"
    },
    {
      "inputs": [
        {
          "internalType": "uint256",
          "name": "id",
          "type": "uint256"
        }
      ],
      "name": "totalSupply",
      "outputs": [
        {
          "internalType": "uint256",
          "name": "",
          "type": "uint256"
        }
      ],
      "stateMutability": "view",
      "type": "function"
    },
    {
      "inputs": [
        {
          "internalType": "uint256",
          "name": "tokenId",
          "type": "uint256"
        }
      ],
      "name": "uri",
      "outputs": [
        {
          "internalType": "string",
          "name": "tokenURI",
          "type": "string"
        }
      ],
      "stateMutability": "view",
      "type": "function"
    }
  ],
  "transactionHash": "0x8a54c0f6e1df42ba18e5e7fa45ff2e03c6a0a5c7b8919b7e6e8ce28a8cd32d7b",
  "args": [
    "0x6C287e19065661Ca590A11CF0b419d1434991B67",
    "Nifty Marketplace",
    "NIFTY",
    "https://api.niftyleague.com/imx/marketplace/metadata/",
    "https://api.niftyleague.com/imx/marketplace/collection.json",
    "0x6b969FD89dE634d8DE3271EbE97734FEFfcd58eE",
    "0x87e1237074760F57b424121edcA06F082700dBC2",
    250
  ],
  "numDeployments": 7,
  "solcInputHash": "2453ca6aadbd088a3e0ad11a4911554e",
  "bytecode": "0x6101806040527f3f43a9c6bafb5c7aab4e0cfe239dc5d4c15caf0381c6104188191f78a6640bd86101609081525060405162004de738038062004de78339810160408190526200004f916200068d565b8787868686868686868686868686858581604051806040016040528060018152602001603160f81b815250826200008c81620001c460201b60201c565b506200009a826006620001d6565b61012052620000ab816007620001d6565b61014052815160208084019190912060e052815190820120610100524660a0526200013960e05161010051604080517f8b73c3c69bb8fe3d512ecc4cf759cc79239f7b179b0ffacaa9a75d522b39400f60208201529081019290925260608201524660808201523060a082015260009060c00160405160208183030381529060405280519060200120905090565b60805250503060c052506200015290506000886200020f565b6200015e82826200023a565b62000169836200033f565b600b62000177858262000820565b50600c62000186868262000820565b50505050505050505050505050505086600e9081620001a6919062000820565b50600f620001b5878262000820565b5050505050505050506200096a565b6005620001d2828262000820565b5050565b6000602083511015620001f657620001ee8362000438565b905062000209565b8162000203848262000820565b5060ff90505b92915050565b6200021b82826200047b565b60008281526001602052604090206200023590826200051b565b505050565b6127106001600160601b0382161115620002ae5760405162461bcd60e51b815260206004820152602a60248201527f455243323938313a20726f79616c7479206665652077696c6c206578636565646044820152692073616c65507269636560b01b60648201526084015b60405180910390fd5b6001600160a01b038216620003065760405162461bcd60e51b815260206004820152601960248201527f455243323938313a20696e76616c6964207265636569766572000000000000006044820152606401620002a5565b604080518082019091526001600160a01b039092168083526001600160601b039091166020909201829052600160a01b90910217600955565b6040516301ffc9a760e01b81526305a3b80960e01b60048201526001600160a01b038216906301ffc9a790602401602060405180830381865afa1580156200038b573d6000803e3d6000fd5b505050506040513d601f19601f82011682018060405250810190620003b19190620008ec565b620003cf5760405163d6f93fb760e01b815260040160405180910390fd5b600254604080516001600160a01b03928316815291831660208301527f3edc37a14cc8047c7c8a3f354311efe86c14848efd4e3765a3e1e57eea04ea76910160405180910390a1600280546001600160a01b0319166001600160a01b0392909216919091179055565b600080829050601f8151111562000466578260405163305a27a960e01b8152600401620002a5919062000910565b8051620004738262000945565b179392505050565b6000828152602081815260408083206001600160a01b038516845290915290205460ff16620001d2576000828152602081815260408083206001600160a01b03851684529091529020805460ff19166001179055620004d73390565b6001600160a01b0316816001600160a01b0316837f2f8788117e7eff1d82e926ec794901d17c78024a50270940304540a733656f0d60405160405180910390a45050565b600062000532836001600160a01b03841662000539565b9392505050565b6000818152600183016020526040812054620005825750815460018181018455600084815260208082209093018490558454848252828601909352604090209190915562000209565b50600062000209565b80516001600160a01b0381168114620005a357600080fd5b919050565b634e487b7160e01b600052604160045260246000fd5b60005b83811015620005db578181015183820152602001620005c1565b50506000910152565b600082601f830112620005f657600080fd5b81516001600160401b0380821115620006135762000613620005a8565b604051601f8301601f19908116603f011681019082821181831017156200063e576200063e620005a8565b816040528381528660208588010111156200065857600080fd5b6200066b846020830160208901620005be565b9695505050505050565b80516001600160601b0381168114620005a357600080fd5b600080600080600080600080610100898b031215620006ab57600080fd5b620006b6896200058b565b60208a01519098506001600160401b0380821115620006d457600080fd5b620006e28c838d01620005e4565b985060408b0151915080821115620006f957600080fd5b620007078c838d01620005e4565b975060608b01519150808211156200071e57600080fd5b6200072c8c838d01620005e4565b965060808b01519150808211156200074357600080fd5b50620007528b828c01620005e4565b9450506200076360a08a016200058b565b92506200077360c08a016200058b565b91506200078360e08a0162000675565b90509295985092959890939650565b600181811c90821680620007a757607f821691505b602082108103620007c857634e487b7160e01b600052602260045260246000fd5b50919050565b601f8211156200023557600081815260208120601f850160051c81016020861015620007f75750805b601f850160051c820191505b81811015620008185782815560010162000803565b505050505050565b81516001600160401b038111156200083c576200083c620005a8565b62000854816200084d845462000792565b84620007ce565b602080601f8311600181146200088c5760008415620008735750858301515b600019600386901b1c1916600185901b17855562000818565b600085815260208120601f198616915b82811015620008bd578886015182559484019460019091019084016200089c565b5085821015620008dc5787850151600019600388901b60f8161c191681555b5050505050600190811b01905550565b600060208284031215620008ff57600080fd5b815180151581146200053257600080fd5b602081526000825180602084015262000931816040850160208701620005be565b601f01601f19169190910160400192915050565b80516020808301519190811015620007c85760001960209190910360031b1b16919050565b60805160a05160c05160e05161010051610120516101405161016051614417620009d06000396000611c1d01526000610cc401526000610c990152600061154e0152600061152601526000611481015260006114ab015260006114d501526144176000f3fe608060405234801561001057600080fd5b50600436106102525760003560e01c80636c0360eb11610146578063a7012816116100c3578063d547741f11610087578063d547741f1461057d578063d6b0b3f114610590578063e8a3d485146105a3578063e985e9c5146105ab578063f242432a146105e7578063f5298aca146105fa57600080fd5b8063a70128161461050f578063bd85b03914610522578063c39dfed814610542578063ca15c87314610555578063d53913931461056857600080fd5b806391d148541161010a57806391d14854146104c6578063938e3d7b146104d957806395d89b41146104ec578063a217fddf146104f4578063a22cb465146104fc57600080fd5b80636c0360eb146104545780637ecebe001461045c57806384b0196e14610485578063885e7a08146104a05780639010d07c146104b357600080fd5b80633644e515116101d45780634f558e79116101985780634f558e79146103e657806355f804b3146104085780635cfa92971461041b57806369e2f0fb1461042e5780636b20c4541461044157600080fd5b80633644e5151461038557806336568abe1461038d5780633dd1eb61146103a0578063439aed34146103b35780634e1273f4146103c657600080fd5b806329326f291161021b57806329326f29146102eb5780632a55205a146103165780632eb2c2d6146103485780632f2ff15d1461035d57806331ae450b1461037057600080fd5b8062fdd58e1461025757806301ffc9a71461027d57806306fdde03146102a05780630e89341c146102b5578063248a9ca3146102c8575b600080fd5b61026a610265366004613335565b61060d565b6040519081526020015b60405180910390f35b61029061028b366004613375565b6106a8565b6040519015158152602001610274565b6102a86106b3565b60405161027491906133e2565b6102a86102c33660046133f5565b610741565b61026a6102d63660046133f5565b60009081526020819052604090206001015490565b6002546102fe906001600160a01b031681565b6040516001600160a01b039091168152602001610274565b61032961032436600461340e565b61077b565b604080516001600160a01b039093168352602083019190915201610274565b61035b610356366004613583565b610829565b005b61035b61036b36600461362c565b610875565b61037861089f565b6040516102749190613658565b61026a61094d565b61035b61039b36600461362c565b61095c565b61035b6103ae3660046136a5565b6109da565b61035b6103c13660046136d7565b6109fd565b6103d96103d4366004613713565b610a26565b6040516102749190613818565b6102906103f43660046133f5565b6000908152600d6020526040902054151590565b61035b61041636600461382b565b610b4f565b61035b61042936600461387b565b610b6f565b61035b61043c3660046136a5565b610b93565b61035b61044f3660046138db565b610bb6565b6102a8610bf9565b61026a61046a3660046136a5565b6001600160a01b031660009081526008602052604090205490565b61048d610c8b565b604051610274979695949392919061394e565b61035b6104ae3660046139be565b610d14565b6102fe6104c136600461340e565b610d29565b6102906104d436600461362c565b610d48565b61035b6104e736600461382b565b610d71565b6102a8610d88565b61026a600081565b61035b61050a3660046139f6565b610d95565b61035b61051d366004613a71565b610ee6565b61026a6105303660046133f5565b6000908152600d602052604090205490565b61035b610550366004613ad5565b610f46565b61026a6105633660046133f5565b610fd7565b61026a6a4d494e5445525f524f4c4560a81b81565b61035b61058b36600461362c565b610fee565b61035b61059e366004613b77565b611013565b6102a86110f7565b6102906105b9366004613be4565b6001600160a01b03918216600090815260046020908152604080832093909416825291909152205460ff1690565b61035b6105f5366004613c0e565b611104565b61035b610608366004613c66565b611149565b60006001600160a01b03831661067d5760405162461bcd60e51b815260206004820152602a60248201527f455243313135353a2061646472657373207a65726f206973206e6f742061207660448201526930b634b21037bbb732b960b11b60648201526084015b60405180910390fd5b5060008181526003602090815260408083206001600160a01b03861684529091529020545b92915050565b60006106a28261118c565b600e80546106c090613c99565b80601f01602080910402602001604051908101604052809291908181526020018280546106ec90613c99565b80156107395780601f1061070e57610100808354040283529160200191610739565b820191906000526020600020905b81548152906001019060200180831161071c57829003601f168201915b505050505081565b606061074b610bf9565b610754836111b1565b604051602001610765929190613cd3565b6040516020818303038152906040529050919050565b6000828152600a602090815260408083208151808301909252546001600160a01b038116808352600160a01b9091046001600160601b03169282019290925282916107f05750604080518082019091526009546001600160a01b0381168252600160a01b90046001600160601b031660208201525b60208101516000906127109061080f906001600160601b031687613d18565b6108199190613d2f565b91519350909150505b9250929050565b6001600160a01b038516331480610845575061084585336105b9565b6108615760405162461bcd60e51b815260040161067490613d51565b61086e8585858585611243565b5050505050565b60008281526020819052604090206001015461089081611445565b61089a8383611452565b505050565b606060006108ac81610fd7565b90506000816001600160401b038111156108c8576108c8613430565b6040519080825280602002602001820160405280156108f1578160200160208202803683370190505b50905060005b828110156109465761090a600082610d29565b82828151811061091c5761091c613d9f565b6001600160a01b03909216602092830291909101909101528061093e81613db5565b9150506108f7565b5092915050565b6000610957611474565b905090565b6001600160a01b03811633146109cc5760405162461bcd60e51b815260206004820152602f60248201527f416363657373436f6e74726f6c3a2063616e206f6e6c792072656e6f756e636560448201526e103937b632b9903337b91039b2b63360891b6064820152608401610674565b6109d682826115a2565b5050565b60006109e581611445565b6109d66a4d494e5445525f524f4c4560a81b83610875565b6a4d494e5445525f524f4c4560a81b610a1581611445565b610a208484846115c4565b50505050565b60608151835114610a8b5760405162461bcd60e51b815260206004820152602960248201527f455243313135353a206163636f756e747320616e6420696473206c656e677468604482015268040dad2e6dac2e8c6d60bb1b6064820152608401610674565b600083516001600160401b03811115610aa657610aa6613430565b604051908082528060200260200182016040528015610acf578160200160208202803683370190505b50905060005b8451811015610b4757610b1a858281518110610af357610af3613d9f565b6020026020010151858381518110610b0d57610b0d613d9f565b602002602001015161060d565b828281518110610b2c57610b2c613d9f565b6020908102919091010152610b4081613db5565b9050610ad5565b509392505050565b6000610b5a81611445565b610b638261168f565b600c61089a8382613e14565b6a4d494e5445525f524f4c4560a81b610b8781611445565b61086e8585858561169b565b6000610b9e81611445565b6109d66a4d494e5445525f524f4c4560a81b83610fee565b6001600160a01b038316331480610bd25750610bd283336105b9565b610bee5760405162461bcd60e51b815260040161067490613d51565b61089a83838361177d565b6060600c8054610c0890613c99565b80601f0160208091040260200160405190810160405280929190818152602001828054610c3490613c99565b8015610c815780601f10610c5657610100808354040283529160200191610c81565b820191906000526020600020905b815481529060010190602001808311610c6457829003601f168201915b5050505050905090565b600060608082808083610cbf7f0000000000000000000000000000000000000000000000000000000000000000600661191c565b610cea7f0000000000000000000000000000000000000000000000000000000000000000600761191c565b60408051600080825260208201909252600f60f81b9b939a50919850469750309650945092509050565b6000610d1f81611445565b61089a83836119c7565b6000828152600160205260408120610d419083611a81565b9392505050565b6000918252602082815260408084206001600160a01b0393909316845291905290205460ff1690565b6000610d7c81611445565b600b61089a8382613e14565b600f80546106c090613c99565b81333b15801590610e0f57506002546040516305a3b80960e01b81523360048201526001600160a01b03909116906305a3b80990602401602060405180830381865afa158015610de9573d6000803e3d6000fd5b505050506040513d601f19601f82011682018060405250810190610e0d9190613ed3565b155b15610e2f5760405163f6fa4cbd60e01b8152336004820152602401610674565b6001600160a01b0381163b15801590610eb357506002546040516305a3b80960e01b81526001600160a01b038381166004830152909116906305a3b80990602401602060405180830381865afa158015610e8d573d6000803e3d6000fd5b505050506040513d601f19601f82011682018060405250810190610eb19190613ed3565b155b15610edc576040516341b8d58160e11b81526001600160a01b0382166004820152602401610674565b61089a8383611a8d565b6a4d494e5445525f524f4c4560a81b610efe81611445565b60005b84811015610f3e57610f2c868683818110610f1e57610f1e613d9f565b9050602002013585856115c4565b80610f3681613db5565b915050610f01565b505050505050565b6a4d494e5445525f524f4c4560a81b610f5e81611445565b610fce8787878080602002602001604051908101604052809392919081815260200183836020028082843760009201919091525050604080516020808b0282810182019093528a82529093508a925089918291850190849080828437600092019190915250889250611a98915050565b50505050505050565b60008181526001602052604081206106a290611bf3565b60008281526020819052604090206001015461100981611445565b61089a83836115a2565b428210156110345760405163068568f360e21b815260040160405180910390fd5b600061104285878686611bfd565b905061104f868284611caf565b156110655761105f868686611db9565b5061086e565b600082516040036110ac576110a5826110818560006020611e99565b61108a90613ef0565b6110978660206040611e99565b6110a090613ef0565b611fa6565b90506110d8565b82516041036110bf576110a58284611fc3565b604051638baa579f60e01b815260040160405180910390fd5b6110e28188611fdf565b156110bf576110f2878787611db9565b610fce565b600b80546106c090613c99565b6001600160a01b038516331480611120575061112085336105b9565b61113c5760405162461bcd60e51b815260040161067490613d51565b61086e8585858585612006565b6001600160a01b038316331480611165575061116583336105b9565b6111815760405162461bcd60e51b815260040161067490613d51565b61089a838383612208565b60006001600160e01b0319821663152a902d60e11b14806106a257506106a282612324565b606060006111be83612349565b60010190506000816001600160401b038111156111dd576111dd613430565b6040519080825280601f01601f191660200182016040528015611207576020820181803683370190505b5090508181016020015b600019016f181899199a1a9b1b9c1cb0b131b232b360811b600a86061a8153600a850494508461121157509392505050565b84843332148015906112be57506002546040516305a3b80960e01b81523360048201526001600160a01b03909116906305a3b80990602401602060405180830381865afa158015611298573d6000803e3d6000fd5b505050506040513d601f19601f820116820180604052508101906112bc9190613ed3565b155b156112de5760405163937db65f60e01b8152336004820152602401610674565b6001600160a01b0382163b1580159061136257506002546040516305a3b80960e01b81526001600160a01b038481166004830152909116906305a3b80990602401602060405180830381865afa15801561133c573d6000803e3d6000fd5b505050506040513d601f19601f820116820180604052508101906113609190613ed3565b155b1561138b5760405163f934453160e01b81526001600160a01b0383166004820152602401610674565b6001600160a01b0381163b1580159061140f57506002546040516305a3b80960e01b81526001600160a01b038381166004830152909116906305a3b80990602401602060405180830381865afa1580156113e9573d6000803e3d6000fd5b505050506040513d601f19601f8201168201806040525081019061140d9190613ed3565b155b1561143857604051632a67242160e11b81526001600160a01b0382166004820152602401610674565b610fce8787878787612421565b61144f81336125c6565b50565b61145c828261261f565b600082815260016020526040902061089a90826126a3565b6000306001600160a01b037f0000000000000000000000000000000000000000000000000000000000000000161480156114cd57507f000000000000000000000000000000000000000000000000000000000000000046145b156114f757507f000000000000000000000000000000000000000000000000000000000000000090565b610957604080517f8b73c3c69bb8fe3d512ecc4cf759cc79239f7b179b0ffacaa9a75d522b39400f60208201527f0000000000000000000000000000000000000000000000000000000000000000918101919091527f000000000000000000000000000000000000000000000000000000000000000060608201524660808201523060a082015260009060c00160405160208183030381529060405280519060200120905090565b90565b6115ac82826126b8565b600082815260016020526040902061089a908261271d565b6127106001600160601b03821611156115ef5760405162461bcd60e51b815260040161067490613f14565b6001600160a01b0382166116455760405162461bcd60e51b815260206004820152601b60248201527f455243323938313a20496e76616c696420706172616d657465727300000000006044820152606401610674565b6040805180820182526001600160a01b0393841681526001600160601b0392831660208083019182526000968752600a90529190942093519051909116600160a01b029116179055565b60056109d68282613e14565b6001600160a01b0384166116c15760405162461bcd60e51b815260040161067490613f5e565b3360006116cd85612732565b905060006116da85612732565b90506116eb8360008985858961277d565b60008681526003602090815260408083206001600160a01b038b1684529091528120805487929061171d908490613f9f565b909155505060408051878152602081018790526001600160a01b03808a1692600092918716917fc3d58168c5ae7397731d063d5bbf3d657854427343f4c083240f7aacaa2d0f62910160405180910390a4610fce836000898989896128f6565b6001600160a01b0383166117a35760405162461bcd60e51b815260040161067490613fb2565b80518251146117c45760405162461bcd60e51b815260040161067490613ff5565b60003390506117e78185600086866040518060200160405280600081525061277d565b60005b83518110156118af57600084828151811061180757611807613d9f565b60200260200101519050600084838151811061182557611825613d9f565b60209081029190910181015160008481526003835260408082206001600160a01b038c1683529093529190912054909150818110156118765760405162461bcd60e51b81526004016106749061403d565b60009283526003602090815260408085206001600160a01b038b16865290915290922091039055806118a781613db5565b9150506117ea565b5060006001600160a01b0316846001600160a01b0316826001600160a01b03167f4a39dc06d4c0dbc64b70af90fd698a233a518aa5d07e595d983b8c0526c8f7fb8686604051611900929190614081565b60405180910390a4604080516020810190915260009052610a20565b606060ff83146119365761192f83612a51565b90506106a2565b81805461194290613c99565b80601f016020809104026020016040519081016040528092919081815260200182805461196e90613c99565b80156119bb5780601f10611990576101008083540402835291602001916119bb565b820191906000526020600020905b81548152906001019060200180831161199e57829003601f168201915b505050505090506106a2565b6127106001600160601b03821611156119f25760405162461bcd60e51b815260040161067490613f14565b6001600160a01b038216611a485760405162461bcd60e51b815260206004820152601960248201527f455243323938313a20696e76616c6964207265636569766572000000000000006044820152606401610674565b604080518082019091526001600160a01b039092168083526001600160601b039091166020909201829052600160a01b90910217600955565b6000610d418383612a90565b6109d6338383611db9565b6001600160a01b038416611abe5760405162461bcd60e51b815260040161067490613f5e565b8151835114611adf5760405162461bcd60e51b815260040161067490613ff5565b33611aef8160008787878761277d565b60005b8451811015611b8b57838181518110611b0d57611b0d613d9f565b602002602001015160036000878481518110611b2b57611b2b613d9f565b602002602001015181526020019081526020016000206000886001600160a01b03166001600160a01b031681526020019081526020016000206000828254611b739190613f9f565b90915550819050611b8381613db5565b915050611af2565b50846001600160a01b031660006001600160a01b0316826001600160a01b03167f4a39dc06d4c0dbc64b70af90fd698a233a518aa5d07e595d983b8c0526c8f7fb8787604051611bdc929190614081565b60405180910390a461086e81600087878787612aba565b60006106a2825490565b6001600160a01b03831660009081526008602052604081208054611ca6917f00000000000000000000000000000000000000000000000000000000000000009187918991889187611c4d83613db5565b909155506040805160208101969096526001600160a01b03948516908601529290911660608401521515608083015260a082015260c0810184905260e00160405160208183030381529060405280519060200120612b75565b95945050505050565b6000806000856001600160a01b0316631626ba7e60e01b8686604051602401611cd99291906140a6565b60408051601f198184030181529181526020820180516001600160e01b03166001600160e01b0319909416939093179092529051611d1791906140bf565b600060405180830381855afa9150503d8060008114611d52576040519150601f19603f3d011682016040523d82523d6000602084013e611d57565b606091505b5091509150818015611d6a575080516020145b15611dad57600081806020019051810190611d8591906140db565b90506374eca2c160e11b6001600160e01b0319821601611dab5760019350505050610d41565b505b50600095945050505050565b816001600160a01b0316836001600160a01b031603611e2c5760405162461bcd60e51b815260206004820152602960248201527f455243313135353a2073657474696e6720617070726f76616c20737461747573604482015268103337b91039b2b63360b91b6064820152608401610674565b6001600160a01b03838116600081815260046020908152604080832094871680845294825291829020805460ff191686151590811790915591519182527f17307eab39ab6107e8899845ad3d59bd9653f200f220920489ca2b5937696c31910160405180910390a3505050565b606081611ea781601f613f9f565b1015611ee65760405162461bcd60e51b815260206004820152600e60248201526d736c6963655f6f766572666c6f7760901b6044820152606401610674565b611ef08284613f9f565b84511015611f345760405162461bcd60e51b8152602060048201526011602482015270736c6963655f6f75744f66426f756e647360781b6044820152606401610674565b606082158015611f535760405191506000825260208201604052611f9d565b6040519150601f8416801560200281840101858101878315602002848b0101015b81831015611f8c578051835260209283019201611f74565b5050858452601f01601f1916604052505b50949350505050565b6000806000611fb6868686612ba2565b91509150611f9d81612bdb565b6000806000611fd28585612d25565b91509150610b4781612bdb565b60006001600160a01b03831615801590610d415750506001600160a01b0391821691161490565b848433321480159061208157506002546040516305a3b80960e01b81523360048201526001600160a01b03909116906305a3b80990602401602060405180830381865afa15801561205b573d6000803e3d6000fd5b505050506040513d601f19601f8201168201806040525081019061207f9190613ed3565b155b156120a15760405163937db65f60e01b8152336004820152602401610674565b6001600160a01b0382163b1580159061212557506002546040516305a3b80960e01b81526001600160a01b038481166004830152909116906305a3b80990602401602060405180830381865afa1580156120ff573d6000803e3d6000fd5b505050506040513d601f19601f820116820180604052508101906121239190613ed3565b155b1561214e5760405163f934453160e01b81526001600160a01b0383166004820152602401610674565b6001600160a01b0381163b158015906121d257506002546040516305a3b80960e01b81526001600160a01b038381166004830152909116906305a3b80990602401602060405180830381865afa1580156121ac573d6000803e3d6000fd5b505050506040513d601f19601f820116820180604052508101906121d09190613ed3565b155b156121fb57604051632a67242160e11b81526001600160a01b0382166004820152602401610674565b610fce8787878787612d67565b6001600160a01b03831661222e5760405162461bcd60e51b815260040161067490613fb2565b33600061223a84612732565b9050600061224784612732565b90506122678387600085856040518060200160405280600081525061277d565b60008581526003602090815260408083206001600160a01b038a168452909152902054848110156122aa5760405162461bcd60e51b81526004016106749061403d565b60008681526003602090815260408083206001600160a01b038b81168086529184528285208a8703905582518b81529384018a90529092908816917fc3d58168c5ae7397731d063d5bbf3d657854427343f4c083240f7aacaa2d0f62910160405180910390a4604080516020810190915260009052610fce565b60006001600160e01b0319821663278eba3960e21b14806106a257506106a282612ea3565b60008072184f03e93ff9f4daa797ed6e38ed64bf6a1f0160401b83106123885772184f03e93ff9f4daa797ed6e38ed64bf6a1f0160401b830492506040015b6d04ee2d6d415b85acef810000000083106123b4576d04ee2d6d415b85acef8100000000830492506020015b662386f26fc1000083106123d257662386f26fc10000830492506010015b6305f5e10083106123ea576305f5e100830492506008015b61271083106123fe57612710830492506004015b60648310612410576064830492506002015b600a83106106a25760010192915050565b81518351146124425760405162461bcd60e51b815260040161067490613ff5565b6001600160a01b0384166124685760405162461bcd60e51b8152600401610674906140f8565b3361247781878787878761277d565b60005b845181101561256057600085828151811061249757612497613d9f565b6020026020010151905060008583815181106124b5576124b5613d9f565b60209081029190910181015160008481526003835260408082206001600160a01b038e1683529093529190912054909150818110156125065760405162461bcd60e51b81526004016106749061413d565b60008381526003602090815260408083206001600160a01b038e8116855292528083208585039055908b16825281208054849290612545908490613f9f565b925050819055505050508061255990613db5565b905061247a565b50846001600160a01b0316866001600160a01b0316826001600160a01b03167f4a39dc06d4c0dbc64b70af90fd698a233a518aa5d07e595d983b8c0526c8f7fb87876040516125b0929190614081565b60405180910390a4610f3e818787878787612aba565b6125d08282610d48565b6109d6576125dd81612ee3565b6125e8836020612ef5565b6040516020016125f9929190614187565b60408051601f198184030181529082905262461bcd60e51b8252610674916004016133e2565b6126298282610d48565b6109d6576000828152602081815260408083206001600160a01b03851684529091529020805460ff1916600117905561265f3390565b6001600160a01b0316816001600160a01b0316837f2f8788117e7eff1d82e926ec794901d17c78024a50270940304540a733656f0d60405160405180910390a45050565b6000610d41836001600160a01b038416613090565b6126c28282610d48565b156109d6576000828152602081815260408083206001600160a01b0385168085529252808320805460ff1916905551339285917ff6391f5c32d9c69d2a47ea670b442974b53935d1edc7fd64eb21e047a839171b9190a45050565b6000610d41836001600160a01b0384166130df565b6040805160018082528183019092526060916000919060208083019080368337019050509050828160008151811061276c5761276c613d9f565b602090810291909101015292915050565b6001600160a01b0385166128045760005b8351811015612802578281815181106127a9576127a9613d9f565b6020026020010151600d60008684815181106127c7576127c7613d9f565b6020026020010151815260200190815260200160002060008282546127ec9190613f9f565b909155506127fb905081613db5565b905061278e565b505b6001600160a01b038416610f3e5760005b8351811015610fce57600084828151811061283257612832613d9f565b60200260200101519050600084838151811061285057612850613d9f565b602002602001015190506000600d6000848152602001908152602001600020549050818110156128d35760405162461bcd60e51b815260206004820152602860248201527f455243313135353a206275726e20616d6f756e74206578636565647320746f74604482015267616c537570706c7960c01b6064820152608401610674565b6000928352600d6020526040909220910390556128ef81613db5565b9050612815565b6001600160a01b0384163b15610f3e5760405163f23a6e6160e01b81526001600160a01b0385169063f23a6e619061293a90899089908890889088906004016141fc565b6020604051808303816000875af1925050508015612975575060408051601f3d908101601f19168201909252612972918101906140db565b60015b612a2157612981614241565b806308c379a0036129ba575061299561425c565b806129a057506129bc565b8060405162461bcd60e51b815260040161067491906133e2565b505b60405162461bcd60e51b815260206004820152603460248201527f455243313135353a207472616e7366657220746f206e6f6e2d455243313135356044820152732932b1b2b4bb32b91034b6b83632b6b2b73a32b960611b6064820152608401610674565b6001600160e01b0319811663f23a6e6160e01b14610fce5760405162461bcd60e51b8152600401610674906142e5565b60606000612a5e836131d2565b604080516020808252818301909252919250600091906020820181803683375050509182525060208101929092525090565b6000826000018281548110612aa757612aa7613d9f565b9060005260206000200154905092915050565b6001600160a01b0384163b15610f3e5760405163bc197c8160e01b81526001600160a01b0385169063bc197c8190612afe908990899088908890889060040161432d565b6020604051808303816000875af1925050508015612b39575060408051601f3d908101601f19168201909252612b36918101906140db565b60015b612b4557612981614241565b6001600160e01b0319811663bc197c8160e01b14610fce5760405162461bcd60e51b8152600401610674906142e5565b60006106a2612b82611474565b8360405161190160f01b8152600281019290925260228201526042902090565b6000806001600160ff1b03831681612bbf60ff86901c601b613f9f565b9050612bcd878288856131fa565b935093505050935093915050565b6000816004811115612bef57612bef61438b565b03612bf75750565b6001816004811115612c0b57612c0b61438b565b03612c585760405162461bcd60e51b815260206004820152601860248201527f45434453413a20696e76616c6964207369676e617475726500000000000000006044820152606401610674565b6002816004811115612c6c57612c6c61438b565b03612cb95760405162461bcd60e51b815260206004820152601f60248201527f45434453413a20696e76616c6964207369676e6174757265206c656e677468006044820152606401610674565b6003816004811115612ccd57612ccd61438b565b0361144f5760405162461bcd60e51b815260206004820152602260248201527f45434453413a20696e76616c6964207369676e6174757265202773272076616c604482015261756560f01b6064820152608401610674565b6000808251604103612d5b5760208301516040840151606085015160001a612d4f878285856131fa565b94509450505050610822565b50600090506002610822565b6001600160a01b038416612d8d5760405162461bcd60e51b8152600401610674906140f8565b336000612d9985612732565b90506000612da685612732565b9050612db683898985858961277d565b60008681526003602090815260408083206001600160a01b038c16845290915290205485811015612df95760405162461bcd60e51b81526004016106749061413d565b60008781526003602090815260408083206001600160a01b038d8116855292528083208985039055908a16825281208054889290612e38908490613f9f565b909155505060408051888152602081018890526001600160a01b03808b16928c821692918816917fc3d58168c5ae7397731d063d5bbf3d657854427343f4c083240f7aacaa2d0f62910160405180910390a4612e98848a8a8a8a8a6128f6565b505050505050505050565b60006001600160e01b03198216636cdb3d1360e11b1480612ed457506001600160e01b031982166303a24d0760e21b145b806106a257506106a2826132be565b60606106a26001600160a01b03831660145b60606000612f04836002613d18565b612f0f906002613f9f565b6001600160401b03811115612f2657612f26613430565b6040519080825280601f01601f191660200182016040528015612f50576020820181803683370190505b509050600360fc1b81600081518110612f6b57612f6b613d9f565b60200101906001600160f81b031916908160001a905350600f60fb1b81600181518110612f9a57612f9a613d9f565b60200101906001600160f81b031916908160001a9053506000612fbe846002613d18565b612fc9906001613f9f565b90505b6001811115613041576f181899199a1a9b1b9c1cb0b131b232b360811b85600f1660108110612ffd57612ffd613d9f565b1a60f81b82828151811061301357613013613d9f565b60200101906001600160f81b031916908160001a90535060049490941c9361303a816143a1565b9050612fcc565b508315610d415760405162461bcd60e51b815260206004820181905260248201527f537472696e67733a20686578206c656e67746820696e73756666696369656e746044820152606401610674565b60008181526001830160205260408120546130d7575081546001818101845560008481526020808220909301849055845484825282860190935260409020919091556106a2565b5060006106a2565b600081815260018301602052604081205480156131c85760006131036001836143b8565b8554909150600090613117906001906143b8565b905081811461317c57600086600001828154811061313757613137613d9f565b906000526020600020015490508087600001848154811061315a5761315a613d9f565b6000918252602080832090910192909255918252600188019052604090208390555b855486908061318d5761318d6143cb565b6001900381819060005260206000200160009055905585600101600086815260200190815260200160002060009055600193505050506106a2565b60009150506106a2565b600060ff8216601f8111156106a257604051632cd44ac360e21b815260040160405180910390fd5b6000807f7fffffffffffffffffffffffffffffff5d576e7357a4501ddfe92f46681b20a083111561323157506000905060036132b5565b6040805160008082526020820180845289905260ff881692820192909252606081018690526080810185905260019060a0016020604051602081039080840390855afa158015613285573d6000803e3d6000fd5b5050604051601f1901519150506001600160a01b0381166132ae576000600192509250506132b5565b9150600090505b94509492505050565b60006106a28260006001600160e01b03198216635a05180f60e01b14806106a257506106a28260006001600160e01b03198216637965db0b60e01b14806106a257506301ffc9a760e01b6001600160e01b03198316146106a2565b80356001600160a01b038116811461333057600080fd5b919050565b6000806040838503121561334857600080fd5b61335183613319565b946020939093013593505050565b6001600160e01b03198116811461144f57600080fd5b60006020828403121561338757600080fd5b8135610d418161335f565b60005b838110156133ad578181015183820152602001613395565b50506000910152565b600081518084526133ce816020860160208601613392565b601f01601f19169290920160200192915050565b602081526000610d4160208301846133b6565b60006020828403121561340757600080fd5b5035919050565b6000806040838503121561342157600080fd5b50508035926020909101359150565b634e487b7160e01b600052604160045260246000fd5b601f8201601f191681016001600160401b038111828210171561346b5761346b613430565b6040525050565b60006001600160401b0382111561348b5761348b613430565b5060051b60200190565b600082601f8301126134a657600080fd5b813560206134b382613472565b6040516134c08282613446565b83815260059390931b85018201928281019150868411156134e057600080fd5b8286015b848110156134fb57803583529183019183016134e4565b509695505050505050565b60006001600160401b0383111561351f5761351f613430565b604051613536601f8501601f191660200182613446565b80915083815284848401111561354b57600080fd5b83836020830137600060208583010152509392505050565b600082601f83011261357457600080fd5b610d4183833560208501613506565b600080600080600060a0868803121561359b57600080fd5b6135a486613319565b94506135b260208701613319565b935060408601356001600160401b03808211156135ce57600080fd5b6135da89838a01613495565b945060608801359150808211156135f057600080fd5b6135fc89838a01613495565b9350608088013591508082111561361257600080fd5b5061361f88828901613563565b9150509295509295909350565b6000806040838503121561363f57600080fd5b8235915061364f60208401613319565b90509250929050565b6020808252825182820181905260009190848201906040850190845b818110156136995783516001600160a01b031683529284019291840191600101613674565b50909695505050505050565b6000602082840312156136b757600080fd5b610d4182613319565b80356001600160601b038116811461333057600080fd5b6000806000606084860312156136ec57600080fd5b833592506136fc60208501613319565b915061370a604085016136c0565b90509250925092565b6000806040838503121561372657600080fd5b82356001600160401b038082111561373d57600080fd5b818501915085601f83011261375157600080fd5b8135602061375e82613472565b60405161376b8282613446565b83815260059390931b850182019282810191508984111561378b57600080fd5b948201945b838610156137b0576137a186613319565b82529482019490820190613790565b965050860135925050808211156137c657600080fd5b506137d385828601613495565b9150509250929050565b600081518084526020808501945080840160005b8381101561380d578151875295820195908201906001016137f1565b509495945050505050565b602081526000610d4160208301846137dd565b60006020828403121561383d57600080fd5b81356001600160401b0381111561385357600080fd5b8201601f8101841361386457600080fd5b61387384823560208401613506565b949350505050565b6000806000806080858703121561389157600080fd5b61389a85613319565b9350602085013592506040850135915060608501356001600160401b038111156138c357600080fd5b6138cf87828801613563565b91505092959194509250565b6000806000606084860312156138f057600080fd5b6138f984613319565b925060208401356001600160401b038082111561391557600080fd5b61392187838801613495565b9350604086013591508082111561393757600080fd5b5061394486828701613495565b9150509250925092565b60ff60f81b8816815260e06020820152600061396d60e08301896133b6565b828103604084015261397f81896133b6565b606084018890526001600160a01b038716608085015260a0840186905283810360c085015290506139b081856137dd565b9a9950505050505050505050565b600080604083850312156139d157600080fd5b6139da83613319565b915061364f602084016136c0565b801515811461144f57600080fd5b60008060408385031215613a0957600080fd5b613a1283613319565b91506020830135613a22816139e8565b809150509250929050565b60008083601f840112613a3f57600080fd5b5081356001600160401b03811115613a5657600080fd5b6020830191508360208260051b850101111561082257600080fd5b60008060008060608587031215613a8757600080fd5b84356001600160401b03811115613a9d57600080fd5b613aa987828801613a2d565b9095509350613abc905060208601613319565b9150613aca604086016136c0565b905092959194509250565b60008060008060008060808789031215613aee57600080fd5b613af787613319565b955060208701356001600160401b0380821115613b1357600080fd5b613b1f8a838b01613a2d565b90975095506040890135915080821115613b3857600080fd5b613b448a838b01613a2d565b90955093506060890135915080821115613b5d57600080fd5b50613b6a89828a01613563565b9150509295509295509295565b600080600080600060a08688031215613b8f57600080fd5b613b9886613319565b9450613ba660208701613319565b93506040860135613bb6816139e8565b92506060860135915060808601356001600160401b03811115613bd857600080fd5b61361f88828901613563565b60008060408385031215613bf757600080fd5b613c0083613319565b915061364f60208401613319565b600080600080600060a08688031215613c2657600080fd5b613c2f86613319565b9450613c3d60208701613319565b9350604086013592506060860135915060808601356001600160401b03811115613bd857600080fd5b600080600060608486031215613c7b57600080fd5b613c8484613319565b95602085013595506040909401359392505050565b600181811c90821680613cad57607f821691505b602082108103613ccd57634e487b7160e01b600052602260045260246000fd5b50919050565b60008351613ce5818460208801613392565b835190830190613cf9818360208801613392565b01949350505050565b634e487b7160e01b600052601160045260246000fd5b80820281158282048414176106a2576106a2613d02565b600082613d4c57634e487b7160e01b600052601260045260246000fd5b500490565b6020808252602e908201527f455243313135353a2063616c6c6572206973206e6f7420746f6b656e206f776e60408201526d195c881bdc88185c1c1c9bdd995960921b606082015260800190565b634e487b7160e01b600052603260045260246000fd5b600060018201613dc757613dc7613d02565b5060010190565b601f82111561089a57600081815260208120601f850160051c81016020861015613df55750805b601f850160051c820191505b81811015610f3e57828155600101613e01565b81516001600160401b03811115613e2d57613e2d613430565b613e4181613e3b8454613c99565b84613dce565b602080601f831160018114613e765760008415613e5e5750858301515b600019600386901b1c1916600185901b178555610f3e565b600085815260208120601f198616915b82811015613ea557888601518255948401946001909101908401613e86565b5085821015613ec35787850151600019600388901b60f8161c191681555b5050505050600190811b01905550565b600060208284031215613ee557600080fd5b8151610d41816139e8565b80516020808301519190811015613ccd5760001960209190910360031b1b16919050565b6020808252602a908201527f455243323938313a20726f79616c7479206665652077696c6c206578636565646040820152692073616c65507269636560b01b606082015260800190565b60208082526021908201527f455243313135353a206d696e7420746f20746865207a65726f206164647265736040820152607360f81b606082015260800190565b808201808211156106a2576106a2613d02565b60208082526023908201527f455243313135353a206275726e2066726f6d20746865207a65726f206164647260408201526265737360e81b606082015260800190565b60208082526028908201527f455243313135353a2069647320616e6420616d6f756e7473206c656e677468206040820152670dad2e6dac2e8c6d60c31b606082015260800190565b60208082526024908201527f455243313135353a206275726e20616d6f756e7420657863656564732062616c604082015263616e636560e01b606082015260800190565b60408152600061409460408301856137dd565b8281036020840152611ca681856137dd565b82815260406020820152600061387360408301846133b6565b600082516140d1818460208701613392565b9190910192915050565b6000602082840312156140ed57600080fd5b8151610d418161335f565b60208082526025908201527f455243313135353a207472616e7366657220746f20746865207a65726f206164604082015264647265737360d81b606082015260800190565b6020808252602a908201527f455243313135353a20696e73756666696369656e742062616c616e636520666f60408201526939103a3930b739b332b960b11b606082015260800190565b7f416363657373436f6e74726f6c3a206163636f756e74200000000000000000008152600083516141bf816017850160208801613392565b7001034b99036b4b9b9b4b733903937b6329607d1b60179184019182015283516141f0816028840160208801613392565b01602801949350505050565b6001600160a01b03868116825285166020820152604081018490526060810183905260a060808201819052600090614236908301846133b6565b979650505050505050565b600060033d111561159f5760046000803e5060005160e01c90565b600060443d101561426a5790565b6040516003193d81016004833e81513d6001600160401b03816024840111818411171561429957505050505090565b82850191508151818111156142b15750505050505090565b843d87010160208285010111156142cb5750505050505090565b6142da60208286010187613446565b509095945050505050565b60208082526028908201527f455243313135353a204552433131353552656365697665722072656a656374656040820152676420746f6b656e7360c01b606082015260800190565b6001600160a01b0386811682528516602082015260a060408201819052600090614359908301866137dd565b828103606084015261436b81866137dd565b9050828103608084015261437f81856133b6565b98975050505050505050565b634e487b7160e01b600052602160045260246000fd5b6000816143b0576143b0613d02565b506000190190565b818103818111156106a2576106a2613d02565b634e487b7160e01b600052603160045260246000fdfea264697066735822122013733b0be866386a1394b8da4ee20cc9440055119569dc412f381f497e75d59a64736f6c63430008130033",
  "devdoc": {
    "author": "@NiftyAndy, Nifty League, Immutable",
    "errors": {
      "AllowlistDoesNotImplementIOperatorAllowlist()": [
        {
          "details": "Error thrown when the operatorAllowlist address does not implement the IOperatorAllowlist interface"
        }
      ],
      "ApproveTargetNotInAllowlist(address)": [
        {
          "details": "Error thrown when approve target is not OperatorAllowlist"
        }
      ],
      "ApproverNotInAllowlist(address)": [
        {
          "details": "Error thrown when approve target is not OperatorAllowlist"
        }
      ],
      "CallerNotInAllowlist(address)": [
        {
          "details": "Error thrown when calling address is not OperatorAllowlist"
        }
      ],
      "InvalidSignature()": [
        {
          "details": "Derived signature is invalid (EIP721 and EIP1271)"
        }
      ],
      "PermitExpired()": [
        {
          "details": "Deadline exceeded for permit"
        }
      ],
      "TransferFromNotInAllowlist(address)": [
        {
          "details": "Error thrown when 'from' address is not OperatorAllowlist"
        }
      ],
      "TransferToNotInAllowlist(address)": [
        {
          "details": "Error thrown when 'to' address is not OperatorAllowlist"
        }
      ]
    },
    "events": {
      "ApprovalForAll(address,address,bool)": {
        "details": "Emitted when `account` grants or revokes permission to `operator` to transfer their tokens, according to `approved`."
      },
      "EIP712DomainChanged()": {
        "details": "MAY be emitted to signal that the domain could have changed."
      },
      "RoleAdminChanged(bytes32,bytes32,bytes32)": {
        "details": "Emitted when `newAdminRole` is set as ``role``'s admin role, replacing `previousAdminRole` `DEFAULT_ADMIN_ROLE` is the starting admin for all roles, despite {RoleAdminChanged} not being emitted signaling this. _Available since v3.1._"
      },
      "RoleGranted(bytes32,address,address)": {
        "details": "Emitted when `account` is granted `role`. `sender` is the account that originated the contract call, an admin role bearer except when using {AccessControl-_setupRole}."
      },
      "RoleRevoked(bytes32,address,address)": {
        "details": "Emitted when `account` is revoked `role`. `sender` is the account that originated the contract call:   - if using `revokeRole`, it is the admin role bearer   - if using `renounceRole`, it is the role bearer (i.e. `account`)"
      },
      "TransferBatch(address,address,address,uint256[],uint256[])": {
        "details": "Equivalent to multiple {TransferSingle} events, where `operator`, `from` and `to` are the same for all transfers."
      },
      "TransferSingle(address,address,address,uint256,uint256)": {
        "details": "Emitted when `value` tokens of token type `id` are transferred from `from` to `to` by `operator`."
      },
      "URI(string,uint256)": {
        "details": "Emitted when the URI for token type `id` changes to `value`, if it is a non-programmatic URI. If an {URI} event was emitted for `id`, the standard https://eips.ethereum.org/EIPS/eip-1155#metadata-extensions[guarantees] that `value` will equal the value returned by {IERC1155MetadataURI-uri}."
      }
    },
    "kind": "dev",
    "methods": {
      "DOMAIN_SEPARATOR()": {
        "returns": {
          "_0": "the bytes32 domain separator"
        }
      },
      "balanceOf(address,uint256)": {
        "details": "See {IERC1155-balanceOf}. Requirements: - `account` cannot be the zero address."
      },
      "balanceOfBatch(address[],uint256[])": {
        "details": "See {IERC1155-balanceOfBatch}. Requirements: - `accounts` and `ids` must have the same length."
      },
      "constructor": {
        "params": {
          "_feeNumerator": "The percentage of the sale price that will be paid as a royalty",
          "_operatorAllowlist": "The address of the OAL",
          "_receiver": "The address that will receive the royalty payments",
          "baseURI_": "The base URI for the collection",
          "contractURI_": "The contract URI for the collection",
          "name_": "The name of the collection",
          "owner": "The address that will be granted the `DEFAULT_ADMIN_ROLE`"
        }
      },
      "eip712Domain()": {
        "details": "See {EIP-5267}. _Available since v4.9._"
      },
      "exists(uint256)": {
        "params": {
          "id": "The token identifier to check for existence."
        }
      },
      "getAdmins()": {
        "returns": {
          "_0": "admins The addresses which have DEFAULT_ADMIN_ROLE"
        }
      },
      "getRoleAdmin(bytes32)": {
        "details": "Returns the admin role that controls `role`. See {grantRole} and {revokeRole}. To change a role's admin, use {_setRoleAdmin}."
      },
      "getRoleMember(bytes32,uint256)": {
        "details": "Returns one of the accounts that have `role`. `index` must be a value between 0 and {getRoleMemberCount}, non-inclusive. Role bearers are not sorted in any particular way, and their ordering may change at any point. WARNING: When using {getRoleMember} and {getRoleMemberCount}, make sure you perform all queries on the same block. See the following https://forum.openzeppelin.com/t/iterating-over-elements-on-enumerableset-in-openzeppelin-contracts/2296[forum post] for more information."
      },
      "getRoleMemberCount(bytes32)": {
        "details": "Returns the number of accounts that have `role`. Can be used together with {getRoleMember} to enumerate all bearers of a role."
      },
      "grantMinterRole(address)": {
        "params": {
          "user": "The address to grant the MINTER_ROLE to"
        }
      },
      "grantRole(bytes32,address)": {
        "details": "Grants `role` to `account`. If `account` had not been already granted `role`, emits a {RoleGranted} event. Requirements: - the caller must have ``role``'s admin role. May emit a {RoleGranted} event."
      },
      "hasRole(bytes32,address)": {
        "details": "Returns `true` if `account` has been granted `role`."
      },
      "isApprovedForAll(address,address)": {
        "details": "See {IERC1155-isApprovedForAll}."
      },
      "nonces(address)": {
        "params": {
          "owner": "The address for which to retrieve the nonce."
        },
        "returns": {
          "_0": "Current nonce of the given token."
        }
      },
      "renounceRole(bytes32,address)": {
        "details": "Revokes `role` from the calling account. Roles are often managed via {grantRole} and {revokeRole}: this function's purpose is to provide a mechanism for accounts to lose their privileges if they are compromised (such as when a trusted device is misplaced). If the calling account had been revoked `role`, emits a {RoleRevoked} event. Requirements: - the caller must be `account`. May emit a {RoleRevoked} event."
      },
      "revokeMinterRole(address)": {
        "params": {
          "user": "The address to revoke the MINTER_ROLE from"
        }
      },
      "revokeRole(bytes32,address)": {
        "details": "Revokes `role` from `account`. If `account` had been granted `role`, emits a {RoleRevoked} event. Requirements: - the caller must have ``role``'s admin role. May emit a {RoleRevoked} event."
      },
      "royaltyInfo(uint256,uint256)": {
        "details": "Returns how much royalty is owed and to whom, based on a sale price that may be denominated in any unit of exchange. The royalty amount is denominated and should be paid in that same unit of exchange."
      },
      "safeBatchTransferFrom(address,address,uint256[],uint256[],bytes)": {
        "details": "See {IERC1155-safeBatchTransferFrom}."
      },
      "safeMint(address,uint256,uint256,bytes)": {
        "params": {
          "data": "Additional data",
          "id": "The id of the token to mint",
          "to": "The address that will receive the minted tokens",
          "value": "The amount of tokens to mint"
        }
      },
      "safeMintBatch(address,uint256[],uint256[],bytes)": {
        "params": {
          "data": "Additional data",
          "ids": "The ids of the tokens to mint",
          "to": "The address that will receive the minted tokens",
          "values": "The amounts of tokens to mint"
        }
      },
      "safeTransferFrom(address,address,uint256,uint256,bytes)": {
        "details": "See {IERC1155-safeTransferFrom}."
      },
      "setApprovalForAll(address,bool)": {
        "params": {
          "approved": "True if the operator is approved, false to revoke approval.",
          "operator": "The address to approve as an operator for the caller."
        }
      },
      "setBaseURI(string)": {
        "params": {
          "baseURI_": "The base URI for all tokens"
        }
      },
      "setContractURI(string)": {
        "details": "Allows admin to set the contract URI"
      },
      "setDefaultRoyaltyReceiver(address,uint96)": {
        "params": {
          "feeNumerator": "The royalty fee numerator",
          "receiver": "The address of the royalty receiver"
        }
      },
      "setNFTRoyaltyReceiver(uint256,address,uint96)": {
        "params": {
          "feeNumerator": "The royalty fee numerator",
          "receiver": "The address of the royalty receiver",
          "tokenId": "The token identifier to set the royalty receiver for."
        }
      },
      "setNFTRoyaltyReceiverBatch(uint256[],address,uint96)": {
        "params": {
          "feeNumerator": "The royalty fee numerator",
          "receiver": "The address of the royalty receiver",
          "tokenIds": "The token identifiers to set the royalty receiver for."
        }
      },
      "supportsInterface(bytes4)": {
        "params": {
          "interfaceId": "The interface identifier, which is a 4-byte selector."
        },
        "returns": {
          "_0": "True if the contract implements `interfaceId` and the call doesn't revert, otherwise false."
        }
      },
      "totalSupply(uint256)": {
        "params": {
          "id": "The token identifier to retrieve the total supply for."
        }
      },
      "uri(uint256)": {
        "params": {
          "tokenId": "The identifier of the token"
        },
        "returns": {
          "tokenURI": "The URI for the given token id"
        }
      }
    },
    "stateVariables": {
      "name": {
        "details": "Name for the token"
      },
      "symbol": {
        "details": "Symbol for the token"
      }
    },
    "title": "NiftyMarketplace - ImmutableERC1155",
    "version": 1
  },
  "userdoc": {
    "events": {
      "OperatorAllowlistRegistryUpdated(address,address)": {
        "notice": "Emitted whenever the transfer Allowlist registry is updated"
      }
    },
    "kind": "user",
    "methods": {
      "DOMAIN_SEPARATOR()": {
        "notice": "Returns the domain separator used in the encoding of the signature for permits, as defined by EIP-712"
      },
      "baseURI()": {
        "notice": "See {IERC1155MetadataURI-uri}. This implementation returns the same URI for *all* token types. It relies on the token type ID substitution mechanism https://eips.ethereum.org/EIPS/eip-1155#metadata[defined in the EIP]. Clients calling this function must replace the `\\{id\\}` substring with the actual token type ID if the uri contains `\\{id\\}`."
      },
      "constructor": {
        "notice": "Grants `DEFAULT_ADMIN_ROLE` to the supplied `owner` address Sets the name and symbol for the collection Sets the default admin to `owner` Sets the `baseURI` Sets the royalty receiver and amount (this can not be changed once set)"
      },
      "exists(uint256)": {
        "notice": "Indicates whether any token exist with a given id, or not."
      },
      "getAdmins()": {
        "notice": "Returns the addresses which have DEFAULT_ADMIN_ROLE"
      },
      "grantMinterRole(address)": {
        "notice": "Grants minter role to the user"
      },
      "nonces(address)": {
        "notice": "Returns the current nonce of a given token ID."
      },
      "operatorAllowlist()": {
        "notice": "Interface that implements the `IOperatorAllowlist` interface"
      },
      "revokeMinterRole(address)": {
        "notice": "Allows admin to revoke `MINTER_ROLE` role from `user`"
      },
      "safeMint(address,uint256,uint256,bytes)": {
        "notice": "Mints a new token"
      },
      "safeMintBatch(address,uint256[],uint256[],bytes)": {
        "notice": "Mints a batch of new tokens with different ids to the same recipient"
      },
      "setApprovalForAll(address,bool)": {
        "notice": "Override of setApprovalForAll from {ERC721}, with added Allowlist approval validation"
      },
      "setBaseURI(string)": {
        "notice": "Sets `_baseURI` as the `_baseURI` for all tokens"
      },
      "setDefaultRoyaltyReceiver(address,uint96)": {
        "notice": "sets the default royalty receiver"
      },
      "setNFTRoyaltyReceiver(uint256,address,uint96)": {
        "notice": "Set the royalty receiver address for a specific tokenId"
      },
      "setNFTRoyaltyReceiverBatch(uint256[],address,uint96)": {
        "notice": "Set the royalty receiver address for a list of tokenIDs"
      },
      "supportsInterface(bytes4)": {
        "notice": "Overrides supportsInterface from ERC1155, ERC2981, and OperatorAllowlistEnforced"
      },
      "totalSupply(uint256)": {
        "notice": "Total value of tokens in with a given id."
      },
      "uri(uint256)": {
        "notice": "Returns the URI for a given token ID This overrides the default implementation. See {IERC1155MetadataURI-uri}"
      }
    },
    "version": 1
  },
  "storageLayout": {
    "storage": [
      {
        "astId": 1257,
        "contract": "src/contracts/zkEVM/NiftyMarketplace.sol:NiftyMarketplace",
        "label": "_roles",
        "offset": 0,
        "slot": "0",
        "type": "t_mapping(t_bytes32,t_struct(RoleData)1252_storage)"
      },
      {
        "astId": 1567,
        "contract": "src/contracts/zkEVM/NiftyMarketplace.sol:NiftyMarketplace",
        "label": "_roleMembers",
        "offset": 0,
        "slot": "1",
        "type": "t_mapping(t_bytes32,t_struct(AddressSet)6315_storage)"
      },
      {
        "astId": 28,
        "contract": "src/contracts/zkEVM/NiftyMarketplace.sol:NiftyMarketplace",
        "label": "operatorAllowlist",
        "offset": 0,
        "slot": "2",
        "type": "t_contract(IOperatorAllowlist)11"
      },
      {
        "astId": 1855,
        "contract": "src/contracts/zkEVM/NiftyMarketplace.sol:NiftyMarketplace",
        "label": "_balances",
        "offset": 0,
        "slot": "3",
        "type": "t_mapping(t_uint256,t_mapping(t_address,t_uint256))"
      },
      {
        "astId": 1861,
        "contract": "src/contracts/zkEVM/NiftyMarketplace.sol:NiftyMarketplace",
        "label": "_operatorApprovals",
        "offset": 0,
        "slot": "4",
        "type": "t_mapping(t_address,t_mapping(t_address,t_bool))"
      },
      {
        "astId": 1863,
        "contract": "src/contracts/zkEVM/NiftyMarketplace.sol:NiftyMarketplace",
        "label": "_uri",
        "offset": 0,
        "slot": "5",
        "type": "t_string_storage"
      },
      {
        "astId": 4811,
        "contract": "src/contracts/zkEVM/NiftyMarketplace.sol:NiftyMarketplace",
        "label": "_nameFallback",
        "offset": 0,
        "slot": "6",
        "type": "t_string_storage"
      },
      {
        "astId": 4813,
        "contract": "src/contracts/zkEVM/NiftyMarketplace.sol:NiftyMarketplace",
        "label": "_versionFallback",
        "offset": 0,
        "slot": "7",
        "type": "t_string_storage"
      },
      {
        "astId": 295,
        "contract": "src/contracts/zkEVM/NiftyMarketplace.sol:NiftyMarketplace",
        "label": "_nonces",
        "offset": 0,
        "slot": "8",
        "type": "t_mapping(t_address,t_uint256)"
      },
      {
        "astId": 3316,
        "contract": "src/contracts/zkEVM/NiftyMarketplace.sol:NiftyMarketplace",
        "label": "_defaultRoyaltyInfo",
        "offset": 0,
        "slot": "9",
        "type": "t_struct(RoyaltyInfo)3313_storage"
      },
      {
        "astId": 3321,
        "contract": "src/contracts/zkEVM/NiftyMarketplace.sol:NiftyMarketplace",
        "label": "_tokenRoyaltyInfo",
        "offset": 0,
        "slot": "10",
        "type": "t_mapping(t_uint256,t_struct(RoyaltyInfo)3313_storage)"
      },
      {
        "astId": 634,
        "contract": "src/contracts/zkEVM/NiftyMarketplace.sol:NiftyMarketplace",
        "label": "contractURI",
        "offset": 0,
        "slot": "11",
        "type": "t_string_storage"
      },
      {
        "astId": 637,
        "contract": "src/contracts/zkEVM/NiftyMarketplace.sol:NiftyMarketplace",
        "label": "_baseURI",
        "offset": 0,
        "slot": "12",
        "type": "t_string_storage"
      },
      {
        "astId": 649,
        "contract": "src/contracts/zkEVM/NiftyMarketplace.sol:NiftyMarketplace",
        "label": "_totalSupply",
        "offset": 0,
        "slot": "13",
        "type": "t_mapping(t_uint256,t_uint256)"
      },
      {
        "astId": 6964,
        "contract": "src/contracts/zkEVM/NiftyMarketplace.sol:NiftyMarketplace",
        "label": "name",
        "offset": 0,
        "slot": "14",
        "type": "t_string_storage"
      },
      {
        "astId": 6967,
        "contract": "src/contracts/zkEVM/NiftyMarketplace.sol:NiftyMarketplace",
        "label": "symbol",
        "offset": 0,
        "slot": "15",
        "type": "t_string_storage"
      }
    ],
    "types": {
      "t_address": {
        "encoding": "inplace",
        "label": "address",
        "numberOfBytes": "20"
      },
      "t_array(t_bytes32)dyn_storage": {
        "base": "t_bytes32",
        "encoding": "dynamic_array",
        "label": "bytes32[]",
        "numberOfBytes": "32"
      },
      "t_bool": {
        "encoding": "inplace",
        "label": "bool",
        "numberOfBytes": "1"
      },
      "t_bytes32": {
        "encoding": "inplace",
        "label": "bytes32",
        "numberOfBytes": "32"
      },
      "t_contract(IOperatorAllowlist)11": {
        "encoding": "inplace",
        "label": "contract IOperatorAllowlist",
        "numberOfBytes": "20"
      },
      "t_mapping(t_address,t_bool)": {
        "encoding": "mapping",
        "key": "t_address",
        "label": "mapping(address => bool)",
        "numberOfBytes": "32",
        "value": "t_bool"
      },
      "t_mapping(t_address,t_mapping(t_address,t_bool))": {
        "encoding": "mapping",
        "key": "t_address",
        "label": "mapping(address => mapping(address => bool))",
        "numberOfBytes": "32",
        "value": "t_mapping(t_address,t_bool)"
      },
      "t_mapping(t_address,t_uint256)": {
        "encoding": "mapping",
        "key": "t_address",
        "label": "mapping(address => uint256)",
        "numberOfBytes": "32",
        "value": "t_uint256"
      },
      "t_mapping(t_bytes32,t_struct(AddressSet)6315_storage)": {
        "encoding": "mapping",
        "key": "t_bytes32",
        "label": "mapping(bytes32 => struct EnumerableSet.AddressSet)",
        "numberOfBytes": "32",
        "value": "t_struct(AddressSet)6315_storage"
      },
      "t_mapping(t_bytes32,t_struct(RoleData)1252_storage)": {
        "encoding": "mapping",
        "key": "t_bytes32",
        "label": "mapping(bytes32 => struct AccessControl.RoleData)",
        "numberOfBytes": "32",
        "value": "t_struct(RoleData)1252_storage"
      },
      "t_mapping(t_bytes32,t_uint256)": {
        "encoding": "mapping",
        "key": "t_bytes32",
        "label": "mapping(bytes32 => uint256)",
        "numberOfBytes": "32",
        "value": "t_uint256"
      },
      "t_mapping(t_uint256,t_mapping(t_address,t_uint256))": {
        "encoding": "mapping",
        "key": "t_uint256",
        "label": "mapping(uint256 => mapping(address => uint256))",
        "numberOfBytes": "32",
        "value": "t_mapping(t_address,t_uint256)"
      },
      "t_mapping(t_uint256,t_struct(RoyaltyInfo)3313_storage)": {
        "encoding": "mapping",
        "key": "t_uint256",
        "label": "mapping(uint256 => struct ERC2981.RoyaltyInfo)",
        "numberOfBytes": "32",
        "value": "t_struct(RoyaltyInfo)3313_storage"
      },
      "t_mapping(t_uint256,t_uint256)": {
        "encoding": "mapping",
        "key": "t_uint256",
        "label": "mapping(uint256 => uint256)",
        "numberOfBytes": "32",
        "value": "t_uint256"
      },
      "t_string_storage": {
        "encoding": "bytes",
        "label": "string",
        "numberOfBytes": "32"
      },
      "t_struct(AddressSet)6315_storage": {
        "encoding": "inplace",
        "label": "struct EnumerableSet.AddressSet",
        "members": [
          {
            "astId": 6314,
            "contract": "src/contracts/zkEVM/NiftyMarketplace.sol:NiftyMarketplace",
            "label": "_inner",
            "offset": 0,
            "slot": "0",
            "type": "t_struct(Set)6000_storage"
          }
        ],
        "numberOfBytes": "64"
      },
      "t_struct(RoleData)1252_storage": {
        "encoding": "inplace",
        "label": "struct AccessControl.RoleData",
        "members": [
          {
            "astId": 1249,
            "contract": "src/contracts/zkEVM/NiftyMarketplace.sol:NiftyMarketplace",
            "label": "members",
            "offset": 0,
            "slot": "0",
            "type": "t_mapping(t_address,t_bool)"
          },
          {
            "astId": 1251,
            "contract": "src/contracts/zkEVM/NiftyMarketplace.sol:NiftyMarketplace",
            "label": "adminRole",
            "offset": 0,
            "slot": "1",
            "type": "t_bytes32"
          }
        ],
        "numberOfBytes": "64"
      },
      "t_struct(RoyaltyInfo)3313_storage": {
        "encoding": "inplace",
        "label": "struct ERC2981.RoyaltyInfo",
        "members": [
          {
            "astId": 3310,
            "contract": "src/contracts/zkEVM/NiftyMarketplace.sol:NiftyMarketplace",
            "label": "receiver",
            "offset": 0,
            "slot": "0",
            "type": "t_address"
          },
          {
            "astId": 3312,
            "contract": "src/contracts/zkEVM/NiftyMarketplace.sol:NiftyMarketplace",
            "label": "royaltyFraction",
            "offset": 20,
            "slot": "0",
            "type": "t_uint96"
          }
        ],
        "numberOfBytes": "32"
      },
      "t_struct(Set)6000_storage": {
        "encoding": "inplace",
        "label": "struct EnumerableSet.Set",
        "members": [
          {
            "astId": 5995,
            "contract": "src/contracts/zkEVM/NiftyMarketplace.sol:NiftyMarketplace",
            "label": "_values",
            "offset": 0,
            "slot": "0",
            "type": "t_array(t_bytes32)dyn_storage"
          },
          {
            "astId": 5999,
            "contract": "src/contracts/zkEVM/NiftyMarketplace.sol:NiftyMarketplace",
            "label": "_indexes",
            "offset": 0,
            "slot": "1",
            "type": "t_mapping(t_bytes32,t_uint256)"
          }
        ],
        "numberOfBytes": "64"
      },
      "t_uint256": {
        "encoding": "inplace",
        "label": "uint256",
        "numberOfBytes": "32"
      },
      "t_uint96": {
        "encoding": "inplace",
        "label": "uint96",
        "numberOfBytes": "12"
      }
    }
  }
}