{
  "address": "0x180202ECCfC3F6Ef92F0A3F5200C42A4435d761A",
  "abi": [
    {
      "inputs": [
        {
          "internalType": "contract IVotes",
          "name": "token_",
          "type": "address"
        },
        {
          "internalType": "contract TimelockController",
          "name": "timelock_",
          "type": "address"
        },
        {
          "internalType": "uint256",
          "name": "initialVotingDelay_",
          "type": "uint256"
        },
        {
          "internalType": "uint256",
          "name": "initialVotingPeriod_",
          "type": "uint256"
        },
        {
          "internalType": "uint256",
          "name": "initialProposalThreshold_",
          "type": "uint256"
        },
        {
          "internalType": "uint256",
          "name": "initialQuorumNumerator_",
          "type": "uint256"
        }
      ],
      "stateMutability": "nonpayable",
      "type": "constructor"
    },
    {
      "inputs": [],
      "name": "Empty",
      "type": "error"
    },
    {
      "inputs": [],
      "name": "InvalidShortString",
      "type": "error"
    },
    {
      "inputs": [
        {
          "internalType": "string",
          "name": "str",
          "type": "string"
        }
      ],
      "name": "StringTooLong",
      "type": "error"
    },
    {
      "anonymous": false,
      "inputs": [],
      "name": "EIP712DomainChanged",
      "type": "event"
    },
    {
      "anonymous": false,
      "inputs": [
        {
          "indexed": false,
          "internalType": "uint256",
          "name": "proposalId",
          "type": "uint256"
        }
      ],
      "name": "ProposalCanceled",
      "type": "event"
    },
    {
      "anonymous": false,
      "inputs": [
        {
          "indexed": false,
          "internalType": "uint256",
          "name": "proposalId",
          "type": "uint256"
        },
        {
          "indexed": false,
          "internalType": "address",
          "name": "proposer",
          "type": "address"
        },
        {
          "indexed": false,
          "internalType": "address[]",
          "name": "targets",
          "type": "address[]"
        },
        {
          "indexed": false,
          "internalType": "uint256[]",
          "name": "values",
          "type": "uint256[]"
        },
        {
          "indexed": false,
          "internalType": "string[]",
          "name": "signatures",
          "type": "string[]"
        },
        {
          "indexed": false,
          "internalType": "bytes[]",
          "name": "calldatas",
          "type": "bytes[]"
        },
        {
          "indexed": false,
          "internalType": "uint256",
          "name": "voteStart",
          "type": "uint256"
        },
        {
          "indexed": false,
          "internalType": "uint256",
          "name": "voteEnd",
          "type": "uint256"
        },
        {
          "indexed": false,
          "internalType": "string",
          "name": "description",
          "type": "string"
        }
      ],
      "name": "ProposalCreated",
      "type": "event"
    },
    {
      "anonymous": false,
      "inputs": [
        {
          "indexed": false,
          "internalType": "uint256",
          "name": "proposalId",
          "type": "uint256"
        }
      ],
      "name": "ProposalExecuted",
      "type": "event"
    },
    {
      "anonymous": false,
      "inputs": [
        {
          "indexed": false,
          "internalType": "uint256",
          "name": "proposalId",
          "type": "uint256"
        },
        {
          "indexed": false,
          "internalType": "uint256",
          "name": "eta",
          "type": "uint256"
        }
      ],
      "name": "ProposalQueued",
      "type": "event"
    },
    {
      "anonymous": false,
      "inputs": [
        {
          "indexed": false,
          "internalType": "uint256",
          "name": "oldProposalThreshold",
          "type": "uint256"
        },
        {
          "indexed": false,
          "internalType": "uint256",
          "name": "newProposalThreshold",
          "type": "uint256"
        }
      ],
      "name": "ProposalThresholdSet",
      "type": "event"
    },
    {
      "anonymous": false,
      "inputs": [
        {
          "indexed": false,
          "internalType": "uint256",
          "name": "oldQuorumNumerator",
          "type": "uint256"
        },
        {
          "indexed": false,
          "internalType": "uint256",
          "name": "newQuorumNumerator",
          "type": "uint256"
        }
      ],
      "name": "QuorumNumeratorUpdated",
      "type": "event"
    },
    {
      "anonymous": false,
      "inputs": [
        {
          "indexed": false,
          "internalType": "address",
          "name": "oldTimelock",
          "type": "address"
        },
        {
          "indexed": false,
          "internalType": "address",
          "name": "newTimelock",
          "type": "address"
        }
      ],
      "name": "TimelockChange",
      "type": "event"
    },
    {
      "anonymous": false,
      "inputs": [
        {
          "indexed": true,
          "internalType": "address",
          "name": "voter",
          "type": "address"
        },
        {
          "indexed": false,
          "internalType": "uint256",
          "name": "proposalId",
          "type": "uint256"
        },
        {
          "indexed": false,
          "internalType": "uint8",
          "name": "support",
          "type": "uint8"
        },
        {
          "indexed": false,
          "internalType": "uint256",
          "name": "weight",
          "type": "uint256"
        },
        {
          "indexed": false,
          "internalType": "string",
          "name": "reason",
          "type": "string"
        }
      ],
      "name": "VoteCast",
      "type": "event"
    },
    {
      "anonymous": false,
      "inputs": [
        {
          "indexed": true,
          "internalType": "address",
          "name": "voter",
          "type": "address"
        },
        {
          "indexed": false,
          "internalType": "uint256",
          "name": "proposalId",
          "type": "uint256"
        },
        {
          "indexed": false,
          "internalType": "uint8",
          "name": "support",
          "type": "uint8"
        },
        {
          "indexed": false,
          "internalType": "uint256",
          "name": "weight",
          "type": "uint256"
        },
        {
          "indexed": false,
          "internalType": "string",
          "name": "reason",
          "type": "string"
        },
        {
          "indexed": false,
          "internalType": "bytes",
          "name": "params",
          "type": "bytes"
        }
      ],
      "name": "VoteCastWithParams",
      "type": "event"
    },
    {
      "anonymous": false,
      "inputs": [
        {
          "indexed": false,
          "internalType": "uint256",
          "name": "oldVotingDelay",
          "type": "uint256"
        },
        {
          "indexed": false,
          "internalType": "uint256",
          "name": "newVotingDelay",
          "type": "uint256"
        }
      ],
      "name": "VotingDelaySet",
      "type": "event"
    },
    {
      "anonymous": false,
      "inputs": [
        {
          "indexed": false,
          "internalType": "uint256",
          "name": "oldVotingPeriod",
          "type": "uint256"
        },
        {
          "indexed": false,
          "internalType": "uint256",
          "name": "newVotingPeriod",
          "type": "uint256"
        }
      ],
      "name": "VotingPeriodSet",
      "type": "event"
    },
    {
      "inputs": [],
      "name": "BALLOT_TYPEHASH",
      "outputs": [
        {
          "internalType": "bytes32",
          "name": "",
          "type": "bytes32"
        }
      ],
      "stateMutability": "view",
      "type": "function"
    },
    {
      "inputs": [],
      "name": "CLOCK_MODE",
      "outputs": [
        {
          "internalType": "string",
          "name": "",
          "type": "string"
        }
      ],
      "stateMutability": "view",
      "type": "function"
    },
    {
      "inputs": [],
      "name": "COUNTING_MODE",
      "outputs": [
        {
          "internalType": "string",
          "name": "",
          "type": "string"
        }
      ],
      "stateMutability": "pure",
      "type": "function"
    },
    {
      "inputs": [],
      "name": "EXTENDED_BALLOT_TYPEHASH",
      "outputs": [
        {
          "internalType": "bytes32",
          "name": "",
          "type": "bytes32"
        }
      ],
      "stateMutability": "view",
      "type": "function"
    },
    {
      "inputs": [
        {
          "internalType": "address[]",
          "name": "targets",
          "type": "address[]"
        },
        {
          "internalType": "uint256[]",
          "name": "values",
          "type": "uint256[]"
        },
        {
          "internalType": "bytes[]",
          "name": "calldatas",
          "type": "bytes[]"
        },
        {
          "internalType": "bytes32",
          "name": "descriptionHash",
          "type": "bytes32"
        }
      ],
      "name": "cancel",
      "outputs": [
        {
          "internalType": "uint256",
          "name": "",
          "type": "uint256"
        }
      ],
      "stateMutability": "nonpayable",
      "type": "function"
    },
    {
      "inputs": [
        {
          "internalType": "uint256",
          "name": "proposalId",
          "type": "uint256"
        },
        {
          "internalType": "uint8",
          "name": "support",
          "type": "uint8"
        }
      ],
      "name": "castVote",
      "outputs": [
        {
          "internalType": "uint256",
          "name": "",
          "type": "uint256"
        }
      ],
      "stateMutability": "nonpayable",
      "type": "function"
    },
    {
      "inputs": [
        {
          "internalType": "uint256",
          "name": "proposalId",
          "type": "uint256"
        },
        {
          "internalType": "uint8",
          "name": "support",
          "type": "uint8"
        },
        {
          "internalType": "uint8",
          "name": "v",
          "type": "uint8"
        },
        {
          "internalType": "bytes32",
          "name": "r",
          "type": "bytes32"
        },
        {
          "internalType": "bytes32",
          "name": "s",
          "type": "bytes32"
        }
      ],
      "name": "castVoteBySig",
      "outputs": [
        {
          "internalType": "uint256",
          "name": "",
          "type": "uint256"
        }
      ],
      "stateMutability": "nonpayable",
      "type": "function"
    },
    {
      "inputs": [
        {
          "internalType": "uint256",
          "name": "proposalId",
          "type": "uint256"
        },
        {
          "internalType": "uint8",
          "name": "support",
          "type": "uint8"
        },
        {
          "internalType": "string",
          "name": "reason",
          "type": "string"
        }
      ],
      "name": "castVoteWithReason",
      "outputs": [
        {
          "internalType": "uint256",
          "name": "",
          "type": "uint256"
        }
      ],
      "stateMutability": "nonpayable",
      "type": "function"
    },
    {
      "inputs": [
        {
          "internalType": "uint256",
          "name": "proposalId",
          "type": "uint256"
        },
        {
          "internalType": "uint8",
          "name": "support",
          "type": "uint8"
        },
        {
          "internalType": "string",
          "name": "reason",
          "type": "string"
        },
        {
          "internalType": "bytes",
          "name": "params",
          "type": "bytes"
        }
      ],
      "name": "castVoteWithReasonAndParams",
      "outputs": [
        {
          "internalType": "uint256",
          "name": "",
          "type": "uint256"
        }
      ],
      "stateMutability": "nonpayable",
      "type": "function"
    },
    {
      "inputs": [
        {
          "internalType": "uint256",
          "name": "proposalId",
          "type": "uint256"
        },
        {
          "internalType": "uint8",
          "name": "support",
          "type": "uint8"
        },
        {
          "internalType": "string",
          "name": "reason",
          "type": "string"
        },
        {
          "internalType": "bytes",
          "name": "params",
          "type": "bytes"
        },
        {
          "internalType": "uint8",
          "name": "v",
          "type": "uint8"
        },
        {
          "internalType": "bytes32",
          "name": "r",
          "type": "bytes32"
        },
        {
          "internalType": "bytes32",
          "name": "s",
          "type": "bytes32"
        }
      ],
      "name": "castVoteWithReasonAndParamsBySig",
      "outputs": [
        {
          "internalType": "uint256",
          "name": "",
          "type": "uint256"
        }
      ],
      "stateMutability": "nonpayable",
      "type": "function"
    },
    {
      "inputs": [],
      "name": "clock",
      "outputs": [
        {
          "internalType": "uint48",
          "name": "",
          "type": "uint48"
        }
      ],
      "stateMutability": "view",
      "type": "function"
    },
    {
      "inputs": [],
      "name": "eip712Domain",
      "outputs": [
        {
          "internalType": "bytes1",
          "name": "fields",
          "type": "bytes1"
        },
        {
          "internalType": "string",
          "name": "name",
          "type": "string"
        },
        {
          "internalType": "string",
          "name": "version",
          "type": "string"
        },
        {
          "internalType": "uint256",
          "name": "chainId",
          "type": "uint256"
        },
        {
          "internalType": "address",
          "name": "verifyingContract",
          "type": "address"
        },
        {
          "internalType": "bytes32",
          "name": "salt",
          "type": "bytes32"
        },
        {
          "internalType": "uint256[]",
          "name": "extensions",
          "type": "uint256[]"
        }
      ],
      "stateMutability": "view",
      "type": "function"
    },
    {
      "inputs": [
        {
          "internalType": "address[]",
          "name": "targets",
          "type": "address[]"
        },
        {
          "internalType": "uint256[]",
          "name": "values",
          "type": "uint256[]"
        },
        {
          "internalType": "bytes[]",
          "name": "calldatas",
          "type": "bytes[]"
        },
        {
          "internalType": "bytes32",
          "name": "descriptionHash",
          "type": "bytes32"
        }
      ],
      "name": "execute",
      "outputs": [
        {
          "internalType": "uint256",
          "name": "",
          "type": "uint256"
        }
      ],
      "stateMutability": "payable",
      "type": "function"
    },
    {
      "inputs": [
        {
          "internalType": "address",
          "name": "account",
          "type": "address"
        },
        {
          "internalType": "uint256",
          "name": "timepoint",
          "type": "uint256"
        }
      ],
      "name": "getVotes",
      "outputs": [
        {
          "internalType": "uint256",
          "name": "",
          "type": "uint256"
        }
      ],
      "stateMutability": "view",
      "type": "function"
    },
    {
      "inputs": [
        {
          "internalType": "address",
          "name": "account",
          "type": "address"
        },
        {
          "internalType": "uint256",
          "name": "timepoint",
          "type": "uint256"
        },
        {
          "internalType": "bytes",
          "name": "params",
          "type": "bytes"
        }
      ],
      "name": "getVotesWithParams",
      "outputs": [
        {
          "internalType": "uint256",
          "name": "",
          "type": "uint256"
        }
      ],
      "stateMutability": "view",
      "type": "function"
    },
    {
      "inputs": [
        {
          "internalType": "uint256",
          "name": "proposalId",
          "type": "uint256"
        },
        {
          "internalType": "address",
          "name": "account",
          "type": "address"
        }
      ],
      "name": "hasVoted",
      "outputs": [
        {
          "internalType": "bool",
          "name": "",
          "type": "bool"
        }
      ],
      "stateMutability": "view",
      "type": "function"
    },
    {
      "inputs": [
        {
          "internalType": "address[]",
          "name": "targets",
          "type": "address[]"
        },
        {
          "internalType": "uint256[]",
          "name": "values",
          "type": "uint256[]"
        },
        {
          "internalType": "bytes[]",
          "name": "calldatas",
          "type": "bytes[]"
        },
        {
          "internalType": "bytes32",
          "name": "descriptionHash",
          "type": "bytes32"
        }
      ],
      "name": "hashProposal",
      "outputs": [
        {
          "internalType": "uint256",
          "name": "",
          "type": "uint256"
        }
      ],
      "stateMutability": "pure",
      "type": "function"
    },
    {
      "inputs": [],
      "name": "name",
      "outputs": [
        {
          "internalType": "string",
          "name": "",
          "type": "string"
        }
      ],
      "stateMutability": "view",
      "type": "function"
    },
    {
      "inputs": [
        {
          "internalType": "address",
          "name": "",
          "type": "address"
        },
        {
          "internalType": "address",
          "name": "",
          "type": "address"
        },
        {
          "internalType": "uint256[]",
          "name": "",
          "type": "uint256[]"
        },
        {
          "internalType": "uint256[]",
          "name": "",
          "type": "uint256[]"
        },
        {
          "internalType": "bytes",
          "name": "",
          "type": "bytes"
        }
      ],
      "name": "onERC1155BatchReceived",
      "outputs": [
        {
          "internalType": "bytes4",
          "name": "",
          "type": "bytes4"
        }
      ],
      "stateMutability": "nonpayable",
      "type": "function"
    },
    {
      "inputs": [
        {
          "internalType": "address",
          "name": "",
          "type": "address"
        },
        {
          "internalType": "address",
          "name": "",
          "type": "address"
        },
        {
          "internalType": "uint256",
          "name": "",
          "type": "uint256"
        },
        {
          "internalType": "uint256",
          "name": "",
          "type": "uint256"
        },
        {
          "internalType": "bytes",
          "name": "",
          "type": "bytes"
        }
      ],
      "name": "onERC1155Received",
      "outputs": [
        {
          "internalType": "bytes4",
          "name": "",
          "type": "bytes4"
        }
      ],
      "stateMutability": "nonpayable",
      "type": "function"
    },
    {
      "inputs": [
        {
          "internalType": "address",
          "name": "",
          "type": "address"
        },
        {
          "internalType": "address",
          "name": "",
          "type": "address"
        },
        {
          "internalType": "uint256",
          "name": "",
          "type": "uint256"
        },
        {
          "internalType": "bytes",
          "name": "",
          "type": "bytes"
        }
      ],
      "name": "onERC721Received",
      "outputs": [
        {
          "internalType": "bytes4",
          "name": "",
          "type": "bytes4"
        }
      ],
      "stateMutability": "nonpayable",
      "type": "function"
    },
    {
      "inputs": [
        {
          "internalType": "uint256",
          "name": "proposalId",
          "type": "uint256"
        }
      ],
      "name": "proposalDeadline",
      "outputs": [
        {
          "internalType": "uint256",
          "name": "",
          "type": "uint256"
        }
      ],
      "stateMutability": "view",
      "type": "function"
    },
    {
      "inputs": [
        {
          "internalType": "uint256",
          "name": "proposalId",
          "type": "uint256"
        }
      ],
      "name": "proposalEta",
      "outputs": [
        {
          "internalType": "uint256",
          "name": "",
          "type": "uint256"
        }
      ],
      "stateMutability": "view",
      "type": "function"
    },
    {
      "inputs": [
        {
          "internalType": "uint256",
          "name": "proposalId",
          "type": "uint256"
        }
      ],
      "name": "proposalProposer",
      "outputs": [
        {
          "internalType": "address",
          "name": "",
          "type": "address"
        }
      ],
      "stateMutability": "view",
      "type": "function"
    },
    {
      "inputs": [
        {
          "internalType": "uint256",
          "name": "proposalId",
          "type": "uint256"
        }
      ],
      "name": "proposalSnapshot",
      "outputs": [
        {
          "internalType": "uint256",
          "name": "",
          "type": "uint256"
        }
      ],
      "stateMutability": "view",
      "type": "function"
    },
    {
      "inputs": [],
      "name": "proposalThreshold",
      "outputs": [
        {
          "internalType": "uint256",
          "name": "",
          "type": "uint256"
        }
      ],
      "stateMutability": "view",
      "type": "function"
    },
    {
      "inputs": [
        {
          "internalType": "uint256",
          "name": "proposalId",
          "type": "uint256"
        }
      ],
      "name": "proposalVotes",
      "outputs": [
        {
          "internalType": "uint256",
          "name": "againstVotes",
          "type": "uint256"
        },
        {
          "internalType": "uint256",
          "name": "forVotes",
          "type": "uint256"
        },
        {
          "internalType": "uint256",
          "name": "abstainVotes",
          "type": "uint256"
        }
      ],
      "stateMutability": "view",
      "type": "function"
    },
    {
      "inputs": [
        {
          "internalType": "address[]",
          "name": "targets",
          "type": "address[]"
        },
        {
          "internalType": "uint256[]",
          "name": "values",
          "type": "uint256[]"
        },
        {
          "internalType": "bytes[]",
          "name": "calldatas",
          "type": "bytes[]"
        },
        {
          "internalType": "string",
          "name": "description",
          "type": "string"
        }
      ],
      "name": "propose",
      "outputs": [
        {
          "internalType": "uint256",
          "name": "",
          "type": "uint256"
        }
      ],
      "stateMutability": "nonpayable",
      "type": "function"
    },
    {
      "inputs": [
        {
          "internalType": "address[]",
          "name": "targets",
          "type": "address[]"
        },
        {
          "internalType": "uint256[]",
          "name": "values",
          "type": "uint256[]"
        },
        {
          "internalType": "bytes[]",
          "name": "calldatas",
          "type": "bytes[]"
        },
        {
          "internalType": "bytes32",
          "name": "descriptionHash",
          "type": "bytes32"
        }
      ],
      "name": "queue",
      "outputs": [
        {
          "internalType": "uint256",
          "name": "",
          "type": "uint256"
        }
      ],
      "stateMutability": "nonpayable",
      "type": "function"
    },
    {
      "inputs": [
        {
          "internalType": "uint256",
          "name": "timepoint",
          "type": "uint256"
        }
      ],
      "name": "quorum",
      "outputs": [
        {
          "internalType": "uint256",
          "name": "",
          "type": "uint256"
        }
      ],
      "stateMutability": "view",
      "type": "function"
    },
    {
      "inputs": [],
      "name": "quorumDenominator",
      "outputs": [
        {
          "internalType": "uint256",
          "name": "",
          "type": "uint256"
        }
      ],
      "stateMutability": "view",
      "type": "function"
    },
    {
      "inputs": [
        {
          "internalType": "uint256",
          "name": "timepoint",
          "type": "uint256"
        }
      ],
      "name": "quorumNumerator",
      "outputs": [
        {
          "internalType": "uint256",
          "name": "",
          "type": "uint256"
        }
      ],
      "stateMutability": "view",
      "type": "function"
    },
    {
      "inputs": [],
      "name": "quorumNumerator",
      "outputs": [
        {
          "internalType": "uint256",
          "name": "",
          "type": "uint256"
        }
      ],
      "stateMutability": "view",
      "type": "function"
    },
    {
      "inputs": [
        {
          "internalType": "address",
          "name": "target",
          "type": "address"
        },
        {
          "internalType": "uint256",
          "name": "value",
          "type": "uint256"
        },
        {
          "internalType": "bytes",
          "name": "data",
          "type": "bytes"
        }
      ],
      "name": "relay",
      "outputs": [],
      "stateMutability": "payable",
      "type": "function"
    },
    {
      "inputs": [
        {
          "internalType": "uint256",
          "name": "newProposalThreshold",
          "type": "uint256"
        }
      ],
      "name": "setProposalThreshold",
      "outputs": [],
      "stateMutability": "nonpayable",
      "type": "function"
    },
    {
      "inputs": [
        {
          "internalType": "uint256",
          "name": "newVotingDelay",
          "type": "uint256"
        }
      ],
      "name": "setVotingDelay",
      "outputs": [],
      "stateMutability": "nonpayable",
      "type": "function"
    },
    {
      "inputs": [
        {
          "internalType": "uint256",
          "name": "newVotingPeriod",
          "type": "uint256"
        }
      ],
      "name": "setVotingPeriod",
      "outputs": [],
      "stateMutability": "nonpayable",
      "type": "function"
    },
    {
      "inputs": [
        {
          "internalType": "uint256",
          "name": "proposalId",
          "type": "uint256"
        }
      ],
      "name": "state",
      "outputs": [
        {
          "internalType": "enum IGovernor.ProposalState",
          "name": "",
          "type": "uint8"
        }
      ],
      "stateMutability": "view",
      "type": "function"
    },
    {
      "inputs": [
        {
          "internalType": "bytes4",
          "name": "interfaceId",
          "type": "bytes4"
        }
      ],
      "name": "supportsInterface",
      "outputs": [
        {
          "internalType": "bool",
          "name": "",
          "type": "bool"
        }
      ],
      "stateMutability": "view",
      "type": "function"
    },
    {
      "inputs": [],
      "name": "timelock",
      "outputs": [
        {
          "internalType": "address",
          "name": "",
          "type": "address"
        }
      ],
      "stateMutability": "view",
      "type": "function"
    },
    {
      "inputs": [],
      "name": "token",
      "outputs": [
        {
          "internalType": "contract IERC5805",
          "name": "",
          "type": "address"
        }
      ],
      "stateMutability": "view",
      "type": "function"
    },
    {
      "inputs": [
        {
          "internalType": "uint256",
          "name": "newQuorumNumerator",
          "type": "uint256"
        }
      ],
      "name": "updateQuorumNumerator",
      "outputs": [],
      "stateMutability": "nonpayable",
      "type": "function"
    },
    {
      "inputs": [
        {
          "internalType": "contract TimelockController",
          "name": "newTimelock",
          "type": "address"
        }
      ],
      "name": "updateTimelock",
      "outputs": [],
      "stateMutability": "nonpayable",
      "type": "function"
    },
    {
      "inputs": [],
      "name": "version",
      "outputs": [
        {
          "internalType": "string",
          "name": "",
          "type": "string"
        }
      ],
      "stateMutability": "view",
      "type": "function"
    },
    {
      "inputs": [],
      "name": "votingDelay",
      "outputs": [
        {
          "internalType": "uint256",
          "name": "",
          "type": "uint256"
        }
      ],
      "stateMutability": "view",
      "type": "function"
    },
    {
      "inputs": [],
      "name": "votingPeriod",
      "outputs": [
        {
          "internalType": "uint256",
          "name": "",
          "type": "uint256"
        }
      ],
      "stateMutability": "view",
      "type": "function"
    },
    {
      "stateMutability": "payable",
      "type": "receive"
    }
  ],
  "transactionHash": "0x3c92a29389ba64a67daab4dceb51dc136adb03ebe750537e9f670318b69ccf51",
  "args": [
    "0x64D05A189EcCdB5071A89a30D89864D38981Fc18",
    "0xB64ad260FfCD610919C3C1F94d79DAb784f8AD9f",
    43200,
    302400,
    "100000000000000000000000",
    4
  ],
  "numDeployments": 1,
  "solcInputHash": "7a990070fa9193fcffd52b03f576db08",
  "bytecode": "0x6101806040523480156200001257600080fd5b506040516200539f3803806200539f83398101604081905262000035916200095e565b8481878686866040518060400160405280601581526020017f4e69667479204c656167756520476f7665726e6f72000000000000000000000081525080620000826200019d60201b60201c565b6200008f826000620001b8565b61012052620000a0816001620001b8565b61014052815160208084019190912060e052815190820120610100524660a0526200012e60e05161010051604080517f8b73c3c69bb8fe3d512ecc4cf759cc79239f7b179b0ffacaa9a75d522b39400f60208201529081019290925260608201524660808201523060a082015260009060c00160405160208183030381529060405280519060200120905090565b60805250503060c052600262000145828262000a66565b5062000153905083620001f1565b6200015e8262000232565b6200016981620002d9565b5050506001600160a01b03166101605262000184816200031a565b50620001908162000499565b5050505050505062000bf3565b6040805180820190915260018152603160f81b602082015290565b6000602083511015620001d857620001d08362000502565b9050620001eb565b81620001e5848262000a66565b5060ff90505b92915050565b60065460408051918252602082018390527fc565b045403dc03c2eea82b81a0465edad9e2e7fc4d97e11421c209da93d7a93910160405180910390a1600655565b60008111620002985760405162461bcd60e51b815260206004820152602760248201527f476f7665726e6f7253657474696e67733a20766f74696e6720706572696f6420604482015266746f6f206c6f7760c81b60648201526084015b60405180910390fd5b60075460408051918252602082018390527f7e3f7f0708a84de9203036abaa450dccc85ad5ff52f78c170f3edb55cf5e8828910160405180910390a1600755565b60085460408051918252602082018390527fccb45da8d5717e6c4544694297c4ba5cf151d455c9bb0ed4fc7a38411bc05461910160405180910390a1600855565b60648111156200039f5760405162461bcd60e51b815260206004820152604360248201527f476f7665726e6f72566f74657351756f72756d4672616374696f6e3a2071756f60448201527f72756d4e756d657261746f72206f7665722071756f72756d44656e6f6d696e616064820152623a37b960e91b608482015260a4016200028f565b6000620003ab62000545565b90508015801590620003bd5750600b54155b1562000425576040805180820190915260008152600b9060208101620003e38462000574565b6001600160e01b0390811690915282546001810184556000938452602093849020835194909301519091166401000000000263ffffffff909316929092179101555b6200045a6200044562000437620005e3565b65ffffffffffff166200065a565b620004508462000574565b600b9190620006c1565b505060408051828152602081018490527f0553476bf02ef2726e8ce5ced78d63e26e602e4a2257b1f559418e24b4633997910160405180910390a15050565b600c54604080516001600160a01b03928316815291831660208301527f08f74ea46ef7894f65eabfb5e6e695de773a000b47c529ab559178069b226401910160405180910390a1600c80546001600160a01b0319166001600160a01b0392909216919091179055565b600080829050601f8151111562000530578260405163305a27a960e01b81526004016200028f919062000b32565b80516200053d8262000b82565b179392505050565b600b54600090156200056b576200055d600b620006de565b6001600160e01b0316905090565b600a545b905090565b60006001600160e01b03821115620005df5760405162461bcd60e51b815260206004820152602760248201527f53616665436173743a2076616c756520646f65736e27742066697420696e20326044820152663234206269747360c81b60648201526084016200028f565b5090565b6000610160516001600160a01b03166391ddadf46040518163ffffffff1660e01b8152600401602060405180830381865afa92505050801562000645575060408051601f3d908101601f19168201909252620006429181019062000ba7565b60015b62000655576200056f436200072c565b919050565b600063ffffffff821115620005df5760405162461bcd60e51b815260206004820152602660248201527f53616665436173743a2076616c756520646f65736e27742066697420696e203360448201526532206269747360d01b60648201526084016200028f565b600080620006d185858562000795565b915091505b935093915050565b8054600090801562000722576200070a83620006fc60018462000bd1565b600091825260209091200190565b5464010000000090046001600160e01b031662000725565b60005b9392505050565b600065ffffffffffff821115620005df5760405162461bcd60e51b815260206004820152602660248201527f53616665436173743a2076616c756520646f65736e27742066697420696e203460448201526538206269747360d01b60648201526084016200028f565b825460009081908015620008ea576000620007b787620006fc60018562000bd1565b60408051808201909152905463ffffffff8082168084526401000000009092046001600160e01b0316602084015291925090871610156200083b5760405162461bcd60e51b815260206004820152601b60248201527f436865636b706f696e743a2064656372656173696e67206b657973000000000060448201526064016200028f565b805163ffffffff8088169116036200088957846200086088620006fc60018662000bd1565b80546001600160e01b03929092166401000000000263ffffffff909216919091179055620008d9565b6040805180820190915263ffffffff80881682526001600160e01b0380881660208085019182528b54600181018d5560008d81529190912094519151909216640100000000029216919091179101555b602001519250839150620006d69050565b50506040805180820190915263ffffffff80851682526001600160e01b0380851660208085019182528854600181018a5560008a815291822095519251909316640100000000029190931617920191909155905081620006d6565b6001600160a01b03811681146200095b57600080fd5b50565b60008060008060008060c087890312156200097857600080fd5b8651620009858162000945565b6020880151909650620009988162000945565b6040880151606089015160808a015160a0909a0151989b929a5090989097909650945092505050565b634e487b7160e01b600052604160045260246000fd5b600181811c90821680620009ec57607f821691505b60208210810362000a0d57634e487b7160e01b600052602260045260246000fd5b50919050565b601f82111562000a6157600081815260208120601f850160051c8101602086101562000a3c5750805b601f850160051c820191505b8181101562000a5d5782815560010162000a48565b5050505b505050565b81516001600160401b0381111562000a825762000a82620009c1565b62000a9a8162000a938454620009d7565b8462000a13565b602080601f83116001811462000ad2576000841562000ab95750858301515b600019600386901b1c1916600185901b17855562000a5d565b600085815260208120601f198616915b8281101562000b035788860151825594840194600190910190840162000ae2565b508582101562000b225787850151600019600388901b60f8161c191681555b5050505050600190811b01905550565b600060208083528351808285015260005b8181101562000b615785810183015185820160400152820162000b43565b506000604082860101526040601f19601f8301168501019250505092915050565b8051602080830151919081101562000a0d5760001960209190910360031b1b16919050565b60006020828403121562000bba57600080fd5b815165ffffffffffff811681146200072557600080fd5b81810381811115620001eb57634e487b7160e01b600052601160045260246000fd5b60805160a05160c05160e0516101005161012051610140516101605161472a62000c75600039600081816109dd015281816110c6015281816117de01528181611c6b01526127010152600061178a0152600061176001526000612a7801526000612a50015260006129ab015260006129d5015260006129ff015261472a6000f3fe6080604052600436106102815760003560e01c80637b3c71d31161014f578063c01f9e37116100c1578063ea0217cf1161007a578063ea0217cf1461091f578063eb9019d41461093f578063ece40cc11461095f578063f23a6e611461097f578063f8ce560a146109ab578063fc0c546a146109cb57600080fd5b8063c01f9e371461081b578063c28bc2fa14610854578063c59057e414610867578063d33219b414610887578063dd4e2ba5146108a5578063deaaa7cc146108eb57600080fd5b80639a802a6d116101135780639a802a6d14610765578063a7713a7014610785578063a890c9101461079a578063ab58fb8e146107ba578063b58131b0146107da578063bc197c81146107ef57600080fd5b80637b3c71d3146106bd5780637d5e81e2146106dd57806384b0196e146106fd57806391ddadf41461072557806397c3d3341461075157600080fd5b80633932abb1116101f3578063544ffc9c116101ac578063544ffc9c146105be57806354fd4d5014610613578063567813881461063d5780635f398a141461065d57806360c4247f1461067d57806370b0f6601461069d57600080fd5b80633932abb1146104dd5780633bccf4fd146104f25780633e4f49e614610512578063438596321461053f578063452115d6146105895780634bf5d7e9146105a957600080fd5b8063143489d011610245578063143489d0146103a7578063150b7a02146103fc578063160cbed7146104405780632656227d146104605780632d63f693146104735780632fe3e261146104a957600080fd5b806301ffc9a7146102f157806302a251a314610326578063034201811461034557806306f3f9e61461036557806306fdde031461038557600080fd5b366102ec573061028f6109ff565b6001600160a01b0316146102ea5760405162461bcd60e51b815260206004820152601f60248201527f476f7665726e6f723a206d7573742073656e6420746f206578656375746f720060448201526064015b60405180910390fd5b005b600080fd5b3480156102fd57600080fd5b5061031161030c36600461379c565b610a18565b60405190151581526020015b60405180910390f35b34801561033257600080fd5b506007545b60405190815260200161031d565b34801561035157600080fd5b506103376103603660046138ea565b610a29565b34801561037157600080fd5b506102ea610380366004613990565b610b21565b34801561039157600080fd5b5061039a610bab565b60405161031d91906139f9565b3480156103b357600080fd5b506103e46103c2366004613990565b600090815260036020526040902054600160401b90046001600160a01b031690565b6040516001600160a01b03909116815260200161031d565b34801561040857600080fd5b50610427610417366004613a21565b630a85bd0160e11b949350505050565b6040516001600160e01b0319909116815260200161031d565b34801561044c57600080fd5b5061033761045b366004613bf8565b610c3d565b61033761046e366004613bf8565b610e3e565b34801561047f57600080fd5b5061033761048e366004613990565b6000908152600360205260409020546001600160401b031690565b3480156104b557600080fd5b506103377fb3b3f3b703cd84ce352197dcff232b1b5d3cfb2025ce47cf04742d0651f1af8881565b3480156104e957600080fd5b50600654610337565b3480156104fe57600080fd5b5061033761050d366004613c87565b610f30565b34801561051e57600080fd5b5061053261052d366004613990565b610fa6565b60405161031d9190613ceb565b34801561054b57600080fd5b5061031161055a366004613d13565b60008281526009602090815260408083206001600160a01b038516845260030190915290205460ff1692915050565b34801561059557600080fd5b506103376105a4366004613bf8565b610fb1565b3480156105b557600080fd5b5061039a6110c2565b3480156105ca57600080fd5b506105f86105d9366004613990565b6000908152600960205260409020805460018201546002909201549092565b6040805193845260208401929092529082015260600161031d565b34801561061f57600080fd5b506040805180820190915260018152603160f81b602082015261039a565b34801561064957600080fd5b50610337610658366004613d43565b611184565b34801561066957600080fd5b50610337610678366004613d6f565b6111ad565b34801561068957600080fd5b50610337610698366004613990565b6111f7565b3480156106a957600080fd5b506102ea6106b8366004613990565b6112a8565b3480156106c957600080fd5b506103376106d8366004613df2565b61132f565b3480156106e957600080fd5b506103376106f8366004613e4b565b611377565b34801561070957600080fd5b50610712611752565b60405161031d9796959493929190613f3a565b34801561073157600080fd5b5061073a6117da565b60405165ffffffffffff909116815260200161031d565b34801561075d57600080fd5b506064610337565b34801561077157600080fd5b50610337610780366004613f9c565b611863565b34801561079157600080fd5b5061033761187a565b3480156107a657600080fd5b506102ea6107b5366004613ff4565b6118a4565b3480156107c657600080fd5b506103376107d5366004613990565b61192b565b3480156107e657600080fd5b506103376119c5565b3480156107fb57600080fd5b5061042761080a366004614011565b63bc197c8160e01b95945050505050565b34801561082757600080fd5b50610337610836366004613990565b6000908152600360205260409020600101546001600160401b031690565b6102ea6108623660046140a4565b6119d0565b34801561087357600080fd5b50610337610882366004613bf8565b611adf565b34801561089357600080fd5b50600c546001600160a01b03166103e4565b3480156108b157600080fd5b506040805180820190915260208082527f737570706f72743d627261766f2671756f72756d3d666f722c6162737461696e9082015261039a565b3480156108f757600080fd5b506103377f150214d74d59b7d1e90c73fc22ef3d991dd0a76b046543d4d80ab92d2a50328f81565b34801561092b57600080fd5b506102ea61093a366004613990565b611b19565b34801561094b57600080fd5b5061033761095a3660046140e7565b611ba0565b34801561096b57600080fd5b506102ea61097a366004613990565b611bc1565b34801561098b57600080fd5b5061042761099a366004614113565b63f23a6e6160e01b95945050505050565b3480156109b757600080fd5b506103376109c6366004613990565b611c48565b3480156109d757600080fd5b506103e47f000000000000000000000000000000000000000000000000000000000000000081565b6000610a13600c546001600160a01b031690565b905090565b6000610a2382611cf2565b92915050565b600080610acd610ac57fb3b3f3b703cd84ce352197dcff232b1b5d3cfb2025ce47cf04742d0651f1af888c8c8c8c604051610a6592919061417b565b60405180910390208b80519060200120604051602001610aaa959493929190948552602085019390935260ff9190911660408401526060830152608082015260a00190565b60405160208183030381529060405280519060200120611d17565b868686611d44565b9050610b138a828b8b8b8080601f0160208091040260200160405190810160405280939291908181526020018383808284376000920191909152508d9250611d62915050565b9a9950505050505050505050565b610b296109ff565b6001600160a01b0316336001600160a01b031614610b595760405162461bcd60e51b81526004016102e19061418b565b30610b626109ff565b6001600160a01b031614610b9f5760008036604051610b8292919061417b565b604051809103902090505b80610b986004611eb7565b03610b8d57505b610ba881611f36565b50565b606060028054610bba906141c2565b80601f0160208091040260200160405190810160405280929190818152602001828054610be6906141c2565b8015610c335780601f10610c0857610100808354040283529160200191610c33565b820191906000526020600020905b815481529060010190602001808311610c1657829003601f168201915b5050505050905090565b600080610c4c86868686611adf565b90506004610c5982610fa6565b6007811115610c6a57610c6a613cd5565b14610c875760405162461bcd60e51b81526004016102e1906141fc565b600c546040805163793d064960e11b815290516000926001600160a01b03169163f27a0c929160048083019260209291908290030181865afa158015610cd1573d6000803e3d6000fd5b505050506040513d601f19601f82011682018060405250810190610cf5919061423d565b600c5460405163b1c5f42760e01b81529192506001600160a01b03169063b1c5f42790610d2f908a908a908a906000908b906004016142e4565b602060405180830381865afa158015610d4c573d6000803e3d6000fd5b505050506040513d601f19601f82011682018060405250810190610d70919061423d565b6000838152600d602052604080822092909255600c5491516308f2a0bb60e41b81526001600160a01b0390921691638f2a0bb091610dbb918b918b918b91908b908990600401614332565b600060405180830381600087803b158015610dd557600080fd5b505af1158015610de9573d6000803e3d6000fd5b505050507f9a2e42fd6722813d69113e7d0079d3d940171428df7373df9c7f7617cfda2892828242610e1b91906143a0565b604080519283526020830191909152015b60405180910390a15095945050505050565b600080610e4d86868686611adf565b90506000610e5a82610fa6565b90506004816007811115610e7057610e70613cd5565b1480610e8d57506005816007811115610e8b57610e8b613cd5565b145b610ea95760405162461bcd60e51b81526004016102e1906141fc565b60008281526003602052604090819020600201805460ff19166001179055517f712ae1383f79ac853f8d882153778e0260ef8f03b504e2866e0593e04d2b291f90610ef79084815260200190565b60405180910390a1610f0c82888888886120a4565b610f198288888888612146565b610f268288888888612153565b5095945050505050565b604080517f150214d74d59b7d1e90c73fc22ef3d991dd0a76b046543d4d80ab92d2a50328f602082015290810186905260ff851660608201526000908190610f7e90610ac590608001610aaa565b9050610f9b8782886040518060200160405280600081525061218c565b979650505050505050565b6000610a23826121b8565b600080610fc086868686611adf565b90506000610fcd82610fa6565b6007811115610fde57610fde613cd5565b1461102b5760405162461bcd60e51b815260206004820152601c60248201527f476f7665726e6f723a20746f6f206c61746520746f2063616e63656c0000000060448201526064016102e1565b600081815260036020526040902054600160401b90046001600160a01b0316336001600160a01b0316146110ac5760405162461bcd60e51b815260206004820152602260248201527f476f7665726e6f723a206f6e6c792070726f706f7365722063616e2063616e63604482015261195b60f21b60648201526084016102e1565b6110b886868686612302565b9695505050505050565b60607f00000000000000000000000000000000000000000000000000000000000000006001600160a01b0316634bf5d7e96040518163ffffffff1660e01b8152600401600060405180830381865afa92505050801561114357506040513d6000823e601f3d908101601f1916820160405261114091908101906143b3565b60015b61117f575060408051808201909152601d81527f6d6f64653d626c6f636b6e756d6265722666726f6d3d64656661756c74000000602082015290565b919050565b6000803390506111a58482856040518060200160405280600081525061218c565b949350505050565b600080339050610f9b87828888888080601f0160208091040260200160405190810160405280939291908181526020018383808284376000920191909152508a9250611d62915050565b600b5460009080820361120e575050600a54919050565b6000600b61121d600184614420565b8154811061122d5761122d614433565b60009182526020918290206040805180820190915291015463ffffffff8116808352600160201b9091046001600160e01b0316928201929092529150841061128357602001516001600160e01b03169392505050565b61129761128f85612310565b600b90612379565b6001600160e01b0316949350505050565b6112b06109ff565b6001600160a01b0316336001600160a01b0316146112e05760405162461bcd60e51b81526004016102e19061418b565b306112e96109ff565b6001600160a01b031614611326576000803660405161130992919061417b565b604051809103902090505b8061131f6004611eb7565b0361131457505b610ba88161242c565b6000803390506110b886828787878080601f01602080910402602001604051908101604052809392919081815260200183838082843760009201919091525061218c92505050565b600033611384818461246d565b6113d05760405162461bcd60e51b815260206004820152601d60248201527f476f7665726e6f723a2070726f706f736572207265737472696374656400000060448201526064016102e1565b60006113da6117da565b65ffffffffffff1690506113ec6119c5565b6113fb8361095a600185614420565b10156114635760405162461bcd60e51b815260206004820152603160248201527f476f7665726e6f723a2070726f706f73657220766f7465732062656c6f7720706044820152701c9bdc1bdcd85b081d1a1c995cda1bdb19607a1b60648201526084016102e1565b60006114788888888880519060200120611adf565b9050865188511461149b5760405162461bcd60e51b81526004016102e190614449565b85518851146114bc5760405162461bcd60e51b81526004016102e190614449565b600088511161150d5760405162461bcd60e51b815260206004820152601860248201527f476f7665726e6f723a20656d7074792070726f706f73616c000000000000000060448201526064016102e1565b6000818152600360205260409020546001600160401b03161561157c5760405162461bcd60e51b815260206004820152602160248201527f476f7665726e6f723a2070726f706f73616c20616c72656164792065786973746044820152607360f81b60648201526084016102e1565b600061158760065490565b61159190846143a0565b9050600061159e60075490565b6115a890836143a0565b90506040518060e001604052806115be8461255e565b6001600160401b031681526001600160a01b0387166020820152600060408201526060016115eb8361255e565b6001600160401b039081168252600060208084018290526040808501839052606094850183905288835260038252918290208551815492870151878501519186166001600160e01b031990941693909317600160401b6001600160a01b039094168402176001600160e01b0316600160e01b60e09290921c91909102178155938501516080860151908416921c0217600183015560a08301516002909201805460c09094015161ffff1990941692151561ff00191692909217610100931515939093029290921790558a517f7d84a6263ae0d98d3329bd7b46bb4e8d6f98cd35a7adb45c274c8b7fd5ebd5e091859188918e918e918111156116ef576116ef61381f565b60405190808252806020026020018201604052801561172257816020015b606081526020019060019003908161170d5790505b508d88888f60405161173c9998979695949392919061448a565b60405180910390a1509098975050505050505050565b6000606080828080836117857f0000000000000000000000000000000000000000000000000000000000000000836125c6565b6117b07f000000000000000000000000000000000000000000000000000000000000000060016125c6565b60408051600080825260208201909252600f60f81b9b939a50919850469750309650945092509050565b60007f00000000000000000000000000000000000000000000000000000000000000006001600160a01b03166391ddadf46040518163ffffffff1660e01b8152600401602060405180830381865afa925050508015611856575060408051601f3d908101601f1916820190925261185391810190614561565b60015b61117f57610a1343612671565b60006118708484846126d8565b90505b9392505050565b600b546000901561189d5761188f600b61276e565b6001600160e01b0316905090565b50600a5490565b6118ac6109ff565b6001600160a01b0316336001600160a01b0316146118dc5760405162461bcd60e51b81526004016102e19061418b565b306118e56109ff565b6001600160a01b031614611922576000803660405161190592919061417b565b604051809103902090505b8061191b6004611eb7565b0361191057505b610ba88161279e565b600c546000828152600d602052604080822054905163d45c443560e01b81526004810191909152909182916001600160a01b039091169063d45c443590602401602060405180830381865afa158015611988573d6000803e3d6000fd5b505050506040513d601f19601f820116820180604052508101906119ac919061423d565b9050806001146119bc5780611873565b60009392505050565b6000610a1360085490565b6119d86109ff565b6001600160a01b0316336001600160a01b031614611a085760405162461bcd60e51b81526004016102e19061418b565b30611a116109ff565b6001600160a01b031614611a4e5760008036604051611a3192919061417b565b604051809103902090505b80611a476004611eb7565b03611a3c57505b600080856001600160a01b0316858585604051611a6c92919061417b565b60006040518083038185875af1925050503d8060008114611aa9576040519150601f19603f3d011682016040523d82523d6000602084013e611aae565b606091505b5091509150611ad682826040518060600160405280602881526020016146cd60289139612807565b50505050505050565b600084848484604051602001611af89493929190614589565b60408051601f19818403018152919052805160209091012095945050505050565b611b216109ff565b6001600160a01b0316336001600160a01b031614611b515760405162461bcd60e51b81526004016102e19061418b565b30611b5a6109ff565b6001600160a01b031614611b975760008036604051611b7a92919061417b565b604051809103902090505b80611b906004611eb7565b03611b8557505b610ba881612820565b60006118738383611bbc60408051602081019091526000815290565b6126d8565b611bc96109ff565b6001600160a01b0316336001600160a01b031614611bf95760405162461bcd60e51b81526004016102e19061418b565b30611c026109ff565b6001600160a01b031614611c3f5760008036604051611c2292919061417b565b604051809103902090505b80611c386004611eb7565b03611c2d57505b610ba8816128c1565b60006064611c55836111f7565b604051632394e7a360e21b8152600481018590527f00000000000000000000000000000000000000000000000000000000000000006001600160a01b031690638e539e8c90602401602060405180830381865afa158015611cba573d6000803e3d6000fd5b505050506040513d601f19601f82011682018060405250810190611cde919061423d565b611ce891906145d4565b610a239190614601565b60006001600160e01b03198216636e665ced60e01b1480610a235750610a2382612902565b6000610a23611d2461299e565b8360405161190160f01b8152600281019290925260228201526042902090565b6000806000611d5587878787612ac9565b91509150610f2681612b8d565b60008581526003602052604081206001611d7b88610fa6565b6007811115611d8c57611d8c613cd5565b14611de55760405162461bcd60e51b815260206004820152602360248201527f476f7665726e6f723a20766f7465206e6f742063757272656e746c792061637460448201526269766560e81b60648201526084016102e1565b8054600090611dff9088906001600160401b0316866126d8565b9050611e0e8888888488612cd7565b8351600003611e6357866001600160a01b03167fb8e138887d0aa13bab447e82de9d5c1777041ecd21ca36ba824ff1e6c07ddda489888489604051611e569493929190614623565b60405180910390a2610f9b565b866001600160a01b03167fe2babfbac5889a709b63bb7f598b324e08bc5a4fb9ec647fb3cbc9ec07eb87128988848989604051611ea495949392919061464b565b60405180910390a2979650505050505050565b6000611ed28254600f81810b600160801b909204900b131590565b15611ef057604051631ed9509560e11b815260040160405180910390fd5b508054600f0b6000818152600180840160205260408220805492905583546fffffffffffffffffffffffffffffffff191692016001600160801b03169190911790915590565b6064811115611fb95760405162461bcd60e51b815260206004820152604360248201527f476f7665726e6f72566f74657351756f72756d4672616374696f6e3a2071756f60448201527f72756d4e756d657261746f72206f7665722071756f72756d44656e6f6d696e616064820152623a37b960e91b608482015260a4016102e1565b6000611fc361187a565b90508015801590611fd45750600b54155b15612038576040805180820190915260008152600b9060208101611ff784612e51565b6001600160e01b039081169091528254600181018455600093845260209384902083519490930151909116600160201b0263ffffffff909316929092179101555b6120656120536120466117da565b65ffffffffffff16612310565b61205c84612e51565b600b9190612eba565b505060408051828152602081018490527f0553476bf02ef2726e8ce5ced78d63e26e602e4a2257b1f559418e24b4633997910160405180910390a15050565b306120ad6109ff565b6001600160a01b03161461213f5760005b845181101561213d57306001600160a01b03168582815181106120e3576120e3614433565b60200260200101516001600160a01b03160361212d5761212d83828151811061210e5761210e614433565b6020026020010151805190602001206004612ed590919063ffffffff16565b61213681614691565b90506120be565b505b5050505050565b61213f8585858585612f11565b3061215c6109ff565b6001600160a01b03161461213f57600454600f81810b600160801b909204900b131561213f57600060045561213f565b60006121af858585856121aa60408051602081019091526000815290565b611d62565b95945050505050565b6000806121c483612f85565b905060048160078111156121da576121da613cd5565b146121e55792915050565b6000838152600d602052604090205480612200575092915050565b600c54604051632ab0f52960e01b8152600481018390526001600160a01b0390911690632ab0f52990602401602060405180830381865afa158015612249573d6000803e3d6000fd5b505050506040513d601f19601f8201168201806040525081019061226d91906146aa565b1561227c575060079392505050565b600c54604051632c258a9f60e11b8152600481018390526001600160a01b039091169063584b153e90602401602060405180830381865afa1580156122c5573d6000803e3d6000fd5b505050506040513d601f19601f820116820180604052508101906122e991906146aa565b156122f8575060059392505050565b5060029392505050565b60006121af858585856130c5565b600063ffffffff8211156123755760405162461bcd60e51b815260206004820152602660248201527f53616665436173743a2076616c756520646f65736e27742066697420696e203360448201526532206269747360d01b60648201526084016102e1565b5090565b8154600090818160058111156123d657600061239484613177565b61239e9085614420565b60008881526020902090915081015463ffffffff90811690871610156123c6578091506123d4565b6123d18160016143a0565b92505b505b60006123e48787858561325f565b9050801561241f57612409876123fb600184614420565b600091825260209091200190565b54600160201b90046001600160e01b0316610f9b565b6000979650505050505050565b60065460408051918252602082018390527fc565b045403dc03c2eea82b81a0465edad9e2e7fc4d97e11421c209da93d7a93910160405180910390a1600655565b80516000906034811015612485576001915050610a23565b82810160131901516001600160a01b031981166b046e0e4dee0dee6cae47a60f60a31b146124b857600192505050610a23565b6000806124c6602885614420565b90505b8381101561253d576000806124fd8884815181106124e9576124e9614433565b01602001516001600160f81b0319166132bd565b91509150816125155760019650505050505050610a23565b8060ff166004856001600160a01b0316901b17935050508061253690614691565b90506124c9565b50856001600160a01b0316816001600160a01b031614935050505092915050565b60006001600160401b038211156123755760405162461bcd60e51b815260206004820152602660248201527f53616665436173743a2076616c756520646f65736e27742066697420696e203660448201526534206269747360d01b60648201526084016102e1565b606060ff83146125e0576125d98361334f565b9050610a23565b8180546125ec906141c2565b80601f0160208091040260200160405190810160405280929190818152602001828054612618906141c2565b80156126655780601f1061263a57610100808354040283529160200191612665565b820191906000526020600020905b81548152906001019060200180831161264857829003601f168201915b50505050509050610a23565b600065ffffffffffff8211156123755760405162461bcd60e51b815260206004820152602660248201527f53616665436173743a2076616c756520646f65736e27742066697420696e203460448201526538206269747360d01b60648201526084016102e1565b604051630748d63560e31b81526001600160a01b038481166004830152602482018490526000917f000000000000000000000000000000000000000000000000000000000000000090911690633a46b1a890604401602060405180830381865afa15801561274a573d6000803e3d6000fd5b505050506040513d601f19601f82011682018060405250810190611870919061423d565b805460009080156119bc57612788836123fb600184614420565b54600160201b90046001600160e01b0316611873565b600c54604080516001600160a01b03928316815291831660208301527f08f74ea46ef7894f65eabfb5e6e695de773a000b47c529ab559178069b226401910160405180910390a1600c80546001600160a01b0319166001600160a01b0392909216919091179055565b60608315612816575081611873565b611873838361338e565b600081116128805760405162461bcd60e51b815260206004820152602760248201527f476f7665726e6f7253657474696e67733a20766f74696e6720706572696f6420604482015266746f6f206c6f7760c81b60648201526084016102e1565b60075460408051918252602082018390527f7e3f7f0708a84de9203036abaa450dccc85ad5ff52f78c170f3edb55cf5e8828910160405180910390a1600755565b60085460408051918252602082018390527fccb45da8d5717e6c4544694297c4ba5cf151d455c9bb0ed4fc7a38411bc05461910160405180910390a1600855565b600063288ace0360e11b6318df743f60e31b63bf26d89760e01b6379dd796f60e01b6001600160e01b0319861682148061294857506001600160e01b0319868116908216145b8061295f57506001600160e01b0319868116908516145b8061297a57506001600160e01b03198616630271189760e51b145b806110b857506301ffc9a760e01b6001600160e01b03198716149695505050505050565b6000306001600160a01b037f0000000000000000000000000000000000000000000000000000000000000000161480156129f757507f000000000000000000000000000000000000000000000000000000000000000046145b15612a2157507f000000000000000000000000000000000000000000000000000000000000000090565b610a13604080517f8b73c3c69bb8fe3d512ecc4cf759cc79239f7b179b0ffacaa9a75d522b39400f60208201527f0000000000000000000000000000000000000000000000000000000000000000918101919091527f000000000000000000000000000000000000000000000000000000000000000060608201524660808201523060a082015260009060c00160405160208183030381529060405280519060200120905090565b6000807f7fffffffffffffffffffffffffffffff5d576e7357a4501ddfe92f46681b20a0831115612b005750600090506003612b84565b6040805160008082526020820180845289905260ff881692820192909252606081018690526080810185905260019060a0016020604051602081039080840390855afa158015612b54573d6000803e3d6000fd5b5050604051601f1901519150506001600160a01b038116612b7d57600060019250925050612b84565b9150600090505b94509492505050565b6000816004811115612ba157612ba1613cd5565b03612ba95750565b6001816004811115612bbd57612bbd613cd5565b03612c0a5760405162461bcd60e51b815260206004820152601860248201527f45434453413a20696e76616c6964207369676e6174757265000000000000000060448201526064016102e1565b6002816004811115612c1e57612c1e613cd5565b03612c6b5760405162461bcd60e51b815260206004820152601f60248201527f45434453413a20696e76616c6964207369676e6174757265206c656e6774680060448201526064016102e1565b6003816004811115612c7f57612c7f613cd5565b03610ba85760405162461bcd60e51b815260206004820152602260248201527f45434453413a20696e76616c6964207369676e6174757265202773272076616c604482015261756560f01b60648201526084016102e1565b60008581526009602090815260408083206001600160a01b0388168452600381019092529091205460ff1615612d5f5760405162461bcd60e51b815260206004820152602760248201527f476f7665726e6f72566f74696e6753696d706c653a20766f746520616c726561604482015266191e4818d85cdd60ca1b60648201526084016102e1565b6001600160a01b03851660009081526003820160205260409020805460ff1916600117905560ff8416612dab5782816000016000828254612da091906143a0565b9091555061213d9050565b60001960ff851601612dcb5782816001016000828254612da091906143a0565b60011960ff851601612deb5782816002016000828254612da091906143a0565b60405162461bcd60e51b815260206004820152603560248201527f476f7665726e6f72566f74696e6753696d706c653a20696e76616c69642076616044820152746c756520666f7220656e756d20566f74655479706560581b60648201526084016102e1565b60006001600160e01b038211156123755760405162461bcd60e51b815260206004820152602760248201527f53616665436173743a2076616c756520646f65736e27742066697420696e20326044820152663234206269747360c81b60648201526084016102e1565b600080612ec88585856133b8565b915091505b935093915050565b8154600160801b90819004600f0b6000818152600180860160205260409091209390935583546001600160801b03908116939091011602179055565b600c5460405163e38335e560e01b81526001600160a01b039091169063e38335e5903490612f4c9088908890889060009089906004016142e4565b6000604051808303818588803b158015612f6557600080fd5b505af1158015612f79573d6000803e3d6000fd5b50505050505050505050565b6000818152600360205260408120600281015460ff1615612fa95750600792915050565b6002810154610100900460ff1615612fc45750600292915050565b6000838152600360205260408120546001600160401b03169081900361302c5760405162461bcd60e51b815260206004820152601d60248201527f476f7665726e6f723a20756e6b6e6f776e2070726f706f73616c20696400000060448201526064016102e1565b60006130366117da565b65ffffffffffff16905080821061305257506000949350505050565b6000858152600360205260409020600101546001600160401b03168181106130805750600195945050505050565b61308986613557565b80156130a8575060008681526009602052604090208054600190910154115b156130b95750600495945050505050565b50600395945050505050565b6000806130d4868686866135a3565b6000818152600d6020526040902054909150156121af57600c546000828152600d60205260409081902054905163c4d252f560e01b81526001600160a01b039092169163c4d252f59161312d9160040190815260200190565b600060405180830381600087803b15801561314757600080fd5b505af115801561315b573d6000803e3d6000fd5b5050506000828152600d60205260408120555095945050505050565b60008160000361318957506000919050565b60006001613196846136af565b901c6001901b905060018184816131af576131af6145eb565b048201901c905060018184816131c7576131c76145eb565b048201901c905060018184816131df576131df6145eb565b048201901c905060018184816131f7576131f76145eb565b048201901c9050600181848161320f5761320f6145eb565b048201901c90506001818481613227576132276145eb565b048201901c9050600181848161323f5761323f6145eb565b048201901c905061187381828581613259576132596145eb565b04613743565b60005b818310156132b55760006132768484613759565b60008781526020902090915063ffffffff86169082015463ffffffff1611156132a1578092506132af565b6132ac8160016143a0565b93505b50613262565b509392505050565b60008060f883901c602f811180156132d85750603a8160ff16105b156132ed57600194602f199091019350915050565b8060ff166040108015613303575060478160ff16105b15613318576001946036199091019350915050565b8060ff16606010801561332e575060678160ff16105b15613343576001946056199091019350915050565b50600093849350915050565b6060600061335c83613774565b604080516020808252818301909252919250600091906020820181803683375050509182525060208101929092525090565b81511561339e5781518083602001fd5b8060405162461bcd60e51b81526004016102e191906139f9565b8254600090819080156134fe5760006133d6876123fb600185614420565b60408051808201909152905463ffffffff808216808452600160201b9092046001600160e01b0316602084015291925090871610156134575760405162461bcd60e51b815260206004820152601b60248201527f436865636b706f696e743a2064656372656173696e67206b657973000000000060448201526064016102e1565b805163ffffffff80881691160361349f5784613478886123fb600186614420565b80546001600160e01b0392909216600160201b0263ffffffff9092169190911790556134ee565b6040805180820190915263ffffffff80881682526001600160e01b0380881660208085019182528b54600181018d5560008d81529190912094519151909216600160201b029216919091179101555b602001519250839150612ecd9050565b50506040805180820190915263ffffffff80851682526001600160e01b0380851660208085019182528854600181018a5560008a815291822095519251909316600160201b029190931617920191909155905081612ecd565b60008181526009602052604081206002810154600182015461357991906143a0565b60008481526003602052604090205461359a906001600160401b0316611c48565b11159392505050565b6000806135b286868686611adf565b905060006135bf82610fa6565b905060028160078111156135d5576135d5613cd5565b141580156135f5575060068160078111156135f2576135f2613cd5565b14155b80156136135750600781600781111561361057613610613cd5565b14155b61365f5760405162461bcd60e51b815260206004820152601d60248201527f476f7665726e6f723a2070726f706f73616c206e6f742061637469766500000060448201526064016102e1565b60008281526003602052604090819020600201805461ff001916610100179055517f789cf55be980739dad1d0699b93b58e806b51c9d96619bfa8fe0a28abaa7b30c90610e2c9084815260200190565b600080608083901c156136c457608092831c92015b604083901c156136d657604092831c92015b602083901c156136e857602092831c92015b601083901c156136fa57601092831c92015b600883901c1561370c57600892831c92015b600483901c1561371e57600492831c92015b600283901c1561373057600292831c92015b600183901c15610a235760010192915050565b60008183106137525781611873565b5090919050565b60006137686002848418614601565b611873908484166143a0565b600060ff8216601f811115610a2357604051632cd44ac360e21b815260040160405180910390fd5b6000602082840312156137ae57600080fd5b81356001600160e01b03198116811461187357600080fd5b803560ff8116811461117f57600080fd5b60008083601f8401126137e957600080fd5b5081356001600160401b0381111561380057600080fd5b60208301915083602082850101111561381857600080fd5b9250929050565b634e487b7160e01b600052604160045260246000fd5b604051601f8201601f191681016001600160401b038111828210171561385d5761385d61381f565b604052919050565b60006001600160401b0382111561387e5761387e61381f565b50601f01601f191660200190565b600061389f61389a84613865565b613835565b90508281528383830111156138b357600080fd5b828260208301376000602084830101529392505050565b600082601f8301126138db57600080fd5b6118738383356020850161388c565b60008060008060008060008060e0898b03121561390657600080fd5b8835975061391660208a016137c6565b965060408901356001600160401b038082111561393257600080fd5b61393e8c838d016137d7565b909850965060608b013591508082111561395757600080fd5b506139648b828c016138ca565b94505061397360808a016137c6565b925060a0890135915060c089013590509295985092959890939650565b6000602082840312156139a257600080fd5b5035919050565b60005b838110156139c45781810151838201526020016139ac565b50506000910152565b600081518084526139e58160208601602086016139a9565b601f01601f19169290920160200192915050565b60208152600061187360208301846139cd565b6001600160a01b0381168114610ba857600080fd5b60008060008060808587031215613a3757600080fd5b8435613a4281613a0c565b93506020850135613a5281613a0c565b92506040850135915060608501356001600160401b03811115613a7457600080fd5b613a80878288016138ca565b91505092959194509250565b60006001600160401b03821115613aa557613aa561381f565b5060051b60200190565b600082601f830112613ac057600080fd5b81356020613ad061389a83613a8c565b82815260059290921b84018101918181019086841115613aef57600080fd5b8286015b84811015613b13578035613b0681613a0c565b8352918301918301613af3565b509695505050505050565b600082601f830112613b2f57600080fd5b81356020613b3f61389a83613a8c565b82815260059290921b84018101918181019086841115613b5e57600080fd5b8286015b84811015613b135780358352918301918301613b62565b600082601f830112613b8a57600080fd5b81356020613b9a61389a83613a8c565b82815260059290921b84018101918181019086841115613bb957600080fd5b8286015b84811015613b135780356001600160401b03811115613bdc5760008081fd5b613bea8986838b01016138ca565b845250918301918301613bbd565b60008060008060808587031215613c0e57600080fd5b84356001600160401b0380821115613c2557600080fd5b613c3188838901613aaf565b95506020870135915080821115613c4757600080fd5b613c5388838901613b1e565b94506040870135915080821115613c6957600080fd5b50613c7687828801613b79565b949793965093946060013593505050565b600080600080600060a08688031215613c9f57600080fd5b85359450613caf602087016137c6565b9350613cbd604087016137c6565b94979396509394606081013594506080013592915050565b634e487b7160e01b600052602160045260246000fd5b6020810160088310613d0d57634e487b7160e01b600052602160045260246000fd5b91905290565b60008060408385031215613d2657600080fd5b823591506020830135613d3881613a0c565b809150509250929050565b60008060408385031215613d5657600080fd5b82359150613d66602084016137c6565b90509250929050565b600080600080600060808688031215613d8757600080fd5b85359450613d97602087016137c6565b935060408601356001600160401b0380821115613db357600080fd5b613dbf89838a016137d7565b90955093506060880135915080821115613dd857600080fd5b50613de5888289016138ca565b9150509295509295909350565b60008060008060608587031215613e0857600080fd5b84359350613e18602086016137c6565b925060408501356001600160401b03811115613e3357600080fd5b613e3f878288016137d7565b95989497509550505050565b60008060008060808587031215613e6157600080fd5b84356001600160401b0380821115613e7857600080fd5b613e8488838901613aaf565b95506020870135915080821115613e9a57600080fd5b613ea688838901613b1e565b94506040870135915080821115613ebc57600080fd5b613ec888838901613b79565b93506060870135915080821115613ede57600080fd5b508501601f81018713613ef057600080fd5b613a808782356020840161388c565b600081518084526020808501945080840160005b83811015613f2f57815187529582019590820190600101613f13565b509495945050505050565b60ff60f81b8816815260e060208201526000613f5960e08301896139cd565b8281036040840152613f6b81896139cd565b606084018890526001600160a01b038716608085015260a0840186905283810360c08501529050610b138185613eff565b600080600060608486031215613fb157600080fd5b8335613fbc81613a0c565b92506020840135915060408401356001600160401b03811115613fde57600080fd5b613fea868287016138ca565b9150509250925092565b60006020828403121561400657600080fd5b813561187381613a0c565b600080600080600060a0868803121561402957600080fd5b853561403481613a0c565b9450602086013561404481613a0c565b935060408601356001600160401b038082111561406057600080fd5b61406c89838a01613b1e565b9450606088013591508082111561408257600080fd5b61408e89838a01613b1e565b93506080880135915080821115613dd857600080fd5b600080600080606085870312156140ba57600080fd5b84356140c581613a0c565b93506020850135925060408501356001600160401b03811115613e3357600080fd5b600080604083850312156140fa57600080fd5b823561410581613a0c565b946020939093013593505050565b600080600080600060a0868803121561412b57600080fd5b853561413681613a0c565b9450602086013561414681613a0c565b9350604086013592506060860135915060808601356001600160401b0381111561416f57600080fd5b613de5888289016138ca565b8183823760009101908152919050565b60208082526018908201527f476f7665726e6f723a206f6e6c79476f7665726e616e63650000000000000000604082015260600190565b600181811c908216806141d657607f821691505b6020821081036141f657634e487b7160e01b600052602260045260246000fd5b50919050565b60208082526021908201527f476f7665726e6f723a2070726f706f73616c206e6f74207375636365737366756040820152601b60fa1b606082015260800190565b60006020828403121561424f57600080fd5b5051919050565b600081518084526020808501945080840160005b83811015613f2f5781516001600160a01b03168752958201959082019060010161426a565b600081518084526020808501808196508360051b8101915082860160005b858110156142d75782840389526142c58483516139cd565b988501989350908401906001016142ad565b5091979650505050505050565b60a0815260006142f760a0830188614256565b82810360208401526143098188613eff565b9050828103604084015261431d818761428f565b60608401959095525050608001529392505050565b60c08152600061434560c0830189614256565b82810360208401526143578189613eff565b9050828103604084015261436b818861428f565b60608401969096525050608081019290925260a0909101529392505050565b634e487b7160e01b600052601160045260246000fd5b80820180821115610a2357610a2361438a565b6000602082840312156143c557600080fd5b81516001600160401b038111156143db57600080fd5b8201601f810184136143ec57600080fd5b80516143fa61389a82613865565b81815285602083850101111561440f57600080fd5b6121af8260208301602086016139a9565b81810381811115610a2357610a2361438a565b634e487b7160e01b600052603260045260246000fd5b60208082526021908201527f476f7665726e6f723a20696e76616c69642070726f706f73616c206c656e67746040820152600d60fb1b606082015260800190565b60006101208b8352602060018060a01b038c16818501528160408501526144b38285018c614256565b915083820360608501526144c7828b613eff565b915083820360808501528189518084528284019150828160051b850101838c0160005b8381101561451857601f198784030185526145068383516139cd565b948601949250908501906001016144ea565b505086810360a088015261452c818c61428f565b9450505050508560c08401528460e084015282810361010084015261455181856139cd565b9c9b505050505050505050505050565b60006020828403121561457357600080fd5b815165ffffffffffff8116811461187357600080fd5b60808152600061459c6080830187614256565b82810360208401526145ae8187613eff565b905082810360408401526145c2818661428f565b91505082606083015295945050505050565b8082028115828204841417610a2357610a2361438a565b634e487b7160e01b600052601260045260246000fd5b60008261461e57634e487b7160e01b600052601260045260246000fd5b500490565b84815260ff841660208201528260408201526080606082015260006110b860808301846139cd565b85815260ff8516602082015283604082015260a06060820152600061467360a08301856139cd565b828103608084015261468581856139cd565b98975050505050505050565b6000600182016146a3576146a361438a565b5060010190565b6000602082840312156146bc57600080fd5b8151801515811461187357600080fdfe476f7665726e6f723a2072656c617920726576657274656420776974686f7574206d657373616765a264697066735822122085985a6b5727f9324bf7130fea0d8c0862f4abaebd793322203aa35eb7d5dea064736f6c63430008130033",
  "devdoc": {
    "errors": {
      "Empty()": [
        {
          "details": "An operation (e.g. {front}) couldn't be completed due to the queue being empty."
        }
      ]
    },
    "events": {
      "EIP712DomainChanged()": {
        "details": "MAY be emitted to signal that the domain could have changed."
      },
      "ProposalCanceled(uint256)": {
        "details": "Emitted when a proposal is canceled."
      },
      "ProposalCreated(uint256,address,address[],uint256[],string[],bytes[],uint256,uint256,string)": {
        "details": "Emitted when a proposal is created."
      },
      "ProposalExecuted(uint256)": {
        "details": "Emitted when a proposal is executed."
      },
      "TimelockChange(address,address)": {
        "details": "Emitted when the timelock controller used for proposal execution is modified."
      },
      "VoteCast(address,uint256,uint8,uint256,string)": {
        "details": "Emitted when a vote is cast without params. Note: `support` values should be seen as buckets. Their interpretation depends on the voting module used."
      },
      "VoteCastWithParams(address,uint256,uint8,uint256,string,bytes)": {
        "details": "Emitted when a vote is cast with params. Note: `support` values should be seen as buckets. Their interpretation depends on the voting module used. `params` are additional encoded parameters. Their interpepretation also depends on the voting module used."
      }
    },
    "kind": "dev",
    "methods": {
      "CLOCK_MODE()": {
        "details": "Machine-readable description of the clock as specified in EIP-6372."
      },
      "COUNTING_MODE()": {
        "details": "See {IGovernor-COUNTING_MODE}."
      },
      "cancel(address[],uint256[],bytes[],bytes32)": {
        "details": "See {IGovernor-cancel}."
      },
      "castVote(uint256,uint8)": {
        "details": "See {IGovernor-castVote}."
      },
      "castVoteBySig(uint256,uint8,uint8,bytes32,bytes32)": {
        "details": "See {IGovernor-castVoteBySig}."
      },
      "castVoteWithReason(uint256,uint8,string)": {
        "details": "See {IGovernor-castVoteWithReason}."
      },
      "castVoteWithReasonAndParams(uint256,uint8,string,bytes)": {
        "details": "See {IGovernor-castVoteWithReasonAndParams}."
      },
      "castVoteWithReasonAndParamsBySig(uint256,uint8,string,bytes,uint8,bytes32,bytes32)": {
        "details": "See {IGovernor-castVoteWithReasonAndParamsBySig}."
      },
      "clock()": {
        "details": "Clock (as specified in EIP-6372) is set to match the token's clock. Fallback to block numbers if the token does not implement EIP-6372."
      },
      "constructor": {
        "params": {
          "initialProposalThreshold_": "The number of votes required in order for a voter to become a proposer.",
          "initialQuorumNumerator_": "The fraction of the total supply that is required for a proposal to pass.",
          "initialVotingDelay_": "The delay between the execution of a proposal and the start of voting (seconds).",
          "initialVotingPeriod_": "The duration of the voting period for a proposal (seconds).",
          "timelock_": "The address of the TimelockController contract used for timelock control.",
          "token_": "The address of the token contract used for voting."
        }
      },
      "eip712Domain()": {
        "details": "See {EIP-5267}. _Available since v4.9._"
      },
      "execute(address[],uint256[],bytes[],bytes32)": {
        "details": "See {IGovernor-execute}."
      },
      "getVotes(address,uint256)": {
        "details": "See {IGovernor-getVotes}."
      },
      "getVotesWithParams(address,uint256,bytes)": {
        "details": "See {IGovernor-getVotesWithParams}."
      },
      "hasVoted(uint256,address)": {
        "details": "See {IGovernor-hasVoted}."
      },
      "hashProposal(address[],uint256[],bytes[],bytes32)": {
        "details": "See {IGovernor-hashProposal}. The proposal id is produced by hashing the ABI encoded `targets` array, the `values` array, the `calldatas` array and the descriptionHash (bytes32 which itself is the keccak256 hash of the description string). This proposal id can be produced from the proposal data which is part of the {ProposalCreated} event. It can even be computed in advance, before the proposal is submitted. Note that the chainId and the governor address are not part of the proposal id computation. Consequently, the same proposal (with same operation and same description) will have the same id if submitted on multiple governors across multiple networks. This also means that in order to execute the same operation twice (on the same governor) the proposer will have to change the description in order to avoid proposal id conflicts."
      },
      "name()": {
        "details": "See {IGovernor-name}."
      },
      "onERC1155BatchReceived(address,address,uint256[],uint256[],bytes)": {
        "details": "See {IERC1155Receiver-onERC1155BatchReceived}."
      },
      "onERC1155Received(address,address,uint256,uint256,bytes)": {
        "details": "See {IERC1155Receiver-onERC1155Received}."
      },
      "onERC721Received(address,address,uint256,bytes)": {
        "details": "See {IERC721Receiver-onERC721Received}."
      },
      "proposalDeadline(uint256)": {
        "details": "See {IGovernor-proposalDeadline}."
      },
      "proposalEta(uint256)": {
        "details": "Public accessor to check the eta of a queued proposal"
      },
      "proposalProposer(uint256)": {
        "details": "Returns the account that created a given proposal."
      },
      "proposalSnapshot(uint256)": {
        "details": "See {IGovernor-proposalSnapshot}."
      },
      "proposalThreshold()": {
        "details": "See {Governor-proposalThreshold}."
      },
      "proposalVotes(uint256)": {
        "details": "Accessor to the internal vote counts."
      },
      "propose(address[],uint256[],bytes[],string)": {
        "details": "See {IGovernor-propose}. This function has opt-in frontrunning protection, described in {_isValidDescriptionForProposer}."
      },
      "queue(address[],uint256[],bytes[],bytes32)": {
        "details": "Function to queue a proposal to the timelock."
      },
      "quorum(uint256)": {
        "details": "Returns the quorum for a timepoint, in terms of number of votes: `supply * numerator / denominator`."
      },
      "quorumDenominator()": {
        "details": "Returns the quorum denominator. Defaults to 100, but may be overridden."
      },
      "quorumNumerator()": {
        "details": "Returns the current quorum numerator. See {quorumDenominator}."
      },
      "quorumNumerator(uint256)": {
        "details": "Returns the quorum numerator at a specific timepoint. See {quorumDenominator}."
      },
      "relay(address,uint256,bytes)": {
        "details": "Relays a transaction or function call to an arbitrary target. In cases where the governance executor is some contract other than the governor itself, like when using a timelock, this function can be invoked in a governance proposal to recover tokens or Ether that was sent to the governor contract by mistake. Note that if the executor is simply the governor itself, use of `relay` is redundant."
      },
      "setProposalThreshold(uint256)": {
        "details": "Update the proposal threshold. This operation can only be performed through a governance proposal. Emits a {ProposalThresholdSet} event."
      },
      "setVotingDelay(uint256)": {
        "details": "Update the voting delay. This operation can only be performed through a governance proposal. Emits a {VotingDelaySet} event."
      },
      "setVotingPeriod(uint256)": {
        "details": "Update the voting period. This operation can only be performed through a governance proposal. Emits a {VotingPeriodSet} event."
      },
      "state(uint256)": {
        "details": "Overridden version of the {Governor-state} function with added support for the `Queued` state."
      },
      "supportsInterface(bytes4)": {
        "details": "See {IERC165-supportsInterface}."
      },
      "timelock()": {
        "details": "Public accessor to check the address of the timelock"
      },
      "updateQuorumNumerator(uint256)": {
        "details": "Changes the quorum numerator. Emits a {QuorumNumeratorUpdated} event. Requirements: - Must be called through a governance proposal. - New numerator must be smaller or equal to the denominator."
      },
      "updateTimelock(address)": {
        "details": "Public endpoint to update the underlying timelock instance. Restricted to the timelock itself, so updates must be proposed, scheduled, and executed through governance proposals. CAUTION: It is not recommended to change the timelock while there are other queued governance proposals."
      },
      "version()": {
        "details": "See {IGovernor-version}."
      },
      "votingDelay()": {
        "details": "See {IGovernor-votingDelay}."
      },
      "votingPeriod()": {
        "details": "See {IGovernor-votingPeriod}."
      }
    },
    "version": 1
  },
  "userdoc": {
    "kind": "user",
    "methods": {
      "constructor": {
        "notice": "Settings are updatable - See {GovernorSettings}. Sets the name of the governor instance. See {IGovernor-name}. Sets the token address used for voting. Sets the address of the timelock contract. Sets the initial values for the voting delay, voting period, proposal threshold, and quorum."
      }
    },
    "version": 1
  },
  "storageLayout": {
    "storage": [
      {
        "astId": 7433,
        "contract": "src/contracts/imx/NiftyGovernor.sol:NiftyGovernor",
        "label": "_nameFallback",
        "offset": 0,
        "slot": "0",
        "type": "t_string_storage"
      },
      {
        "astId": 7435,
        "contract": "src/contracts/imx/NiftyGovernor.sol:NiftyGovernor",
        "label": "_versionFallback",
        "offset": 0,
        "slot": "1",
        "type": "t_string_storage"
      },
      {
        "astId": 444,
        "contract": "src/contracts/imx/NiftyGovernor.sol:NiftyGovernor",
        "label": "_name",
        "offset": 0,
        "slot": "2",
        "type": "t_string_storage"
      },
      {
        "astId": 450,
        "contract": "src/contracts/imx/NiftyGovernor.sol:NiftyGovernor",
        "label": "_proposals",
        "offset": 0,
        "slot": "3",
        "type": "t_mapping(t_uint256,t_struct(ProposalCore)442_storage)"
      },
      {
        "astId": 453,
        "contract": "src/contracts/imx/NiftyGovernor.sol:NiftyGovernor",
        "label": "_governanceCall",
        "offset": 0,
        "slot": "4",
        "type": "t_struct(Bytes32Deque)10171_storage"
      },
      {
        "astId": 3489,
        "contract": "src/contracts/imx/NiftyGovernor.sol:NiftyGovernor",
        "label": "_votingDelay",
        "offset": 0,
        "slot": "6",
        "type": "t_uint256"
      },
      {
        "astId": 3491,
        "contract": "src/contracts/imx/NiftyGovernor.sol:NiftyGovernor",
        "label": "_votingPeriod",
        "offset": 0,
        "slot": "7",
        "type": "t_uint256"
      },
      {
        "astId": 3493,
        "contract": "src/contracts/imx/NiftyGovernor.sol:NiftyGovernor",
        "label": "_proposalThreshold",
        "offset": 0,
        "slot": "8",
        "type": "t_uint256"
      },
      {
        "astId": 3281,
        "contract": "src/contracts/imx/NiftyGovernor.sol:NiftyGovernor",
        "label": "_proposalVotes",
        "offset": 0,
        "slot": "9",
        "type": "t_mapping(t_uint256,t_struct(ProposalVote)3276_storage)"
      },
      {
        "astId": 4147,
        "contract": "src/contracts/imx/NiftyGovernor.sol:NiftyGovernor",
        "label": "_quorumNumerator",
        "offset": 0,
        "slot": "10",
        "type": "t_uint256"
      },
      {
        "astId": 4151,
        "contract": "src/contracts/imx/NiftyGovernor.sol:NiftyGovernor",
        "label": "_quorumNumeratorHistory",
        "offset": 0,
        "slot": "11",
        "type": "t_struct(Trace224)5449_storage"
      },
      {
        "astId": 3672,
        "contract": "src/contracts/imx/NiftyGovernor.sol:NiftyGovernor",
        "label": "_timelock",
        "offset": 0,
        "slot": "12",
        "type": "t_contract(TimelockController)3255"
      },
      {
        "astId": 3676,
        "contract": "src/contracts/imx/NiftyGovernor.sol:NiftyGovernor",
        "label": "_timelockIds",
        "offset": 0,
        "slot": "13",
        "type": "t_mapping(t_uint256,t_bytes32)"
      }
    ],
    "types": {
      "t_address": {
        "encoding": "inplace",
        "label": "address",
        "numberOfBytes": "20"
      },
      "t_array(t_struct(Checkpoint224)5454_storage)dyn_storage": {
        "base": "t_struct(Checkpoint224)5454_storage",
        "encoding": "dynamic_array",
        "label": "struct Checkpoints.Checkpoint224[]",
        "numberOfBytes": "32"
      },
      "t_bool": {
        "encoding": "inplace",
        "label": "bool",
        "numberOfBytes": "1"
      },
      "t_bytes24": {
        "encoding": "inplace",
        "label": "bytes24",
        "numberOfBytes": "24"
      },
      "t_bytes32": {
        "encoding": "inplace",
        "label": "bytes32",
        "numberOfBytes": "32"
      },
      "t_bytes4": {
        "encoding": "inplace",
        "label": "bytes4",
        "numberOfBytes": "4"
      },
      "t_contract(TimelockController)3255": {
        "encoding": "inplace",
        "label": "contract TimelockController",
        "numberOfBytes": "20"
      },
      "t_int128": {
        "encoding": "inplace",
        "label": "int128",
        "numberOfBytes": "16"
      },
      "t_mapping(t_address,t_bool)": {
        "encoding": "mapping",
        "key": "t_address",
        "label": "mapping(address => bool)",
        "numberOfBytes": "32",
        "value": "t_bool"
      },
      "t_mapping(t_int128,t_bytes32)": {
        "encoding": "mapping",
        "key": "t_int128",
        "label": "mapping(int128 => bytes32)",
        "numberOfBytes": "32",
        "value": "t_bytes32"
      },
      "t_mapping(t_uint256,t_bytes32)": {
        "encoding": "mapping",
        "key": "t_uint256",
        "label": "mapping(uint256 => bytes32)",
        "numberOfBytes": "32",
        "value": "t_bytes32"
      },
      "t_mapping(t_uint256,t_struct(ProposalCore)442_storage)": {
        "encoding": "mapping",
        "key": "t_uint256",
        "label": "mapping(uint256 => struct Governor.ProposalCore)",
        "numberOfBytes": "32",
        "value": "t_struct(ProposalCore)442_storage"
      },
      "t_mapping(t_uint256,t_struct(ProposalVote)3276_storage)": {
        "encoding": "mapping",
        "key": "t_uint256",
        "label": "mapping(uint256 => struct GovernorCountingSimple.ProposalVote)",
        "numberOfBytes": "32",
        "value": "t_struct(ProposalVote)3276_storage"
      },
      "t_string_storage": {
        "encoding": "bytes",
        "label": "string",
        "numberOfBytes": "32"
      },
      "t_struct(Bytes32Deque)10171_storage": {
        "encoding": "inplace",
        "label": "struct DoubleEndedQueue.Bytes32Deque",
        "members": [
          {
            "astId": 10164,
            "contract": "src/contracts/imx/NiftyGovernor.sol:NiftyGovernor",
            "label": "_begin",
            "offset": 0,
            "slot": "0",
            "type": "t_int128"
          },
          {
            "astId": 10166,
            "contract": "src/contracts/imx/NiftyGovernor.sol:NiftyGovernor",
            "label": "_end",
            "offset": 16,
            "slot": "0",
            "type": "t_int128"
          },
          {
            "astId": 10170,
            "contract": "src/contracts/imx/NiftyGovernor.sol:NiftyGovernor",
            "label": "_data",
            "offset": 0,
            "slot": "1",
            "type": "t_mapping(t_int128,t_bytes32)"
          }
        ],
        "numberOfBytes": "64"
      },
      "t_struct(Checkpoint224)5454_storage": {
        "encoding": "inplace",
        "label": "struct Checkpoints.Checkpoint224",
        "members": [
          {
            "astId": 5451,
            "contract": "src/contracts/imx/NiftyGovernor.sol:NiftyGovernor",
            "label": "_key",
            "offset": 0,
            "slot": "0",
            "type": "t_uint32"
          },
          {
            "astId": 5453,
            "contract": "src/contracts/imx/NiftyGovernor.sol:NiftyGovernor",
            "label": "_value",
            "offset": 4,
            "slot": "0",
            "type": "t_uint224"
          }
        ],
        "numberOfBytes": "32"
      },
      "t_struct(ProposalCore)442_storage": {
        "encoding": "inplace",
        "label": "struct Governor.ProposalCore",
        "members": [
          {
            "astId": 429,
            "contract": "src/contracts/imx/NiftyGovernor.sol:NiftyGovernor",
            "label": "voteStart",
            "offset": 0,
            "slot": "0",
            "type": "t_uint64"
          },
          {
            "astId": 431,
            "contract": "src/contracts/imx/NiftyGovernor.sol:NiftyGovernor",
            "label": "proposer",
            "offset": 8,
            "slot": "0",
            "type": "t_address"
          },
          {
            "astId": 433,
            "contract": "src/contracts/imx/NiftyGovernor.sol:NiftyGovernor",
            "label": "__gap_unused0",
            "offset": 28,
            "slot": "0",
            "type": "t_bytes4"
          },
          {
            "astId": 435,
            "contract": "src/contracts/imx/NiftyGovernor.sol:NiftyGovernor",
            "label": "voteEnd",
            "offset": 0,
            "slot": "1",
            "type": "t_uint64"
          },
          {
            "astId": 437,
            "contract": "src/contracts/imx/NiftyGovernor.sol:NiftyGovernor",
            "label": "__gap_unused1",
            "offset": 8,
            "slot": "1",
            "type": "t_bytes24"
          },
          {
            "astId": 439,
            "contract": "src/contracts/imx/NiftyGovernor.sol:NiftyGovernor",
            "label": "executed",
            "offset": 0,
            "slot": "2",
            "type": "t_bool"
          },
          {
            "astId": 441,
            "contract": "src/contracts/imx/NiftyGovernor.sol:NiftyGovernor",
            "label": "canceled",
            "offset": 1,
            "slot": "2",
            "type": "t_bool"
          }
        ],
        "numberOfBytes": "96"
      },
      "t_struct(ProposalVote)3276_storage": {
        "encoding": "inplace",
        "label": "struct GovernorCountingSimple.ProposalVote",
        "members": [
          {
            "astId": 3267,
            "contract": "src/contracts/imx/NiftyGovernor.sol:NiftyGovernor",
            "label": "againstVotes",
            "offset": 0,
            "slot": "0",
            "type": "t_uint256"
          },
          {
            "astId": 3269,
            "contract": "src/contracts/imx/NiftyGovernor.sol:NiftyGovernor",
            "label": "forVotes",
            "offset": 0,
            "slot": "1",
            "type": "t_uint256"
          },
          {
            "astId": 3271,
            "contract": "src/contracts/imx/NiftyGovernor.sol:NiftyGovernor",
            "label": "abstainVotes",
            "offset": 0,
            "slot": "2",
            "type": "t_uint256"
          },
          {
            "astId": 3275,
            "contract": "src/contracts/imx/NiftyGovernor.sol:NiftyGovernor",
            "label": "hasVoted",
            "offset": 0,
            "slot": "3",
            "type": "t_mapping(t_address,t_bool)"
          }
        ],
        "numberOfBytes": "128"
      },
      "t_struct(Trace224)5449_storage": {
        "encoding": "inplace",
        "label": "struct Checkpoints.Trace224",
        "members": [
          {
            "astId": 5448,
            "contract": "src/contracts/imx/NiftyGovernor.sol:NiftyGovernor",
            "label": "_checkpoints",
            "offset": 0,
            "slot": "0",
            "type": "t_array(t_struct(Checkpoint224)5454_storage)dyn_storage"
          }
        ],
        "numberOfBytes": "32"
      },
      "t_uint224": {
        "encoding": "inplace",
        "label": "uint224",
        "numberOfBytes": "28"
      },
      "t_uint256": {
        "encoding": "inplace",
        "label": "uint256",
        "numberOfBytes": "32"
      },
      "t_uint32": {
        "encoding": "inplace",
        "label": "uint32",
        "numberOfBytes": "4"
      },
      "t_uint64": {
        "encoding": "inplace",
        "label": "uint64",
        "numberOfBytes": "8"
      }
    }
  }
}