{
  "address": "0x0d312E74ba71bff163A07DdD2b6847CefF49dD1e",
  "abi": [
    {
      "inputs": [
        {
          "internalType": "uint256",
          "name": "emissionStartTimestamp",
          "type": "uint256"
        }
      ],
      "stateMutability": "nonpayable",
      "type": "constructor"
    },
    {
      "anonymous": false,
      "inputs": [
        {
          "indexed": true,
          "internalType": "address",
          "name": "owner",
          "type": "address"
        },
        {
          "indexed": true,
          "internalType": "address",
          "name": "spender",
          "type": "address"
        },
        {
          "indexed": false,
          "internalType": "uint256",
          "name": "value",
          "type": "uint256"
        }
      ],
      "name": "Approval",
      "type": "event"
    },
    {
      "anonymous": false,
      "inputs": [
        {
          "indexed": false,
          "internalType": "address",
          "name": "account",
          "type": "address"
        }
      ],
      "name": "Paused",
      "type": "event"
    },
    {
      "anonymous": false,
      "inputs": [
        {
          "indexed": true,
          "internalType": "bytes32",
          "name": "role",
          "type": "bytes32"
        },
        {
          "indexed": true,
          "internalType": "bytes32",
          "name": "previousAdminRole",
          "type": "bytes32"
        },
        {
          "indexed": true,
          "internalType": "bytes32",
          "name": "newAdminRole",
          "type": "bytes32"
        }
      ],
      "name": "RoleAdminChanged",
      "type": "event"
    },
    {
      "anonymous": false,
      "inputs": [
        {
          "indexed": true,
          "internalType": "bytes32",
          "name": "role",
          "type": "bytes32"
        },
        {
          "indexed": true,
          "internalType": "address",
          "name": "account",
          "type": "address"
        },
        {
          "indexed": true,
          "internalType": "address",
          "name": "sender",
          "type": "address"
        }
      ],
      "name": "RoleGranted",
      "type": "event"
    },
    {
      "anonymous": false,
      "inputs": [
        {
          "indexed": true,
          "internalType": "bytes32",
          "name": "role",
          "type": "bytes32"
        },
        {
          "indexed": true,
          "internalType": "address",
          "name": "account",
          "type": "address"
        },
        {
          "indexed": true,
          "internalType": "address",
          "name": "sender",
          "type": "address"
        }
      ],
      "name": "RoleRevoked",
      "type": "event"
    },
    {
      "anonymous": false,
      "inputs": [
        {
          "indexed": true,
          "internalType": "address",
          "name": "from",
          "type": "address"
        },
        {
          "indexed": true,
          "internalType": "address",
          "name": "to",
          "type": "address"
        },
        {
          "indexed": false,
          "internalType": "uint256",
          "name": "value",
          "type": "uint256"
        }
      ],
      "name": "Transfer",
      "type": "event"
    },
    {
      "anonymous": false,
      "inputs": [
        {
          "indexed": false,
          "internalType": "address",
          "name": "account",
          "type": "address"
        }
      ],
      "name": "Unpaused",
      "type": "event"
    },
    {
      "inputs": [],
      "name": "DEFAULT_ADMIN_ROLE",
      "outputs": [
        {
          "internalType": "bytes32",
          "name": "",
          "type": "bytes32"
        }
      ],
      "stateMutability": "view",
      "type": "function"
    },
    {
      "inputs": [],
      "name": "EMISSION_PER_DAY",
      "outputs": [
        {
          "internalType": "uint256",
          "name": "",
          "type": "uint256"
        }
      ],
      "stateMutability": "view",
      "type": "function"
    },
    {
      "inputs": [],
      "name": "MINTER_ROLE",
      "outputs": [
        {
          "internalType": "bytes32",
          "name": "",
          "type": "bytes32"
        }
      ],
      "stateMutability": "view",
      "type": "function"
    },
    {
      "inputs": [],
      "name": "PAUSER_ROLE",
      "outputs": [
        {
          "internalType": "bytes32",
          "name": "",
          "type": "bytes32"
        }
      ],
      "stateMutability": "view",
      "type": "function"
    },
    {
      "inputs": [
        {
          "internalType": "uint256",
          "name": "tokenIndex",
          "type": "uint256"
        }
      ],
      "name": "accumulated",
      "outputs": [
        {
          "internalType": "uint256",
          "name": "",
          "type": "uint256"
        }
      ],
      "stateMutability": "view",
      "type": "function"
    },
    {
      "inputs": [
        {
          "internalType": "uint256[]",
          "name": "tokenIndices",
          "type": "uint256[]"
        }
      ],
      "name": "accumulatedMultiCheck",
      "outputs": [
        {
          "internalType": "uint256",
          "name": "",
          "type": "uint256"
        }
      ],
      "stateMutability": "view",
      "type": "function"
    },
    {
      "inputs": [
        {
          "internalType": "address",
          "name": "owner",
          "type": "address"
        },
        {
          "internalType": "address",
          "name": "spender",
          "type": "address"
        }
      ],
      "name": "allowance",
      "outputs": [
        {
          "internalType": "uint256",
          "name": "",
          "type": "uint256"
        }
      ],
      "stateMutability": "view",
      "type": "function"
    },
    {
      "inputs": [
        {
          "internalType": "address",
          "name": "spender",
          "type": "address"
        },
        {
          "internalType": "uint256",
          "name": "amount",
          "type": "uint256"
        }
      ],
      "name": "approve",
      "outputs": [
        {
          "internalType": "bool",
          "name": "",
          "type": "bool"
        }
      ],
      "stateMutability": "nonpayable",
      "type": "function"
    },
    {
      "inputs": [
        {
          "internalType": "address",
          "name": "account",
          "type": "address"
        }
      ],
      "name": "balanceOf",
      "outputs": [
        {
          "internalType": "uint256",
          "name": "",
          "type": "uint256"
        }
      ],
      "stateMutability": "view",
      "type": "function"
    },
    {
      "inputs": [
        {
          "internalType": "uint256",
          "name": "amount",
          "type": "uint256"
        }
      ],
      "name": "burn",
      "outputs": [],
      "stateMutability": "nonpayable",
      "type": "function"
    },
    {
      "inputs": [
        {
          "internalType": "address",
          "name": "account",
          "type": "address"
        },
        {
          "internalType": "uint256",
          "name": "amount",
          "type": "uint256"
        }
      ],
      "name": "burnFrom",
      "outputs": [],
      "stateMutability": "nonpayable",
      "type": "function"
    },
    {
      "inputs": [
        {
          "internalType": "uint256[]",
          "name": "tokenIndices",
          "type": "uint256[]"
        }
      ],
      "name": "claim",
      "outputs": [
        {
          "internalType": "uint256",
          "name": "",
          "type": "uint256"
        }
      ],
      "stateMutability": "nonpayable",
      "type": "function"
    },
    {
      "inputs": [],
      "name": "decimals",
      "outputs": [
        {
          "internalType": "uint8",
          "name": "",
          "type": "uint8"
        }
      ],
      "stateMutability": "view",
      "type": "function"
    },
    {
      "inputs": [
        {
          "internalType": "address",
          "name": "spender",
          "type": "address"
        },
        {
          "internalType": "uint256",
          "name": "subtractedValue",
          "type": "uint256"
        }
      ],
      "name": "decreaseAllowance",
      "outputs": [
        {
          "internalType": "bool",
          "name": "",
          "type": "bool"
        }
      ],
      "stateMutability": "nonpayable",
      "type": "function"
    },
    {
      "inputs": [],
      "name": "emissionEnd",
      "outputs": [
        {
          "internalType": "uint256",
          "name": "",
          "type": "uint256"
        }
      ],
      "stateMutability": "view",
      "type": "function"
    },
    {
      "inputs": [],
      "name": "emissionStart",
      "outputs": [
        {
          "internalType": "uint256",
          "name": "",
          "type": "uint256"
        }
      ],
      "stateMutability": "view",
      "type": "function"
    },
    {
      "inputs": [
        {
          "internalType": "uint256",
          "name": "tokenIndex",
          "type": "uint256"
        }
      ],
      "name": "getLastClaim",
      "outputs": [
        {
          "internalType": "uint256",
          "name": "",
          "type": "uint256"
        }
      ],
      "stateMutability": "view",
      "type": "function"
    },
    {
      "inputs": [
        {
          "internalType": "bytes32",
          "name": "role",
          "type": "bytes32"
        }
      ],
      "name": "getRoleAdmin",
      "outputs": [
        {
          "internalType": "bytes32",
          "name": "",
          "type": "bytes32"
        }
      ],
      "stateMutability": "view",
      "type": "function"
    },
    {
      "inputs": [
        {
          "internalType": "bytes32",
          "name": "role",
          "type": "bytes32"
        },
        {
          "internalType": "uint256",
          "name": "index",
          "type": "uint256"
        }
      ],
      "name": "getRoleMember",
      "outputs": [
        {
          "internalType": "address",
          "name": "",
          "type": "address"
        }
      ],
      "stateMutability": "view",
      "type": "function"
    },
    {
      "inputs": [
        {
          "internalType": "bytes32",
          "name": "role",
          "type": "bytes32"
        }
      ],
      "name": "getRoleMemberCount",
      "outputs": [
        {
          "internalType": "uint256",
          "name": "",
          "type": "uint256"
        }
      ],
      "stateMutability": "view",
      "type": "function"
    },
    {
      "inputs": [
        {
          "internalType": "bytes32",
          "name": "role",
          "type": "bytes32"
        },
        {
          "internalType": "address",
          "name": "account",
          "type": "address"
        }
      ],
      "name": "grantRole",
      "outputs": [],
      "stateMutability": "nonpayable",
      "type": "function"
    },
    {
      "inputs": [
        {
          "internalType": "bytes32",
          "name": "role",
          "type": "bytes32"
        },
        {
          "internalType": "address",
          "name": "account",
          "type": "address"
        }
      ],
      "name": "hasRole",
      "outputs": [
        {
          "internalType": "bool",
          "name": "",
          "type": "bool"
        }
      ],
      "stateMutability": "view",
      "type": "function"
    },
    {
      "inputs": [
        {
          "internalType": "address",
          "name": "spender",
          "type": "address"
        },
        {
          "internalType": "uint256",
          "name": "addedValue",
          "type": "uint256"
        }
      ],
      "name": "increaseAllowance",
      "outputs": [
        {
          "internalType": "bool",
          "name": "",
          "type": "bool"
        }
      ],
      "stateMutability": "nonpayable",
      "type": "function"
    },
    {
      "inputs": [
        {
          "internalType": "address",
          "name": "to",
          "type": "address"
        },
        {
          "internalType": "uint256",
          "name": "amount",
          "type": "uint256"
        }
      ],
      "name": "mint",
      "outputs": [],
      "stateMutability": "nonpayable",
      "type": "function"
    },
    {
      "inputs": [],
      "name": "name",
      "outputs": [
        {
          "internalType": "string",
          "name": "",
          "type": "string"
        }
      ],
      "stateMutability": "view",
      "type": "function"
    },
    {
      "inputs": [],
      "name": "pause",
      "outputs": [],
      "stateMutability": "nonpayable",
      "type": "function"
    },
    {
      "inputs": [],
      "name": "paused",
      "outputs": [
        {
          "internalType": "bool",
          "name": "",
          "type": "bool"
        }
      ],
      "stateMutability": "view",
      "type": "function"
    },
    {
      "inputs": [
        {
          "internalType": "bytes32",
          "name": "role",
          "type": "bytes32"
        },
        {
          "internalType": "address",
          "name": "account",
          "type": "address"
        }
      ],
      "name": "renounceRole",
      "outputs": [],
      "stateMutability": "nonpayable",
      "type": "function"
    },
    {
      "inputs": [
        {
          "internalType": "bytes32",
          "name": "role",
          "type": "bytes32"
        },
        {
          "internalType": "address",
          "name": "account",
          "type": "address"
        }
      ],
      "name": "revokeRole",
      "outputs": [],
      "stateMutability": "nonpayable",
      "type": "function"
    },
    {
      "inputs": [
        {
          "internalType": "address",
          "name": "nftAddress",
          "type": "address"
        }
      ],
      "name": "setNFTAddress",
      "outputs": [],
      "stateMutability": "nonpayable",
      "type": "function"
    },
    {
      "inputs": [
        {
          "internalType": "bytes4",
          "name": "interfaceId",
          "type": "bytes4"
        }
      ],
      "name": "supportsInterface",
      "outputs": [
        {
          "internalType": "bool",
          "name": "",
          "type": "bool"
        }
      ],
      "stateMutability": "view",
      "type": "function"
    },
    {
      "inputs": [],
      "name": "symbol",
      "outputs": [
        {
          "internalType": "string",
          "name": "",
          "type": "string"
        }
      ],
      "stateMutability": "view",
      "type": "function"
    },
    {
      "inputs": [],
      "name": "totalSupply",
      "outputs": [
        {
          "internalType": "uint256",
          "name": "",
          "type": "uint256"
        }
      ],
      "stateMutability": "view",
      "type": "function"
    },
    {
      "inputs": [
        {
          "internalType": "address",
          "name": "to",
          "type": "address"
        },
        {
          "internalType": "uint256",
          "name": "amount",
          "type": "uint256"
        }
      ],
      "name": "transfer",
      "outputs": [
        {
          "internalType": "bool",
          "name": "",
          "type": "bool"
        }
      ],
      "stateMutability": "nonpayable",
      "type": "function"
    },
    {
      "inputs": [
        {
          "internalType": "address",
          "name": "from",
          "type": "address"
        },
        {
          "internalType": "address",
          "name": "to",
          "type": "address"
        },
        {
          "internalType": "uint256",
          "name": "amount",
          "type": "uint256"
        }
      ],
      "name": "transferFrom",
      "outputs": [
        {
          "internalType": "bool",
          "name": "",
          "type": "bool"
        }
      ],
      "stateMutability": "nonpayable",
      "type": "function"
    },
    {
      "inputs": [],
      "name": "unpause",
      "outputs": [],
      "stateMutability": "nonpayable",
      "type": "function"
    }
  ],
  "transactionHash": "0x9ec4322e9e09de7e7055696c456b22e9bedba025f175d5d55861d052f7787c5c",
  "args": [
    1631685007
  ],
  "numDeployments": 1,
  "solcInputHash": "460b44b6c766dbc9e8edac432bb9f7aa",
  "bytecode": "0x60c06040523480156200001157600080fd5b50604051620027f8380380620027f883398101604081905262000034916200033c565b604080518082018252600c81526b4e69667479204c656167756560a01b6020808301918252835180850190945260048452631391951360e21b90840152815191929183918391620000889160059162000296565b5080516200009e90600690602084019062000296565b50506007805460ff1916905550620000b860003362000131565b620000e47f9f2df0fed2c77648de5860a4cc508cd0818c85b8b8a1ab4ceeef8d981c8956a63362000131565b620001107f65d7a28e3265b37a6474929f336521b332c1681b933f6cb9f3376673440d862a3362000131565b5050608081905262000127816305a39a8062000356565b60a05250620003ba565b6200013d828262000141565b5050565b6200015882826200018460201b620012ce1760201c565b60008281526001602090815260409091206200017f9183906200135262000224821b17901c565b505050565b6000828152602081815260408083206001600160a01b038516845290915290205460ff166200013d576000828152602081815260408083206001600160a01b03851684529091529020805460ff19166001179055620001e03390565b6001600160a01b0316816001600160a01b0316837f2f8788117e7eff1d82e926ec794901d17c78024a50270940304540a733656f0d60405160405180910390a45050565b60006200023b836001600160a01b03841662000244565b90505b92915050565b60008181526001830160205260408120546200028d575081546001818101845560008481526020808220909301849055845484825282860190935260409020919091556200023e565b5060006200023e565b828054620002a4906200037d565b90600052602060002090601f016020900481019282620002c8576000855562000313565b82601f10620002e357805160ff191683800117855562000313565b8280016001018555821562000313579182015b8281111562000313578251825591602001919060010190620002f6565b506200032192915062000325565b5090565b5b8082111562000321576000815560010162000326565b6000602082840312156200034f57600080fd5b5051919050565b600082198211156200037857634e487b7160e01b600052601160045260246000fd5b500190565b600181811c908216806200039257607f821691505b60208210811415620003b457634e487b7160e01b600052602260045260246000fd5b50919050565b60805160a0516123e062000418600039600081816103ed015281816110a9015281816110db01526111020152600081816103360152818161085601528181610a0201528181610f600152818161105d015261115c01526123e06000f3fe608060405234801561001057600080fd5b506004361061021c5760003560e01c80636ba4c13811610125578063a217fddf116100ad578063ca15c8731161007c578063ca15c873146104b1578063d5391393146104c4578063d547741f146104eb578063dd62ed3e146104fe578063e63ab1e91461051157600080fd5b8063a217fddf14610470578063a457c2d714610478578063a9059cbb1461048b578063c607cde71461049e57600080fd5b80638456cb59116100f45780638456cb591461040f5780639010d07c1461041757806391716d051461044257806391d148541461045557806395d89b411461046857600080fd5b80636ba4c1381461039957806370a08231146103ac57806379cc6790146103d55780638368909c146103e857600080fd5b806339509351116101a8578063513da94811610177578063513da9481461033157806358b07663146103585780635c975abb1461036b5780636397f7a21461037657806369d037381461038657600080fd5b806339509351146102f05780633f4ba83a1461030357806340c10f191461030b57806342966c681461031e57600080fd5b806323b872dd116101ef57806323b872dd14610283578063248a9ca3146102965780632f2ff15d146102b9578063313ce567146102ce57806336568abe146102dd57600080fd5b806301ffc9a71461022157806306fdde0314610249578063095ea7b31461025e57806318160ddd14610271575b600080fd5b61023461022f366004611edd565b610538565b60405190151581526020015b60405180910390f35b610251610563565b6040516102409190611f33565b61023461026c366004611f7b565b6105f5565b6004545b604051908152602001610240565b610234610291366004611fa7565b61060d565b6102756102a4366004611fe8565b60009081526020819052604090206001015490565b6102cc6102c7366004612001565b610631565b005b60405160128152602001610240565b6102cc6102eb366004612001565b61065b565b6102346102fe366004611f7b565b6106de565b6102cc610700565b6102cc610319366004611f7b565b6107a6565b6102cc61032c366004611fe8565b610845565b6102757f000000000000000000000000000000000000000000000000000000000000000081565b610275610366366004612047565b610852565b60075460ff16610234565b6102756803b6888d08618be00081565b6102cc610394366004612105565b610989565b6102756103a7366004612047565b6109fe565b6102756103ba366004612105565b6001600160a01b031660009081526002602052604090205490565b6102cc6103e3366004611f7b565b610d21565b6102757f000000000000000000000000000000000000000000000000000000000000000081565b6102cc610d36565b61042a610425366004612122565b610dda565b6040516001600160a01b039091168152602001610240565b610275610450366004611fe8565b610df9565b610234610463366004612001565b610f98565b610251610fc1565b610275600081565b610234610486366004611f7b565b610fd0565b610234610499366004611f7b565b61104b565b6102756104ac366004611fe8565b611059565b6102756104bf366004611fe8565b611267565b6102757f9f2df0fed2c77648de5860a4cc508cd0818c85b8b8a1ab4ceeef8d981c8956a681565b6102cc6104f9366004612001565b61127e565b61027561050c366004612144565b6112a3565b6102757f65d7a28e3265b37a6474929f336521b332c1681b933f6cb9f3376673440d862a81565b60006001600160e01b03198216635a05180f60e01b148061055d575061055d82611367565b92915050565b60606005805461057290612172565b80601f016020809104026020016040519081016040528092919081815260200182805461059e90612172565b80156105eb5780601f106105c0576101008083540402835291602001916105eb565b820191906000526020600020905b8154815290600101906020018083116105ce57829003601f168201915b5050505050905090565b60003361060381858561139c565b5060019392505050565b60003361061b8582856114c0565b61062685858561153a565b506001949350505050565b60008281526020819052604090206001015461064c816116f0565b61065683836116fa565b505050565b6001600160a01b03811633146106d05760405162461bcd60e51b815260206004820152602f60248201527f416363657373436f6e74726f6c3a2063616e206f6e6c792072656e6f756e636560448201526e103937b632b9903337b91039b2b63360891b60648201526084015b60405180910390fd5b6106da828261171c565b5050565b6000336106038185856106f183836112a3565b6106fb91906121c3565b61139c565b61072a7f65d7a28e3265b37a6474929f336521b332c1681b933f6cb9f3376673440d862a33610f98565b61079c5760405162461bcd60e51b815260206004820152603960248201527f45524332305072657365744d696e7465725061757365723a206d75737420686160448201527f76652070617573657220726f6c6520746f20756e70617573650000000000000060648201526084016106c7565b6107a461173e565b565b6107d07f9f2df0fed2c77648de5860a4cc508cd0818c85b8b8a1ab4ceeef8d981c8956a633610f98565b61083b5760405162461bcd60e51b815260206004820152603660248201527f45524332305072657365744d696e7465725061757365723a206d7573742068616044820152751d99481b5a5b9d195c881c9bdb19481d1bc81b5a5b9d60521b60648201526084016106c7565b6106da8282611790565b61084f338261185d565b50565b60007f000000000000000000000000000000000000000000000000000000000000000042116108935760405162461bcd60e51b81526004016106c7906121db565b6000805b83518110156109825760008482815181106108b4576108b4612212565b60200260200101519050600960009054906101000a90046001600160a01b03166001600160a01b03166318160ddd6040518163ffffffff1660e01b8152600401602060405180830381865afa158015610911573d6000803e3d6000fd5b505050506040513d601f19601f820116820180604052508101906109359190612228565b8111156109545760405162461bcd60e51b81526004016106c790612241565b600061095f82611059565b905061096b81856121c3565b93505050808061097a90612278565b915050610897565b5092915050565b6000610994816116f0565b6009546001600160a01b0316156109db5760405162461bcd60e51b815260206004820152600b60248201526a105b1c9958591e481cd95d60aa1b60448201526064016106c7565b50600980546001600160a01b0319166001600160a01b0392909216919091179055565b60007f00000000000000000000000000000000000000000000000000000000000000004211610a3f5760405162461bcd60e51b81526004016106c7906121db565b6000805b8351811015610cd357600960009054906101000a90046001600160a01b03166001600160a01b03166318160ddd6040518163ffffffff1660e01b8152600401602060405180830381865afa158015610a9f573d6000803e3d6000fd5b505050506040513d601f19601f82011682018060405250810190610ac39190612228565b848281518110610ad557610ad5612212565b60200260200101511115610afb5760405162461bcd60e51b81526004016106c790612241565b6000610b088260016121c3565b90505b8451811015610ba057848181518110610b2657610b26612212565b6020026020010151858381518110610b4057610b40612212565b60200260200101511415610b8e5760405162461bcd60e51b8152602060048201526015602482015274088eae0d8d2c6c2e8ca40e8ded6cadc40d2dcc8caf605b1b60448201526064016106c7565b80610b9881612278565b915050610b0b565b506000848281518110610bb557610bb5612212565b60200260200101519050610bc63390565b6009546040516331a9108f60e11b8152600481018490526001600160a01b039283169290911690636352211e90602401602060405180830381865afa158015610c13573d6000803e3d6000fd5b505050506040513d601f19601f82011682018060405250810190610c379190612293565b6001600160a01b031614610c8d5760405162461bcd60e51b815260206004820152601760248201527f53656e646572206973206e6f7420746865206f776e657200000000000000000060448201526064016106c7565b6000610c9882611059565b90508015610cbe57610caa81856121c3565b600083815260086020526040902042905593505b50508080610ccb90612278565b915050610a43565b5080610d175760405162461bcd60e51b8152602060048201526013602482015272139bc81858d8dd5b5d5b185d19590813919513606a1b60448201526064016106c7565b61055d3382611790565b610d2c8233836114c0565b6106da828261185d565b610d607f65d7a28e3265b37a6474929f336521b332c1681b933f6cb9f3376673440d862a33610f98565b610dd25760405162461bcd60e51b815260206004820152603760248201527f45524332305072657365744d696e7465725061757365723a206d75737420686160448201527f76652070617573657220726f6c6520746f20706175736500000000000000000060648201526084016106c7565b6107a461199d565b6000828152600160205260408120610df290836119da565b9392505050565b600954604080516318160ddd60e01b815290516000926001600160a01b0316916318160ddd9160048083019260209291908290030181865afa158015610e43573d6000803e3d6000fd5b505050506040513d601f19601f82011682018060405250810190610e679190612228565b821115610e865760405162461bcd60e51b81526004016106c790612241565b6009546040516331a9108f60e11b8152600481018490526000916001600160a01b031690636352211e90602401602060405180830381865afa158015610ed0573d6000803e3d6000fd5b505050506040513d601f19601f82011682018060405250810190610ef49190612293565b6001600160a01b03161415610f4b5760405162461bcd60e51b815260206004820152601960248201527f4f776e65722063616e6e6f74206265203020616464726573730000000000000060448201526064016106c7565b600082815260086020526040812054610f84577f0000000000000000000000000000000000000000000000000000000000000000610df2565b505060009081526008602052604090205490565b6000918252602082815260408084206001600160a01b0393909316845291905290205460ff1690565b60606006805461057290612172565b60003381610fde82866112a3565b90508381101561103e5760405162461bcd60e51b815260206004820152602560248201527f45524332303a2064656372656173656420616c6c6f77616e63652062656c6f77604482015264207a65726f60d81b60648201526084016106c7565b610626828686840361139c565b60003361060381858561153a565b60007f0000000000000000000000000000000000000000000000000000000000000000421161109a5760405162461bcd60e51b81526004016106c7906121db565b60006110a583610df9565b90507f000000000000000000000000000000000000000000000000000000000000000081106110d75750600092915050565b60007f00000000000000000000000000000000000000000000000000000000000000004210611126577f0000000000000000000000000000000000000000000000000000000000000000611128565b425b90506000620151806803b6888d08618be00061114485856122b0565b61114e91906122c7565b61115891906122e6565b90507f000000000000000000000000000000000000000000000000000000000000000083141561125f5761251c8511801561119457506126ad85105b156111b4576111ad8169048d8470181e327000006121c3565b905061125f565b6121348511156111d2576111ad8169032d26d12e980b6000006121c3565b6119648511156111f0576111ad8169021e19e0c9bab24000006121c3565b61119485111561120e576111ad816901b1ae4d6e2ef50000006121c3565b6109c485111561122c576111ad8169014542ba12a337c000006121c3565b6103e8851115611249576111ad8168d8d726b7177a8000006121c3565b61125c81686c6b935b8bbd4000006121c3565b90505b949350505050565b600081815260016020526040812061055d906119e6565b600082815260208190526040902060010154611299816116f0565b610656838361171c565b6001600160a01b03918216600090815260036020908152604080832093909416825291909152205490565b6112d88282610f98565b6106da576000828152602081815260408083206001600160a01b03851684529091529020805460ff1916600117905561130e3390565b6001600160a01b0316816001600160a01b0316837f2f8788117e7eff1d82e926ec794901d17c78024a50270940304540a733656f0d60405160405180910390a45050565b6000610df2836001600160a01b0384166119f0565b60006001600160e01b03198216637965db0b60e01b148061055d57506301ffc9a760e01b6001600160e01b031983161461055d565b6001600160a01b0383166113fe5760405162461bcd60e51b8152602060048201526024808201527f45524332303a20617070726f76652066726f6d20746865207a65726f206164646044820152637265737360e01b60648201526084016106c7565b6001600160a01b03821661145f5760405162461bcd60e51b815260206004820152602260248201527f45524332303a20617070726f766520746f20746865207a65726f206164647265604482015261737360f01b60648201526084016106c7565b6001600160a01b0383811660008181526003602090815260408083209487168084529482529182902085905590518481527f8c5be1e5ebec7d5bd14f71427d1e84f3dd0314c0f7b2291e5b200ac8c7c3b925910160405180910390a3505050565b60006114cc84846112a3565b9050600019811461153457818110156115275760405162461bcd60e51b815260206004820152601d60248201527f45524332303a20696e73756666696369656e7420616c6c6f77616e636500000060448201526064016106c7565b611534848484840361139c565b50505050565b6001600160a01b03831661159e5760405162461bcd60e51b815260206004820152602560248201527f45524332303a207472616e736665722066726f6d20746865207a65726f206164604482015264647265737360d81b60648201526084016106c7565b6001600160a01b0382166116005760405162461bcd60e51b815260206004820152602360248201527f45524332303a207472616e7366657220746f20746865207a65726f206164647260448201526265737360e81b60648201526084016106c7565b61160b838383611a3f565b6001600160a01b038316600090815260026020526040902054818110156116835760405162461bcd60e51b815260206004820152602660248201527f45524332303a207472616e7366657220616d6f756e7420657863656564732062604482015265616c616e636560d01b60648201526084016106c7565b6001600160a01b0380851660008181526002602052604080822086860390559286168082529083902080548601905591517fddf252ad1be2c89b69c2b068fc378daa952ba7f163c4a11628f55a4df523b3ef906116e39086815260200190565b60405180910390a3611534565b61084f8133611a4a565b61170482826112ce565b60008281526001602052604090206106569082611352565b6117268282611aa3565b60008281526001602052604090206106569082611b08565b611746611b1d565b6007805460ff191690557f5db9ee0a495bf2e6ff9c91a7834c1ba4fdd244a5e8aa4e537bd38aeae4b073aa335b6040516001600160a01b03909116815260200160405180910390a1565b6001600160a01b0382166117e65760405162461bcd60e51b815260206004820152601f60248201527f45524332303a206d696e7420746f20746865207a65726f20616464726573730060448201526064016106c7565b6117f260008383611a3f565b806004600082825461180491906121c3565b90915550506001600160a01b0382166000818152600260209081526040808320805486019055518481527fddf252ad1be2c89b69c2b068fc378daa952ba7f163c4a11628f55a4df523b3ef910160405180910390a35050565b6001600160a01b0382166118bd5760405162461bcd60e51b815260206004820152602160248201527f45524332303a206275726e2066726f6d20746865207a65726f206164647265736044820152607360f81b60648201526084016106c7565b6118c982600083611a3f565b6001600160a01b0382166000908152600260205260409020548181101561193d5760405162461bcd60e51b815260206004820152602260248201527f45524332303a206275726e20616d6f756e7420657863656564732062616c616e604482015261636560f01b60648201526084016106c7565b6001600160a01b03831660008181526002602090815260408083208686039055600480548790039055518581529192917fddf252ad1be2c89b69c2b068fc378daa952ba7f163c4a11628f55a4df523b3ef910160405180910390a3505050565b6119a5611b66565b6007805460ff191660011790557f62e78cea01bee320cd4e420270b5ea74000d11b0c9f74754ebdbfc544b05a2586117733390565b6000610df28383611bac565b600061055d825490565b6000818152600183016020526040812054611a375750815460018181018455600084815260208082209093018490558454848252828601909352604090209190915561055d565b50600061055d565b610656838383611bd6565b611a548282610f98565b6106da57611a6181611c3c565b611a6c836020611c4e565b604051602001611a7d929190612308565b60408051601f198184030181529082905262461bcd60e51b82526106c791600401611f33565b611aad8282610f98565b156106da576000828152602081815260408083206001600160a01b0385168085529252808320805460ff1916905551339285917ff6391f5c32d9c69d2a47ea670b442974b53935d1edc7fd64eb21e047a839171b9190a45050565b6000610df2836001600160a01b038416611dea565b60075460ff166107a45760405162461bcd60e51b815260206004820152601460248201527314185d5cd8589b194e881b9bdd081c185d5cd95960621b60448201526064016106c7565b60075460ff16156107a45760405162461bcd60e51b815260206004820152601060248201526f14185d5cd8589b194e881c185d5cd95960821b60448201526064016106c7565b6000826000018281548110611bc357611bc3612212565b9060005260206000200154905092915050565b60075460ff16156106565760405162461bcd60e51b815260206004820152602a60248201527f45524332305061757361626c653a20746f6b656e207472616e736665722077686044820152691a5b19481c185d5cd95960b21b60648201526084016106c7565b606061055d6001600160a01b03831660145b60606000611c5d8360026122c7565b611c689060026121c3565b67ffffffffffffffff811115611c8057611c80612031565b6040519080825280601f01601f191660200182016040528015611caa576020820181803683370190505b509050600360fc1b81600081518110611cc557611cc5612212565b60200101906001600160f81b031916908160001a905350600f60fb1b81600181518110611cf457611cf4612212565b60200101906001600160f81b031916908160001a9053506000611d188460026122c7565b611d239060016121c3565b90505b6001811115611d9b576f181899199a1a9b1b9c1cb0b131b232b360811b85600f1660108110611d5757611d57612212565b1a60f81b828281518110611d6d57611d6d612212565b60200101906001600160f81b031916908160001a90535060049490941c93611d948161237d565b9050611d26565b508315610df25760405162461bcd60e51b815260206004820181905260248201527f537472696e67733a20686578206c656e67746820696e73756666696369656e7460448201526064016106c7565b60008181526001830160205260408120548015611ed3576000611e0e6001836122b0565b8554909150600090611e22906001906122b0565b9050818114611e87576000866000018281548110611e4257611e42612212565b9060005260206000200154905080876000018481548110611e6557611e65612212565b6000918252602080832090910192909255918252600188019052604090208390555b8554869080611e9857611e98612394565b60019003818190600052602060002001600090559055856001016000868152602001908152602001600020600090556001935050505061055d565b600091505061055d565b600060208284031215611eef57600080fd5b81356001600160e01b031981168114610df257600080fd5b60005b83811015611f22578181015183820152602001611f0a565b838111156115345750506000910152565b6020815260008251806020840152611f52816040850160208701611f07565b601f01601f19169190910160400192915050565b6001600160a01b038116811461084f57600080fd5b60008060408385031215611f8e57600080fd5b8235611f9981611f66565b946020939093013593505050565b600080600060608486031215611fbc57600080fd5b8335611fc781611f66565b92506020840135611fd781611f66565b929592945050506040919091013590565b600060208284031215611ffa57600080fd5b5035919050565b6000806040838503121561201457600080fd5b82359150602083013561202681611f66565b809150509250929050565b634e487b7160e01b600052604160045260246000fd5b6000602080838503121561205a57600080fd5b823567ffffffffffffffff8082111561207257600080fd5b818501915085601f83011261208657600080fd5b81358181111561209857612098612031565b8060051b604051601f19603f830116810181811085821117156120bd576120bd612031565b6040529182528482019250838101850191888311156120db57600080fd5b938501935b828510156120f9578435845293850193928501926120e0565b98975050505050505050565b60006020828403121561211757600080fd5b8135610df281611f66565b6000806040838503121561213557600080fd5b50508035926020909101359150565b6000806040838503121561215757600080fd5b823561216281611f66565b9150602083013561202681611f66565b600181811c9082168061218657607f821691505b602082108114156121a757634e487b7160e01b600052602260045260246000fd5b50919050565b634e487b7160e01b600052601160045260246000fd5b600082198211156121d6576121d66121ad565b500190565b6020808252601c908201527f456d697373696f6e20686173206e6f7420737461727465642079657400000000604082015260600190565b634e487b7160e01b600052603260045260246000fd5b60006020828403121561223a57600080fd5b5051919050565b6020808252601c908201527f4e465420617420696e646578206e6f74206265656e206d696e74656400000000604082015260600190565b600060001982141561228c5761228c6121ad565b5060010190565b6000602082840312156122a557600080fd5b8151610df281611f66565b6000828210156122c2576122c26121ad565b500390565b60008160001904831182151516156122e1576122e16121ad565b500290565b60008261230357634e487b7160e01b600052601260045260246000fd5b500490565b7f416363657373436f6e74726f6c3a206163636f756e7420000000000000000000815260008351612340816017850160208801611f07565b7001034b99036b4b9b9b4b733903937b6329607d1b6017918401918201528351612371816028840160208801611f07565b01602801949350505050565b60008161238c5761238c6121ad565b506000190190565b634e487b7160e01b600052603160045260246000fdfea2646970667358221220a7348a62ae675d738ced299f2f12bf8fa69b093f6e3b16d3d7b47727b35912cc64736f6c634300080b0033",
  "devdoc": {
    "details": "Extends standard ERC20 contract from OpenZeppelin",
    "kind": "dev",
    "methods": {
      "accumulated(uint256)": {
        "params": {
          "tokenIndex": "Index of DEGEN NFT to check balance"
        },
        "returns": {
          "_0": "Total NFTL accumulated and ready to claim"
        }
      },
      "accumulatedMultiCheck(uint256[])": {
        "params": {
          "tokenIndices": "Indexes of NFTs to check balance"
        },
        "returns": {
          "_0": "Total NFTL accumulated and ready to claim"
        }
      },
      "allowance(address,address)": {
        "details": "See {IERC20-allowance}."
      },
      "approve(address,uint256)": {
        "details": "See {IERC20-approve}. NOTE: If `amount` is the maximum `uint256`, the allowance is not updated on `transferFrom`. This is semantically equivalent to an infinite approval. Requirements: - `spender` cannot be the zero address."
      },
      "balanceOf(address)": {
        "details": "See {IERC20-balanceOf}."
      },
      "burn(uint256)": {
        "details": "Destroys `amount` tokens from the caller. See {ERC20-_burn}."
      },
      "burnFrom(address,uint256)": {
        "details": "Destroys `amount` tokens from `account`, deducting from the caller's allowance. See {ERC20-_burn} and {ERC20-allowance}. Requirements: - the caller must have allowance for ``accounts``'s tokens of at least `amount`."
      },
      "claim(uint256[])": {
        "params": {
          "tokenIndices": "Indexes of NFTs to claim for"
        },
        "returns": {
          "_0": "Total NFTL claimed"
        }
      },
      "constructor": {
        "params": {
          "emissionStartTimestamp": "Timestamp of deployment"
        }
      },
      "decimals()": {
        "details": "Returns the number of decimals used to get its user representation. For example, if `decimals` equals `2`, a balance of `505` tokens should be displayed to a user as `5.05` (`505 / 10 ** 2`). Tokens usually opt for a value of 18, imitating the relationship between Ether and Wei. This is the default value returned by this function, unless it's overridden. NOTE: This information is only used for _display_ purposes: it in no way affects any of the arithmetic of the contract, including {IERC20-balanceOf} and {IERC20-transfer}."
      },
      "decreaseAllowance(address,uint256)": {
        "details": "Atomically decreases the allowance granted to `spender` by the caller. This is an alternative to {approve} that can be used as a mitigation for problems described in {IERC20-approve}. Emits an {Approval} event indicating the updated allowance. Requirements: - `spender` cannot be the zero address. - `spender` must have allowance for the caller of at least `subtractedValue`."
      },
      "getLastClaim(uint256)": {
        "params": {
          "tokenIndex": "Index of DEGEN NFT to check"
        },
        "returns": {
          "_0": "Last claim timestamp"
        }
      },
      "getRoleAdmin(bytes32)": {
        "details": "Returns the admin role that controls `role`. See {grantRole} and {revokeRole}. To change a role's admin, use {_setRoleAdmin}."
      },
      "getRoleMember(bytes32,uint256)": {
        "details": "Returns one of the accounts that have `role`. `index` must be a value between 0 and {getRoleMemberCount}, non-inclusive. Role bearers are not sorted in any particular way, and their ordering may change at any point. WARNING: When using {getRoleMember} and {getRoleMemberCount}, make sure you perform all queries on the same block. See the following https://forum.openzeppelin.com/t/iterating-over-elements-on-enumerableset-in-openzeppelin-contracts/2296[forum post] for more information."
      },
      "getRoleMemberCount(bytes32)": {
        "details": "Returns the number of accounts that have `role`. Can be used together with {getRoleMember} to enumerate all bearers of a role."
      },
      "grantRole(bytes32,address)": {
        "details": "Grants `role` to `account`. If `account` had not been already granted `role`, emits a {RoleGranted} event. Requirements: - the caller must have ``role``'s admin role. May emit a {RoleGranted} event."
      },
      "hasRole(bytes32,address)": {
        "details": "Returns `true` if `account` has been granted `role`."
      },
      "increaseAllowance(address,uint256)": {
        "details": "Atomically increases the allowance granted to `spender` by the caller. This is an alternative to {approve} that can be used as a mitigation for problems described in {IERC20-approve}. Emits an {Approval} event indicating the updated allowance. Requirements: - `spender` cannot be the zero address."
      },
      "mint(address,uint256)": {
        "details": "Creates `amount` new tokens for `to`. See {ERC20-_mint}. Requirements: - the caller must have the `MINTER_ROLE`."
      },
      "name()": {
        "details": "Returns the name of the token."
      },
      "pause()": {
        "details": "Pauses all token transfers. See {ERC20Pausable} and {Pausable-_pause}. Requirements: - the caller must have the `PAUSER_ROLE`."
      },
      "paused()": {
        "details": "Returns true if the contract is paused, and false otherwise."
      },
      "renounceRole(bytes32,address)": {
        "details": "Revokes `role` from the calling account. Roles are often managed via {grantRole} and {revokeRole}: this function's purpose is to provide a mechanism for accounts to lose their privileges if they are compromised (such as when a trusted device is misplaced). If the calling account had been revoked `role`, emits a {RoleRevoked} event. Requirements: - the caller must be `account`. May emit a {RoleRevoked} event."
      },
      "revokeRole(bytes32,address)": {
        "details": "Revokes `role` from `account`. If `account` had been granted `role`, emits a {RoleRevoked} event. Requirements: - the caller must have ``role``'s admin role. May emit a {RoleRevoked} event."
      },
      "setNFTAddress(address)": {
        "details": "Only callable once",
        "params": {
          "nftAddress": "Address of verified DEGEN NFT contract"
        }
      },
      "supportsInterface(bytes4)": {
        "details": "See {IERC165-supportsInterface}."
      },
      "symbol()": {
        "details": "Returns the symbol of the token, usually a shorter version of the name."
      },
      "totalSupply()": {
        "details": "See {IERC20-totalSupply}."
      },
      "transfer(address,uint256)": {
        "details": "See {IERC20-transfer}. Requirements: - `to` cannot be the zero address. - the caller must have a balance of at least `amount`."
      },
      "transferFrom(address,address,uint256)": {
        "details": "See {IERC20-transferFrom}. Emits an {Approval} event indicating the updated allowance. This is not required by the EIP. See the note at the beginning of {ERC20}. NOTE: Does not update the allowance if the current allowance is the maximum `uint256`. Requirements: - `from` and `to` cannot be the zero address. - `from` must have a balance of at least `amount`. - the caller must have allowance for ``from``'s tokens of at least `amount`."
      },
      "unpause()": {
        "details": "Unpauses all token transfers. See {ERC20Pausable} and {Pausable-_unpause}. Requirements: - the caller must have the `PAUSER_ROLE`."
      }
    },
    "stateVariables": {
      "_lastClaim": {
        "details": "A record of last claimed timestamp for DEGEN NFTs"
      },
      "_nftAddress": {
        "details": "Contract address for DEGEN NFT"
      }
    },
    "title": "NFTL Token (The native ecosystem token of Nifty League)",
    "version": 1
  },
  "userdoc": {
    "kind": "user",
    "methods": {
      "EMISSION_PER_DAY()": {
        "notice": "NFTL tokens calaimable per day for each DEGEN NFT holder"
      },
      "accumulated(uint256)": {
        "notice": "Check accumulated NFTL tokens for a DEGEN NFT"
      },
      "accumulatedMultiCheck(uint256[])": {
        "notice": "Check total accumulated NFTL tokens for all DEGEN NFTs"
      },
      "claim(uint256[])": {
        "notice": "Mint and claim available NFTL for each DEGEN NFT"
      },
      "constructor": {
        "notice": "Construct the NFTL token"
      },
      "emissionEnd()": {
        "notice": "End date for NFTL emissions to DEGEN NFT holders"
      },
      "emissionStart()": {
        "notice": "Start timestamp from contract deployment"
      },
      "getLastClaim(uint256)": {
        "notice": "Check last claim timestamp of accumulated NFTL for given DEGEN NFT"
      },
      "setNFTAddress(address)": {
        "notice": "Sets the contract address to Nifty League DEGEN NFTs upon deployment"
      }
    },
    "version": 1
  },
  "storageLayout": {
    "storage": [
      {
        "astId": 6931,
        "contract": "src/contracts/NFTLToken.sol:NFTLToken",
        "label": "_roles",
        "offset": 0,
        "slot": "0",
        "type": "t_mapping(t_bytes32,t_struct(RoleData)6926_storage)"
      },
      {
        "astId": 7241,
        "contract": "src/contracts/NFTLToken.sol:NFTLToken",
        "label": "_roleMembers",
        "offset": 0,
        "slot": "1",
        "type": "t_mapping(t_bytes32,t_struct(AddressSet)14704_storage)"
      },
      {
        "astId": 9555,
        "contract": "src/contracts/NFTLToken.sol:NFTLToken",
        "label": "_balances",
        "offset": 0,
        "slot": "2",
        "type": "t_mapping(t_address,t_uint256)"
      },
      {
        "astId": 9561,
        "contract": "src/contracts/NFTLToken.sol:NFTLToken",
        "label": "_allowances",
        "offset": 0,
        "slot": "3",
        "type": "t_mapping(t_address,t_mapping(t_address,t_uint256))"
      },
      {
        "astId": 9563,
        "contract": "src/contracts/NFTLToken.sol:NFTLToken",
        "label": "_totalSupply",
        "offset": 0,
        "slot": "4",
        "type": "t_uint256"
      },
      {
        "astId": 9565,
        "contract": "src/contracts/NFTLToken.sol:NFTLToken",
        "label": "_name",
        "offset": 0,
        "slot": "5",
        "type": "t_string_storage"
      },
      {
        "astId": 9567,
        "contract": "src/contracts/NFTLToken.sol:NFTLToken",
        "label": "_symbol",
        "offset": 0,
        "slot": "6",
        "type": "t_string_storage"
      },
      {
        "astId": 7576,
        "contract": "src/contracts/NFTLToken.sol:NFTLToken",
        "label": "_paused",
        "offset": 0,
        "slot": "7",
        "type": "t_bool"
      },
      {
        "astId": 17135,
        "contract": "src/contracts/NFTLToken.sol:NFTLToken",
        "label": "_lastClaim",
        "offset": 0,
        "slot": "8",
        "type": "t_mapping(t_uint256,t_uint256)"
      },
      {
        "astId": 17138,
        "contract": "src/contracts/NFTLToken.sol:NFTLToken",
        "label": "_nftAddress",
        "offset": 0,
        "slot": "9",
        "type": "t_address"
      }
    ],
    "types": {
      "t_address": {
        "encoding": "inplace",
        "label": "address",
        "numberOfBytes": "20"
      },
      "t_array(t_bytes32)dyn_storage": {
        "base": "t_bytes32",
        "encoding": "dynamic_array",
        "label": "bytes32[]",
        "numberOfBytes": "32"
      },
      "t_bool": {
        "encoding": "inplace",
        "label": "bool",
        "numberOfBytes": "1"
      },
      "t_bytes32": {
        "encoding": "inplace",
        "label": "bytes32",
        "numberOfBytes": "32"
      },
      "t_mapping(t_address,t_bool)": {
        "encoding": "mapping",
        "key": "t_address",
        "label": "mapping(address => bool)",
        "numberOfBytes": "32",
        "value": "t_bool"
      },
      "t_mapping(t_address,t_mapping(t_address,t_uint256))": {
        "encoding": "mapping",
        "key": "t_address",
        "label": "mapping(address => mapping(address => uint256))",
        "numberOfBytes": "32",
        "value": "t_mapping(t_address,t_uint256)"
      },
      "t_mapping(t_address,t_uint256)": {
        "encoding": "mapping",
        "key": "t_address",
        "label": "mapping(address => uint256)",
        "numberOfBytes": "32",
        "value": "t_uint256"
      },
      "t_mapping(t_bytes32,t_struct(AddressSet)14704_storage)": {
        "encoding": "mapping",
        "key": "t_bytes32",
        "label": "mapping(bytes32 => struct EnumerableSet.AddressSet)",
        "numberOfBytes": "32",
        "value": "t_struct(AddressSet)14704_storage"
      },
      "t_mapping(t_bytes32,t_struct(RoleData)6926_storage)": {
        "encoding": "mapping",
        "key": "t_bytes32",
        "label": "mapping(bytes32 => struct AccessControl.RoleData)",
        "numberOfBytes": "32",
        "value": "t_struct(RoleData)6926_storage"
      },
      "t_mapping(t_bytes32,t_uint256)": {
        "encoding": "mapping",
        "key": "t_bytes32",
        "label": "mapping(bytes32 => uint256)",
        "numberOfBytes": "32",
        "value": "t_uint256"
      },
      "t_mapping(t_uint256,t_uint256)": {
        "encoding": "mapping",
        "key": "t_uint256",
        "label": "mapping(uint256 => uint256)",
        "numberOfBytes": "32",
        "value": "t_uint256"
      },
      "t_string_storage": {
        "encoding": "bytes",
        "label": "string",
        "numberOfBytes": "32"
      },
      "t_struct(AddressSet)14704_storage": {
        "encoding": "inplace",
        "label": "struct EnumerableSet.AddressSet",
        "members": [
          {
            "astId": 14703,
            "contract": "src/contracts/NFTLToken.sol:NFTLToken",
            "label": "_inner",
            "offset": 0,
            "slot": "0",
            "type": "t_struct(Set)14389_storage"
          }
        ],
        "numberOfBytes": "64"
      },
      "t_struct(RoleData)6926_storage": {
        "encoding": "inplace",
        "label": "struct AccessControl.RoleData",
        "members": [
          {
            "astId": 6923,
            "contract": "src/contracts/NFTLToken.sol:NFTLToken",
            "label": "members",
            "offset": 0,
            "slot": "0",
            "type": "t_mapping(t_address,t_bool)"
          },
          {
            "astId": 6925,
            "contract": "src/contracts/NFTLToken.sol:NFTLToken",
            "label": "adminRole",
            "offset": 0,
            "slot": "1",
            "type": "t_bytes32"
          }
        ],
        "numberOfBytes": "64"
      },
      "t_struct(Set)14389_storage": {
        "encoding": "inplace",
        "label": "struct EnumerableSet.Set",
        "members": [
          {
            "astId": 14384,
            "contract": "src/contracts/NFTLToken.sol:NFTLToken",
            "label": "_values",
            "offset": 0,
            "slot": "0",
            "type": "t_array(t_bytes32)dyn_storage"
          },
          {
            "astId": 14388,
            "contract": "src/contracts/NFTLToken.sol:NFTLToken",
            "label": "_indexes",
            "offset": 0,
            "slot": "1",
            "type": "t_mapping(t_bytes32,t_uint256)"
          }
        ],
        "numberOfBytes": "64"
      },
      "t_uint256": {
        "encoding": "inplace",
        "label": "uint256",
        "numberOfBytes": "32"
      }
    }
  }
}