{
  "address": "0x4b2B807881794A50b6C236DB50D4702b20d76449",
  "abi": [
    {
      "inputs": [
        {
          "internalType": "string",
          "name": "uri",
          "type": "string"
        }
      ],
      "stateMutability": "nonpayable",
      "type": "constructor"
    },
    {
      "anonymous": false,
      "inputs": [
        {
          "indexed": true,
          "internalType": "address",
          "name": "account",
          "type": "address"
        },
        {
          "indexed": true,
          "internalType": "address",
          "name": "operator",
          "type": "address"
        },
        {
          "indexed": false,
          "internalType": "bool",
          "name": "approved",
          "type": "bool"
        }
      ],
      "name": "ApprovalForAll",
      "type": "event"
    },
    {
      "anonymous": false,
      "inputs": [
        {
          "indexed": false,
          "internalType": "address",
          "name": "account",
          "type": "address"
        }
      ],
      "name": "Paused",
      "type": "event"
    },
    {
      "anonymous": false,
      "inputs": [
        {
          "indexed": true,
          "internalType": "bytes32",
          "name": "role",
          "type": "bytes32"
        },
        {
          "indexed": true,
          "internalType": "bytes32",
          "name": "previousAdminRole",
          "type": "bytes32"
        },
        {
          "indexed": true,
          "internalType": "bytes32",
          "name": "newAdminRole",
          "type": "bytes32"
        }
      ],
      "name": "RoleAdminChanged",
      "type": "event"
    },
    {
      "anonymous": false,
      "inputs": [
        {
          "indexed": true,
          "internalType": "bytes32",
          "name": "role",
          "type": "bytes32"
        },
        {
          "indexed": true,
          "internalType": "address",
          "name": "account",
          "type": "address"
        },
        {
          "indexed": true,
          "internalType": "address",
          "name": "sender",
          "type": "address"
        }
      ],
      "name": "RoleGranted",
      "type": "event"
    },
    {
      "anonymous": false,
      "inputs": [
        {
          "indexed": true,
          "internalType": "bytes32",
          "name": "role",
          "type": "bytes32"
        },
        {
          "indexed": true,
          "internalType": "address",
          "name": "account",
          "type": "address"
        },
        {
          "indexed": true,
          "internalType": "address",
          "name": "sender",
          "type": "address"
        }
      ],
      "name": "RoleRevoked",
      "type": "event"
    },
    {
      "anonymous": false,
      "inputs": [
        {
          "indexed": true,
          "internalType": "address",
          "name": "operator",
          "type": "address"
        },
        {
          "indexed": true,
          "internalType": "address",
          "name": "from",
          "type": "address"
        },
        {
          "indexed": true,
          "internalType": "address",
          "name": "to",
          "type": "address"
        },
        {
          "indexed": false,
          "internalType": "uint256[]",
          "name": "ids",
          "type": "uint256[]"
        },
        {
          "indexed": false,
          "internalType": "uint256[]",
          "name": "values",
          "type": "uint256[]"
        }
      ],
      "name": "TransferBatch",
      "type": "event"
    },
    {
      "anonymous": false,
      "inputs": [
        {
          "indexed": true,
          "internalType": "address",
          "name": "operator",
          "type": "address"
        },
        {
          "indexed": true,
          "internalType": "address",
          "name": "from",
          "type": "address"
        },
        {
          "indexed": true,
          "internalType": "address",
          "name": "to",
          "type": "address"
        },
        {
          "indexed": false,
          "internalType": "uint256",
          "name": "id",
          "type": "uint256"
        },
        {
          "indexed": false,
          "internalType": "uint256",
          "name": "value",
          "type": "uint256"
        }
      ],
      "name": "TransferSingle",
      "type": "event"
    },
    {
      "anonymous": false,
      "inputs": [
        {
          "indexed": false,
          "internalType": "string",
          "name": "value",
          "type": "string"
        },
        {
          "indexed": true,
          "internalType": "uint256",
          "name": "id",
          "type": "uint256"
        }
      ],
      "name": "URI",
      "type": "event"
    },
    {
      "anonymous": false,
      "inputs": [
        {
          "indexed": false,
          "internalType": "address",
          "name": "account",
          "type": "address"
        }
      ],
      "name": "Unpaused",
      "type": "event"
    },
    {
      "inputs": [],
      "name": "DEFAULT_ADMIN_ROLE",
      "outputs": [
        {
          "internalType": "bytes32",
          "name": "",
          "type": "bytes32"
        }
      ],
      "stateMutability": "view",
      "type": "function"
    },
    {
      "inputs": [],
      "name": "MINTER_ROLE",
      "outputs": [
        {
          "internalType": "bytes32",
          "name": "",
          "type": "bytes32"
        }
      ],
      "stateMutability": "view",
      "type": "function"
    },
    {
      "inputs": [],
      "name": "PAUSER_ROLE",
      "outputs": [
        {
          "internalType": "bytes32",
          "name": "",
          "type": "bytes32"
        }
      ],
      "stateMutability": "view",
      "type": "function"
    },
    {
      "inputs": [
        {
          "internalType": "address",
          "name": "account",
          "type": "address"
        },
        {
          "internalType": "uint256",
          "name": "id",
          "type": "uint256"
        }
      ],
      "name": "balanceOf",
      "outputs": [
        {
          "internalType": "uint256",
          "name": "",
          "type": "uint256"
        }
      ],
      "stateMutability": "view",
      "type": "function"
    },
    {
      "inputs": [
        {
          "internalType": "address[]",
          "name": "accounts",
          "type": "address[]"
        },
        {
          "internalType": "uint256[]",
          "name": "ids",
          "type": "uint256[]"
        }
      ],
      "name": "balanceOfBatch",
      "outputs": [
        {
          "internalType": "uint256[]",
          "name": "",
          "type": "uint256[]"
        }
      ],
      "stateMutability": "view",
      "type": "function"
    },
    {
      "inputs": [
        {
          "internalType": "address",
          "name": "account",
          "type": "address"
        },
        {
          "internalType": "uint256",
          "name": "id",
          "type": "uint256"
        },
        {
          "internalType": "uint256",
          "name": "value",
          "type": "uint256"
        }
      ],
      "name": "burn",
      "outputs": [],
      "stateMutability": "nonpayable",
      "type": "function"
    },
    {
      "inputs": [
        {
          "internalType": "address",
          "name": "account",
          "type": "address"
        },
        {
          "internalType": "uint256[]",
          "name": "ids",
          "type": "uint256[]"
        },
        {
          "internalType": "uint256[]",
          "name": "values",
          "type": "uint256[]"
        }
      ],
      "name": "burnBatch",
      "outputs": [],
      "stateMutability": "nonpayable",
      "type": "function"
    },
    {
      "inputs": [
        {
          "internalType": "bytes32",
          "name": "role",
          "type": "bytes32"
        }
      ],
      "name": "getRoleAdmin",
      "outputs": [
        {
          "internalType": "bytes32",
          "name": "",
          "type": "bytes32"
        }
      ],
      "stateMutability": "view",
      "type": "function"
    },
    {
      "inputs": [
        {
          "internalType": "bytes32",
          "name": "role",
          "type": "bytes32"
        },
        {
          "internalType": "address",
          "name": "account",
          "type": "address"
        }
      ],
      "name": "grantRole",
      "outputs": [],
      "stateMutability": "nonpayable",
      "type": "function"
    },
    {
      "inputs": [
        {
          "internalType": "bytes32",
          "name": "role",
          "type": "bytes32"
        },
        {
          "internalType": "address",
          "name": "account",
          "type": "address"
        }
      ],
      "name": "hasRole",
      "outputs": [
        {
          "internalType": "bool",
          "name": "",
          "type": "bool"
        }
      ],
      "stateMutability": "view",
      "type": "function"
    },
    {
      "inputs": [
        {
          "internalType": "address",
          "name": "account",
          "type": "address"
        },
        {
          "internalType": "address",
          "name": "operator",
          "type": "address"
        }
      ],
      "name": "isApprovedForAll",
      "outputs": [
        {
          "internalType": "bool",
          "name": "",
          "type": "bool"
        }
      ],
      "stateMutability": "view",
      "type": "function"
    },
    {
      "inputs": [
        {
          "internalType": "address",
          "name": "to",
          "type": "address"
        },
        {
          "internalType": "uint256",
          "name": "id",
          "type": "uint256"
        },
        {
          "internalType": "uint256",
          "name": "amount",
          "type": "uint256"
        },
        {
          "internalType": "bytes",
          "name": "data",
          "type": "bytes"
        }
      ],
      "name": "mint",
      "outputs": [],
      "stateMutability": "nonpayable",
      "type": "function"
    },
    {
      "inputs": [
        {
          "internalType": "address",
          "name": "to",
          "type": "address"
        },
        {
          "internalType": "uint256[]",
          "name": "ids",
          "type": "uint256[]"
        },
        {
          "internalType": "uint256[]",
          "name": "amounts",
          "type": "uint256[]"
        },
        {
          "internalType": "bytes",
          "name": "data",
          "type": "bytes"
        }
      ],
      "name": "mintBatch",
      "outputs": [],
      "stateMutability": "nonpayable",
      "type": "function"
    },
    {
      "inputs": [],
      "name": "name",
      "outputs": [
        {
          "internalType": "string",
          "name": "",
          "type": "string"
        }
      ],
      "stateMutability": "view",
      "type": "function"
    },
    {
      "inputs": [],
      "name": "pauseBurn",
      "outputs": [],
      "stateMutability": "nonpayable",
      "type": "function"
    },
    {
      "inputs": [],
      "name": "paused",
      "outputs": [
        {
          "internalType": "bool",
          "name": "",
          "type": "bool"
        }
      ],
      "stateMutability": "view",
      "type": "function"
    },
    {
      "inputs": [
        {
          "internalType": "bytes32",
          "name": "role",
          "type": "bytes32"
        },
        {
          "internalType": "address",
          "name": "account",
          "type": "address"
        }
      ],
      "name": "renounceRole",
      "outputs": [],
      "stateMutability": "nonpayable",
      "type": "function"
    },
    {
      "inputs": [
        {
          "internalType": "bytes32",
          "name": "role",
          "type": "bytes32"
        },
        {
          "internalType": "address",
          "name": "account",
          "type": "address"
        }
      ],
      "name": "revokeRole",
      "outputs": [],
      "stateMutability": "nonpayable",
      "type": "function"
    },
    {
      "inputs": [
        {
          "internalType": "address",
          "name": "from",
          "type": "address"
        },
        {
          "internalType": "address",
          "name": "to",
          "type": "address"
        },
        {
          "internalType": "uint256[]",
          "name": "ids",
          "type": "uint256[]"
        },
        {
          "internalType": "uint256[]",
          "name": "amounts",
          "type": "uint256[]"
        },
        {
          "internalType": "bytes",
          "name": "data",
          "type": "bytes"
        }
      ],
      "name": "safeBatchTransferFrom",
      "outputs": [],
      "stateMutability": "nonpayable",
      "type": "function"
    },
    {
      "inputs": [
        {
          "internalType": "address",
          "name": "from",
          "type": "address"
        },
        {
          "internalType": "address",
          "name": "to",
          "type": "address"
        },
        {
          "internalType": "uint256",
          "name": "id",
          "type": "uint256"
        },
        {
          "internalType": "uint256",
          "name": "amount",
          "type": "uint256"
        },
        {
          "internalType": "bytes",
          "name": "data",
          "type": "bytes"
        }
      ],
      "name": "safeTransferFrom",
      "outputs": [],
      "stateMutability": "nonpayable",
      "type": "function"
    },
    {
      "inputs": [
        {
          "internalType": "address",
          "name": "operator",
          "type": "address"
        },
        {
          "internalType": "bool",
          "name": "approved",
          "type": "bool"
        }
      ],
      "name": "setApprovalForAll",
      "outputs": [],
      "stateMutability": "nonpayable",
      "type": "function"
    },
    {
      "inputs": [
        {
          "internalType": "string",
          "name": "newuri",
          "type": "string"
        }
      ],
      "name": "setURI",
      "outputs": [],
      "stateMutability": "nonpayable",
      "type": "function"
    },
    {
      "inputs": [
        {
          "internalType": "bytes4",
          "name": "interfaceId",
          "type": "bytes4"
        }
      ],
      "name": "supportsInterface",
      "outputs": [
        {
          "internalType": "bool",
          "name": "",
          "type": "bool"
        }
      ],
      "stateMutability": "view",
      "type": "function"
    },
    {
      "inputs": [],
      "name": "symbol",
      "outputs": [
        {
          "internalType": "string",
          "name": "",
          "type": "string"
        }
      ],
      "stateMutability": "view",
      "type": "function"
    },
    {
      "inputs": [],
      "name": "unpauseBurn",
      "outputs": [],
      "stateMutability": "nonpayable",
      "type": "function"
    },
    {
      "inputs": [
        {
          "internalType": "uint256",
          "name": "",
          "type": "uint256"
        }
      ],
      "name": "uri",
      "outputs": [
        {
          "internalType": "string",
          "name": "",
          "type": "string"
        }
      ],
      "stateMutability": "view",
      "type": "function"
    }
  ],
  "transactionHash": "0x4933abad8760c64814f9a44ec35755ae86737305a69774e0e7a6ab2cdabe78a8",
  "args": [
    "https://api.niftyleague.com/imx/comics/metadata/{id}"
  ],
  "numDeployments": 1,
  "solcInputHash": "460b44b6c766dbc9e8edac432bb9f7aa",
  "bytecode": "0x60c0604052601360808190527f4e69667479204c61756e636820436f6d6963730000000000000000000000000060a0908152620000409160059190620001e3565b50604080518082019091526003808252624e4c4360e81b60209092019182526200006d91600691620001e3565b503480156200007b57600080fd5b5060405162002a5438038062002a548339810160408190526200009e916200029f565b80620000aa8162000121565b506004805460ff19169055620000c26000336200013a565b620000ee7f9f2df0fed2c77648de5860a4cc508cd0818c85b8b8a1ab4ceeef8d981c8956a6336200013a565b6200011a7f65d7a28e3265b37a6474929f336521b332c1681b933f6cb9f3376673440d862a336200013a565b50620003b8565b805162000136906003906020840190620001e3565b5050565b6000828152602081815260408083206001600160a01b038516845290915290205462000136908390839060ff1662000136576000828152602081815260408083206001600160a01b03851684529091529020805460ff191660011790556200019f3390565b6001600160a01b0316816001600160a01b0316837f2f8788117e7eff1d82e926ec794901d17c78024a50270940304540a733656f0d60405160405180910390a45050565b828054620001f1906200037b565b90600052602060002090601f01602090048101928262000215576000855562000260565b82601f106200023057805160ff191683800117855562000260565b8280016001018555821562000260579182015b828111156200026057825182559160200191906001019062000243565b506200026e92915062000272565b5090565b5b808211156200026e576000815560010162000273565b634e487b7160e01b600052604160045260246000fd5b60006020808385031215620002b357600080fd5b82516001600160401b0380821115620002cb57600080fd5b818501915085601f830112620002e057600080fd5b815181811115620002f557620002f562000289565b604051601f8201601f19908116603f0116810190838211818310171562000320576200032062000289565b8160405282815288868487010111156200033957600080fd5b600093505b828410156200035d57848401860151818501870152928501926200033e565b828411156200036f5760008684830101525b98975050505050505050565b600181811c908216806200039057607f821691505b60208210811415620003b257634e487b7160e01b600052602260045260246000fd5b50919050565b61268c80620003c86000396000f3fe608060405234801561001057600080fd5b506004361061018d5760003560e01c80636b20c454116100de578063a6559fe411610097578063e63ab1e911610071578063e63ab1e914610358578063e985e9c51461037f578063f242432a146103bb578063f5298aca146103ce57600080fd5b8063a6559fe414610316578063d53913931461031e578063d547741f1461034557600080fd5b80636b20c454146102ba578063731133e9146102cd57806391d14854146102e057806395d89b41146102f3578063a217fddf146102fb578063a22cb4651461030357600080fd5b8063248a9ca31161014b57806336568abe1161012557806336568abe146102745780634295e857146102875780634e1273f41461028f5780635c975abb146102af57600080fd5b8063248a9ca31461022b5780632eb2c2d61461024e5780632f2ff15d1461026157600080fd5b8062fdd58e1461019257806301ffc9a7146101b857806302fe5305146101db57806306fdde03146101f05780630e89341c146102055780631f7fdffa14610218575b600080fd5b6101a56101a0366004611a7c565b6103e1565b6040519081526020015b60405180910390f35b6101cb6101c6366004611abc565b610479565b60405190151581526020016101af565b6101ee6101e9366004611b78565b61048a565b005b6101f86104a2565b6040516101af9190611c20565b6101f8610213366004611c33565b610530565b6101ee610226366004611d00565b6105c4565b6101a5610239366004611c33565b60009081526020819052604090206001015490565b6101ee61025c366004611d98565b610601565b6101ee61026f366004611e41565b610646565b6101ee610282366004611e41565b610670565b6101ee6106ea565b6102a261029d366004611e6d565b61071f565b6040516101af9190611f72565b60045460ff166101cb565b6101ee6102c8366004611f85565b610848565b6101ee6102db366004611ff8565b6108c3565b6101cb6102ee366004611e41565b6108f9565b6101f8610922565b6101a5600081565b6101ee61031136600461204c565b61092f565b6101ee61093a565b6101a57f9f2df0fed2c77648de5860a4cc508cd0818c85b8b8a1ab4ceeef8d981c8956a681565b6101ee610353366004611e41565b61096c565b6101a57f65d7a28e3265b37a6474929f336521b332c1681b933f6cb9f3376673440d862a81565b6101cb61038d366004612088565b6001600160a01b03918216600090815260026020908152604080832093909416825291909152205460ff1690565b6101ee6103c93660046120b2565b610991565b6101ee6103dc366004612116565b6109d6565b60006001600160a01b0383166104515760405162461bcd60e51b815260206004820152602a60248201527f455243313135353a2061646472657373207a65726f206973206e6f742061207660448201526930b634b21037bbb732b960b11b60648201526084015b60405180910390fd5b5060009081526001602090815260408083206001600160a01b03949094168352929052205490565b600061048482610a51565b92915050565b600061049581610a91565b61049e82610a9b565b5050565b600580546104af90612149565b80601f01602080910402602001604051908101604052809291908181526020018280546104db90612149565b80156105285780601f106104fd57610100808354040283529160200191610528565b820191906000526020600020905b81548152906001019060200180831161050b57829003601f168201915b505050505081565b60606003805461053f90612149565b80601f016020809104026020016040519081016040528092919081815260200182805461056b90612149565b80156105b85780601f1061058d576101008083540402835291602001916105b8565b820191906000526020600020905b81548152906001019060200180831161059b57829003601f168201915b50505050509050919050565b7f9f2df0fed2c77648de5860a4cc508cd0818c85b8b8a1ab4ceeef8d981c8956a66105ee81610a91565b6105fa85858585610aae565b5050505050565b6001600160a01b03851633148061061d575061061d853361038d565b6106395760405162461bcd60e51b815260040161044890612184565b6105fa8585858585610bfa565b60008281526020819052604090206001015461066181610a91565b61066b8383610d99565b505050565b6001600160a01b03811633146106e05760405162461bcd60e51b815260206004820152602f60248201527f416363657373436f6e74726f6c3a2063616e206f6e6c792072656e6f756e636560448201526e103937b632b9903337b91039b2b63360891b6064820152608401610448565b61049e8282610e1d565b7f65d7a28e3265b37a6474929f336521b332c1681b933f6cb9f3376673440d862a61071481610a91565b61071c610e82565b50565b606081518351146107845760405162461bcd60e51b815260206004820152602960248201527f455243313135353a206163636f756e747320616e6420696473206c656e677468604482015268040dad2e6dac2e8c6d60bb1b6064820152608401610448565b600083516001600160401b0381111561079f5761079f611ad9565b6040519080825280602002602001820160405280156107c8578160200160208202803683370190505b50905060005b8451811015610840576108138582815181106107ec576107ec6121d2565b6020026020010151858381518110610806576108066121d2565b60200260200101516103e1565b828281518110610825576108256121d2565b6020908102919091010152610839816121fe565b90506107ce565b509392505050565b610850610ed4565b6001600160a01b03831633148061086c575061086c833361038d565b6108b85760405162461bcd60e51b815260206004820181905260248201527f43616c6c6572206973206e6f74206f776e6572206e6f7220617070726f7665646044820152606401610448565b61066b838383610f1c565b7f9f2df0fed2c77648de5860a4cc508cd0818c85b8b8a1ab4ceeef8d981c8956a66108ed81610a91565b6105fa858585856110ab565b6000918252602082815260408084206001600160a01b0393909316845291905290205460ff1690565b600680546104af90612149565b61049e338383611187565b7f65d7a28e3265b37a6474929f336521b332c1681b933f6cb9f3376673440d862a61096481610a91565b61071c611268565b60008281526020819052604090206001015461098781610a91565b61066b8383610e1d565b6001600160a01b0385163314806109ad57506109ad853361038d565b6109c95760405162461bcd60e51b815260040161044890612184565b6105fa85858585856112a5565b6109de610ed4565b6001600160a01b0383163314806109fa57506109fa833361038d565b610a465760405162461bcd60e51b815260206004820181905260248201527f43616c6c6572206973206e6f74206f776e6572206e6f7220617070726f7665646044820152606401610448565b61066b8383836113d3565b60006001600160e01b03198216636cdb3d1360e11b1480610a8257506001600160e01b031982166303a24d0760e21b145b806104845750610484826114da565b61071c813361150f565b805161049e9060039060208401906119c7565b6001600160a01b038416610ad45760405162461bcd60e51b815260040161044890612219565b8151835114610af55760405162461bcd60e51b81526004016104489061225a565b3360005b8451811015610b9257838181518110610b1457610b146121d2565b602002602001015160016000878481518110610b3257610b326121d2565b602002602001015181526020019081526020016000206000886001600160a01b03166001600160a01b031681526020019081526020016000206000828254610b7a91906122a2565b90915550819050610b8a816121fe565b915050610af9565b50846001600160a01b031660006001600160a01b0316826001600160a01b03167f4a39dc06d4c0dbc64b70af90fd698a233a518aa5d07e595d983b8c0526c8f7fb8787604051610be39291906122ba565b60405180910390a46105fa81600087878787611568565b8151835114610c1b5760405162461bcd60e51b81526004016104489061225a565b6001600160a01b038416610c415760405162461bcd60e51b8152600401610448906122e8565b3360005b8451811015610d2b576000858281518110610c6257610c626121d2565b602002602001015190506000858381518110610c8057610c806121d2565b60209081029190910181015160008481526001835260408082206001600160a01b038e168352909352919091205490915081811015610cd15760405162461bcd60e51b81526004016104489061232d565b60008381526001602090815260408083206001600160a01b038e8116855292528083208585039055908b16825281208054849290610d109084906122a2565b9250508190555050505080610d24906121fe565b9050610c45565b50846001600160a01b0316866001600160a01b0316826001600160a01b03167f4a39dc06d4c0dbc64b70af90fd698a233a518aa5d07e595d983b8c0526c8f7fb8787604051610d7b9291906122ba565b60405180910390a4610d91818787878787611568565b505050505050565b610da382826108f9565b61049e576000828152602081815260408083206001600160a01b03851684529091529020805460ff19166001179055610dd93390565b6001600160a01b0316816001600160a01b0316837f2f8788117e7eff1d82e926ec794901d17c78024a50270940304540a733656f0d60405160405180910390a45050565b610e2782826108f9565b1561049e576000828152602081815260408083206001600160a01b0385168085529252808320805460ff1916905551339285917ff6391f5c32d9c69d2a47ea670b442974b53935d1edc7fd64eb21e047a839171b9190a45050565b610e8a6116c4565b6004805460ff191690557f5db9ee0a495bf2e6ff9c91a7834c1ba4fdd244a5e8aa4e537bd38aeae4b073aa335b6040516001600160a01b03909116815260200160405180910390a1565b60045460ff1615610f1a5760405162461bcd60e51b815260206004820152601060248201526f14185d5cd8589b194e881c185d5cd95960821b6044820152606401610448565b565b6001600160a01b038316610f425760405162461bcd60e51b815260040161044890612377565b8051825114610f635760405162461bcd60e51b81526004016104489061225a565b604080516020810190915260009081905233905b835181101561103c576000848281518110610f9457610f946121d2565b602002602001015190506000848381518110610fb257610fb26121d2565b60209081029190910181015160008481526001835260408082206001600160a01b038c1683529093529190912054909150818110156110035760405162461bcd60e51b8152600401610448906123ba565b60009283526001602090815260408085206001600160a01b038b1686529091529092209103905580611034816121fe565b915050610f77565b5060006001600160a01b0316846001600160a01b0316826001600160a01b03167f4a39dc06d4c0dbc64b70af90fd698a233a518aa5d07e595d983b8c0526c8f7fb868660405161108d9291906122ba565b60405180910390a46040805160208101909152600090525b50505050565b6001600160a01b0384166110d15760405162461bcd60e51b815260040161044890612219565b3360006110dd8561170d565b905060006110ea8561170d565b905060008681526001602090815260408083206001600160a01b038b1684529091528120805487929061111e9084906122a2565b909155505060408051878152602081018790526001600160a01b03808a1692600092918716917fc3d58168c5ae7397731d063d5bbf3d657854427343f4c083240f7aacaa2d0f62910160405180910390a461117e83600089898989611758565b50505050505050565b816001600160a01b0316836001600160a01b031614156111fb5760405162461bcd60e51b815260206004820152602960248201527f455243313135353a2073657474696e6720617070726f76616c20737461747573604482015268103337b91039b2b63360b91b6064820152608401610448565b6001600160a01b03838116600081815260026020908152604080832094871680845294825291829020805460ff191686151590811790915591519182527f17307eab39ab6107e8899845ad3d59bd9653f200f220920489ca2b5937696c31910160405180910390a3505050565b611270610ed4565b6004805460ff191660011790557f62e78cea01bee320cd4e420270b5ea74000d11b0c9f74754ebdbfc544b05a258610eb73390565b6001600160a01b0384166112cb5760405162461bcd60e51b8152600401610448906122e8565b3360006112d78561170d565b905060006112e48561170d565b905060008681526001602090815260408083206001600160a01b038c168452909152902054858110156113295760405162461bcd60e51b81526004016104489061232d565b60008781526001602090815260408083206001600160a01b038d8116855292528083208985039055908a168252812080548892906113689084906122a2565b909155505060408051888152602081018890526001600160a01b03808b16928c821692918816917fc3d58168c5ae7397731d063d5bbf3d657854427343f4c083240f7aacaa2d0f62910160405180910390a46113c8848a8a8a8a8a611758565b505050505050505050565b6001600160a01b0383166113f95760405162461bcd60e51b815260040161044890612377565b3360006114058461170d565b905060006114128461170d565b6040805160208082018352600091829052888252600181528282206001600160a01b038b16835290522054909150848110156114605760405162461bcd60e51b8152600401610448906123ba565b60008681526001602090815260408083206001600160a01b038b81168086529184528285208a8703905582518b81529384018a90529092908816917fc3d58168c5ae7397731d063d5bbf3d657854427343f4c083240f7aacaa2d0f62910160405180910390a460408051602081019091526000905261117e565b60006001600160e01b03198216637965db0b60e01b148061048457506301ffc9a760e01b6001600160e01b0319831614610484565b61151982826108f9565b61049e5761152681611813565b611531836020611825565b6040516020016115429291906123fe565b60408051601f198184030181529082905262461bcd60e51b825261044891600401611c20565b6001600160a01b0384163b15610d915760405163bc197c8160e01b81526001600160a01b0385169063bc197c81906115ac9089908990889088908890600401612473565b6020604051808303816000875af19250505080156115e7575060408051601f3d908101601f191682019092526115e4918101906124d1565b60015b611694576115f36124ee565b806308c379a0141561162d575061160861250a565b80611613575061162f565b8060405162461bcd60e51b81526004016104489190611c20565b505b60405162461bcd60e51b815260206004820152603460248201527f455243313135353a207472616e7366657220746f206e6f6e2d455243313135356044820152732932b1b2b4bb32b91034b6b83632b6b2b73a32b960611b6064820152608401610448565b6001600160e01b0319811663bc197c8160e01b1461117e5760405162461bcd60e51b815260040161044890612593565b60045460ff16610f1a5760405162461bcd60e51b815260206004820152601460248201527314185d5cd8589b194e881b9bdd081c185d5cd95960621b6044820152606401610448565b60408051600180825281830190925260609160009190602080830190803683370190505090508281600081518110611747576117476121d2565b602090810291909101015292915050565b6001600160a01b0384163b15610d915760405163f23a6e6160e01b81526001600160a01b0385169063f23a6e619061179c90899089908890889088906004016125db565b6020604051808303816000875af19250505080156117d7575060408051601f3d908101601f191682019092526117d4918101906124d1565b60015b6117e3576115f36124ee565b6001600160e01b0319811663f23a6e6160e01b1461117e5760405162461bcd60e51b815260040161044890612593565b60606104846001600160a01b03831660145b60606000611834836002612620565b61183f9060026122a2565b6001600160401b0381111561185657611856611ad9565b6040519080825280601f01601f191660200182016040528015611880576020820181803683370190505b509050600360fc1b8160008151811061189b5761189b6121d2565b60200101906001600160f81b031916908160001a905350600f60fb1b816001815181106118ca576118ca6121d2565b60200101906001600160f81b031916908160001a90535060006118ee846002612620565b6118f99060016122a2565b90505b6001811115611971576f181899199a1a9b1b9c1cb0b131b232b360811b85600f166010811061192d5761192d6121d2565b1a60f81b828281518110611943576119436121d2565b60200101906001600160f81b031916908160001a90535060049490941c9361196a8161263f565b90506118fc565b5083156119c05760405162461bcd60e51b815260206004820181905260248201527f537472696e67733a20686578206c656e67746820696e73756666696369656e746044820152606401610448565b9392505050565b8280546119d390612149565b90600052602060002090601f0160209004810192826119f55760008555611a3b565b82601f10611a0e57805160ff1916838001178555611a3b565b82800160010185558215611a3b579182015b82811115611a3b578251825591602001919060010190611a20565b50611a47929150611a4b565b5090565b5b80821115611a475760008155600101611a4c565b80356001600160a01b0381168114611a7757600080fd5b919050565b60008060408385031215611a8f57600080fd5b611a9883611a60565b946020939093013593505050565b6001600160e01b03198116811461071c57600080fd5b600060208284031215611ace57600080fd5b81356119c081611aa6565b634e487b7160e01b600052604160045260246000fd5b601f8201601f191681016001600160401b0381118282101715611b1457611b14611ad9565b6040525050565b60006001600160401b03831115611b3457611b34611ad9565b604051611b4b601f8501601f191660200182611aef565b809150838152848484011115611b6057600080fd5b83836020830137600060208583010152509392505050565b600060208284031215611b8a57600080fd5b81356001600160401b03811115611ba057600080fd5b8201601f81018413611bb157600080fd5b611bc084823560208401611b1b565b949350505050565b60005b83811015611be3578181015183820152602001611bcb565b838111156110a55750506000910152565b60008151808452611c0c816020860160208601611bc8565b601f01601f19169290920160200192915050565b6020815260006119c06020830184611bf4565b600060208284031215611c4557600080fd5b5035919050565b60006001600160401b03821115611c6557611c65611ad9565b5060051b60200190565b600082601f830112611c8057600080fd5b81356020611c8d82611c4c565b604051611c9a8282611aef565b83815260059390931b8501820192828101915086841115611cba57600080fd5b8286015b84811015611cd55780358352918301918301611cbe565b509695505050505050565b600082601f830112611cf157600080fd5b6119c083833560208501611b1b565b60008060008060808587031215611d1657600080fd5b611d1f85611a60565b935060208501356001600160401b0380821115611d3b57600080fd5b611d4788838901611c6f565b94506040870135915080821115611d5d57600080fd5b611d6988838901611c6f565b93506060870135915080821115611d7f57600080fd5b50611d8c87828801611ce0565b91505092959194509250565b600080600080600060a08688031215611db057600080fd5b611db986611a60565b9450611dc760208701611a60565b935060408601356001600160401b0380821115611de357600080fd5b611def89838a01611c6f565b94506060880135915080821115611e0557600080fd5b611e1189838a01611c6f565b93506080880135915080821115611e2757600080fd5b50611e3488828901611ce0565b9150509295509295909350565b60008060408385031215611e5457600080fd5b82359150611e6460208401611a60565b90509250929050565b60008060408385031215611e8057600080fd5b82356001600160401b0380821115611e9757600080fd5b818501915085601f830112611eab57600080fd5b81356020611eb882611c4c565b604051611ec58282611aef565b83815260059390931b8501820192828101915089841115611ee557600080fd5b948201945b83861015611f0a57611efb86611a60565b82529482019490820190611eea565b96505086013592505080821115611f2057600080fd5b50611f2d85828601611c6f565b9150509250929050565b600081518084526020808501945080840160005b83811015611f6757815187529582019590820190600101611f4b565b509495945050505050565b6020815260006119c06020830184611f37565b600080600060608486031215611f9a57600080fd5b611fa384611a60565b925060208401356001600160401b0380821115611fbf57600080fd5b611fcb87838801611c6f565b93506040860135915080821115611fe157600080fd5b50611fee86828701611c6f565b9150509250925092565b6000806000806080858703121561200e57600080fd5b61201785611a60565b9350602085013592506040850135915060608501356001600160401b0381111561204057600080fd5b611d8c87828801611ce0565b6000806040838503121561205f57600080fd5b61206883611a60565b91506020830135801515811461207d57600080fd5b809150509250929050565b6000806040838503121561209b57600080fd5b6120a483611a60565b9150611e6460208401611a60565b600080600080600060a086880312156120ca57600080fd5b6120d386611a60565b94506120e160208701611a60565b9350604086013592506060860135915060808601356001600160401b0381111561210a57600080fd5b611e3488828901611ce0565b60008060006060848603121561212b57600080fd5b61213484611a60565b95602085013595506040909401359392505050565b600181811c9082168061215d57607f821691505b6020821081141561217e57634e487b7160e01b600052602260045260246000fd5b50919050565b6020808252602e908201527f455243313135353a2063616c6c6572206973206e6f7420746f6b656e206f776e60408201526d195c881bdc88185c1c1c9bdd995960921b606082015260800190565b634e487b7160e01b600052603260045260246000fd5b634e487b7160e01b600052601160045260246000fd5b6000600019821415612212576122126121e8565b5060010190565b60208082526021908201527f455243313135353a206d696e7420746f20746865207a65726f206164647265736040820152607360f81b606082015260800190565b60208082526028908201527f455243313135353a2069647320616e6420616d6f756e7473206c656e677468206040820152670dad2e6dac2e8c6d60c31b606082015260800190565b600082198211156122b5576122b56121e8565b500190565b6040815260006122cd6040830185611f37565b82810360208401526122df8185611f37565b95945050505050565b60208082526025908201527f455243313135353a207472616e7366657220746f20746865207a65726f206164604082015264647265737360d81b606082015260800190565b6020808252602a908201527f455243313135353a20696e73756666696369656e742062616c616e636520666f60408201526939103a3930b739b332b960b11b606082015260800190565b60208082526023908201527f455243313135353a206275726e2066726f6d20746865207a65726f206164647260408201526265737360e81b606082015260800190565b60208082526024908201527f455243313135353a206275726e20616d6f756e7420657863656564732062616c604082015263616e636560e01b606082015260800190565b7f416363657373436f6e74726f6c3a206163636f756e7420000000000000000000815260008351612436816017850160208801611bc8565b7001034b99036b4b9b9b4b733903937b6329607d1b6017918401918201528351612467816028840160208801611bc8565b01602801949350505050565b6001600160a01b0386811682528516602082015260a06040820181905260009061249f90830186611f37565b82810360608401526124b18186611f37565b905082810360808401526124c58185611bf4565b98975050505050505050565b6000602082840312156124e357600080fd5b81516119c081611aa6565b600060033d11156125075760046000803e5060005160e01c5b90565b600060443d10156125185790565b6040516003193d81016004833e81513d6001600160401b03816024840111818411171561254757505050505090565b828501915081518181111561255f5750505050505090565b843d87010160208285010111156125795750505050505090565b61258860208286010187611aef565b509095945050505050565b60208082526028908201527f455243313135353a204552433131353552656365697665722072656a656374656040820152676420746f6b656e7360c01b606082015260800190565b6001600160a01b03868116825285166020820152604081018490526060810183905260a06080820181905260009061261590830184611bf4565b979650505050505050565b600081600019048311821515161561263a5761263a6121e8565b500290565b60008161264e5761264e6121e8565b50600019019056fea2646970667358221220fd45fecc750964836daeedef6e455ffb2962c1b453473f16975b1ea5153d8a1964736f6c634300080b0033",
  "devdoc": {
    "details": "{ERC1155} token, including:  - ability for holders to burn (destroy) their tokens  - a minter role that allows for token minting (creation)  - a pauser role that allows to stop all token transfers This contract uses {AccessControl} to lock permissioned functions using the different roles - head to its documentation for details. The account that deploys the contract will be granted the minter and pauser roles, as well as the default admin role, which will let it grant both minter and pauser roles to other accounts.",
    "kind": "dev",
    "methods": {
      "balanceOf(address,uint256)": {
        "details": "See {IERC1155-balanceOf}. Requirements: - `account` cannot be the zero address."
      },
      "balanceOfBatch(address[],uint256[])": {
        "details": "See {IERC1155-balanceOfBatch}. Requirements: - `accounts` and `ids` must have the same length."
      },
      "burn(address,uint256,uint256)": {
        "details": "Allows token holders to destroy both their own tokens and those that they have been approved to use. See {ERC1155-_burn}. Requirements: - burning must not be paused."
      },
      "burnBatch(address,uint256[],uint256[])": {
        "details": "xref:ROOT:erc1155.adoc#batch-operations[Batched] variant of {burn}."
      },
      "constructor": {
        "details": "Grants `DEFAULT_ADMIN_ROLE`, `MINTER_ROLE`, and `PAUSER_ROLE` to the account that deploys the contract."
      },
      "getRoleAdmin(bytes32)": {
        "details": "Returns the admin role that controls `role`. See {grantRole} and {revokeRole}. To change a role's admin, use {_setRoleAdmin}."
      },
      "grantRole(bytes32,address)": {
        "details": "Grants `role` to `account`. If `account` had not been already granted `role`, emits a {RoleGranted} event. Requirements: - the caller must have ``role``'s admin role. May emit a {RoleGranted} event."
      },
      "hasRole(bytes32,address)": {
        "details": "Returns `true` if `account` has been granted `role`."
      },
      "isApprovedForAll(address,address)": {
        "details": "See {IERC1155-isApprovedForAll}."
      },
      "mint(address,uint256,uint256,bytes)": {
        "details": "Creates `amount` new tokens for `to`, of token type `id`. See {ERC1155-_mint}. Requirements: - the caller must have the `MINTER_ROLE`."
      },
      "mintBatch(address,uint256[],uint256[],bytes)": {
        "details": "xref:ROOT:erc1155.adoc#batch-operations[Batched] variant of {mint}."
      },
      "pauseBurn()": {
        "details": "Pauses all token burns. See {ERC1155Pausable} and {Pausable-_pause}. Requirements: - the caller must have the `PAUSER_ROLE`."
      },
      "paused()": {
        "details": "Returns true if the contract is paused, and false otherwise."
      },
      "renounceRole(bytes32,address)": {
        "details": "Revokes `role` from the calling account. Roles are often managed via {grantRole} and {revokeRole}: this function's purpose is to provide a mechanism for accounts to lose their privileges if they are compromised (such as when a trusted device is misplaced). If the calling account had been revoked `role`, emits a {RoleRevoked} event. Requirements: - the caller must be `account`. May emit a {RoleRevoked} event."
      },
      "revokeRole(bytes32,address)": {
        "details": "Revokes `role` from `account`. If `account` had been granted `role`, emits a {RoleRevoked} event. Requirements: - the caller must have ``role``'s admin role. May emit a {RoleRevoked} event."
      },
      "safeBatchTransferFrom(address,address,uint256[],uint256[],bytes)": {
        "details": "See {IERC1155-safeBatchTransferFrom}."
      },
      "safeTransferFrom(address,address,uint256,uint256,bytes)": {
        "details": "See {IERC1155-safeTransferFrom}."
      },
      "setApprovalForAll(address,bool)": {
        "details": "See {IERC1155-setApprovalForAll}."
      },
      "setURI(string)": {
        "details": "Updates base token uri See {ERC1155-_setURI}. Requirements: - the caller must have the `DEFAULT_ADMIN_ROLE`."
      },
      "supportsInterface(bytes4)": {
        "details": "See {IERC165-supportsInterface}."
      },
      "unpauseBurn()": {
        "details": "Unpauses all token burns. See {ERC1155Pausable} and {Pausable-_unpause}. Requirements: - the caller must have the `PAUSER_ROLE`."
      },
      "uri(uint256)": {
        "details": "See {IERC1155MetadataURI-uri}. This implementation returns the same URI for *all* token types. It relies on the token type ID substitution mechanism https://eips.ethereum.org/EIPS/eip-1155#metadata[defined in the EIP]. Clients calling this function must replace the `\\{id\\}` substring with the actual token type ID."
      }
    },
    "version": 1
  },
  "userdoc": {
    "kind": "user",
    "methods": {},
    "version": 1
  },
  "storageLayout": {
    "storage": [
      {
        "astId": 6931,
        "contract": "src/contracts/NiftyLaunchComics.sol:NiftyLaunchComics",
        "label": "_roles",
        "offset": 0,
        "slot": "0",
        "type": "t_mapping(t_bytes32,t_struct(RoleData)6926_storage)"
      },
      {
        "astId": 7692,
        "contract": "src/contracts/NiftyLaunchComics.sol:NiftyLaunchComics",
        "label": "_balances",
        "offset": 0,
        "slot": "1",
        "type": "t_mapping(t_uint256,t_mapping(t_address,t_uint256))"
      },
      {
        "astId": 7698,
        "contract": "src/contracts/NiftyLaunchComics.sol:NiftyLaunchComics",
        "label": "_operatorApprovals",
        "offset": 0,
        "slot": "2",
        "type": "t_mapping(t_address,t_mapping(t_address,t_bool))"
      },
      {
        "astId": 7700,
        "contract": "src/contracts/NiftyLaunchComics.sol:NiftyLaunchComics",
        "label": "_uri",
        "offset": 0,
        "slot": "3",
        "type": "t_string_storage"
      },
      {
        "astId": 7576,
        "contract": "src/contracts/NiftyLaunchComics.sol:NiftyLaunchComics",
        "label": "_paused",
        "offset": 0,
        "slot": "4",
        "type": "t_bool"
      },
      {
        "astId": 20157,
        "contract": "src/contracts/NiftyLaunchComics.sol:NiftyLaunchComics",
        "label": "name",
        "offset": 0,
        "slot": "5",
        "type": "t_string_storage"
      },
      {
        "astId": 20160,
        "contract": "src/contracts/NiftyLaunchComics.sol:NiftyLaunchComics",
        "label": "symbol",
        "offset": 0,
        "slot": "6",
        "type": "t_string_storage"
      }
    ],
    "types": {
      "t_address": {
        "encoding": "inplace",
        "label": "address",
        "numberOfBytes": "20"
      },
      "t_bool": {
        "encoding": "inplace",
        "label": "bool",
        "numberOfBytes": "1"
      },
      "t_bytes32": {
        "encoding": "inplace",
        "label": "bytes32",
        "numberOfBytes": "32"
      },
      "t_mapping(t_address,t_bool)": {
        "encoding": "mapping",
        "key": "t_address",
        "label": "mapping(address => bool)",
        "numberOfBytes": "32",
        "value": "t_bool"
      },
      "t_mapping(t_address,t_mapping(t_address,t_bool))": {
        "encoding": "mapping",
        "key": "t_address",
        "label": "mapping(address => mapping(address => bool))",
        "numberOfBytes": "32",
        "value": "t_mapping(t_address,t_bool)"
      },
      "t_mapping(t_address,t_uint256)": {
        "encoding": "mapping",
        "key": "t_address",
        "label": "mapping(address => uint256)",
        "numberOfBytes": "32",
        "value": "t_uint256"
      },
      "t_mapping(t_bytes32,t_struct(RoleData)6926_storage)": {
        "encoding": "mapping",
        "key": "t_bytes32",
        "label": "mapping(bytes32 => struct AccessControl.RoleData)",
        "numberOfBytes": "32",
        "value": "t_struct(RoleData)6926_storage"
      },
      "t_mapping(t_uint256,t_mapping(t_address,t_uint256))": {
        "encoding": "mapping",
        "key": "t_uint256",
        "label": "mapping(uint256 => mapping(address => uint256))",
        "numberOfBytes": "32",
        "value": "t_mapping(t_address,t_uint256)"
      },
      "t_string_storage": {
        "encoding": "bytes",
        "label": "string",
        "numberOfBytes": "32"
      },
      "t_struct(RoleData)6926_storage": {
        "encoding": "inplace",
        "label": "struct AccessControl.RoleData",
        "members": [
          {
            "astId": 6923,
            "contract": "src/contracts/NiftyLaunchComics.sol:NiftyLaunchComics",
            "label": "members",
            "offset": 0,
            "slot": "0",
            "type": "t_mapping(t_address,t_bool)"
          },
          {
            "astId": 6925,
            "contract": "src/contracts/NiftyLaunchComics.sol:NiftyLaunchComics",
            "label": "adminRole",
            "offset": 0,
            "slot": "1",
            "type": "t_bytes32"
          }
        ],
        "numberOfBytes": "64"
      },
      "t_uint256": {
        "encoding": "inplace",
        "label": "uint256",
        "numberOfBytes": "32"
      }
    }
  }
}