{
  "address": "0x6adFF2BB4A465A885425e3bd4304A78BB659B12e",
  "abi": [
    {
      "inputs": [
        {
          "internalType": "address",
          "name": "nftlAddress",
          "type": "address"
        },
        {
          "internalType": "address",
          "name": "storageAddress",
          "type": "address"
        }
      ],
      "stateMutability": "nonpayable",
      "type": "constructor"
    },
    {
      "anonymous": false,
      "inputs": [
        {
          "indexed": true,
          "internalType": "address",
          "name": "owner",
          "type": "address"
        },
        {
          "indexed": true,
          "internalType": "address",
          "name": "approved",
          "type": "address"
        },
        {
          "indexed": true,
          "internalType": "uint256",
          "name": "tokenId",
          "type": "uint256"
        }
      ],
      "name": "Approval",
      "type": "event"
    },
    {
      "anonymous": false,
      "inputs": [
        {
          "indexed": true,
          "internalType": "address",
          "name": "owner",
          "type": "address"
        },
        {
          "indexed": true,
          "internalType": "address",
          "name": "operator",
          "type": "address"
        },
        {
          "indexed": false,
          "internalType": "bool",
          "name": "approved",
          "type": "bool"
        }
      ],
      "name": "ApprovalForAll",
      "type": "event"
    },
    {
      "anonymous": false,
      "inputs": [
        {
          "indexed": true,
          "internalType": "uint256",
          "name": "tokenId",
          "type": "uint256"
        },
        {
          "indexed": false,
          "internalType": "string",
          "name": "previousName",
          "type": "string"
        },
        {
          "indexed": false,
          "internalType": "string",
          "name": "newName",
          "type": "string"
        }
      ],
      "name": "NameUpdated",
      "type": "event"
    },
    {
      "anonymous": false,
      "inputs": [
        {
          "indexed": true,
          "internalType": "address",
          "name": "previousOwner",
          "type": "address"
        },
        {
          "indexed": true,
          "internalType": "address",
          "name": "newOwner",
          "type": "address"
        }
      ],
      "name": "OwnershipTransferred",
      "type": "event"
    },
    {
      "anonymous": false,
      "inputs": [
        {
          "indexed": false,
          "internalType": "address",
          "name": "account",
          "type": "address"
        }
      ],
      "name": "Paused",
      "type": "event"
    },
    {
      "anonymous": false,
      "inputs": [
        {
          "indexed": true,
          "internalType": "address",
          "name": "from",
          "type": "address"
        },
        {
          "indexed": true,
          "internalType": "address",
          "name": "to",
          "type": "address"
        },
        {
          "indexed": true,
          "internalType": "uint256",
          "name": "tokenId",
          "type": "uint256"
        }
      ],
      "name": "Transfer",
      "type": "event"
    },
    {
      "anonymous": false,
      "inputs": [
        {
          "indexed": false,
          "internalType": "address",
          "name": "account",
          "type": "address"
        }
      ],
      "name": "Unpaused",
      "type": "event"
    },
    {
      "inputs": [],
      "name": "MAX_SUPPLY",
      "outputs": [
        {
          "internalType": "uint256",
          "name": "",
          "type": "uint256"
        }
      ],
      "stateMutability": "view",
      "type": "function"
    },
    {
      "inputs": [],
      "name": "NAME_CHANGE_PRICE",
      "outputs": [
        {
          "internalType": "uint256",
          "name": "",
          "type": "uint256"
        }
      ],
      "stateMutability": "view",
      "type": "function"
    },
    {
      "inputs": [],
      "name": "SPECIAL_CHARACTERS",
      "outputs": [
        {
          "internalType": "uint256",
          "name": "",
          "type": "uint256"
        }
      ],
      "stateMutability": "view",
      "type": "function"
    },
    {
      "inputs": [
        {
          "internalType": "address",
          "name": "to",
          "type": "address"
        },
        {
          "internalType": "uint256",
          "name": "tokenId",
          "type": "uint256"
        }
      ],
      "name": "approve",
      "outputs": [],
      "stateMutability": "nonpayable",
      "type": "function"
    },
    {
      "inputs": [
        {
          "internalType": "address",
          "name": "owner",
          "type": "address"
        }
      ],
      "name": "balanceOf",
      "outputs": [
        {
          "internalType": "uint256",
          "name": "",
          "type": "uint256"
        }
      ],
      "stateMutability": "view",
      "type": "function"
    },
    {
      "inputs": [
        {
          "internalType": "uint256",
          "name": "tokenId",
          "type": "uint256"
        },
        {
          "internalType": "string",
          "name": "newName",
          "type": "string"
        }
      ],
      "name": "changeName",
      "outputs": [
        {
          "internalType": "string",
          "name": "",
          "type": "string"
        }
      ],
      "stateMutability": "nonpayable",
      "type": "function"
    },
    {
      "inputs": [
        {
          "internalType": "uint256",
          "name": "tokenId",
          "type": "uint256"
        }
      ],
      "name": "getApproved",
      "outputs": [
        {
          "internalType": "address",
          "name": "",
          "type": "address"
        }
      ],
      "stateMutability": "view",
      "type": "function"
    },
    {
      "inputs": [
        {
          "internalType": "uint256",
          "name": "tokenId",
          "type": "uint256"
        }
      ],
      "name": "getCharacterTraits",
      "outputs": [
        {
          "components": [
            {
              "internalType": "uint16",
              "name": "tribe",
              "type": "uint16"
            },
            {
              "internalType": "uint16",
              "name": "skinColor",
              "type": "uint16"
            },
            {
              "internalType": "uint16",
              "name": "furColor",
              "type": "uint16"
            },
            {
              "internalType": "uint16",
              "name": "eyeColor",
              "type": "uint16"
            },
            {
              "internalType": "uint16",
              "name": "pupilColor",
              "type": "uint16"
            },
            {
              "internalType": "uint16",
              "name": "hair",
              "type": "uint16"
            },
            {
              "internalType": "uint16",
              "name": "mouth",
              "type": "uint16"
            },
            {
              "internalType": "uint16",
              "name": "beard",
              "type": "uint16"
            },
            {
              "internalType": "uint16",
              "name": "top",
              "type": "uint16"
            },
            {
              "internalType": "uint16",
              "name": "outerwear",
              "type": "uint16"
            },
            {
              "internalType": "uint16",
              "name": "print",
              "type": "uint16"
            },
            {
              "internalType": "uint16",
              "name": "bottom",
              "type": "uint16"
            },
            {
              "internalType": "uint16",
              "name": "footwear",
              "type": "uint16"
            },
            {
              "internalType": "uint16",
              "name": "belt",
              "type": "uint16"
            },
            {
              "internalType": "uint16",
              "name": "hat",
              "type": "uint16"
            },
            {
              "internalType": "uint16",
              "name": "eyewear",
              "type": "uint16"
            },
            {
              "internalType": "uint16",
              "name": "piercing",
              "type": "uint16"
            },
            {
              "internalType": "uint16",
              "name": "wrist",
              "type": "uint16"
            },
            {
              "internalType": "uint16",
              "name": "hands",
              "type": "uint16"
            },
            {
              "internalType": "uint16",
              "name": "neckwear",
              "type": "uint16"
            },
            {
              "internalType": "uint16",
              "name": "leftItem",
              "type": "uint16"
            },
            {
              "internalType": "uint16",
              "name": "rightItem",
              "type": "uint16"
            }
          ],
          "internalType": "struct NiftyLeagueCharacter.CharacterTraits",
          "name": "_characterTraits",
          "type": "tuple"
        }
      ],
      "stateMutability": "view",
      "type": "function"
    },
    {
      "inputs": [],
      "name": "getNFTPrice",
      "outputs": [
        {
          "internalType": "uint256",
          "name": "",
          "type": "uint256"
        }
      ],
      "stateMutability": "view",
      "type": "function"
    },
    {
      "inputs": [
        {
          "internalType": "uint256",
          "name": "tokenId",
          "type": "uint256"
        }
      ],
      "name": "getName",
      "outputs": [
        {
          "internalType": "string",
          "name": "",
          "type": "string"
        }
      ],
      "stateMutability": "view",
      "type": "function"
    },
    {
      "inputs": [],
      "name": "getRemovedTraits",
      "outputs": [
        {
          "internalType": "uint16[]",
          "name": "",
          "type": "uint16[]"
        }
      ],
      "stateMutability": "view",
      "type": "function"
    },
    {
      "inputs": [],
      "name": "initPoolSizes",
      "outputs": [],
      "stateMutability": "nonpayable",
      "type": "function"
    },
    {
      "inputs": [
        {
          "internalType": "address",
          "name": "owner",
          "type": "address"
        },
        {
          "internalType": "address",
          "name": "operator",
          "type": "address"
        }
      ],
      "name": "isApprovedForAll",
      "outputs": [
        {
          "internalType": "bool",
          "name": "",
          "type": "bool"
        }
      ],
      "stateMutability": "view",
      "type": "function"
    },
    {
      "inputs": [
        {
          "internalType": "uint256",
          "name": "tribe",
          "type": "uint256"
        },
        {
          "internalType": "uint256",
          "name": "trait",
          "type": "uint256"
        }
      ],
      "name": "isAvailableAndAllowedTrait",
      "outputs": [
        {
          "internalType": "bool",
          "name": "",
          "type": "bool"
        }
      ],
      "stateMutability": "view",
      "type": "function"
    },
    {
      "inputs": [
        {
          "internalType": "uint256",
          "name": "trait",
          "type": "uint256"
        }
      ],
      "name": "isAvailableTrait",
      "outputs": [
        {
          "internalType": "bool",
          "name": "",
          "type": "bool"
        }
      ],
      "stateMutability": "view",
      "type": "function"
    },
    {
      "inputs": [
        {
          "internalType": "string",
          "name": "nameString",
          "type": "string"
        }
      ],
      "name": "isNameReserved",
      "outputs": [
        {
          "internalType": "bool",
          "name": "",
          "type": "bool"
        }
      ],
      "stateMutability": "view",
      "type": "function"
    },
    {
      "inputs": [
        {
          "internalType": "uint256",
          "name": "traitCombo",
          "type": "uint256"
        }
      ],
      "name": "isUnique",
      "outputs": [
        {
          "internalType": "bool",
          "name": "",
          "type": "bool"
        }
      ],
      "stateMutability": "view",
      "type": "function"
    },
    {
      "inputs": [],
      "name": "name",
      "outputs": [
        {
          "internalType": "string",
          "name": "",
          "type": "string"
        }
      ],
      "stateMutability": "view",
      "type": "function"
    },
    {
      "inputs": [
        {
          "internalType": "uint256",
          "name": "newPrice",
          "type": "uint256"
        }
      ],
      "name": "overrideMintPrice",
      "outputs": [],
      "stateMutability": "nonpayable",
      "type": "function"
    },
    {
      "inputs": [],
      "name": "owner",
      "outputs": [
        {
          "internalType": "address",
          "name": "",
          "type": "address"
        }
      ],
      "stateMutability": "view",
      "type": "function"
    },
    {
      "inputs": [
        {
          "internalType": "uint256",
          "name": "tokenId",
          "type": "uint256"
        }
      ],
      "name": "ownerOf",
      "outputs": [
        {
          "internalType": "address",
          "name": "",
          "type": "address"
        }
      ],
      "stateMutability": "view",
      "type": "function"
    },
    {
      "inputs": [],
      "name": "pauseMinting",
      "outputs": [],
      "stateMutability": "nonpayable",
      "type": "function"
    },
    {
      "inputs": [],
      "name": "paused",
      "outputs": [
        {
          "internalType": "bool",
          "name": "",
          "type": "bool"
        }
      ],
      "stateMutability": "view",
      "type": "function"
    },
    {
      "inputs": [
        {
          "internalType": "uint256[5]",
          "name": "character",
          "type": "uint256[5]"
        },
        {
          "internalType": "uint256[3]",
          "name": "head",
          "type": "uint256[3]"
        },
        {
          "internalType": "uint256[6]",
          "name": "clothing",
          "type": "uint256[6]"
        },
        {
          "internalType": "uint256[6]",
          "name": "accessories",
          "type": "uint256[6]"
        },
        {
          "internalType": "uint256[2]",
          "name": "items",
          "type": "uint256[2]"
        }
      ],
      "name": "purchase",
      "outputs": [],
      "stateMutability": "payable",
      "type": "function"
    },
    {
      "inputs": [],
      "name": "renounceOwnership",
      "outputs": [],
      "stateMutability": "nonpayable",
      "type": "function"
    },
    {
      "inputs": [
        {
          "internalType": "address",
          "name": "from",
          "type": "address"
        },
        {
          "internalType": "address",
          "name": "to",
          "type": "address"
        },
        {
          "internalType": "uint256",
          "name": "tokenId",
          "type": "uint256"
        }
      ],
      "name": "safeTransferFrom",
      "outputs": [],
      "stateMutability": "nonpayable",
      "type": "function"
    },
    {
      "inputs": [
        {
          "internalType": "address",
          "name": "from",
          "type": "address"
        },
        {
          "internalType": "address",
          "name": "to",
          "type": "address"
        },
        {
          "internalType": "uint256",
          "name": "tokenId",
          "type": "uint256"
        },
        {
          "internalType": "bytes",
          "name": "data",
          "type": "bytes"
        }
      ],
      "name": "safeTransferFrom",
      "outputs": [],
      "stateMutability": "nonpayable",
      "type": "function"
    },
    {
      "inputs": [
        {
          "internalType": "address",
          "name": "operator",
          "type": "address"
        },
        {
          "internalType": "bool",
          "name": "approved",
          "type": "bool"
        }
      ],
      "name": "setApprovalForAll",
      "outputs": [],
      "stateMutability": "nonpayable",
      "type": "function"
    },
    {
      "inputs": [
        {
          "internalType": "string",
          "name": "baseURI",
          "type": "string"
        }
      ],
      "name": "setBaseURI",
      "outputs": [],
      "stateMutability": "nonpayable",
      "type": "function"
    },
    {
      "inputs": [
        {
          "internalType": "bytes4",
          "name": "interfaceId",
          "type": "bytes4"
        }
      ],
      "name": "supportsInterface",
      "outputs": [
        {
          "internalType": "bool",
          "name": "",
          "type": "bool"
        }
      ],
      "stateMutability": "view",
      "type": "function"
    },
    {
      "inputs": [],
      "name": "symbol",
      "outputs": [
        {
          "internalType": "string",
          "name": "",
          "type": "string"
        }
      ],
      "stateMutability": "view",
      "type": "function"
    },
    {
      "inputs": [
        {
          "internalType": "uint256",
          "name": "tokenId",
          "type": "uint256"
        }
      ],
      "name": "tokenURI",
      "outputs": [
        {
          "internalType": "string",
          "name": "",
          "type": "string"
        }
      ],
      "stateMutability": "view",
      "type": "function"
    },
    {
      "inputs": [],
      "name": "totalSupply",
      "outputs": [
        {
          "internalType": "uint256",
          "name": "_value",
          "type": "uint256"
        }
      ],
      "stateMutability": "view",
      "type": "function"
    },
    {
      "inputs": [
        {
          "internalType": "address",
          "name": "from",
          "type": "address"
        },
        {
          "internalType": "address",
          "name": "to",
          "type": "address"
        },
        {
          "internalType": "uint256",
          "name": "tokenId",
          "type": "uint256"
        }
      ],
      "name": "transferFrom",
      "outputs": [],
      "stateMutability": "nonpayable",
      "type": "function"
    },
    {
      "inputs": [
        {
          "internalType": "address",
          "name": "newOwner",
          "type": "address"
        }
      ],
      "name": "transferOwnership",
      "outputs": [],
      "stateMutability": "nonpayable",
      "type": "function"
    },
    {
      "inputs": [],
      "name": "unpauseMinting",
      "outputs": [],
      "stateMutability": "nonpayable",
      "type": "function"
    },
    {
      "inputs": [
        {
          "internalType": "string",
          "name": "newName",
          "type": "string"
        }
      ],
      "name": "validateName",
      "outputs": [
        {
          "internalType": "bool",
          "name": "",
          "type": "bool"
        }
      ],
      "stateMutability": "pure",
      "type": "function"
    },
    {
      "inputs": [],
      "name": "withdraw",
      "outputs": [],
      "stateMutability": "nonpayable",
      "type": "function"
    }
  ],
  "transactionHash": "0x505044faf21f537972aa11dbe98b26bd41436b42e149b725c3515fe1b106be93",
  "args": [
    "0x0d312E74ba71bff163A07DdD2b6847CefF49dD1e",
    "0x04301173892453559083C92B62a12A23aD55E646"
  ],
  "numDeployments": 1,
  "solcInputHash": "ea47cf34980cfea3667c7ff375b20ac9",
  "bytecode": "0x60e06040819052600060c08190526200001b91600f9162000151565b503480156200002957600080fd5b50604051620046cd380380620046cd8339810160408190526200004c9162000214565b604080518082018252600a8152692734b33a3ca232b3b2b760b11b6020808301918252835180850190945260058452642222a3a2a760d91b90840152815185939183918391620000a0916000919062000151565b508051620000b690600190602084019062000151565b505050620000d3620000cd620000fb60201b60201c565b620000ff565b50506006805460ff60a01b191690556001600160a01b039081166080521660a0525062000289565b3390565b600680546001600160a01b038381166001600160a01b0319831681179093556040519116919082907f8be0079c531659141344cd1fd0a4f28419497f9722a3daafe3b4186f6b6457e090600090a35050565b8280546200015f906200024c565b90600052602060002090601f016020900481019282620001835760008555620001ce565b82601f106200019e57805160ff1916838001178555620001ce565b82800160010185558215620001ce579182015b82811115620001ce578251825591602001919060010190620001b1565b50620001dc929150620001e0565b5090565b5b80821115620001dc5760008155600101620001e1565b80516001600160a01b03811681146200020f57600080fd5b919050565b600080604083850312156200022857600080fd5b6200023383620001f7565b91506200024360208401620001f7565b90509250929050565b600181811c908216806200026157607f821691505b602082108114156200028357634e487b7160e01b600052602260045260246000fd5b50919050565b60805160a05161441e620002af6000396000611e090152600061199b015261441e6000f3fe6080604052600436106102255760003560e01c806370a0823111610123578063b88d4fde116100ab578063e13cae401161006f578063e13cae4014610652578063e985e9c514610667578063f2fde38b146106b0578063fb107a4f146106d0578063ff88dea9146106e557600080fd5b8063b88d4fde146105bd578063c39cbef1146105dd578063c87b56dd146105fd578063d92559ad1461061d578063da8fbf2a1461063d57600080fd5b806395d89b41116100f257806395d89b41146105265780639b046ed31461053b5780639ffdb65a14610568578063a22cb46514610588578063ae200322146105a857600080fd5b806370a08231146104c0578063715018a6146104e057806372c9f580146104f55780638da5cb5b1461050857600080fd5b806318160ddd116101b157806354b6f1611161017557806354b6f1611461042457806355f804b3146104415780635c975abb146104615780636352211e146104805780636b8ff574146104a057600080fd5b806318160ddd1461039457806323b872dd146103b957806332cb6b0c146103d95780633ccfd60b146103ef57806342842e0e1461040457600080fd5b8063081812fc116101f8578063081812fc146102c9578063095ea7b31461030157806315b56d10146103215780631656efc61461034157806317bed2c51461037257600080fd5b80630194cf121461022a57806301ffc9a71461024157806306fdde03146102765780630750d2fb14610298575b600080fd5b34801561023657600080fd5b5061023f610705565b005b34801561024d57600080fd5b5061026161025c3660046139e8565b61097d565b60405190151581526020015b60405180910390f35b34801561028257600080fd5b5061028b6109cf565b60405161026d9190613a5d565b3480156102a457600080fd5b506102616102b3366004613a70565b60009081526008602052604090205460ff161590565b3480156102d557600080fd5b506102e96102e4366004613a70565b610a61565b6040516001600160a01b03909116815260200161026d565b34801561030d57600080fd5b5061023f61031c366004613aa5565b610a88565b34801561032d57600080fd5b5061026161033c366004613ba4565b610ba3565b34801561034d57600080fd5b5061026161035c366004613a70565b60009081526009602052604090205460ff161590565b34801561037e57600080fd5b50610387610bd6565b60405161026d9190613bd9565b3480156103a057600080fd5b50600c546103ab9081565b60405190815260200161026d565b3480156103c557600080fd5b5061023f6103d4366004613c21565b610c55565b3480156103e557600080fd5b506103ab61271081565b3480156103fb57600080fd5b5061023f610c86565b34801561041057600080fd5b5061023f61041f366004613c21565b610cc1565b34801561043057600080fd5b506103ab683635c9adc5dea0000081565b34801561044d57600080fd5b5061023f61045c366004613ba4565b610cdc565b34801561046d57600080fd5b50600654600160a01b900460ff16610261565b34801561048c57600080fd5b506102e961049b366004613a70565b610cf7565b3480156104ac57600080fd5b5061028b6104bb366004613a70565b610d57565b3480156104cc57600080fd5b506103ab6104db366004613c5d565b610e1f565b3480156104ec57600080fd5b5061023f610ea5565b61023f610503366004613d83565b610eb9565b34801561051457600080fd5b506006546001600160a01b03166102e9565b34801561053257600080fd5b5061028b6110cb565b34801561054757600080fd5b5061055b610556366004613a70565b6110da565b60405161026d9190613e4b565b34801561057457600080fd5b50610261610583366004613ba4565b61149d565b34801561059457600080fd5b5061023f6105a3366004613fc3565b61169e565b3480156105b457600080fd5b5061023f6116a9565b3480156105c957600080fd5b5061023f6105d8366004613ffa565b6116b9565b3480156105e957600080fd5b5061028b6105f8366004614076565b6116f1565b34801561060957600080fd5b5061028b610618366004613a70565b611b69565b34801561062957600080fd5b5061023f610638366004613a70565b611bd0565b34801561064957600080fd5b5061023f611bdd565b34801561065e57600080fd5b506103ab606481565b34801561067357600080fd5b506102616106823660046140bd565b6001600160a01b03918216600090815260056020908152604080832093909416825291909152205460ff1690565b3480156106bc57600080fd5b5061023f6106cb366004613c5d565b611bed565b3480156106dc57600080fd5b506103ab611c66565b3480156106f157600080fd5b506102616107003660046140f0565b611dbc565b61070d611e86565b600d60205260717fa5049387d9cb649c59f4bda666105ba636c2a103d8e2b232ba4d125737cd214955600e7fa48544818c2c710afa9849c61ec9c60e8acdb3eaa2885f33b37e118cc8fd04ac55603f7fb91432bedff11256dbe14161d3606a2657bc9dacf8742f6b817d871dd53fb9765560637f0b705463cf5f7356780ee6e96132d37412c1b5816a4d207b8dcd42c34976745755604c7f7b6f1ece0cbe5122a575776770f0494c2d57ed2a50e36c2ba0d811d70ee03b645560297fba9d637f252776d5e1b3534bbd7554a1265a4ef0539d9ca50abe118598a6973c5560657f52c2086a203f40e709b1346663401f6c737b2fce5878601fcf875b047fed5fb65560257fe399baa2fabbab2a0309615b124a802277bab50ec0ca3452a00889e216c4b902819055600c7fe0af3347aa7e5af384208c9d29458f902f0ceddbc90963608afa77235658b360819055602b7f154ef5b709dcdc8b49a2af6408b8a1af209c39b5fa796f03680257c97692546e5560327f52fb6a28cb3c239105f8f829bc7376f939b6bfb040c470bdc2bda0af2e784b9455600a7f01a49be1e7ea084651fd665847100d28826db0b17160863a99534933cbbd2dce557f6fbf3b49b523bc27464b7dbfa6311951351b1d3efd07aa2ee4d1ce319801a0ce5560197f0a206051e911305809ddd48cf2baa7ead2c7fb038e505e1d02f9e6c2ce72930c557f1341e158d1184a2eb4edb96b016176e1c5ad075baae6651557fb93ae3925007a55605c7fdd2af3330d298808a303a10bc360333536e7697099bb3fe7200b0c272de6655855601560005260307f35c0ef8c6f7488ebe28ad34a3af68b3aa3aea0693e227054e9ec90bd504f66d255565b60006001600160e01b031982166380ac58cd60e01b14806109ae57506001600160e01b03198216635b5e139f60e01b145b806109c957506301ffc9a760e01b6001600160e01b03198316145b92915050565b6060600080546109de90614112565b80601f0160208091040260200160405190810160405280929190818152602001828054610a0a90614112565b8015610a575780601f10610a2c57610100808354040283529160200191610a57565b820191906000526020600020905b815481529060010190602001808311610a3a57829003601f168201915b5050505050905090565b6000610a6c82611ee0565b506000908152600460205260409020546001600160a01b031690565b6000610a9382610cf7565b9050806001600160a01b0316836001600160a01b03161415610b065760405162461bcd60e51b815260206004820152602160248201527f4552433732313a20617070726f76616c20746f2063757272656e74206f776e656044820152603960f91b60648201526084015b60405180910390fd5b336001600160a01b0382161480610b225750610b228133610682565b610b945760405162461bcd60e51b815260206004820152603d60248201527f4552433732313a20617070726f76652063616c6c6572206973206e6f7420746f60448201527f6b656e206f776e6572206f7220617070726f76656420666f7220616c6c0000006064820152608401610afd565b610b9e8383611f30565b505050565b6000600b610bb083611f9e565b604051610bbd919061414d565b9081526040519081900360200190205460ff1692915050565b6060600a805480602002602001604051908101604052809291908181526020018280548015610a5757602002820191906000526020600020906000905b82829054906101000a900461ffff1661ffff1681526020019060020190602082600101049283019260010382029150808411610c135790505050505050905090565b610c5f3382612101565b610c7b5760405162461bcd60e51b8152600401610afd90614169565b610b9e83838361217f565b610c8e611e86565b6040514790339082156108fc029083906000818181858888f19350505050158015610cbd573d6000803e3d6000fd5b5050565b610b9e838383604051806020016040528060008152506116b9565b610ce4611e86565b8051610cbd90600f906020840190613939565b6000818152600260205260408120546001600160a01b0316806109c95760405162461bcd60e51b8152602060048201526018602482015277115490cdcc8c4e881a5b9d985b1a59081d1bdad95b88125160421b6044820152606401610afd565b6060610d62826122e3565b610d7e5760405162461bcd60e51b8152600401610afd906141b6565b60008281526007602052604090206001018054610d9a90614112565b80601f0160208091040260200160405190810160405280929190818152602001828054610dc690614112565b8015610e135780601f10610de857610100808354040283529160200191610e13565b820191906000526020600020905b815481529060010190602001808311610df657829003601f168201915b50505050509050919050565b60006001600160a01b038216610e895760405162461bcd60e51b815260206004820152602960248201527f4552433732313a2061646472657373207a65726f206973206e6f7420612076616044820152683634b21037bbb732b960b91b6064820152608401610afd565b506001600160a01b031660009081526003602052604090205490565b610ead611e86565b610eb76000612300565b565b610ec1612352565b6000610ecc600c5490565b9050600381101580610ee857506006546001600160a01b031633145b610f2b5760405162461bcd60e51b815260206004820152601460248201527314d85b19481a185cc81b9bdd081cdd185c9d195960621b6044820152606401610afd565b610f33611c66565b3414610f795760405162461bcd60e51b8152602060048201526015602482015274115d1a195c881d985b1d59481a5b98dbdc9c9958dd605a1b6044820152606401610afd565b610f86868686868661239f565b60006110b78787878787600080868160200201519050600a8760016020020151901b1760148760026020020151901b17601e8760036020020151901b1760288760046020020151901b1760328660006020020151901b17603c8660016020020151901b1760468660026020020151901b1760508560006020020151901b17605a8560016020020151901b1760648560026020020151901b17606e8560036020020151901b1760788560046020020151901b1760828560056020020151901b17608c8460006020020151901b1760968460016020020151901b1760a08460026020020151901b1760aa8460036020020151901b1760b48460046020020151901b1760be8460056020020151901b1760c88360006020020151901b1760d28360016020020151901b179695505050505050565b90506110c2816131d2565b50505050505050565b6060600180546109de90614112565b604080516102c081018252600080825260208201819052918101829052606081018290526080810182905260a0810182905260c0810182905260e08101829052610100810182905261012081018290526101408101829052610160810182905261018081018290526101a081018290526101c081018290526101e08101829052610200810182905261022081018290526102408101829052610260810182905261028081018290526102a0810191909152611194826122e3565b6111b05760405162461bcd60e51b8152600401610afd906141b6565b600060076000848152602001908152602001600020604051806040016040529081600082015481526020016001820180546111ea90614112565b80601f016020809104026020016040519081016040528092919081815260200182805461121690614112565b80156112635780601f1061123857610100808354040283529160200191611263565b820191906000526020600020905b81548152906001019060200180831161124657829003601f168201915b5050509190925250508151919250506103ff1661ffff168252805161128c90600a1c6103ff1690565b61ffff16602083015280516112a59060141c6103ff1690565b61ffff16604083015280516112be90601e1c6103ff1690565b61ffff16606083015280516112d79060281c6103ff1690565b61ffff16608083015280516112f09060321c6103ff1690565b61ffff1660a0830152805161130990603c1c6103ff1690565b61ffff1660c083015280516113229060461c6103ff1690565b61ffff1660e0830152805161133b9060501c6103ff1690565b61ffff16610100830152805161135590605a1c6103ff1690565b61ffff16610120830152805161136f9060641c6103ff1690565b61ffff16610140830152805161138990606e1c6103ff1690565b61ffff1661016083015280516113a39060781c6103ff1690565b61ffff1661018083015280516113bd9060821c6103ff1690565b61ffff166101a083015280516113d790608c1c6103ff1690565b61ffff166101c083015280516113f19060961c6103ff1690565b61ffff166101e0830152805161140b9060a01c6103ff1690565b61ffff1661020083015280516114259060aa1c6103ff1690565b61ffff16610220830152805161143f9060b41c6103ff1690565b61ffff1661024083015280516114599060be1c6103ff1690565b61ffff1661026083015280516114739060c81c6103ff1690565b61ffff16610280830152805161148d9060d21c6103ff1690565b61ffff166102a083015250919050565b6000808290506001815110806114b4575060208151115b156114c25750600092915050565b806000815181106114d5576114d56141e1565b6020910101516001600160f81b031916600160fd1b148061152757508060018251611500919061420d565b81518110611510576115106141e1565b6020910101516001600160f81b031916600160fd1b145b156115355750600092915050565b60008160008151811061154a5761154a6141e1565b01602001516001600160f81b031916905060005b825181101561169357600083828151811061157b5761157b6141e1565b01602001516001600160f81b0319169050600160fd1b811480156115ac5750600160fd1b6001600160f81b03198416145b156115bd5750600095945050505050565b600360fc1b6001600160f81b03198216108015906115e95750603960f81b6001600160f81b0319821611155b15801561161f5750604160f81b6001600160f81b031982161080159061161d5750602d60f91b6001600160f81b0319821611155b155b80156116545750606160f81b6001600160f81b03198216108015906116525750603d60f91b6001600160f81b0319821611155b155b801561166e5750600160fd1b6001600160f81b0319821614155b1561167f5750600095945050505050565b91508061168b81614224565b91505061155e565b506001949350505050565b610cbd3383836132c7565b6116b1611e86565b610eb7613396565b6116c33383612101565b6116df5760405162461bcd60e51b8152600401610afd90614169565b6116eb848484846133eb565b50505050565b60606116fc836122e3565b6117185760405162461bcd60e51b8152600401610afd906141b6565b6117223384612101565b61176e5760405162461bcd60e51b815260206004820181905260248201527f43616c6c6572206973206e6f74206f776e6572206e6f7220617070726f7665646044820152606401610afd565b6000838152600760205260408120600101805461178a90614112565b80601f01602080910402602001604051908101604052809291908181526020018280546117b690614112565b80156118035780601f106117d857610100808354040283529160200191611803565b820191906000526020600020905b8154815290600101906020018083116117e657829003601f168201915b5050505050905060028160405161181a919061414d565b602060405180830381855afa158015611837573d6000803e3d6000fd5b5050506040513d601f19601f8201168201806040525081019061185a919061423f565b60028460405161186a919061414d565b602060405180830381855afa158015611887573d6000803e3d6000fd5b5050506040513d601f19601f820116820180604052508101906118aa919061423f565b14156118f85760405162461bcd60e51b815260206004820152601f60248201527f4e6577206e616d6520616e64206f6c64206e616d652061726520657175616c006044820152606401610afd565b6119018361149d565b6119435760405162461bcd60e51b815260206004820152601360248201527213985b59481a5cc81b9bdd08185b1b1bddd959606a1b6044820152606401610afd565b61194c83610ba3565b156119915760405162461bcd60e51b815260206004820152601560248201527413985b5948185b1c9958591e481c995cd95c9d9959605a1b6044820152606401610afd565b6001600160a01b037f0000000000000000000000000000000000000000000000000000000000000000166379cc6790336040516001600160e01b031960e084901b1681526001600160a01b039091166004820152683635c9adc5dea000006024820152604401600060405180830381600087803b158015611a1157600080fd5b505af1158015611a25573d6000803e3d6000fd5b5050506000858152600760205260408120600101805491925090611a4890614112565b90501115611af65760008481526007602052604090206001018054611af69190611a7190614112565b80601f0160208091040260200160405190810160405280929190818152602001828054611a9d90614112565b8015611aea5780601f10611abf57610100808354040283529160200191611aea565b820191906000526020600020905b815481529060010190602001808311611acd57829003601f168201915b5050505050600061341e565b611b0183600161341e565b60008481526007602090815260409091208451611b2692600190920191860190613939565b50837f8eff5208043d31f23e348dc06be3a80821505e5b3e0002e9fa1185f5d47eac598285604051611b59929190614258565b60405180910390a2509092915050565b6060611b7482611ee0565b6000611b7e61345b565b90506000815111611b9e5760405180602001604052806000815250611bc9565b80611ba88461346a565b604051602001611bb9929190614286565b6040516020818303038152906040525b9392505050565b611bd8611e86565b600e55565b611be5611e86565b610eb76134ff565b611bf5611e86565b6001600160a01b038116611c5a5760405162461bcd60e51b815260206004820152602660248201527f4f776e61626c653a206e6577206f776e657220697320746865207a65726f206160448201526564647265737360d01b6064820152608401610afd565b611c6381612300565b50565b600080611c72600c5490565b9050611c81606461271061420d565b811080611ca457506006546001600160a01b031633148015611ca4575061271081105b611ce95760405162461bcd60e51b815260206004820152601660248201527514d85b19481a185cc8185b1c9958591e48195b99195960521b6044820152606401610afd565b6006546001600160a01b0316331415611d0457600091505090565b67011c37937e080000600e5410611d1d575050600e5490565b61251c8110611d35576703e2c284391c000091505090565b6121348110611d4d576703782dace9d9000091505090565b6119648110611d655767030d98d59a96000091505090565b6111948110611d7d576702a303fe4b53000091505090565b6109c48110611d95576702386f26fc10000091505090565b6103e88110611dad576701cdda4faccd000091505090565b67016345785d8a000091505090565b600081611dcb575060016109c9565b60968210611dec575060008181526009602052604090205460ff16156109c9565b60405163968ef8f560e01b815260048101849052602481018390527f0000000000000000000000000000000000000000000000000000000000000000906001600160a01b0382169063968ef8f590604401602060405180830381865afa158015611e5a573d6000803e3d6000fd5b505050506040513d601f19601f82011682018060405250810190611e7e91906142b5565b949350505050565b6006546001600160a01b03163314610eb75760405162461bcd60e51b815260206004820181905260248201527f4f776e61626c653a2063616c6c6572206973206e6f7420746865206f776e65726044820152606401610afd565b611ee9816122e3565b611c635760405162461bcd60e51b8152602060048201526018602482015277115490cdcc8c4e881a5b9d985b1a59081d1bdad95b88125160421b6044820152606401610afd565b600081815260046020526040902080546001600160a01b0319166001600160a01b0384169081179091558190611f6582610cf7565b6001600160a01b03167f8c5be1e5ebec7d5bd14f71427d1e84f3dd0314c0f7b2291e5b200ac8c7c3b92560405160405180910390a45050565b606060008290506000815167ffffffffffffffff811115611fc157611fc1613acf565b6040519080825280601f01601f191660200182016040528015611feb576020820181803683370190505b50905060005b82518110156120f957604183828151811061200e5761200e6141e1565b016020015160f81c1080159061203e5750605a838281518110612033576120336141e1565b016020015160f81c11155b156120a057828181518110612055576120556141e1565b602001015160f81c60f81b60f81c602061206f91906142d2565b60f81b828281518110612084576120846141e1565b60200101906001600160f81b031916908160001a9053506120e7565b8281815181106120b2576120b26141e1565b602001015160f81c60f81b8282815181106120cf576120cf6141e1565b60200101906001600160f81b031916908160001a9053505b806120f181614224565b915050611ff1565b509392505050565b60008061210d83610cf7565b9050806001600160a01b0316846001600160a01b0316148061215457506001600160a01b0380821660009081526005602090815260408083209388168352929052205460ff165b80611e7e5750836001600160a01b031661216d84610a61565b6001600160a01b031614949350505050565b826001600160a01b031661219282610cf7565b6001600160a01b0316146121b85760405162461bcd60e51b8152600401610afd906142f7565b6001600160a01b03821661221a5760405162461bcd60e51b8152602060048201526024808201527f4552433732313a207472616e7366657220746f20746865207a65726f206164646044820152637265737360e01b6064820152608401610afd565b826001600160a01b031661222d82610cf7565b6001600160a01b0316146122535760405162461bcd60e51b8152600401610afd906142f7565b600081815260046020908152604080832080546001600160a01b03199081169091556001600160a01b0387811680865260038552838620805460001901905590871680865283862080546001019055868652600290945282852080549092168417909155905184937fddf252ad1be2c89b69c2b068fc378daa952ba7f163c4a11628f55a4df523b3ef91a4505050565b6000908152600260205260409020546001600160a01b0316151590565b600680546001600160a01b038381166001600160a01b0319831681179093556040519116919082907f8be0079c531659141344cd1fd0a4f28419497f9722a3daafe3b4186f6b6457e090600090a35050565b600654600160a01b900460ff1615610eb75760405162461bcd60e51b815260206004820152601060248201526f14185d5cd8589b194e881c185d5cd95960821b6044820152606401610afd565b845180158015906123d157506006811115806123d15750600981111580156123d157506006546001600160a01b031633145b61240f5760405162461bcd60e51b815260206004820152600f60248201526e151c9a5899481a5b98dbdc9c9958dd608a1b6044820152606401610afd565b602086015161242190600a6045613542565b8061243c575061243c8660015b602002015160776095613542565b61247f5760405162461bcd60e51b815260206004820152601460248201527314dada5b8818dbdb1bdc881a5b98dbdc9c9958dd60621b6044820152606401610afd565b60408601516124919060466064613542565b806124a257506124a286600261242e565b6124e45760405162461bcd60e51b8152602060048201526013602482015272119d5c8818dbdb1bdc881a5b98dbdc9c9958dd606a1b6044820152606401610afd565b60608601516124f6906065606d613542565b80612507575061250786600361242e565b6125495760405162461bcd60e51b8152602060048201526013602482015272115e594818dbdb1bdc881a5b98dbdc9c9958dd606a1b6044820152606401610afd565b608086015161255b90606e6076613542565b8061256c575061256c86600461242e565b6125b05760405162461bcd60e51b8152602060048201526015602482015274141d5c1a5b0818dbdb1bdc881a5b98dbdc9c9958dd605a1b6044820152606401610afd565b84516125c0906096610106613542565b6125fd5760405162461bcd60e51b815260206004820152600e60248201526d12185a5c881a5b98dbdc9c9958dd60921b6044820152606401610afd565b602085015161261190610107610114613542565b61264f5760405162461bcd60e51b815260206004820152600f60248201526e135bdd5d1a081a5b98dbdc9c9958dd608a1b6044820152606401610afd565b604085015161266390610115610153613542565b6126a15760405162461bcd60e51b815260206004820152600f60248201526e1099585c99081a5b98dbdc9c9958dd608a1b6044820152606401610afd565b83516126b2906101546101b6613542565b6126ee5760405162461bcd60e51b815260206004820152600d60248201526c151bdc081a5b98dbdc9c9958dd609a1b6044820152606401610afd565b6020840151612702906101b7610202613542565b6127445760405162461bcd60e51b815260206004820152601360248201527213dd5d195c9dd9585c881a5b98dbdc9c9958dd606a1b6044820152606401610afd565b60408401516127589061020361022b613542565b6127965760405162461bcd60e51b815260206004820152600f60248201526e141c9a5b9d081a5b98dbdc9c9958dd608a1b6044820152606401610afd565b60608401516127aa9061022c610291613542565b6127e95760405162461bcd60e51b815260206004820152601060248201526f109bdd1d1bdb481a5b98dbdc9c9958dd60821b6044820152606401610afd565b60808401516127fd906102926102b6613542565b61283e5760405162461bcd60e51b8152602060048201526012602482015271119bdbdd1dd9585c881a5b98dbdc9c9958dd60721b6044820152606401610afd565b60a0840151612852906102b76102c2613542565b61288f5760405162461bcd60e51b815260206004820152600e60248201526d10995b1d081a5b98dbdc9c9958dd60921b6044820152606401610afd565b82516128a0906102c36102ed613542565b6128dc5760405162461bcd60e51b815260206004820152600d60248201526c12185d081a5b98dbdc9c9958dd609a1b6044820152606401610afd565b60208301516128f0906102ee61031f613542565b6129305760405162461bcd60e51b8152602060048201526011602482015270115e595dd9585c881a5b98dbdc9c9958dd607a1b6044820152606401610afd565b604083015161294490610320610329613542565b6129855760405162461bcd60e51b8152602060048201526012602482015271141a595c98da5b99c81a5b98dbdc9c9958dd60721b6044820152606401610afd565b60608301516129999061032a610335613542565b6129e55760405162461bcd60e51b815260206004820152601960248201527f5772697374206163636573736f727920696e636f7272656374000000000000006044820152606401610afd565b60808301516129f99061033661034e613542565b612a455760405162461bcd60e51b815260206004820152601960248201527f48616e6473206163636573736f727920696e636f7272656374000000000000006044820152606401610afd565b60a0830151612a599061034f610373613542565b612a9a5760405162461bcd60e51b8152602060048201526012602482015271139958daddd9585c881a5b98dbdc9c9958dd60721b6044820152606401610afd565b8151612aab906103746103cf613542565b612aed5760405162461bcd60e51b81526020600482015260136024820152721319599d081a5d195b481a5b98dbdc9c9958dd606a1b6044820152606401610afd565b6020820151612b01906103d06103ff613542565b612b445760405162461bcd60e51b8152602060048201526014602482015273149a59da1d081a5d195b481a5b98dbdc9c9958dd60621b6044820152606401610afd565b612b56818760015b6020020151611dbc565b612b9b5760405162461bcd60e51b8152602060048201526016602482015275536b696e20636f6c6f7220756e617661696c61626c6560501b6044820152606401610afd565b612ba781876002612b4c565b612beb5760405162461bcd60e51b815260206004820152601560248201527446757220636f6c6f7220756e617661696c61626c6560581b6044820152606401610afd565b612bf781876003612b4c565b612c3b5760405162461bcd60e51b815260206004820152601560248201527445796520636f6c6f7220756e617661696c61626c6560581b6044820152606401610afd565b612c4781876004612b4c565b612c935760405162461bcd60e51b815260206004820152601760248201527f507570696c20636f6c6f7220756e617661696c61626c650000000000000000006044820152606401610afd565b612c9f81866000612b4c565b612cde5760405162461bcd60e51b815260206004820152601060248201526f4861697220756e617661696c61626c6560801b6044820152606401610afd565b612cea81866001612b4c565b612d2a5760405162461bcd60e51b81526020600482015260116024820152704d6f75746820756e617661696c61626c6560781b6044820152606401610afd565b612d3681866002612b4c565b612d765760405162461bcd60e51b8152602060048201526011602482015270426561726420756e617661696c61626c6560781b6044820152606401610afd565b612d8281856000612b4c565b612dc05760405162461bcd60e51b815260206004820152600f60248201526e546f7020756e617661696c61626c6560881b6044820152606401610afd565b612dcc81856001612b4c565b612e105760405162461bcd60e51b81526020600482015260156024820152744f757465727765617220756e617661696c61626c6560581b6044820152606401610afd565b612e1c81856002612b4c565b612e5c5760405162461bcd60e51b81526020600482015260116024820152705072696e7420756e617661696c61626c6560781b6044820152606401610afd565b612e6881856003612b4c565b612ea95760405162461bcd60e51b8152602060048201526012602482015271426f74746f6d20756e617661696c61626c6560701b6044820152606401610afd565b612eb581856004612b4c565b612ef85760405162461bcd60e51b8152602060048201526014602482015273466f6f747765617220756e617661696c61626c6560601b6044820152606401610afd565b612f0481856005612b4c565b612f435760405162461bcd60e51b815260206004820152601060248201526f42656c7420756e617661696c61626c6560801b6044820152606401610afd565b612f4f81846000612b4c565b612f8d5760405162461bcd60e51b815260206004820152600f60248201526e48617420756e617661696c61626c6560881b6044820152606401610afd565b612f9981846001612b4c565b612fdb5760405162461bcd60e51b81526020600482015260136024820152724579657765617220756e617661696c61626c6560681b6044820152606401610afd565b612fe781846002612b4c565b61302a5760405162461bcd60e51b81526020600482015260146024820152735069657263696e6720756e617661696c61626c6560601b6044820152606401610afd565b61303681846003612b4c565b6130825760405162461bcd60e51b815260206004820152601b60248201527f5772697374206163636573736f727920756e617661696c61626c6500000000006044820152606401610afd565b61308e81846004612b4c565b6130da5760405162461bcd60e51b815260206004820152601a60248201527f48616e64206163636573736f727920756e617661696c61626c650000000000006044820152606401610afd565b6130e681846005612b4c565b6131295760405162461bcd60e51b81526020600482015260146024820152734e65636b7765617220756e617661696c61626c6560601b6044820152606401610afd565b61313581836000612b4c565b6131795760405162461bcd60e51b81526020600482015260156024820152744c656674206974656d20756e617661696c61626c6560581b6044820152606401610afd565b61318581836001612b4c565b6131ca5760405162461bcd60e51b81526020600482015260166024820152755269676874206974656d20756e617661696c61626c6560501b6044820152606401610afd565b505050505050565b60008181526008602052604090205460ff16156132315760405162461bcd60e51b815260206004820152601e60248201527f4e465420747261697420636f6d626f20616c72656164792065786973747300006044820152606401610afd565b6000818152600860205260409020805460ff19166001179055613258600c80546001019055565b6000613263600c5490565b9050613282604051806040016040528060008152602001606081525090565b82815260008281526007602090815260409091208251815581830151805184936132b3926001850192910190613939565b50905050610b9e6132c13390565b83613561565b816001600160a01b0316836001600160a01b031614156133295760405162461bcd60e51b815260206004820152601960248201527f4552433732313a20617070726f766520746f2063616c6c6572000000000000006044820152606401610afd565b6001600160a01b03838116600081815260056020908152604080832094871680845294825291829020805460ff191686151590811790915591519182527f17307eab39ab6107e8899845ad3d59bd9653f200f220920489ca2b5937696c31910160405180910390a3505050565b61339e61357b565b6006805460ff60a01b191690557f5db9ee0a495bf2e6ff9c91a7834c1ba4fdd244a5e8aa4e537bd38aeae4b073aa335b6040516001600160a01b03909116815260200160405180910390a1565b6133f684848461217f565b613402848484846135cb565b6116eb5760405162461bcd60e51b8152600401610afd9061433c565b80600b61342a84611f9e565b604051613437919061414d565b908152604051908190036020019020805491151560ff199092169190911790555050565b6060600f80546109de90614112565b60606000613477836136c1565b600101905060008167ffffffffffffffff81111561349757613497613acf565b6040519080825280601f01601f1916602001820160405280156134c1576020820181803683370190505b5090508181016020015b600019016f181899199a1a9b1b9c1cb0b131b232b360811b600a86061a8153600a85049450846134fa576120f9565b6134cb565b613507612352565b6006805460ff60a01b1916600160a01b1790557f62e78cea01bee320cd4e420270b5ea74000d11b0c9f74754ebdbfc544b05a2586133ce3390565b6000831580611e7e5750828410158015611e7e57505090911115919050565b610cbd828260405180602001604052806000815250613799565b600654600160a01b900460ff16610eb75760405162461bcd60e51b815260206004820152601460248201527314185d5cd8589b194e881b9bdd081c185d5cd95960621b6044820152606401610afd565b60006001600160a01b0384163b1561169357604051630a85bd0160e11b81526001600160a01b0385169063150b7a029061360f90339089908890889060040161438e565b6020604051808303816000875af192505050801561364a575060408051601f3d908101601f19168201909252613647918101906143cb565b60015b6136a4573d808015613678576040519150601f19603f3d011682016040523d82523d6000602084013e61367d565b606091505b50805161369c5760405162461bcd60e51b8152600401610afd9061433c565b805181602001fd5b6001600160e01b031916630a85bd0160e11b149050949350505050565b60008072184f03e93ff9f4daa797ed6e38ed64bf6a1f0160401b83106137005772184f03e93ff9f4daa797ed6e38ed64bf6a1f0160401b830492506040015b6d04ee2d6d415b85acef8100000000831061372c576d04ee2d6d415b85acef8100000000830492506020015b662386f26fc10000831061374a57662386f26fc10000830492506010015b6305f5e1008310613762576305f5e100830492506008015b612710831061377657612710830492506004015b60648310613788576064830492506002015b600a83106109c95760010192915050565b6137a383836137cc565b6137b060008484846135cb565b610b9e5760405162461bcd60e51b8152600401610afd9061433c565b6001600160a01b0382166138225760405162461bcd60e51b815260206004820181905260248201527f4552433732313a206d696e7420746f20746865207a65726f20616464726573736044820152606401610afd565b61382b816122e3565b156138785760405162461bcd60e51b815260206004820152601c60248201527f4552433732313a20746f6b656e20616c7265616479206d696e746564000000006044820152606401610afd565b613881816122e3565b156138ce5760405162461bcd60e51b815260206004820152601c60248201527f4552433732313a20746f6b656e20616c7265616479206d696e746564000000006044820152606401610afd565b6001600160a01b038216600081815260036020908152604080832080546001019055848352600290915280822080546001600160a01b0319168417905551839291907fddf252ad1be2c89b69c2b068fc378daa952ba7f163c4a11628f55a4df523b3ef908290a45050565b82805461394590614112565b90600052602060002090601f01602090048101928261396757600085556139ad565b82601f1061398057805160ff19168380011785556139ad565b828001600101855582156139ad579182015b828111156139ad578251825591602001919060010190613992565b506139b99291506139bd565b5090565b5b808211156139b957600081556001016139be565b6001600160e01b031981168114611c6357600080fd5b6000602082840312156139fa57600080fd5b8135611bc9816139d2565b60005b83811015613a20578181015183820152602001613a08565b838111156116eb5750506000910152565b60008151808452613a49816020860160208601613a05565b601f01601f19169290920160200192915050565b602081526000611bc96020830184613a31565b600060208284031215613a8257600080fd5b5035919050565b80356001600160a01b0381168114613aa057600080fd5b919050565b60008060408385031215613ab857600080fd5b613ac183613a89565b946020939093013593505050565b634e487b7160e01b600052604160045260246000fd5b60405160a0810167ffffffffffffffff81118282101715613b0857613b08613acf565b60405290565b600067ffffffffffffffff80841115613b2957613b29613acf565b604051601f8501601f19908116603f01168101908282118183101715613b5157613b51613acf565b81604052809350858152868686011115613b6a57600080fd5b858560208301376000602087830101525050509392505050565b600082601f830112613b9557600080fd5b611bc983833560208501613b0e565b600060208284031215613bb657600080fd5b813567ffffffffffffffff811115613bcd57600080fd5b611e7e84828501613b84565b6020808252825182820181905260009190848201906040850190845b81811015613c1557835161ffff1683529284019291840191600101613bf5565b50909695505050505050565b600080600060608486031215613c3657600080fd5b613c3f84613a89565b9250613c4d60208501613a89565b9150604084013590509250925092565b600060208284031215613c6f57600080fd5b611bc982613a89565b60006040516060810181811067ffffffffffffffff82111715613c9d57613c9d613acf565b6040529050806060830184811115613cb457600080fd5b835b81811015613cce578035835260209283019201613cb6565b50505092915050565b60006040516040810181811067ffffffffffffffff82111715613cfc57613cfc613acf565b80604052508091506040830184811115613cb457600080fd5b600082601f830112613d2657600080fd5b60405160c0810181811067ffffffffffffffff82111715613d4957613d49613acf565b6040528060c0840185811115613d5e57600080fd5b845b81811015613d78578035835260209283019201613d60565b509195945050505050565b60008060008060006102c08688031215613d9c57600080fd5b86601f870112613dab57600080fd5b613db3613ae5565b8060a0880189811115613dc557600080fd5b885b81811015613ddf578035845260209384019301613dc7565b508197508960bf8a0112613df257600080fd5b613dfc8a82613c78565b9650505050613e0f876101008801613d15565b9250613e1f876101c08801613d15565b91508661029f870112613e3157600080fd5b613e3f876102808801613cd7565b90509295509295909350565b815161ffff1681526102c081016020830151613e6d602084018261ffff169052565b506040830151613e83604084018261ffff169052565b506060830151613e99606084018261ffff169052565b506080830151613eaf608084018261ffff169052565b5060a0830151613ec560a084018261ffff169052565b5060c0830151613edb60c084018261ffff169052565b5060e0830151613ef160e084018261ffff169052565b506101008381015161ffff90811691840191909152610120808501518216908401526101408085015182169084015261016080850151821690840152610180808501518216908401526101a0808501518216908401526101c0808501518216908401526101e08085015182169084015261020080850151821690840152610220808501518216908401526102408085015182169084015261026080850151821690840152610280808501518216908401526102a09384015116929091019190915290565b8015158114611c6357600080fd5b60008060408385031215613fd657600080fd5b613fdf83613a89565b91506020830135613fef81613fb5565b809150509250929050565b6000806000806080858703121561401057600080fd5b61401985613a89565b935061402760208601613a89565b925060408501359150606085013567ffffffffffffffff81111561404a57600080fd5b8501601f8101871361405b57600080fd5b61406a87823560208401613b0e565b91505092959194509250565b6000806040838503121561408957600080fd5b82359150602083013567ffffffffffffffff8111156140a757600080fd5b6140b385828601613b84565b9150509250929050565b600080604083850312156140d057600080fd5b6140d983613a89565b91506140e760208401613a89565b90509250929050565b6000806040838503121561410357600080fd5b50508035926020909101359150565b600181811c9082168061412657607f821691505b6020821081141561414757634e487b7160e01b600052602260045260246000fd5b50919050565b6000825161415f818460208701613a05565b9190910192915050565b6020808252602d908201527f4552433732313a2063616c6c6572206973206e6f7420746f6b656e206f776e6560408201526c1c881bdc88185c1c1c9bdd9959609a1b606082015260800190565b6020808252601190820152703737b732bc34b9ba32b73a103a37b5b2b760791b604082015260600190565b634e487b7160e01b600052603260045260246000fd5b634e487b7160e01b600052601160045260246000fd5b60008282101561421f5761421f6141f7565b500390565b6000600019821415614238576142386141f7565b5060010190565b60006020828403121561425157600080fd5b5051919050565b60408152600061426b6040830185613a31565b828103602084015261427d8185613a31565b95945050505050565b60008351614298818460208801613a05565b8351908301906142ac818360208801613a05565b01949350505050565b6000602082840312156142c757600080fd5b8151611bc981613fb5565b600060ff821660ff84168060ff038211156142ef576142ef6141f7565b019392505050565b60208082526025908201527f4552433732313a207472616e736665722066726f6d20696e636f72726563742060408201526437bbb732b960d91b606082015260800190565b60208082526032908201527f4552433732313a207472616e7366657220746f206e6f6e20455243373231526560408201527131b2b4bb32b91034b6b83632b6b2b73a32b960711b606082015260800190565b6001600160a01b03858116825284166020820152604081018390526080606082018190526000906143c190830184613a31565b9695505050505050565b6000602082840312156143dd57600080fd5b8151611bc9816139d256fea2646970667358221220a42911da85756b5c9f225e3d04d622d164697eda1447572b7e2c232fa5af42a564736f6c634300080b0033",
  "devdoc": {
    "details": "Extends NameableCharacter and NiftyLeagueCharacter (ERC721)",
    "kind": "dev",
    "methods": {
      "approve(address,uint256)": {
        "details": "See {IERC721-approve}."
      },
      "balanceOf(address)": {
        "details": "See {IERC721-balanceOf}."
      },
      "changeName(uint256,string)": {
        "params": {
          "newName": "New name to validate and set on NFT",
          "tokenId": "ID of NFT"
        },
        "returns": {
          "_0": "New NFT name"
        }
      },
      "constructor": {
        "params": {
          "nftlAddress": "Address of verified Nifty League NFTL contract",
          "storageAddress": "Address of verified Allowed Colors Storage"
        }
      },
      "getApproved(uint256)": {
        "details": "See {IERC721-getApproved}."
      },
      "getCharacterTraits(uint256)": {
        "details": "Permissioning not added because it is only callable once.",
        "params": {
          "tokenId": "ID of NFT"
        },
        "returns": {
          "_characterTraits": "- indexed list of character traits"
        }
      },
      "getNFTPrice()": {
        "returns": {
          "_0": "Current price to mint 1 NFT"
        }
      },
      "getName(uint256)": {
        "params": {
          "tokenId": "ID of NFT"
        },
        "returns": {
          "_0": "NFT name"
        }
      },
      "getRemovedTraits()": {
        "returns": {
          "_0": "removedTraits - list of unavailable character traits"
        }
      },
      "initPoolSizes()": {
        "details": "Unable to init mapping at declaration :/"
      },
      "isApprovedForAll(address,address)": {
        "details": "See {IERC721-isApprovedForAll}."
      },
      "isAvailableAndAllowedTrait(uint256,uint256)": {
        "details": "Trait types are restricted per tribe before deploy in AllowedColorsStorage",
        "params": {
          "trait": "Trait ID",
          "tribe": "Tribe ID"
        },
        "returns": {
          "_0": "True if trait is available and allowed for tribe"
        }
      },
      "isAvailableTrait(uint256)": {
        "params": {
          "trait": "ID of trait"
        },
        "returns": {
          "_0": "True if trait has not been removed"
        }
      },
      "isNameReserved(string)": {
        "params": {
          "nameString": "Name to validate"
        },
        "returns": {
          "_0": "True if name is unique"
        }
      },
      "isUnique(uint256)": {
        "params": {
          "traitCombo": "Generated trait combo packed into uint256"
        },
        "returns": {
          "_0": "True if combo is unique and available"
        }
      },
      "name()": {
        "details": "See {IERC721Metadata-name}."
      },
      "overrideMintPrice(uint256)": {
        "details": "Minimum value of 0.08 ETH for this to be considered in getNFTPrice",
        "params": {
          "newPrice": "New price to set for remaining character sale"
        }
      },
      "owner()": {
        "details": "Returns the address of the current owner."
      },
      "ownerOf(uint256)": {
        "details": "See {IERC721-ownerOf}."
      },
      "pauseMinting()": {
        "details": "Requirements: The contract must not be paused"
      },
      "paused()": {
        "details": "Returns true if the contract is paused, and false otherwise."
      },
      "purchase(uint256[5],uint256[3],uint256[6],uint256[6],uint256[2])": {
        "details": "Order is based on character selector indexes",
        "params": {
          "accessories": "Indexed list of accessories",
          "character": "Indexed list of character traits",
          "clothing": "Indexed list of clothing options",
          "head": "Indexed list of head traits",
          "items": "Indexed list of items"
        }
      },
      "renounceOwnership()": {
        "details": "Leaves the contract without owner. It will not be possible to call `onlyOwner` functions. Can only be called by the current owner. NOTE: Renouncing ownership will leave the contract without an owner, thereby disabling any functionality that is only available to the owner."
      },
      "safeTransferFrom(address,address,uint256)": {
        "details": "See {IERC721-safeTransferFrom}."
      },
      "safeTransferFrom(address,address,uint256,bytes)": {
        "details": "See {IERC721-safeTransferFrom}."
      },
      "setApprovalForAll(address,bool)": {
        "details": "See {IERC721-setApprovalForAll}."
      },
      "setBaseURI(string)": {
        "params": {
          "baseURI": "New base URI for NFT metadata"
        }
      },
      "supportsInterface(bytes4)": {
        "details": "See {IERC165-supportsInterface}."
      },
      "symbol()": {
        "details": "See {IERC721Metadata-symbol}."
      },
      "tokenURI(uint256)": {
        "details": "See {IERC721Metadata-tokenURI}."
      },
      "transferFrom(address,address,uint256)": {
        "details": "See {IERC721-transferFrom}."
      },
      "transferOwnership(address)": {
        "details": "Transfers ownership of the contract to a new account (`newOwner`). Can only be called by the current owner."
      },
      "unpauseMinting()": {
        "details": "Requirements: The contract must be paused"
      },
      "validateName(string)": {
        "params": {
          "newName": "Name to validate"
        },
        "returns": {
          "_0": "True if name input is valid"
        }
      }
    },
    "stateVariables": {
      "_baseTokenUri": {
        "details": "Base URI used for token metadata"
      },
      "_manualMintPrice": {
        "details": "Set if we want to override semi-fomo ramp pricing"
      },
      "_originalPoolSizes": {
        "details": "Mapping trait indexes to pool size of available traits"
      },
      "_storageAddress": {
        "details": "Available traits storage address"
      }
    },
    "title": "NiftyDegen NFT (The OG NFTs of the Nifty League on Ethereum)",
    "version": 1
  },
  "userdoc": {
    "kind": "user",
    "methods": {
      "MAX_SUPPLY()": {
        "notice": "Max number of mintable characters"
      },
      "NAME_CHANGE_PRICE()": {
        "notice": "Cost to change character name in NFTL"
      },
      "SPECIAL_CHARACTERS()": {
        "notice": "Special characters reserved for future giveaways"
      },
      "changeName(uint256,string)": {
        "notice": "Change name of NFT payable with {NAME_CHANGE_PRICE} NFTL"
      },
      "constructor": {
        "notice": "Construct the Nifty League NFTs"
      },
      "getCharacterTraits(uint256)": {
        "notice": "Retrieve a list of character traits for a token"
      },
      "getNFTPrice()": {
        "notice": "Gets current NFT Price based on current supply"
      },
      "getName(uint256)": {
        "notice": "Retrieve name of token"
      },
      "getRemovedTraits()": {
        "notice": "Retrieve a list of removed character traits"
      },
      "initPoolSizes()": {
        "notice": "Set pool size for each trait index called on deploy"
      },
      "isAvailableAndAllowedTrait(uint256,uint256)": {
        "notice": "Check if traits is allowed for tribe and hasn't been removed yet"
      },
      "isAvailableTrait(uint256)": {
        "notice": "Check whether trait is still available"
      },
      "isNameReserved(string)": {
        "notice": "Check if name is already reserved"
      },
      "isUnique(uint256)": {
        "notice": "Check whether trait combo is unique"
      },
      "overrideMintPrice(uint256)": {
        "notice": "Fallback to set NFT price to static ether value if necessary"
      },
      "pauseMinting()": {
        "notice": "Triggers stopped state"
      },
      "purchase(uint256[5],uint256[3],uint256[6],uint256[6],uint256[2])": {
        "notice": "Validate character traits and purchase a Nifty Degen NFT"
      },
      "setBaseURI(string)": {
        "notice": "Option to set _baseUri for transfering Heroku to IPFS"
      },
      "totalSupply()": {
        "notice": "Counter for number of minted characters"
      },
      "unpauseMinting()": {
        "notice": "Returns to normal state"
      },
      "validateName(string)": {
        "notice": "Check for valid name string (Alphanumeric and spaces without leading or trailing space)"
      },
      "withdraw()": {
        "notice": "Withdraw ether from this contract (Callable by owner)"
      }
    },
    "version": 1
  },
  "storageLayout": {
    "storage": [
      {
        "astId": 324,
        "contract": "src/contracts/NiftyDegen.sol:NiftyDegen",
        "label": "_name",
        "offset": 0,
        "slot": "0",
        "type": "t_string_storage"
      },
      {
        "astId": 326,
        "contract": "src/contracts/NiftyDegen.sol:NiftyDegen",
        "label": "_symbol",
        "offset": 0,
        "slot": "1",
        "type": "t_string_storage"
      },
      {
        "astId": 330,
        "contract": "src/contracts/NiftyDegen.sol:NiftyDegen",
        "label": "_owners",
        "offset": 0,
        "slot": "2",
        "type": "t_mapping(t_uint256,t_address)"
      },
      {
        "astId": 334,
        "contract": "src/contracts/NiftyDegen.sol:NiftyDegen",
        "label": "_balances",
        "offset": 0,
        "slot": "3",
        "type": "t_mapping(t_address,t_uint256)"
      },
      {
        "astId": 338,
        "contract": "src/contracts/NiftyDegen.sol:NiftyDegen",
        "label": "_tokenApprovals",
        "offset": 0,
        "slot": "4",
        "type": "t_mapping(t_uint256,t_address)"
      },
      {
        "astId": 344,
        "contract": "src/contracts/NiftyDegen.sol:NiftyDegen",
        "label": "_operatorApprovals",
        "offset": 0,
        "slot": "5",
        "type": "t_mapping(t_address,t_mapping(t_address,t_bool))"
      },
      {
        "astId": 7,
        "contract": "src/contracts/NiftyDegen.sol:NiftyDegen",
        "label": "_owner",
        "offset": 0,
        "slot": "6",
        "type": "t_address"
      },
      {
        "astId": 130,
        "contract": "src/contracts/NiftyDegen.sol:NiftyDegen",
        "label": "_paused",
        "offset": 20,
        "slot": "6",
        "type": "t_bool"
      },
      {
        "astId": 4851,
        "contract": "src/contracts/NiftyDegen.sol:NiftyDegen",
        "label": "_characters",
        "offset": 0,
        "slot": "7",
        "type": "t_mapping(t_uint256,t_struct(Character)4800_storage)"
      },
      {
        "astId": 4860,
        "contract": "src/contracts/NiftyDegen.sol:NiftyDegen",
        "label": "_existMap",
        "offset": 0,
        "slot": "8",
        "type": "t_mapping(t_uint256,t_bool)"
      },
      {
        "astId": 4865,
        "contract": "src/contracts/NiftyDegen.sol:NiftyDegen",
        "label": "_removedTraitsMap",
        "offset": 0,
        "slot": "9",
        "type": "t_mapping(t_uint256,t_bool)"
      },
      {
        "astId": 4869,
        "contract": "src/contracts/NiftyDegen.sol:NiftyDegen",
        "label": "removedTraits",
        "offset": 0,
        "slot": "10",
        "type": "t_array(t_uint16)dyn_storage"
      },
      {
        "astId": 3182,
        "contract": "src/contracts/NiftyDegen.sol:NiftyDegen",
        "label": "_nameReserved",
        "offset": 0,
        "slot": "11",
        "type": "t_mapping(t_string_memory_ptr,t_bool)"
      },
      {
        "astId": 3586,
        "contract": "src/contracts/NiftyDegen.sol:NiftyDegen",
        "label": "totalSupply",
        "offset": 0,
        "slot": "12",
        "type": "t_struct(Counter)1752_storage"
      },
      {
        "astId": 3602,
        "contract": "src/contracts/NiftyDegen.sol:NiftyDegen",
        "label": "_originalPoolSizes",
        "offset": 0,
        "slot": "13",
        "type": "t_mapping(t_uint256,t_uint256)"
      },
      {
        "astId": 3605,
        "contract": "src/contracts/NiftyDegen.sol:NiftyDegen",
        "label": "_manualMintPrice",
        "offset": 0,
        "slot": "14",
        "type": "t_uint256"
      },
      {
        "astId": 3609,
        "contract": "src/contracts/NiftyDegen.sol:NiftyDegen",
        "label": "_baseTokenUri",
        "offset": 0,
        "slot": "15",
        "type": "t_string_storage"
      }
    ],
    "types": {
      "t_address": {
        "encoding": "inplace",
        "label": "address",
        "numberOfBytes": "20"
      },
      "t_array(t_uint16)dyn_storage": {
        "base": "t_uint16",
        "encoding": "dynamic_array",
        "label": "uint16[]",
        "numberOfBytes": "32"
      },
      "t_bool": {
        "encoding": "inplace",
        "label": "bool",
        "numberOfBytes": "1"
      },
      "t_mapping(t_address,t_bool)": {
        "encoding": "mapping",
        "key": "t_address",
        "label": "mapping(address => bool)",
        "numberOfBytes": "32",
        "value": "t_bool"
      },
      "t_mapping(t_address,t_mapping(t_address,t_bool))": {
        "encoding": "mapping",
        "key": "t_address",
        "label": "mapping(address => mapping(address => bool))",
        "numberOfBytes": "32",
        "value": "t_mapping(t_address,t_bool)"
      },
      "t_mapping(t_address,t_uint256)": {
        "encoding": "mapping",
        "key": "t_address",
        "label": "mapping(address => uint256)",
        "numberOfBytes": "32",
        "value": "t_uint256"
      },
      "t_mapping(t_string_memory_ptr,t_bool)": {
        "encoding": "mapping",
        "key": "t_string_memory_ptr",
        "label": "mapping(string => bool)",
        "numberOfBytes": "32",
        "value": "t_bool"
      },
      "t_mapping(t_uint256,t_address)": {
        "encoding": "mapping",
        "key": "t_uint256",
        "label": "mapping(uint256 => address)",
        "numberOfBytes": "32",
        "value": "t_address"
      },
      "t_mapping(t_uint256,t_bool)": {
        "encoding": "mapping",
        "key": "t_uint256",
        "label": "mapping(uint256 => bool)",
        "numberOfBytes": "32",
        "value": "t_bool"
      },
      "t_mapping(t_uint256,t_struct(Character)4800_storage)": {
        "encoding": "mapping",
        "key": "t_uint256",
        "label": "mapping(uint256 => struct NiftyLeagueCharacter.Character)",
        "numberOfBytes": "32",
        "value": "t_struct(Character)4800_storage"
      },
      "t_mapping(t_uint256,t_uint256)": {
        "encoding": "mapping",
        "key": "t_uint256",
        "label": "mapping(uint256 => uint256)",
        "numberOfBytes": "32",
        "value": "t_uint256"
      },
      "t_string_memory_ptr": {
        "encoding": "bytes",
        "label": "string",
        "numberOfBytes": "32"
      },
      "t_string_storage": {
        "encoding": "bytes",
        "label": "string",
        "numberOfBytes": "32"
      },
      "t_struct(Character)4800_storage": {
        "encoding": "inplace",
        "label": "struct NiftyLeagueCharacter.Character",
        "members": [
          {
            "astId": 4797,
            "contract": "src/contracts/NiftyDegen.sol:NiftyDegen",
            "label": "traits",
            "offset": 0,
            "slot": "0",
            "type": "t_uint256"
          },
          {
            "astId": 4799,
            "contract": "src/contracts/NiftyDegen.sol:NiftyDegen",
            "label": "name",
            "offset": 0,
            "slot": "1",
            "type": "t_string_storage"
          }
        ],
        "numberOfBytes": "64"
      },
      "t_struct(Counter)1752_storage": {
        "encoding": "inplace",
        "label": "struct Counters.Counter",
        "members": [
          {
            "astId": 1751,
            "contract": "src/contracts/NiftyDegen.sol:NiftyDegen",
            "label": "_value",
            "offset": 0,
            "slot": "0",
            "type": "t_uint256"
          }
        ],
        "numberOfBytes": "32"
      },
      "t_uint16": {
        "encoding": "inplace",
        "label": "uint16",
        "numberOfBytes": "2"
      },
      "t_uint256": {
        "encoding": "inplace",
        "label": "uint256",
        "numberOfBytes": "32"
      }
    }
  }
}