{
  "address": "0xee7b4d3C69DE4883daE82EcDb3B629d24A5590d7",
  "abi": [
    {
      "inputs": [
        {
          "internalType": "uint256",
          "name": "minDelay",
          "type": "uint256"
        },
        {
          "internalType": "address[]",
          "name": "proposers",
          "type": "address[]"
        },
        {
          "internalType": "address[]",
          "name": "executors",
          "type": "address[]"
        },
        {
          "internalType": "address",
          "name": "admin",
          "type": "address"
        }
      ],
      "stateMutability": "nonpayable",
      "type": "constructor"
    },
    {
      "anonymous": false,
      "inputs": [
        {
          "indexed": true,
          "internalType": "bytes32",
          "name": "id",
          "type": "bytes32"
        },
        {
          "indexed": true,
          "internalType": "uint256",
          "name": "index",
          "type": "uint256"
        },
        {
          "indexed": false,
          "internalType": "address",
          "name": "target",
          "type": "address"
        },
        {
          "indexed": false,
          "internalType": "uint256",
          "name": "value",
          "type": "uint256"
        },
        {
          "indexed": false,
          "internalType": "bytes",
          "name": "data",
          "type": "bytes"
        }
      ],
      "name": "CallExecuted",
      "type": "event"
    },
    {
      "anonymous": false,
      "inputs": [
        {
          "indexed": true,
          "internalType": "bytes32",
          "name": "id",
          "type": "bytes32"
        },
        {
          "indexed": false,
          "internalType": "bytes32",
          "name": "salt",
          "type": "bytes32"
        }
      ],
      "name": "CallSalt",
      "type": "event"
    },
    {
      "anonymous": false,
      "inputs": [
        {
          "indexed": true,
          "internalType": "bytes32",
          "name": "id",
          "type": "bytes32"
        },
        {
          "indexed": true,
          "internalType": "uint256",
          "name": "index",
          "type": "uint256"
        },
        {
          "indexed": false,
          "internalType": "address",
          "name": "target",
          "type": "address"
        },
        {
          "indexed": false,
          "internalType": "uint256",
          "name": "value",
          "type": "uint256"
        },
        {
          "indexed": false,
          "internalType": "bytes",
          "name": "data",
          "type": "bytes"
        },
        {
          "indexed": false,
          "internalType": "bytes32",
          "name": "predecessor",
          "type": "bytes32"
        },
        {
          "indexed": false,
          "internalType": "uint256",
          "name": "delay",
          "type": "uint256"
        }
      ],
      "name": "CallScheduled",
      "type": "event"
    },
    {
      "anonymous": false,
      "inputs": [
        {
          "indexed": true,
          "internalType": "bytes32",
          "name": "id",
          "type": "bytes32"
        }
      ],
      "name": "Cancelled",
      "type": "event"
    },
    {
      "anonymous": false,
      "inputs": [
        {
          "indexed": false,
          "internalType": "uint256",
          "name": "oldDuration",
          "type": "uint256"
        },
        {
          "indexed": false,
          "internalType": "uint256",
          "name": "newDuration",
          "type": "uint256"
        }
      ],
      "name": "MinDelayChange",
      "type": "event"
    },
    {
      "anonymous": false,
      "inputs": [
        {
          "indexed": true,
          "internalType": "bytes32",
          "name": "role",
          "type": "bytes32"
        },
        {
          "indexed": true,
          "internalType": "bytes32",
          "name": "previousAdminRole",
          "type": "bytes32"
        },
        {
          "indexed": true,
          "internalType": "bytes32",
          "name": "newAdminRole",
          "type": "bytes32"
        }
      ],
      "name": "RoleAdminChanged",
      "type": "event"
    },
    {
      "anonymous": false,
      "inputs": [
        {
          "indexed": true,
          "internalType": "bytes32",
          "name": "role",
          "type": "bytes32"
        },
        {
          "indexed": true,
          "internalType": "address",
          "name": "account",
          "type": "address"
        },
        {
          "indexed": true,
          "internalType": "address",
          "name": "sender",
          "type": "address"
        }
      ],
      "name": "RoleGranted",
      "type": "event"
    },
    {
      "anonymous": false,
      "inputs": [
        {
          "indexed": true,
          "internalType": "bytes32",
          "name": "role",
          "type": "bytes32"
        },
        {
          "indexed": true,
          "internalType": "address",
          "name": "account",
          "type": "address"
        },
        {
          "indexed": true,
          "internalType": "address",
          "name": "sender",
          "type": "address"
        }
      ],
      "name": "RoleRevoked",
      "type": "event"
    },
    {
      "inputs": [],
      "name": "CANCELLER_ROLE",
      "outputs": [
        {
          "internalType": "bytes32",
          "name": "",
          "type": "bytes32"
        }
      ],
      "stateMutability": "view",
      "type": "function"
    },
    {
      "inputs": [],
      "name": "DEFAULT_ADMIN_ROLE",
      "outputs": [
        {
          "internalType": "bytes32",
          "name": "",
          "type": "bytes32"
        }
      ],
      "stateMutability": "view",
      "type": "function"
    },
    {
      "inputs": [],
      "name": "EXECUTOR_ROLE",
      "outputs": [
        {
          "internalType": "bytes32",
          "name": "",
          "type": "bytes32"
        }
      ],
      "stateMutability": "view",
      "type": "function"
    },
    {
      "inputs": [],
      "name": "PROPOSER_ROLE",
      "outputs": [
        {
          "internalType": "bytes32",
          "name": "",
          "type": "bytes32"
        }
      ],
      "stateMutability": "view",
      "type": "function"
    },
    {
      "inputs": [],
      "name": "TIMELOCK_ADMIN_ROLE",
      "outputs": [
        {
          "internalType": "bytes32",
          "name": "",
          "type": "bytes32"
        }
      ],
      "stateMutability": "view",
      "type": "function"
    },
    {
      "inputs": [
        {
          "internalType": "bytes32",
          "name": "id",
          "type": "bytes32"
        }
      ],
      "name": "cancel",
      "outputs": [],
      "stateMutability": "nonpayable",
      "type": "function"
    },
    {
      "inputs": [
        {
          "internalType": "address",
          "name": "target",
          "type": "address"
        },
        {
          "internalType": "uint256",
          "name": "value",
          "type": "uint256"
        },
        {
          "internalType": "bytes",
          "name": "payload",
          "type": "bytes"
        },
        {
          "internalType": "bytes32",
          "name": "predecessor",
          "type": "bytes32"
        },
        {
          "internalType": "bytes32",
          "name": "salt",
          "type": "bytes32"
        }
      ],
      "name": "execute",
      "outputs": [],
      "stateMutability": "payable",
      "type": "function"
    },
    {
      "inputs": [
        {
          "internalType": "address[]",
          "name": "targets",
          "type": "address[]"
        },
        {
          "internalType": "uint256[]",
          "name": "values",
          "type": "uint256[]"
        },
        {
          "internalType": "bytes[]",
          "name": "payloads",
          "type": "bytes[]"
        },
        {
          "internalType": "bytes32",
          "name": "predecessor",
          "type": "bytes32"
        },
        {
          "internalType": "bytes32",
          "name": "salt",
          "type": "bytes32"
        }
      ],
      "name": "executeBatch",
      "outputs": [],
      "stateMutability": "payable",
      "type": "function"
    },
    {
      "inputs": [],
      "name": "getMinDelay",
      "outputs": [
        {
          "internalType": "uint256",
          "name": "",
          "type": "uint256"
        }
      ],
      "stateMutability": "view",
      "type": "function"
    },
    {
      "inputs": [
        {
          "internalType": "bytes32",
          "name": "role",
          "type": "bytes32"
        }
      ],
      "name": "getRoleAdmin",
      "outputs": [
        {
          "internalType": "bytes32",
          "name": "",
          "type": "bytes32"
        }
      ],
      "stateMutability": "view",
      "type": "function"
    },
    {
      "inputs": [
        {
          "internalType": "bytes32",
          "name": "role",
          "type": "bytes32"
        },
        {
          "internalType": "uint256",
          "name": "index",
          "type": "uint256"
        }
      ],
      "name": "getRoleMember",
      "outputs": [
        {
          "internalType": "address",
          "name": "",
          "type": "address"
        }
      ],
      "stateMutability": "view",
      "type": "function"
    },
    {
      "inputs": [
        {
          "internalType": "bytes32",
          "name": "role",
          "type": "bytes32"
        }
      ],
      "name": "getRoleMemberCount",
      "outputs": [
        {
          "internalType": "uint256",
          "name": "",
          "type": "uint256"
        }
      ],
      "stateMutability": "view",
      "type": "function"
    },
    {
      "inputs": [
        {
          "internalType": "bytes32",
          "name": "id",
          "type": "bytes32"
        }
      ],
      "name": "getTimestamp",
      "outputs": [
        {
          "internalType": "uint256",
          "name": "",
          "type": "uint256"
        }
      ],
      "stateMutability": "view",
      "type": "function"
    },
    {
      "inputs": [
        {
          "internalType": "bytes32",
          "name": "role",
          "type": "bytes32"
        },
        {
          "internalType": "address",
          "name": "account",
          "type": "address"
        }
      ],
      "name": "grantRole",
      "outputs": [],
      "stateMutability": "nonpayable",
      "type": "function"
    },
    {
      "inputs": [
        {
          "internalType": "bytes32",
          "name": "role",
          "type": "bytes32"
        },
        {
          "internalType": "address",
          "name": "account",
          "type": "address"
        }
      ],
      "name": "hasRole",
      "outputs": [
        {
          "internalType": "bool",
          "name": "",
          "type": "bool"
        }
      ],
      "stateMutability": "view",
      "type": "function"
    },
    {
      "inputs": [
        {
          "internalType": "address",
          "name": "target",
          "type": "address"
        },
        {
          "internalType": "uint256",
          "name": "value",
          "type": "uint256"
        },
        {
          "internalType": "bytes",
          "name": "data",
          "type": "bytes"
        },
        {
          "internalType": "bytes32",
          "name": "predecessor",
          "type": "bytes32"
        },
        {
          "internalType": "bytes32",
          "name": "salt",
          "type": "bytes32"
        }
      ],
      "name": "hashOperation",
      "outputs": [
        {
          "internalType": "bytes32",
          "name": "",
          "type": "bytes32"
        }
      ],
      "stateMutability": "pure",
      "type": "function"
    },
    {
      "inputs": [
        {
          "internalType": "address[]",
          "name": "targets",
          "type": "address[]"
        },
        {
          "internalType": "uint256[]",
          "name": "values",
          "type": "uint256[]"
        },
        {
          "internalType": "bytes[]",
          "name": "payloads",
          "type": "bytes[]"
        },
        {
          "internalType": "bytes32",
          "name": "predecessor",
          "type": "bytes32"
        },
        {
          "internalType": "bytes32",
          "name": "salt",
          "type": "bytes32"
        }
      ],
      "name": "hashOperationBatch",
      "outputs": [
        {
          "internalType": "bytes32",
          "name": "",
          "type": "bytes32"
        }
      ],
      "stateMutability": "pure",
      "type": "function"
    },
    {
      "inputs": [
        {
          "internalType": "bytes32",
          "name": "id",
          "type": "bytes32"
        }
      ],
      "name": "isOperation",
      "outputs": [
        {
          "internalType": "bool",
          "name": "",
          "type": "bool"
        }
      ],
      "stateMutability": "view",
      "type": "function"
    },
    {
      "inputs": [
        {
          "internalType": "bytes32",
          "name": "id",
          "type": "bytes32"
        }
      ],
      "name": "isOperationDone",
      "outputs": [
        {
          "internalType": "bool",
          "name": "",
          "type": "bool"
        }
      ],
      "stateMutability": "view",
      "type": "function"
    },
    {
      "inputs": [
        {
          "internalType": "bytes32",
          "name": "id",
          "type": "bytes32"
        }
      ],
      "name": "isOperationPending",
      "outputs": [
        {
          "internalType": "bool",
          "name": "",
          "type": "bool"
        }
      ],
      "stateMutability": "view",
      "type": "function"
    },
    {
      "inputs": [
        {
          "internalType": "bytes32",
          "name": "id",
          "type": "bytes32"
        }
      ],
      "name": "isOperationReady",
      "outputs": [
        {
          "internalType": "bool",
          "name": "",
          "type": "bool"
        }
      ],
      "stateMutability": "view",
      "type": "function"
    },
    {
      "inputs": [
        {
          "internalType": "address",
          "name": "",
          "type": "address"
        },
        {
          "internalType": "address",
          "name": "",
          "type": "address"
        },
        {
          "internalType": "uint256[]",
          "name": "",
          "type": "uint256[]"
        },
        {
          "internalType": "uint256[]",
          "name": "",
          "type": "uint256[]"
        },
        {
          "internalType": "bytes",
          "name": "",
          "type": "bytes"
        }
      ],
      "name": "onERC1155BatchReceived",
      "outputs": [
        {
          "internalType": "bytes4",
          "name": "",
          "type": "bytes4"
        }
      ],
      "stateMutability": "nonpayable",
      "type": "function"
    },
    {
      "inputs": [
        {
          "internalType": "address",
          "name": "",
          "type": "address"
        },
        {
          "internalType": "address",
          "name": "",
          "type": "address"
        },
        {
          "internalType": "uint256",
          "name": "",
          "type": "uint256"
        },
        {
          "internalType": "uint256",
          "name": "",
          "type": "uint256"
        },
        {
          "internalType": "bytes",
          "name": "",
          "type": "bytes"
        }
      ],
      "name": "onERC1155Received",
      "outputs": [
        {
          "internalType": "bytes4",
          "name": "",
          "type": "bytes4"
        }
      ],
      "stateMutability": "nonpayable",
      "type": "function"
    },
    {
      "inputs": [
        {
          "internalType": "address",
          "name": "",
          "type": "address"
        },
        {
          "internalType": "address",
          "name": "",
          "type": "address"
        },
        {
          "internalType": "uint256",
          "name": "",
          "type": "uint256"
        },
        {
          "internalType": "bytes",
          "name": "",
          "type": "bytes"
        }
      ],
      "name": "onERC721Received",
      "outputs": [
        {
          "internalType": "bytes4",
          "name": "",
          "type": "bytes4"
        }
      ],
      "stateMutability": "nonpayable",
      "type": "function"
    },
    {
      "inputs": [
        {
          "internalType": "bytes32",
          "name": "role",
          "type": "bytes32"
        },
        {
          "internalType": "address",
          "name": "account",
          "type": "address"
        }
      ],
      "name": "renounceRole",
      "outputs": [],
      "stateMutability": "nonpayable",
      "type": "function"
    },
    {
      "inputs": [
        {
          "internalType": "bytes32",
          "name": "role",
          "type": "bytes32"
        },
        {
          "internalType": "address",
          "name": "account",
          "type": "address"
        }
      ],
      "name": "revokeRole",
      "outputs": [],
      "stateMutability": "nonpayable",
      "type": "function"
    },
    {
      "inputs": [
        {
          "internalType": "address",
          "name": "target",
          "type": "address"
        },
        {
          "internalType": "uint256",
          "name": "value",
          "type": "uint256"
        },
        {
          "internalType": "bytes",
          "name": "data",
          "type": "bytes"
        },
        {
          "internalType": "bytes32",
          "name": "predecessor",
          "type": "bytes32"
        },
        {
          "internalType": "bytes32",
          "name": "salt",
          "type": "bytes32"
        },
        {
          "internalType": "uint256",
          "name": "delay",
          "type": "uint256"
        }
      ],
      "name": "schedule",
      "outputs": [],
      "stateMutability": "nonpayable",
      "type": "function"
    },
    {
      "inputs": [
        {
          "internalType": "address[]",
          "name": "targets",
          "type": "address[]"
        },
        {
          "internalType": "uint256[]",
          "name": "values",
          "type": "uint256[]"
        },
        {
          "internalType": "bytes[]",
          "name": "payloads",
          "type": "bytes[]"
        },
        {
          "internalType": "bytes32",
          "name": "predecessor",
          "type": "bytes32"
        },
        {
          "internalType": "bytes32",
          "name": "salt",
          "type": "bytes32"
        },
        {
          "internalType": "uint256",
          "name": "delay",
          "type": "uint256"
        }
      ],
      "name": "scheduleBatch",
      "outputs": [],
      "stateMutability": "nonpayable",
      "type": "function"
    },
    {
      "inputs": [
        {
          "internalType": "bytes4",
          "name": "interfaceId",
          "type": "bytes4"
        }
      ],
      "name": "supportsInterface",
      "outputs": [
        {
          "internalType": "bool",
          "name": "",
          "type": "bool"
        }
      ],
      "stateMutability": "view",
      "type": "function"
    },
    {
      "inputs": [
        {
          "internalType": "uint256",
          "name": "newDelay",
          "type": "uint256"
        }
      ],
      "name": "updateDelay",
      "outputs": [],
      "stateMutability": "nonpayable",
      "type": "function"
    },
    {
      "stateMutability": "payable",
      "type": "receive"
    }
  ],
  "transactionHash": "0x188a73ceb4cd364bd6696e7d072f29aa672ec3d8f6df82c9797401f1f5b22e8c",
  "args": [
    86400,
    [],
    [],
    "0x87e1237074760F57b424121edcA06F082700dBC2"
  ],
  "numDeployments": 1,
  "solcInputHash": "4c61c29d0300feb1e86531110d821a82",
  "bytecode": "0x60806040523480156200001157600080fd5b5060405162002749380380620027498339810160408190526200003491620004b3565b8383838362000053600080516020620026c98339815191528062000235565b6200007d600080516020620026e9833981519152600080516020620026c983398151915262000235565b620000a760008051602062002709833981519152600080516020620026c983398151915262000235565b620000d160008051602062002729833981519152600080516020620026c983398151915262000235565b620000ec600080516020620026c98339815191523062000280565b6001600160a01b03811615620001175762000117600080516020620026c98339815191528262000280565b60005b83518110156200019d5762000161600080516020620026e98339815191528583815181106200014d576200014d6200053a565b60200260200101516200028060201b60201c565b6200018a600080516020620027298339815191528583815181106200014d576200014d6200053a565b620001958162000550565b90506200011a565b5060005b8251811015620001e757620001d4600080516020620027098339815191528483815181106200014d576200014d6200053a565b620001df8162000550565b9050620001a1565b5060028490556040805160008152602081018690527f11c24f4ead16507c69ac467fbd5e4eed5fb5c699626d2cc6d66421df253886d5910160405180910390a1505050505050505062000578565b600082815260208190526040808220600101805490849055905190918391839186917fbd79b86ffe0ab8e8776151514217cd7cacd52c909f66475c3af44e129f0b00ff9190a4505050565b6200028c828262000290565b5050565b6200028c8282620002a28282620002c1565b6000828152600360205260409020620002bc908262000361565b505050565b6000828152602081815260408083206001600160a01b038516845290915290205460ff166200028c576000828152602081815260408083206001600160a01b03851684529091529020805460ff191660011790556200031d3390565b6001600160a01b0316816001600160a01b0316837f2f8788117e7eff1d82e926ec794901d17c78024a50270940304540a733656f0d60405160405180910390a45050565b600062000378836001600160a01b03841662000381565b90505b92915050565b6000818152600183016020526040812054620003ca575081546001818101845560008481526020808220909301849055845484825282860190935260409020919091556200037b565b5060006200037b565b634e487b7160e01b600052604160045260246000fd5b80516001600160a01b03811681146200040157600080fd5b919050565b600082601f8301126200041857600080fd5b815160206001600160401b0380831115620004375762000437620003d3565b8260051b604051601f19603f830116810181811084821117156200045f576200045f620003d3565b6040529384528581018301938381019250878511156200047e57600080fd5b83870191505b84821015620004a8576200049882620003e9565b8352918301919083019062000484565b979650505050505050565b60008060008060808587031215620004ca57600080fd5b845160208601519094506001600160401b0380821115620004ea57600080fd5b620004f88883890162000406565b945060408701519150808211156200050f57600080fd5b506200051e8782880162000406565b9250506200052f60608601620003e9565b905092959194509250565b634e487b7160e01b600052603260045260246000fd5b6000600182016200057157634e487b7160e01b600052601160045260246000fd5b5060010190565b61214180620005886000396000f3fe6080604052600436106101d15760003560e01c80638f2a0bb0116100f7578063bc197c8111610095578063d547741f11610064578063d547741f146105f0578063e38335e514610610578063f23a6e6114610623578063f27a0c921461064f57600080fd5b8063bc197c8114610557578063c4d252f514610583578063ca15c873146105a3578063d45c4435146105c357600080fd5b806391d14854116100d157806391d14854146104ce578063a217fddf146104ee578063b08e51c014610503578063b1c5f4271461053757600080fd5b80638f2a0bb0146104425780638f61f4f5146104625780639010d07c1461049657600080fd5b8063248a9ca31161016f57806336568abe1161013e57806336568abe146103c2578063584b153e146103e257806364d62353146104025780638065657f1461042257600080fd5b8063248a9ca3146103215780632ab0f529146103515780632f2ff15d1461038257806331d50750146103a257600080fd5b80630d3cf6fc116101ab5780630d3cf6fc14610276578063134008d3146102aa57806313bc9f20146102bd578063150b7a02146102dd57600080fd5b806301d5062a146101dd57806301ffc9a7146101ff57806307bd02651461023457600080fd5b366101d857005b600080fd5b3480156101e957600080fd5b506101fd6101f8366004611713565b610664565b005b34801561020b57600080fd5b5061021f61021a366004611787565b61073a565b60405190151581526020015b60405180910390f35b34801561024057600080fd5b506102687fd8aa0f3194971a2a116679f7c2090f6939c8d4e01a2a8d7e41d55e5351469e6381565b60405190815260200161022b565b34801561028257600080fd5b506102687f5f58e3a2316349923ce3780f8d587db2d72378aed66a8261c916544fa6846ca581565b6101fd6102b83660046117b1565b61074b565b3480156102c957600080fd5b5061021f6102d836600461181c565b610800565b3480156102e957600080fd5b506103086102f83660046118ea565b630a85bd0160e11b949350505050565b6040516001600160e01b0319909116815260200161022b565b34801561032d57600080fd5b5061026861033c36600461181c565b60009081526020819052604090206001015490565b34801561035d57600080fd5b5061021f61036c36600461181c565b6000908152600160208190526040909120541490565b34801561038e57600080fd5b506101fd61039d366004611951565b610826565b3480156103ae57600080fd5b5061021f6103bd36600461181c565b610850565b3480156103ce57600080fd5b506101fd6103dd366004611951565b610869565b3480156103ee57600080fd5b5061021f6103fd36600461181c565b6108ec565b34801561040e57600080fd5b506101fd61041d36600461181c565b610902565b34801561042e57600080fd5b5061026861043d3660046117b1565b6109a6565b34801561044e57600080fd5b506101fd61045d3660046119c1565b6109e5565b34801561046e57600080fd5b506102687fb09aa5aeb3702cfd50b6b62bc4532604938f21248a27a1d5ca736082b6819cc181565b3480156104a257600080fd5b506104b66104b1366004611a72565b610b78565b6040516001600160a01b03909116815260200161022b565b3480156104da57600080fd5b5061021f6104e9366004611951565b610b90565b3480156104fa57600080fd5b50610268600081565b34801561050f57600080fd5b506102687ffd643c72710c63c0180259aba6b2d05451e3591a24e58b62239378085726f78381565b34801561054357600080fd5b50610268610552366004611a94565b610bb9565b34801561056357600080fd5b50610308610572366004611bbb565b63bc197c8160e01b95945050505050565b34801561058f57600080fd5b506101fd61059e36600461181c565b610bfe565b3480156105af57600080fd5b506102686105be36600461181c565b610cd3565b3480156105cf57600080fd5b506102686105de36600461181c565b60009081526001602052604090205490565b3480156105fc57600080fd5b506101fd61060b366004611951565b610cea565b6101fd61061e366004611a94565b610d0f565b34801561062f57600080fd5b5061030861063e366004611c64565b63f23a6e6160e01b95945050505050565b34801561065b57600080fd5b50600254610268565b7fb09aa5aeb3702cfd50b6b62bc4532604938f21248a27a1d5ca736082b6819cc161068e81610e99565b600061069e8989898989896109a6565b90506106aa8184610ea6565b6000817f4cf4410cc57040e44862ef0f45f3dd5a5e02db8eb8add648d4b0e236f1d07dca8b8b8b8b8b8a6040516106e696959493929190611cf1565b60405180910390a3831561072f57807f20fda5fd27a1ea7bf5b9567f143ac5470bb059374a27e8f67cb44f946f6d03878560405161072691815260200190565b60405180910390a25b505050505050505050565b600061074582610f95565b92915050565b7fd8aa0f3194971a2a116679f7c2090f6939c8d4e01a2a8d7e41d55e5351469e63610777816000610b90565b610785576107858133610fba565b60006107958888888888886109a6565b90506107a18185611013565b6107ad888888886110af565b6000817fc2617efa69bab66782fa219543714338489c4e9e178271560a91b82c3f612b588a8a8a8a6040516107e59493929190611d2e565b60405180910390a36107f681611182565b5050505050505050565b60008181526001602052604081205460018111801561081f5750428111155b9392505050565b60008281526020819052604090206001015461084181610e99565b61084b83836111bb565b505050565b60008181526001602052604081205481905b1192915050565b6001600160a01b03811633146108de5760405162461bcd60e51b815260206004820152602f60248201527f416363657373436f6e74726f6c3a2063616e206f6e6c792072656e6f756e636560448201526e103937b632b9903337b91039b2b63360891b60648201526084015b60405180910390fd5b6108e882826111c5565b5050565b6000818152600160208190526040822054610862565b3330146109655760405162461bcd60e51b815260206004820152602b60248201527f54696d656c6f636b436f6e74726f6c6c65723a2063616c6c6572206d7573742060448201526a62652074696d656c6f636b60a81b60648201526084016108d5565b60025460408051918252602082018390527f11c24f4ead16507c69ac467fbd5e4eed5fb5c699626d2cc6d66421df253886d5910160405180910390a1600255565b60008686868686866040516020016109c396959493929190611cf1565b6040516020818303038152906040528051906020012090509695505050505050565b7fb09aa5aeb3702cfd50b6b62bc4532604938f21248a27a1d5ca736082b6819cc1610a0f81610e99565b888714610a2e5760405162461bcd60e51b81526004016108d590611d60565b888514610a4d5760405162461bcd60e51b81526004016108d590611d60565b6000610a5f8b8b8b8b8b8b8b8b610bb9565b9050610a6b8184610ea6565b60005b8a811015610b295780827f4cf4410cc57040e44862ef0f45f3dd5a5e02db8eb8add648d4b0e236f1d07dca8e8e85818110610aab57610aab611da3565b9050602002016020810190610ac09190611db9565b8d8d86818110610ad257610ad2611da3565b905060200201358c8c87818110610aeb57610aeb611da3565b9050602002810190610afd9190611dd4565b8c8b604051610b1196959493929190611cf1565b60405180910390a3610b2281611e30565b9050610a6e565b508315610b6b57807f20fda5fd27a1ea7bf5b9567f143ac5470bb059374a27e8f67cb44f946f6d038785604051610b6291815260200190565b60405180910390a25b5050505050505050505050565b600082815260036020526040812061081f90836111cf565b6000918252602082815260408084206001600160a01b0393909316845291905290205460ff1690565b60008888888888888888604051602001610bda989796959493929190611eda565b60405160208183030381529060405280519060200120905098975050505050505050565b7ffd643c72710c63c0180259aba6b2d05451e3591a24e58b62239378085726f783610c2881610e99565b610c31826108ec565b610c975760405162461bcd60e51b815260206004820152603160248201527f54696d656c6f636b436f6e74726f6c6c65723a206f7065726174696f6e2063616044820152701b9b9bdd0818994818d85b98d95b1b1959607a1b60648201526084016108d5565b6000828152600160205260408082208290555183917fbaa1eb22f2a492ba1a5fea61b8df4d27c6c8b5f3971e63bb58fa14ff72eedb7091a25050565b6000818152600360205260408120610745906111db565b600082815260208190526040902060010154610d0581610e99565b61084b83836111c5565b7fd8aa0f3194971a2a116679f7c2090f6939c8d4e01a2a8d7e41d55e5351469e63610d3b816000610b90565b610d4957610d498133610fba565b878614610d685760405162461bcd60e51b81526004016108d590611d60565b878414610d875760405162461bcd60e51b81526004016108d590611d60565b6000610d998a8a8a8a8a8a8a8a610bb9565b9050610da58185611013565b60005b89811015610e835760008b8b83818110610dc457610dc4611da3565b9050602002016020810190610dd99190611db9565b905060008a8a84818110610def57610def611da3565b9050602002013590503660008a8a86818110610e0d57610e0d611da3565b9050602002810190610e1f9190611dd4565b91509150610e2f848484846110af565b84867fc2617efa69bab66782fa219543714338489c4e9e178271560a91b82c3f612b5886868686604051610e669493929190611d2e565b60405180910390a35050505080610e7c90611e30565b9050610da8565b50610e8d81611182565b50505050505050505050565b610ea38133610fba565b50565b610eaf82610850565b15610f145760405162461bcd60e51b815260206004820152602f60248201527f54696d656c6f636b436f6e74726f6c6c65723a206f7065726174696f6e20616c60448201526e1c9958591e481cd8da19591d5b1959608a1b60648201526084016108d5565b600254811015610f755760405162461bcd60e51b815260206004820152602660248201527f54696d656c6f636b436f6e74726f6c6c65723a20696e73756666696369656e746044820152652064656c617960d01b60648201526084016108d5565b610f7f8142611f7b565b6000928352600160205260409092209190915550565b60006001600160e01b03198216635a05180f60e01b14806107455750610745826111e5565b610fc48282610b90565b6108e857610fd18161120a565b610fdc83602061121c565b604051602001610fed929190611fb2565b60408051601f198184030181529082905262461bcd60e51b82526108d591600401612027565b61101c82610800565b6110385760405162461bcd60e51b81526004016108d59061205a565b8015806110545750600081815260016020819052604090912054145b6108e85760405162461bcd60e51b815260206004820152602660248201527f54696d656c6f636b436f6e74726f6c6c65723a206d697373696e6720646570656044820152656e64656e637960d01b60648201526084016108d5565b6000846001600160a01b03168484846040516110cc9291906120a4565b60006040518083038185875af1925050503d8060008114611109576040519150601f19603f3d011682016040523d82523d6000602084013e61110e565b606091505b505090508061117b5760405162461bcd60e51b815260206004820152603360248201527f54696d656c6f636b436f6e74726f6c6c65723a20756e6465726c79696e6720746044820152721c985b9cd858dd1a5bdb881c995d995c9d1959606a1b60648201526084016108d5565b5050505050565b61118b81610800565b6111a75760405162461bcd60e51b81526004016108d59061205a565b600090815260016020819052604090912055565b6108e882826113b7565b6108e882826113d9565b600061081f83836113fb565b6000610745825490565b60006001600160e01b03198216630271189760e51b1480610745575061074582611425565b60606107456001600160a01b03831660145b6060600061122b8360026120b4565b611236906002611f7b565b6001600160401b0381111561124d5761124d611835565b6040519080825280601f01601f191660200182016040528015611277576020820181803683370190505b509050600360fc1b8160008151811061129257611292611da3565b60200101906001600160f81b031916908160001a905350600f60fb1b816001815181106112c1576112c1611da3565b60200101906001600160f81b031916908160001a90535060006112e58460026120b4565b6112f0906001611f7b565b90505b6001811115611368576f181899199a1a9b1b9c1cb0b131b232b360811b85600f166010811061132457611324611da3565b1a60f81b82828151811061133a5761133a611da3565b60200101906001600160f81b031916908160001a90535060049490941c93611361816120cb565b90506112f3565b50831561081f5760405162461bcd60e51b815260206004820181905260248201527f537472696e67733a20686578206c656e67746820696e73756666696369656e7460448201526064016108d5565b6113c1828261145a565b600082815260036020526040902061084b90826114de565b6113e382826114f3565b600082815260036020526040902061084b9082611558565b600082600001828154811061141257611412611da3565b9060005260206000200154905092915050565b60006001600160e01b03198216637965db0b60e01b148061074557506301ffc9a760e01b6001600160e01b0319831614610745565b6114648282610b90565b6108e8576000828152602081815260408083206001600160a01b03851684529091529020805460ff1916600117905561149a3390565b6001600160a01b0316816001600160a01b0316837f2f8788117e7eff1d82e926ec794901d17c78024a50270940304540a733656f0d60405160405180910390a45050565b600061081f836001600160a01b03841661156d565b6114fd8282610b90565b156108e8576000828152602081815260408083206001600160a01b0385168085529252808320805460ff1916905551339285917ff6391f5c32d9c69d2a47ea670b442974b53935d1edc7fd64eb21e047a839171b9190a45050565b600061081f836001600160a01b0384166115bc565b60008181526001830160205260408120546115b457508154600181810184556000848152602080822090930184905584548482528286019093526040902091909155610745565b506000610745565b600081815260018301602052604081205480156116a55760006115e06001836120e2565b85549091506000906115f4906001906120e2565b905081811461165957600086600001828154811061161457611614611da3565b906000526020600020015490508087600001848154811061163757611637611da3565b6000918252602080832090910192909255918252600188019052604090208390555b855486908061166a5761166a6120f5565b600190038181906000526020600020016000905590558560010160008681526020019081526020016000206000905560019350505050610745565b6000915050610745565b80356001600160a01b03811681146116c657600080fd5b919050565b60008083601f8401126116dd57600080fd5b5081356001600160401b038111156116f457600080fd5b60208301915083602082850101111561170c57600080fd5b9250929050565b600080600080600080600060c0888a03121561172e57600080fd5b611737886116af565b96506020880135955060408801356001600160401b0381111561175957600080fd5b6117658a828b016116cb565b989b979a50986060810135976080820135975060a09091013595509350505050565b60006020828403121561179957600080fd5b81356001600160e01b03198116811461081f57600080fd5b60008060008060008060a087890312156117ca57600080fd5b6117d3876116af565b95506020870135945060408701356001600160401b038111156117f557600080fd5b61180189828a016116cb565b979a9699509760608101359660809091013595509350505050565b60006020828403121561182e57600080fd5b5035919050565b634e487b7160e01b600052604160045260246000fd5b604051601f8201601f191681016001600160401b038111828210171561187357611873611835565b604052919050565b600082601f83011261188c57600080fd5b81356001600160401b038111156118a5576118a5611835565b6118b8601f8201601f191660200161184b565b8181528460208386010111156118cd57600080fd5b816020850160208301376000918101602001919091529392505050565b6000806000806080858703121561190057600080fd5b611909856116af565b9350611917602086016116af565b92506040850135915060608501356001600160401b0381111561193957600080fd5b6119458782880161187b565b91505092959194509250565b6000806040838503121561196457600080fd5b82359150611974602084016116af565b90509250929050565b60008083601f84011261198f57600080fd5b5081356001600160401b038111156119a657600080fd5b6020830191508360208260051b850101111561170c57600080fd5b600080600080600080600080600060c08a8c0312156119df57600080fd5b89356001600160401b03808211156119f657600080fd5b611a028d838e0161197d565b909b50995060208c0135915080821115611a1b57600080fd5b611a278d838e0161197d565b909950975060408c0135915080821115611a4057600080fd5b50611a4d8c828d0161197d565b9a9d999c50979a969997986060880135976080810135975060a0013595509350505050565b60008060408385031215611a8557600080fd5b50508035926020909101359150565b60008060008060008060008060a0898b031215611ab057600080fd5b88356001600160401b0380821115611ac757600080fd5b611ad38c838d0161197d565b909a50985060208b0135915080821115611aec57600080fd5b611af88c838d0161197d565b909850965060408b0135915080821115611b1157600080fd5b50611b1e8b828c0161197d565b999c989b509699959896976060870135966080013595509350505050565b600082601f830112611b4d57600080fd5b813560206001600160401b03821115611b6857611b68611835565b8160051b611b7782820161184b565b9283528481018201928281019087851115611b9157600080fd5b83870192505b84831015611bb057823582529183019190830190611b97565b979650505050505050565b600080600080600060a08688031215611bd357600080fd5b611bdc866116af565b9450611bea602087016116af565b935060408601356001600160401b0380821115611c0657600080fd5b611c1289838a01611b3c565b94506060880135915080821115611c2857600080fd5b611c3489838a01611b3c565b93506080880135915080821115611c4a57600080fd5b50611c578882890161187b565b9150509295509295909350565b600080600080600060a08688031215611c7c57600080fd5b611c85866116af565b9450611c93602087016116af565b9350604086013592506060860135915060808601356001600160401b03811115611cbc57600080fd5b611c578882890161187b565b81835281816020850137506000828201602090810191909152601f909101601f19169091010190565b60018060a01b038716815285602082015260a060408201526000611d1960a083018688611cc8565b60608301949094525060800152949350505050565b60018060a01b0385168152836020820152606060408201526000611d56606083018486611cc8565b9695505050505050565b60208082526023908201527f54696d656c6f636b436f6e74726f6c6c65723a206c656e677468206d69736d616040820152620e8c6d60eb1b606082015260800190565b634e487b7160e01b600052603260045260246000fd5b600060208284031215611dcb57600080fd5b61081f826116af565b6000808335601e19843603018112611deb57600080fd5b8301803591506001600160401b03821115611e0557600080fd5b60200191503681900382131561170c57600080fd5b634e487b7160e01b600052601160045260246000fd5b600060018201611e4257611e42611e1a565b5060010190565b81835260006020808501808196508560051b810191508460005b87811015611ecd5782840389528135601e19883603018112611e8457600080fd5b870185810190356001600160401b03811115611e9f57600080fd5b803603821315611eae57600080fd5b611eb9868284611cc8565b9a87019a9550505090840190600101611e63565b5091979650505050505050565b60a0808252810188905260008960c08301825b8b811015611f1b576001600160a01b03611f06846116af565b16825260209283019290910190600101611eed565b5083810360208501528881526001600160fb1b03891115611f3b57600080fd5b8860051b9150818a60208301370182810360209081016040850152611f639082018789611e49565b60608401959095525050608001529695505050505050565b8082018082111561074557610745611e1a565b60005b83811015611fa9578181015183820152602001611f91565b50506000910152565b7f416363657373436f6e74726f6c3a206163636f756e7420000000000000000000815260008351611fea816017850160208801611f8e565b7001034b99036b4b9b9b4b733903937b6329607d1b601791840191820152835161201b816028840160208801611f8e565b01602801949350505050565b6020815260008251806020840152612046816040850160208701611f8e565b601f01601f19169190910160400192915050565b6020808252602a908201527f54696d656c6f636b436f6e74726f6c6c65723a206f7065726174696f6e206973604082015269206e6f7420726561647960b01b606082015260800190565b8183823760009101908152919050565b808202811582820484141761074557610745611e1a565b6000816120da576120da611e1a565b506000190190565b8181038181111561074557610745611e1a565b634e487b7160e01b600052603160045260246000fdfea26469706673582212201f11f206acac3aec8857d68f8bb28351c2255588a752f0a3e270a3c807ffcfe864736f6c634300081300335f58e3a2316349923ce3780f8d587db2d72378aed66a8261c916544fa6846ca5b09aa5aeb3702cfd50b6b62bc4532604938f21248a27a1d5ca736082b6819cc1d8aa0f3194971a2a116679f7c2090f6939c8d4e01a2a8d7e41d55e5351469e63fd643c72710c63c0180259aba6b2d05451e3591a24e58b62239378085726f783",
  "devdoc": {
    "events": {
      "CallExecuted(bytes32,uint256,address,uint256,bytes)": {
        "details": "Emitted when a call is performed as part of operation `id`."
      },
      "CallSalt(bytes32,bytes32)": {
        "details": "Emitted when new proposal is scheduled with non-zero salt."
      },
      "CallScheduled(bytes32,uint256,address,uint256,bytes,bytes32,uint256)": {
        "details": "Emitted when a call is scheduled as part of operation `id`."
      },
      "Cancelled(bytes32)": {
        "details": "Emitted when operation `id` is cancelled."
      },
      "MinDelayChange(uint256,uint256)": {
        "details": "Emitted when the minimum delay for future operations is modified."
      },
      "RoleAdminChanged(bytes32,bytes32,bytes32)": {
        "details": "Emitted when `newAdminRole` is set as ``role``'s admin role, replacing `previousAdminRole` `DEFAULT_ADMIN_ROLE` is the starting admin for all roles, despite {RoleAdminChanged} not being emitted signaling this. _Available since v3.1._"
      },
      "RoleGranted(bytes32,address,address)": {
        "details": "Emitted when `account` is granted `role`. `sender` is the account that originated the contract call, an admin role bearer except when using {AccessControl-_setupRole}."
      },
      "RoleRevoked(bytes32,address,address)": {
        "details": "Emitted when `account` is revoked `role`. `sender` is the account that originated the contract call:   - if using `revokeRole`, it is the admin role bearer   - if using `renounceRole`, it is the role bearer (i.e. `account`)"
      }
    },
    "kind": "dev",
    "methods": {
      "cancel(bytes32)": {
        "details": "Cancel an operation. Requirements: - the caller must have the 'canceller' role."
      },
      "constructor": {
        "params": {
          "admin": ": optional account to be granted admin role; disable with zero address",
          "executors": ": accounts to be granted executor role",
          "minDelay": ": initial minimum delay for operations",
          "proposers": ": accounts to be granted proposer and canceller roles"
        }
      },
      "execute(address,uint256,bytes,bytes32,bytes32)": {
        "details": "Execute an (ready) operation containing a single transaction. Emits a {CallExecuted} event. Requirements: - the caller must have the 'executor' role."
      },
      "executeBatch(address[],uint256[],bytes[],bytes32,bytes32)": {
        "details": "Execute an (ready) operation containing a batch of transactions. Emits one {CallExecuted} event per transaction in the batch. Requirements: - the caller must have the 'executor' role."
      },
      "getMinDelay()": {
        "details": "Returns the minimum delay for an operation to become valid. This value can be changed by executing an operation that calls `updateDelay`."
      },
      "getRoleAdmin(bytes32)": {
        "details": "Returns the admin role that controls `role`. See {grantRole} and {revokeRole}. To change a role's admin, use {_setRoleAdmin}."
      },
      "getRoleMember(bytes32,uint256)": {
        "details": "Returns one of the accounts that have `role`. `index` must be a value between 0 and {getRoleMemberCount}, non-inclusive. Role bearers are not sorted in any particular way, and their ordering may change at any point. WARNING: When using {getRoleMember} and {getRoleMemberCount}, make sure you perform all queries on the same block. See the following https://forum.openzeppelin.com/t/iterating-over-elements-on-enumerableset-in-openzeppelin-contracts/2296[forum post] for more information."
      },
      "getRoleMemberCount(bytes32)": {
        "details": "Returns the number of accounts that have `role`. Can be used together with {getRoleMember} to enumerate all bearers of a role."
      },
      "getTimestamp(bytes32)": {
        "details": "Returns the timestamp at which an operation becomes ready (0 for unset operations, 1 for done operations)."
      },
      "grantRole(bytes32,address)": {
        "details": "Grants `role` to `account`. If `account` had not been already granted `role`, emits a {RoleGranted} event. Requirements: - the caller must have ``role``'s admin role. May emit a {RoleGranted} event."
      },
      "hasRole(bytes32,address)": {
        "details": "Returns `true` if `account` has been granted `role`."
      },
      "hashOperation(address,uint256,bytes,bytes32,bytes32)": {
        "details": "Returns the identifier of an operation containing a single transaction."
      },
      "hashOperationBatch(address[],uint256[],bytes[],bytes32,bytes32)": {
        "details": "Returns the identifier of an operation containing a batch of transactions."
      },
      "isOperation(bytes32)": {
        "details": "Returns whether an id correspond to a registered operation. This includes both Pending, Ready and Done operations."
      },
      "isOperationDone(bytes32)": {
        "details": "Returns whether an operation is done or not."
      },
      "isOperationPending(bytes32)": {
        "details": "Returns whether an operation is pending or not. Note that a \"pending\" operation may also be \"ready\"."
      },
      "isOperationReady(bytes32)": {
        "details": "Returns whether an operation is ready for execution. Note that a \"ready\" operation is also \"pending\"."
      },
      "onERC1155BatchReceived(address,address,uint256[],uint256[],bytes)": {
        "details": "See {IERC1155Receiver-onERC1155BatchReceived}."
      },
      "onERC1155Received(address,address,uint256,uint256,bytes)": {
        "details": "See {IERC1155Receiver-onERC1155Received}."
      },
      "onERC721Received(address,address,uint256,bytes)": {
        "details": "See {IERC721Receiver-onERC721Received}."
      },
      "renounceRole(bytes32,address)": {
        "details": "Revokes `role` from the calling account. Roles are often managed via {grantRole} and {revokeRole}: this function's purpose is to provide a mechanism for accounts to lose their privileges if they are compromised (such as when a trusted device is misplaced). If the calling account had been revoked `role`, emits a {RoleRevoked} event. Requirements: - the caller must be `account`. May emit a {RoleRevoked} event."
      },
      "revokeRole(bytes32,address)": {
        "details": "Revokes `role` from `account`. If `account` had been granted `role`, emits a {RoleRevoked} event. Requirements: - the caller must have ``role``'s admin role. May emit a {RoleRevoked} event."
      },
      "schedule(address,uint256,bytes,bytes32,bytes32,uint256)": {
        "details": "Schedule an operation containing a single transaction. Emits {CallSalt} if salt is nonzero, and {CallScheduled}. Requirements: - the caller must have the 'proposer' role."
      },
      "scheduleBatch(address[],uint256[],bytes[],bytes32,bytes32,uint256)": {
        "details": "Schedule an operation containing a batch of transactions. Emits {CallSalt} if salt is nonzero, and one {CallScheduled} event per transaction in the batch. Requirements: - the caller must have the 'proposer' role."
      },
      "supportsInterface(bytes4)": {
        "details": "See {IERC165-supportsInterface}."
      },
      "updateDelay(uint256)": {
        "details": "Changes the minimum timelock duration for future operations. Emits a {MinDelayChange} event. Requirements: - the caller must be the timelock itself. This can only be achieved by scheduling and later executing an operation where the timelock is the target and the data is the ABI-encoded call to this function."
      }
    },
    "version": 1
  },
  "userdoc": {
    "kind": "user",
    "methods": {
      "constructor": {
        "notice": "The optional admin can aid with initial configuration of roles after deployment without being subject to delay, but this role should be subsequently renounced in favor of administration through timelocked proposals."
      }
    },
    "version": 1
  },
  "storageLayout": {
    "storage": [
      {
        "astId": 7946,
        "contract": "src/contracts/imx/Timelock.sol:Timelock",
        "label": "_roles",
        "offset": 0,
        "slot": "0",
        "type": "t_mapping(t_bytes32,t_struct(RoleData)7941_storage)"
      },
      {
        "astId": 10536,
        "contract": "src/contracts/imx/Timelock.sol:Timelock",
        "label": "_timestamps",
        "offset": 0,
        "slot": "1",
        "type": "t_mapping(t_bytes32,t_uint256)"
      },
      {
        "astId": 10538,
        "contract": "src/contracts/imx/Timelock.sol:Timelock",
        "label": "_minDelay",
        "offset": 0,
        "slot": "2",
        "type": "t_uint256"
      },
      {
        "astId": 8256,
        "contract": "src/contracts/imx/Timelock.sol:Timelock",
        "label": "_roleMembers",
        "offset": 0,
        "slot": "3",
        "type": "t_mapping(t_bytes32,t_struct(AddressSet)25306_storage)"
      }
    ],
    "types": {
      "t_address": {
        "encoding": "inplace",
        "label": "address",
        "numberOfBytes": "20"
      },
      "t_array(t_bytes32)dyn_storage": {
        "base": "t_bytes32",
        "encoding": "dynamic_array",
        "label": "bytes32[]",
        "numberOfBytes": "32"
      },
      "t_bool": {
        "encoding": "inplace",
        "label": "bool",
        "numberOfBytes": "1"
      },
      "t_bytes32": {
        "encoding": "inplace",
        "label": "bytes32",
        "numberOfBytes": "32"
      },
      "t_mapping(t_address,t_bool)": {
        "encoding": "mapping",
        "key": "t_address",
        "label": "mapping(address => bool)",
        "numberOfBytes": "32",
        "value": "t_bool"
      },
      "t_mapping(t_bytes32,t_struct(AddressSet)25306_storage)": {
        "encoding": "mapping",
        "key": "t_bytes32",
        "label": "mapping(bytes32 => struct EnumerableSet.AddressSet)",
        "numberOfBytes": "32",
        "value": "t_struct(AddressSet)25306_storage"
      },
      "t_mapping(t_bytes32,t_struct(RoleData)7941_storage)": {
        "encoding": "mapping",
        "key": "t_bytes32",
        "label": "mapping(bytes32 => struct AccessControl.RoleData)",
        "numberOfBytes": "32",
        "value": "t_struct(RoleData)7941_storage"
      },
      "t_mapping(t_bytes32,t_uint256)": {
        "encoding": "mapping",
        "key": "t_bytes32",
        "label": "mapping(bytes32 => uint256)",
        "numberOfBytes": "32",
        "value": "t_uint256"
      },
      "t_struct(AddressSet)25306_storage": {
        "encoding": "inplace",
        "label": "struct EnumerableSet.AddressSet",
        "members": [
          {
            "astId": 25305,
            "contract": "src/contracts/imx/Timelock.sol:Timelock",
            "label": "_inner",
            "offset": 0,
            "slot": "0",
            "type": "t_struct(Set)24991_storage"
          }
        ],
        "numberOfBytes": "64"
      },
      "t_struct(RoleData)7941_storage": {
        "encoding": "inplace",
        "label": "struct AccessControl.RoleData",
        "members": [
          {
            "astId": 7938,
            "contract": "src/contracts/imx/Timelock.sol:Timelock",
            "label": "members",
            "offset": 0,
            "slot": "0",
            "type": "t_mapping(t_address,t_bool)"
          },
          {
            "astId": 7940,
            "contract": "src/contracts/imx/Timelock.sol:Timelock",
            "label": "adminRole",
            "offset": 0,
            "slot": "1",
            "type": "t_bytes32"
          }
        ],
        "numberOfBytes": "64"
      },
      "t_struct(Set)24991_storage": {
        "encoding": "inplace",
        "label": "struct EnumerableSet.Set",
        "members": [
          {
            "astId": 24986,
            "contract": "src/contracts/imx/Timelock.sol:Timelock",
            "label": "_values",
            "offset": 0,
            "slot": "0",
            "type": "t_array(t_bytes32)dyn_storage"
          },
          {
            "astId": 24990,
            "contract": "src/contracts/imx/Timelock.sol:Timelock",
            "label": "_indexes",
            "offset": 0,
            "slot": "1",
            "type": "t_mapping(t_bytes32,t_uint256)"
          }
        ],
        "numberOfBytes": "64"
      },
      "t_uint256": {
        "encoding": "inplace",
        "label": "uint256",
        "numberOfBytes": "32"
      }
    }
  }
}