{
  "address": "0x9a1EED0f2AaeB5C3B790FC6BdEcc1d045fa53Acd",
  "abi": [
    {
      "anonymous": false,
      "inputs": [
        {
          "indexed": true,
          "internalType": "address",
          "name": "by",
          "type": "address"
        },
        {
          "indexed": true,
          "internalType": "address",
          "name": "oldMaintainer",
          "type": "address"
        },
        {
          "indexed": true,
          "internalType": "address",
          "name": "newMaintainer",
          "type": "address"
        }
      ],
      "name": "MaintainerUpdated",
      "type": "event"
    },
    {
      "anonymous": false,
      "inputs": [
        {
          "indexed": true,
          "internalType": "address",
          "name": "by",
          "type": "address"
        },
        {
          "indexed": false,
          "internalType": "uint256",
          "name": "amount",
          "type": "uint256"
        }
      ],
      "name": "NFTLDeposited",
      "type": "event"
    },
    {
      "anonymous": false,
      "inputs": [
        {
          "indexed": true,
          "internalType": "address",
          "name": "by",
          "type": "address"
        },
        {
          "indexed": true,
          "internalType": "address",
          "name": "beneficiary",
          "type": "address"
        },
        {
          "indexed": false,
          "internalType": "uint256",
          "name": "amount",
          "type": "uint256"
        }
      ],
      "name": "NFTLWithdrawn",
      "type": "event"
    },
    {
      "anonymous": false,
      "inputs": [
        {
          "indexed": true,
          "internalType": "address",
          "name": "by",
          "type": "address"
        },
        {
          "indexed": true,
          "internalType": "address",
          "name": "beneficiary",
          "type": "address"
        },
        {
          "indexed": false,
          "internalType": "uint256",
          "name": "amount",
          "type": "uint256"
        }
      ],
      "name": "NFTLWithdrawnByDAO",
      "type": "event"
    },
    {
      "anonymous": false,
      "inputs": [
        {
          "indexed": true,
          "internalType": "address",
          "name": "previousOwner",
          "type": "address"
        },
        {
          "indexed": true,
          "internalType": "address",
          "name": "newOwner",
          "type": "address"
        }
      ],
      "name": "OwnershipTransferred",
      "type": "event"
    },
    {
      "inputs": [
        {
          "internalType": "uint256",
          "name": "_amount",
          "type": "uint256"
        }
      ],
      "name": "deposit",
      "outputs": [],
      "stateMutability": "nonpayable",
      "type": "function"
    },
    {
      "inputs": [
        {
          "internalType": "address",
          "name": "_nftl",
          "type": "address"
        },
        {
          "internalType": "address",
          "name": "_maintainer",
          "type": "address"
        }
      ],
      "name": "initialize",
      "outputs": [],
      "stateMutability": "nonpayable",
      "type": "function"
    },
    {
      "inputs": [],
      "name": "maintainer",
      "outputs": [
        {
          "internalType": "address",
          "name": "",
          "type": "address"
        }
      ],
      "stateMutability": "view",
      "type": "function"
    },
    {
      "inputs": [],
      "name": "nftl",
      "outputs": [
        {
          "internalType": "address",
          "name": "",
          "type": "address"
        }
      ],
      "stateMutability": "view",
      "type": "function"
    },
    {
      "inputs": [
        {
          "internalType": "address",
          "name": "",
          "type": "address"
        }
      ],
      "name": "nonce",
      "outputs": [
        {
          "internalType": "uint256",
          "name": "",
          "type": "uint256"
        }
      ],
      "stateMutability": "view",
      "type": "function"
    },
    {
      "inputs": [],
      "name": "owner",
      "outputs": [
        {
          "internalType": "address",
          "name": "",
          "type": "address"
        }
      ],
      "stateMutability": "view",
      "type": "function"
    },
    {
      "inputs": [],
      "name": "renounceOwnership",
      "outputs": [],
      "stateMutability": "nonpayable",
      "type": "function"
    },
    {
      "inputs": [
        {
          "internalType": "bytes",
          "name": "",
          "type": "bytes"
        }
      ],
      "name": "signatures",
      "outputs": [
        {
          "internalType": "bool",
          "name": "",
          "type": "bool"
        }
      ],
      "stateMutability": "view",
      "type": "function"
    },
    {
      "inputs": [
        {
          "internalType": "address",
          "name": "newOwner",
          "type": "address"
        }
      ],
      "name": "transferOwnership",
      "outputs": [],
      "stateMutability": "nonpayable",
      "type": "function"
    },
    {
      "inputs": [
        {
          "internalType": "address",
          "name": "_maintainer",
          "type": "address"
        }
      ],
      "name": "updateMaintainer",
      "outputs": [],
      "stateMutability": "nonpayable",
      "type": "function"
    },
    {
      "inputs": [
        {
          "internalType": "uint256",
          "name": "_amount",
          "type": "uint256"
        },
        {
          "internalType": "uint256",
          "name": "_nonce",
          "type": "uint256"
        },
        {
          "internalType": "uint256",
          "name": "_expireAt",
          "type": "uint256"
        },
        {
          "internalType": "bytes",
          "name": "_signature",
          "type": "bytes"
        }
      ],
      "name": "withdraw",
      "outputs": [],
      "stateMutability": "nonpayable",
      "type": "function"
    },
    {
      "inputs": [
        {
          "internalType": "address",
          "name": "_beneficiary",
          "type": "address"
        },
        {
          "internalType": "uint256",
          "name": "_amount",
          "type": "uint256"
        }
      ],
      "name": "withdrawByDAO",
      "outputs": [],
      "stateMutability": "nonpayable",
      "type": "function"
    }
  ],
  "transactionHash": "0xfb4faaf764ada936a6795b39a72de4645bd6cb7fcfe3fcb9589fa2ec7cacc0e5",
  "args": [],
  "numDeployments": 1,
  "solcInputHash": "b3682e88cecf5fc80a28adf8bc4afc7c",
  "bytecode": "0x608060405234801561001057600080fd5b5061140d806100206000396000f3fe608060405234801561001057600080fd5b50600436106100d45760003560e01c80639850d32b11610081578063d31e22de1161005b578063d31e22de146101b1578063e50973fd146101ef578063f2fde38b1461020257600080fd5b80639850d32b14610178578063b6b55f251461018b578063c6e628e31461019e57600080fd5b8063715018a6116100b2578063715018a61461014c578063744fb6ca146101545780638da5cb5b1461016757600080fd5b8063485cc955146100d95780634e81da0a146100ee57806370ae92d21461011e575b600080fd5b6100ec6100e736600461113d565b610215565b005b606554610101906001600160a01b031681565b6040516001600160a01b0390911681526020015b60405180910390f35b61013e61012c366004611170565b60686020526000908152604090205481565b604051908152602001610115565b6100ec610329565b6100ec61016236600461122e565b61038f565b6033546001600160a01b0316610101565b606a54610101906001600160a01b031681565b6100ec61019936600461127e565b610630565b6100ec6101ac366004611170565b6106a4565b6101df6101bf366004611297565b805160208183018101805160698252928201919093012091525460ff1681565b6040519015158152602001610115565b6100ec6101fd3660046112d4565b610769565b6100ec610210366004611170565b61081e565b600054610100900460ff166102305760005460ff1615610234565b303b155b6102ab5760405162461bcd60e51b815260206004820152602e60248201527f496e697469616c697a61626c653a20636f6e747261637420697320616c72656160448201527f647920696e697469616c697a656400000000000000000000000000000000000060648201526084015b60405180910390fd5b600054610100900460ff161580156102cd576000805461ffff19166101011790555b6102d5610900565b606580546001600160a01b0380861673ffffffffffffffffffffffffffffffffffffffff1992831617909255606a8054928516929091169190911790558015610324576000805461ff00191690555b505050565b6033546001600160a01b031633146103835760405162461bcd60e51b815260206004820181905260248201527f4f776e61626c653a2063616c6c6572206973206e6f7420746865206f776e657260448201526064016102a2565b61038d6000610973565b565b3360009081526068602052604090205482146103ed5760405162461bcd60e51b815260206004820152601060248201527f6d69736d617463686564206e6f6e63650000000000000000000000000000000060448201526064016102a2565b33600090815260686020526040812080546001929061040d9084906112fe565b9091555050604051606990610423908390611350565b9081526040519081900360200190205460ff16156104835760405162461bcd60e51b815260206004820152600e60248201527f75736564207369676e617475726500000000000000000000000000000000000060448201526064016102a2565b60016069826040516104959190611350565b908152604080519182900360209081018320805494151560ff19909516949094179093553360601b6bffffffffffffffffffffffff19168383015260348201869052605480830186905281518084039091018152607490920190528051910120606a546001600160a01b03166105628361055c846040517f19457468657265756d205369676e6564204d6573736167653a0a3332000000006020820152603c8101829052600090605c01604051602081830303815290604052805190602001209050919050565b906109d2565b6001600160a01b0316146105b85760405162461bcd60e51b815260206004820152600c60248201527f77726f6e67207369676e6572000000000000000000000000000000000000000060448201526064016102a2565b33600090815260676020526040812080548692906105d79084906112fe565b90915550506065546105f3906001600160a01b031633866109f6565b604051848152339081907fd35a2ba61457d684dbc6d761a6f17e58d8c10e22a9380ec70f576f51c3e6daca9060200160405180910390a350505050565b606554610648906001600160a01b0316333084610a86565b33600090815260666020526040812080548392906106679084906112fe565b909155505060405181815233907f1d5ea51c0633cbd3daea1bb1554365134ec201e88b9f2cc812320bc8073085839060200160405180910390a250565b6033546001600160a01b031633146106fe5760405162461bcd60e51b815260206004820181905260248201527f4f776e61626c653a2063616c6c6572206973206e6f7420746865206f776e657260448201526064016102a2565b606a546040516001600160a01b0380841692169033907f83a400e9e74352cc8b22e130d79f34e3aa90d5e07e725d765d6d3fcacce9dbd390600090a4606a805473ffffffffffffffffffffffffffffffffffffffff19166001600160a01b0392909216919091179055565b6033546001600160a01b031633146107c35760405162461bcd60e51b815260206004820181905260248201527f4f776e61626c653a2063616c6c6572206973206e6f7420746865206f776e657260448201526064016102a2565b6065546107da906001600160a01b031683836109f6565b6040518181526001600160a01b0383169033907f335b96ddaf32a33a86754d8da90cfc0eed18da4494fba80eb66b3befd0e85f0f9060200160405180910390a35050565b6033546001600160a01b031633146108785760405162461bcd60e51b815260206004820181905260248201527f4f776e61626c653a2063616c6c6572206973206e6f7420746865206f776e657260448201526064016102a2565b6001600160a01b0381166108f45760405162461bcd60e51b815260206004820152602660248201527f4f776e61626c653a206e6577206f776e657220697320746865207a65726f206160448201527f646472657373000000000000000000000000000000000000000000000000000060648201526084016102a2565b6108fd81610973565b50565b600054610100900460ff1661096b5760405162461bcd60e51b815260206004820152602b60248201527f496e697469616c697a61626c653a20636f6e7472616374206973206e6f74206960448201526a6e697469616c697a696e6760a81b60648201526084016102a2565b61038d610ac4565b603380546001600160a01b0383811673ffffffffffffffffffffffffffffffffffffffff19831681179093556040519116919082907f8be0079c531659141344cd1fd0a4f28419497f9722a3daafe3b4186f6b6457e090600090a35050565b60008060006109e18585610b38565b915091506109ee81610ba8565b509392505050565b6040516001600160a01b03831660248201526044810182905261032490849063a9059cbb60e01b906064015b60408051601f198184030181529190526020810180517bffffffffffffffffffffffffffffffffffffffffffffffffffffffff167fffffffff0000000000000000000000000000000000000000000000000000000090931692909217909152610d63565b6040516001600160a01b0380851660248301528316604482015260648101829052610abe9085906323b872dd60e01b90608401610a22565b50505050565b600054610100900460ff16610b2f5760405162461bcd60e51b815260206004820152602b60248201527f496e697469616c697a61626c653a20636f6e7472616374206973206e6f74206960448201526a6e697469616c697a696e6760a81b60648201526084016102a2565b61038d33610973565b600080825160411415610b6f5760208301516040840151606085015160001a610b6387828585610e48565b94509450505050610ba1565b825160401415610b995760208301516040840151610b8e868383610f35565b935093505050610ba1565b506000905060025b9250929050565b6000816004811115610bbc57610bbc61136c565b1415610bc55750565b6001816004811115610bd957610bd961136c565b1415610c275760405162461bcd60e51b815260206004820152601860248201527f45434453413a20696e76616c6964207369676e6174757265000000000000000060448201526064016102a2565b6002816004811115610c3b57610c3b61136c565b1415610c895760405162461bcd60e51b815260206004820152601f60248201527f45434453413a20696e76616c6964207369676e6174757265206c656e6774680060448201526064016102a2565b6003816004811115610c9d57610c9d61136c565b1415610cf65760405162461bcd60e51b815260206004820152602260248201527f45434453413a20696e76616c6964207369676e6174757265202773272076616c604482015261756560f01b60648201526084016102a2565b6004816004811115610d0a57610d0a61136c565b14156108fd5760405162461bcd60e51b815260206004820152602260248201527f45434453413a20696e76616c6964207369676e6174757265202776272076616c604482015261756560f01b60648201526084016102a2565b6000610db8826040518060400160405280602081526020017f5361666545524332303a206c6f772d6c6576656c2063616c6c206661696c6564815250856001600160a01b0316610f879092919063ffffffff16565b8051909150156103245780806020019051810190610dd69190611382565b6103245760405162461bcd60e51b815260206004820152602a60248201527f5361666545524332303a204552433230206f7065726174696f6e20646964206e60448201527f6f7420737563636565640000000000000000000000000000000000000000000060648201526084016102a2565b6000807f7fffffffffffffffffffffffffffffff5d576e7357a4501ddfe92f46681b20a0831115610e7f5750600090506003610f2c565b8460ff16601b14158015610e9757508460ff16601c14155b15610ea85750600090506004610f2c565b6040805160008082526020820180845289905260ff881692820192909252606081018690526080810185905260019060a0016020604051602081039080840390855afa158015610efc573d6000803e3d6000fd5b5050604051601f1901519150506001600160a01b038116610f2557600060019250925050610f2c565b9150600090505b94509492505050565b6000807f7fffffffffffffffffffffffffffffffffffffffffffffffffffffffffffffff831681610f6b60ff86901c601b6112fe565b9050610f7987828885610e48565b935093505050935093915050565b6060610f968484600085610fa0565b90505b9392505050565b6060824710156110185760405162461bcd60e51b815260206004820152602660248201527f416464726573733a20696e73756666696369656e742062616c616e636520666f60448201527f722063616c6c000000000000000000000000000000000000000000000000000060648201526084016102a2565b6001600160a01b0385163b61106f5760405162461bcd60e51b815260206004820152601d60248201527f416464726573733a2063616c6c20746f206e6f6e2d636f6e747261637400000060448201526064016102a2565b600080866001600160a01b0316858760405161108b9190611350565b60006040518083038185875af1925050503d80600081146110c8576040519150601f19603f3d011682016040523d82523d6000602084013e6110cd565b606091505b50915091506110dd8282866110e8565b979650505050505050565b606083156110f7575081610f99565b8251156111075782518084602001fd5b8160405162461bcd60e51b81526004016102a291906113a4565b80356001600160a01b038116811461113857600080fd5b919050565b6000806040838503121561115057600080fd5b61115983611121565b915061116760208401611121565b90509250929050565b60006020828403121561118257600080fd5b610f9982611121565b634e487b7160e01b600052604160045260246000fd5b600082601f8301126111b257600080fd5b813567ffffffffffffffff808211156111cd576111cd61118b565b604051601f8301601f19908116603f011681019082821181831017156111f5576111f561118b565b8160405283815286602085880101111561120e57600080fd5b836020870160208301376000602085830101528094505050505092915050565b60008060006060848603121561124357600080fd5b8335925060208401359150604084013567ffffffffffffffff81111561126857600080fd5b611274868287016111a1565b9150509250925092565b60006020828403121561129057600080fd5b5035919050565b6000602082840312156112a957600080fd5b813567ffffffffffffffff8111156112c057600080fd5b6112cc848285016111a1565b949350505050565b600080604083850312156112e757600080fd5b6112f083611121565b946020939093013593505050565b6000821982111561131f57634e487b7160e01b600052601160045260246000fd5b500190565b60005b8381101561133f578181015183820152602001611327565b83811115610abe5750506000910152565b60008251611362818460208701611324565b9190910192915050565b634e487b7160e01b600052602160045260246000fd5b60006020828403121561139457600080fd5b81518015158114610f9957600080fd5b60208152600082518060208401526113c3816040850160208701611324565b601f01601f1916919091016040019291505056fea2646970667358221220341dcc420e5417e6fe6d582ff152efd45958fadab76bd4e1139e0d552063f1f264736f6c634300080b0033",
  "devdoc": {
    "kind": "dev",
    "methods": {
      "deposit(uint256)": {
        "params": {
          "_amount": "Deposit amount"
        }
      },
      "owner()": {
        "details": "Returns the address of the current owner."
      },
      "renounceOwnership()": {
        "details": "Leaves the contract without owner. It will not be possible to call `onlyOwner` functions anymore. Can only be called by the current owner. NOTE: Renouncing ownership will leave the contract without an owner, thereby removing any functionality that is only available to the owner."
      },
      "transferOwnership(address)": {
        "details": "Transfers ownership of the contract to a new account (`newOwner`). Can only be called by the current owner."
      },
      "updateMaintainer(address)": {
        "details": "Only owner",
        "params": {
          "_maintainer": "New maintainer address"
        }
      },
      "withdraw(uint256,uint256,bytes)": {
        "params": {
          "_amount": "NFTL token amount to withdraw",
          "_nonce": "Nonce",
          "_expireAt": "Expiration Time",
          "_signature": "Signature"
        }
      },
      "withdrawByDAO(address,uint256)": {
        "details": "Only owner",
        "params": {
          "_amount": "NFTL token amount to withdraw",
          "_beneficiary": "Beneficiary address"
        }
      }
    },
    "stateVariables": {
      "maintainer": {
        "details": "Maintainer address"
      },
      "nftl": {
        "details": "NFTL token address"
      },
      "nonce": {
        "details": "User -> Nonce"
      },
      "signatures": {
        "details": "Signature -> Bool"
      },
      "userDeposits": {
        "details": "User -> Total deposit amount"
      },
      "userWithdrawals": {
        "details": "User -> Total withdrawal amount"
      }
    },
    "version": 1
  },
  "userdoc": {
    "kind": "user",
    "methods": {
      "deposit(uint256)": {
        "notice": "Deposit NFTL tokens into the contract"
      },
      "updateMaintainer(address)": {
        "notice": "Update maintianer address"
      },
      "withdraw(uint256,uint256,uint256,bytes)": {
        "notice": "Withdraw NFTL tokens from the contract to the user"
      },
      "withdrawByDAO(address,uint256)": {
        "notice": "Allow DAO to withdraw NFTL token from the contract"
      }
    },
    "version": 1
  },
  "storageLayout": {
    "storage": [
      {
        "astId": 130,
        "contract": "contracts/BalanceManager.sol:BalanceManager",
        "label": "_initialized",
        "offset": 0,
        "slot": "0",
        "type": "t_bool"
      },
      {
        "astId": 133,
        "contract": "contracts/BalanceManager.sol:BalanceManager",
        "label": "_initializing",
        "offset": 1,
        "slot": "0",
        "type": "t_bool"
      },
      {
        "astId": 783,
        "contract": "contracts/BalanceManager.sol:BalanceManager",
        "label": "__gap",
        "offset": 0,
        "slot": "1",
        "type": "t_array(t_uint256)50_storage"
      },
      {
        "astId": 10,
        "contract": "contracts/BalanceManager.sol:BalanceManager",
        "label": "_owner",
        "offset": 0,
        "slot": "51",
        "type": "t_address"
      },
      {
        "astId": 122,
        "contract": "contracts/BalanceManager.sol:BalanceManager",
        "label": "__gap",
        "offset": 0,
        "slot": "52",
        "type": "t_array(t_uint256)49_storage"
      },
      {
        "astId": 1444,
        "contract": "contracts/BalanceManager.sol:BalanceManager",
        "label": "nftl",
        "offset": 0,
        "slot": "101",
        "type": "t_address"
      },
      {
        "astId": 1449,
        "contract": "contracts/BalanceManager.sol:BalanceManager",
        "label": "userDeposits",
        "offset": 0,
        "slot": "102",
        "type": "t_mapping(t_address,t_uint256)"
      },
      {
        "astId": 1454,
        "contract": "contracts/BalanceManager.sol:BalanceManager",
        "label": "userWithdrawals",
        "offset": 0,
        "slot": "103",
        "type": "t_mapping(t_address,t_uint256)"
      },
      {
        "astId": 1459,
        "contract": "contracts/BalanceManager.sol:BalanceManager",
        "label": "nonce",
        "offset": 0,
        "slot": "104",
        "type": "t_mapping(t_address,t_uint256)"
      },
      {
        "astId": 1464,
        "contract": "contracts/BalanceManager.sol:BalanceManager",
        "label": "signatures",
        "offset": 0,
        "slot": "105",
        "type": "t_mapping(t_bytes_memory_ptr,t_bool)"
      },
      {
        "astId": 1467,
        "contract": "contracts/BalanceManager.sol:BalanceManager",
        "label": "maintainer",
        "offset": 0,
        "slot": "106",
        "type": "t_address"
      }
    ],
    "types": {
      "t_address": {
        "encoding": "inplace",
        "label": "address",
        "numberOfBytes": "20"
      },
      "t_array(t_uint256)49_storage": {
        "base": "t_uint256",
        "encoding": "inplace",
        "label": "uint256[49]",
        "numberOfBytes": "1568"
      },
      "t_array(t_uint256)50_storage": {
        "base": "t_uint256",
        "encoding": "inplace",
        "label": "uint256[50]",
        "numberOfBytes": "1600"
      },
      "t_bool": {
        "encoding": "inplace",
        "label": "bool",
        "numberOfBytes": "1"
      },
      "t_bytes_memory_ptr": {
        "encoding": "bytes",
        "label": "bytes",
        "numberOfBytes": "32"
      },
      "t_mapping(t_address,t_uint256)": {
        "encoding": "mapping",
        "key": "t_address",
        "label": "mapping(address => uint256)",
        "numberOfBytes": "32",
        "value": "t_uint256"
      },
      "t_mapping(t_bytes_memory_ptr,t_bool)": {
        "encoding": "mapping",
        "key": "t_bytes_memory_ptr",
        "label": "mapping(bytes => bool)",
        "numberOfBytes": "32",
        "value": "t_bool"
      },
      "t_uint256": {
        "encoding": "inplace",
        "label": "uint256",
        "numberOfBytes": "32"
      }
    }
  }
}