{
  "address": "0xE05690120Bf896Bf2Bf1C1bA5FD0359098086141",
  "abi": [
    {
      "inputs": [],
      "stateMutability": "nonpayable",
      "type": "constructor"
    },
    {
      "anonymous": false,
      "inputs": [
        {
          "indexed": false,
          "internalType": "uint8",
          "name": "version",
          "type": "uint8"
        }
      ],
      "name": "Initialized",
      "type": "event"
    },
    {
      "anonymous": false,
      "inputs": [
        {
          "indexed": true,
          "internalType": "address",
          "name": "previousOwner",
          "type": "address"
        },
        {
          "indexed": true,
          "internalType": "address",
          "name": "newOwner",
          "type": "address"
        }
      ],
      "name": "OwnershipTransferred",
      "type": "event"
    },
    {
      "anonymous": false,
      "inputs": [
        {
          "indexed": false,
          "internalType": "address",
          "name": "account",
          "type": "address"
        }
      ],
      "name": "Paused",
      "type": "event"
    },
    {
      "anonymous": false,
      "inputs": [
        {
          "indexed": false,
          "internalType": "uint256",
          "name": "requestId",
          "type": "uint256"
        },
        {
          "indexed": false,
          "internalType": "uint256[]",
          "name": "randomWords",
          "type": "uint256[]"
        }
      ],
      "name": "RandomWordsReceived",
      "type": "event"
    },
    {
      "anonymous": false,
      "inputs": [
        {
          "indexed": false,
          "internalType": "uint256",
          "name": "requestId",
          "type": "uint256"
        },
        {
          "indexed": false,
          "internalType": "uint256",
          "name": "currentWinnerTicketCount",
          "type": "uint256"
        }
      ],
      "name": "RandomWordsRequested",
      "type": "event"
    },
    {
      "anonymous": false,
      "inputs": [
        {
          "indexed": true,
          "internalType": "address",
          "name": "to",
          "type": "address"
        },
        {
          "indexed": false,
          "internalType": "uint256",
          "name": "startTicketId",
          "type": "uint256"
        },
        {
          "indexed": false,
          "internalType": "uint256",
          "name": "endTicketId",
          "type": "uint256"
        }
      ],
      "name": "TicketDistributed",
      "type": "event"
    },
    {
      "anonymous": false,
      "inputs": [
        {
          "indexed": false,
          "internalType": "address",
          "name": "account",
          "type": "address"
        }
      ],
      "name": "Unpaused",
      "type": "event"
    },
    {
      "anonymous": false,
      "inputs": [
        {
          "indexed": true,
          "internalType": "address",
          "name": "user",
          "type": "address"
        },
        {
          "indexed": false,
          "internalType": "uint256",
          "name": "nftlAmount",
          "type": "uint256"
        }
      ],
      "name": "UserDeposited",
      "type": "event"
    },
    {
      "anonymous": false,
      "inputs": [
        {
          "indexed": true,
          "internalType": "address",
          "name": "by",
          "type": "address"
        },
        {
          "indexed": true,
          "internalType": "address",
          "name": "winner",
          "type": "address"
        },
        {
          "indexed": false,
          "internalType": "uint256",
          "name": "ticketId",
          "type": "uint256"
        },
        {
          "indexed": false,
          "internalType": "uint256",
          "name": "prizeTokenId",
          "type": "uint256"
        }
      ],
      "name": "WinnerSelected",
      "type": "event"
    },
    {
      "inputs": [],
      "name": "NFTL_AMOUNT_FOR_TICKET",
      "outputs": [
        {
          "internalType": "uint256",
          "name": "",
          "type": "uint256"
        }
      ],
      "stateMutability": "view",
      "type": "function"
    },
    {
      "inputs": [],
      "name": "cancelSubscription",
      "outputs": [],
      "stateMutability": "nonpayable",
      "type": "function"
    },
    {
      "inputs": [
        {
          "internalType": "uint256",
          "name": "_amount",
          "type": "uint256"
        }
      ],
      "name": "chargeLINK",
      "outputs": [],
      "stateMutability": "nonpayable",
      "type": "function"
    },
    {
      "inputs": [],
      "name": "currentWinnerTicketCount",
      "outputs": [
        {
          "internalType": "uint256",
          "name": "",
          "type": "uint256"
        }
      ],
      "stateMutability": "view",
      "type": "function"
    },
    {
      "inputs": [
        {
          "internalType": "uint256",
          "name": "_amount",
          "type": "uint256"
        }
      ],
      "name": "deposit",
      "outputs": [],
      "stateMutability": "nonpayable",
      "type": "function"
    },
    {
      "inputs": [
        {
          "internalType": "uint256[]",
          "name": "_prizeNFTTokenIds",
          "type": "uint256[]"
        }
      ],
      "name": "depositPrizeNFT",
      "outputs": [],
      "stateMutability": "nonpayable",
      "type": "function"
    },
    {
      "inputs": [
        {
          "internalType": "address[]",
          "name": "_holders",
          "type": "address[]"
        },
        {
          "internalType": "uint256[]",
          "name": "_keyCount",
          "type": "uint256[]"
        }
      ],
      "name": "distributeTicketsToCitadelKeyHolders",
      "outputs": [],
      "stateMutability": "nonpayable",
      "type": "function"
    },
    {
      "inputs": [],
      "name": "getUserCount",
      "outputs": [
        {
          "internalType": "uint256",
          "name": "",
          "type": "uint256"
        }
      ],
      "stateMutability": "view",
      "type": "function"
    },
    {
      "inputs": [],
      "name": "getUserList",
      "outputs": [
        {
          "internalType": "address[]",
          "name": "",
          "type": "address[]"
        }
      ],
      "stateMutability": "view",
      "type": "function"
    },
    {
      "inputs": [],
      "name": "getWinners",
      "outputs": [
        {
          "components": [
            {
              "internalType": "uint256",
              "name": "ticketId",
              "type": "uint256"
            },
            {
              "internalType": "address",
              "name": "winner",
              "type": "address"
            },
            {
              "internalType": "uint256",
              "name": "prizeTokenId",
              "type": "uint256"
            }
          ],
          "internalType": "struct NFTLRaffle.WinnerInfo[]",
          "name": "",
          "type": "tuple[]"
        }
      ],
      "stateMutability": "view",
      "type": "function"
    },
    {
      "inputs": [
        {
          "internalType": "address",
          "name": "_nftl",
          "type": "address"
        },
        {
          "internalType": "uint256",
          "name": "_pendingPeriod",
          "type": "uint256"
        },
        {
          "internalType": "uint256",
          "name": "_totalWinnerTicketCount",
          "type": "uint256"
        },
        {
          "internalType": "address",
          "name": "_prizeNFT",
          "type": "address"
        },
        {
          "internalType": "address",
          "name": "_vrfCoordinator",
          "type": "address"
        }
      ],
      "name": "initialize",
      "outputs": [],
      "stateMutability": "nonpayable",
      "type": "function"
    },
    {
      "inputs": [
        {
          "internalType": "address",
          "name": "_consumer",
          "type": "address"
        },
        {
          "internalType": "bool",
          "name": "_add",
          "type": "bool"
        }
      ],
      "name": "manageConsumers",
      "outputs": [],
      "stateMutability": "nonpayable",
      "type": "function"
    },
    {
      "inputs": [],
      "name": "nftl",
      "outputs": [
        {
          "internalType": "contract IERC20BurnableUpgradeable",
          "name": "",
          "type": "address"
        }
      ],
      "stateMutability": "view",
      "type": "function"
    },
    {
      "inputs": [
        {
          "internalType": "address",
          "name": "",
          "type": "address"
        },
        {
          "internalType": "address",
          "name": "",
          "type": "address"
        },
        {
          "internalType": "uint256",
          "name": "",
          "type": "uint256"
        },
        {
          "internalType": "bytes",
          "name": "",
          "type": "bytes"
        }
      ],
      "name": "onERC721Received",
      "outputs": [
        {
          "internalType": "bytes4",
          "name": "",
          "type": "bytes4"
        }
      ],
      "stateMutability": "nonpayable",
      "type": "function"
    },
    {
      "inputs": [],
      "name": "owner",
      "outputs": [
        {
          "internalType": "address",
          "name": "",
          "type": "address"
        }
      ],
      "stateMutability": "view",
      "type": "function"
    },
    {
      "inputs": [],
      "name": "pause",
      "outputs": [],
      "stateMutability": "nonpayable",
      "type": "function"
    },
    {
      "inputs": [],
      "name": "paused",
      "outputs": [
        {
          "internalType": "bool",
          "name": "",
          "type": "bool"
        }
      ],
      "stateMutability": "view",
      "type": "function"
    },
    {
      "inputs": [],
      "name": "prizeNFT",
      "outputs": [
        {
          "internalType": "contract IERC721Upgradeable",
          "name": "",
          "type": "address"
        }
      ],
      "stateMutability": "view",
      "type": "function"
    },
    {
      "inputs": [
        {
          "internalType": "uint256",
          "name": "",
          "type": "uint256"
        }
      ],
      "name": "prizeNFTTokenIndex",
      "outputs": [
        {
          "internalType": "uint256",
          "name": "",
          "type": "uint256"
        }
      ],
      "stateMutability": "view",
      "type": "function"
    },
    {
      "inputs": [
        {
          "internalType": "uint256",
          "name": "",
          "type": "uint256"
        }
      ],
      "name": "prizeNFTokenIds",
      "outputs": [
        {
          "internalType": "uint256",
          "name": "",
          "type": "uint256"
        }
      ],
      "stateMutability": "view",
      "type": "function"
    },
    {
      "inputs": [],
      "name": "raffleStartAt",
      "outputs": [
        {
          "internalType": "uint256",
          "name": "",
          "type": "uint256"
        }
      ],
      "stateMutability": "view",
      "type": "function"
    },
    {
      "inputs": [
        {
          "internalType": "uint256",
          "name": "_requestId",
          "type": "uint256"
        },
        {
          "internalType": "uint256[]",
          "name": "_randomWords",
          "type": "uint256[]"
        }
      ],
      "name": "rawFulfillRandomWords",
      "outputs": [],
      "stateMutability": "nonpayable",
      "type": "function"
    },
    {
      "inputs": [],
      "name": "renounceOwnership",
      "outputs": [],
      "stateMutability": "nonpayable",
      "type": "function"
    },
    {
      "inputs": [],
      "name": "requestRandomWordsForWinnerSelection",
      "outputs": [
        {
          "internalType": "uint256",
          "name": "requestId",
          "type": "uint256"
        }
      ],
      "stateMutability": "nonpayable",
      "type": "function"
    },
    {
      "inputs": [],
      "name": "s_subscriptionId",
      "outputs": [
        {
          "internalType": "uint64",
          "name": "",
          "type": "uint64"
        }
      ],
      "stateMutability": "view",
      "type": "function"
    },
    {
      "inputs": [
        {
          "internalType": "address",
          "name": "",
          "type": "address"
        }
      ],
      "name": "ticketCountByUser",
      "outputs": [
        {
          "internalType": "uint256",
          "name": "",
          "type": "uint256"
        }
      ],
      "stateMutability": "view",
      "type": "function"
    },
    {
      "inputs": [
        {
          "internalType": "uint256",
          "name": "",
          "type": "uint256"
        }
      ],
      "name": "ticketIdList",
      "outputs": [
        {
          "internalType": "uint256",
          "name": "",
          "type": "uint256"
        }
      ],
      "stateMutability": "view",
      "type": "function"
    },
    {
      "inputs": [],
      "name": "totalTicketCount",
      "outputs": [
        {
          "internalType": "uint256",
          "name": "",
          "type": "uint256"
        }
      ],
      "stateMutability": "view",
      "type": "function"
    },
    {
      "inputs": [],
      "name": "totalWinnerTicketCount",
      "outputs": [
        {
          "internalType": "uint256",
          "name": "",
          "type": "uint256"
        }
      ],
      "stateMutability": "view",
      "type": "function"
    },
    {
      "inputs": [
        {
          "internalType": "address",
          "name": "newOwner",
          "type": "address"
        }
      ],
      "name": "transferOwnership",
      "outputs": [],
      "stateMutability": "nonpayable",
      "type": "function"
    },
    {
      "inputs": [],
      "name": "unpause",
      "outputs": [],
      "stateMutability": "nonpayable",
      "type": "function"
    },
    {
      "inputs": [
        {
          "internalType": "uint256",
          "name": "_raffleStartAt",
          "type": "uint256"
        }
      ],
      "name": "updateRaffleStartAt",
      "outputs": [],
      "stateMutability": "nonpayable",
      "type": "function"
    },
    {
      "inputs": [
        {
          "internalType": "uint256",
          "name": "_totalWinnerTicketCount",
          "type": "uint256"
        }
      ],
      "name": "updateTotalWinnerTicketCount",
      "outputs": [],
      "stateMutability": "nonpayable",
      "type": "function"
    },
    {
      "inputs": [
        {
          "internalType": "uint256",
          "name": "",
          "type": "uint256"
        }
      ],
      "name": "userByTicketId",
      "outputs": [
        {
          "internalType": "address",
          "name": "",
          "type": "address"
        }
      ],
      "stateMutability": "view",
      "type": "function"
    },
    {
      "inputs": [
        {
          "internalType": "address",
          "name": "",
          "type": "address"
        }
      ],
      "name": "userDeposits",
      "outputs": [
        {
          "internalType": "uint256",
          "name": "",
          "type": "uint256"
        }
      ],
      "stateMutability": "view",
      "type": "function"
    },
    {
      "inputs": [
        {
          "internalType": "uint256",
          "name": "",
          "type": "uint256"
        }
      ],
      "name": "winners",
      "outputs": [
        {
          "internalType": "uint256",
          "name": "ticketId",
          "type": "uint256"
        },
        {
          "internalType": "address",
          "name": "winner",
          "type": "address"
        },
        {
          "internalType": "uint256",
          "name": "prizeTokenId",
          "type": "uint256"
        }
      ],
      "stateMutability": "view",
      "type": "function"
    },
    {
      "inputs": [
        {
          "internalType": "address",
          "name": "_to",
          "type": "address"
        }
      ],
      "name": "withdrawLINK",
      "outputs": [],
      "stateMutability": "nonpayable",
      "type": "function"
    }
  ],
  "transactionHash": "0x5f54337cd77dd5e80f4ab4396930cfc2843f2e5d93ad9f5b20c374511ec86237",
  "args": [],
  "numDeployments": 2,
  "solcInputHash": "777612f65dbb683d592142dbd56d230a",
  "bytecode": "0x60806040523480156200001157600080fd5b506200001c62000022565b620000e4565b600054610100900460ff16156200008f5760405162461bcd60e51b815260206004820152602760248201527f496e697469616c697a61626c653a20636f6e747261637420697320696e697469604482015266616c697a696e6760c81b606482015260840160405180910390fd5b60005460ff9081161015620000e2576000805460ff191660ff9081179091556040519081527f7f26b83ff96e1f2b6a682f133852f6798a09c465da95921460cefb38474024989060200160405180910390a15b565b61265980620000f46000396000f3fe608060405234801561001057600080fd5b50600436106102275760003560e01c80637b762fac11610130578063b6b55f25116100b8578063df15c37e1161007c578063df15c37e146104db578063e6c81c72146104f0578063f200006c14610503578063f2fde38b1461052c578063f716675a1461053f57600080fd5b8063b6b55f251461047a578063b85220431461048d578063bc7c7bc2146104a2578063bf384e10146104b5578063c67c11e6146104c857600080fd5b80638c2906d5116100ff5780638c2906d5146104055780638da5cb5b14610418578063a2fb117514610429578063a488af251461045f578063b5cb15f71461047257600080fd5b80637b762fac146103b05780638456cb59146103b8578063869c046c146103c05780638ac00021146103d357600080fd5b806333818c88116101b35780635671fc66116101825780635671fc661461034257806359839de6146103525780635c975abb146103725780636ee7c19914610388578063715018a6146103a857600080fd5b806333818c88146102e95780633951dcff146102fc5780633f4ba83a1461030f5780634e81da0a1461031757600080fd5b8063150b7a02116101fa578063150b7a021461029057806319d750ce146102bc5780631fe543e3146102c557806324e9edb0146102d8578063323c1bb3146102e057600080fd5b806302e4bb9f1461022c57806303b54d52146102415780630ba36dcd1461025457806314558fab14610287575b600080fd5b61023f61023a366004611edd565b610548565b005b61023f61024f366004611f12565b610623565b610274610262366004611f69565b60d76020526000908152604090205481565b6040519081526020015b60405180910390f35b61027460d25481565b6102a361029e366004611fca565b6108ad565b6040516001600160e01b0319909116815260200161027e565b61027460cd5481565b61023f6102d33660046120fd565b6108be565b61023f610919565b61027460cf5481565b6102746102f7366004611edd565b6109bd565b61027461030a366004611edd565b6109de565b61023f6109ee565b60cc5461032a906001600160a01b031681565b6040516001600160a01b03909116815260200161027e565b610274683635c9adc5dea0000081565b610274610360366004611f69565b60db6020526000908152604090205481565b60655460ff16604051901515815260200161027e565b610274610396366004611edd565b60ce6020526000908152604090205481565b61023f610a00565b610274610a12565b61023f610b94565b61023f6103ce366004611edd565b610ba4565b60c9546103ed90600160a01b90046001600160401b031681565b6040516001600160401b03909116815260200161027e565b61023f61041336600461218e565b610bfc565b6033546001600160a01b031661032a565b61043c610437366004611edd565b610dba565b604080519384526001600160a01b0390921660208401529082015260600161027e565b61023f61046d366004611edd565b610df9565b610274610e49565b61023f610488366004611edd565b610e5a565b610495610fcc565b60405161027e91906121f9565b61023f6104b0366004612254565b610fd8565b61023f6104c3366004611f69565b611093565b61023f6104d636600461228b565b611133565b6104e3611272565b60405161027e91906122bf565b60ca5461032a906001600160a01b031681565b61032a610511366004611edd565b60d9602052600090815260409020546001600160a01b031681565b61023f61053a366004611f69565b6112f4565b61027460d05481565b61056873514910771af9ca656af840dff83e8264ecf986ca33308461136a565b60c95460408051600160a01b83046001600160401b0316602082015273514910771af9ca656af840dff83e8264ecf986ca92634000aea0926001600160a01b03909116918591016040516020818303038152906040526040518463ffffffff1660e01b81526004016105dc93929190612379565b6020604051808303816000875af11580156105fb573d6000803e3d6000fd5b505050506040513d601f19601f8201168201806040525081019061061f91906123a9565b5050565b600054610100900460ff16158080156106435750600054600160ff909116105b8061065d5750303b15801561065d575060005460ff166001145b6106c55760405162461bcd60e51b815260206004820152602e60248201527f496e697469616c697a61626c653a20636f6e747261637420697320616c72656160448201526d191e481a5b9a5d1a585b1a5e995960921b60648201526084015b60405180910390fd5b6000805460ff1916600117905580156106e8576000805461ff0019166101001790555b6106f06113db565b6106f861140a565b610700611439565b6001600160a01b0386166107265760405162461bcd60e51b81526004016106bc906123c6565b6201518085116107625760405162461bcd60e51b81526020600482015260076024820152663120646179202b60c81b60448201526064016106bc565b600084116107ad5760405162461bcd60e51b815260206004820152601860248201527716995c9bc81dda5b9b995c881d1a58dad95d0818dbdd5b9d60421b60448201526064016106bc565b6001600160a01b0383166107d35760405162461bcd60e51b81526004016106bc906123c6565b6001600160a01b0382166107f95760405162461bcd60e51b81526004016106bc906123c6565b60cc80546001600160a01b0319166001600160a01b03881617905561081e8542612402565b60cd5560cf84905560ca80546001600160a01b038086166001600160a01b03199283161790925560c980549285169290911691909117905561085e611460565b80156108a5576000805461ff0019169055604051600181527f7f26b83ff96e1f2b6a682f133852f6798a09c465da95921460cefb3847402498906020015b60405180910390a15b505050505050565b630a85bd0160e11b5b949350505050565b60c9546001600160a01b0316331461090f5760405162461bcd60e51b815260206004820152601460248201527327b7363c902b29231031b7b7b93234b730ba37b960611b60448201526064016106bc565b61061f828261156a565b610921611574565b60c9546001600160a01b0381169063d7ae1d30906001600160401b03600160a01b909104166109586033546001600160a01b031690565b6040518363ffffffff1660e01b815260040161097592919061241a565b600060405180830381600087803b15801561098f57600080fd5b505af11580156109a3573d6000803e3d6000fd5b505060c9805467ffffffffffffffff60a01b191690555050565b60cb81815481106109cd57600080fd5b600091825260209091200154905081565b60da81815481106109cd57600080fd5b6109f6611574565b6109fe6115ce565b565b610a08611574565b6109fe6000611620565b6000610a1c611574565b4260cd541115610a5f5760405162461bcd60e51b815260206004820152600e60248201526d14195b991a5b99c81c195c9a5bd960921b60448201526064016106bc565b60cf5460d05410610aa55760405162461bcd60e51b815260206004820152601060248201526f52657175657374206f766572666c6f7760801b60448201526064016106bc565b60da5460d05460cf54610ab8919061243c565b1115610afe5760405162461bcd60e51b81526020600482015260156024820152744e6f7420656e6f756768206465706f7369746f727360581b60448201526064016106bc565b6000600190508060d06000828254610b169190612402565b90915550610b25905081611672565b9150600160d054610b36919061243c565b600083815260ce602052604090205560d0547fc904ef81354df41ed9256aa2ab862017f6ab3f33f3f7ca50016a1786083d086d908390610b789060019061243c565b6040805192835260208301919091520160405180910390a15090565b610b9c611574565b6109fe611738565b610bac611574565b60008111610bf75760405162461bcd60e51b815260206004820152601860248201527716995c9bc81dda5b9b995c881d1a58dad95d0818dbdd5b9d60421b60448201526064016106bc565b60cf55565b610c04611574565b82818114610c455760405162461bcd60e51b815260206004820152600e60248201526d496e76616c696420706172616d7360901b60448201526064016106bc565b60cd544210610c805760405162461bcd60e51b8152602060048201526007602482015266115e1c1a5c995960ca1b60448201526064016106bc565b60005b818110156108a5576000868683818110610c9f57610c9f612453565b9050602002016020810190610cb49190611f69565b90506000858584818110610cca57610cca612453565b905060200201356064610cdd9190612469565b9050610cf2683635c9adc5dea0000082612469565b6001600160a01b038316600090815260d7602052604081208054909190610d1a908490612402565b90915550610d2b905060d383611775565b5060d254610d3a838284611791565b6001600160a01b0383167f7f640e5b7323aeb1bf30be14a85cea66e69d3cfd9493ee1cdd5058830c9e73dd826001610d728683612402565b610d7c919061243c565b6040805192835260208301919091520160405180910390a28160d26000828254610da69190612402565b909155505060019093019250610c83915050565b60d18181548110610dca57600080fd5b60009182526020909120600390910201805460018201546002909201549092506001600160a01b039091169083565b610e01611574565b804210610e445760405162461bcd60e51b81526020600482015260116024820152700496e76616c69642074696d657374616d7607c1b60448201526064016106bc565b60cd55565b6000610e5560d361183f565b905090565b60cd544210610e955760405162461bcd60e51b8152602060048201526007602482015266115e1c1a5c995960ca1b60448201526064016106bc565b60cc5460405163079cc67960e41b8152336004820152602481018390526001600160a01b03909116906379cc679090604401600060405180830381600087803b158015610ee157600080fd5b505af1158015610ef5573d6000803e3d6000fd5b505033600090815260d7602052604081208054859450909250610f19908490612402565b90915550610f2a905060d333611775565b5033600090815260db602090815260408083205460d79092528220549091908290610f5f90683635c9adc5dea000009061249e565b610f69919061243c565b60d254909150610f7a338284611791565b8160d26000828254610f8c9190612402565b909155505060405184815233907f951fdc61d6a98f96098a17ea6ac287a6fd38aea6bef73083c93b274cb830107d9060200160405180910390a250505050565b6060610e5560d3611849565b610fe0611574565b806110535760c954604051639f87fad760e01b81526001600160a01b03821691639f87fad79161102591600160a01b90046001600160401b031690869060040161241a565b600060405180830381600087803b15801561103f57600080fd5b505af11580156108a5573d6000803e3d6000fd5b60c954604051631cd0704360e21b81526001600160a01b03821691637341c10c9161102591600160a01b90046001600160401b031690869060040161241a565b61109b611574565b6040516370a0823160e01b815230600482015261113090829073514910771af9ca656af840dff83e8264ecf986ca906370a0823190602401602060405180830381865afa1580156110f0573d6000803e3d6000fd5b505050506040513d601f19601f8201168201806040525081019061111491906124b2565b73514910771af9ca656af840dff83e8264ecf986ca9190611856565b50565b61113b611574565b805160cf5460cb5461114d9083612402565b146111935760405162461bcd60e51b8152602060048201526016602482015275135a5cdb585d18da1959081c1c9a5e994818dbdd5b9d60521b60448201526064016106bc565b60005b8181101561126d5760008382815181106111b2576111b2612453565b60209081029190910181015160ca546040805193840181526000845251635c46a7ef60e11b81529193506001600160a01b03169163b88d4fde916111fe913391309187916004016124cb565b600060405180830381600087803b15801561121857600080fd5b505af115801561122c573d6000803e3d6000fd5b505060cb8054600181810183556000929092527fa7ce836d032b2bf62b7e2097a8e0a6d8aeb35405ad15271e96d3b0188a1d06fb0193909355505001611196565b505050565b606060d1805480602002602001604051908101604052809291908181526020016000905b828210156112eb5760008481526020908190206040805160608101825260038602909201805483526001808201546001600160a01b031684860152600290910154918301919091529083529092019101611296565b50505050905090565b6112fc611574565b6001600160a01b0381166113615760405162461bcd60e51b815260206004820152602660248201527f4f776e61626c653a206e6577206f776e657220697320746865207a65726f206160448201526564647265737360d01b60648201526084016106bc565b61113081611620565b6040516001600160a01b03808516602483015283166044820152606481018290526113d59085906323b872dd60e01b906084015b60408051601f198184030181529190526020810180516001600160e01b03166001600160e01b031990931692909217909152611886565b50505050565b600054610100900460ff166114025760405162461bcd60e51b81526004016106bc90612508565b6109fe611958565b600054610100900460ff166114315760405162461bcd60e51b81526004016106bc90612508565b6109fe611988565b600054610100900460ff166109fe5760405162461bcd60e51b81526004016106bc90612508565b60c960009054906101000a90046001600160a01b03166001600160a01b031663a21a23e46040518163ffffffff1660e01b81526004016020604051808303816000875af11580156114b5573d6000803e3d6000fd5b505050506040513d601f19601f820116820180604052508101906114d99190612553565b60c980546001600160401b03928316600160a01b90810267ffffffffffffffff60a01b198316811793849055604051631cd0704360e21b81526001600160a01b03918216919093161793637341c10c9361153c939290041690309060040161241a565b600060405180830381600087803b15801561155657600080fd5b505af11580156113d5573d6000803e3d6000fd5b61061f82826119bb565b6033546001600160a01b031633146109fe5760405162461bcd60e51b815260206004820181905260248201527f4f776e61626c653a2063616c6c6572206973206e6f7420746865206f776e657260448201526064016106bc565b6115d6611c83565b6065805460ff191690557f5db9ee0a495bf2e6ff9c91a7834c1ba4fdd244a5e8aa4e537bd38aeae4b073aa335b6040516001600160a01b03909116815260200160405180910390a1565b603380546001600160a01b038381166001600160a01b0319831681179093556040519116919082907f8be0079c531659141344cd1fd0a4f28419497f9722a3daafe3b4186f6b6457e090600090a35050565b60c9546040516305d3b1d360e41b81527f8af398995b04c28e9951adb9721ef74c74f93e6a478f39e7e0777be13527e7ef6004820152600160a01b82046001600160401b0316602482015260036044820152622625a0606482015263ffffffff831660848201526000916001600160a01b031690635d3b1d309060a4016020604051808303816000875af115801561170e573d6000803e3d6000fd5b505050506040513d601f19601f8201168201806040525081019061173291906124b2565b92915050565b611740611ccc565b6065805460ff191660011790557f62e78cea01bee320cd4e420270b5ea74000d11b0c9f74754ebdbfc544b05a2586116033390565b600061178a836001600160a01b038416611d12565b9392505050565b60005b8181101561180c5760006117a88285612402565b60da805460018082019092557fb3d6e86317c38844915b053a0c35ff2fc103b684e96cef2918ab06844eb51aaf01829055600091825260d9602052604090912080546001600160a01b0319166001600160a01b038816179055919091019050611794565b506001600160a01b038316600090815260db602052604081208054839290611835908490612402565b9091555050505050565b6000611732825490565b6060600061178a83611d61565b6040516001600160a01b03831660248201526044810182905261126d90849063a9059cbb60e01b9060640161139e565b60006118db826040518060400160405280602081526020017f5361666545524332303a206c6f772d6c6576656c2063616c6c206661696c6564815250856001600160a01b0316611dbd9092919063ffffffff16565b80519091501561126d57808060200190518101906118f991906123a9565b61126d5760405162461bcd60e51b815260206004820152602a60248201527f5361666545524332303a204552433230206f7065726174696f6e20646964206e6044820152691bdd081cdd58d8d9595960b21b60648201526084016106bc565b600054610100900460ff1661197f5760405162461bcd60e51b81526004016106bc90612508565b6109fe33611620565b600054610100900460ff166119af5760405162461bcd60e51b81526004016106bc90612508565b6065805460ff19169055565b600060da80549050826000815181106119d6576119d6612453565b60200260200101516119e8919061257c565b9050600060da82815481106119ff576119ff612453565b600091825260208083209091015480835260d9825260408084205488855260ce90935283205460cb80549295506001600160a01b039093169392918110611a4857611a48612453565b600091825260208083209091015460ca546040805193840181529383529251635c46a7ef60e11b81529093506001600160a01b039092169163b88d4fde91611a9991309187918791906004016124cb565b600060405180830381600087803b158015611ab357600080fd5b505af1158015611ac7573d6000803e3d6000fd5b5050604080516060810182528681526001600160a01b038681166020830190815292820186815260d180546001808201835560009290925293517f695fb3134ad82c3b8022bc5464edd0bcc9424ef672b52245dcb6ab2374327ce360039095029485015593517f695fb3134ad82c3b8022bc5464edd0bcc9424ef672b52245dcb6ab2374327ce4840180546001600160a01b0319169190931617909155517f695fb3134ad82c3b8022bc5464edd0bcc9424ef672b52245dcb6ab2374327ce59091015560da8054909350611b9b925061243c565b81548110611bab57611bab612453565b906000526020600020015460da8581548110611bc957611bc9612453565b60009182526020909120015560da805480611be657611be6612590565b60019003818190600052602060002001600090559055816001600160a01b0316336001600160a01b03167fef61d5e7c73a0488ebba4ce7e2cc6cab14e1c52e49e75a2dd6d2c242770db7688584604051611c4a929190918252602082015260400190565b60405180910390a37f19a2c8ede94142b0c8ed074fd0a4778b9928cc8e06adc32dc2c1b36d69861067868660405161089c9291906125a6565b60655460ff166109fe5760405162461bcd60e51b815260206004820152601460248201527314185d5cd8589b194e881b9bdd081c185d5cd95960621b60448201526064016106bc565b60655460ff16156109fe5760405162461bcd60e51b815260206004820152601060248201526f14185d5cd8589b194e881c185d5cd95960821b60448201526064016106bc565b6000818152600183016020526040812054611d5957508154600181810184556000848152602080822090930184905584548482528286019093526040902091909155611732565b506000611732565b606081600001805480602002602001604051908101604052809291908181526020018280548015611db157602002820191906000526020600020905b815481526020019060010190808311611d9d575b50505050509050919050565b60606108b6848460008585600080866001600160a01b03168587604051611de491906125f4565b60006040518083038185875af1925050503d8060008114611e21576040519150601f19603f3d011682016040523d82523d6000602084013e611e26565b606091505b5091509150611e3787838387611e42565b979650505050505050565b60608315611eae578251611ea7576001600160a01b0385163b611ea75760405162461bcd60e51b815260206004820152601d60248201527f416464726573733a2063616c6c20746f206e6f6e2d636f6e747261637400000060448201526064016106bc565b50816108b6565b6108b68383815115611ec35781518083602001fd5b8060405162461bcd60e51b81526004016106bc9190612610565b600060208284031215611eef57600080fd5b5035919050565b80356001600160a01b0381168114611f0d57600080fd5b919050565b600080600080600060a08688031215611f2a57600080fd5b611f3386611ef6565b94506020860135935060408601359250611f4f60608701611ef6565b9150611f5d60808701611ef6565b90509295509295909350565b600060208284031215611f7b57600080fd5b61178a82611ef6565b634e487b7160e01b600052604160045260246000fd5b604051601f8201601f191681016001600160401b0381118282101715611fc257611fc2611f84565b604052919050565b60008060008060808587031215611fe057600080fd5b611fe985611ef6565b93506020611ff8818701611ef6565b93506040860135925060608601356001600160401b038082111561201b57600080fd5b818801915088601f83011261202f57600080fd5b81358181111561204157612041611f84565b612053601f8201601f19168501611f9a565b9150808252898482850101111561206957600080fd5b808484018584013760008482840101525080935050505092959194509250565b600082601f83011261209a57600080fd5b813560206001600160401b038211156120b5576120b5611f84565b8160051b6120c4828201611f9a565b92835284810182019282810190878511156120de57600080fd5b83870192505b84831015611e37578235825291830191908301906120e4565b6000806040838503121561211057600080fd5b8235915060208301356001600160401b0381111561212d57600080fd5b61213985828601612089565b9150509250929050565b60008083601f84011261215557600080fd5b5081356001600160401b0381111561216c57600080fd5b6020830191508360208260051b850101111561218757600080fd5b9250929050565b600080600080604085870312156121a457600080fd5b84356001600160401b03808211156121bb57600080fd5b6121c788838901612143565b909650945060208701359150808211156121e057600080fd5b506121ed87828801612143565b95989497509550505050565b6020808252825182820181905260009190848201906040850190845b8181101561223a5783516001600160a01b031683529284019291840191600101612215565b50909695505050505050565b801515811461113057600080fd5b6000806040838503121561226757600080fd5b61227083611ef6565b9150602083013561228081612246565b809150509250929050565b60006020828403121561229d57600080fd5b81356001600160401b038111156122b357600080fd5b6108b684828501612089565b602080825282518282018190526000919060409081850190868401855b8281101561231457815180518552868101516001600160a01b03168786015285015185850152606090930192908501906001016122dc565b5091979650505050505050565b60005b8381101561233c578181015183820152602001612324565b838111156113d55750506000910152565b60008151808452612365816020860160208601612321565b601f01601f19169290920160200192915050565b60018060a01b03841681528260208201526060604082015260006123a0606083018461234d565b95945050505050565b6000602082840312156123bb57600080fd5b815161178a81612246565b6020808252600c908201526b5a65726f206164647265737360a01b604082015260600190565b634e487b7160e01b600052601160045260246000fd5b60008219821115612415576124156123ec565b500190565b6001600160401b039290921682526001600160a01b0316602082015260400190565b60008282101561244e5761244e6123ec565b500390565b634e487b7160e01b600052603260045260246000fd5b6000816000190483118215151615612483576124836123ec565b500290565b634e487b7160e01b600052601260045260246000fd5b6000826124ad576124ad612488565b500490565b6000602082840312156124c457600080fd5b5051919050565b6001600160a01b03858116825284166020820152604081018390526080606082018190526000906124fe9083018461234d565b9695505050505050565b6020808252602b908201527f496e697469616c697a61626c653a20636f6e7472616374206973206e6f74206960408201526a6e697469616c697a696e6760a81b606082015260800190565b60006020828403121561256557600080fd5b81516001600160401b038116811461178a57600080fd5b60008261258b5761258b612488565b500690565b634e487b7160e01b600052603160045260246000fd5b6000604082018483526020604081850152818551808452606086019150828701935060005b818110156125e7578451835293830193918301916001016125cb565b5090979650505050505050565b60008251612606818460208701612321565b9190910192915050565b60208152600061178a602083018461234d56fea26469706673582212209a20b13b10e9d193ec623cc702c4d672890ec928b5497dbddc0540f3bf1d8cc564736f6c634300080b0033",
  "devdoc": {
    "kind": "dev",
    "methods": {
      "constructor": {
        "custom:oz-upgrades-unsafe-allow": "constructor"
      },
      "onERC721Received(address,address,uint256,bytes)": {
        "details": "See {IERC721Receiver-onERC721Received}. Always returns `IERC721Receiver.onERC721Received.selector`."
      },
      "owner()": {
        "details": "Returns the address of the current owner."
      },
      "paused()": {
        "details": "Returns true if the contract is paused, and false otherwise."
      },
      "renounceOwnership()": {
        "details": "Leaves the contract without owner. It will not be possible to call `onlyOwner` functions anymore. Can only be called by the current owner. NOTE: Renouncing ownership will leave the contract without an owner, thereby removing any functionality that is only available to the owner."
      },
      "transferOwnership(address)": {
        "details": "Transfers ownership of the contract to a new account (`newOwner`). Can only be called by the current owner."
      }
    },
    "stateVariables": {
      "NFTL_AMOUNT_FOR_TICKET": {
        "details": "NFTL amount required for 1 ticket"
      },
      "_ticketIdList": {
        "details": "TokenId list"
      },
      "_ticketIdsByUser": {
        "details": "User -> Ticket Id list"
      },
      "_userList": {
        "details": "User list"
      },
      "currentWinnerTicketCount": {
        "details": "Current selected winner count"
      },
      "nftl": {
        "details": "NFTL address"
      },
      "prizeNFT": {
        "details": "Prize NFT (NiftyDegen) address"
      },
      "prizeNFTokenIds": {
        "details": "PrizeNFT TokenIds"
      },
      "raffleStartAt": {
        "details": "Timestamp the raffle start"
      },
      "ticketCountByUser": {
        "details": "User -> Ticket count"
      },
      "ticketIdList": {
        "details": "Ticket list"
      },
      "totalTicketCount": {
        "details": "Total ticket count"
      },
      "totalWinnerTicketCount": {
        "details": "Total winner count to select"
      },
      "userByTicketId": {
        "details": "Ticket Id -> User"
      },
      "userDeposits": {
        "details": "User -> NFTL amount deposited"
      },
      "vrfCoordinator": {
        "details": "Chainlink VRF params"
      },
      "winners": {
        "details": "Winner list"
      }
    },
    "title": "NFTLRaffle",
    "version": 1
  },
  "userdoc": {
    "kind": "user",
    "methods": {
      "pause()": {
        "notice": "Pause the contract"
      },
      "unpause()": {
        "notice": "Unpause the contract"
      }
    },
    "version": 1
  },
  "storageLayout": {
    "storage": [
      {
        "astId": 329,
        "contract": "contracts/NFTLRaffle.sol:NFTLRaffle",
        "label": "_initialized",
        "offset": 0,
        "slot": "0",
        "type": "t_uint8"
      },
      {
        "astId": 332,
        "contract": "contracts/NFTLRaffle.sol:NFTLRaffle",
        "label": "_initializing",
        "offset": 1,
        "slot": "0",
        "type": "t_bool"
      },
      {
        "astId": 1519,
        "contract": "contracts/NFTLRaffle.sol:NFTLRaffle",
        "label": "__gap",
        "offset": 0,
        "slot": "1",
        "type": "t_array(t_uint256)50_storage"
      },
      {
        "astId": 201,
        "contract": "contracts/NFTLRaffle.sol:NFTLRaffle",
        "label": "_owner",
        "offset": 0,
        "slot": "51",
        "type": "t_address"
      },
      {
        "astId": 321,
        "contract": "contracts/NFTLRaffle.sol:NFTLRaffle",
        "label": "__gap",
        "offset": 0,
        "slot": "52",
        "type": "t_array(t_uint256)49_storage"
      },
      {
        "astId": 512,
        "contract": "contracts/NFTLRaffle.sol:NFTLRaffle",
        "label": "_paused",
        "offset": 0,
        "slot": "101",
        "type": "t_bool"
      },
      {
        "astId": 617,
        "contract": "contracts/NFTLRaffle.sol:NFTLRaffle",
        "label": "__gap",
        "offset": 0,
        "slot": "102",
        "type": "t_array(t_uint256)49_storage"
      },
      {
        "astId": 1193,
        "contract": "contracts/NFTLRaffle.sol:NFTLRaffle",
        "label": "__gap",
        "offset": 0,
        "slot": "151",
        "type": "t_array(t_uint256)50_storage"
      },
      {
        "astId": 2197,
        "contract": "contracts/NFTLRaffle.sol:NFTLRaffle",
        "label": "vrfCoordinator",
        "offset": 0,
        "slot": "201",
        "type": "t_address"
      },
      {
        "astId": 2211,
        "contract": "contracts/NFTLRaffle.sol:NFTLRaffle",
        "label": "s_subscriptionId",
        "offset": 20,
        "slot": "201",
        "type": "t_uint64"
      },
      {
        "astId": 2215,
        "contract": "contracts/NFTLRaffle.sol:NFTLRaffle",
        "label": "prizeNFT",
        "offset": 0,
        "slot": "202",
        "type": "t_contract(IERC721Upgradeable)1147"
      },
      {
        "astId": 2219,
        "contract": "contracts/NFTLRaffle.sol:NFTLRaffle",
        "label": "prizeNFTokenIds",
        "offset": 0,
        "slot": "203",
        "type": "t_array(t_uint256)dyn_storage"
      },
      {
        "astId": 2223,
        "contract": "contracts/NFTLRaffle.sol:NFTLRaffle",
        "label": "nftl",
        "offset": 0,
        "slot": "204",
        "type": "t_contract(IERC20BurnableUpgradeable)2166"
      },
      {
        "astId": 2226,
        "contract": "contracts/NFTLRaffle.sol:NFTLRaffle",
        "label": "raffleStartAt",
        "offset": 0,
        "slot": "205",
        "type": "t_uint256"
      },
      {
        "astId": 2230,
        "contract": "contracts/NFTLRaffle.sol:NFTLRaffle",
        "label": "prizeNFTTokenIndex",
        "offset": 0,
        "slot": "206",
        "type": "t_mapping(t_uint256,t_uint256)"
      },
      {
        "astId": 2233,
        "contract": "contracts/NFTLRaffle.sol:NFTLRaffle",
        "label": "totalWinnerTicketCount",
        "offset": 0,
        "slot": "207",
        "type": "t_uint256"
      },
      {
        "astId": 2236,
        "contract": "contracts/NFTLRaffle.sol:NFTLRaffle",
        "label": "currentWinnerTicketCount",
        "offset": 0,
        "slot": "208",
        "type": "t_uint256"
      },
      {
        "astId": 2241,
        "contract": "contracts/NFTLRaffle.sol:NFTLRaffle",
        "label": "winners",
        "offset": 0,
        "slot": "209",
        "type": "t_array(t_struct(WinnerInfo)2194_storage)dyn_storage"
      },
      {
        "astId": 2244,
        "contract": "contracts/NFTLRaffle.sol:NFTLRaffle",
        "label": "totalTicketCount",
        "offset": 0,
        "slot": "210",
        "type": "t_uint256"
      },
      {
        "astId": 2256,
        "contract": "contracts/NFTLRaffle.sol:NFTLRaffle",
        "label": "_userList",
        "offset": 0,
        "slot": "211",
        "type": "t_struct(AddressSet)1858_storage"
      },
      {
        "astId": 2260,
        "contract": "contracts/NFTLRaffle.sol:NFTLRaffle",
        "label": "_ticketIdList",
        "offset": 0,
        "slot": "213",
        "type": "t_struct(UintSet)2015_storage"
      },
      {
        "astId": 2265,
        "contract": "contracts/NFTLRaffle.sol:NFTLRaffle",
        "label": "userDeposits",
        "offset": 0,
        "slot": "215",
        "type": "t_mapping(t_address,t_uint256)"
      },
      {
        "astId": 2271,
        "contract": "contracts/NFTLRaffle.sol:NFTLRaffle",
        "label": "_ticketIdsByUser",
        "offset": 0,
        "slot": "216",
        "type": "t_mapping(t_address,t_struct(UintSet)2015_storage)"
      },
      {
        "astId": 2276,
        "contract": "contracts/NFTLRaffle.sol:NFTLRaffle",
        "label": "userByTicketId",
        "offset": 0,
        "slot": "217",
        "type": "t_mapping(t_uint256,t_address)"
      },
      {
        "astId": 2280,
        "contract": "contracts/NFTLRaffle.sol:NFTLRaffle",
        "label": "ticketIdList",
        "offset": 0,
        "slot": "218",
        "type": "t_array(t_uint256)dyn_storage"
      },
      {
        "astId": 2285,
        "contract": "contracts/NFTLRaffle.sol:NFTLRaffle",
        "label": "ticketCountByUser",
        "offset": 0,
        "slot": "219",
        "type": "t_mapping(t_address,t_uint256)"
      }
    ],
    "types": {
      "t_address": {
        "encoding": "inplace",
        "label": "address",
        "numberOfBytes": "20"
      },
      "t_array(t_bytes32)dyn_storage": {
        "base": "t_bytes32",
        "encoding": "dynamic_array",
        "label": "bytes32[]",
        "numberOfBytes": "32"
      },
      "t_array(t_struct(WinnerInfo)2194_storage)dyn_storage": {
        "base": "t_struct(WinnerInfo)2194_storage",
        "encoding": "dynamic_array",
        "label": "struct NFTLRaffle.WinnerInfo[]",
        "numberOfBytes": "32"
      },
      "t_array(t_uint256)49_storage": {
        "base": "t_uint256",
        "encoding": "inplace",
        "label": "uint256[49]",
        "numberOfBytes": "1568"
      },
      "t_array(t_uint256)50_storage": {
        "base": "t_uint256",
        "encoding": "inplace",
        "label": "uint256[50]",
        "numberOfBytes": "1600"
      },
      "t_array(t_uint256)dyn_storage": {
        "base": "t_uint256",
        "encoding": "dynamic_array",
        "label": "uint256[]",
        "numberOfBytes": "32"
      },
      "t_bool": {
        "encoding": "inplace",
        "label": "bool",
        "numberOfBytes": "1"
      },
      "t_bytes32": {
        "encoding": "inplace",
        "label": "bytes32",
        "numberOfBytes": "32"
      },
      "t_contract(IERC20BurnableUpgradeable)2166": {
        "encoding": "inplace",
        "label": "contract IERC20BurnableUpgradeable",
        "numberOfBytes": "20"
      },
      "t_contract(IERC721Upgradeable)1147": {
        "encoding": "inplace",
        "label": "contract IERC721Upgradeable",
        "numberOfBytes": "20"
      },
      "t_mapping(t_address,t_struct(UintSet)2015_storage)": {
        "encoding": "mapping",
        "key": "t_address",
        "label": "mapping(address => struct EnumerableSetUpgradeable.UintSet)",
        "numberOfBytes": "32",
        "value": "t_struct(UintSet)2015_storage"
      },
      "t_mapping(t_address,t_uint256)": {
        "encoding": "mapping",
        "key": "t_address",
        "label": "mapping(address => uint256)",
        "numberOfBytes": "32",
        "value": "t_uint256"
      },
      "t_mapping(t_bytes32,t_uint256)": {
        "encoding": "mapping",
        "key": "t_bytes32",
        "label": "mapping(bytes32 => uint256)",
        "numberOfBytes": "32",
        "value": "t_uint256"
      },
      "t_mapping(t_uint256,t_address)": {
        "encoding": "mapping",
        "key": "t_uint256",
        "label": "mapping(uint256 => address)",
        "numberOfBytes": "32",
        "value": "t_address"
      },
      "t_mapping(t_uint256,t_uint256)": {
        "encoding": "mapping",
        "key": "t_uint256",
        "label": "mapping(uint256 => uint256)",
        "numberOfBytes": "32",
        "value": "t_uint256"
      },
      "t_struct(AddressSet)1858_storage": {
        "encoding": "inplace",
        "label": "struct EnumerableSetUpgradeable.AddressSet",
        "members": [
          {
            "astId": 1857,
            "contract": "contracts/NFTLRaffle.sol:NFTLRaffle",
            "label": "_inner",
            "offset": 0,
            "slot": "0",
            "type": "t_struct(Set)1543_storage"
          }
        ],
        "numberOfBytes": "64"
      },
      "t_struct(Set)1543_storage": {
        "encoding": "inplace",
        "label": "struct EnumerableSetUpgradeable.Set",
        "members": [
          {
            "astId": 1538,
            "contract": "contracts/NFTLRaffle.sol:NFTLRaffle",
            "label": "_values",
            "offset": 0,
            "slot": "0",
            "type": "t_array(t_bytes32)dyn_storage"
          },
          {
            "astId": 1542,
            "contract": "contracts/NFTLRaffle.sol:NFTLRaffle",
            "label": "_indexes",
            "offset": 0,
            "slot": "1",
            "type": "t_mapping(t_bytes32,t_uint256)"
          }
        ],
        "numberOfBytes": "64"
      },
      "t_struct(UintSet)2015_storage": {
        "encoding": "inplace",
        "label": "struct EnumerableSetUpgradeable.UintSet",
        "members": [
          {
            "astId": 2014,
            "contract": "contracts/NFTLRaffle.sol:NFTLRaffle",
            "label": "_inner",
            "offset": 0,
            "slot": "0",
            "type": "t_struct(Set)1543_storage"
          }
        ],
        "numberOfBytes": "64"
      },
      "t_struct(WinnerInfo)2194_storage": {
        "encoding": "inplace",
        "label": "struct NFTLRaffle.WinnerInfo",
        "members": [
          {
            "astId": 2189,
            "contract": "contracts/NFTLRaffle.sol:NFTLRaffle",
            "label": "ticketId",
            "offset": 0,
            "slot": "0",
            "type": "t_uint256"
          },
          {
            "astId": 2191,
            "contract": "contracts/NFTLRaffle.sol:NFTLRaffle",
            "label": "winner",
            "offset": 0,
            "slot": "1",
            "type": "t_address"
          },
          {
            "astId": 2193,
            "contract": "contracts/NFTLRaffle.sol:NFTLRaffle",
            "label": "prizeTokenId",
            "offset": 0,
            "slot": "2",
            "type": "t_uint256"
          }
        ],
        "numberOfBytes": "96"
      },
      "t_uint256": {
        "encoding": "inplace",
        "label": "uint256",
        "numberOfBytes": "32"
      },
      "t_uint64": {
        "encoding": "inplace",
        "label": "uint64",
        "numberOfBytes": "8"
      },
      "t_uint8": {
        "encoding": "inplace",
        "label": "uint8",
        "numberOfBytes": "1"
      }
    }
  }
}