{
  "address": "0xdb705b5fc85F42b4Ee499927f1743f19DB946997",
  "abi": [
    {
      "inputs": [],
      "stateMutability": "nonpayable",
      "type": "constructor"
    },
    {
      "anonymous": false,
      "inputs": [
        {
          "indexed": false,
          "internalType": "uint8",
          "name": "version",
          "type": "uint8"
        }
      ],
      "name": "Initialized",
      "type": "event"
    },
    {
      "anonymous": false,
      "inputs": [
        {
          "indexed": true,
          "internalType": "address",
          "name": "previousOwner",
          "type": "address"
        },
        {
          "indexed": true,
          "internalType": "address",
          "name": "newOwner",
          "type": "address"
        }
      ],
      "name": "OwnershipTransferred",
      "type": "event"
    },
    {
      "anonymous": false,
      "inputs": [
        {
          "indexed": false,
          "internalType": "address",
          "name": "account",
          "type": "address"
        }
      ],
      "name": "Paused",
      "type": "event"
    },
    {
      "anonymous": false,
      "inputs": [
        {
          "indexed": false,
          "internalType": "uint256",
          "name": "requestId",
          "type": "uint256"
        },
        {
          "indexed": false,
          "internalType": "uint256[]",
          "name": "randomWords",
          "type": "uint256[]"
        }
      ],
      "name": "RandomWordsReceived",
      "type": "event"
    },
    {
      "anonymous": false,
      "inputs": [
        {
          "indexed": false,
          "internalType": "uint256",
          "name": "requestId",
          "type": "uint256"
        },
        {
          "indexed": false,
          "internalType": "uint256",
          "name": "randomCountToRequest",
          "type": "uint256"
        }
      ],
      "name": "RandomWordsRequested",
      "type": "event"
    },
    {
      "anonymous": false,
      "inputs": [
        {
          "indexed": true,
          "internalType": "address",
          "name": "to",
          "type": "address"
        },
        {
          "indexed": false,
          "internalType": "uint256",
          "name": "ticketCount",
          "type": "uint256"
        }
      ],
      "name": "TicketDistributed",
      "type": "event"
    },
    {
      "anonymous": false,
      "inputs": [
        {
          "indexed": false,
          "internalType": "address",
          "name": "account",
          "type": "address"
        }
      ],
      "name": "Unpaused",
      "type": "event"
    },
    {
      "anonymous": false,
      "inputs": [
        {
          "indexed": true,
          "internalType": "address",
          "name": "user",
          "type": "address"
        },
        {
          "indexed": false,
          "internalType": "uint256",
          "name": "nftlAmount",
          "type": "uint256"
        }
      ],
      "name": "UserDeposited",
      "type": "event"
    },
    {
      "anonymous": false,
      "inputs": [
        {
          "indexed": true,
          "internalType": "address",
          "name": "by",
          "type": "address"
        },
        {
          "indexed": true,
          "internalType": "address",
          "name": "winner",
          "type": "address"
        },
        {
          "indexed": false,
          "internalType": "uint256",
          "name": "ticketId",
          "type": "uint256"
        },
        {
          "indexed": false,
          "internalType": "uint256",
          "name": "prizeTokenId",
          "type": "uint256"
        }
      ],
      "name": "WinnerSelected",
      "type": "event"
    },
    {
      "inputs": [],
      "name": "NFTL_AMOUNT_FOR_TICKET",
      "outputs": [
        {
          "internalType": "uint256",
          "name": "",
          "type": "uint256"
        }
      ],
      "stateMutability": "view",
      "type": "function"
    },
    {
      "inputs": [],
      "name": "allowUserDeposit",
      "outputs": [],
      "stateMutability": "nonpayable",
      "type": "function"
    },
    {
      "inputs": [],
      "name": "assignTicketToUsers",
      "outputs": [],
      "stateMutability": "nonpayable",
      "type": "function"
    },
    {
      "inputs": [],
      "name": "cancelSubscription",
      "outputs": [],
      "stateMutability": "nonpayable",
      "type": "function"
    },
    {
      "inputs": [
        {
          "internalType": "uint256",
          "name": "_amount",
          "type": "uint256"
        }
      ],
      "name": "chargeLINK",
      "outputs": [],
      "stateMutability": "nonpayable",
      "type": "function"
    },
    {
      "inputs": [],
      "name": "currentWinnerTicketCount",
      "outputs": [
        {
          "internalType": "uint256",
          "name": "",
          "type": "uint256"
        }
      ],
      "stateMutability": "view",
      "type": "function"
    },
    {
      "inputs": [
        {
          "internalType": "uint256",
          "name": "_amount",
          "type": "uint256"
        }
      ],
      "name": "deposit",
      "outputs": [],
      "stateMutability": "nonpayable",
      "type": "function"
    },
    {
      "inputs": [
        {
          "internalType": "uint256[]",
          "name": "_prizeNFTTokenIds",
          "type": "uint256[]"
        }
      ],
      "name": "depositPrizeNFT",
      "outputs": [],
      "stateMutability": "nonpayable",
      "type": "function"
    },
    {
      "inputs": [],
      "name": "disallowUserDeposit",
      "outputs": [],
      "stateMutability": "nonpayable",
      "type": "function"
    },
    {
      "inputs": [
        {
          "internalType": "address[]",
          "name": "_holders",
          "type": "address[]"
        },
        {
          "internalType": "uint256[]",
          "name": "_keyCount",
          "type": "uint256[]"
        }
      ],
      "name": "distributeTicketsToCitadelKeyHolders",
      "outputs": [],
      "stateMutability": "nonpayable",
      "type": "function"
    },
    {
      "inputs": [
        {
          "internalType": "address[]",
          "name": "_users",
          "type": "address[]"
        },
        {
          "internalType": "uint256[]",
          "name": "_ticketCount",
          "type": "uint256[]"
        }
      ],
      "name": "distributeTicketsToUsers",
      "outputs": [],
      "stateMutability": "nonpayable",
      "type": "function"
    },
    {
      "inputs": [],
      "name": "getRandomWordsList",
      "outputs": [
        {
          "internalType": "uint256[]",
          "name": "",
          "type": "uint256[]"
        }
      ],
      "stateMutability": "view",
      "type": "function"
    },
    {
      "inputs": [],
      "name": "getUserCount",
      "outputs": [
        {
          "internalType": "uint256",
          "name": "",
          "type": "uint256"
        }
      ],
      "stateMutability": "view",
      "type": "function"
    },
    {
      "inputs": [],
      "name": "getUserList",
      "outputs": [
        {
          "internalType": "address[]",
          "name": "",
          "type": "address[]"
        }
      ],
      "stateMutability": "view",
      "type": "function"
    },
    {
      "inputs": [],
      "name": "getWinners",
      "outputs": [
        {
          "components": [
            {
              "internalType": "uint256",
              "name": "ticketId",
              "type": "uint256"
            },
            {
              "internalType": "address",
              "name": "winner",
              "type": "address"
            },
            {
              "internalType": "uint256",
              "name": "prizeTokenId",
              "type": "uint256"
            }
          ],
          "internalType": "struct NFTLRaffle.WinnerInfo[]",
          "name": "",
          "type": "tuple[]"
        }
      ],
      "stateMutability": "view",
      "type": "function"
    },
    {
      "inputs": [
        {
          "internalType": "address",
          "name": "_nftl",
          "type": "address"
        },
        {
          "internalType": "uint256",
          "name": "_pendingPeriod",
          "type": "uint256"
        },
        {
          "internalType": "uint256",
          "name": "_totalWinnerTicketCount",
          "type": "uint256"
        },
        {
          "internalType": "address",
          "name": "_prizeNFT",
          "type": "address"
        },
        {
          "internalType": "address",
          "name": "_vrfCoordinator",
          "type": "address"
        }
      ],
      "name": "initialize",
      "outputs": [],
      "stateMutability": "nonpayable",
      "type": "function"
    },
    {
      "inputs": [],
      "name": "isTicketAssignedToUsers",
      "outputs": [
        {
          "internalType": "bool",
          "name": "",
          "type": "bool"
        }
      ],
      "stateMutability": "view",
      "type": "function"
    },
    {
      "inputs": [],
      "name": "isUserDepositAllowed",
      "outputs": [
        {
          "internalType": "bool",
          "name": "",
          "type": "bool"
        }
      ],
      "stateMutability": "view",
      "type": "function"
    },
    {
      "inputs": [
        {
          "internalType": "uint256",
          "name": "",
          "type": "uint256"
        }
      ],
      "name": "isWinnerTicketId",
      "outputs": [
        {
          "internalType": "bool",
          "name": "",
          "type": "bool"
        }
      ],
      "stateMutability": "view",
      "type": "function"
    },
    {
      "inputs": [
        {
          "internalType": "address",
          "name": "_consumer",
          "type": "address"
        },
        {
          "internalType": "bool",
          "name": "_add",
          "type": "bool"
        }
      ],
      "name": "manageConsumers",
      "outputs": [],
      "stateMutability": "nonpayable",
      "type": "function"
    },
    {
      "inputs": [],
      "name": "nftl",
      "outputs": [
        {
          "internalType": "contract IERC20BurnableUpgradeable",
          "name": "",
          "type": "address"
        }
      ],
      "stateMutability": "view",
      "type": "function"
    },
    {
      "inputs": [
        {
          "internalType": "address",
          "name": "",
          "type": "address"
        },
        {
          "internalType": "address",
          "name": "",
          "type": "address"
        },
        {
          "internalType": "uint256",
          "name": "",
          "type": "uint256"
        },
        {
          "internalType": "bytes",
          "name": "",
          "type": "bytes"
        }
      ],
      "name": "onERC721Received",
      "outputs": [
        {
          "internalType": "bytes4",
          "name": "",
          "type": "bytes4"
        }
      ],
      "stateMutability": "nonpayable",
      "type": "function"
    },
    {
      "inputs": [],
      "name": "owner",
      "outputs": [
        {
          "internalType": "address",
          "name": "",
          "type": "address"
        }
      ],
      "stateMutability": "view",
      "type": "function"
    },
    {
      "inputs": [],
      "name": "pause",
      "outputs": [],
      "stateMutability": "nonpayable",
      "type": "function"
    },
    {
      "inputs": [],
      "name": "paused",
      "outputs": [
        {
          "internalType": "bool",
          "name": "",
          "type": "bool"
        }
      ],
      "stateMutability": "view",
      "type": "function"
    },
    {
      "inputs": [],
      "name": "prizeNFT",
      "outputs": [
        {
          "internalType": "contract IERC721Upgradeable",
          "name": "",
          "type": "address"
        }
      ],
      "stateMutability": "view",
      "type": "function"
    },
    {
      "inputs": [
        {
          "internalType": "uint256",
          "name": "",
          "type": "uint256"
        }
      ],
      "name": "prizeNFTTokenIndex",
      "outputs": [
        {
          "internalType": "uint256",
          "name": "",
          "type": "uint256"
        }
      ],
      "stateMutability": "view",
      "type": "function"
    },
    {
      "inputs": [
        {
          "internalType": "uint256",
          "name": "",
          "type": "uint256"
        }
      ],
      "name": "prizeNFTokenIds",
      "outputs": [
        {
          "internalType": "uint256",
          "name": "",
          "type": "uint256"
        }
      ],
      "stateMutability": "view",
      "type": "function"
    },
    {
      "inputs": [],
      "name": "raffleStartAt",
      "outputs": [
        {
          "internalType": "uint256",
          "name": "",
          "type": "uint256"
        }
      ],
      "stateMutability": "view",
      "type": "function"
    },
    {
      "inputs": [
        {
          "internalType": "uint256",
          "name": "",
          "type": "uint256"
        }
      ],
      "name": "randomWordList",
      "outputs": [
        {
          "internalType": "uint256",
          "name": "",
          "type": "uint256"
        }
      ],
      "stateMutability": "view",
      "type": "function"
    },
    {
      "inputs": [
        {
          "internalType": "uint256",
          "name": "_requestId",
          "type": "uint256"
        },
        {
          "internalType": "uint256[]",
          "name": "_randomWords",
          "type": "uint256[]"
        }
      ],
      "name": "rawFulfillRandomWords",
      "outputs": [],
      "stateMutability": "nonpayable",
      "type": "function"
    },
    {
      "inputs": [],
      "name": "renounceOwnership",
      "outputs": [],
      "stateMutability": "nonpayable",
      "type": "function"
    },
    {
      "inputs": [],
      "name": "requestRandomWordsForWinnerSelection",
      "outputs": [
        {
          "internalType": "uint256",
          "name": "requestId",
          "type": "uint256"
        }
      ],
      "stateMutability": "nonpayable",
      "type": "function"
    },
    {
      "inputs": [],
      "name": "s_subscriptionId",
      "outputs": [
        {
          "internalType": "uint64",
          "name": "",
          "type": "uint64"
        }
      ],
      "stateMutability": "view",
      "type": "function"
    },
    {
      "inputs": [
        {
          "internalType": "address",
          "name": "",
          "type": "address"
        }
      ],
      "name": "ticketCountByUser",
      "outputs": [
        {
          "internalType": "uint256",
          "name": "",
          "type": "uint256"
        }
      ],
      "stateMutability": "view",
      "type": "function"
    },
    {
      "inputs": [
        {
          "internalType": "uint256",
          "name": "",
          "type": "uint256"
        }
      ],
      "name": "ticketIdList",
      "outputs": [
        {
          "internalType": "uint256",
          "name": "",
          "type": "uint256"
        }
      ],
      "stateMutability": "view",
      "type": "function"
    },
    {
      "inputs": [
        {
          "internalType": "address",
          "name": "",
          "type": "address"
        }
      ],
      "name": "ticketRangeByUser",
      "outputs": [
        {
          "internalType": "uint256",
          "name": "startTicketId",
          "type": "uint256"
        },
        {
          "internalType": "uint256",
          "name": "endTicketId",
          "type": "uint256"
        }
      ],
      "stateMutability": "view",
      "type": "function"
    },
    {
      "inputs": [],
      "name": "totalTicketCount",
      "outputs": [
        {
          "internalType": "uint256",
          "name": "",
          "type": "uint256"
        }
      ],
      "stateMutability": "view",
      "type": "function"
    },
    {
      "inputs": [],
      "name": "totalWinnerTicketCount",
      "outputs": [
        {
          "internalType": "uint256",
          "name": "",
          "type": "uint256"
        }
      ],
      "stateMutability": "view",
      "type": "function"
    },
    {
      "inputs": [
        {
          "internalType": "address",
          "name": "newOwner",
          "type": "address"
        }
      ],
      "name": "transferOwnership",
      "outputs": [],
      "stateMutability": "nonpayable",
      "type": "function"
    },
    {
      "inputs": [],
      "name": "unpause",
      "outputs": [],
      "stateMutability": "nonpayable",
      "type": "function"
    },
    {
      "inputs": [
        {
          "internalType": "uint256",
          "name": "_totalWinnerTicketCount",
          "type": "uint256"
        }
      ],
      "name": "updateTotalWinnerTicketCount",
      "outputs": [],
      "stateMutability": "nonpayable",
      "type": "function"
    },
    {
      "inputs": [
        {
          "internalType": "uint256",
          "name": "",
          "type": "uint256"
        }
      ],
      "name": "userByTicketId",
      "outputs": [
        {
          "internalType": "address",
          "name": "",
          "type": "address"
        }
      ],
      "stateMutability": "view",
      "type": "function"
    },
    {
      "inputs": [
        {
          "internalType": "address",
          "name": "",
          "type": "address"
        }
      ],
      "name": "userDeposits",
      "outputs": [
        {
          "internalType": "uint256",
          "name": "",
          "type": "uint256"
        }
      ],
      "stateMutability": "view",
      "type": "function"
    },
    {
      "inputs": [
        {
          "internalType": "uint256",
          "name": "",
          "type": "uint256"
        }
      ],
      "name": "winners",
      "outputs": [
        {
          "internalType": "uint256",
          "name": "ticketId",
          "type": "uint256"
        },
        {
          "internalType": "address",
          "name": "winner",
          "type": "address"
        },
        {
          "internalType": "uint256",
          "name": "prizeTokenId",
          "type": "uint256"
        }
      ],
      "stateMutability": "view",
      "type": "function"
    },
    {
      "inputs": [
        {
          "internalType": "address",
          "name": "_to",
          "type": "address"
        }
      ],
      "name": "withdrawLINK",
      "outputs": [],
      "stateMutability": "nonpayable",
      "type": "function"
    }
  ],
  "transactionHash": "0x042f9672a5ecf7be85ce2f35f5b39e873b5a755e7733966b9cae8d0ee91fe884",
  "args": [],
  "numDeployments": 5,
  "solcInputHash": "e6cda0bf6a5541e0081a918f00c698bc",
  "bytecode": "0x60806040523480156200001157600080fd5b506200001c62000022565b620000e4565b600054610100900460ff16156200008f5760405162461bcd60e51b815260206004820152602760248201527f496e697469616c697a61626c653a20636f6e747261637420697320696e697469604482015266616c697a696e6760c81b606482015260840160405180910390fd5b60005460ff9081161015620000e2576000805460ff191660ff9081179091556040519081527f7f26b83ff96e1f2b6a682f133852f6798a09c465da95921460cefb38474024989060200160405180910390a15b565b612b2280620000f46000396000f3fe608060405234801561001057600080fd5b506004361061028a5760003560e01c80637b762fac1161015c578063aa0a1a89116100ce578063c67c11e611610087578063c67c11e6146105ea578063df15c37e146105fd578063e6c81c7214610612578063f200006c14610625578063f2fde38b1461064e578063f716675a1461066157600080fd5b8063aa0a1a8914610558578063b5cb15f714610594578063b6b55f251461059c578063b8522043146105af578063bc7c7bc2146105c4578063bf384e10146105d757600080fd5b80638c2906d5116101205780638c2906d5146104c65780638da5cb5b146104d9578063931d393e146104ea5780639494b6c4146104f25780639e7d9ae114610515578063a2fb11751461052257600080fd5b80637b762fac1461045c5780638456cb59146104645780638699282e1461046c578063869c046c146104815780638ac000211461049457600080fd5b80633951dcff1161020057806359839de6116101b957806359839de6146103d85780635c975abb146103f85780635e2692be1461040f5780636327ea69146104215780636ee7c19914610434578063715018a61461045457600080fd5b80633951dcff146103675780633b2490311461037a5780633f4ba83a1461038d57806345483d49146103955780634e81da0a1461039d5780635671fc66146103c857600080fd5b806319d750ce1161025257806319d750ce1461031f5780631fe543e31461032857806324e9edb01461033b578063302f0f1814610343578063323c1bb31461034b57806333818c881461035457600080fd5b806302e4bb9f1461028f57806303b54d52146102a45780630ba36dcd146102b757806314558fab146102ea578063150b7a02146102f3575b600080fd5b6102a261029d366004612344565b61066a565b005b6102a26102b2366004612379565b610745565b6102d76102c53660046123d0565b60d76020526000908152604090205481565b6040519081526020015b60405180910390f35b6102d760d25481565b610306610301366004612431565b6109ce565b6040516001600160e01b031990911681526020016102e1565b6102d760cd5481565b6102a2610336366004612564565b6109df565b6102a2610a77565b6102a2610b1b565b6102d760cf5481565b6102d7610362366004612344565b610b2f565b6102d7610375366004612344565b610b50565b6102d7610388366004612344565b610b60565b6102a2610b70565b6102a2610b82565b60cc546103b0906001600160a01b031681565b6040516001600160a01b0390911681526020016102e1565b6102d7683635c9adc5dea0000081565b6102d76103e63660046123d0565b60db6020526000908152604090205481565b60655460ff165b60405190151581526020016102e1565b60dc546103ff90610100900460ff1681565b6102a261042f3660046125f5565b610b99565b6102d7610442366004612344565b60ce6020526000908152604090205481565b6102a2610cf3565b6102d7610d05565b6102a2610e6f565b610474610e7f565b6040516102e1919061269b565b6102a261048f366004612344565b610ed7565b60c9546104ae90600160a01b90046001600160401b031681565b6040516001600160401b0390911681526020016102e1565b6102a26104d43660046125f5565b610f2f565b6033546001600160a01b03166103b0565b6102a2611093565b6103ff610500366004612344565b60de6020526000908152604090205460ff1681565b60dc546103ff9060ff1681565b610535610530366004612344565b611232565b604080519384526001600160a01b039092166020840152908201526060016102e1565b61057f6105663660046123d0565b60dd602052600090815260409020805460019091015482565b604080519283526020830191909152016102e1565b6102d7611271565b6102a26105aa366004612344565b611282565b6105b761137a565b6040516102e191906126ae565b6102a26105d2366004612709565b611386565b6102a26105e53660046123d0565b611441565b6102a26105f8366004612740565b6114e1565b610605611620565b6040516102e19190612774565b60ca546103b0906001600160a01b031681565b6103b0610633366004612344565b60d9602052600090815260409020546001600160a01b031681565b6102a261065c3660046123d0565b6116a2565b6102d760d05481565b61068a73514910771af9ca656af840dff83e8264ecf986ca333084611718565b60c95460408051600160a01b83046001600160401b0316602082015273514910771af9ca656af840dff83e8264ecf986ca92634000aea0926001600160a01b03909116918591016040516020818303038152906040526040518463ffffffff1660e01b81526004016106fe9392919061282e565b6020604051808303816000875af115801561071d573d6000803e3d6000fd5b505050506040513d601f19601f82011682018060405250810190610741919061285e565b5050565b600054610100900460ff16158080156107655750600054600160ff909116105b8061077f5750303b15801561077f575060005460ff166001145b6107e75760405162461bcd60e51b815260206004820152602e60248201527f496e697469616c697a61626c653a20636f6e747261637420697320616c72656160448201526d191e481a5b9a5d1a585b1a5e995960921b60648201526084015b60405180910390fd5b6000805460ff19166001179055801561080a576000805461ff0019166101001790555b610812611789565b61081a6117b8565b6108226117e7565b6001600160a01b0386166108485760405162461bcd60e51b81526004016107de9061287b565b6201518085116108845760405162461bcd60e51b81526020600482015260076024820152663120646179202b60c81b60448201526064016107de565b600084116108cf5760405162461bcd60e51b815260206004820152601860248201527716995c9bc81dda5b9b995c881d1a58dad95d0818dbdd5b9d60421b60448201526064016107de565b6001600160a01b0383166108f55760405162461bcd60e51b81526004016107de9061287b565b6001600160a01b03821661091b5760405162461bcd60e51b81526004016107de9061287b565b60cc80546001600160a01b0319166001600160a01b03881617905561094085426128b7565b60cd5560cf84905560ca80546001600160a01b038086166001600160a01b03199283161790925560c980549285169290911691909117905561098061180e565b80156109c6576000805461ff0019169055604051600181527f7f26b83ff96e1f2b6a682f133852f6798a09c465da95921460cefb38474024989060200160405180910390a15b505050505050565b630a85bd0160e11b5b949350505050565b60c9546001600160a01b03163314610a305760405162461bcd60e51b815260206004820152601460248201527327b7363c902b29231031b7b7b93234b730ba37b960611b60448201526064016107de565b610a3a8282611918565b7f19a2c8ede94142b0c8ed074fd0a4778b9928cc8e06adc32dc2c1b36d698610678282604051610a6b9291906128cf565b60405180910390a15050565b610a7f611984565b60c9546001600160a01b0381169063d7ae1d30906001600160401b03600160a01b90910416610ab66033546001600160a01b031690565b6040518363ffffffff1660e01b8152600401610ad39291906128e8565b600060405180830381600087803b158015610aed57600080fd5b505af1158015610b01573d6000803e3d6000fd5b505060c9805467ffffffffffffffff60a01b191690555050565b610b23611984565b60dc805460ff19169055565b60cb8181548110610b3f57600080fd5b600091825260209091200154905081565b60da8181548110610b3f57600080fd5b60df8181548110610b3f57600080fd5b610b78611984565b610b806119de565b565b610b8a611984565b60dc805460ff19166001179055565b60dc5460ff16610bbb5760405162461bcd60e51b81526004016107de9061290a565b610bc3611984565b82818114610c045760405162461bcd60e51b815260206004820152600e60248201526d496e76616c696420706172616d7360901b60448201526064016107de565b60005b818110156109c6576000868683818110610c2357610c23612938565b9050602002016020810190610c3891906123d0565b90506000858584818110610c4e57610c4e612938565b905060200201359050683635c9adc5dea0000081610c6c919061294e565b6001600160a01b038316600090815260d7602052604081208054909190610c949084906128b7565b90915550610ca5905060d383611a30565b50816001600160a01b03167fe3fb7fcd519a3e7c790d02eb7b35c2f9b0ad2b62c0820dcc728151ebd9728d1b82604051610ce191815260200190565b60405180910390a25050600101610c07565b610cfb611984565b610b806000611a4e565b60dc5460009060ff1615610d555760405162461bcd60e51b815260206004820152601760248201527613db9b1e4819195c1bdcda5d08191a5cd85b1b1bddd959604a1b60448201526064016107de565b610d5d611984565b60cf5460d05410610da35760405162461bcd60e51b815260206004820152601060248201526f52657175657374206f766572666c6f7760801b60448201526064016107de565b60d25460cf541115610def5760405162461bcd60e51b81526020600482015260156024820152744e6f7420656e6f756768206465706f7369746f727360581b60448201526064016107de565b60df5415610e13576000610e01611aa0565b90508015610e1157600091505090565b505b600060cf546002610e24919061294e565b9050610e2f81611e6a565b60408051828152602081018490529193507fc904ef81354df41ed9256aa2ab862017f6ab3f33f3f7ca50016a1786083d086d910160405180910390a15090565b610e77611984565b610b80611f2a565b606060df805480602002602001604051908101604052809291908181526020018280548015610ecd57602002820191906000526020600020905b815481526020019060010190808311610eb9575b5050505050905090565b610edf611984565b60008111610f2a5760405162461bcd60e51b815260206004820152601860248201527716995c9bc81dda5b9b995c881d1a58dad95d0818dbdd5b9d60421b60448201526064016107de565b60cf55565b60dc5460ff16610f515760405162461bcd60e51b81526004016107de9061290a565b610f59611984565b82818114610f9a5760405162461bcd60e51b815260206004820152600e60248201526d496e76616c696420706172616d7360901b60448201526064016107de565b60005b818110156109c6576000868683818110610fb957610fb9612938565b9050602002016020810190610fce91906123d0565b90506000858584818110610fe457610fe4612938565b905060200201356064610ff7919061294e565b905061100c683635c9adc5dea000008261294e565b6001600160a01b038316600090815260d76020526040812080549091906110349084906128b7565b90915550611045905060d383611a30565b50816001600160a01b03167fe3fb7fcd519a3e7c790d02eb7b35c2f9b0ad2b62c0820dcc728151ebd9728d1b8260405161108191815260200190565b60405180910390a25050600101610f9d565b60dc5460ff16156110e05760405162461bcd60e51b815260206004820152601760248201527613db9b1e4819195c1bdcda5d08191a5cd85b1b1bddd959604a1b60448201526064016107de565b6110e8611984565b60dc54610100900460ff16156111335760405162461bcd60e51b815260206004820152601060248201526f105b1c9958591e48185cdcda59db995960821b60448201526064016107de565b60dc805461ff001916610100179055600061114c611271565b9050600061115861137a565b90506000805b8381101561122a57600083828151811061117a5761117a612938565b602002602001015190506000683635c9adc5dea0000060d76000846001600160a01b03166001600160a01b03168152602001908152602001600020546111c09190612983565b9050801561121c576040518060400160405280858152602001600183876111e791906128b7565b6111f19190612997565b90526001600160a01b038316600090815260dd60209081526040909120825181559101516001909101555b92909201915060010161115e565b5060d2555050565b60d1818154811061124257600080fd5b60009182526020909120600390910201805460018201546002909201549092506001600160a01b039091169083565b600061127d60d3611f67565b905090565b60dc5460ff166112a45760405162461bcd60e51b81526004016107de9061290a565b6112ac611f71565b60cc5460405163079cc67960e41b8152336004820152602481018390526001600160a01b03909116906379cc679090604401600060405180830381600087803b1580156112f857600080fd5b505af115801561130c573d6000803e3d6000fd5b505033600090815260d76020526040812080548594509092506113309084906128b7565b90915550611341905060d333611a30565b5060405181815233907f951fdc61d6a98f96098a17ea6ac287a6fd38aea6bef73083c93b274cb830107d9060200160405180910390a250565b606061127d60d3611fb7565b61138e611984565b806114015760c954604051639f87fad760e01b81526001600160a01b03821691639f87fad7916113d391600160a01b90046001600160401b03169086906004016128e8565b600060405180830381600087803b1580156113ed57600080fd5b505af11580156109c6573d6000803e3d6000fd5b60c954604051631cd0704360e21b81526001600160a01b03821691637341c10c916113d391600160a01b90046001600160401b03169086906004016128e8565b611449611984565b6040516370a0823160e01b81523060048201526114de90829073514910771af9ca656af840dff83e8264ecf986ca906370a0823190602401602060405180830381865afa15801561149e573d6000803e3d6000fd5b505050506040513d601f19601f820116820180604052508101906114c291906129ae565b73514910771af9ca656af840dff83e8264ecf986ca9190611fcb565b50565b6114e9611984565b805160cf5460cb546114fb90836128b7565b146115415760405162461bcd60e51b8152602060048201526016602482015275135a5cdb585d18da1959081c1c9a5e994818dbdd5b9d60521b60448201526064016107de565b60005b8181101561161b57600083828151811061156057611560612938565b60209081029190910181015160ca546040805193840181526000845251635c46a7ef60e11b81529193506001600160a01b03169163b88d4fde916115ac913391309187916004016129c7565b600060405180830381600087803b1580156115c657600080fd5b505af11580156115da573d6000803e3d6000fd5b505060cb8054600181810183556000929092527fa7ce836d032b2bf62b7e2097a8e0a6d8aeb35405ad15271e96d3b0188a1d06fb0193909355505001611544565b505050565b606060d1805480602002602001604051908101604052809291908181526020016000905b828210156116995760008481526020908190206040805160608101825260038602909201805483526001808201546001600160a01b031684860152600290910154918301919091529083529092019101611644565b50505050905090565b6116aa611984565b6001600160a01b03811661170f5760405162461bcd60e51b815260206004820152602660248201527f4f776e61626c653a206e6577206f776e657220697320746865207a65726f206160448201526564647265737360d01b60648201526084016107de565b6114de81611a4e565b6040516001600160a01b03808516602483015283166044820152606481018290526117839085906323b872dd60e01b906084015b60408051601f198184030181529190526020810180516001600160e01b03166001600160e01b031990931692909217909152611ffb565b50505050565b600054610100900460ff166117b05760405162461bcd60e51b81526004016107de90612a04565b610b806120cd565b600054610100900460ff166117df5760405162461bcd60e51b81526004016107de90612a04565b610b806120fd565b600054610100900460ff16610b805760405162461bcd60e51b81526004016107de90612a04565b60c960009054906101000a90046001600160a01b03166001600160a01b031663a21a23e46040518163ffffffff1660e01b81526004016020604051808303816000875af1158015611863573d6000803e3d6000fd5b505050506040513d601f19601f820116820180604052508101906118879190612a4f565b60c980546001600160401b03928316600160a01b90810267ffffffffffffffff60a01b198316811793849055604051631cd0704360e21b81526001600160a01b03918216919093161793637341c10c936118ea93929004169030906004016128e8565b600060405180830381600087803b15801561190457600080fd5b505af1158015611783573d6000803e3d6000fd5b60005b815181101561197b5760df8282600185516119369190612997565b6119409190612997565b8151811061195057611950612938565b602090810291909101810151825460018181018555600094855292909320909201919091550161191b565b5061161b611aa0565b6033546001600160a01b03163314610b805760405162461bcd60e51b815260206004820181905260248201527f4f776e61626c653a2063616c6c6572206973206e6f7420746865206f776e657260448201526064016107de565b6119e6612130565b6065805460ff191690557f5db9ee0a495bf2e6ff9c91a7834c1ba4fdd244a5e8aa4e537bd38aeae4b073aa335b6040516001600160a01b03909116815260200160405180910390a1565b6000611a45836001600160a01b038416612179565b90505b92915050565b603380546001600160a01b038381166001600160a01b0319831681179093556040519116919082907f8be0079c531659141344cd1fd0a4f28419497f9722a3daafe3b4186f6b6457e090600090a35050565b60df80546000918291611ab590600190612997565b81548110611ac557611ac5612938565b9060005260206000200154905060df805480611ae357611ae3612a78565b6001900381819060005260206000200160009055905560005b60d254611b099083612a8e565b600081815260de602052604090205490915060ff1615611b8c5760df54611b335760009250505090565b60df8054611b4390600190612997565b81548110611b5357611b53612938565b9060005260206000200154915060df805480611b7157611b71612a78565b60019003818190600052602060002001600090559055611afc565b6000611b9661137a565b90506000806001611ba5611271565b611baf9190612997565b905060008060005b6002611bc385876128b7565b611bcd9190612983565b9250858381518110611be157611be1612938565b602002602001015191508660dd6000846001600160a01b03166001600160a01b031681526020019081526020016000206000015411158015611c3e57506001600160a01b038216600090815260dd60205260409020600101548711155b15611c4a575080611c8e565b6001600160a01b038216600090815260dd6020526040902054871015611c7c57611c75600184612997565b9350611bb7565b611c878360016128b7565b9450611bb7565b600060cb60d05481548110611ca557611ca5612938565b600091825260208083209091015460ca546040805193840181529383529251635c46a7ef60e11b81529093506001600160a01b039092169163b88d4fde91611cf691309187918791906004016129c7565b600060405180830381600087803b158015611d1057600080fd5b505af1158015611d24573d6000803e3d6000fd5b505050600089815260de602090815260408083208054600160ff19909116811790915581516060810183528d81526001600160a01b0388811694820194855292810187815260d180549384018155865290517f695fb3134ad82c3b8022bc5464edd0bcc9424ef672b52245dcb6ab2374327ce360039093029283015592517f695fb3134ad82c3b8022bc5464edd0bcc9424ef672b52245dcb6ab2374327ce4820180546001600160a01b031916919093161790915590517f695fb3134ad82c3b8022bc5464edd0bcc9424ef672b52245dcb6ab2374327ce59091015560d08054909250611e1090612aa2565b9091555060408051898152602081018390526001600160a01b0384169133917fef61d5e7c73a0488ebba4ce7e2cc6cab14e1c52e49e75a2dd6d2c242770db768910160405180910390a36001995050505050505050505090565b60c9546040516305d3b1d360e41b81527f8af398995b04c28e9951adb9721ef74c74f93e6a478f39e7e0777be13527e7ef6004820152600160a01b82046001600160401b0316602482015260036044820152622625a0606482015263ffffffff831660848201526000916001600160a01b031690635d3b1d309060a4016020604051808303816000875af1158015611f06573d6000803e3d6000fd5b505050506040513d601f19601f82011682018060405250810190611a4891906129ae565b611f32611f71565b6065805460ff191660011790557f62e78cea01bee320cd4e420270b5ea74000d11b0c9f74754ebdbfc544b05a258611a133390565b6000611a48825490565b60655460ff1615610b805760405162461bcd60e51b815260206004820152601060248201526f14185d5cd8589b194e881c185d5cd95960821b60448201526064016107de565b60606000611fc4836121c8565b9392505050565b6040516001600160a01b03831660248201526044810182905261161b90849063a9059cbb60e01b9060640161174c565b6000612050826040518060400160405280602081526020017f5361666545524332303a206c6f772d6c6576656c2063616c6c206661696c6564815250856001600160a01b03166122249092919063ffffffff16565b80519091501561161b578080602001905181019061206e919061285e565b61161b5760405162461bcd60e51b815260206004820152602a60248201527f5361666545524332303a204552433230206f7065726174696f6e20646964206e6044820152691bdd081cdd58d8d9595960b21b60648201526084016107de565b600054610100900460ff166120f45760405162461bcd60e51b81526004016107de90612a04565b610b8033611a4e565b600054610100900460ff166121245760405162461bcd60e51b81526004016107de90612a04565b6065805460ff19169055565b60655460ff16610b805760405162461bcd60e51b815260206004820152601460248201527314185d5cd8589b194e881b9bdd081c185d5cd95960621b60448201526064016107de565b60008181526001830160205260408120546121c057508154600181810184556000848152602080822090930184905584548482528286019093526040902091909155611a48565b506000611a48565b60608160000180548060200260200160405190810160405280929190818152602001828054801561221857602002820191906000526020600020905b815481526020019060010190808311612204575b50505050509050919050565b60606109d7848460008585600080866001600160a01b0316858760405161224b9190612abd565b60006040518083038185875af1925050503d8060008114612288576040519150601f19603f3d011682016040523d82523d6000602084013e61228d565b606091505b509150915061229e878383876122a9565b979650505050505050565b6060831561231557825161230e576001600160a01b0385163b61230e5760405162461bcd60e51b815260206004820152601d60248201527f416464726573733a2063616c6c20746f206e6f6e2d636f6e747261637400000060448201526064016107de565b50816109d7565b6109d7838381511561232a5781518083602001fd5b8060405162461bcd60e51b81526004016107de9190612ad9565b60006020828403121561235657600080fd5b5035919050565b80356001600160a01b038116811461237457600080fd5b919050565b600080600080600060a0868803121561239157600080fd5b61239a8661235d565b945060208601359350604086013592506123b66060870161235d565b91506123c46080870161235d565b90509295509295909350565b6000602082840312156123e257600080fd5b611a458261235d565b634e487b7160e01b600052604160045260246000fd5b604051601f8201601f191681016001600160401b0381118282101715612429576124296123eb565b604052919050565b6000806000806080858703121561244757600080fd5b6124508561235d565b9350602061245f81870161235d565b93506040860135925060608601356001600160401b038082111561248257600080fd5b818801915088601f83011261249657600080fd5b8135818111156124a8576124a86123eb565b6124ba601f8201601f19168501612401565b915080825289848285010111156124d057600080fd5b808484018584013760008482840101525080935050505092959194509250565b600082601f83011261250157600080fd5b813560206001600160401b0382111561251c5761251c6123eb565b8160051b61252b828201612401565b928352848101820192828101908785111561254557600080fd5b83870192505b8483101561229e5782358252918301919083019061254b565b6000806040838503121561257757600080fd5b8235915060208301356001600160401b0381111561259457600080fd5b6125a0858286016124f0565b9150509250929050565b60008083601f8401126125bc57600080fd5b5081356001600160401b038111156125d357600080fd5b6020830191508360208260051b85010111156125ee57600080fd5b9250929050565b6000806000806040858703121561260b57600080fd5b84356001600160401b038082111561262257600080fd5b61262e888389016125aa565b9096509450602087013591508082111561264757600080fd5b50612654878288016125aa565b95989497509550505050565b600081518084526020808501945080840160005b8381101561269057815187529582019590820190600101612674565b509495945050505050565b602081526000611a456020830184612660565b6020808252825182820181905260009190848201906040850190845b818110156126ef5783516001600160a01b0316835292840192918401916001016126ca565b50909695505050505050565b80151581146114de57600080fd5b6000806040838503121561271c57600080fd5b6127258361235d565b91506020830135612735816126fb565b809150509250929050565b60006020828403121561275257600080fd5b81356001600160401b0381111561276857600080fd5b6109d7848285016124f0565b602080825282518282018190526000919060409081850190868401855b828110156127c957815180518552868101516001600160a01b0316878601528501518585015260609093019290850190600101612791565b5091979650505050505050565b60005b838110156127f15781810151838201526020016127d9565b838111156117835750506000910152565b6000815180845261281a8160208601602086016127d6565b601f01601f19169290920160200192915050565b60018060a01b03841681528260208201526060604082015260006128556060830184612802565b95945050505050565b60006020828403121561287057600080fd5b8151611fc4816126fb565b6020808252600c908201526b5a65726f206164647265737360a01b604082015260600190565b634e487b7160e01b600052601160045260246000fd5b600082198211156128ca576128ca6128a1565b500190565b8281526040602082015260006109d76040830184612660565b6001600160401b039290921682526001600160a01b0316602082015260400190565b60208082526014908201527313db9b1e4819195c1bdcda5d08185b1b1bddd95960621b604082015260600190565b634e487b7160e01b600052603260045260246000fd5b6000816000190483118215151615612968576129686128a1565b500290565b634e487b7160e01b600052601260045260246000fd5b6000826129925761299261296d565b500490565b6000828210156129a9576129a96128a1565b500390565b6000602082840312156129c057600080fd5b5051919050565b6001600160a01b03858116825284166020820152604081018390526080606082018190526000906129fa90830184612802565b9695505050505050565b6020808252602b908201527f496e697469616c697a61626c653a20636f6e7472616374206973206e6f74206960408201526a6e697469616c697a696e6760a81b606082015260800190565b600060208284031215612a6157600080fd5b81516001600160401b0381168114611fc457600080fd5b634e487b7160e01b600052603160045260246000fd5b600082612a9d57612a9d61296d565b500690565b6000600019821415612ab657612ab66128a1565b5060010190565b60008251612acf8184602087016127d6565b9190910192915050565b602081526000611a45602083018461280256fea2646970667358221220de770aa5af9b21f0f318546b4c6c36a951e92b66c7fe6ee7d9b81c90137cc3eb64736f6c634300080b0033",
  "devdoc": {
    "kind": "dev",
    "methods": {
      "constructor": {
        "custom:oz-upgrades-unsafe-allow": "constructor"
      },
      "onERC721Received(address,address,uint256,bytes)": {
        "details": "See {IERC721Receiver-onERC721Received}. Always returns `IERC721Receiver.onERC721Received.selector`."
      },
      "owner()": {
        "details": "Returns the address of the current owner."
      },
      "paused()": {
        "details": "Returns true if the contract is paused, and false otherwise."
      },
      "renounceOwnership()": {
        "details": "Leaves the contract without owner. It will not be possible to call `onlyOwner` functions anymore. Can only be called by the current owner. NOTE: Renouncing ownership will leave the contract without an owner, thereby removing any functionality that is only available to the owner."
      },
      "transferOwnership(address)": {
        "details": "Transfers ownership of the contract to a new account (`newOwner`). Can only be called by the current owner."
      }
    },
    "stateVariables": {
      "NFTL_AMOUNT_FOR_TICKET": {
        "details": "NFTL amount required for 1 ticket"
      },
      "_ticketIdList": {
        "details": "TokenId list"
      },
      "_ticketIdsByUser": {
        "details": "User -> Ticket Id list"
      },
      "_userList": {
        "details": "User list"
      },
      "currentWinnerTicketCount": {
        "details": "Current selected winner count"
      },
      "isTicketAssignedToUsers": {
        "details": "Ticket assign status"
      },
      "isUserDepositAllowed": {
        "details": "Swith to on/off the deposit"
      },
      "isWinnerTicketId": {
        "details": "Winner Ticket Id -> Bool"
      },
      "nftl": {
        "details": "NFTL address"
      },
      "prizeNFT": {
        "details": "Prize NFT (NiftyDegen) address"
      },
      "prizeNFTokenIds": {
        "details": "PrizeNFT TokenIds"
      },
      "raffleStartAt": {
        "details": "Timestamp the raffle start"
      },
      "randomWordList": {
        "details": "Random word list"
      },
      "ticketCountByUser": {
        "details": "User -> Ticket count"
      },
      "ticketIdList": {
        "details": "Ticket list"
      },
      "ticketRangeByUser": {
        "details": "User -> Ticket range"
      },
      "totalTicketCount": {
        "details": "Total ticket count"
      },
      "totalWinnerTicketCount": {
        "details": "Total winner count to select"
      },
      "userByTicketId": {
        "details": "Ticket Id -> User"
      },
      "userDeposits": {
        "details": "User -> NFTL amount deposited"
      },
      "vrfCoordinator": {
        "details": "Chainlink VRF params"
      },
      "winners": {
        "details": "Winner list"
      }
    },
    "title": "NFTLRaffle",
    "version": 1
  },
  "userdoc": {
    "kind": "user",
    "methods": {
      "pause()": {
        "notice": "Pause the contract"
      },
      "unpause()": {
        "notice": "Unpause the contract"
      }
    },
    "version": 1
  },
  "storageLayout": {
    "storage": [
      {
        "astId": 329,
        "contract": "contracts/NFTLRaffle.sol:NFTLRaffle",
        "label": "_initialized",
        "offset": 0,
        "slot": "0",
        "type": "t_uint8"
      },
      {
        "astId": 332,
        "contract": "contracts/NFTLRaffle.sol:NFTLRaffle",
        "label": "_initializing",
        "offset": 1,
        "slot": "0",
        "type": "t_bool"
      },
      {
        "astId": 1519,
        "contract": "contracts/NFTLRaffle.sol:NFTLRaffle",
        "label": "__gap",
        "offset": 0,
        "slot": "1",
        "type": "t_array(t_uint256)50_storage"
      },
      {
        "astId": 201,
        "contract": "contracts/NFTLRaffle.sol:NFTLRaffle",
        "label": "_owner",
        "offset": 0,
        "slot": "51",
        "type": "t_address"
      },
      {
        "astId": 321,
        "contract": "contracts/NFTLRaffle.sol:NFTLRaffle",
        "label": "__gap",
        "offset": 0,
        "slot": "52",
        "type": "t_array(t_uint256)49_storage"
      },
      {
        "astId": 512,
        "contract": "contracts/NFTLRaffle.sol:NFTLRaffle",
        "label": "_paused",
        "offset": 0,
        "slot": "101",
        "type": "t_bool"
      },
      {
        "astId": 617,
        "contract": "contracts/NFTLRaffle.sol:NFTLRaffle",
        "label": "__gap",
        "offset": 0,
        "slot": "102",
        "type": "t_array(t_uint256)49_storage"
      },
      {
        "astId": 1193,
        "contract": "contracts/NFTLRaffle.sol:NFTLRaffle",
        "label": "__gap",
        "offset": 0,
        "slot": "151",
        "type": "t_array(t_uint256)50_storage"
      },
      {
        "astId": 2202,
        "contract": "contracts/NFTLRaffle.sol:NFTLRaffle",
        "label": "vrfCoordinator",
        "offset": 0,
        "slot": "201",
        "type": "t_address"
      },
      {
        "astId": 2216,
        "contract": "contracts/NFTLRaffle.sol:NFTLRaffle",
        "label": "s_subscriptionId",
        "offset": 20,
        "slot": "201",
        "type": "t_uint64"
      },
      {
        "astId": 2220,
        "contract": "contracts/NFTLRaffle.sol:NFTLRaffle",
        "label": "prizeNFT",
        "offset": 0,
        "slot": "202",
        "type": "t_contract(IERC721Upgradeable)1147"
      },
      {
        "astId": 2224,
        "contract": "contracts/NFTLRaffle.sol:NFTLRaffle",
        "label": "prizeNFTokenIds",
        "offset": 0,
        "slot": "203",
        "type": "t_array(t_uint256)dyn_storage"
      },
      {
        "astId": 2228,
        "contract": "contracts/NFTLRaffle.sol:NFTLRaffle",
        "label": "nftl",
        "offset": 0,
        "slot": "204",
        "type": "t_contract(IERC20BurnableUpgradeable)2166"
      },
      {
        "astId": 2231,
        "contract": "contracts/NFTLRaffle.sol:NFTLRaffle",
        "label": "raffleStartAt",
        "offset": 0,
        "slot": "205",
        "type": "t_uint256"
      },
      {
        "astId": 2235,
        "contract": "contracts/NFTLRaffle.sol:NFTLRaffle",
        "label": "prizeNFTTokenIndex",
        "offset": 0,
        "slot": "206",
        "type": "t_mapping(t_uint256,t_uint256)"
      },
      {
        "astId": 2238,
        "contract": "contracts/NFTLRaffle.sol:NFTLRaffle",
        "label": "totalWinnerTicketCount",
        "offset": 0,
        "slot": "207",
        "type": "t_uint256"
      },
      {
        "astId": 2241,
        "contract": "contracts/NFTLRaffle.sol:NFTLRaffle",
        "label": "currentWinnerTicketCount",
        "offset": 0,
        "slot": "208",
        "type": "t_uint256"
      },
      {
        "astId": 2246,
        "contract": "contracts/NFTLRaffle.sol:NFTLRaffle",
        "label": "winners",
        "offset": 0,
        "slot": "209",
        "type": "t_array(t_struct(WinnerInfo)2194_storage)dyn_storage"
      },
      {
        "astId": 2249,
        "contract": "contracts/NFTLRaffle.sol:NFTLRaffle",
        "label": "totalTicketCount",
        "offset": 0,
        "slot": "210",
        "type": "t_uint256"
      },
      {
        "astId": 2261,
        "contract": "contracts/NFTLRaffle.sol:NFTLRaffle",
        "label": "_userList",
        "offset": 0,
        "slot": "211",
        "type": "t_struct(AddressSet)1858_storage"
      },
      {
        "astId": 2265,
        "contract": "contracts/NFTLRaffle.sol:NFTLRaffle",
        "label": "_ticketIdList",
        "offset": 0,
        "slot": "213",
        "type": "t_struct(UintSet)2015_storage"
      },
      {
        "astId": 2270,
        "contract": "contracts/NFTLRaffle.sol:NFTLRaffle",
        "label": "userDeposits",
        "offset": 0,
        "slot": "215",
        "type": "t_mapping(t_address,t_uint256)"
      },
      {
        "astId": 2276,
        "contract": "contracts/NFTLRaffle.sol:NFTLRaffle",
        "label": "_ticketIdsByUser",
        "offset": 0,
        "slot": "216",
        "type": "t_mapping(t_address,t_struct(UintSet)2015_storage)"
      },
      {
        "astId": 2281,
        "contract": "contracts/NFTLRaffle.sol:NFTLRaffle",
        "label": "userByTicketId",
        "offset": 0,
        "slot": "217",
        "type": "t_mapping(t_uint256,t_address)"
      },
      {
        "astId": 2285,
        "contract": "contracts/NFTLRaffle.sol:NFTLRaffle",
        "label": "ticketIdList",
        "offset": 0,
        "slot": "218",
        "type": "t_array(t_uint256)dyn_storage"
      },
      {
        "astId": 2290,
        "contract": "contracts/NFTLRaffle.sol:NFTLRaffle",
        "label": "ticketCountByUser",
        "offset": 0,
        "slot": "219",
        "type": "t_mapping(t_address,t_uint256)"
      },
      {
        "astId": 2293,
        "contract": "contracts/NFTLRaffle.sol:NFTLRaffle",
        "label": "isUserDepositAllowed",
        "offset": 0,
        "slot": "220",
        "type": "t_bool"
      },
      {
        "astId": 2296,
        "contract": "contracts/NFTLRaffle.sol:NFTLRaffle",
        "label": "isTicketAssignedToUsers",
        "offset": 1,
        "slot": "220",
        "type": "t_bool"
      },
      {
        "astId": 2302,
        "contract": "contracts/NFTLRaffle.sol:NFTLRaffle",
        "label": "ticketRangeByUser",
        "offset": 0,
        "slot": "221",
        "type": "t_mapping(t_address,t_struct(TicketRange)2199_storage)"
      },
      {
        "astId": 2307,
        "contract": "contracts/NFTLRaffle.sol:NFTLRaffle",
        "label": "isWinnerTicketId",
        "offset": 0,
        "slot": "222",
        "type": "t_mapping(t_uint256,t_bool)"
      },
      {
        "astId": 2311,
        "contract": "contracts/NFTLRaffle.sol:NFTLRaffle",
        "label": "randomWordList",
        "offset": 0,
        "slot": "223",
        "type": "t_array(t_uint256)dyn_storage"
      }
    ],
    "types": {
      "t_address": {
        "encoding": "inplace",
        "label": "address",
        "numberOfBytes": "20"
      },
      "t_array(t_bytes32)dyn_storage": {
        "base": "t_bytes32",
        "encoding": "dynamic_array",
        "label": "bytes32[]",
        "numberOfBytes": "32"
      },
      "t_array(t_struct(WinnerInfo)2194_storage)dyn_storage": {
        "base": "t_struct(WinnerInfo)2194_storage",
        "encoding": "dynamic_array",
        "label": "struct NFTLRaffle.WinnerInfo[]",
        "numberOfBytes": "32"
      },
      "t_array(t_uint256)49_storage": {
        "base": "t_uint256",
        "encoding": "inplace",
        "label": "uint256[49]",
        "numberOfBytes": "1568"
      },
      "t_array(t_uint256)50_storage": {
        "base": "t_uint256",
        "encoding": "inplace",
        "label": "uint256[50]",
        "numberOfBytes": "1600"
      },
      "t_array(t_uint256)dyn_storage": {
        "base": "t_uint256",
        "encoding": "dynamic_array",
        "label": "uint256[]",
        "numberOfBytes": "32"
      },
      "t_bool": {
        "encoding": "inplace",
        "label": "bool",
        "numberOfBytes": "1"
      },
      "t_bytes32": {
        "encoding": "inplace",
        "label": "bytes32",
        "numberOfBytes": "32"
      },
      "t_contract(IERC20BurnableUpgradeable)2166": {
        "encoding": "inplace",
        "label": "contract IERC20BurnableUpgradeable",
        "numberOfBytes": "20"
      },
      "t_contract(IERC721Upgradeable)1147": {
        "encoding": "inplace",
        "label": "contract IERC721Upgradeable",
        "numberOfBytes": "20"
      },
      "t_mapping(t_address,t_struct(TicketRange)2199_storage)": {
        "encoding": "mapping",
        "key": "t_address",
        "label": "mapping(address => struct NFTLRaffle.TicketRange)",
        "numberOfBytes": "32",
        "value": "t_struct(TicketRange)2199_storage"
      },
      "t_mapping(t_address,t_struct(UintSet)2015_storage)": {
        "encoding": "mapping",
        "key": "t_address",
        "label": "mapping(address => struct EnumerableSetUpgradeable.UintSet)",
        "numberOfBytes": "32",
        "value": "t_struct(UintSet)2015_storage"
      },
      "t_mapping(t_address,t_uint256)": {
        "encoding": "mapping",
        "key": "t_address",
        "label": "mapping(address => uint256)",
        "numberOfBytes": "32",
        "value": "t_uint256"
      },
      "t_mapping(t_bytes32,t_uint256)": {
        "encoding": "mapping",
        "key": "t_bytes32",
        "label": "mapping(bytes32 => uint256)",
        "numberOfBytes": "32",
        "value": "t_uint256"
      },
      "t_mapping(t_uint256,t_address)": {
        "encoding": "mapping",
        "key": "t_uint256",
        "label": "mapping(uint256 => address)",
        "numberOfBytes": "32",
        "value": "t_address"
      },
      "t_mapping(t_uint256,t_bool)": {
        "encoding": "mapping",
        "key": "t_uint256",
        "label": "mapping(uint256 => bool)",
        "numberOfBytes": "32",
        "value": "t_bool"
      },
      "t_mapping(t_uint256,t_uint256)": {
        "encoding": "mapping",
        "key": "t_uint256",
        "label": "mapping(uint256 => uint256)",
        "numberOfBytes": "32",
        "value": "t_uint256"
      },
      "t_struct(AddressSet)1858_storage": {
        "encoding": "inplace",
        "label": "struct EnumerableSetUpgradeable.AddressSet",
        "members": [
          {
            "astId": 1857,
            "contract": "contracts/NFTLRaffle.sol:NFTLRaffle",
            "label": "_inner",
            "offset": 0,
            "slot": "0",
            "type": "t_struct(Set)1543_storage"
          }
        ],
        "numberOfBytes": "64"
      },
      "t_struct(Set)1543_storage": {
        "encoding": "inplace",
        "label": "struct EnumerableSetUpgradeable.Set",
        "members": [
          {
            "astId": 1538,
            "contract": "contracts/NFTLRaffle.sol:NFTLRaffle",
            "label": "_values",
            "offset": 0,
            "slot": "0",
            "type": "t_array(t_bytes32)dyn_storage"
          },
          {
            "astId": 1542,
            "contract": "contracts/NFTLRaffle.sol:NFTLRaffle",
            "label": "_indexes",
            "offset": 0,
            "slot": "1",
            "type": "t_mapping(t_bytes32,t_uint256)"
          }
        ],
        "numberOfBytes": "64"
      },
      "t_struct(TicketRange)2199_storage": {
        "encoding": "inplace",
        "label": "struct NFTLRaffle.TicketRange",
        "members": [
          {
            "astId": 2196,
            "contract": "contracts/NFTLRaffle.sol:NFTLRaffle",
            "label": "startTicketId",
            "offset": 0,
            "slot": "0",
            "type": "t_uint256"
          },
          {
            "astId": 2198,
            "contract": "contracts/NFTLRaffle.sol:NFTLRaffle",
            "label": "endTicketId",
            "offset": 0,
            "slot": "1",
            "type": "t_uint256"
          }
        ],
        "numberOfBytes": "64"
      },
      "t_struct(UintSet)2015_storage": {
        "encoding": "inplace",
        "label": "struct EnumerableSetUpgradeable.UintSet",
        "members": [
          {
            "astId": 2014,
            "contract": "contracts/NFTLRaffle.sol:NFTLRaffle",
            "label": "_inner",
            "offset": 0,
            "slot": "0",
            "type": "t_struct(Set)1543_storage"
          }
        ],
        "numberOfBytes": "64"
      },
      "t_struct(WinnerInfo)2194_storage": {
        "encoding": "inplace",
        "label": "struct NFTLRaffle.WinnerInfo",
        "members": [
          {
            "astId": 2189,
            "contract": "contracts/NFTLRaffle.sol:NFTLRaffle",
            "label": "ticketId",
            "offset": 0,
            "slot": "0",
            "type": "t_uint256"
          },
          {
            "astId": 2191,
            "contract": "contracts/NFTLRaffle.sol:NFTLRaffle",
            "label": "winner",
            "offset": 0,
            "slot": "1",
            "type": "t_address"
          },
          {
            "astId": 2193,
            "contract": "contracts/NFTLRaffle.sol:NFTLRaffle",
            "label": "prizeTokenId",
            "offset": 0,
            "slot": "2",
            "type": "t_uint256"
          }
        ],
        "numberOfBytes": "96"
      },
      "t_uint256": {
        "encoding": "inplace",
        "label": "uint256",
        "numberOfBytes": "32"
      },
      "t_uint64": {
        "encoding": "inplace",
        "label": "uint64",
        "numberOfBytes": "8"
      },
      "t_uint8": {
        "encoding": "inplace",
        "label": "uint8",
        "numberOfBytes": "1"
      }
    }
  }
}