{
  "address": "0x677c1291f01DA024B0e4E665FCF3BBcC8cF3EFd0",
  "abi": [
    {
      "anonymous": false,
      "inputs": [
        {
          "indexed": true,
          "internalType": "address",
          "name": "owner",
          "type": "address"
        },
        {
          "indexed": true,
          "internalType": "address",
          "name": "approved",
          "type": "address"
        },
        {
          "indexed": true,
          "internalType": "uint256",
          "name": "tokenId",
          "type": "uint256"
        }
      ],
      "name": "Approval",
      "type": "event"
    },
    {
      "anonymous": false,
      "inputs": [
        {
          "indexed": true,
          "internalType": "address",
          "name": "owner",
          "type": "address"
        },
        {
          "indexed": true,
          "internalType": "address",
          "name": "operator",
          "type": "address"
        },
        {
          "indexed": false,
          "internalType": "bool",
          "name": "approved",
          "type": "bool"
        }
      ],
      "name": "ApprovalForAll",
      "type": "event"
    },
    {
      "anonymous": false,
      "inputs": [
        {
          "indexed": false,
          "internalType": "address",
          "name": "to",
          "type": "address"
        },
        {
          "indexed": false,
          "internalType": "uint256",
          "name": "id",
          "type": "uint256"
        },
        {
          "indexed": false,
          "internalType": "bytes",
          "name": "blueprint",
          "type": "bytes"
        }
      ],
      "name": "AssetMinted",
      "type": "event"
    },
    {
      "anonymous": false,
      "inputs": [
        {
          "indexed": true,
          "internalType": "address",
          "name": "previousOwner",
          "type": "address"
        },
        {
          "indexed": true,
          "internalType": "address",
          "name": "newOwner",
          "type": "address"
        }
      ],
      "name": "OwnershipTransferred",
      "type": "event"
    },
    {
      "anonymous": false,
      "inputs": [
        {
          "indexed": false,
          "internalType": "address",
          "name": "account",
          "type": "address"
        }
      ],
      "name": "Paused",
      "type": "event"
    },
    {
      "anonymous": false,
      "inputs": [
        {
          "indexed": true,
          "internalType": "address",
          "name": "from",
          "type": "address"
        },
        {
          "indexed": true,
          "internalType": "address",
          "name": "to",
          "type": "address"
        },
        {
          "indexed": true,
          "internalType": "uint256",
          "name": "tokenId",
          "type": "uint256"
        }
      ],
      "name": "Transfer",
      "type": "event"
    },
    {
      "anonymous": false,
      "inputs": [
        {
          "indexed": false,
          "internalType": "address",
          "name": "account",
          "type": "address"
        }
      ],
      "name": "Unpaused",
      "type": "event"
    },
    {
      "inputs": [
        {
          "internalType": "address",
          "name": "to",
          "type": "address"
        },
        {
          "internalType": "uint256",
          "name": "tokenId",
          "type": "uint256"
        }
      ],
      "name": "approve",
      "outputs": [],
      "stateMutability": "nonpayable",
      "type": "function"
    },
    {
      "inputs": [
        {
          "internalType": "address",
          "name": "owner",
          "type": "address"
        }
      ],
      "name": "balanceOf",
      "outputs": [
        {
          "internalType": "uint256",
          "name": "",
          "type": "uint256"
        }
      ],
      "stateMutability": "view",
      "type": "function"
    },
    {
      "inputs": [
        {
          "internalType": "uint256",
          "name": "_tokenId",
          "type": "uint256"
        }
      ],
      "name": "burn",
      "outputs": [],
      "stateMutability": "nonpayable",
      "type": "function"
    },
    {
      "inputs": [
        {
          "internalType": "uint256",
          "name": "tokenId",
          "type": "uint256"
        }
      ],
      "name": "getApproved",
      "outputs": [
        {
          "internalType": "address",
          "name": "",
          "type": "address"
        }
      ],
      "stateMutability": "view",
      "type": "function"
    },
    {
      "inputs": [],
      "name": "imx",
      "outputs": [
        {
          "internalType": "address",
          "name": "",
          "type": "address"
        }
      ],
      "stateMutability": "view",
      "type": "function"
    },
    {
      "inputs": [
        {
          "internalType": "address",
          "name": "_imx",
          "type": "address"
        }
      ],
      "name": "initialize",
      "outputs": [],
      "stateMutability": "nonpayable",
      "type": "function"
    },
    {
      "inputs": [
        {
          "internalType": "address",
          "name": "owner",
          "type": "address"
        },
        {
          "internalType": "address",
          "name": "operator",
          "type": "address"
        }
      ],
      "name": "isApprovedForAll",
      "outputs": [
        {
          "internalType": "bool",
          "name": "",
          "type": "bool"
        }
      ],
      "stateMutability": "view",
      "type": "function"
    },
    {
      "inputs": [
        {
          "internalType": "uint256",
          "name": "",
          "type": "uint256"
        }
      ],
      "name": "itemIdByTokenId",
      "outputs": [
        {
          "internalType": "uint256",
          "name": "",
          "type": "uint256"
        }
      ],
      "stateMutability": "view",
      "type": "function"
    },
    {
      "inputs": [
        {
          "internalType": "address",
          "name": "_to",
          "type": "address"
        },
        {
          "internalType": "uint256",
          "name": "_quantity",
          "type": "uint256"
        },
        {
          "internalType": "bytes",
          "name": "_mintingBlob",
          "type": "bytes"
        }
      ],
      "name": "mintFor",
      "outputs": [],
      "stateMutability": "nonpayable",
      "type": "function"
    },
    {
      "inputs": [],
      "name": "name",
      "outputs": [
        {
          "internalType": "string",
          "name": "",
          "type": "string"
        }
      ],
      "stateMutability": "view",
      "type": "function"
    },
    {
      "inputs": [],
      "name": "owner",
      "outputs": [
        {
          "internalType": "address",
          "name": "",
          "type": "address"
        }
      ],
      "stateMutability": "view",
      "type": "function"
    },
    {
      "inputs": [
        {
          "internalType": "uint256",
          "name": "tokenId",
          "type": "uint256"
        }
      ],
      "name": "ownerOf",
      "outputs": [
        {
          "internalType": "address",
          "name": "",
          "type": "address"
        }
      ],
      "stateMutability": "view",
      "type": "function"
    },
    {
      "inputs": [],
      "name": "pause",
      "outputs": [],
      "stateMutability": "nonpayable",
      "type": "function"
    },
    {
      "inputs": [],
      "name": "paused",
      "outputs": [
        {
          "internalType": "bool",
          "name": "",
          "type": "bool"
        }
      ],
      "stateMutability": "view",
      "type": "function"
    },
    {
      "inputs": [],
      "name": "renounceOwnership",
      "outputs": [],
      "stateMutability": "nonpayable",
      "type": "function"
    },
    {
      "inputs": [
        {
          "internalType": "address",
          "name": "from",
          "type": "address"
        },
        {
          "internalType": "address",
          "name": "to",
          "type": "address"
        },
        {
          "internalType": "uint256",
          "name": "tokenId",
          "type": "uint256"
        }
      ],
      "name": "safeTransferFrom",
      "outputs": [],
      "stateMutability": "nonpayable",
      "type": "function"
    },
    {
      "inputs": [
        {
          "internalType": "address",
          "name": "from",
          "type": "address"
        },
        {
          "internalType": "address",
          "name": "to",
          "type": "address"
        },
        {
          "internalType": "uint256",
          "name": "tokenId",
          "type": "uint256"
        },
        {
          "internalType": "bytes",
          "name": "_data",
          "type": "bytes"
        }
      ],
      "name": "safeTransferFrom",
      "outputs": [],
      "stateMutability": "nonpayable",
      "type": "function"
    },
    {
      "inputs": [
        {
          "internalType": "address",
          "name": "operator",
          "type": "address"
        },
        {
          "internalType": "bool",
          "name": "approved",
          "type": "bool"
        }
      ],
      "name": "setApprovalForAll",
      "outputs": [],
      "stateMutability": "nonpayable",
      "type": "function"
    },
    {
      "inputs": [
        {
          "internalType": "string",
          "name": "_uri",
          "type": "string"
        }
      ],
      "name": "setURI",
      "outputs": [],
      "stateMutability": "nonpayable",
      "type": "function"
    },
    {
      "inputs": [
        {
          "internalType": "bytes4",
          "name": "interfaceId",
          "type": "bytes4"
        }
      ],
      "name": "supportsInterface",
      "outputs": [
        {
          "internalType": "bool",
          "name": "",
          "type": "bool"
        }
      ],
      "stateMutability": "view",
      "type": "function"
    },
    {
      "inputs": [],
      "name": "symbol",
      "outputs": [
        {
          "internalType": "string",
          "name": "",
          "type": "string"
        }
      ],
      "stateMutability": "view",
      "type": "function"
    },
    {
      "inputs": [
        {
          "internalType": "uint256",
          "name": "index",
          "type": "uint256"
        }
      ],
      "name": "tokenByIndex",
      "outputs": [
        {
          "internalType": "uint256",
          "name": "",
          "type": "uint256"
        }
      ],
      "stateMutability": "view",
      "type": "function"
    },
    {
      "inputs": [
        {
          "internalType": "address",
          "name": "owner",
          "type": "address"
        },
        {
          "internalType": "uint256",
          "name": "index",
          "type": "uint256"
        }
      ],
      "name": "tokenOfOwnerByIndex",
      "outputs": [
        {
          "internalType": "uint256",
          "name": "",
          "type": "uint256"
        }
      ],
      "stateMutability": "view",
      "type": "function"
    },
    {
      "inputs": [
        {
          "internalType": "uint256",
          "name": "tokenId",
          "type": "uint256"
        }
      ],
      "name": "tokenURI",
      "outputs": [
        {
          "internalType": "string",
          "name": "",
          "type": "string"
        }
      ],
      "stateMutability": "view",
      "type": "function"
    },
    {
      "inputs": [],
      "name": "totalSupply",
      "outputs": [
        {
          "internalType": "uint256",
          "name": "",
          "type": "uint256"
        }
      ],
      "stateMutability": "view",
      "type": "function"
    },
    {
      "inputs": [
        {
          "internalType": "address",
          "name": "from",
          "type": "address"
        },
        {
          "internalType": "address",
          "name": "to",
          "type": "address"
        },
        {
          "internalType": "uint256",
          "name": "tokenId",
          "type": "uint256"
        }
      ],
      "name": "transferFrom",
      "outputs": [],
      "stateMutability": "nonpayable",
      "type": "function"
    },
    {
      "inputs": [
        {
          "internalType": "address",
          "name": "newOwner",
          "type": "address"
        }
      ],
      "name": "transferOwnership",
      "outputs": [],
      "stateMutability": "nonpayable",
      "type": "function"
    },
    {
      "inputs": [],
      "name": "unpause",
      "outputs": [],
      "stateMutability": "nonpayable",
      "type": "function"
    },
    {
      "inputs": [],
      "name": "uri",
      "outputs": [
        {
          "internalType": "string",
          "name": "",
          "type": "string"
        }
      ],
      "stateMutability": "view",
      "type": "function"
    }
  ],
  "transactionHash": "0xedfb1162024908940790fb2becf4056b3a46f68d921dc71ceba8ea83bcb9aef0",
  "args": [],
  "numDeployments": 1,
  "solcInputHash": "7e079033f86cc1135070cfee59c3e796",
  "bytecode": "0x608060405234801561001057600080fd5b50612e46806100206000396000f3fe608060405234801561001057600080fd5b50600436106101cf5760003560e01c80635c975abb1161010457806395d89b41116100a2578063c87b56dd11610071578063c87b56dd146103b8578063e985e9c5146103cb578063eac989f814610407578063f2fde38b1461040f57600080fd5b806395d89b4114610377578063a22cb4651461037f578063b88d4fde14610392578063c4d66de8146103a557600080fd5b8063715018a6116100de578063715018a6146103355780638456cb591461033d5780638a0bdb30146103455780638da5cb5b1461036657600080fd5b80635c975abb146103045780636352211e1461030f57806370a082311461032257600080fd5b806319ee6e3f116101715780633f4ba83a1161014b5780633f4ba83a146102c357806342842e0e146102cb57806342966c68146102de5780634f6ccce7146102f157600080fd5b806319ee6e3f1461028a57806323b872dd1461029d5780632f745c59146102b057600080fd5b8063081812fc116101ad578063081812fc14610226578063095ea7b3146102515780630f08025f1461026457806318160ddd1461027857600080fd5b806301ffc9a7146101d457806302fe5305146101fc57806306fdde0314610211575b600080fd5b6101e76101e2366004612876565b610422565b60405190151581526020015b60405180910390f35b61020f61020a3660046128d5565b61044d565b005b6102196104be565b6040516101f3919061296f565b610239610234366004612982565b610550565b6040516001600160a01b0390911681526020016101f3565b61020f61025f3660046129b7565b6105e5565b61012e54610239906001600160a01b031681565b6099545b6040519081526020016101f3565b61020f6102983660046129e1565b6106f6565b61020f6102ab366004612a3b565b610881565b61027c6102be3660046129b7565b610908565b61020f6109b0565b61020f6102d9366004612a3b565b610a14565b61020f6102ec366004612982565b610a2f565b61027c6102ff366004612982565b610a81565b60fb5460ff166101e7565b61023961031d366004612982565b610b25565b61027c610330366004612a77565b610bb0565b61020f610c4a565b61020f610cae565b61027c610353366004612982565b61012f6020526000908152604090205481565b60c9546001600160a01b0316610239565b610219610d10565b61020f61038d366004612a92565b610d1f565b61020f6103a0366004612ae4565b610de4565b61020f6103b3366004612a77565b610e72565b6102196103c6366004612982565b610fa2565b6101e76103d9366004612bc0565b6001600160a01b039182166000908152606a6020908152604080832093909416825291909152205460ff1690565b61021961108b565b61020f61041d366004612a77565b61111a565b60006001600160e01b0319821663780e9d6360e01b14806104475750610447826111f9565b92915050565b60c9546001600160a01b031633146104ac5760405162461bcd60e51b815260206004820181905260248201527f4f776e61626c653a2063616c6c6572206973206e6f7420746865206f776e657260448201526064015b60405180910390fd5b6104b961012d8383612753565b505050565b6060606580546104cd90612bf3565b80601f01602080910402602001604051908101604052809291908181526020018280546104f990612bf3565b80156105465780601f1061051b57610100808354040283529160200191610546565b820191906000526020600020905b81548152906001019060200180831161052957829003601f168201915b5050505050905090565b6000818152606760205260408120546001600160a01b03166105c95760405162461bcd60e51b815260206004820152602c60248201527f4552433732313a20617070726f76656420717565727920666f72206e6f6e657860448201526b34b9ba32b73a103a37b5b2b760a11b60648201526084016104a3565b506000908152606960205260409020546001600160a01b031690565b60006105f082610b25565b9050806001600160a01b0316836001600160a01b0316141561065e5760405162461bcd60e51b815260206004820152602160248201527f4552433732313a20617070726f76616c20746f2063757272656e74206f776e656044820152603960f91b60648201526084016104a3565b336001600160a01b038216148061067a575061067a81336103d9565b6106ec5760405162461bcd60e51b815260206004820152603860248201527f4552433732313a20617070726f76652063616c6c6572206973206e6f74206f7760448201527f6e6572206e6f7220617070726f76656420666f7220616c6c000000000000000060648201526084016104a3565b6104b98383611249565b61012e546001600160a01b031633148061071a575060c9546001600160a01b031633145b61078c5760405162461bcd60e51b815260206004820152602b60248201527f46756e6374696f6e2063616e206f6e6c792062652063616c6c6564206279206f60448201527f776e6572206f7220494d5800000000000000000000000000000000000000000060648201526084016104a3565b60fb5460ff16156107d25760405162461bcd60e51b815260206004820152601060248201526f14185d5cd8589b194e881c185d5cd95960821b60448201526064016104a3565b826001146108225760405162461bcd60e51b815260206004820152601060248201527f416d6f756e74206d75737420626520310000000000000000000000000000000060448201526064016104a3565b60008061082f84846112b7565b9150915061083e86838361147b565b7f31e594f6b36b98ec520a91cbbba7b8724b1cec27393f86d8f0f6aa6084db0aaf86838360405161087193929190612c2e565b60405180910390a1505050505050565b61088b33826114a4565b6108fd5760405162461bcd60e51b815260206004820152603160248201527f4552433732313a207472616e736665722063616c6c6572206973206e6f74206f60448201527f776e6572206e6f7220617070726f76656400000000000000000000000000000060648201526084016104a3565b6104b983838361159b565b600061091383610bb0565b82106109875760405162461bcd60e51b815260206004820152602b60248201527f455243373231456e756d657261626c653a206f776e657220696e646578206f7560448201527f74206f6620626f756e647300000000000000000000000000000000000000000060648201526084016104a3565b506001600160a01b03919091166000908152609760209081526040808320938352929052205490565b60c9546001600160a01b03163314610a0a5760405162461bcd60e51b815260206004820181905260248201527f4f776e61626c653a2063616c6c6572206973206e6f7420746865206f776e657260448201526064016104a3565b610a1261175a565b565b6104b983838360405180602001604052806000815250610de4565b60fb5460ff1615610a755760405162461bcd60e51b815260206004820152601060248201526f14185d5cd8589b194e881c185d5cd95960821b60448201526064016104a3565b610a7e816117f6565b50565b6000610a8c60995490565b8210610b005760405162461bcd60e51b815260206004820152602c60248201527f455243373231456e756d657261626c653a20676c6f62616c20696e646578206f60448201527f7574206f6620626f756e6473000000000000000000000000000000000000000060648201526084016104a3565b60998281548110610b1357610b13612c5f565b90600052602060002001549050919050565b6000818152606760205260408120546001600160a01b0316806104475760405162461bcd60e51b815260206004820152602960248201527f4552433732313a206f776e657220717565727920666f72206e6f6e657869737460448201527f656e7420746f6b656e000000000000000000000000000000000000000000000060648201526084016104a3565b60006001600160a01b038216610c2e5760405162461bcd60e51b815260206004820152602a60248201527f4552433732313a2062616c616e636520717565727920666f7220746865207a6560448201527f726f20616464726573730000000000000000000000000000000000000000000060648201526084016104a3565b506001600160a01b031660009081526068602052604090205490565b60c9546001600160a01b03163314610ca45760405162461bcd60e51b815260206004820181905260248201527f4f776e61626c653a2063616c6c6572206973206e6f7420746865206f776e657260448201526064016104a3565b610a12600061189d565b60c9546001600160a01b03163314610d085760405162461bcd60e51b815260206004820181905260248201527f4f776e61626c653a2063616c6c6572206973206e6f7420746865206f776e657260448201526064016104a3565b610a126118ef565b6060606680546104cd90612bf3565b6001600160a01b038216331415610d785760405162461bcd60e51b815260206004820152601960248201527f4552433732313a20617070726f766520746f2063616c6c65720000000000000060448201526064016104a3565b336000818152606a602090815260408083206001600160a01b03871680855290835292819020805460ff191686151590811790915590519081529192917f17307eab39ab6107e8899845ad3d59bd9653f200f220920489ca2b5937696c31910160405180910390a35050565b610dee33836114a4565b610e605760405162461bcd60e51b815260206004820152603160248201527f4552433732313a207472616e736665722063616c6c6572206973206e6f74206f60448201527f776e6572206e6f7220617070726f76656400000000000000000000000000000060648201526084016104a3565b610e6c8484848461196a565b50505050565b600054610100900460ff1680610e8b575060005460ff16155b610eee5760405162461bcd60e51b815260206004820152602e60248201527f496e697469616c697a61626c653a20636f6e747261637420697320616c72656160448201526d191e481a5b9a5d1a585b1a5e995960921b60648201526084016104a3565b600054610100900460ff16158015610f10576000805461ffff19166101011790555b610f606040518060400160405280600b81526020016a2734b33a3ca4ba32b6a61960a91b8152506040518060400160405280600b81526020016a2734b33a3ca4ba32b6a61960a91b8152506119e8565b610f68611ab6565b610f70611b78565b61012e80546001600160a01b0319166001600160a01b0384161790558015610f9e576000805461ff00191690555b5050565b6000818152606760205260409020546060906001600160a01b031661102f5760405162461bcd60e51b815260206004820152602f60248201527f4552433732314d657461646174613a2055524920717565727920666f72206e6f60448201527f6e6578697374656e7420746f6b656e000000000000000000000000000000000060648201526084016104a3565b6000611039611c26565b905060008151116110595760405180602001604052806000815250611084565b8061106384611c36565b604051602001611074929190612c75565b6040516020818303038152906040525b9392505050565b61012d805461109990612bf3565b80601f01602080910402602001604051908101604052809291908181526020018280546110c590612bf3565b80156111125780601f106110e757610100808354040283529160200191611112565b820191906000526020600020905b8154815290600101906020018083116110f557829003601f168201915b505050505081565b60c9546001600160a01b031633146111745760405162461bcd60e51b815260206004820181905260248201527f4f776e61626c653a2063616c6c6572206973206e6f7420746865206f776e657260448201526064016104a3565b6001600160a01b0381166111f05760405162461bcd60e51b815260206004820152602660248201527f4f776e61626c653a206e6577206f776e657220697320746865207a65726f206160448201527f646472657373000000000000000000000000000000000000000000000000000060648201526084016104a3565b610a7e8161189d565b60006001600160e01b031982166380ac58cd60e01b148061122a57506001600160e01b03198216635b5e139f60e01b145b8061044757506301ffc9a760e01b6001600160e01b0319831614610447565b600081815260696020526040902080546001600160a01b0319166001600160a01b038416908117909155819061127e82610b25565b6001600160a01b03167f8c5be1e5ebec7d5bd14f71427d1e84f3dd0314c0f7b2291e5b200ac8c7c3b92560405160405180910390a45050565b60006060600061131585858080601f01602080910402602001604051908101604052809392919081815260200183838082843760009201829052506040805180820190915260018152601d60f91b602082015293509150611d4c9050565b905060008112156113685760405162461bcd60e51b815260206004820152601460248201527f536570617261746f72206d75737420657869737400000000000000000000000060448201526064016104a3565b60006113c28660018761137b8287612cba565b9261138893929190612cd1565b8080601f016020809104026020016040519081016040528093929190818152602001838380828437600092019190915250611e1492505050565b9050600060036113d28488612cba565b6113dc9190612cba565b90508061140057816040518060200160405280600081525094509450505050611474565b3660008888611410876002612cfb565b9061141c60018c612cba565b9261142993929190612cd1565b9150915083828281818080601f016020809104026020016040519081016040528093929190818152602001838380828437600092019190915250959c50919a50505050505050505050505b9250929050565b600061148682611e14565b600084815261012f602052604090208190559050610e6c8484611eec565b6000818152606760205260408120546001600160a01b031661151d5760405162461bcd60e51b815260206004820152602c60248201527f4552433732313a206f70657261746f7220717565727920666f72206e6f6e657860448201526b34b9ba32b73a103a37b5b2b760a11b60648201526084016104a3565b600061152883610b25565b9050806001600160a01b0316846001600160a01b031614806115635750836001600160a01b031661155884610550565b6001600160a01b0316145b8061159357506001600160a01b038082166000908152606a602090815260408083209388168352929052205460ff165b949350505050565b826001600160a01b03166115ae82610b25565b6001600160a01b03161461162a5760405162461bcd60e51b815260206004820152602960248201527f4552433732313a207472616e73666572206f6620746f6b656e2074686174206960448201527f73206e6f74206f776e000000000000000000000000000000000000000000000060648201526084016104a3565b6001600160a01b03821661168c5760405162461bcd60e51b8152602060048201526024808201527f4552433732313a207472616e7366657220746f20746865207a65726f206164646044820152637265737360e01b60648201526084016104a3565b611697838383611f06565b6116a2600082611249565b6001600160a01b03831660009081526068602052604081208054600192906116cb908490612cba565b90915550506001600160a01b03821660009081526068602052604081208054600192906116f9908490612cfb565b909155505060008181526067602052604080822080546001600160a01b0319166001600160a01b0386811691821790925591518493918716917fddf252ad1be2c89b69c2b068fc378daa952ba7f163c4a11628f55a4df523b3ef91a4505050565b60fb5460ff166117ac5760405162461bcd60e51b815260206004820152601460248201527f5061757361626c653a206e6f742070617573656400000000000000000000000060448201526064016104a3565b60fb805460ff191690557f5db9ee0a495bf2e6ff9c91a7834c1ba4fdd244a5e8aa4e537bd38aeae4b073aa335b6040516001600160a01b03909116815260200160405180910390a1565b600061180182610b25565b905061180f81600084611f06565b61181a600083611249565b6001600160a01b0381166000908152606860205260408120805460019290611843908490612cba565b909155505060008281526067602052604080822080546001600160a01b0319169055518391906001600160a01b038416907fddf252ad1be2c89b69c2b068fc378daa952ba7f163c4a11628f55a4df523b3ef908390a45050565b60c980546001600160a01b038381166001600160a01b0319831681179093556040519116919082907f8be0079c531659141344cd1fd0a4f28419497f9722a3daafe3b4186f6b6457e090600090a35050565b60fb5460ff16156119355760405162461bcd60e51b815260206004820152601060248201526f14185d5cd8589b194e881c185d5cd95960821b60448201526064016104a3565b60fb805460ff191660011790557f62e78cea01bee320cd4e420270b5ea74000d11b0c9f74754ebdbfc544b05a2586117d93390565b61197584848461159b565b61198184848484611fbe565b610e6c5760405162461bcd60e51b815260206004820152603260248201527f4552433732313a207472616e7366657220746f206e6f6e20455243373231526560448201527131b2b4bb32b91034b6b83632b6b2b73a32b960711b60648201526084016104a3565b600054610100900460ff1680611a01575060005460ff16155b611a645760405162461bcd60e51b815260206004820152602e60248201527f496e697469616c697a61626c653a20636f6e747261637420697320616c72656160448201526d191e481a5b9a5d1a585b1a5e995960921b60648201526084016104a3565b600054610100900460ff16158015611a86576000805461ffff19166101011790555b611a8e612107565b611a96612107565b611aa083836121b8565b80156104b9576000805461ff0019169055505050565b600054610100900460ff1680611acf575060005460ff16155b611b325760405162461bcd60e51b815260206004820152602e60248201527f496e697469616c697a61626c653a20636f6e747261637420697320616c72656160448201526d191e481a5b9a5d1a585b1a5e995960921b60648201526084016104a3565b600054610100900460ff16158015611b54576000805461ffff19166101011790555b611b5c612107565b611b64612294565b8015610a7e576000805461ff001916905550565b600054610100900460ff1680611b91575060005460ff16155b611bf45760405162461bcd60e51b815260206004820152602e60248201527f496e697469616c697a61626c653a20636f6e747261637420697320616c72656160448201526d191e481a5b9a5d1a585b1a5e995960921b60648201526084016104a3565b600054610100900460ff16158015611c16576000805461ffff19166101011790555b611c1e612107565b611b6461233b565b606061012d80546104cd90612bf3565b606081611c5a5750506040805180820190915260018152600360fc1b602082015290565b8160005b8115611c845780611c6e81612d13565b9150611c7d9050600a83612d44565b9150611c5e565b60008167ffffffffffffffff811115611c9f57611c9f612ace565b6040519080825280601f01601f191660200182016040528015611cc9576020820181803683370190505b5090505b841561159357611cde600183612cba565b9150611ceb600a86612d58565b611cf6906030612cfb565b60f81b818381518110611d0b57611d0b612c5f565b60200101907effffffffffffffffffffffffffffffffffffffffffffffffffffffffffffff1916908160001a905350611d45600a86612d44565b9450611ccd565b81516000908390600114611d6257611d62612d6c565b825b8551811015611e075781600081518110611d8057611d80612c5f565b602001015160f81c60f81b7effffffffffffffffffffffffffffffffffffffffffffffffffffffffffffff1916868281518110611dbf57611dbf612c5f565b01602001517fff00000000000000000000000000000000000000000000000000000000000000161415611df55791506110849050565b80611dff81612d13565b915050611d64565b5060001995945050505050565b600080805b8351811015611ee5576000848281518110611e3657611e36612c5f565b016020015160f81c905060308110801590611e52575060398111155b15611e7e57611e62603082612cba565b611e6d84600a612d82565b611e779190612cfb565b9250611ed2565b60405162461bcd60e51b815260206004820152602360248201527f696e76616c696420696e7075742c206f6e6c79206e756d6265727320616c6c6f6044820152621dd95960ea1b60648201526084016104a3565b5080611edd81612d13565b915050611e19565b5092915050565b610f9e8282604051806020016040528060008152506123f7565b6001600160a01b038316611f6157611f5c81609980546000838152609a60205260408120829055600182018355919091527f72a152ddfb8e864297c917af52ea6c1c68aead0fee1a62673fcc7e0c94979d000155565b611f84565b816001600160a01b0316836001600160a01b031614611f8457611f848382612475565b6001600160a01b038216611f9b576104b981612512565b826001600160a01b0316826001600160a01b0316146104b9576104b982826125c1565b60006001600160a01b0384163b156120fc57604051630a85bd0160e11b81526001600160a01b0385169063150b7a0290612002903390899088908890600401612da1565b6020604051808303816000875af192505050801561203d575060408051601f3d908101601f1916820190925261203a91810190612ddd565b60015b6120e2573d80801561206b576040519150601f19603f3d011682016040523d82523d6000602084013e612070565b606091505b5080516120da5760405162461bcd60e51b815260206004820152603260248201527f4552433732313a207472616e7366657220746f206e6f6e20455243373231526560448201527131b2b4bb32b91034b6b83632b6b2b73a32b960711b60648201526084016104a3565b805181602001fd5b6001600160e01b031916630a85bd0160e11b149050611593565b506001949350505050565b600054610100900460ff1680612120575060005460ff16155b6121835760405162461bcd60e51b815260206004820152602e60248201527f496e697469616c697a61626c653a20636f6e747261637420697320616c72656160448201526d191e481a5b9a5d1a585b1a5e995960921b60648201526084016104a3565b600054610100900460ff16158015611b64576000805461ffff19166101011790558015610a7e576000805461ff001916905550565b600054610100900460ff16806121d1575060005460ff16155b6122345760405162461bcd60e51b815260206004820152602e60248201527f496e697469616c697a61626c653a20636f6e747261637420697320616c72656160448201526d191e481a5b9a5d1a585b1a5e995960921b60648201526084016104a3565b600054610100900460ff16158015612256576000805461ffff19166101011790555b82516122699060659060208601906127d7565b50815161227d9060669060208501906127d7565b5080156104b9576000805461ff0019169055505050565b600054610100900460ff16806122ad575060005460ff16155b6123105760405162461bcd60e51b815260206004820152602e60248201527f496e697469616c697a61626c653a20636f6e747261637420697320616c72656160448201526d191e481a5b9a5d1a585b1a5e995960921b60648201526084016104a3565b600054610100900460ff16158015612332576000805461ffff19166101011790555b611b643361189d565b600054610100900460ff1680612354575060005460ff16155b6123b75760405162461bcd60e51b815260206004820152602e60248201527f496e697469616c697a61626c653a20636f6e747261637420697320616c72656160448201526d191e481a5b9a5d1a585b1a5e995960921b60648201526084016104a3565b600054610100900460ff161580156123d9576000805461ffff19166101011790555b60fb805460ff191690558015610a7e576000805461ff001916905550565b6124018383612605565b61240e6000848484611fbe565b6104b95760405162461bcd60e51b815260206004820152603260248201527f4552433732313a207472616e7366657220746f206e6f6e20455243373231526560448201527131b2b4bb32b91034b6b83632b6b2b73a32b960711b60648201526084016104a3565b6000600161248284610bb0565b61248c9190612cba565b6000838152609860205260409020549091508082146124df576001600160a01b03841660009081526097602090815260408083208584528252808320548484528184208190558352609890915290208190555b5060009182526098602090815260408084208490556001600160a01b039094168352609781528383209183525290812055565b60995460009061252490600190612cba565b6000838152609a60205260408120546099805493945090928490811061254c5761254c612c5f565b90600052602060002001549050806099838154811061256d5761256d612c5f565b6000918252602080832090910192909255828152609a909152604080822084905585825281205560998054806125a5576125a5612dfa565b6001900381819060005260206000200160009055905550505050565b60006125cc83610bb0565b6001600160a01b039093166000908152609760209081526040808320868452825280832085905593825260989052919091209190915550565b6001600160a01b03821661265b5760405162461bcd60e51b815260206004820181905260248201527f4552433732313a206d696e7420746f20746865207a65726f206164647265737360448201526064016104a3565b6000818152606760205260409020546001600160a01b0316156126c05760405162461bcd60e51b815260206004820152601c60248201527f4552433732313a20746f6b656e20616c7265616479206d696e7465640000000060448201526064016104a3565b6126cc60008383611f06565b6001600160a01b03821660009081526068602052604081208054600192906126f5908490612cfb565b909155505060008181526067602052604080822080546001600160a01b0319166001600160a01b03861690811790915590518392907fddf252ad1be2c89b69c2b068fc378daa952ba7f163c4a11628f55a4df523b3ef908290a45050565b82805461275f90612bf3565b90600052602060002090601f01602090048101928261278157600085556127c7565b82601f1061279a5782800160ff198235161785556127c7565b828001600101855582156127c7579182015b828111156127c75782358255916020019190600101906127ac565b506127d392915061284b565b5090565b8280546127e390612bf3565b90600052602060002090601f01602090048101928261280557600085556127c7565b82601f1061281e57805160ff19168380011785556127c7565b828001600101855582156127c7579182015b828111156127c7578251825591602001919060010190612830565b5b808211156127d3576000815560010161284c565b6001600160e01b031981168114610a7e57600080fd5b60006020828403121561288857600080fd5b813561108481612860565b60008083601f8401126128a557600080fd5b50813567ffffffffffffffff8111156128bd57600080fd5b60208301915083602082850101111561147457600080fd5b600080602083850312156128e857600080fd5b823567ffffffffffffffff8111156128ff57600080fd5b61290b85828601612893565b90969095509350505050565b60005b8381101561293257818101518382015260200161291a565b83811115610e6c5750506000910152565b6000815180845261295b816020860160208601612917565b601f01601f19169290920160200192915050565b6020815260006110846020830184612943565b60006020828403121561299457600080fd5b5035919050565b80356001600160a01b03811681146129b257600080fd5b919050565b600080604083850312156129ca57600080fd5b6129d38361299b565b946020939093013593505050565b600080600080606085870312156129f757600080fd5b612a008561299b565b935060208501359250604085013567ffffffffffffffff811115612a2357600080fd5b612a2f87828801612893565b95989497509550505050565b600080600060608486031215612a5057600080fd5b612a598461299b565b9250612a676020850161299b565b9150604084013590509250925092565b600060208284031215612a8957600080fd5b6110848261299b565b60008060408385031215612aa557600080fd5b612aae8361299b565b915060208301358015158114612ac357600080fd5b809150509250929050565b634e487b7160e01b600052604160045260246000fd5b60008060008060808587031215612afa57600080fd5b612b038561299b565b9350612b116020860161299b565b925060408501359150606085013567ffffffffffffffff80821115612b3557600080fd5b818701915087601f830112612b4957600080fd5b813581811115612b5b57612b5b612ace565b604051601f8201601f19908116603f01168101908382118183101715612b8357612b83612ace565b816040528281528a6020848701011115612b9c57600080fd5b82602086016020830137600060208483010152809550505050505092959194509250565b60008060408385031215612bd357600080fd5b612bdc8361299b565b9150612bea6020840161299b565b90509250929050565b600181811c90821680612c0757607f821691505b60208210811415612c2857634e487b7160e01b600052602260045260246000fd5b50919050565b6001600160a01b0384168152826020820152606060408201526000612c566060830184612943565b95945050505050565b634e487b7160e01b600052603260045260246000fd5b60008351612c87818460208801612917565b835190830190612c9b818360208801612917565b01949350505050565b634e487b7160e01b600052601160045260246000fd5b600082821015612ccc57612ccc612ca4565b500390565b60008085851115612ce157600080fd5b83861115612cee57600080fd5b5050820193919092039150565b60008219821115612d0e57612d0e612ca4565b500190565b6000600019821415612d2757612d27612ca4565b5060010190565b634e487b7160e01b600052601260045260246000fd5b600082612d5357612d53612d2e565b500490565b600082612d6757612d67612d2e565b500690565b634e487b7160e01b600052600160045260246000fd5b6000816000190483118215151615612d9c57612d9c612ca4565b500290565b60006001600160a01b03808716835280861660208401525083604083015260806060830152612dd36080830184612943565b9695505050505050565b600060208284031215612def57600080fd5b815161108481612860565b634e487b7160e01b600052603160045260246000fdfea264697066735822122081d494a80f06da354a63e91a924e59a8b5388e21e2022151a2be5c911af3aa8c64736f6c634300080b0033",
  "devdoc": {
    "details": "{ERC721} token, including:",
    "kind": "dev",
    "methods": {
      "approve(address,uint256)": {
        "details": "See {IERC721-approve}."
      },
      "balanceOf(address)": {
        "details": "See {IERC721-balanceOf}."
      },
      "getApproved(uint256)": {
        "details": "See {IERC721-getApproved}."
      },
      "isApprovedForAll(address,address)": {
        "details": "See {IERC721-isApprovedForAll}."
      },
      "name()": {
        "details": "See {IERC721Metadata-name}."
      },
      "owner()": {
        "details": "Returns the address of the current owner."
      },
      "ownerOf(uint256)": {
        "details": "See {IERC721-ownerOf}."
      },
      "paused()": {
        "details": "Returns true if the contract is paused, and false otherwise."
      },
      "renounceOwnership()": {
        "details": "Leaves the contract without owner. It will not be possible to call `onlyOwner` functions anymore. Can only be called by the current owner. NOTE: Renouncing ownership will leave the contract without an owner, thereby removing any functionality that is only available to the owner."
      },
      "safeTransferFrom(address,address,uint256)": {
        "details": "See {IERC721-safeTransferFrom}."
      },
      "safeTransferFrom(address,address,uint256,bytes)": {
        "details": "See {IERC721-safeTransferFrom}."
      },
      "setApprovalForAll(address,bool)": {
        "details": "See {IERC721-setApprovalForAll}."
      },
      "supportsInterface(bytes4)": {
        "details": "See {IERC165-supportsInterface}."
      },
      "symbol()": {
        "details": "See {IERC721Metadata-symbol}."
      },
      "tokenByIndex(uint256)": {
        "details": "See {IERC721Enumerable-tokenByIndex}."
      },
      "tokenOfOwnerByIndex(address,uint256)": {
        "details": "See {IERC721Enumerable-tokenOfOwnerByIndex}."
      },
      "tokenURI(uint256)": {
        "details": "See {IERC721Metadata-tokenURI}."
      },
      "totalSupply()": {
        "details": "See {IERC721Enumerable-totalSupply}."
      },
      "transferFrom(address,address,uint256)": {
        "details": "See {IERC721-transferFrom}."
      },
      "transferOwnership(address)": {
        "details": "Transfers ownership of the contract to a new account (`newOwner`). Can only be called by the current owner."
      }
    },
    "stateVariables": {
      "imx": {
        "details": "IMX address"
      },
      "itemIdByTokenId": {
        "details": "TokenID -> Item IDItemID1 - item 1, ItemID 2 - item 2, ,,,, ItemID 6 - item6, ItemID 7 - key"
      },
      "uri": {
        "details": "Token URI"
      }
    },
    "version": 1
  },
  "userdoc": {
    "kind": "user",
    "methods": {},
    "version": 1
  },
  "storageLayout": {
    "storage": [
      {
        "astId": 613,
        "contract": "contracts/NiftyItemL2.sol:NiftyItemL2",
        "label": "_initialized",
        "offset": 0,
        "slot": "0",
        "type": "t_bool"
      },
      {
        "astId": 616,
        "contract": "contracts/NiftyItemL2.sol:NiftyItemL2",
        "label": "_initializing",
        "offset": 1,
        "slot": "0",
        "type": "t_bool"
      },
      {
        "astId": 2516,
        "contract": "contracts/NiftyItemL2.sol:NiftyItemL2",
        "label": "__gap",
        "offset": 0,
        "slot": "1",
        "type": "t_array(t_uint256)50_storage"
      },
      {
        "astId": 2765,
        "contract": "contracts/NiftyItemL2.sol:NiftyItemL2",
        "label": "__gap",
        "offset": 0,
        "slot": "51",
        "type": "t_array(t_uint256)50_storage"
      },
      {
        "astId": 853,
        "contract": "contracts/NiftyItemL2.sol:NiftyItemL2",
        "label": "_name",
        "offset": 0,
        "slot": "101",
        "type": "t_string_storage"
      },
      {
        "astId": 855,
        "contract": "contracts/NiftyItemL2.sol:NiftyItemL2",
        "label": "_symbol",
        "offset": 0,
        "slot": "102",
        "type": "t_string_storage"
      },
      {
        "astId": 859,
        "contract": "contracts/NiftyItemL2.sol:NiftyItemL2",
        "label": "_owners",
        "offset": 0,
        "slot": "103",
        "type": "t_mapping(t_uint256,t_address)"
      },
      {
        "astId": 863,
        "contract": "contracts/NiftyItemL2.sol:NiftyItemL2",
        "label": "_balances",
        "offset": 0,
        "slot": "104",
        "type": "t_mapping(t_address,t_uint256)"
      },
      {
        "astId": 867,
        "contract": "contracts/NiftyItemL2.sol:NiftyItemL2",
        "label": "_tokenApprovals",
        "offset": 0,
        "slot": "105",
        "type": "t_mapping(t_uint256,t_address)"
      },
      {
        "astId": 873,
        "contract": "contracts/NiftyItemL2.sol:NiftyItemL2",
        "label": "_operatorApprovals",
        "offset": 0,
        "slot": "106",
        "type": "t_mapping(t_address,t_mapping(t_address,t_bool))"
      },
      {
        "astId": 1671,
        "contract": "contracts/NiftyItemL2.sol:NiftyItemL2",
        "label": "__gap",
        "offset": 0,
        "slot": "107",
        "type": "t_array(t_uint256)44_storage"
      },
      {
        "astId": 1845,
        "contract": "contracts/NiftyItemL2.sol:NiftyItemL2",
        "label": "_ownedTokens",
        "offset": 0,
        "slot": "151",
        "type": "t_mapping(t_address,t_mapping(t_uint256,t_uint256))"
      },
      {
        "astId": 1849,
        "contract": "contracts/NiftyItemL2.sol:NiftyItemL2",
        "label": "_ownedTokensIndex",
        "offset": 0,
        "slot": "152",
        "type": "t_mapping(t_uint256,t_uint256)"
      },
      {
        "astId": 1852,
        "contract": "contracts/NiftyItemL2.sol:NiftyItemL2",
        "label": "_allTokens",
        "offset": 0,
        "slot": "153",
        "type": "t_array(t_uint256)dyn_storage"
      },
      {
        "astId": 1856,
        "contract": "contracts/NiftyItemL2.sol:NiftyItemL2",
        "label": "_allTokensIndex",
        "offset": 0,
        "slot": "154",
        "type": "t_mapping(t_uint256,t_uint256)"
      },
      {
        "astId": 2171,
        "contract": "contracts/NiftyItemL2.sol:NiftyItemL2",
        "label": "__gap",
        "offset": 0,
        "slot": "155",
        "type": "t_array(t_uint256)46_storage"
      },
      {
        "astId": 493,
        "contract": "contracts/NiftyItemL2.sol:NiftyItemL2",
        "label": "_owner",
        "offset": 0,
        "slot": "201",
        "type": "t_address"
      },
      {
        "astId": 606,
        "contract": "contracts/NiftyItemL2.sol:NiftyItemL2",
        "label": "__gap",
        "offset": 0,
        "slot": "202",
        "type": "t_array(t_uint256)49_storage"
      },
      {
        "astId": 674,
        "contract": "contracts/NiftyItemL2.sol:NiftyItemL2",
        "label": "_paused",
        "offset": 0,
        "slot": "251",
        "type": "t_bool"
      },
      {
        "astId": 765,
        "contract": "contracts/NiftyItemL2.sol:NiftyItemL2",
        "label": "__gap",
        "offset": 0,
        "slot": "252",
        "type": "t_array(t_uint256)49_storage"
      },
      {
        "astId": 3314,
        "contract": "contracts/NiftyItemL2.sol:NiftyItemL2",
        "label": "uri",
        "offset": 0,
        "slot": "301",
        "type": "t_string_storage"
      },
      {
        "astId": 3317,
        "contract": "contracts/NiftyItemL2.sol:NiftyItemL2",
        "label": "imx",
        "offset": 0,
        "slot": "302",
        "type": "t_address"
      },
      {
        "astId": 3322,
        "contract": "contracts/NiftyItemL2.sol:NiftyItemL2",
        "label": "itemIdByTokenId",
        "offset": 0,
        "slot": "303",
        "type": "t_mapping(t_uint256,t_uint256)"
      }
    ],
    "types": {
      "t_address": {
        "encoding": "inplace",
        "label": "address",
        "numberOfBytes": "20"
      },
      "t_array(t_uint256)44_storage": {
        "base": "t_uint256",
        "encoding": "inplace",
        "label": "uint256[44]",
        "numberOfBytes": "1408"
      },
      "t_array(t_uint256)46_storage": {
        "base": "t_uint256",
        "encoding": "inplace",
        "label": "uint256[46]",
        "numberOfBytes": "1472"
      },
      "t_array(t_uint256)49_storage": {
        "base": "t_uint256",
        "encoding": "inplace",
        "label": "uint256[49]",
        "numberOfBytes": "1568"
      },
      "t_array(t_uint256)50_storage": {
        "base": "t_uint256",
        "encoding": "inplace",
        "label": "uint256[50]",
        "numberOfBytes": "1600"
      },
      "t_array(t_uint256)dyn_storage": {
        "base": "t_uint256",
        "encoding": "dynamic_array",
        "label": "uint256[]",
        "numberOfBytes": "32"
      },
      "t_bool": {
        "encoding": "inplace",
        "label": "bool",
        "numberOfBytes": "1"
      },
      "t_mapping(t_address,t_bool)": {
        "encoding": "mapping",
        "key": "t_address",
        "label": "mapping(address => bool)",
        "numberOfBytes": "32",
        "value": "t_bool"
      },
      "t_mapping(t_address,t_mapping(t_address,t_bool))": {
        "encoding": "mapping",
        "key": "t_address",
        "label": "mapping(address => mapping(address => bool))",
        "numberOfBytes": "32",
        "value": "t_mapping(t_address,t_bool)"
      },
      "t_mapping(t_address,t_mapping(t_uint256,t_uint256))": {
        "encoding": "mapping",
        "key": "t_address",
        "label": "mapping(address => mapping(uint256 => uint256))",
        "numberOfBytes": "32",
        "value": "t_mapping(t_uint256,t_uint256)"
      },
      "t_mapping(t_address,t_uint256)": {
        "encoding": "mapping",
        "key": "t_address",
        "label": "mapping(address => uint256)",
        "numberOfBytes": "32",
        "value": "t_uint256"
      },
      "t_mapping(t_uint256,t_address)": {
        "encoding": "mapping",
        "key": "t_uint256",
        "label": "mapping(uint256 => address)",
        "numberOfBytes": "32",
        "value": "t_address"
      },
      "t_mapping(t_uint256,t_uint256)": {
        "encoding": "mapping",
        "key": "t_uint256",
        "label": "mapping(uint256 => uint256)",
        "numberOfBytes": "32",
        "value": "t_uint256"
      },
      "t_string_storage": {
        "encoding": "bytes",
        "label": "string",
        "numberOfBytes": "32"
      },
      "t_uint256": {
        "encoding": "inplace",
        "label": "uint256",
        "numberOfBytes": "32"
      }
    }
  }
}