{
  "address": "0x986aea67C7d6A15036e18678065eb663Fc5BE883",
  "bytecode": "0x60e06040819052600060c08190526200001b91600f9162000151565b503480156200002957600080fd5b5060405162004a4738038062004a478339810160408190526200004c9162000214565b604080518082018252600a8152692734b33a3ca232b3b2b760b11b6020808301918252835180850190945260058452642222a3a2a760d91b90840152815185939183918391620000a0916000919062000151565b508051620000b690600190602084019062000151565b505050620000d3620000cd620000fb60201b60201c565b620000ff565b50506006805460ff60a01b191690556001600160a01b039081166080521660a0525062000289565b3390565b600680546001600160a01b038381166001600160a01b0319831681179093556040519116919082907f8be0079c531659141344cd1fd0a4f28419497f9722a3daafe3b4186f6b6457e090600090a35050565b8280546200015f906200024c565b90600052602060002090601f016020900481019282620001835760008555620001ce565b82601f106200019e57805160ff1916838001178555620001ce565b82800160010185558215620001ce579182015b82811115620001ce578251825591602001919060010190620001b1565b50620001dc929150620001e0565b5090565b5b80821115620001dc5760008155600101620001e1565b80516001600160a01b03811681146200020f57600080fd5b919050565b600080604083850312156200022857600080fd5b6200023383620001f7565b91506200024360208401620001f7565b90509250929050565b600181811c908216806200026157607f821691505b602082108114156200028357634e487b7160e01b600052602260045260246000fd5b50919050565b60805160a051614798620002af6000396000611e0c0152600061199b01526147986000f3fe6080604052600436106102255760003560e01c806370a0823111610123578063b88d4fde116100ab578063e13cae401161006f578063e13cae4014610652578063e985e9c514610667578063f2fde38b146106b0578063fb107a4f146106d0578063ff88dea9146106e557600080fd5b8063b88d4fde146105bd578063c39cbef1146105dd578063c87b56dd146105fd578063d92559ad1461061d578063da8fbf2a1461063d57600080fd5b806395d89b41116100f257806395d89b41146105265780639b046ed31461053b5780639ffdb65a14610568578063a22cb46514610588578063ae200322146105a857600080fd5b806370a08231146104c0578063715018a6146104e057806372c9f580146104f55780638da5cb5b1461050857600080fd5b806318160ddd116101b157806354b6f1611161017557806354b6f1611461042457806355f804b3146104415780635c975abb146104615780636352211e146104805780636b8ff574146104a057600080fd5b806318160ddd1461039457806323b872dd146103b957806332cb6b0c146103d95780633ccfd60b146103ef57806342842e0e1461040457600080fd5b8063081812fc116101f8578063081812fc146102c9578063095ea7b31461030157806315b56d10146103215780631656efc61461034157806317bed2c51461037257600080fd5b80630194cf121461022a57806301ffc9a71461024157806306fdde03146102765780630750d2fb14610298575b600080fd5b34801561023657600080fd5b5061023f610705565b005b34801561024d57600080fd5b5061026161025c366004613cae565b61097d565b60405190151581526020015b60405180910390f35b34801561028257600080fd5b5061028b6109cf565b60405161026d9190613d23565b3480156102a457600080fd5b506102616102b3366004613d36565b60009081526008602052604090205460ff161590565b3480156102d557600080fd5b506102e96102e4366004613d36565b610a61565b6040516001600160a01b03909116815260200161026d565b34801561030d57600080fd5b5061023f61031c366004613d6b565b610a88565b34801561032d57600080fd5b5061026161033c366004613e6a565b610ba3565b34801561034d57600080fd5b5061026161035c366004613d36565b60009081526009602052604090205460ff161590565b34801561037e57600080fd5b50610387610bd6565b60405161026d9190613e9f565b3480156103a057600080fd5b50600c546103ab9081565b60405190815260200161026d565b3480156103c557600080fd5b5061023f6103d4366004613ee7565b610c55565b3480156103e557600080fd5b506103ab61271081565b3480156103fb57600080fd5b5061023f610c86565b34801561041057600080fd5b5061023f61041f366004613ee7565b610cc1565b34801561043057600080fd5b506103ab683635c9adc5dea0000081565b34801561044d57600080fd5b5061023f61045c366004613e6a565b610cdc565b34801561046d57600080fd5b50600654600160a01b900460ff16610261565b34801561048c57600080fd5b506102e961049b366004613d36565b610cf7565b3480156104ac57600080fd5b5061028b6104bb366004613d36565b610d57565b3480156104cc57600080fd5b506103ab6104db366004613f23565b610e1f565b3480156104ec57600080fd5b5061023f610ea5565b61023f610503366004614049565b610eb9565b34801561051457600080fd5b506006546001600160a01b03166102e9565b34801561053257600080fd5b5061028b6110cb565b34801561054757600080fd5b5061055b610556366004613d36565b6110da565b60405161026d9190614111565b34801561057457600080fd5b50610261610583366004613e6a565b61149d565b34801561059457600080fd5b5061023f6105a3366004614289565b61169e565b3480156105b457600080fd5b5061023f6116a9565b3480156105c957600080fd5b5061023f6105d83660046142c0565b6116b9565b3480156105e957600080fd5b5061028b6105f836600461433c565b6116f1565b34801561060957600080fd5b5061028b610618366004613d36565b611b69565b34801561062957600080fd5b5061023f610638366004613d36565b611bd0565b34801561064957600080fd5b5061023f611bdd565b34801561065e57600080fd5b506103ab606481565b34801561067357600080fd5b50610261610682366004614383565b6001600160a01b03918216600090815260056020908152604080832093909416825291909152205460ff1690565b3480156106bc57600080fd5b5061023f6106cb366004613f23565b611bed565b3480156106dc57600080fd5b506103ab611c66565b3480156106f157600080fd5b506102616107003660046143b6565b611dbf565b61070d611e89565b600d60205260717fa5049387d9cb649c59f4bda666105ba636c2a103d8e2b232ba4d125737cd214955600e7fa48544818c2c710afa9849c61ec9c60e8acdb3eaa2885f33b37e118cc8fd04ac55603f7fb91432bedff11256dbe14161d3606a2657bc9dacf8742f6b817d871dd53fb9765560637f0b705463cf5f7356780ee6e96132d37412c1b5816a4d207b8dcd42c34976745755604c7f7b6f1ece0cbe5122a575776770f0494c2d57ed2a50e36c2ba0d811d70ee03b645560297fba9d637f252776d5e1b3534bbd7554a1265a4ef0539d9ca50abe118598a6973c5560657f52c2086a203f40e709b1346663401f6c737b2fce5878601fcf875b047fed5fb65560257fe399baa2fabbab2a0309615b124a802277bab50ec0ca3452a00889e216c4b902819055600c7fe0af3347aa7e5af384208c9d29458f902f0ceddbc90963608afa77235658b360819055602b7f154ef5b709dcdc8b49a2af6408b8a1af209c39b5fa796f03680257c97692546e5560327f52fb6a28cb3c239105f8f829bc7376f939b6bfb040c470bdc2bda0af2e784b9455600a7f01a49be1e7ea084651fd665847100d28826db0b17160863a99534933cbbd2dce557f6fbf3b49b523bc27464b7dbfa6311951351b1d3efd07aa2ee4d1ce319801a0ce5560197f0a206051e911305809ddd48cf2baa7ead2c7fb038e505e1d02f9e6c2ce72930c557f1341e158d1184a2eb4edb96b016176e1c5ad075baae6651557fb93ae3925007a55605c7fdd2af3330d298808a303a10bc360333536e7697099bb3fe7200b0c272de6655855601560005260307f35c0ef8c6f7488ebe28ad34a3af68b3aa3aea0693e227054e9ec90bd504f66d255565b60006001600160e01b031982166380ac58cd60e01b14806109ae57506001600160e01b03198216635b5e139f60e01b145b806109c957506301ffc9a760e01b6001600160e01b03198316145b92915050565b6060600080546109de906143d8565b80601f0160208091040260200160405190810160405280929190818152602001828054610a0a906143d8565b8015610a575780601f10610a2c57610100808354040283529160200191610a57565b820191906000526020600020905b815481529060010190602001808311610a3a57829003601f168201915b5050505050905090565b6000610a6c82611ee3565b506000908152600460205260409020546001600160a01b031690565b6000610a9382610cf7565b9050806001600160a01b0316836001600160a01b03161415610b065760405162461bcd60e51b815260206004820152602160248201527f4552433732313a20617070726f76616c20746f2063757272656e74206f776e656044820152603960f91b60648201526084015b60405180910390fd5b336001600160a01b0382161480610b225750610b228133610682565b610b945760405162461bcd60e51b815260206004820152603d60248201527f4552433732313a20617070726f76652063616c6c6572206973206e6f7420746f60448201527f6b656e206f776e6572206f7220617070726f76656420666f7220616c6c0000006064820152608401610afd565b610b9e8383611f33565b505050565b6000600b610bb083611fa1565b604051610bbd9190614413565b9081526040519081900360200190205460ff1692915050565b6060600a805480602002602001604051908101604052809291908181526020018280548015610a5757602002820191906000526020600020906000905b82829054906101000a900461ffff1661ffff1681526020019060020190602082600101049283019260010382029150808411610c135790505050505050905090565b610c5f3382612104565b610c7b5760405162461bcd60e51b8152600401610afd9061442f565b610b9e838383612182565b610c8e611e89565b6040514790339082156108fc029083906000818181858888f19350505050158015610cbd573d6000803e3d6000fd5b5050565b610b9e838383604051806020016040528060008152506116b9565b610ce4611e89565b8051610cbd90600f906020840190613bff565b6000818152600260205260408120546001600160a01b0316806109c95760405162461bcd60e51b8152602060048201526018602482015277115490cdcc8c4e881a5b9d985b1a59081d1bdad95b88125160421b6044820152606401610afd565b6060610d62826122f3565b610d7e5760405162461bcd60e51b8152600401610afd9061447c565b60008281526007602052604090206001018054610d9a906143d8565b80601f0160208091040260200160405190810160405280929190818152602001828054610dc6906143d8565b8015610e135780601f10610de857610100808354040283529160200191610e13565b820191906000526020600020905b815481529060010190602001808311610df657829003601f168201915b50505050509050919050565b60006001600160a01b038216610e895760405162461bcd60e51b815260206004820152602960248201527f4552433732313a2061646472657373207a65726f206973206e6f7420612076616044820152683634b21037bbb732b960b91b6064820152608401610afd565b506001600160a01b031660009081526003602052604090205490565b610ead611e89565b610eb76000612310565b565b610ec1612362565b6000610ecc600c5490565b9050600381101580610ee857506006546001600160a01b031633145b610f2b5760405162461bcd60e51b815260206004820152601460248201527314d85b19481a185cc81b9bdd081cdd185c9d195960621b6044820152606401610afd565b610f33611c66565b3414610f795760405162461bcd60e51b8152602060048201526015602482015274115d1a195c881d985b1d59481a5b98dbdc9c9958dd605a1b6044820152606401610afd565b610f8686868686866123af565b60006110b78787878787600080868160200201519050600a8760016020020151901b1760148760026020020151901b17601e8760036020020151901b1760288760046020020151901b1760328660006020020151901b17603c8660016020020151901b1760468660026020020151901b1760508560006020020151901b17605a8560016020020151901b1760648560026020020151901b17606e8560036020020151901b1760788560046020020151901b1760828560056020020151901b17608c8460006020020151901b1760968460016020020151901b1760a08460026020020151901b1760aa8460036020020151901b1760b48460046020020151901b1760be8460056020020151901b1760c88360006020020151901b1760d28360016020020151901b179695505050505050565b90506110c2816131e2565b50505050505050565b6060600180546109de906143d8565b604080516102c081018252600080825260208201819052918101829052606081018290526080810182905260a0810182905260c0810182905260e08101829052610100810182905261012081018290526101408101829052610160810182905261018081018290526101a081018290526101c081018290526101e08101829052610200810182905261022081018290526102408101829052610260810182905261028081018290526102a0810191909152611194826122f3565b6111b05760405162461bcd60e51b8152600401610afd9061447c565b600060076000848152602001908152602001600020604051806040016040529081600082015481526020016001820180546111ea906143d8565b80601f0160208091040260200160405190810160405280929190818152602001828054611216906143d8565b80156112635780601f1061123857610100808354040283529160200191611263565b820191906000526020600020905b81548152906001019060200180831161124657829003601f168201915b5050509190925250508151919250506103ff1661ffff168252805161128c90600a1c6103ff1690565b61ffff16602083015280516112a59060141c6103ff1690565b61ffff16604083015280516112be90601e1c6103ff1690565b61ffff16606083015280516112d79060281c6103ff1690565b61ffff16608083015280516112f09060321c6103ff1690565b61ffff1660a0830152805161130990603c1c6103ff1690565b61ffff1660c083015280516113229060461c6103ff1690565b61ffff1660e0830152805161133b9060501c6103ff1690565b61ffff16610100830152805161135590605a1c6103ff1690565b61ffff16610120830152805161136f9060641c6103ff1690565b61ffff16610140830152805161138990606e1c6103ff1690565b61ffff1661016083015280516113a39060781c6103ff1690565b61ffff1661018083015280516113bd9060821c6103ff1690565b61ffff166101a083015280516113d790608c1c6103ff1690565b61ffff166101c083015280516113f19060961c6103ff1690565b61ffff166101e0830152805161140b9060a01c6103ff1690565b61ffff1661020083015280516114259060aa1c6103ff1690565b61ffff16610220830152805161143f9060b41c6103ff1690565b61ffff1661024083015280516114599060be1c6103ff1690565b61ffff1661026083015280516114739060c81c6103ff1690565b61ffff16610280830152805161148d9060d21c6103ff1690565b61ffff166102a083015250919050565b6000808290506001815110806114b4575060208151115b156114c25750600092915050565b806000815181106114d5576114d56144a7565b6020910101516001600160f81b031916600160fd1b14806115275750806001825161150091906144d3565b81518110611510576115106144a7565b6020910101516001600160f81b031916600160fd1b145b156115355750600092915050565b60008160008151811061154a5761154a6144a7565b01602001516001600160f81b031916905060005b825181101561169357600083828151811061157b5761157b6144a7565b01602001516001600160f81b0319169050600160fd1b811480156115ac5750600160fd1b6001600160f81b03198416145b156115bd5750600095945050505050565b600360fc1b6001600160f81b03198216108015906115e95750603960f81b6001600160f81b0319821611155b15801561161f5750604160f81b6001600160f81b031982161080159061161d5750602d60f91b6001600160f81b0319821611155b155b80156116545750606160f81b6001600160f81b03198216108015906116525750603d60f91b6001600160f81b0319821611155b155b801561166e5750600160fd1b6001600160f81b0319821614155b1561167f5750600095945050505050565b91508061168b816144ea565b91505061155e565b506001949350505050565b610cbd3383836132db565b6116b1611e89565b610eb76133aa565b6116c33383612104565b6116df5760405162461bcd60e51b8152600401610afd9061442f565b6116eb848484846133ff565b50505050565b60606116fc836122f3565b6117185760405162461bcd60e51b8152600401610afd9061447c565b6117223384612104565b61176e5760405162461bcd60e51b815260206004820181905260248201527f43616c6c6572206973206e6f74206f776e6572206e6f7220617070726f7665646044820152606401610afd565b6000838152600760205260408120600101805461178a906143d8565b80601f01602080910402602001604051908101604052809291908181526020018280546117b6906143d8565b80156118035780601f106117d857610100808354040283529160200191611803565b820191906000526020600020905b8154815290600101906020018083116117e657829003601f168201915b5050505050905060028160405161181a9190614413565b602060405180830381855afa158015611837573d6000803e3d6000fd5b5050506040513d601f19601f8201168201806040525081019061185a9190614505565b60028460405161186a9190614413565b602060405180830381855afa158015611887573d6000803e3d6000fd5b5050506040513d601f19601f820116820180604052508101906118aa9190614505565b14156118f85760405162461bcd60e51b815260206004820152601f60248201527f4e6577206e616d6520616e64206f6c64206e616d652061726520657175616c006044820152606401610afd565b6119018361149d565b6119435760405162461bcd60e51b815260206004820152601360248201527213985b59481a5cc81b9bdd08185b1b1bddd959606a1b6044820152606401610afd565b61194c83610ba3565b156119915760405162461bcd60e51b815260206004820152601560248201527413985b5948185b1c9958591e481c995cd95c9d9959605a1b6044820152606401610afd565b6001600160a01b037f0000000000000000000000000000000000000000000000000000000000000000166379cc6790336040516001600160e01b031960e084901b1681526001600160a01b039091166004820152683635c9adc5dea000006024820152604401600060405180830381600087803b158015611a1157600080fd5b505af1158015611a25573d6000803e3d6000fd5b5050506000858152600760205260408120600101805491925090611a48906143d8565b90501115611af65760008481526007602052604090206001018054611af69190611a71906143d8565b80601f0160208091040260200160405190810160405280929190818152602001828054611a9d906143d8565b8015611aea5780601f10611abf57610100808354040283529160200191611aea565b820191906000526020600020905b815481529060010190602001808311611acd57829003601f168201915b50505050506000613432565b611b01836001613432565b60008481526007602090815260409091208451611b2692600190920191860190613bff565b50837f8eff5208043d31f23e348dc06be3a80821505e5b3e0002e9fa1185f5d47eac598285604051611b5992919061451e565b60405180910390a2509092915050565b6060611b7482611ee3565b6000611b7e61346f565b90506000815111611b9e5760405180602001604052806000815250611bc9565b80611ba88461347e565b604051602001611bb992919061454c565b6040516020818303038152906040525b9392505050565b611bd8611e89565b600e55565b611be5611e89565b610eb7613513565b611bf5611e89565b6001600160a01b038116611c5a5760405162461bcd60e51b815260206004820152602660248201527f4f776e61626c653a206e6577206f776e657220697320746865207a65726f206160448201526564647265737360d01b6064820152608401610afd565b611c6381612310565b50565b600080611c72600c5490565b9050611c8160646127106144d3565b811080611ca457506006546001600160a01b031633148015611ca4575061271081105b611ce95760405162461bcd60e51b815260206004820152601660248201527514d85b19481a185cc8185b1c9958591e48195b99195960521b6044820152606401610afd565b6003811080611cfa57506126ac8110155b15611d0757600091505090565b67011c37937e080000600e5410611d20575050600e5490565b61251c8110611d38576703e2c284391c000091505090565b6121348110611d50576703782dace9d9000091505090565b6119648110611d685767030d98d59a96000091505090565b6111948110611d80576702a303fe4b53000091505090565b6109c48110611d98576702386f26fc10000091505090565b6103e88110611db0576701cdda4faccd000091505090565b67016345785d8a000091505090565b600081611dce575060016109c9565b60968210611def575060008181526009602052604090205460ff16156109c9565b60405163968ef8f560e01b815260048101849052602481018390527f0000000000000000000000000000000000000000000000000000000000000000906001600160a01b0382169063968ef8f590604401602060405180830381865afa158015611e5d573d6000803e3d6000fd5b505050506040513d601f19601f82011682018060405250810190611e81919061457b565b949350505050565b6006546001600160a01b03163314610eb75760405162461bcd60e51b815260206004820181905260248201527f4f776e61626c653a2063616c6c6572206973206e6f7420746865206f776e65726044820152606401610afd565b611eec816122f3565b611c635760405162461bcd60e51b8152602060048201526018602482015277115490cdcc8c4e881a5b9d985b1a59081d1bdad95b88125160421b6044820152606401610afd565b600081815260046020526040902080546001600160a01b0319166001600160a01b0384169081179091558190611f6882610cf7565b6001600160a01b03167f8c5be1e5ebec7d5bd14f71427d1e84f3dd0314c0f7b2291e5b200ac8c7c3b92560405160405180910390a45050565b606060008290506000815167ffffffffffffffff811115611fc457611fc4613d95565b6040519080825280601f01601f191660200182016040528015611fee576020820181803683370190505b50905060005b82518110156120fc576041838281518110612011576120116144a7565b016020015160f81c108015906120415750605a838281518110612036576120366144a7565b016020015160f81c11155b156120a357828181518110612058576120586144a7565b602001015160f81c60f81b60f81c60206120729190614598565b60f81b828281518110612087576120876144a7565b60200101906001600160f81b031916908160001a9053506120ea565b8281815181106120b5576120b56144a7565b602001015160f81c60f81b8282815181106120d2576120d26144a7565b60200101906001600160f81b031916908160001a9053505b806120f4816144ea565b915050611ff4565b509392505050565b60008061211083610cf7565b9050806001600160a01b0316846001600160a01b0316148061215757506001600160a01b0380821660009081526005602090815260408083209388168352929052205460ff165b80611e815750836001600160a01b031661217084610a61565b6001600160a01b031614949350505050565b826001600160a01b031661219582610cf7565b6001600160a01b0316146121bb5760405162461bcd60e51b8152600401610afd906145bd565b6001600160a01b03821661221d5760405162461bcd60e51b8152602060048201526024808201527f4552433732313a207472616e7366657220746f20746865207a65726f206164646044820152637265737360e01b6064820152608401610afd565b61222a8383836001613556565b826001600160a01b031661223d82610cf7565b6001600160a01b0316146122635760405162461bcd60e51b8152600401610afd906145bd565b600081815260046020908152604080832080546001600160a01b03199081169091556001600160a01b0387811680865260038552838620805460001901905590871680865283862080546001019055868652600290945282852080549092168417909155905184937fddf252ad1be2c89b69c2b068fc378daa952ba7f163c4a11628f55a4df523b3ef91a4505050565b6000908152600260205260409020546001600160a01b0316151590565b600680546001600160a01b038381166001600160a01b0319831681179093556040519116919082907f8be0079c531659141344cd1fd0a4f28419497f9722a3daafe3b4186f6b6457e090600090a35050565b600654600160a01b900460ff1615610eb75760405162461bcd60e51b815260206004820152601060248201526f14185d5cd8589b194e881c185d5cd95960821b6044820152606401610afd565b845180158015906123e157506006811115806123e15750600981111580156123e157506006546001600160a01b031633145b61241f5760405162461bcd60e51b815260206004820152600f60248201526e151c9a5899481a5b98dbdc9c9958dd608a1b6044820152606401610afd565b602086015161243190600a60456135de565b8061244c575061244c8660015b6020020151607760956135de565b61248f5760405162461bcd60e51b815260206004820152601460248201527314dada5b8818dbdb1bdc881a5b98dbdc9c9958dd60621b6044820152606401610afd565b60408601516124a190604660646135de565b806124b257506124b286600261243e565b6124f45760405162461bcd60e51b8152602060048201526013602482015272119d5c8818dbdb1bdc881a5b98dbdc9c9958dd606a1b6044820152606401610afd565b6060860151612506906065606d6135de565b80612517575061251786600361243e565b6125595760405162461bcd60e51b8152602060048201526013602482015272115e594818dbdb1bdc881a5b98dbdc9c9958dd606a1b6044820152606401610afd565b608086015161256b90606e60766135de565b8061257c575061257c86600461243e565b6125c05760405162461bcd60e51b8152602060048201526015602482015274141d5c1a5b0818dbdb1bdc881a5b98dbdc9c9958dd605a1b6044820152606401610afd565b84516125d09060966101066135de565b61260d5760405162461bcd60e51b815260206004820152600e60248201526d12185a5c881a5b98dbdc9c9958dd60921b6044820152606401610afd565b6020850151612621906101076101146135de565b61265f5760405162461bcd60e51b815260206004820152600f60248201526e135bdd5d1a081a5b98dbdc9c9958dd608a1b6044820152606401610afd565b6040850151612673906101156101536135de565b6126b15760405162461bcd60e51b815260206004820152600f60248201526e1099585c99081a5b98dbdc9c9958dd608a1b6044820152606401610afd565b83516126c2906101546101b66135de565b6126fe5760405162461bcd60e51b815260206004820152600d60248201526c151bdc081a5b98dbdc9c9958dd609a1b6044820152606401610afd565b6020840151612712906101b76102026135de565b6127545760405162461bcd60e51b815260206004820152601360248201527213dd5d195c9dd9585c881a5b98dbdc9c9958dd606a1b6044820152606401610afd565b60408401516127689061020361022b6135de565b6127a65760405162461bcd60e51b815260206004820152600f60248201526e141c9a5b9d081a5b98dbdc9c9958dd608a1b6044820152606401610afd565b60608401516127ba9061022c6102916135de565b6127f95760405162461bcd60e51b815260206004820152601060248201526f109bdd1d1bdb481a5b98dbdc9c9958dd60821b6044820152606401610afd565b608084015161280d906102926102b66135de565b61284e5760405162461bcd60e51b8152602060048201526012602482015271119bdbdd1dd9585c881a5b98dbdc9c9958dd60721b6044820152606401610afd565b60a0840151612862906102b76102c26135de565b61289f5760405162461bcd60e51b815260206004820152600e60248201526d10995b1d081a5b98dbdc9c9958dd60921b6044820152606401610afd565b82516128b0906102c36102ed6135de565b6128ec5760405162461bcd60e51b815260206004820152600d60248201526c12185d081a5b98dbdc9c9958dd609a1b6044820152606401610afd565b6020830151612900906102ee61031f6135de565b6129405760405162461bcd60e51b8152602060048201526011602482015270115e595dd9585c881a5b98dbdc9c9958dd607a1b6044820152606401610afd565b6040830151612954906103206103296135de565b6129955760405162461bcd60e51b8152602060048201526012602482015271141a595c98da5b99c81a5b98dbdc9c9958dd60721b6044820152606401610afd565b60608301516129a99061032a6103356135de565b6129f55760405162461bcd60e51b815260206004820152601960248201527f5772697374206163636573736f727920696e636f7272656374000000000000006044820152606401610afd565b6080830151612a099061033661034e6135de565b612a555760405162461bcd60e51b815260206004820152601960248201527f48616e6473206163636573736f727920696e636f7272656374000000000000006044820152606401610afd565b60a0830151612a699061034f6103736135de565b612aaa5760405162461bcd60e51b8152602060048201526012602482015271139958daddd9585c881a5b98dbdc9c9958dd60721b6044820152606401610afd565b8151612abb906103746103cf6135de565b612afd5760405162461bcd60e51b81526020600482015260136024820152721319599d081a5d195b481a5b98dbdc9c9958dd606a1b6044820152606401610afd565b6020820151612b11906103d06103ff6135de565b612b545760405162461bcd60e51b8152602060048201526014602482015273149a59da1d081a5d195b481a5b98dbdc9c9958dd60621b6044820152606401610afd565b612b66818760015b6020020151611dbf565b612bab5760405162461bcd60e51b8152602060048201526016602482015275536b696e20636f6c6f7220756e617661696c61626c6560501b6044820152606401610afd565b612bb781876002612b5c565b612bfb5760405162461bcd60e51b815260206004820152601560248201527446757220636f6c6f7220756e617661696c61626c6560581b6044820152606401610afd565b612c0781876003612b5c565b612c4b5760405162461bcd60e51b815260206004820152601560248201527445796520636f6c6f7220756e617661696c61626c6560581b6044820152606401610afd565b612c5781876004612b5c565b612ca35760405162461bcd60e51b815260206004820152601760248201527f507570696c20636f6c6f7220756e617661696c61626c650000000000000000006044820152606401610afd565b612caf81866000612b5c565b612cee5760405162461bcd60e51b815260206004820152601060248201526f4861697220756e617661696c61626c6560801b6044820152606401610afd565b612cfa81866001612b5c565b612d3a5760405162461bcd60e51b81526020600482015260116024820152704d6f75746820756e617661696c61626c6560781b6044820152606401610afd565b612d4681866002612b5c565b612d865760405162461bcd60e51b8152602060048201526011602482015270426561726420756e617661696c61626c6560781b6044820152606401610afd565b612d9281856000612b5c565b612dd05760405162461bcd60e51b815260206004820152600f60248201526e546f7020756e617661696c61626c6560881b6044820152606401610afd565b612ddc81856001612b5c565b612e205760405162461bcd60e51b81526020600482015260156024820152744f757465727765617220756e617661696c61626c6560581b6044820152606401610afd565b612e2c81856002612b5c565b612e6c5760405162461bcd60e51b81526020600482015260116024820152705072696e7420756e617661696c61626c6560781b6044820152606401610afd565b612e7881856003612b5c565b612eb95760405162461bcd60e51b8152602060048201526012602482015271426f74746f6d20756e617661696c61626c6560701b6044820152606401610afd565b612ec581856004612b5c565b612f085760405162461bcd60e51b8152602060048201526014602482015273466f6f747765617220756e617661696c61626c6560601b6044820152606401610afd565b612f1481856005612b5c565b612f535760405162461bcd60e51b815260206004820152601060248201526f42656c7420756e617661696c61626c6560801b6044820152606401610afd565b612f5f81846000612b5c565b612f9d5760405162461bcd60e51b815260206004820152600f60248201526e48617420756e617661696c61626c6560881b6044820152606401610afd565b612fa981846001612b5c565b612feb5760405162461bcd60e51b81526020600482015260136024820152724579657765617220756e617661696c61626c6560681b6044820152606401610afd565b612ff781846002612b5c565b61303a5760405162461bcd60e51b81526020600482015260146024820152735069657263696e6720756e617661696c61626c6560601b6044820152606401610afd565b61304681846003612b5c565b6130925760405162461bcd60e51b815260206004820152601b60248201527f5772697374206163636573736f727920756e617661696c61626c6500000000006044820152606401610afd565b61309e81846004612b5c565b6130ea5760405162461bcd60e51b815260206004820152601a60248201527f48616e64206163636573736f727920756e617661696c61626c650000000000006044820152606401610afd565b6130f681846005612b5c565b6131395760405162461bcd60e51b81526020600482015260146024820152734e65636b7765617220756e617661696c61626c6560601b6044820152606401610afd565b61314581836000612b5c565b6131895760405162461bcd60e51b81526020600482015260156024820152744c656674206974656d20756e617661696c61626c6560581b6044820152606401610afd565b61319581836001612b5c565b6131da5760405162461bcd60e51b81526020600482015260166024820152755269676874206974656d20756e617661696c61626c6560501b6044820152606401610afd565b505050505050565b60008181526008602052604090205460ff16156132415760405162461bcd60e51b815260206004820152601e60248201527f4e465420747261697420636f6d626f20616c72656164792065786973747300006044820152606401610afd565b6000818152600860205260409020805460ff19166001179055613268600c80546001019055565b6000613273600c5490565b9050613292604051806040016040528060008152602001606081525090565b82815260008281526007602090815260409091208251815581830151805184936132c3926001850192910190613bff565b509050506132d182846135fd565b610b9e338361376c565b816001600160a01b0316836001600160a01b0316141561333d5760405162461bcd60e51b815260206004820152601960248201527f4552433732313a20617070726f766520746f2063616c6c6572000000000000006044820152606401610afd565b6001600160a01b03838116600081815260056020908152604080832094871680845294825291829020805460ff191686151590811790915591519182527f17307eab39ab6107e8899845ad3d59bd9653f200f220920489ca2b5937696c31910160405180910390a3505050565b6133b2613786565b6006805460ff60a01b191690557f5db9ee0a495bf2e6ff9c91a7834c1ba4fdd244a5e8aa4e537bd38aeae4b073aa335b6040516001600160a01b03909116815260200160405180910390a1565b61340a848484612182565b613416848484846137d6565b6116eb5760405162461bcd60e51b8152600401610afd90614602565b80600b61343e84611fa1565b60405161344b9190614413565b908152604051908190036020019020805491151560ff199092169190911790555050565b6060600f80546109de906143d8565b6060600061348b836138cc565b600101905060008167ffffffffffffffff8111156134ab576134ab613d95565b6040519080825280601f01601f1916602001820160405280156134d5576020820181803683370190505b5090508181016020015b600019016f181899199a1a9b1b9c1cb0b131b232b360811b600a86061a8153600a850494508461350e576120fc565b6134df565b61351b612362565b6006805460ff60a01b1916600160a01b1790557f62e78cea01bee320cd4e420270b5ea74000d11b0c9f74754ebdbfc544b05a2586133e23390565b60018111156116eb576001600160a01b0384161561359c576001600160a01b038416600090815260036020526040812080548392906135969084906144d3565b90915550505b6001600160a01b038316156116eb576001600160a01b038316600090815260036020526040812080548392906135d390849061466a565b909155505050505050565b6000831580611e815750828410158015611e8157505090911115919050565b600a546064811080156136185750613616600784614682565b155b8061364357506064811015801561362f575060c881105b80156136435750613641600984614682565b155b8061366f575060c8811015801561365b575061012c81105b801561366f575061366d600b84614682565b155b8061369c575061012c8110158015613688575061019081105b801561369c575061369a600d84614682565b155b15610b9e5760006136ac846139a4565b905060006136c86136be83600a614696565b85901c6103ff1690565b905061ffff811615613765576000828152600d6020526040812054906136ed826139ef565b9050806110c257600a80546001818101909255601081047fc65a7bb8d6351c1cf70c95a316cc6a92839c986682d98bc35f958f4883f9d2a801805461ffff8088166002600f909516949094026101000a8481029102199091161790556000908152600960205260409020805460ff1916909117905550505b5050505050565b610cbd828260405180602001604052806000815250613a51565b600654600160a01b900460ff16610eb75760405162461bcd60e51b815260206004820152601460248201527314185d5cd8589b194e881b9bdd081c185d5cd95960621b6044820152606401610afd565b60006001600160a01b0384163b1561169357604051630a85bd0160e11b81526001600160a01b0385169063150b7a029061381a9033908990889088906004016146b5565b6020604051808303816000875af1925050508015613855575060408051601f3d908101601f19168201909252613852918101906146f2565b60015b6138af573d808015613883576040519150601f19603f3d011682016040523d82523d6000602084013e613888565b606091505b5080516138a75760405162461bcd60e51b8152600401610afd90614602565b805181602001fd5b6001600160e01b031916630a85bd0160e11b149050949350505050565b60008072184f03e93ff9f4daa797ed6e38ed64bf6a1f0160401b831061390b5772184f03e93ff9f4daa797ed6e38ed64bf6a1f0160401b830492506040015b6d04ee2d6d415b85acef81000000008310613937576d04ee2d6d415b85acef8100000000830492506020015b662386f26fc10000831061395557662386f26fc10000830492506010015b6305f5e100831061396d576305f5e100830492506008015b612710831061398157612710830492506004015b60648310613993576064830492506002015b600a83106109c95760010192915050565b60408051602080820184905242828401524460608084019190915283518084039091018152608090920190925280519101206000906139e4601182614682565b611bc990600561466a565b604080516020808201849052428284015244606080840191909152835180840390910181526080909201909252805191012060009081613a30603d83614682565b613a3b90604661470f565b9050613a49846101f461474e565b139392505050565b613a5b8383613a84565b613a6860008484846137d6565b610b9e5760405162461bcd60e51b8152600401610afd90614602565b6001600160a01b038216613ada5760405162461bcd60e51b815260206004820181905260248201527f4552433732313a206d696e7420746f20746865207a65726f20616464726573736044820152606401610afd565b613ae3816122f3565b15613b305760405162461bcd60e51b815260206004820152601c60248201527f4552433732313a20746f6b656e20616c7265616479206d696e746564000000006044820152606401610afd565b613b3e600083836001613556565b613b47816122f3565b15613b945760405162461bcd60e51b815260206004820152601c60248201527f4552433732313a20746f6b656e20616c7265616479206d696e746564000000006044820152606401610afd565b6001600160a01b038216600081815260036020908152604080832080546001019055848352600290915280822080546001600160a01b0319168417905551839291907fddf252ad1be2c89b69c2b068fc378daa952ba7f163c4a11628f55a4df523b3ef908290a45050565b828054613c0b906143d8565b90600052602060002090601f016020900481019282613c2d5760008555613c73565b82601f10613c4657805160ff1916838001178555613c73565b82800160010185558215613c73579182015b82811115613c73578251825591602001919060010190613c58565b50613c7f929150613c83565b5090565b5b80821115613c7f5760008155600101613c84565b6001600160e01b031981168114611c6357600080fd5b600060208284031215613cc057600080fd5b8135611bc981613c98565b60005b83811015613ce6578181015183820152602001613cce565b838111156116eb5750506000910152565b60008151808452613d0f816020860160208601613ccb565b601f01601f19169290920160200192915050565b602081526000611bc96020830184613cf7565b600060208284031215613d4857600080fd5b5035919050565b80356001600160a01b0381168114613d6657600080fd5b919050565b60008060408385031215613d7e57600080fd5b613d8783613d4f565b946020939093013593505050565b634e487b7160e01b600052604160045260246000fd5b60405160a0810167ffffffffffffffff81118282101715613dce57613dce613d95565b60405290565b600067ffffffffffffffff80841115613def57613def613d95565b604051601f8501601f19908116603f01168101908282118183101715613e1757613e17613d95565b81604052809350858152868686011115613e3057600080fd5b858560208301376000602087830101525050509392505050565b600082601f830112613e5b57600080fd5b611bc983833560208501613dd4565b600060208284031215613e7c57600080fd5b813567ffffffffffffffff811115613e9357600080fd5b611e8184828501613e4a565b6020808252825182820181905260009190848201906040850190845b81811015613edb57835161ffff1683529284019291840191600101613ebb565b50909695505050505050565b600080600060608486031215613efc57600080fd5b613f0584613d4f565b9250613f1360208501613d4f565b9150604084013590509250925092565b600060208284031215613f3557600080fd5b611bc982613d4f565b60006040516060810181811067ffffffffffffffff82111715613f6357613f63613d95565b6040529050806060830184811115613f7a57600080fd5b835b81811015613f94578035835260209283019201613f7c565b50505092915050565b60006040516040810181811067ffffffffffffffff82111715613fc257613fc2613d95565b80604052508091506040830184811115613f7a57600080fd5b600082601f830112613fec57600080fd5b60405160c0810181811067ffffffffffffffff8211171561400f5761400f613d95565b6040528060c084018581111561402457600080fd5b845b8181101561403e578035835260209283019201614026565b509195945050505050565b60008060008060006102c0868803121561406257600080fd5b86601f87011261407157600080fd5b614079613dab565b8060a088018981111561408b57600080fd5b885b818110156140a557803584526020938401930161408d565b508197508960bf8a01126140b857600080fd5b6140c28a82613f3e565b96505050506140d5876101008801613fdb565b92506140e5876101c08801613fdb565b91508661029f8701126140f757600080fd5b614105876102808801613f9d565b90509295509295909350565b815161ffff1681526102c081016020830151614133602084018261ffff169052565b506040830151614149604084018261ffff169052565b50606083015161415f606084018261ffff169052565b506080830151614175608084018261ffff169052565b5060a083015161418b60a084018261ffff169052565b5060c08301516141a160c084018261ffff169052565b5060e08301516141b760e084018261ffff169052565b506101008381015161ffff90811691840191909152610120808501518216908401526101408085015182169084015261016080850151821690840152610180808501518216908401526101a0808501518216908401526101c0808501518216908401526101e08085015182169084015261020080850151821690840152610220808501518216908401526102408085015182169084015261026080850151821690840152610280808501518216908401526102a09384015116929091019190915290565b8015158114611c6357600080fd5b6000806040838503121561429c57600080fd5b6142a583613d4f565b915060208301356142b58161427b565b809150509250929050565b600080600080608085870312156142d657600080fd5b6142df85613d4f565b93506142ed60208601613d4f565b925060408501359150606085013567ffffffffffffffff81111561431057600080fd5b8501601f8101871361432157600080fd5b61433087823560208401613dd4565b91505092959194509250565b6000806040838503121561434f57600080fd5b82359150602083013567ffffffffffffffff81111561436d57600080fd5b61437985828601613e4a565b9150509250929050565b6000806040838503121561439657600080fd5b61439f83613d4f565b91506143ad60208401613d4f565b90509250929050565b600080604083850312156143c957600080fd5b50508035926020909101359150565b600181811c908216806143ec57607f821691505b6020821081141561440d57634e487b7160e01b600052602260045260246000fd5b50919050565b60008251614425818460208701613ccb565b9190910192915050565b6020808252602d908201527f4552433732313a2063616c6c6572206973206e6f7420746f6b656e206f776e6560408201526c1c881bdc88185c1c1c9bdd9959609a1b606082015260800190565b6020808252601190820152703737b732bc34b9ba32b73a103a37b5b2b760791b604082015260600190565b634e487b7160e01b600052603260045260246000fd5b634e487b7160e01b600052601160045260246000fd5b6000828210156144e5576144e56144bd565b500390565b60006000198214156144fe576144fe6144bd565b5060010190565b60006020828403121561451757600080fd5b5051919050565b6040815260006145316040830185613cf7565b82810360208401526145438185613cf7565b95945050505050565b6000835161455e818460208801613ccb565b835190830190614572818360208801613ccb565b01949350505050565b60006020828403121561458d57600080fd5b8151611bc98161427b565b600060ff821660ff84168060ff038211156145b5576145b56144bd565b019392505050565b60208082526025908201527f4552433732313a207472616e736665722066726f6d20696e636f72726563742060408201526437bbb732b960d91b606082015260800190565b60208082526032908201527f4552433732313a207472616e7366657220746f206e6f6e20455243373231526560408201527131b2b4bb32b91034b6b83632b6b2b73a32b960711b606082015260800190565b634e487b7160e01b600052601260045260246000fd5b6000821982111561467d5761467d6144bd565b500190565b60008261469157614691614654565b500690565b60008160001904831182151516156146b0576146b06144bd565b500290565b6001600160a01b03858116825284166020820152604081018390526080606082018190526000906146e890830184613cf7565b9695505050505050565b60006020828403121561470457600080fd5b8151611bc981613c98565b60008083128015600160ff1b85018412161561472d5761472d6144bd565b6001600160ff1b0384018313811615614748576147486144bd565b50500390565b60008261475d5761475d614654565b50049056fea2646970667358221220d2b7126e4dae16b25696694cc0726224a0d6cc5a282e21c5bdfa39caca82bb9764736f6c634300080b0033",
  "abi": [
    {
      "inputs": [
        {
          "internalType": "address",
          "name": "nftlAddress",
          "type": "address"
        },
        {
          "internalType": "address",
          "name": "storageAddress",
          "type": "address"
        }
      ],
      "stateMutability": "nonpayable",
      "type": "constructor"
    },
    {
      "anonymous": false,
      "inputs": [
        {
          "indexed": true,
          "internalType": "address",
          "name": "owner",
          "type": "address"
        },
        {
          "indexed": true,
          "internalType": "address",
          "name": "approved",
          "type": "address"
        },
        {
          "indexed": true,
          "internalType": "uint256",
          "name": "tokenId",
          "type": "uint256"
        }
      ],
      "name": "Approval",
      "type": "event"
    },
    {
      "anonymous": false,
      "inputs": [
        {
          "indexed": true,
          "internalType": "address",
          "name": "owner",
          "type": "address"
        },
        {
          "indexed": true,
          "internalType": "address",
          "name": "operator",
          "type": "address"
        },
        {
          "indexed": false,
          "internalType": "bool",
          "name": "approved",
          "type": "bool"
        }
      ],
      "name": "ApprovalForAll",
      "type": "event"
    },
    {
      "anonymous": false,
      "inputs": [
        {
          "indexed": true,
          "internalType": "uint256",
          "name": "tokenId",
          "type": "uint256"
        },
        {
          "indexed": false,
          "internalType": "string",
          "name": "previousName",
          "type": "string"
        },
        {
          "indexed": false,
          "internalType": "string",
          "name": "newName",
          "type": "string"
        }
      ],
      "name": "NameUpdated",
      "type": "event"
    },
    {
      "anonymous": false,
      "inputs": [
        {
          "indexed": true,
          "internalType": "address",
          "name": "previousOwner",
          "type": "address"
        },
        {
          "indexed": true,
          "internalType": "address",
          "name": "newOwner",
          "type": "address"
        }
      ],
      "name": "OwnershipTransferred",
      "type": "event"
    },
    {
      "anonymous": false,
      "inputs": [
        {
          "indexed": false,
          "internalType": "address",
          "name": "account",
          "type": "address"
        }
      ],
      "name": "Paused",
      "type": "event"
    },
    {
      "anonymous": false,
      "inputs": [
        {
          "indexed": true,
          "internalType": "address",
          "name": "from",
          "type": "address"
        },
        {
          "indexed": true,
          "internalType": "address",
          "name": "to",
          "type": "address"
        },
        {
          "indexed": true,
          "internalType": "uint256",
          "name": "tokenId",
          "type": "uint256"
        }
      ],
      "name": "Transfer",
      "type": "event"
    },
    {
      "anonymous": false,
      "inputs": [
        {
          "indexed": false,
          "internalType": "address",
          "name": "account",
          "type": "address"
        }
      ],
      "name": "Unpaused",
      "type": "event"
    },
    {
      "inputs": [],
      "name": "MAX_SUPPLY",
      "outputs": [
        {
          "internalType": "uint256",
          "name": "",
          "type": "uint256"
        }
      ],
      "stateMutability": "view",
      "type": "function"
    },
    {
      "inputs": [],
      "name": "NAME_CHANGE_PRICE",
      "outputs": [
        {
          "internalType": "uint256",
          "name": "",
          "type": "uint256"
        }
      ],
      "stateMutability": "view",
      "type": "function"
    },
    {
      "inputs": [],
      "name": "SPECIAL_CHARACTERS",
      "outputs": [
        {
          "internalType": "uint256",
          "name": "",
          "type": "uint256"
        }
      ],
      "stateMutability": "view",
      "type": "function"
    },
    {
      "inputs": [
        {
          "internalType": "address",
          "name": "to",
          "type": "address"
        },
        {
          "internalType": "uint256",
          "name": "tokenId",
          "type": "uint256"
        }
      ],
      "name": "approve",
      "outputs": [],
      "stateMutability": "nonpayable",
      "type": "function"
    },
    {
      "inputs": [
        {
          "internalType": "address",
          "name": "owner",
          "type": "address"
        }
      ],
      "name": "balanceOf",
      "outputs": [
        {
          "internalType": "uint256",
          "name": "",
          "type": "uint256"
        }
      ],
      "stateMutability": "view",
      "type": "function"
    },
    {
      "inputs": [
        {
          "internalType": "uint256",
          "name": "tokenId",
          "type": "uint256"
        },
        {
          "internalType": "string",
          "name": "newName",
          "type": "string"
        }
      ],
      "name": "changeName",
      "outputs": [
        {
          "internalType": "string",
          "name": "",
          "type": "string"
        }
      ],
      "stateMutability": "nonpayable",
      "type": "function"
    },
    {
      "inputs": [
        {
          "internalType": "uint256",
          "name": "tokenId",
          "type": "uint256"
        }
      ],
      "name": "getApproved",
      "outputs": [
        {
          "internalType": "address",
          "name": "",
          "type": "address"
        }
      ],
      "stateMutability": "view",
      "type": "function"
    },
    {
      "inputs": [
        {
          "internalType": "uint256",
          "name": "tokenId",
          "type": "uint256"
        }
      ],
      "name": "getCharacterTraits",
      "outputs": [
        {
          "components": [
            {
              "internalType": "uint16",
              "name": "tribe",
              "type": "uint16"
            },
            {
              "internalType": "uint16",
              "name": "skinColor",
              "type": "uint16"
            },
            {
              "internalType": "uint16",
              "name": "furColor",
              "type": "uint16"
            },
            {
              "internalType": "uint16",
              "name": "eyeColor",
              "type": "uint16"
            },
            {
              "internalType": "uint16",
              "name": "pupilColor",
              "type": "uint16"
            },
            {
              "internalType": "uint16",
              "name": "hair",
              "type": "uint16"
            },
            {
              "internalType": "uint16",
              "name": "mouth",
              "type": "uint16"
            },
            {
              "internalType": "uint16",
              "name": "beard",
              "type": "uint16"
            },
            {
              "internalType": "uint16",
              "name": "top",
              "type": "uint16"
            },
            {
              "internalType": "uint16",
              "name": "outerwear",
              "type": "uint16"
            },
            {
              "internalType": "uint16",
              "name": "print",
              "type": "uint16"
            },
            {
              "internalType": "uint16",
              "name": "bottom",
              "type": "uint16"
            },
            {
              "internalType": "uint16",
              "name": "footwear",
              "type": "uint16"
            },
            {
              "internalType": "uint16",
              "name": "belt",
              "type": "uint16"
            },
            {
              "internalType": "uint16",
              "name": "hat",
              "type": "uint16"
            },
            {
              "internalType": "uint16",
              "name": "eyewear",
              "type": "uint16"
            },
            {
              "internalType": "uint16",
              "name": "piercing",
              "type": "uint16"
            },
            {
              "internalType": "uint16",
              "name": "wrist",
              "type": "uint16"
            },
            {
              "internalType": "uint16",
              "name": "hands",
              "type": "uint16"
            },
            {
              "internalType": "uint16",
              "name": "neckwear",
              "type": "uint16"
            },
            {
              "internalType": "uint16",
              "name": "leftItem",
              "type": "uint16"
            },
            {
              "internalType": "uint16",
              "name": "rightItem",
              "type": "uint16"
            }
          ],
          "internalType": "struct NiftyLeagueCharacter.CharacterTraits",
          "name": "_characterTraits",
          "type": "tuple"
        }
      ],
      "stateMutability": "view",
      "type": "function"
    },
    {
      "inputs": [],
      "name": "getNFTPrice",
      "outputs": [
        {
          "internalType": "uint256",
          "name": "",
          "type": "uint256"
        }
      ],
      "stateMutability": "view",
      "type": "function"
    },
    {
      "inputs": [
        {
          "internalType": "uint256",
          "name": "tokenId",
          "type": "uint256"
        }
      ],
      "name": "getName",
      "outputs": [
        {
          "internalType": "string",
          "name": "",
          "type": "string"
        }
      ],
      "stateMutability": "view",
      "type": "function"
    },
    {
      "inputs": [],
      "name": "getRemovedTraits",
      "outputs": [
        {
          "internalType": "uint16[]",
          "name": "",
          "type": "uint16[]"
        }
      ],
      "stateMutability": "view",
      "type": "function"
    },
    {
      "inputs": [],
      "name": "initPoolSizes",
      "outputs": [],
      "stateMutability": "nonpayable",
      "type": "function"
    },
    {
      "inputs": [
        {
          "internalType": "address",
          "name": "owner",
          "type": "address"
        },
        {
          "internalType": "address",
          "name": "operator",
          "type": "address"
        }
      ],
      "name": "isApprovedForAll",
      "outputs": [
        {
          "internalType": "bool",
          "name": "",
          "type": "bool"
        }
      ],
      "stateMutability": "view",
      "type": "function"
    },
    {
      "inputs": [
        {
          "internalType": "uint256",
          "name": "tribe",
          "type": "uint256"
        },
        {
          "internalType": "uint256",
          "name": "trait",
          "type": "uint256"
        }
      ],
      "name": "isAvailableAndAllowedTrait",
      "outputs": [
        {
          "internalType": "bool",
          "name": "",
          "type": "bool"
        }
      ],
      "stateMutability": "view",
      "type": "function"
    },
    {
      "inputs": [
        {
          "internalType": "uint256",
          "name": "trait",
          "type": "uint256"
        }
      ],
      "name": "isAvailableTrait",
      "outputs": [
        {
          "internalType": "bool",
          "name": "",
          "type": "bool"
        }
      ],
      "stateMutability": "view",
      "type": "function"
    },
    {
      "inputs": [
        {
          "internalType": "string",
          "name": "nameString",
          "type": "string"
        }
      ],
      "name": "isNameReserved",
      "outputs": [
        {
          "internalType": "bool",
          "name": "",
          "type": "bool"
        }
      ],
      "stateMutability": "view",
      "type": "function"
    },
    {
      "inputs": [
        {
          "internalType": "uint256",
          "name": "traitCombo",
          "type": "uint256"
        }
      ],
      "name": "isUnique",
      "outputs": [
        {
          "internalType": "bool",
          "name": "",
          "type": "bool"
        }
      ],
      "stateMutability": "view",
      "type": "function"
    },
    {
      "inputs": [
        {
          "components": [
            {
              "internalType": "uint16",
              "name": "tribe",
              "type": "uint16"
            },
            {
              "internalType": "uint16",
              "name": "skinColor",
              "type": "uint16"
            },
            {
              "internalType": "uint16",
              "name": "furColor",
              "type": "uint16"
            },
            {
              "internalType": "uint16",
              "name": "eyeColor",
              "type": "uint16"
            },
            {
              "internalType": "uint16",
              "name": "pupilColor",
              "type": "uint16"
            },
            {
              "internalType": "uint16",
              "name": "hair",
              "type": "uint16"
            },
            {
              "internalType": "uint16",
              "name": "mouth",
              "type": "uint16"
            },
            {
              "internalType": "uint16",
              "name": "beard",
              "type": "uint16"
            },
            {
              "internalType": "uint16",
              "name": "top",
              "type": "uint16"
            },
            {
              "internalType": "uint16",
              "name": "outerwear",
              "type": "uint16"
            },
            {
              "internalType": "uint16",
              "name": "print",
              "type": "uint16"
            },
            {
              "internalType": "uint16",
              "name": "bottom",
              "type": "uint16"
            },
            {
              "internalType": "uint16",
              "name": "footwear",
              "type": "uint16"
            },
            {
              "internalType": "uint16",
              "name": "belt",
              "type": "uint16"
            },
            {
              "internalType": "uint16",
              "name": "hat",
              "type": "uint16"
            },
            {
              "internalType": "uint16",
              "name": "eyewear",
              "type": "uint16"
            },
            {
              "internalType": "uint16",
              "name": "piercing",
              "type": "uint16"
            },
            {
              "internalType": "uint16",
              "name": "wrist",
              "type": "uint16"
            },
            {
              "internalType": "uint16",
              "name": "hands",
              "type": "uint16"
            },
            {
              "internalType": "uint16",
              "name": "neckwear",
              "type": "uint16"
            },
            {
              "internalType": "uint16",
              "name": "leftItem",
              "type": "uint16"
            },
            {
              "internalType": "uint16",
              "name": "rightItem",
              "type": "uint16"
            }
          ],
          "internalType": "struct NiftyLeagueCharacter.CharacterTraits",
          "name": "_characterTraits",
          "type": "tuple"
        }
      ],
      "name": "mintDegenWithCharacterTraits",
      "outputs": [],
      "stateMutability": "nonpayable",
      "type": "function"
    },
    {
      "inputs": [],
      "name": "name",
      "outputs": [
        {
          "internalType": "string",
          "name": "",
          "type": "string"
        }
      ],
      "stateMutability": "view",
      "type": "function"
    },
    {
      "inputs": [
        {
          "internalType": "uint256",
          "name": "newPrice",
          "type": "uint256"
        }
      ],
      "name": "overrideMintPrice",
      "outputs": [],
      "stateMutability": "nonpayable",
      "type": "function"
    },
    {
      "inputs": [],
      "name": "owner",
      "outputs": [
        {
          "internalType": "address",
          "name": "",
          "type": "address"
        }
      ],
      "stateMutability": "view",
      "type": "function"
    },
    {
      "inputs": [
        {
          "internalType": "uint256",
          "name": "tokenId",
          "type": "uint256"
        }
      ],
      "name": "ownerOf",
      "outputs": [
        {
          "internalType": "address",
          "name": "",
          "type": "address"
        }
      ],
      "stateMutability": "view",
      "type": "function"
    },
    {
      "inputs": [],
      "name": "pauseMinting",
      "outputs": [],
      "stateMutability": "nonpayable",
      "type": "function"
    },
    {
      "inputs": [],
      "name": "paused",
      "outputs": [
        {
          "internalType": "bool",
          "name": "",
          "type": "bool"
        }
      ],
      "stateMutability": "view",
      "type": "function"
    },
    {
      "inputs": [
        {
          "internalType": "uint256[5]",
          "name": "character",
          "type": "uint256[5]"
        },
        {
          "internalType": "uint256[3]",
          "name": "head",
          "type": "uint256[3]"
        },
        {
          "internalType": "uint256[6]",
          "name": "clothing",
          "type": "uint256[6]"
        },
        {
          "internalType": "uint256[6]",
          "name": "accessories",
          "type": "uint256[6]"
        },
        {
          "internalType": "uint256[2]",
          "name": "items",
          "type": "uint256[2]"
        }
      ],
      "name": "purchase",
      "outputs": [],
      "stateMutability": "payable",
      "type": "function"
    },
    {
      "inputs": [],
      "name": "renounceOwnership",
      "outputs": [],
      "stateMutability": "nonpayable",
      "type": "function"
    },
    {
      "inputs": [
        {
          "internalType": "address",
          "name": "from",
          "type": "address"
        },
        {
          "internalType": "address",
          "name": "to",
          "type": "address"
        },
        {
          "internalType": "uint256",
          "name": "tokenId",
          "type": "uint256"
        }
      ],
      "name": "safeTransferFrom",
      "outputs": [],
      "stateMutability": "nonpayable",
      "type": "function"
    },
    {
      "inputs": [
        {
          "internalType": "address",
          "name": "from",
          "type": "address"
        },
        {
          "internalType": "address",
          "name": "to",
          "type": "address"
        },
        {
          "internalType": "uint256",
          "name": "tokenId",
          "type": "uint256"
        },
        {
          "internalType": "bytes",
          "name": "_data",
          "type": "bytes"
        }
      ],
      "name": "safeTransferFrom",
      "outputs": [],
      "stateMutability": "nonpayable",
      "type": "function"
    },
    {
      "inputs": [
        {
          "internalType": "address",
          "name": "operator",
          "type": "address"
        },
        {
          "internalType": "bool",
          "name": "approved",
          "type": "bool"
        }
      ],
      "name": "setApprovalForAll",
      "outputs": [],
      "stateMutability": "nonpayable",
      "type": "function"
    },
    {
      "inputs": [
        {
          "internalType": "string",
          "name": "baseURI",
          "type": "string"
        }
      ],
      "name": "setBaseURI",
      "outputs": [],
      "stateMutability": "nonpayable",
      "type": "function"
    },
    {
      "inputs": [
        {
          "internalType": "bytes4",
          "name": "interfaceId",
          "type": "bytes4"
        }
      ],
      "name": "supportsInterface",
      "outputs": [
        {
          "internalType": "bool",
          "name": "",
          "type": "bool"
        }
      ],
      "stateMutability": "view",
      "type": "function"
    },
    {
      "inputs": [],
      "name": "symbol",
      "outputs": [
        {
          "internalType": "string",
          "name": "",
          "type": "string"
        }
      ],
      "stateMutability": "view",
      "type": "function"
    },
    {
      "inputs": [
        {
          "internalType": "uint256",
          "name": "tokenId",
          "type": "uint256"
        }
      ],
      "name": "tokenURI",
      "outputs": [
        {
          "internalType": "string",
          "name": "",
          "type": "string"
        }
      ],
      "stateMutability": "view",
      "type": "function"
    },
    {
      "inputs": [],
      "name": "totalSupply",
      "outputs": [
        {
          "internalType": "uint256",
          "name": "_value",
          "type": "uint256"
        }
      ],
      "stateMutability": "view",
      "type": "function"
    },
    {
      "inputs": [
        {
          "internalType": "address",
          "name": "from",
          "type": "address"
        },
        {
          "internalType": "address",
          "name": "to",
          "type": "address"
        },
        {
          "internalType": "uint256",
          "name": "tokenId",
          "type": "uint256"
        }
      ],
      "name": "transferFrom",
      "outputs": [],
      "stateMutability": "nonpayable",
      "type": "function"
    },
    {
      "inputs": [
        {
          "internalType": "address",
          "name": "newOwner",
          "type": "address"
        }
      ],
      "name": "transferOwnership",
      "outputs": [],
      "stateMutability": "nonpayable",
      "type": "function"
    },
    {
      "inputs": [],
      "name": "unpauseMinting",
      "outputs": [],
      "stateMutability": "nonpayable",
      "type": "function"
    },
    {
      "inputs": [
        {
          "internalType": "string",
          "name": "newName",
          "type": "string"
        }
      ],
      "name": "validateName",
      "outputs": [
        {
          "internalType": "bool",
          "name": "",
          "type": "bool"
        }
      ],
      "stateMutability": "pure",
      "type": "function"
    },
    {
      "inputs": [],
      "name": "withdraw",
      "outputs": [],
      "stateMutability": "nonpayable",
      "type": "function"
    }
  ]
}