{
  "address": "0x6C3f70EB4dCeE7CB6B766572ee8c888D3758e9b0",
  "abi": [
    {
      "inputs": [],
      "stateMutability": "nonpayable",
      "type": "constructor"
    },
    {
      "anonymous": false,
      "inputs": [
        {
          "indexed": true,
          "internalType": "address",
          "name": "user",
          "type": "address"
        },
        {
          "indexed": false,
          "internalType": "uint256[]",
          "name": "tokenIdsBurned",
          "type": "uint256[]"
        },
        {
          "indexed": false,
          "internalType": "uint256",
          "name": "hydraTokenId",
          "type": "uint256"
        }
      ],
      "name": "HydraClaimed",
      "type": "event"
    },
    {
      "anonymous": false,
      "inputs": [
        {
          "indexed": false,
          "internalType": "uint8",
          "name": "version",
          "type": "uint8"
        }
      ],
      "name": "Initialized",
      "type": "event"
    },
    {
      "anonymous": false,
      "inputs": [
        {
          "indexed": true,
          "internalType": "address",
          "name": "niftyDegen",
          "type": "address"
        }
      ],
      "name": "NiftyDegenSet",
      "type": "event"
    },
    {
      "anonymous": false,
      "inputs": [
        {
          "indexed": true,
          "internalType": "address",
          "name": "niftyWallet",
          "type": "address"
        }
      ],
      "name": "NiftyWalletSet",
      "type": "event"
    },
    {
      "anonymous": false,
      "inputs": [
        {
          "indexed": true,
          "internalType": "address",
          "name": "previousOwner",
          "type": "address"
        },
        {
          "indexed": true,
          "internalType": "address",
          "name": "newOwner",
          "type": "address"
        }
      ],
      "name": "OwnershipTransferred",
      "type": "event"
    },
    {
      "anonymous": false,
      "inputs": [
        {
          "indexed": false,
          "internalType": "address",
          "name": "account",
          "type": "address"
        }
      ],
      "name": "Paused",
      "type": "event"
    },
    {
      "anonymous": false,
      "inputs": [
        {
          "indexed": false,
          "internalType": "address",
          "name": "account",
          "type": "address"
        }
      ],
      "name": "Unpaused",
      "type": "event"
    },
    {
      "inputs": [
        {
          "internalType": "uint256[]",
          "name": "_degenTokenIdList",
          "type": "uint256[]"
        }
      ],
      "name": "claimRandomHydra",
      "outputs": [],
      "stateMutability": "nonpayable",
      "type": "function"
    },
    {
      "inputs": [
        {
          "internalType": "uint256[]",
          "name": "_hydraTokenIdList",
          "type": "uint256[]"
        }
      ],
      "name": "depositHydra",
      "outputs": [],
      "stateMutability": "nonpayable",
      "type": "function"
    },
    {
      "inputs": [],
      "name": "getHydraCount",
      "outputs": [
        {
          "internalType": "uint256",
          "name": "hydraCount",
          "type": "uint256"
        }
      ],
      "stateMutability": "view",
      "type": "function"
    },
    {
      "inputs": [],
      "name": "getHydraTokenIds",
      "outputs": [
        {
          "internalType": "uint256[]",
          "name": "",
          "type": "uint256[]"
        }
      ],
      "stateMutability": "view",
      "type": "function"
    },
    {
      "inputs": [
        {
          "internalType": "uint256",
          "name": "",
          "type": "uint256"
        }
      ],
      "name": "hydraTokenIds",
      "outputs": [
        {
          "internalType": "uint256",
          "name": "",
          "type": "uint256"
        }
      ],
      "stateMutability": "view",
      "type": "function"
    },
    {
      "inputs": [
        {
          "internalType": "address",
          "name": "_niftyDegen",
          "type": "address"
        },
        {
          "internalType": "address",
          "name": "_niftyWallet",
          "type": "address"
        }
      ],
      "name": "initialize",
      "outputs": [],
      "stateMutability": "nonpayable",
      "type": "function"
    },
    {
      "inputs": [],
      "name": "niftyDegen",
      "outputs": [
        {
          "internalType": "contract IERC721Upgradeable",
          "name": "",
          "type": "address"
        }
      ],
      "stateMutability": "view",
      "type": "function"
    },
    {
      "inputs": [],
      "name": "niftyWallet",
      "outputs": [
        {
          "internalType": "address",
          "name": "",
          "type": "address"
        }
      ],
      "stateMutability": "view",
      "type": "function"
    },
    {
      "inputs": [
        {
          "internalType": "address",
          "name": "",
          "type": "address"
        },
        {
          "internalType": "address",
          "name": "",
          "type": "address"
        },
        {
          "internalType": "uint256",
          "name": "",
          "type": "uint256"
        },
        {
          "internalType": "bytes",
          "name": "",
          "type": "bytes"
        }
      ],
      "name": "onERC721Received",
      "outputs": [
        {
          "internalType": "bytes4",
          "name": "",
          "type": "bytes4"
        }
      ],
      "stateMutability": "nonpayable",
      "type": "function"
    },
    {
      "inputs": [],
      "name": "owner",
      "outputs": [
        {
          "internalType": "address",
          "name": "",
          "type": "address"
        }
      ],
      "stateMutability": "view",
      "type": "function"
    },
    {
      "inputs": [],
      "name": "pause",
      "outputs": [],
      "stateMutability": "nonpayable",
      "type": "function"
    },
    {
      "inputs": [],
      "name": "paused",
      "outputs": [
        {
          "internalType": "bool",
          "name": "",
          "type": "bool"
        }
      ],
      "stateMutability": "view",
      "type": "function"
    },
    {
      "inputs": [],
      "name": "renounceOwnership",
      "outputs": [],
      "stateMutability": "nonpayable",
      "type": "function"
    },
    {
      "inputs": [
        {
          "internalType": "address",
          "name": "newOwner",
          "type": "address"
        }
      ],
      "name": "transferOwnership",
      "outputs": [],
      "stateMutability": "nonpayable",
      "type": "function"
    },
    {
      "inputs": [],
      "name": "unpause",
      "outputs": [],
      "stateMutability": "nonpayable",
      "type": "function"
    },
    {
      "inputs": [
        {
          "internalType": "address",
          "name": "_niftyDegen",
          "type": "address"
        }
      ],
      "name": "updateNiftyDegen",
      "outputs": [],
      "stateMutability": "nonpayable",
      "type": "function"
    },
    {
      "inputs": [
        {
          "internalType": "address",
          "name": "_niftyWallet",
          "type": "address"
        }
      ],
      "name": "updateNiftyWallet",
      "outputs": [],
      "stateMutability": "nonpayable",
      "type": "function"
    },
    {
      "inputs": [
        {
          "internalType": "address",
          "name": "_to",
          "type": "address"
        }
      ],
      "name": "withdrawAllHydra",
      "outputs": [],
      "stateMutability": "nonpayable",
      "type": "function"
    }
  ],
  "transactionHash": "0x536d5204cdcd36b7c15903f0ce56100bab95643a7659fd4890b94419381bb80d",
  "args": [],
  "numDeployments": 1,
  "solcInputHash": "7a38f20df122ddddd1dcd7cc750b9e4f",
  "bytecode": "0x608060405234801561001057600080fd5b5061001961001e565b6100de565b600054610100900460ff161561008a5760405162461bcd60e51b815260206004820152602760248201527f496e697469616c697a61626c653a20636f6e747261637420697320696e697469604482015266616c697a696e6760c81b606482015260840160405180910390fd5b60005460ff90811610156100dc576000805460ff191660ff9081179091556040519081527f7f26b83ff96e1f2b6a682f133852f6798a09c465da95921460cefb38474024989060200160405180910390a15b565b6112cf806100ed6000396000f3fe608060405234801561001057600080fd5b50600436106101165760003560e01c8063715018a6116100a2578063a2bf1be311610071578063a2bf1be314610234578063b741465f14610249578063bc45de6c1461025c578063d6f709291461026f578063f2fde38b1461028257600080fd5b8063715018a6146102005780638456cb59146102085780638da5cb5b146102105780638dabe1611461022157600080fd5b8063150b7a02116100e9578063150b7a02146101855780631712e79c146101bc5780633f4ba83a146101cf578063485cc955146101d75780635c975abb146101ea57600080fd5b80630154ec671461011b578063044b3a13146101305780630e574206146101435780630ff2f0db1461015a575b600080fd5b61012e610129366004610ede565b610295565b005b61012e61013e366004610ede565b610316565b60fc545b6040519081526020015b60405180910390f35b60fb5461016d906001600160a01b031681565b6040516001600160a01b039091168152602001610151565b6101a3610193366004610f16565b630a85bd0160e11b949350505050565b6040516001600160e01b03199091168152602001610151565b60fd5461016d906001600160a01b031681565b61012e6103d3565b61012e6101e5366004610ff2565b6103e5565b60655460ff166040519015158152602001610151565b61012e610584565b61012e610596565b6033546001600160a01b031661016d565b61014761022f366004611025565b6105a6565b61023c6105c7565b604051610151919061103e565b61012e610257366004611082565b61061f565b61012e61026a366004610ede565b610972565b61012e61027d366004611082565b6109ea565b61012e610290366004610ede565b610b07565b61029d610b80565b6001600160a01b0381166102cc5760405162461bcd60e51b81526004016102c3906110f7565b60405180910390fd5b60fb80546001600160a01b0319166001600160a01b0383169081179091556040517fca43dfa34599b39cfe4a317fc3e9caa36828092c864c4b2867889e1c4b02cf7b90600090a250565b61031e610b80565b60005b60fc548110156103cf57600060fc82815481106103405761034061111d565b600091825260208083209091015460fb546040805193840181529383529251635c46a7ef60e11b81529093506001600160a01b039092169163b88d4fde916103919130918891879190600401611133565b600060405180830381600087803b1580156103ab57600080fd5b505af11580156103bf573d6000803e3d6000fd5b5050505081600101915050610321565b5050565b6103db610b80565b6103e3610bda565b565b600054610100900460ff16158080156104055750600054600160ff909116105b8061041f5750303b15801561041f575060005460ff166001145b6104825760405162461bcd60e51b815260206004820152602e60248201527f496e697469616c697a61626c653a20636f6e747261637420697320616c72656160448201526d191e481a5b9a5d1a585b1a5e995960921b60648201526084016102c3565b6000805460ff1916600117905580156104a5576000805461ff0019166101001790555b6104ad610c2c565b6104b5610c5b565b6104bd610c8a565b6001600160a01b0383166104e35760405162461bcd60e51b81526004016102c3906110f7565b6001600160a01b0382166105095760405162461bcd60e51b81526004016102c3906110f7565b60fb80546001600160a01b038086166001600160a01b03199283161790925560fd805492851692909116919091179055801561057f576000805461ff0019169055604051600181527f7f26b83ff96e1f2b6a682f133852f6798a09c465da95921460cefb38474024989060200160405180910390a15b505050565b61058c610b80565b6103e36000610cb9565b61059e610b80565b6103e3610d0b565b60fc81815481106105b657600080fd5b600091825260209091200154905081565b606060fc80548060200260200160405190810160405280929190818152602001828054801561061557602002820191906000526020600020905b815481526020019060010190808311610601575b5050505050905090565b610627610d48565b61062f610da2565b60fd5481906001600160a01b031633141561068a5780600c146106855760405162461bcd60e51b815260206004820152600e60248201526d4e65656420313220646567656e7360901b60448201526064016102c3565b6106ca565b806008146106ca5760405162461bcd60e51b815260206004820152600d60248201526c4e656564203820646567656e7360981b60448201526064016102c3565b600160005b828110156106ff578484828181106106e9576106e961111d565b90506020020135820291508060010190506106cf565b5060fe54604080516020810192909252810182905233606090811b6bffffffffffffffffffffffff19169082015242607482015244609482015260009060b40160408051601f19818403018152919052805160209091012060fc54909150600061076982846111ab565b9050600060fc82815481106107805761078061111d565b9060005260206000200154905060fc60018461079c91906111cd565b815481106107ac576107ac61111d565b906000526020600020015460fc83815481106107ca576107ca61111d565b60009182526020909120015560fc8054806107e7576107e76111f2565b600190038181906000526020600020016000905590558360fe8190555060005b868110156108a85760fb546001600160a01b031663b88d4fde3360018c8c868181106108355761083561111d565b90506020020135604051806020016040528060008152506040518563ffffffff1660e01b815260040161086b9493929190611133565b600060405180830381600087803b15801561088557600080fd5b505af1158015610899573d6000803e3d6000fd5b50505050806001019050610807565b50336001600160a01b03167f5aefeb2e8fc2c6783dd8f1bed17b1499ac4bf9e1ab46c8b97cc815744b37f0588989846040516108e693929190611208565b60405180910390a260fb5460408051602081018252600081529051635c46a7ef60e11b81526001600160a01b039092169163b88d4fde916109309130913391879190600401611133565b600060405180830381600087803b15801561094a57600080fd5b505af115801561095e573d6000803e3d6000fd5b505050505050505050506103cf6001609755565b61097a610b80565b6001600160a01b0381166109a05760405162461bcd60e51b81526004016102c3906110f7565b60fd80546001600160a01b0319166001600160a01b0383169081179091556040517f3c53878a1f583ed1fab7b6754b951e46d9f8676a8bde03b2db18f52dd85f4a0a90600090a250565b6109f2610b80565b60005b81811015610a5d576000838383818110610a1157610a1161111d565b60fc805460018181018355600092909252602090920293909301357f371f36870d18f32a11fea0f144b021c8b407bb50f8e0267c711123f454b963c090910155509190910190506109f5565b5060005b8181101561057f576000838383818110610a7d57610a7d61111d565b60fb546040805160208181018352600082529151635c46a7ef60e11b815291909302949094013594506001600160a01b03169263b88d4fde9250610ac991339130918791600401611133565b600060405180830381600087803b158015610ae357600080fd5b505af1158015610af7573d6000803e3d6000fd5b5050505081600101915050610a61565b610b0f610b80565b6001600160a01b038116610b745760405162461bcd60e51b815260206004820152602660248201527f4f776e61626c653a206e6577206f776e657220697320746865207a65726f206160448201526564647265737360d01b60648201526084016102c3565b610b7d81610cb9565b50565b6033546001600160a01b031633146103e35760405162461bcd60e51b815260206004820181905260248201527f4f776e61626c653a2063616c6c6572206973206e6f7420746865206f776e657260448201526064016102c3565b610be2610def565b6065805460ff191690557f5db9ee0a495bf2e6ff9c91a7834c1ba4fdd244a5e8aa4e537bd38aeae4b073aa335b6040516001600160a01b03909116815260200160405180910390a1565b600054610100900460ff16610c535760405162461bcd60e51b81526004016102c39061124e565b6103e3610e38565b600054610100900460ff16610c825760405162461bcd60e51b81526004016102c39061124e565b6103e3610e68565b600054610100900460ff16610cb15760405162461bcd60e51b81526004016102c39061124e565b6103e3610e9b565b603380546001600160a01b038381166001600160a01b0319831681179093556040519116919082907f8be0079c531659141344cd1fd0a4f28419497f9722a3daafe3b4186f6b6457e090600090a35050565b610d13610da2565b6065805460ff191660011790557f62e78cea01bee320cd4e420270b5ea74000d11b0c9f74754ebdbfc544b05a258610c0f3390565b60026097541415610d9b5760405162461bcd60e51b815260206004820152601f60248201527f5265656e7472616e637947756172643a207265656e7472616e742063616c6c0060448201526064016102c3565b6002609755565b60655460ff16156103e35760405162461bcd60e51b815260206004820152601060248201526f14185d5cd8589b194e881c185d5cd95960821b60448201526064016102c3565b6001609755565b60655460ff166103e35760405162461bcd60e51b815260206004820152601460248201527314185d5cd8589b194e881b9bdd081c185d5cd95960621b60448201526064016102c3565b600054610100900460ff16610e5f5760405162461bcd60e51b81526004016102c39061124e565b6103e333610cb9565b600054610100900460ff16610e8f5760405162461bcd60e51b81526004016102c39061124e565b6065805460ff19169055565b600054610100900460ff16610de85760405162461bcd60e51b81526004016102c39061124e565b80356001600160a01b0381168114610ed957600080fd5b919050565b600060208284031215610ef057600080fd5b610ef982610ec2565b9392505050565b634e487b7160e01b600052604160045260246000fd5b60008060008060808587031215610f2c57600080fd5b610f3585610ec2565b9350610f4360208601610ec2565b925060408501359150606085013567ffffffffffffffff80821115610f6757600080fd5b818701915087601f830112610f7b57600080fd5b813581811115610f8d57610f8d610f00565b604051601f8201601f19908116603f01168101908382118183101715610fb557610fb5610f00565b816040528281528a6020848701011115610fce57600080fd5b82602086016020830137600060208483010152809550505050505092959194509250565b6000806040838503121561100557600080fd5b61100e83610ec2565b915061101c60208401610ec2565b90509250929050565b60006020828403121561103757600080fd5b5035919050565b6020808252825182820181905260009190848201906040850190845b818110156110765783518352928401929184019160010161105a565b50909695505050505050565b6000806020838503121561109557600080fd5b823567ffffffffffffffff808211156110ad57600080fd5b818501915085601f8301126110c157600080fd5b8135818111156110d057600080fd5b8660208260051b85010111156110e557600080fd5b60209290920196919550909350505050565b6020808252600c908201526b5a65726f206164647265737360a01b604082015260600190565b634e487b7160e01b600052603260045260246000fd5b600060018060a01b038087168352602081871681850152856040850152608060608501528451915081608085015260005b828110156111805785810182015185820160a001528101611164565b8281111561119257600060a084870101525b5050601f01601f19169190910160a00195945050505050565b6000826111c857634e487b7160e01b600052601260045260246000fd5b500690565b6000828210156111ed57634e487b7160e01b600052601160045260246000fd5b500390565b634e487b7160e01b600052603160045260246000fd5b6040808252810183905260006001600160fb1b0384111561122857600080fd5b8360051b8086606085013760009083016060019081526020909201929092529392505050565b6020808252602b908201527f496e697469616c697a61626c653a20636f6e7472616374206973206e6f74206960408201526a6e697469616c697a696e6760a81b60608201526080019056fea26469706673582212205e7c166762f8489bf5a32a9817670fa71f616057ab582cbd2cffed789466577e64736f6c634300080b0033",
  "devdoc": {
    "kind": "dev",
    "methods": {
      "claimRandomHydra(uint256[])": {
        "details": "The users must transfer 8 normal degens to claim 1 random HydraNiftyWallet must transfer 12 normal degens to claim 1 random HydraAll the trasnferred the normal degens are burned",
        "params": {
          "_degenTokenIdList": "Token Ids of the normal degens to burn"
        }
      },
      "constructor": {
        "custom:oz-upgrades-unsafe-allow": "constructor"
      },
      "depositHydra(uint256[])": {
        "params": {
          "_hydraTokenIdList": "Token Ids of the Hydra to deposit"
        }
      },
      "getHydraCount()": {
        "returns": {
          "hydraCount": "Number of Hydra in the contract"
        }
      },
      "onERC721Received(address,address,uint256,bytes)": {
        "details": "See {IERC721Receiver-onERC721Received}. Always returns `IERC721Receiver.onERC721Received.selector`."
      },
      "owner()": {
        "details": "Returns the address of the current owner."
      },
      "paused()": {
        "details": "Returns true if the contract is paused, and false otherwise."
      },
      "renounceOwnership()": {
        "details": "Leaves the contract without owner. It will not be possible to call `onlyOwner` functions anymore. Can only be called by the current owner. NOTE: Renouncing ownership will leave the contract without an owner, thereby removing any functionality that is only available to the owner."
      },
      "transferOwnership(address)": {
        "details": "Transfers ownership of the contract to a new account (`newOwner`). Can only be called by the current owner."
      },
      "updateNiftyDegen(address)": {
        "params": {
          "_niftyDegen": "NiftyDegen NFT address"
        }
      },
      "updateNiftyWallet(address)": {
        "params": {
          "_niftyWallet": "NiftyLeague wallet address"
        }
      },
      "withdrawAllHydra(address)": {
        "params": {
          "_to": "Address to receive the Hydra"
        }
      }
    },
    "stateVariables": {
      "_prevHash": {
        "details": "Random Hash Value"
      },
      "hydraTokenIds": {
        "details": "Hydra Token Id list"
      },
      "niftyDegen": {
        "details": "NiftyDegen NFT address"
      },
      "niftyWallet": {
        "details": "NiftyLeague Wallet Address"
      }
    },
    "title": "HydraDistributor",
    "version": 1
  },
  "userdoc": {
    "kind": "user",
    "methods": {
      "claimRandomHydra(uint256[])": {
        "notice": "Claim the random Hydra"
      },
      "depositHydra(uint256[])": {
        "notice": "Deposit the Hydra"
      },
      "getHydraCount()": {
        "notice": "Returns the number of the Hydra in the contract"
      },
      "pause()": {
        "notice": "Pause the contract"
      },
      "unpause()": {
        "notice": "Unpause the contract"
      },
      "updateNiftyDegen(address)": {
        "notice": "Update the NiftyDegen NFT address"
      },
      "updateNiftyWallet(address)": {
        "notice": "Update the NiftyLeague wallet address"
      },
      "withdrawAllHydra(address)": {
        "notice": "Withdraw all Hydra"
      }
    },
    "notice": "Hydra is the 7th tribe of NiftyDegen.",
    "version": 1
  },
  "storageLayout": {
    "storage": [
      {
        "astId": 621,
        "contract": "contracts/HydraDistributor.sol:HydraDistributor",
        "label": "_initialized",
        "offset": 0,
        "slot": "0",
        "type": "t_uint8"
      },
      {
        "astId": 624,
        "contract": "contracts/HydraDistributor.sol:HydraDistributor",
        "label": "_initializing",
        "offset": 1,
        "slot": "0",
        "type": "t_bool"
      },
      {
        "astId": 3408,
        "contract": "contracts/HydraDistributor.sol:HydraDistributor",
        "label": "__gap",
        "offset": 0,
        "slot": "1",
        "type": "t_array(t_uint256)50_storage"
      },
      {
        "astId": 493,
        "contract": "contracts/HydraDistributor.sol:HydraDistributor",
        "label": "_owner",
        "offset": 0,
        "slot": "51",
        "type": "t_address"
      },
      {
        "astId": 613,
        "contract": "contracts/HydraDistributor.sol:HydraDistributor",
        "label": "__gap",
        "offset": 0,
        "slot": "52",
        "type": "t_array(t_uint256)49_storage"
      },
      {
        "astId": 804,
        "contract": "contracts/HydraDistributor.sol:HydraDistributor",
        "label": "_paused",
        "offset": 0,
        "slot": "101",
        "type": "t_bool"
      },
      {
        "astId": 909,
        "contract": "contracts/HydraDistributor.sol:HydraDistributor",
        "label": "__gap",
        "offset": 0,
        "slot": "102",
        "type": "t_array(t_uint256)49_storage"
      },
      {
        "astId": 924,
        "contract": "contracts/HydraDistributor.sol:HydraDistributor",
        "label": "_status",
        "offset": 0,
        "slot": "151",
        "type": "t_uint256"
      },
      {
        "astId": 982,
        "contract": "contracts/HydraDistributor.sol:HydraDistributor",
        "label": "__gap",
        "offset": 0,
        "slot": "152",
        "type": "t_array(t_uint256)49_storage"
      },
      {
        "astId": 3082,
        "contract": "contracts/HydraDistributor.sol:HydraDistributor",
        "label": "__gap",
        "offset": 0,
        "slot": "201",
        "type": "t_array(t_uint256)50_storage"
      },
      {
        "astId": 13103,
        "contract": "contracts/HydraDistributor.sol:HydraDistributor",
        "label": "niftyDegen",
        "offset": 0,
        "slot": "251",
        "type": "t_contract(IERC721Upgradeable)2604"
      },
      {
        "astId": 13107,
        "contract": "contracts/HydraDistributor.sol:HydraDistributor",
        "label": "hydraTokenIds",
        "offset": 0,
        "slot": "252",
        "type": "t_array(t_uint256)dyn_storage"
      },
      {
        "astId": 13110,
        "contract": "contracts/HydraDistributor.sol:HydraDistributor",
        "label": "niftyWallet",
        "offset": 0,
        "slot": "253",
        "type": "t_address"
      },
      {
        "astId": 13113,
        "contract": "contracts/HydraDistributor.sol:HydraDistributor",
        "label": "_prevHash",
        "offset": 0,
        "slot": "254",
        "type": "t_bytes32"
      }
    ],
    "types": {
      "t_address": {
        "encoding": "inplace",
        "label": "address",
        "numberOfBytes": "20"
      },
      "t_array(t_uint256)49_storage": {
        "base": "t_uint256",
        "encoding": "inplace",
        "label": "uint256[49]",
        "numberOfBytes": "1568"
      },
      "t_array(t_uint256)50_storage": {
        "base": "t_uint256",
        "encoding": "inplace",
        "label": "uint256[50]",
        "numberOfBytes": "1600"
      },
      "t_array(t_uint256)dyn_storage": {
        "base": "t_uint256",
        "encoding": "dynamic_array",
        "label": "uint256[]",
        "numberOfBytes": "32"
      },
      "t_bool": {
        "encoding": "inplace",
        "label": "bool",
        "numberOfBytes": "1"
      },
      "t_bytes32": {
        "encoding": "inplace",
        "label": "bytes32",
        "numberOfBytes": "32"
      },
      "t_contract(IERC721Upgradeable)2604": {
        "encoding": "inplace",
        "label": "contract IERC721Upgradeable",
        "numberOfBytes": "20"
      },
      "t_uint256": {
        "encoding": "inplace",
        "label": "uint256",
        "numberOfBytes": "32"
      },
      "t_uint8": {
        "encoding": "inplace",
        "label": "uint8",
        "numberOfBytes": "1"
      }
    }
  }
}