{
  "address": "0x251C1Cb4af7dAF55A3d1170839D8f5e6bbdeC379",
  "abi": [
    {
      "inputs": [],
      "stateMutability": "nonpayable",
      "type": "constructor"
    },
    {
      "anonymous": false,
      "inputs": [
        {
          "indexed": false,
          "internalType": "uint8",
          "name": "version",
          "type": "uint8"
        }
      ],
      "name": "Initialized",
      "type": "event"
    },
    {
      "anonymous": false,
      "inputs": [
        {
          "indexed": true,
          "internalType": "address",
          "name": "previousOwner",
          "type": "address"
        },
        {
          "indexed": true,
          "internalType": "address",
          "name": "newOwner",
          "type": "address"
        }
      ],
      "name": "OwnershipTransferred",
      "type": "event"
    },
    {
      "anonymous": false,
      "inputs": [
        {
          "indexed": false,
          "internalType": "address",
          "name": "account",
          "type": "address"
        }
      ],
      "name": "Paused",
      "type": "event"
    },
    {
      "anonymous": false,
      "inputs": [
        {
          "indexed": false,
          "internalType": "uint256",
          "name": "requestId",
          "type": "uint256"
        },
        {
          "indexed": false,
          "internalType": "uint256[]",
          "name": "randomWords",
          "type": "uint256[]"
        }
      ],
      "name": "RandomWordsReceived",
      "type": "event"
    },
    {
      "anonymous": false,
      "inputs": [
        {
          "indexed": false,
          "internalType": "uint256",
          "name": "requestId",
          "type": "uint256"
        },
        {
          "indexed": false,
          "internalType": "uint256",
          "name": "currentWinnerTicketCount",
          "type": "uint256"
        }
      ],
      "name": "RandomWordsRequested",
      "type": "event"
    },
    {
      "anonymous": false,
      "inputs": [
        {
          "indexed": true,
          "internalType": "address",
          "name": "to",
          "type": "address"
        },
        {
          "indexed": false,
          "internalType": "uint256",
          "name": "startTicketId",
          "type": "uint256"
        },
        {
          "indexed": false,
          "internalType": "uint256",
          "name": "endTicketId",
          "type": "uint256"
        }
      ],
      "name": "TicketDistributed",
      "type": "event"
    },
    {
      "anonymous": false,
      "inputs": [
        {
          "indexed": false,
          "internalType": "address",
          "name": "account",
          "type": "address"
        }
      ],
      "name": "Unpaused",
      "type": "event"
    },
    {
      "anonymous": false,
      "inputs": [
        {
          "indexed": true,
          "internalType": "address",
          "name": "user",
          "type": "address"
        },
        {
          "indexed": false,
          "internalType": "uint256",
          "name": "nftlAmount",
          "type": "uint256"
        }
      ],
      "name": "UserDeposited",
      "type": "event"
    },
    {
      "anonymous": false,
      "inputs": [
        {
          "indexed": true,
          "internalType": "address",
          "name": "by",
          "type": "address"
        },
        {
          "indexed": true,
          "internalType": "address",
          "name": "winner",
          "type": "address"
        },
        {
          "indexed": false,
          "internalType": "uint256",
          "name": "ticketId",
          "type": "uint256"
        },
        {
          "indexed": false,
          "internalType": "uint256",
          "name": "prizeTokenId",
          "type": "uint256"
        }
      ],
      "name": "WinnerSelected",
      "type": "event"
    },
    {
      "inputs": [],
      "name": "NFTL_AMOUNT_FOR_TICKET",
      "outputs": [
        {
          "internalType": "uint256",
          "name": "",
          "type": "uint256"
        }
      ],
      "stateMutability": "view",
      "type": "function"
    },
    {
      "inputs": [],
      "name": "cancelSubscription",
      "outputs": [],
      "stateMutability": "nonpayable",
      "type": "function"
    },
    {
      "inputs": [
        {
          "internalType": "uint256",
          "name": "_amount",
          "type": "uint256"
        }
      ],
      "name": "chargeLINK",
      "outputs": [],
      "stateMutability": "nonpayable",
      "type": "function"
    },
    {
      "inputs": [],
      "name": "currentWinnerTicketCount",
      "outputs": [
        {
          "internalType": "uint256",
          "name": "",
          "type": "uint256"
        }
      ],
      "stateMutability": "view",
      "type": "function"
    },
    {
      "inputs": [
        {
          "internalType": "uint256",
          "name": "_amount",
          "type": "uint256"
        }
      ],
      "name": "deposit",
      "outputs": [],
      "stateMutability": "nonpayable",
      "type": "function"
    },
    {
      "inputs": [
        {
          "internalType": "uint256[]",
          "name": "_prizeNFTTokenIds",
          "type": "uint256[]"
        }
      ],
      "name": "depositPrizeNFT",
      "outputs": [],
      "stateMutability": "nonpayable",
      "type": "function"
    },
    {
      "inputs": [
        {
          "internalType": "address[]",
          "name": "_holders",
          "type": "address[]"
        },
        {
          "internalType": "uint256[]",
          "name": "_keyCount",
          "type": "uint256[]"
        }
      ],
      "name": "distributeTicketsToCitadelKeyHolders",
      "outputs": [],
      "stateMutability": "nonpayable",
      "type": "function"
    },
    {
      "inputs": [
        {
          "internalType": "address",
          "name": "_user",
          "type": "address"
        }
      ],
      "name": "getTicketCountByUser",
      "outputs": [
        {
          "internalType": "uint256",
          "name": "",
          "type": "uint256"
        }
      ],
      "stateMutability": "view",
      "type": "function"
    },
    {
      "inputs": [
        {
          "internalType": "address",
          "name": "_user",
          "type": "address"
        }
      ],
      "name": "getTicketIdsByUser",
      "outputs": [
        {
          "internalType": "uint256[]",
          "name": "",
          "type": "uint256[]"
        }
      ],
      "stateMutability": "view",
      "type": "function"
    },
    {
      "inputs": [],
      "name": "getUserCount",
      "outputs": [
        {
          "internalType": "uint256",
          "name": "",
          "type": "uint256"
        }
      ],
      "stateMutability": "view",
      "type": "function"
    },
    {
      "inputs": [],
      "name": "getUserList",
      "outputs": [
        {
          "internalType": "address[]",
          "name": "",
          "type": "address[]"
        }
      ],
      "stateMutability": "view",
      "type": "function"
    },
    {
      "inputs": [],
      "name": "getWinners",
      "outputs": [
        {
          "components": [
            {
              "internalType": "uint256",
              "name": "ticketId",
              "type": "uint256"
            },
            {
              "internalType": "address",
              "name": "winner",
              "type": "address"
            },
            {
              "internalType": "uint256",
              "name": "prizeTokenId",
              "type": "uint256"
            }
          ],
          "internalType": "struct NFTLRaffle.WinnerInfo[]",
          "name": "",
          "type": "tuple[]"
        }
      ],
      "stateMutability": "view",
      "type": "function"
    },
    {
      "inputs": [
        {
          "internalType": "address",
          "name": "_nftl",
          "type": "address"
        },
        {
          "internalType": "uint256",
          "name": "_pendingPeriod",
          "type": "uint256"
        },
        {
          "internalType": "uint256",
          "name": "_totalWinnerTicketCount",
          "type": "uint256"
        },
        {
          "internalType": "address",
          "name": "_prizeNFT",
          "type": "address"
        },
        {
          "internalType": "address",
          "name": "_vrfCoordinator",
          "type": "address"
        }
      ],
      "name": "initialize",
      "outputs": [],
      "stateMutability": "nonpayable",
      "type": "function"
    },
    {
      "inputs": [
        {
          "internalType": "address",
          "name": "_consumer",
          "type": "address"
        },
        {
          "internalType": "bool",
          "name": "_add",
          "type": "bool"
        }
      ],
      "name": "manageConsumers",
      "outputs": [],
      "stateMutability": "nonpayable",
      "type": "function"
    },
    {
      "inputs": [],
      "name": "nftl",
      "outputs": [
        {
          "internalType": "contract IERC20BurnableUpgradeable",
          "name": "",
          "type": "address"
        }
      ],
      "stateMutability": "view",
      "type": "function"
    },
    {
      "inputs": [
        {
          "internalType": "address",
          "name": "",
          "type": "address"
        },
        {
          "internalType": "address",
          "name": "",
          "type": "address"
        },
        {
          "internalType": "uint256",
          "name": "",
          "type": "uint256"
        },
        {
          "internalType": "bytes",
          "name": "",
          "type": "bytes"
        }
      ],
      "name": "onERC721Received",
      "outputs": [
        {
          "internalType": "bytes4",
          "name": "",
          "type": "bytes4"
        }
      ],
      "stateMutability": "nonpayable",
      "type": "function"
    },
    {
      "inputs": [],
      "name": "owner",
      "outputs": [
        {
          "internalType": "address",
          "name": "",
          "type": "address"
        }
      ],
      "stateMutability": "view",
      "type": "function"
    },
    {
      "inputs": [],
      "name": "pause",
      "outputs": [],
      "stateMutability": "nonpayable",
      "type": "function"
    },
    {
      "inputs": [],
      "name": "paused",
      "outputs": [
        {
          "internalType": "bool",
          "name": "",
          "type": "bool"
        }
      ],
      "stateMutability": "view",
      "type": "function"
    },
    {
      "inputs": [],
      "name": "prizeNFT",
      "outputs": [
        {
          "internalType": "contract IERC721Upgradeable",
          "name": "",
          "type": "address"
        }
      ],
      "stateMutability": "view",
      "type": "function"
    },
    {
      "inputs": [
        {
          "internalType": "uint256",
          "name": "",
          "type": "uint256"
        }
      ],
      "name": "prizeNFTTokenIndex",
      "outputs": [
        {
          "internalType": "uint256",
          "name": "",
          "type": "uint256"
        }
      ],
      "stateMutability": "view",
      "type": "function"
    },
    {
      "inputs": [
        {
          "internalType": "uint256",
          "name": "",
          "type": "uint256"
        }
      ],
      "name": "prizeNFTokenIds",
      "outputs": [
        {
          "internalType": "uint256",
          "name": "",
          "type": "uint256"
        }
      ],
      "stateMutability": "view",
      "type": "function"
    },
    {
      "inputs": [],
      "name": "raffleStartAt",
      "outputs": [
        {
          "internalType": "uint256",
          "name": "",
          "type": "uint256"
        }
      ],
      "stateMutability": "view",
      "type": "function"
    },
    {
      "inputs": [
        {
          "internalType": "uint256",
          "name": "_requestId",
          "type": "uint256"
        },
        {
          "internalType": "uint256[]",
          "name": "_randomWords",
          "type": "uint256[]"
        }
      ],
      "name": "rawFulfillRandomWords",
      "outputs": [],
      "stateMutability": "nonpayable",
      "type": "function"
    },
    {
      "inputs": [],
      "name": "renounceOwnership",
      "outputs": [],
      "stateMutability": "nonpayable",
      "type": "function"
    },
    {
      "inputs": [],
      "name": "requestRandomWordsForWinnerSelection",
      "outputs": [
        {
          "internalType": "uint256",
          "name": "requestId",
          "type": "uint256"
        }
      ],
      "stateMutability": "nonpayable",
      "type": "function"
    },
    {
      "inputs": [],
      "name": "s_subscriptionId",
      "outputs": [
        {
          "internalType": "uint64",
          "name": "",
          "type": "uint64"
        }
      ],
      "stateMutability": "view",
      "type": "function"
    },
    {
      "inputs": [],
      "name": "totalTicketCount",
      "outputs": [
        {
          "internalType": "uint256",
          "name": "",
          "type": "uint256"
        }
      ],
      "stateMutability": "view",
      "type": "function"
    },
    {
      "inputs": [],
      "name": "totalWinnerTicketCount",
      "outputs": [
        {
          "internalType": "uint256",
          "name": "",
          "type": "uint256"
        }
      ],
      "stateMutability": "view",
      "type": "function"
    },
    {
      "inputs": [
        {
          "internalType": "address",
          "name": "newOwner",
          "type": "address"
        }
      ],
      "name": "transferOwnership",
      "outputs": [],
      "stateMutability": "nonpayable",
      "type": "function"
    },
    {
      "inputs": [],
      "name": "unpause",
      "outputs": [],
      "stateMutability": "nonpayable",
      "type": "function"
    },
    {
      "inputs": [
        {
          "internalType": "uint256",
          "name": "_raffleStartAt",
          "type": "uint256"
        }
      ],
      "name": "updateRaffleStartAt",
      "outputs": [],
      "stateMutability": "nonpayable",
      "type": "function"
    },
    {
      "inputs": [
        {
          "internalType": "uint256",
          "name": "_totalWinnerTicketCount",
          "type": "uint256"
        }
      ],
      "name": "updateTotalWinnerTicketCount",
      "outputs": [],
      "stateMutability": "nonpayable",
      "type": "function"
    },
    {
      "inputs": [
        {
          "internalType": "uint256",
          "name": "",
          "type": "uint256"
        }
      ],
      "name": "userByTicketId",
      "outputs": [
        {
          "internalType": "address",
          "name": "",
          "type": "address"
        }
      ],
      "stateMutability": "view",
      "type": "function"
    },
    {
      "inputs": [
        {
          "internalType": "address",
          "name": "",
          "type": "address"
        }
      ],
      "name": "userDeposits",
      "outputs": [
        {
          "internalType": "uint256",
          "name": "",
          "type": "uint256"
        }
      ],
      "stateMutability": "view",
      "type": "function"
    },
    {
      "inputs": [
        {
          "internalType": "uint256",
          "name": "",
          "type": "uint256"
        }
      ],
      "name": "winners",
      "outputs": [
        {
          "internalType": "uint256",
          "name": "ticketId",
          "type": "uint256"
        },
        {
          "internalType": "address",
          "name": "winner",
          "type": "address"
        },
        {
          "internalType": "uint256",
          "name": "prizeTokenId",
          "type": "uint256"
        }
      ],
      "stateMutability": "view",
      "type": "function"
    },
    {
      "inputs": [
        {
          "internalType": "address",
          "name": "_to",
          "type": "address"
        }
      ],
      "name": "withdrawLINK",
      "outputs": [],
      "stateMutability": "nonpayable",
      "type": "function"
    }
  ],
  "transactionHash": "0xd49bf4e34704748befa5db295dc053d49ee948e32bb7953f70adb570bcc92915",
  "args": [],
  "numDeployments": 1,
  "solcInputHash": "f0affa3a788a97e634cdc7a5ccf8c944",
  "bytecode": "0x60806040523480156200001157600080fd5b506200001c62000022565b620000e4565b600054610100900460ff16156200008f5760405162461bcd60e51b815260206004820152602760248201527f496e697469616c697a61626c653a20636f6e747261637420697320696e697469604482015266616c697a696e6760c81b606482015260840160405180910390fd5b60005460ff9081161015620000e2576000805460ff191660ff9081179091556040519081527f7f26b83ff96e1f2b6a682f133852f6798a09c465da95921460cefb38474024989060200160405180910390a15b565b61279980620000f46000396000f3fe608060405234801561001057600080fd5b50600436106102275760003560e01c80638456cb5911610130578063b6b55f25116100b8578063df15c37e1161007c578063df15c37e146104db578063e6c81c72146104f0578063f200006c14610503578063f2fde38b1461052c578063f716675a1461053f57600080fd5b8063b6b55f251461047a578063b85220431461048d578063bc7c7bc2146104a2578063bf384e10146104b5578063c67c11e6146104c857600080fd5b80638c2906d5116100ff5780638c2906d5146104055780638da5cb5b14610418578063a2fb117514610429578063a488af251461045f578063b5cb15f71461047257600080fd5b80638456cb59146103a557806384a1890e146103ad578063869c046c146103c05780638ac00021146103d357600080fd5b806333818c88116101b35780635c975abb116101825780635c975abb1461033f57806360d13168146103555780636ee7c19914610375578063715018a6146103955780637b762fac1461039d57600080fd5b806333818c88146102e95780633f4ba83a146102fc5780634e81da0a146103045780635671fc661461032f57600080fd5b8063150b7a02116101fa578063150b7a021461029057806319d750ce146102bc5780631fe543e3146102c557806324e9edb0146102d8578063323c1bb3146102e057600080fd5b806302e4bb9f1461022c57806303b54d52146102415780630ba36dcd1461025457806314558fab14610287575b600080fd5b61023f61023a366004612004565b610548565b005b61023f61024f366004612039565b610623565b610274610262366004612090565b60d76020526000908152604090205481565b6040519081526020015b60405180910390f35b61027460d25481565b6102a361029e3660046120f1565b6108ab565b6040516001600160e01b0319909116815260200161027e565b61027460cd5481565b61023f6102d3366004612224565b6108bc565b61023f610917565b61027460cf5481565b6102746102f7366004612004565b6109bb565b61023f6109dc565b60cc54610317906001600160a01b031681565b6040516001600160a01b03909116815260200161027e565b610274683635c9adc5dea0000081565b60655460ff16604051901515815260200161027e565b610368610363366004612090565b6109ee565b60405161027e91906122a5565b610274610383366004612004565b60ce6020526000908152604090205481565b61023f610a18565b610274610a2a565b61023f610bb3565b6102746103bb366004612090565b610bc3565b61023f6103ce366004612004565b610be4565b60c9546103ed90600160a01b90046001600160401b031681565b6040516001600160401b03909116815260200161027e565b61023f610413366004612303565b610c3c565b6033546001600160a01b0316610317565b61043c610437366004612004565b610dfa565b604080519384526001600160a01b0390921660208401529082015260600161027e565b61023f61046d366004612004565b610e39565b610274610e89565b61023f610488366004612004565b610e9a565b61049561100d565b60405161027e919061236e565b61023f6104b03660046123c9565b611019565b61023f6104c3366004612090565b6110d4565b61023f6104d6366004612400565b611174565b6104e36112b3565b60405161027e9190612434565b60ca54610317906001600160a01b031681565b610317610511366004612004565b60d9602052600090815260409020546001600160a01b031681565b61023f61053a366004612090565b611335565b61027460d05481565b61056873326c977e6efc84e512bb9c30f76e30c160ed06fb3330846113ab565b60c95460408051600160a01b83046001600160401b0316602082015273326c977e6efc84e512bb9c30f76e30c160ed06fb92634000aea0926001600160a01b03909116918591016040516020818303038152906040526040518463ffffffff1660e01b81526004016105dc939291906124ee565b6020604051808303816000875af11580156105fb573d6000803e3d6000fd5b505050506040513d601f19601f8201168201806040525081019061061f919061251e565b5050565b600054610100900460ff16158080156106435750600054600160ff909116105b8061065d5750303b15801561065d575060005460ff166001145b6106c55760405162461bcd60e51b815260206004820152602e60248201527f496e697469616c697a61626c653a20636f6e747261637420697320616c72656160448201526d191e481a5b9a5d1a585b1a5e995960921b60648201526084015b60405180910390fd5b6000805460ff1916600117905580156106e8576000805461ff0019166101001790555b6106f061141c565b6106f861144b565b61070061147a565b6001600160a01b0386166107265760405162461bcd60e51b81526004016106bc9061253b565b600085116107605760405162461bcd60e51b81526020600482015260076024820152663120646179202b60c81b60448201526064016106bc565b600084116107ab5760405162461bcd60e51b815260206004820152601860248201527716995c9bc81dda5b9b995c881d1a58dad95d0818dbdd5b9d60421b60448201526064016106bc565b6001600160a01b0383166107d15760405162461bcd60e51b81526004016106bc9061253b565b6001600160a01b0382166107f75760405162461bcd60e51b81526004016106bc9061253b565b60cc80546001600160a01b0319166001600160a01b03881617905561081c8542612577565b60cd5560cf84905560ca80546001600160a01b038086166001600160a01b03199283161790925560c980549285169290911691909117905561085c6114a1565b80156108a3576000805461ff0019169055604051600181527f7f26b83ff96e1f2b6a682f133852f6798a09c465da95921460cefb3847402498906020015b60405180910390a15b505050505050565b630a85bd0160e11b5b949350505050565b60c9546001600160a01b0316331461090d5760405162461bcd60e51b815260206004820152601460248201527327b7363c902b29231031b7b7b93234b730ba37b960611b60448201526064016106bc565b61061f82826115ab565b61091f6115b5565b60c9546001600160a01b0381169063d7ae1d30906001600160401b03600160a01b909104166109566033546001600160a01b031690565b6040518363ffffffff1660e01b815260040161097392919061258f565b600060405180830381600087803b15801561098d57600080fd5b505af11580156109a1573d6000803e3d6000fd5b505060c9805467ffffffffffffffff60a01b191690555050565b60cb81815481106109cb57600080fd5b600091825260209091200154905081565b6109e46115b5565b6109ec61160f565b565b6001600160a01b038116600090815260d860205260409020606090610a1290611661565b92915050565b610a206115b5565b6109ec6000611675565b6000610a346115b5565b4260cd541115610a775760405162461bcd60e51b815260206004820152600e60248201526d14195b991a5b99c81c195c9a5bd960921b60448201526064016106bc565b60cf5460d05410610abd5760405162461bcd60e51b815260206004820152601060248201526f52657175657374206f766572666c6f7760801b60448201526064016106bc565b610ac760d56116c7565b60d05460cf54610ad791906125b1565b1115610b1d5760405162461bcd60e51b81526020600482015260156024820152744e6f7420656e6f756768206465706f7369746f727360581b60448201526064016106bc565b6000600190508060d06000828254610b359190612577565b90915550610b449050816116d1565b9150600160d054610b5591906125b1565b600083815260ce602052604090205560d0547fc904ef81354df41ed9256aa2ab862017f6ab3f33f3f7ca50016a1786083d086d908390610b97906001906125b1565b6040805192835260208301919091520160405180910390a15090565b610bbb6115b5565b6109ec611791565b6001600160a01b038116600090815260d860205260408120610a12906116c7565b610bec6115b5565b60008111610c375760405162461bcd60e51b815260206004820152601860248201527716995c9bc81dda5b9b995c881d1a58dad95d0818dbdd5b9d60421b60448201526064016106bc565b60cf55565b610c446115b5565b82818114610c855760405162461bcd60e51b815260206004820152600e60248201526d496e76616c696420706172616d7360901b60448201526064016106bc565b60cd544210610cc05760405162461bcd60e51b8152602060048201526007602482015266115e1c1a5c995960ca1b60448201526064016106bc565b60005b818110156108a3576000868683818110610cdf57610cdf6125c8565b9050602002016020810190610cf49190612090565b90506000858584818110610d0a57610d0a6125c8565b905060200201356064610d1d91906125de565b9050610d32683635c9adc5dea00000826125de565b6001600160a01b038316600090815260d7602052604081208054909190610d5a908490612577565b90915550610d6b905060d3836117ce565b5060d254610d7a8382846117e3565b6001600160a01b0383167f7f640e5b7323aeb1bf30be14a85cea66e69d3cfd9493ee1cdd5058830c9e73dd826001610db28683612577565b610dbc91906125b1565b6040805192835260208301919091520160405180910390a28160d26000828254610de69190612577565b909155505060019093019250610cc3915050565b60d18181548110610e0a57600080fd5b60009182526020909120600390910201805460018201546002909201549092506001600160a01b039091169083565b610e416115b5565b804210610e845760405162461bcd60e51b81526020600482015260116024820152700496e76616c69642074696d657374616d7607c1b60448201526064016106bc565b60cd55565b6000610e9560d36116c7565b905090565b60cd544210610ed55760405162461bcd60e51b8152602060048201526007602482015266115e1c1a5c995960ca1b60448201526064016106bc565b60cc5460405163079cc67960e41b8152336004820152602481018390526001600160a01b03909116906379cc679090604401600060405180830381600087803b158015610f2157600080fd5b505af1158015610f35573d6000803e3d6000fd5b505033600090815260d7602052604081208054859450909250610f59908490612577565b90915550610f6a905060d3336117ce565b506000610f7633610bc3565b33600090815260d76020526040812054919250908290610fa090683635c9adc5dea0000090612613565b610faa91906125b1565b60d254909150610fbb3382846117e3565b8160d26000828254610fcd9190612577565b909155505060405184815233907f951fdc61d6a98f96098a17ea6ac287a6fd38aea6bef73083c93b274cb830107d9060200160405180910390a250505050565b6060610e9560d3611661565b6110216115b5565b806110945760c954604051639f87fad760e01b81526001600160a01b03821691639f87fad79161106691600160a01b90046001600160401b031690869060040161258f565b600060405180830381600087803b15801561108057600080fd5b505af11580156108a3573d6000803e3d6000fd5b60c954604051631cd0704360e21b81526001600160a01b03821691637341c10c9161106691600160a01b90046001600160401b031690869060040161258f565b6110dc6115b5565b6040516370a0823160e01b815230600482015261117190829073326c977e6efc84e512bb9c30f76e30c160ed06fb906370a0823190602401602060405180830381865afa158015611131573d6000803e3d6000fd5b505050506040513d601f19601f820116820180604052508101906111559190612627565b73326c977e6efc84e512bb9c30f76e30c160ed06fb919061185a565b50565b61117c6115b5565b805160cf5460cb5461118e9083612577565b146111d45760405162461bcd60e51b8152602060048201526016602482015275135a5cdb585d18da1959081c1c9a5e994818dbdd5b9d60521b60448201526064016106bc565b60005b818110156112ae5760008382815181106111f3576111f36125c8565b60209081029190910181015160ca546040805193840181526000845251635c46a7ef60e11b81529193506001600160a01b03169163b88d4fde9161123f91339130918791600401612640565b600060405180830381600087803b15801561125957600080fd5b505af115801561126d573d6000803e3d6000fd5b505060cb8054600181810183556000929092527fa7ce836d032b2bf62b7e2097a8e0a6d8aeb35405ad15271e96d3b0188a1d06fb01939093555050016111d7565b505050565b606060d1805480602002602001604051908101604052809291908181526020016000905b8282101561132c5760008481526020908190206040805160608101825260038602909201805483526001808201546001600160a01b0316848601526002909101549183019190915290835290920191016112d7565b50505050905090565b61133d6115b5565b6001600160a01b0381166113a25760405162461bcd60e51b815260206004820152602660248201527f4f776e61626c653a206e6577206f776e657220697320746865207a65726f206160448201526564647265737360d01b60648201526084016106bc565b61117181611675565b6040516001600160a01b03808516602483015283166044820152606481018290526114169085906323b872dd60e01b906084015b60408051601f198184030181529190526020810180516001600160e01b03166001600160e01b03199093169290921790915261188a565b50505050565b600054610100900460ff166114435760405162461bcd60e51b81526004016106bc9061267d565b6109ec61195c565b600054610100900460ff166114725760405162461bcd60e51b81526004016106bc9061267d565b6109ec61198c565b600054610100900460ff166109ec5760405162461bcd60e51b81526004016106bc9061267d565b60c960009054906101000a90046001600160a01b03166001600160a01b031663a21a23e46040518163ffffffff1660e01b81526004016020604051808303816000875af11580156114f6573d6000803e3d6000fd5b505050506040513d601f19601f8201168201806040525081019061151a91906126c8565b60c980546001600160401b03928316600160a01b90810267ffffffffffffffff60a01b198316811793849055604051631cd0704360e21b81526001600160a01b03918216919093161793637341c10c9361157d939290041690309060040161258f565b600060405180830381600087803b15801561159757600080fd5b505af1158015611416573d6000803e3d6000fd5b61061f82826119bf565b6033546001600160a01b031633146109ec5760405162461bcd60e51b815260206004820181905260248201527f4f776e61626c653a2063616c6c6572206973206e6f7420746865206f776e657260448201526064016106bc565b611617611c04565b6065805460ff191690557f5db9ee0a495bf2e6ff9c91a7834c1ba4fdd244a5e8aa4e537bd38aeae4b073aa335b6040516001600160a01b03909116815260200160405180910390a1565b6060600061166e83611c4d565b9392505050565b603380546001600160a01b038381166001600160a01b0319831681179093556040519116919082907f8be0079c531659141344cd1fd0a4f28419497f9722a3daafe3b4186f6b6457e090600090a35050565b6000610a12825490565b60c9546040516305d3b1d360e41b81527f79d3d8832d904592c0bf9818b621522c988bb8b0c05cdc3b15aea1b6e8db0c156004820152600160a01b82046001600160401b0316602482015260036044820152622625a0606482015263ffffffff831660848201526000916001600160a01b031690635d3b1d309060a4016020604051808303816000875af115801561176d573d6000803e3d6000fd5b505050506040513d601f19601f82011682018060405250810190610a129190612627565b611799611ca9565b6065805460ff191660011790557f62e78cea01bee320cd4e420270b5ea74000d11b0c9f74754ebdbfc544b05a2586116443390565b600061166e836001600160a01b038416611cef565b60005b818110156114165760006117fa8285612577565b905061180760d582611d3e565b506001600160a01b038516600090815260d86020526040902061182a9082611d3e565b50600090815260d96020526040902080546001600160a01b0319166001600160a01b0386161790556001016117e6565b6040516001600160a01b0383166024820152604481018290526112ae90849063a9059cbb60e01b906064016113df565b60006118df826040518060400160405280602081526020017f5361666545524332303a206c6f772d6c6576656c2063616c6c206661696c6564815250856001600160a01b0316611d4a9092919063ffffffff16565b8051909150156112ae57808060200190518101906118fd919061251e565b6112ae5760405162461bcd60e51b815260206004820152602a60248201527f5361666545524332303a204552433230206f7065726174696f6e20646964206e6044820152691bdd081cdd58d8d9595960b21b60648201526084016106bc565b600054610100900460ff166119835760405162461bcd60e51b81526004016106bc9061267d565b6109ec33611675565b600054610100900460ff166119b35760405162461bcd60e51b81526004016106bc9061267d565b6065805460ff19169055565b60006119cb60d56116c7565b826000815181106119de576119de6125c8565b60200260200101516119f091906126f1565b905060006119ff60d583611d59565b600081815260d9602090815260408083205488845260ce90925282205460cb80549495506001600160a01b03909216938110611a3d57611a3d6125c8565b600091825260208083209091015460ca546040805193840181529383529251635c46a7ef60e11b81529093506001600160a01b039092169163b88d4fde91611a8e9130918791879190600401612640565b600060405180830381600087803b158015611aa857600080fd5b505af1158015611abc573d6000803e3d6000fd5b5050604080516060810182528681526001600160a01b038681166020830190815292820186815260d1805460018101825560009190915292517f695fb3134ad82c3b8022bc5464edd0bcc9424ef672b52245dcb6ab2374327ce360039094029384015592517f695fb3134ad82c3b8022bc5464edd0bcc9424ef672b52245dcb6ab2374327ce4830180546001600160a01b0319169190921617905590517f695fb3134ad82c3b8022bc5464edd0bcc9424ef672b52245dcb6ab2374327ce59091015550611b8c905060d584611d65565b5060408051848152602081018390526001600160a01b0384169133917fef61d5e7c73a0488ebba4ce7e2cc6cab14e1c52e49e75a2dd6d2c242770db768910160405180910390a37f19a2c8ede94142b0c8ed074fd0a4778b9928cc8e06adc32dc2c1b36d69861067868660405161089a929190612705565b60655460ff166109ec5760405162461bcd60e51b815260206004820152601460248201527314185d5cd8589b194e881b9bdd081c185d5cd95960621b60448201526064016106bc565b606081600001805480602002602001604051908101604052809291908181526020018280548015611c9d57602002820191906000526020600020905b815481526020019060010190808311611c89575b50505050509050919050565b60655460ff16156109ec5760405162461bcd60e51b815260206004820152601060248201526f14185d5cd8589b194e881c185d5cd95960821b60448201526064016106bc565b6000818152600183016020526040812054611d3657508154600181810184556000848152602080822090930184905584548482528286019093526040902091909155610a12565b506000610a12565b600061166e8383611cef565b60606108b48484600085611d71565b600061166e8383611e4c565b600061166e8383611e76565b606082471015611dd25760405162461bcd60e51b815260206004820152602660248201527f416464726573733a20696e73756666696369656e742062616c616e636520666f6044820152651c8818d85b1b60d21b60648201526084016106bc565b600080866001600160a01b03168587604051611dee919061271e565b60006040518083038185875af1925050503d8060008114611e2b576040519150601f19603f3d011682016040523d82523d6000602084013e611e30565b606091505b5091509150611e4187838387611f69565b979650505050505050565b6000826000018281548110611e6357611e636125c8565b9060005260206000200154905092915050565b60008181526001830160205260408120548015611f5f576000611e9a6001836125b1565b8554909150600090611eae906001906125b1565b9050818114611f13576000866000018281548110611ece57611ece6125c8565b9060005260206000200154905080876000018481548110611ef157611ef16125c8565b6000918252602080832090910192909255918252600188019052604090208390555b8554869080611f2457611f2461273a565b600190038181906000526020600020016000905590558560010160008681526020019081526020016000206000905560019350505050610a12565b6000915050610a12565b60608315611fd5578251611fce576001600160a01b0385163b611fce5760405162461bcd60e51b815260206004820152601d60248201527f416464726573733a2063616c6c20746f206e6f6e2d636f6e747261637400000060448201526064016106bc565b50816108b4565b6108b48383815115611fea5781518083602001fd5b8060405162461bcd60e51b81526004016106bc9190612750565b60006020828403121561201657600080fd5b5035919050565b80356001600160a01b038116811461203457600080fd5b919050565b600080600080600060a0868803121561205157600080fd5b61205a8661201d565b945060208601359350604086013592506120766060870161201d565b91506120846080870161201d565b90509295509295909350565b6000602082840312156120a257600080fd5b61166e8261201d565b634e487b7160e01b600052604160045260246000fd5b604051601f8201601f191681016001600160401b03811182821017156120e9576120e96120ab565b604052919050565b6000806000806080858703121561210757600080fd5b6121108561201d565b9350602061211f81870161201d565b93506040860135925060608601356001600160401b038082111561214257600080fd5b818801915088601f83011261215657600080fd5b813581811115612168576121686120ab565b61217a601f8201601f191685016120c1565b9150808252898482850101111561219057600080fd5b808484018584013760008482840101525080935050505092959194509250565b600082601f8301126121c157600080fd5b813560206001600160401b038211156121dc576121dc6120ab565b8160051b6121eb8282016120c1565b928352848101820192828101908785111561220557600080fd5b83870192505b84831015611e415782358252918301919083019061220b565b6000806040838503121561223757600080fd5b8235915060208301356001600160401b0381111561225457600080fd5b612260858286016121b0565b9150509250929050565b600081518084526020808501945080840160005b8381101561229a5781518752958201959082019060010161227e565b509495945050505050565b60208152600061166e602083018461226a565b60008083601f8401126122ca57600080fd5b5081356001600160401b038111156122e157600080fd5b6020830191508360208260051b85010111156122fc57600080fd5b9250929050565b6000806000806040858703121561231957600080fd5b84356001600160401b038082111561233057600080fd5b61233c888389016122b8565b9096509450602087013591508082111561235557600080fd5b50612362878288016122b8565b95989497509550505050565b6020808252825182820181905260009190848201906040850190845b818110156123af5783516001600160a01b03168352928401929184019160010161238a565b50909695505050505050565b801515811461117157600080fd5b600080604083850312156123dc57600080fd5b6123e58361201d565b915060208301356123f5816123bb565b809150509250929050565b60006020828403121561241257600080fd5b81356001600160401b0381111561242857600080fd5b6108b4848285016121b0565b602080825282518282018190526000919060409081850190868401855b8281101561248957815180518552868101516001600160a01b0316878601528501518585015260609093019290850190600101612451565b5091979650505050505050565b60005b838110156124b1578181015183820152602001612499565b838111156114165750506000910152565b600081518084526124da816020860160208601612496565b601f01601f19169290920160200192915050565b60018060a01b038416815282602082015260606040820152600061251560608301846124c2565b95945050505050565b60006020828403121561253057600080fd5b815161166e816123bb565b6020808252600c908201526b5a65726f206164647265737360a01b604082015260600190565b634e487b7160e01b600052601160045260246000fd5b6000821982111561258a5761258a612561565b500190565b6001600160401b039290921682526001600160a01b0316602082015260400190565b6000828210156125c3576125c3612561565b500390565b634e487b7160e01b600052603260045260246000fd5b60008160001904831182151516156125f8576125f8612561565b500290565b634e487b7160e01b600052601260045260246000fd5b600082612622576126226125fd565b500490565b60006020828403121561263957600080fd5b5051919050565b6001600160a01b0385811682528416602082015260408101839052608060608201819052600090612673908301846124c2565b9695505050505050565b6020808252602b908201527f496e697469616c697a61626c653a20636f6e7472616374206973206e6f74206960408201526a6e697469616c697a696e6760a81b606082015260800190565b6000602082840312156126da57600080fd5b81516001600160401b038116811461166e57600080fd5b600082612700576127006125fd565b500690565b8281526040602082015260006108b4604083018461226a565b60008251612730818460208701612496565b9190910192915050565b634e487b7160e01b600052603160045260246000fd5b60208152600061166e60208301846124c256fea26469706673582212200b803a62ef4f0950e4bd63ca0cef3e73dc04b6874b8e7885bc5a3fda8f6e3de064736f6c634300080b0033",
  "devdoc": {
    "kind": "dev",
    "methods": {
      "constructor": {
        "custom:oz-upgrades-unsafe-allow": "constructor"
      },
      "onERC721Received(address,address,uint256,bytes)": {
        "details": "See {IERC721Receiver-onERC721Received}. Always returns `IERC721Receiver.onERC721Received.selector`."
      },
      "owner()": {
        "details": "Returns the address of the current owner."
      },
      "paused()": {
        "details": "Returns true if the contract is paused, and false otherwise."
      },
      "renounceOwnership()": {
        "details": "Leaves the contract without owner. It will not be possible to call `onlyOwner` functions anymore. Can only be called by the current owner. NOTE: Renouncing ownership will leave the contract without an owner, thereby removing any functionality that is only available to the owner."
      },
      "transferOwnership(address)": {
        "details": "Transfers ownership of the contract to a new account (`newOwner`). Can only be called by the current owner."
      }
    },
    "stateVariables": {
      "NFTL_AMOUNT_FOR_TICKET": {
        "details": "NFTL amount required for 1 ticket"
      },
      "_ticketIdList": {
        "details": "TokenId list"
      },
      "_ticketIdsByUser": {
        "details": "User -> Ticket Id list"
      },
      "_userList": {
        "details": "User list"
      },
      "currentWinnerTicketCount": {
        "details": "Current selected winner count"
      },
      "nftl": {
        "details": "NFTL address"
      },
      "prizeNFT": {
        "details": "Prize NFT (NiftyDegen) address"
      },
      "prizeNFTokenIds": {
        "details": "PrizeNFT TokenIds"
      },
      "raffleStartAt": {
        "details": "Timestamp the raffle start"
      },
      "totalTicketCount": {
        "details": "Total ticket count"
      },
      "totalWinnerTicketCount": {
        "details": "Total winner count to select"
      },
      "userByTicketId": {
        "details": "Ticket Id -> User"
      },
      "userDeposits": {
        "details": "User -> NFTL amount deposited"
      },
      "vrfCoordinator": {
        "details": "Chainlink VRF params"
      },
      "winners": {
        "details": "Winner list"
      }
    },
    "title": "NFTLRaffle",
    "version": 1
  },
  "userdoc": {
    "kind": "user",
    "methods": {
      "pause()": {
        "notice": "Pause the contract"
      },
      "unpause()": {
        "notice": "Unpause the contract"
      }
    },
    "version": 1
  },
  "storageLayout": {
    "storage": [
      {
        "astId": 329,
        "contract": "contracts/NFTLRaffle.sol:NFTLRaffle",
        "label": "_initialized",
        "offset": 0,
        "slot": "0",
        "type": "t_uint8"
      },
      {
        "astId": 332,
        "contract": "contracts/NFTLRaffle.sol:NFTLRaffle",
        "label": "_initializing",
        "offset": 1,
        "slot": "0",
        "type": "t_bool"
      },
      {
        "astId": 1519,
        "contract": "contracts/NFTLRaffle.sol:NFTLRaffle",
        "label": "__gap",
        "offset": 0,
        "slot": "1",
        "type": "t_array(t_uint256)50_storage"
      },
      {
        "astId": 201,
        "contract": "contracts/NFTLRaffle.sol:NFTLRaffle",
        "label": "_owner",
        "offset": 0,
        "slot": "51",
        "type": "t_address"
      },
      {
        "astId": 321,
        "contract": "contracts/NFTLRaffle.sol:NFTLRaffle",
        "label": "__gap",
        "offset": 0,
        "slot": "52",
        "type": "t_array(t_uint256)49_storage"
      },
      {
        "astId": 512,
        "contract": "contracts/NFTLRaffle.sol:NFTLRaffle",
        "label": "_paused",
        "offset": 0,
        "slot": "101",
        "type": "t_bool"
      },
      {
        "astId": 617,
        "contract": "contracts/NFTLRaffle.sol:NFTLRaffle",
        "label": "__gap",
        "offset": 0,
        "slot": "102",
        "type": "t_array(t_uint256)49_storage"
      },
      {
        "astId": 1193,
        "contract": "contracts/NFTLRaffle.sol:NFTLRaffle",
        "label": "__gap",
        "offset": 0,
        "slot": "151",
        "type": "t_array(t_uint256)50_storage"
      },
      {
        "astId": 2197,
        "contract": "contracts/NFTLRaffle.sol:NFTLRaffle",
        "label": "vrfCoordinator",
        "offset": 0,
        "slot": "201",
        "type": "t_address"
      },
      {
        "astId": 2211,
        "contract": "contracts/NFTLRaffle.sol:NFTLRaffle",
        "label": "s_subscriptionId",
        "offset": 20,
        "slot": "201",
        "type": "t_uint64"
      },
      {
        "astId": 2215,
        "contract": "contracts/NFTLRaffle.sol:NFTLRaffle",
        "label": "prizeNFT",
        "offset": 0,
        "slot": "202",
        "type": "t_contract(IERC721Upgradeable)1147"
      },
      {
        "astId": 2219,
        "contract": "contracts/NFTLRaffle.sol:NFTLRaffle",
        "label": "prizeNFTokenIds",
        "offset": 0,
        "slot": "203",
        "type": "t_array(t_uint256)dyn_storage"
      },
      {
        "astId": 2223,
        "contract": "contracts/NFTLRaffle.sol:NFTLRaffle",
        "label": "nftl",
        "offset": 0,
        "slot": "204",
        "type": "t_contract(IERC20BurnableUpgradeable)2166"
      },
      {
        "astId": 2226,
        "contract": "contracts/NFTLRaffle.sol:NFTLRaffle",
        "label": "raffleStartAt",
        "offset": 0,
        "slot": "205",
        "type": "t_uint256"
      },
      {
        "astId": 2230,
        "contract": "contracts/NFTLRaffle.sol:NFTLRaffle",
        "label": "prizeNFTTokenIndex",
        "offset": 0,
        "slot": "206",
        "type": "t_mapping(t_uint256,t_uint256)"
      },
      {
        "astId": 2233,
        "contract": "contracts/NFTLRaffle.sol:NFTLRaffle",
        "label": "totalWinnerTicketCount",
        "offset": 0,
        "slot": "207",
        "type": "t_uint256"
      },
      {
        "astId": 2236,
        "contract": "contracts/NFTLRaffle.sol:NFTLRaffle",
        "label": "currentWinnerTicketCount",
        "offset": 0,
        "slot": "208",
        "type": "t_uint256"
      },
      {
        "astId": 2241,
        "contract": "contracts/NFTLRaffle.sol:NFTLRaffle",
        "label": "winners",
        "offset": 0,
        "slot": "209",
        "type": "t_array(t_struct(WinnerInfo)2194_storage)dyn_storage"
      },
      {
        "astId": 2244,
        "contract": "contracts/NFTLRaffle.sol:NFTLRaffle",
        "label": "totalTicketCount",
        "offset": 0,
        "slot": "210",
        "type": "t_uint256"
      },
      {
        "astId": 2256,
        "contract": "contracts/NFTLRaffle.sol:NFTLRaffle",
        "label": "_userList",
        "offset": 0,
        "slot": "211",
        "type": "t_struct(AddressSet)1858_storage"
      },
      {
        "astId": 2260,
        "contract": "contracts/NFTLRaffle.sol:NFTLRaffle",
        "label": "_ticketIdList",
        "offset": 0,
        "slot": "213",
        "type": "t_struct(UintSet)2015_storage"
      },
      {
        "astId": 2265,
        "contract": "contracts/NFTLRaffle.sol:NFTLRaffle",
        "label": "userDeposits",
        "offset": 0,
        "slot": "215",
        "type": "t_mapping(t_address,t_uint256)"
      },
      {
        "astId": 2271,
        "contract": "contracts/NFTLRaffle.sol:NFTLRaffle",
        "label": "_ticketIdsByUser",
        "offset": 0,
        "slot": "216",
        "type": "t_mapping(t_address,t_struct(UintSet)2015_storage)"
      },
      {
        "astId": 2276,
        "contract": "contracts/NFTLRaffle.sol:NFTLRaffle",
        "label": "userByTicketId",
        "offset": 0,
        "slot": "217",
        "type": "t_mapping(t_uint256,t_address)"
      }
    ],
    "types": {
      "t_address": {
        "encoding": "inplace",
        "label": "address",
        "numberOfBytes": "20"
      },
      "t_array(t_bytes32)dyn_storage": {
        "base": "t_bytes32",
        "encoding": "dynamic_array",
        "label": "bytes32[]",
        "numberOfBytes": "32"
      },
      "t_array(t_struct(WinnerInfo)2194_storage)dyn_storage": {
        "base": "t_struct(WinnerInfo)2194_storage",
        "encoding": "dynamic_array",
        "label": "struct NFTLRaffle.WinnerInfo[]",
        "numberOfBytes": "32"
      },
      "t_array(t_uint256)49_storage": {
        "base": "t_uint256",
        "encoding": "inplace",
        "label": "uint256[49]",
        "numberOfBytes": "1568"
      },
      "t_array(t_uint256)50_storage": {
        "base": "t_uint256",
        "encoding": "inplace",
        "label": "uint256[50]",
        "numberOfBytes": "1600"
      },
      "t_array(t_uint256)dyn_storage": {
        "base": "t_uint256",
        "encoding": "dynamic_array",
        "label": "uint256[]",
        "numberOfBytes": "32"
      },
      "t_bool": {
        "encoding": "inplace",
        "label": "bool",
        "numberOfBytes": "1"
      },
      "t_bytes32": {
        "encoding": "inplace",
        "label": "bytes32",
        "numberOfBytes": "32"
      },
      "t_contract(IERC20BurnableUpgradeable)2166": {
        "encoding": "inplace",
        "label": "contract IERC20BurnableUpgradeable",
        "numberOfBytes": "20"
      },
      "t_contract(IERC721Upgradeable)1147": {
        "encoding": "inplace",
        "label": "contract IERC721Upgradeable",
        "numberOfBytes": "20"
      },
      "t_mapping(t_address,t_struct(UintSet)2015_storage)": {
        "encoding": "mapping",
        "key": "t_address",
        "label": "mapping(address => struct EnumerableSetUpgradeable.UintSet)",
        "numberOfBytes": "32",
        "value": "t_struct(UintSet)2015_storage"
      },
      "t_mapping(t_address,t_uint256)": {
        "encoding": "mapping",
        "key": "t_address",
        "label": "mapping(address => uint256)",
        "numberOfBytes": "32",
        "value": "t_uint256"
      },
      "t_mapping(t_bytes32,t_uint256)": {
        "encoding": "mapping",
        "key": "t_bytes32",
        "label": "mapping(bytes32 => uint256)",
        "numberOfBytes": "32",
        "value": "t_uint256"
      },
      "t_mapping(t_uint256,t_address)": {
        "encoding": "mapping",
        "key": "t_uint256",
        "label": "mapping(uint256 => address)",
        "numberOfBytes": "32",
        "value": "t_address"
      },
      "t_mapping(t_uint256,t_uint256)": {
        "encoding": "mapping",
        "key": "t_uint256",
        "label": "mapping(uint256 => uint256)",
        "numberOfBytes": "32",
        "value": "t_uint256"
      },
      "t_struct(AddressSet)1858_storage": {
        "encoding": "inplace",
        "label": "struct EnumerableSetUpgradeable.AddressSet",
        "members": [
          {
            "astId": 1857,
            "contract": "contracts/NFTLRaffle.sol:NFTLRaffle",
            "label": "_inner",
            "offset": 0,
            "slot": "0",
            "type": "t_struct(Set)1543_storage"
          }
        ],
        "numberOfBytes": "64"
      },
      "t_struct(Set)1543_storage": {
        "encoding": "inplace",
        "label": "struct EnumerableSetUpgradeable.Set",
        "members": [
          {
            "astId": 1538,
            "contract": "contracts/NFTLRaffle.sol:NFTLRaffle",
            "label": "_values",
            "offset": 0,
            "slot": "0",
            "type": "t_array(t_bytes32)dyn_storage"
          },
          {
            "astId": 1542,
            "contract": "contracts/NFTLRaffle.sol:NFTLRaffle",
            "label": "_indexes",
            "offset": 0,
            "slot": "1",
            "type": "t_mapping(t_bytes32,t_uint256)"
          }
        ],
        "numberOfBytes": "64"
      },
      "t_struct(UintSet)2015_storage": {
        "encoding": "inplace",
        "label": "struct EnumerableSetUpgradeable.UintSet",
        "members": [
          {
            "astId": 2014,
            "contract": "contracts/NFTLRaffle.sol:NFTLRaffle",
            "label": "_inner",
            "offset": 0,
            "slot": "0",
            "type": "t_struct(Set)1543_storage"
          }
        ],
        "numberOfBytes": "64"
      },
      "t_struct(WinnerInfo)2194_storage": {
        "encoding": "inplace",
        "label": "struct NFTLRaffle.WinnerInfo",
        "members": [
          {
            "astId": 2189,
            "contract": "contracts/NFTLRaffle.sol:NFTLRaffle",
            "label": "ticketId",
            "offset": 0,
            "slot": "0",
            "type": "t_uint256"
          },
          {
            "astId": 2191,
            "contract": "contracts/NFTLRaffle.sol:NFTLRaffle",
            "label": "winner",
            "offset": 0,
            "slot": "1",
            "type": "t_address"
          },
          {
            "astId": 2193,
            "contract": "contracts/NFTLRaffle.sol:NFTLRaffle",
            "label": "prizeTokenId",
            "offset": 0,
            "slot": "2",
            "type": "t_uint256"
          }
        ],
        "numberOfBytes": "96"
      },
      "t_uint256": {
        "encoding": "inplace",
        "label": "uint256",
        "numberOfBytes": "32"
      },
      "t_uint64": {
        "encoding": "inplace",
        "label": "uint64",
        "numberOfBytes": "8"
      },
      "t_uint8": {
        "encoding": "inplace",
        "label": "uint8",
        "numberOfBytes": "1"
      }
    }
  }
}