{
  "address": "0xacb1C5FF50A3DEB4f7A600C655cd23a8EbBCf56B",
  "abi": [
    {
      "inputs": [],
      "stateMutability": "nonpayable",
      "type": "constructor"
    },
    {
      "anonymous": false,
      "inputs": [
        {
          "indexed": false,
          "internalType": "uint8",
          "name": "version",
          "type": "uint8"
        }
      ],
      "name": "Initialized",
      "type": "event"
    },
    {
      "anonymous": false,
      "inputs": [
        {
          "indexed": true,
          "internalType": "address",
          "name": "previousOwner",
          "type": "address"
        },
        {
          "indexed": true,
          "internalType": "address",
          "name": "newOwner",
          "type": "address"
        }
      ],
      "name": "OwnershipTransferred",
      "type": "event"
    },
    {
      "anonymous": false,
      "inputs": [
        {
          "indexed": false,
          "internalType": "address",
          "name": "account",
          "type": "address"
        }
      ],
      "name": "Paused",
      "type": "event"
    },
    {
      "anonymous": false,
      "inputs": [
        {
          "indexed": false,
          "internalType": "uint256[]",
          "name": "randomWords",
          "type": "uint256[]"
        }
      ],
      "name": "RandomWordsReceived",
      "type": "event"
    },
    {
      "anonymous": false,
      "inputs": [
        {
          "indexed": false,
          "internalType": "uint256",
          "name": "requestId",
          "type": "uint256"
        }
      ],
      "name": "RandomWordsRequested",
      "type": "event"
    },
    {
      "anonymous": false,
      "inputs": [
        {
          "indexed": true,
          "internalType": "address",
          "name": "to",
          "type": "address"
        },
        {
          "indexed": false,
          "internalType": "uint256",
          "name": "startTicketId",
          "type": "uint256"
        },
        {
          "indexed": false,
          "internalType": "uint256",
          "name": "endTicketId",
          "type": "uint256"
        }
      ],
      "name": "TicketDistributed",
      "type": "event"
    },
    {
      "anonymous": false,
      "inputs": [
        {
          "indexed": false,
          "internalType": "address",
          "name": "account",
          "type": "address"
        }
      ],
      "name": "Unpaused",
      "type": "event"
    },
    {
      "anonymous": false,
      "inputs": [
        {
          "indexed": true,
          "internalType": "address",
          "name": "user",
          "type": "address"
        },
        {
          "indexed": false,
          "internalType": "uint256",
          "name": "nftlAmount",
          "type": "uint256"
        }
      ],
      "name": "UserDeposited",
      "type": "event"
    },
    {
      "anonymous": false,
      "inputs": [
        {
          "indexed": true,
          "internalType": "address",
          "name": "by",
          "type": "address"
        },
        {
          "indexed": true,
          "internalType": "address",
          "name": "winner",
          "type": "address"
        },
        {
          "indexed": false,
          "internalType": "uint256",
          "name": "ticketId",
          "type": "uint256"
        }
      ],
      "name": "WinnerSelected",
      "type": "event"
    },
    {
      "inputs": [],
      "name": "NFTL_AMOUNT_FOR_TICKET",
      "outputs": [
        {
          "internalType": "uint256",
          "name": "",
          "type": "uint256"
        }
      ],
      "stateMutability": "view",
      "type": "function"
    },
    {
      "inputs": [],
      "name": "cancelSubscription",
      "outputs": [],
      "stateMutability": "nonpayable",
      "type": "function"
    },
    {
      "inputs": [
        {
          "internalType": "uint256",
          "name": "_amount",
          "type": "uint256"
        }
      ],
      "name": "chargeLINK",
      "outputs": [],
      "stateMutability": "nonpayable",
      "type": "function"
    },
    {
      "inputs": [
        {
          "internalType": "uint256",
          "name": "_amount",
          "type": "uint256"
        }
      ],
      "name": "deposit",
      "outputs": [],
      "stateMutability": "nonpayable",
      "type": "function"
    },
    {
      "inputs": [
        {
          "internalType": "address[]",
          "name": "_holders",
          "type": "address[]"
        },
        {
          "internalType": "uint256[]",
          "name": "_keyCount",
          "type": "uint256[]"
        }
      ],
      "name": "distributeTicketsToCitadelKeyHolders",
      "outputs": [],
      "stateMutability": "nonpayable",
      "type": "function"
    },
    {
      "inputs": [
        {
          "internalType": "address",
          "name": "_user",
          "type": "address"
        }
      ],
      "name": "getTicketCountByUser",
      "outputs": [
        {
          "internalType": "uint256",
          "name": "",
          "type": "uint256"
        }
      ],
      "stateMutability": "view",
      "type": "function"
    },
    {
      "inputs": [
        {
          "internalType": "address",
          "name": "_user",
          "type": "address"
        }
      ],
      "name": "getTicketIdsByUser",
      "outputs": [
        {
          "internalType": "uint256[]",
          "name": "",
          "type": "uint256[]"
        }
      ],
      "stateMutability": "view",
      "type": "function"
    },
    {
      "inputs": [],
      "name": "getUserCount",
      "outputs": [
        {
          "internalType": "uint256",
          "name": "",
          "type": "uint256"
        }
      ],
      "stateMutability": "view",
      "type": "function"
    },
    {
      "inputs": [],
      "name": "getUserList",
      "outputs": [
        {
          "internalType": "address[]",
          "name": "",
          "type": "address[]"
        }
      ],
      "stateMutability": "view",
      "type": "function"
    },
    {
      "inputs": [],
      "name": "getWinners",
      "outputs": [
        {
          "components": [
            {
              "internalType": "uint256",
              "name": "ticketId",
              "type": "uint256"
            },
            {
              "internalType": "address",
              "name": "winner",
              "type": "address"
            }
          ],
          "internalType": "struct NFTLRaffle.WinnerInfo[]",
          "name": "",
          "type": "tuple[]"
        }
      ],
      "stateMutability": "view",
      "type": "function"
    },
    {
      "inputs": [
        {
          "internalType": "address",
          "name": "_nftl",
          "type": "address"
        },
        {
          "internalType": "uint256",
          "name": "_pendingPeriod",
          "type": "uint256"
        },
        {
          "internalType": "uint256",
          "name": "_totalWinnerTicketCount",
          "type": "uint256"
        },
        {
          "internalType": "address",
          "name": "_vrfCoordinator",
          "type": "address"
        }
      ],
      "name": "initialize",
      "outputs": [],
      "stateMutability": "nonpayable",
      "type": "function"
    },
    {
      "inputs": [
        {
          "internalType": "address",
          "name": "_consumer",
          "type": "address"
        },
        {
          "internalType": "bool",
          "name": "_add",
          "type": "bool"
        }
      ],
      "name": "manageConsumers",
      "outputs": [],
      "stateMutability": "nonpayable",
      "type": "function"
    },
    {
      "inputs": [],
      "name": "nftl",
      "outputs": [
        {
          "internalType": "contract IERC20BurnableUpgradeable",
          "name": "",
          "type": "address"
        }
      ],
      "stateMutability": "view",
      "type": "function"
    },
    {
      "inputs": [],
      "name": "owner",
      "outputs": [
        {
          "internalType": "address",
          "name": "",
          "type": "address"
        }
      ],
      "stateMutability": "view",
      "type": "function"
    },
    {
      "inputs": [],
      "name": "pause",
      "outputs": [],
      "stateMutability": "nonpayable",
      "type": "function"
    },
    {
      "inputs": [],
      "name": "paused",
      "outputs": [
        {
          "internalType": "bool",
          "name": "",
          "type": "bool"
        }
      ],
      "stateMutability": "view",
      "type": "function"
    },
    {
      "inputs": [],
      "name": "raffleStartAt",
      "outputs": [
        {
          "internalType": "uint256",
          "name": "",
          "type": "uint256"
        }
      ],
      "stateMutability": "view",
      "type": "function"
    },
    {
      "inputs": [
        {
          "internalType": "uint256",
          "name": "_requestId",
          "type": "uint256"
        },
        {
          "internalType": "uint256[]",
          "name": "_randomWords",
          "type": "uint256[]"
        }
      ],
      "name": "rawFulfillRandomWords",
      "outputs": [],
      "stateMutability": "nonpayable",
      "type": "function"
    },
    {
      "inputs": [],
      "name": "renounceOwnership",
      "outputs": [],
      "stateMutability": "nonpayable",
      "type": "function"
    },
    {
      "inputs": [],
      "name": "requestRandomWordsForWinnerSelection",
      "outputs": [
        {
          "internalType": "uint256",
          "name": "requestId",
          "type": "uint256"
        }
      ],
      "stateMutability": "nonpayable",
      "type": "function"
    },
    {
      "inputs": [],
      "name": "s_subscriptionId",
      "outputs": [
        {
          "internalType": "uint64",
          "name": "",
          "type": "uint64"
        }
      ],
      "stateMutability": "view",
      "type": "function"
    },
    {
      "inputs": [],
      "name": "totalTicketCount",
      "outputs": [
        {
          "internalType": "uint256",
          "name": "",
          "type": "uint256"
        }
      ],
      "stateMutability": "view",
      "type": "function"
    },
    {
      "inputs": [],
      "name": "totalWinnerTicketCount",
      "outputs": [
        {
          "internalType": "uint256",
          "name": "",
          "type": "uint256"
        }
      ],
      "stateMutability": "view",
      "type": "function"
    },
    {
      "inputs": [
        {
          "internalType": "address",
          "name": "newOwner",
          "type": "address"
        }
      ],
      "name": "transferOwnership",
      "outputs": [],
      "stateMutability": "nonpayable",
      "type": "function"
    },
    {
      "inputs": [],
      "name": "unpause",
      "outputs": [],
      "stateMutability": "nonpayable",
      "type": "function"
    },
    {
      "inputs": [
        {
          "internalType": "uint256",
          "name": "_raffleStartAt",
          "type": "uint256"
        }
      ],
      "name": "updateRaffleStartAt",
      "outputs": [],
      "stateMutability": "nonpayable",
      "type": "function"
    },
    {
      "inputs": [
        {
          "internalType": "uint256",
          "name": "_totalWinnerTicketCount",
          "type": "uint256"
        }
      ],
      "name": "updateTotalWinnerTicketCount",
      "outputs": [],
      "stateMutability": "nonpayable",
      "type": "function"
    },
    {
      "inputs": [
        {
          "internalType": "uint256",
          "name": "",
          "type": "uint256"
        }
      ],
      "name": "userByTicketId",
      "outputs": [
        {
          "internalType": "address",
          "name": "",
          "type": "address"
        }
      ],
      "stateMutability": "view",
      "type": "function"
    },
    {
      "inputs": [
        {
          "internalType": "address",
          "name": "",
          "type": "address"
        }
      ],
      "name": "userDeposits",
      "outputs": [
        {
          "internalType": "uint256",
          "name": "",
          "type": "uint256"
        }
      ],
      "stateMutability": "view",
      "type": "function"
    },
    {
      "inputs": [
        {
          "internalType": "uint256",
          "name": "",
          "type": "uint256"
        }
      ],
      "name": "winners",
      "outputs": [
        {
          "internalType": "uint256",
          "name": "ticketId",
          "type": "uint256"
        },
        {
          "internalType": "address",
          "name": "winner",
          "type": "address"
        }
      ],
      "stateMutability": "view",
      "type": "function"
    }
  ],
  "transactionHash": "0x365894e570e5da41facb8d75234ea2d4dfa39ec4a9334e5412936ef5c2c1ea30",
  "args": [],
  "numDeployments": 3,
  "solcInputHash": "23abc1fd9d45d68ac1216ee654cb2618",
  "bytecode": "0x608060405234801561001057600080fd5b5061001961001e565b6100de565b600054610100900460ff161561008a5760405162461bcd60e51b815260206004820152602760248201527f496e697469616c697a61626c653a20636f6e747261637420697320696e697469604482015266616c697a696e6760c81b606482015260840160405180910390fd5b60005460ff90811610156100dc576000805460ff191660ff9081179091556040519081527f7f26b83ff96e1f2b6a682f133852f6798a09c465da95921460cefb38474024989060200160405180910390a15b565b6121e580620000ee6000396000f3fe608060405234801561001057600080fd5b50600436106101da5760003560e01c806384a1890e11610104578063a488af25116100a2578063bc7c7bc211610071578063bc7c7bc2146103f0578063df15c37e14610403578063f200006c14610418578063f2fde38b1461044157600080fd5b8063a488af25146103ad578063b5cb15f7146103c0578063b6b55f25146103c8578063b8522043146103db57600080fd5b80638c2906d5116100de5780638c2906d5146103465780638da5cb5b146103595780639e3d87cd1461036a578063a2fb11751461037d57600080fd5b806384a1890e146102ee578063869c046c146103015780638ac000211461031457600080fd5b80633f4ba83a1161017c57806360d131681161014b57806360d13168146102b6578063715018a6146102d65780637b762fac146102de5780638456cb59146102e657600080fd5b80633f4ba83a1461025d5780634e81da0a146102655780635671fc66146102905780635c975abb146102a057600080fd5b806319d750ce116101b857806319d750ce146102305780631fe543e31461023957806324e9edb01461024c578063323c1bb31461025457600080fd5b806302e4bb9f146101df5780630ba36dcd146101f457806314558fab14610227575b600080fd5b6101f26101ed366004611c11565b610454565b005b610214610202366004611c46565b60a26020526000908152604090205481565b6040519081526020015b60405180910390f35b610214609d5481565b610214609a5481565b6101f2610247366004611c77565b61052f565b6101f261058f565b610214609b5481565b6101f2610633565b609954610278906001600160a01b031681565b6040516001600160a01b03909116815260200161021e565b610214683635c9adc5dea0000081565b60655460ff16604051901515815260200161021e565b6102c96102c4366004611c46565b610645565b60405161021e9190611d40565b6101f261066f565b610214610681565b6101f26107ae565b6102146102fc366004611c46565b6107be565b6101f261030f366004611c11565b6107df565b60975461032e90600160a01b90046001600160401b031681565b6040516001600160401b03909116815260200161021e565b6101f2610354366004611dcf565b610837565b6033546001600160a01b0316610278565b6101f2610378366004611e3a565b6109fd565b61039061038b366004611c11565b610c79565b604080519283526001600160a01b0390911660208301520161021e565b6101f26103bb366004611c11565b610cb0565b610214610d00565b6101f26103d6366004611c11565b610d11565b6103e3610e84565b60405161021e9190611e80565b6101f26103fe366004611ecf565b610e90565b61040b610f4b565b60405161021e9190611f06565b610278610426366004611c11565b60a4602052600090815260409020546001600160a01b031681565b6101f261044f366004611c46565b610fc0565b61047473326c977e6efc84e512bb9c30f76e30c160ed06fb333084611039565b60975460408051600160a01b83046001600160401b0316602082015273326c977e6efc84e512bb9c30f76e30c160ed06fb92634000aea0926001600160a01b03909116918591016040516020818303038152906040526040518463ffffffff1660e01b81526004016104e893929190611fb6565b6020604051808303816000875af1158015610507573d6000803e3d6000fd5b505050506040513d601f19601f8201168201806040525081019061052b9190611fe6565b5050565b6097546001600160a01b031633146105855760405162461bcd60e51b815260206004820152601460248201527327b7363c902b29231031b7b7b93234b730ba37b960611b60448201526064015b60405180910390fd5b61052b8282611099565b6105976110a3565b6097546001600160a01b0381169063d7ae1d30906001600160401b03600160a01b909104166105ce6033546001600160a01b031690565b6040518363ffffffff1660e01b81526004016105eb929190612003565b600060405180830381600087803b15801561060557600080fd5b505af1158015610619573d6000803e3d6000fd5b50506097805467ffffffffffffffff60a01b191690555050565b61063b6110a3565b6106436110fd565b565b6001600160a01b038116600090815260a3602052604090206060906106699061114f565b92915050565b6106776110a3565b6106436000611163565b600061068b6110a3565b42609a5411156106ce5760405162461bcd60e51b815260206004820152600e60248201526d14195b991a5b99c81c195c9a5bd960921b604482015260640161057c565b6106d860a06111b5565b609b5411156107215760405162461bcd60e51b81526020600482015260156024820152744e6f7420656e6f756768206465706f7369746f727360581b604482015260640161057c565b609854156107655760405162461bcd60e51b8152602060048201526011602482015270105b1c9958591e481c995c5d595cdd1959607a1b604482015260640161057c565b610770609b546111bf565b60988190556040518181529091507f7fcb39adb5b831fa03838de8ac6af690f48e3339ee8300eff17b1cd8035054df9060200160405180910390a190565b6107b66110a3565b61064361127f565b6001600160a01b038116600090815260a360205260408120610669906111b5565b6107e76110a3565b600081116108325760405162461bcd60e51b815260206004820152601860248201527716995c9bc81dda5b9b995c881d1a58dad95d0818dbdd5b9d60421b604482015260640161057c565b609b55565b61083f6110a3565b828181146108805760405162461bcd60e51b815260206004820152600e60248201526d496e76616c696420706172616d7360901b604482015260640161057c565b609a5442106108bb5760405162461bcd60e51b8152602060048201526007602482015266115e1c1a5c995960ca1b604482015260640161057c565b60005b818110156109f55760008686838181106108da576108da612025565b90506020020160208101906108ef9190611c46565b9050600085858481811061090557610905612025565b9050602002013560646109189190612051565b905061092d683635c9adc5dea0000082612051565b6001600160a01b038316600090815260a2602052604081208054909190610955908490612070565b909155506109669050609e836112bc565b50609d546109758382846112d1565b6001600160a01b0383167f7f640e5b7323aeb1bf30be14a85cea66e69d3cfd9493ee1cdd5058830c9e73dd8260016109ad8683612070565b6109b79190612088565b6040805192835260208301919091520160405180910390a281609d60008282546109e19190612070565b9091555050600190930192506108be915050565b505050505050565b600054610100900460ff1615808015610a1d5750600054600160ff909116105b80610a375750303b158015610a37575060005460ff166001145b610a9a5760405162461bcd60e51b815260206004820152602e60248201527f496e697469616c697a61626c653a20636f6e747261637420697320616c72656160448201526d191e481a5b9a5d1a585b1a5e995960921b606482015260840161057c565b6000805460ff191660011790558015610abd576000805461ff0019166101001790555b610ac5611348565b610acd611377565b6001600160a01b038516610b125760405162461bcd60e51b815260206004820152600c60248201526b5a65726f206164647265737360a01b604482015260640161057c565b60008411610b4c5760405162461bcd60e51b81526020600482015260076024820152663120646179202b60c81b604482015260640161057c565b60008311610b975760405162461bcd60e51b815260206004820152601860248201527716995c9bc81dda5b9b995c881d1a58dad95d0818dbdd5b9d60421b604482015260640161057c565b6001600160a01b038216610bdc5760405162461bcd60e51b815260206004820152600c60248201526b5a65726f206164647265737360a01b604482015260640161057c565b609980546001600160a01b0319166001600160a01b038716179055610c018442612070565b609a55609b839055609780546001600160a01b0319166001600160a01b038416179055610c2c6113a6565b8015610c72576000805461ff0019169055604051600181527f7f26b83ff96e1f2b6a682f133852f6798a09c465da95921460cefb38474024989060200160405180910390a15b5050505050565b609c8181548110610c8957600080fd5b6000918252602090912060029091020180546001909101549091506001600160a01b031682565b610cb86110a3565b804210610cfb5760405162461bcd60e51b81526020600482015260116024820152700496e76616c69642074696d657374616d7607c1b604482015260640161057c565b609a55565b6000610d0c609e6111b5565b905090565b609a544210610d4c5760405162461bcd60e51b8152602060048201526007602482015266115e1c1a5c995960ca1b604482015260640161057c565b60995460405163079cc67960e41b8152336004820152602481018390526001600160a01b03909116906379cc679090604401600060405180830381600087803b158015610d9857600080fd5b505af1158015610dac573d6000803e3d6000fd5b505033600090815260a2602052604081208054859450909250610dd0908490612070565b90915550610de19050609e336112bc565b506000610ded336107be565b33600090815260a26020526040812054919250908290610e1790683635c9adc5dea00000906120b5565b610e219190612088565b609d54909150610e323382846112d1565b81609d6000828254610e449190612070565b909155505060405184815233907f951fdc61d6a98f96098a17ea6ac287a6fd38aea6bef73083c93b274cb830107d9060200160405180910390a250505050565b6060610d0c609e61114f565b610e986110a3565b80610f0b57609754604051639f87fad760e01b81526001600160a01b03821691639f87fad791610edd91600160a01b90046001600160401b0316908690600401612003565b600060405180830381600087803b158015610ef757600080fd5b505af11580156109f5573d6000803e3d6000fd5b609754604051631cd0704360e21b81526001600160a01b03821691637341c10c91610edd91600160a01b90046001600160401b0316908690600401612003565b6060609c805480602002602001604051908101604052809291908181526020016000905b82821015610fb75760008481526020908190206040805180820190915260028502909101805482526001908101546001600160a01b0316828401529083529092019101610f6f565b50505050905090565b610fc86110a3565b6001600160a01b03811661102d5760405162461bcd60e51b815260206004820152602660248201527f4f776e61626c653a206e6577206f776e657220697320746865207a65726f206160448201526564647265737360d01b606482015260840161057c565b61103681611163565b50565b604080516001600160a01b0385811660248301528416604482015260648082018490528251808303909101815260849091019091526020810180516001600160e01b03166323b872dd60e01b1790526110939085906114b0565b50505050565b61052b8282611587565b6033546001600160a01b031633146106435760405162461bcd60e51b815260206004820181905260248201527f4f776e61626c653a2063616c6c6572206973206e6f7420746865206f776e6572604482015260640161057c565b6111056117a6565b6065805460ff191690557f5db9ee0a495bf2e6ff9c91a7834c1ba4fdd244a5e8aa4e537bd38aeae4b073aa335b6040516001600160a01b03909116815260200160405180910390a1565b6060600061115c836117ef565b9392505050565b603380546001600160a01b038381166001600160a01b0319831681179093556040519116919082907f8be0079c531659141344cd1fd0a4f28419497f9722a3daafe3b4186f6b6457e090600090a35050565b6000610669825490565b6097546040516305d3b1d360e41b81527f79d3d8832d904592c0bf9818b621522c988bb8b0c05cdc3b15aea1b6e8db0c156004820152600160a01b82046001600160401b0316602482015260036044820152622625a0606482015263ffffffff831660848201526000916001600160a01b031690635d3b1d309060a4016020604051808303816000875af115801561125b573d6000803e3d6000fd5b505050506040513d601f19601f8201168201806040525081019061066991906120c9565b61128761184b565b6065805460ff191660011790557f62e78cea01bee320cd4e420270b5ea74000d11b0c9f74754ebdbfc544b05a2586111323390565b600061115c836001600160a01b038416611891565b60005b818110156110935760006112e88285612070565b90506112f560a0826118e0565b506001600160a01b038516600090815260a36020526040902061131890826118e0565b50600090815260a46020526040902080546001600160a01b0319166001600160a01b0386161790556001016112d4565b600054610100900460ff1661136f5760405162461bcd60e51b815260040161057c906120e2565b6106436118ec565b600054610100900460ff1661139e5760405162461bcd60e51b815260040161057c906120e2565b61064361191c565b609760009054906101000a90046001600160a01b03166001600160a01b031663a21a23e46040518163ffffffff1660e01b81526004016020604051808303816000875af11580156113fb573d6000803e3d6000fd5b505050506040513d601f19601f8201168201806040525081019061141f919061212d565b609780546001600160401b03928316600160a01b90810267ffffffffffffffff60a01b198316811793849055604051631cd0704360e21b81526001600160a01b03918216919093161793637341c10c936114829392900416903090600401612003565b600060405180830381600087803b15801561149c57600080fd5b505af1158015611093573d6000803e3d6000fd5b6000611505826040518060400160405280602081526020017f5361666545524332303a206c6f772d6c6576656c2063616c6c206661696c6564815250856001600160a01b031661194f9092919063ffffffff16565b80519091501561158257808060200190518101906115239190611fe6565b6115825760405162461bcd60e51b815260206004820152602a60248201527f5361666545524332303a204552433230206f7065726174696f6e20646964206e6044820152691bdd081cdd58d8d9595960b21b606482015260840161057c565b505050565b60985482146115cc5760405162461bcd60e51b8152602060048201526011602482015270125b9d985b1a59081c995c5d595cdd1259607a1b604482015260640161057c565b609b5481511461161e5760405162461bcd60e51b815260206004820152601960248201527f496e76616c69642072616e646f6d20776f726420636f756e7400000000000000604482015260640161057c565b60005b609b5481101561176a57600061163760a06111b5565b83838151811061164957611649612025565b602002602001015161165b9190612156565b9050600061166a60a083611966565b600081815260a4602090815260408083205481518083019092528482526001600160a01b03908116928201838152609c8054600181018255955291517faf85b9071dfafeac1409d3f1d19bafc9bc7c37974cde8df0ee6168f0086e539c60029095029485015590517faf85b9071dfafeac1409d3f1d19bafc9bc7c37974cde8df0ee6168f0086e539d90930180546001600160a01b031916939091169290921790915590915061171b60a083611972565b506040518281526001600160a01b0382169033907fd28fd066cbe6a30a425b0a60222cebaba3ee406c3c8f21a2f56ec6b68a6db7ab9060200160405180910390a3836001019350505050611621565b507fc88f650164e2200b137333ff26e3bdfa82a318b079a6ddeabf305c98995491568160405161179a9190611d40565b60405180910390a15050565b60655460ff166106435760405162461bcd60e51b815260206004820152601460248201527314185d5cd8589b194e881b9bdd081c185d5cd95960621b604482015260640161057c565b60608160000180548060200260200160405190810160405280929190818152602001828054801561183f57602002820191906000526020600020905b81548152602001906001019080831161182b575b50505050509050919050565b60655460ff16156106435760405162461bcd60e51b815260206004820152601060248201526f14185d5cd8589b194e881c185d5cd95960821b604482015260640161057c565b60008181526001830160205260408120546118d857508154600181810184556000848152602080822090930184905584548482528286019093526040902091909155610669565b506000610669565b600061115c8383611891565b600054610100900460ff166119135760405162461bcd60e51b815260040161057c906120e2565b61064333611163565b600054610100900460ff166119435760405162461bcd60e51b815260040161057c906120e2565b6065805460ff19169055565b606061195e848460008561197e565b949350505050565b600061115c8383611a59565b600061115c8383611a83565b6060824710156119df5760405162461bcd60e51b815260206004820152602660248201527f416464726573733a20696e73756666696369656e742062616c616e636520666f6044820152651c8818d85b1b60d21b606482015260840161057c565b600080866001600160a01b031685876040516119fb919061216a565b60006040518083038185875af1925050503d8060008114611a38576040519150601f19603f3d011682016040523d82523d6000602084013e611a3d565b606091505b5091509150611a4e87838387611b76565b979650505050505050565b6000826000018281548110611a7057611a70612025565b9060005260206000200154905092915050565b60008181526001830160205260408120548015611b6c576000611aa7600183612088565b8554909150600090611abb90600190612088565b9050818114611b20576000866000018281548110611adb57611adb612025565b9060005260206000200154905080876000018481548110611afe57611afe612025565b6000918252602080832090910192909255918252600188019052604090208390555b8554869080611b3157611b31612186565b600190038181906000526020600020016000905590558560010160008681526020019081526020016000206000905560019350505050610669565b6000915050610669565b60608315611be2578251611bdb576001600160a01b0385163b611bdb5760405162461bcd60e51b815260206004820152601d60248201527f416464726573733a2063616c6c20746f206e6f6e2d636f6e7472616374000000604482015260640161057c565b508161195e565b61195e8383815115611bf75781518083602001fd5b8060405162461bcd60e51b815260040161057c919061219c565b600060208284031215611c2357600080fd5b5035919050565b80356001600160a01b0381168114611c4157600080fd5b919050565b600060208284031215611c5857600080fd5b61115c82611c2a565b634e487b7160e01b600052604160045260246000fd5b60008060408385031215611c8a57600080fd5b823591506020808401356001600160401b0380821115611ca957600080fd5b818601915086601f830112611cbd57600080fd5b813581811115611ccf57611ccf611c61565b8060051b604051601f19603f83011681018181108582111715611cf457611cf4611c61565b604052918252848201925083810185019189831115611d1257600080fd5b938501935b82851015611d3057843584529385019392850192611d17565b8096505050505050509250929050565b6020808252825182820181905260009190848201906040850190845b81811015611d7857835183529284019291840191600101611d5c565b50909695505050505050565b60008083601f840112611d9657600080fd5b5081356001600160401b03811115611dad57600080fd5b6020830191508360208260051b8501011115611dc857600080fd5b9250929050565b60008060008060408587031215611de557600080fd5b84356001600160401b0380821115611dfc57600080fd5b611e0888838901611d84565b90965094506020870135915080821115611e2157600080fd5b50611e2e87828801611d84565b95989497509550505050565b60008060008060808587031215611e5057600080fd5b611e5985611c2a565b93506020850135925060408501359150611e7560608601611c2a565b905092959194509250565b6020808252825182820181905260009190848201906040850190845b81811015611d785783516001600160a01b031683529284019291840191600101611e9c565b801515811461103657600080fd5b60008060408385031215611ee257600080fd5b611eeb83611c2a565b91506020830135611efb81611ec1565b809150509250929050565b602080825282518282018190526000919060409081850190868401855b82811015611f51578151805185528601516001600160a01b0316868501529284019290850190600101611f23565b5091979650505050505050565b60005b83811015611f79578181015183820152602001611f61565b838111156110935750506000910152565b60008151808452611fa2816020860160208601611f5e565b601f01601f19169290920160200192915050565b60018060a01b0384168152826020820152606060408201526000611fdd6060830184611f8a565b95945050505050565b600060208284031215611ff857600080fd5b815161115c81611ec1565b6001600160401b039290921682526001600160a01b0316602082015260400190565b634e487b7160e01b600052603260045260246000fd5b634e487b7160e01b600052601160045260246000fd5b600081600019048311821515161561206b5761206b61203b565b500290565b600082198211156120835761208361203b565b500190565b60008282101561209a5761209a61203b565b500390565b634e487b7160e01b600052601260045260246000fd5b6000826120c4576120c461209f565b500490565b6000602082840312156120db57600080fd5b5051919050565b6020808252602b908201527f496e697469616c697a61626c653a20636f6e7472616374206973206e6f74206960408201526a6e697469616c697a696e6760a81b606082015260800190565b60006020828403121561213f57600080fd5b81516001600160401b038116811461115c57600080fd5b6000826121655761216561209f565b500690565b6000825161217c818460208701611f5e565b9190910192915050565b634e487b7160e01b600052603160045260246000fd5b60208152600061115c6020830184611f8a56fea26469706673582212204466f3d20b4e2bca91c0af50f91d9f42f96b1c1904acaa4dd5060d355a4af5ab64736f6c634300080b0033",
  "devdoc": {
    "kind": "dev",
    "methods": {
      "constructor": {
        "custom:oz-upgrades-unsafe-allow": "constructor"
      },
      "owner()": {
        "details": "Returns the address of the current owner."
      },
      "paused()": {
        "details": "Returns true if the contract is paused, and false otherwise."
      },
      "renounceOwnership()": {
        "details": "Leaves the contract without owner. It will not be possible to call `onlyOwner` functions anymore. Can only be called by the current owner. NOTE: Renouncing ownership will leave the contract without an owner, thereby removing any functionality that is only available to the owner."
      },
      "transferOwnership(address)": {
        "details": "Transfers ownership of the contract to a new account (`newOwner`). Can only be called by the current owner."
      }
    },
    "stateVariables": {
      "NFTL_AMOUNT_FOR_TICKET": {
        "details": "NFTL amount required for 1 ticket"
      },
      "_ticketIdList": {
        "details": "TokenId list"
      },
      "_ticketIdsByUser": {
        "details": "User -> Ticket Id list"
      },
      "_userList": {
        "details": "User list"
      },
      "nftl": {
        "details": "NFTL address"
      },
      "raffleStartAt": {
        "details": "Timestamp the raffle start"
      },
      "totalTicketCount": {
        "details": "Total ticket count"
      },
      "totalWinnerTicketCount": {
        "details": "Winner count"
      },
      "userByTicketId": {
        "details": "Ticket Id -> User"
      },
      "userDeposits": {
        "details": "User -> NFTL amount deposited"
      },
      "vrfCoordinator": {
        "details": "Chainlink VRF params"
      },
      "winners": {
        "details": "Winner list"
      }
    },
    "title": "NFTLRaffle",
    "version": 1
  },
  "userdoc": {
    "kind": "user",
    "methods": {
      "pause()": {
        "notice": "Pause the contract"
      },
      "unpause()": {
        "notice": "Unpause the contract"
      }
    },
    "version": 1
  },
  "storageLayout": {
    "storage": [
      {
        "astId": 1733,
        "contract": "contracts/NFTLRaffle.sol:NFTLRaffle",
        "label": "_initialized",
        "offset": 0,
        "slot": "0",
        "type": "t_uint8"
      },
      {
        "astId": 1736,
        "contract": "contracts/NFTLRaffle.sol:NFTLRaffle",
        "label": "_initializing",
        "offset": 1,
        "slot": "0",
        "type": "t_bool"
      },
      {
        "astId": 4520,
        "contract": "contracts/NFTLRaffle.sol:NFTLRaffle",
        "label": "__gap",
        "offset": 0,
        "slot": "1",
        "type": "t_array(t_uint256)50_storage"
      },
      {
        "astId": 1605,
        "contract": "contracts/NFTLRaffle.sol:NFTLRaffle",
        "label": "_owner",
        "offset": 0,
        "slot": "51",
        "type": "t_address"
      },
      {
        "astId": 1725,
        "contract": "contracts/NFTLRaffle.sol:NFTLRaffle",
        "label": "__gap",
        "offset": 0,
        "slot": "52",
        "type": "t_array(t_uint256)49_storage"
      },
      {
        "astId": 1916,
        "contract": "contracts/NFTLRaffle.sol:NFTLRaffle",
        "label": "_paused",
        "offset": 0,
        "slot": "101",
        "type": "t_bool"
      },
      {
        "astId": 2021,
        "contract": "contracts/NFTLRaffle.sol:NFTLRaffle",
        "label": "__gap",
        "offset": 0,
        "slot": "102",
        "type": "t_array(t_uint256)49_storage"
      },
      {
        "astId": 15342,
        "contract": "contracts/NFTLRaffle.sol:NFTLRaffle",
        "label": "vrfCoordinator",
        "offset": 0,
        "slot": "151",
        "type": "t_address"
      },
      {
        "astId": 15356,
        "contract": "contracts/NFTLRaffle.sol:NFTLRaffle",
        "label": "s_subscriptionId",
        "offset": 20,
        "slot": "151",
        "type": "t_uint64"
      },
      {
        "astId": 15358,
        "contract": "contracts/NFTLRaffle.sol:NFTLRaffle",
        "label": "vrfRequestId",
        "offset": 0,
        "slot": "152",
        "type": "t_uint256"
      },
      {
        "astId": 15362,
        "contract": "contracts/NFTLRaffle.sol:NFTLRaffle",
        "label": "nftl",
        "offset": 0,
        "slot": "153",
        "type": "t_contract(IERC20BurnableUpgradeable)15315"
      },
      {
        "astId": 15365,
        "contract": "contracts/NFTLRaffle.sol:NFTLRaffle",
        "label": "raffleStartAt",
        "offset": 0,
        "slot": "154",
        "type": "t_uint256"
      },
      {
        "astId": 15368,
        "contract": "contracts/NFTLRaffle.sol:NFTLRaffle",
        "label": "totalWinnerTicketCount",
        "offset": 0,
        "slot": "155",
        "type": "t_uint256"
      },
      {
        "astId": 15373,
        "contract": "contracts/NFTLRaffle.sol:NFTLRaffle",
        "label": "winners",
        "offset": 0,
        "slot": "156",
        "type": "t_array(t_struct(WinnerInfo)15339_storage)dyn_storage"
      },
      {
        "astId": 15376,
        "contract": "contracts/NFTLRaffle.sol:NFTLRaffle",
        "label": "totalTicketCount",
        "offset": 0,
        "slot": "157",
        "type": "t_uint256"
      },
      {
        "astId": 15388,
        "contract": "contracts/NFTLRaffle.sol:NFTLRaffle",
        "label": "_userList",
        "offset": 0,
        "slot": "158",
        "type": "t_struct(AddressSet)6304_storage"
      },
      {
        "astId": 15392,
        "contract": "contracts/NFTLRaffle.sol:NFTLRaffle",
        "label": "_ticketIdList",
        "offset": 0,
        "slot": "160",
        "type": "t_struct(UintSet)6461_storage"
      },
      {
        "astId": 15397,
        "contract": "contracts/NFTLRaffle.sol:NFTLRaffle",
        "label": "userDeposits",
        "offset": 0,
        "slot": "162",
        "type": "t_mapping(t_address,t_uint256)"
      },
      {
        "astId": 15403,
        "contract": "contracts/NFTLRaffle.sol:NFTLRaffle",
        "label": "_ticketIdsByUser",
        "offset": 0,
        "slot": "163",
        "type": "t_mapping(t_address,t_struct(UintSet)6461_storage)"
      },
      {
        "astId": 15408,
        "contract": "contracts/NFTLRaffle.sol:NFTLRaffle",
        "label": "userByTicketId",
        "offset": 0,
        "slot": "164",
        "type": "t_mapping(t_uint256,t_address)"
      }
    ],
    "types": {
      "t_address": {
        "encoding": "inplace",
        "label": "address",
        "numberOfBytes": "20"
      },
      "t_array(t_bytes32)dyn_storage": {
        "base": "t_bytes32",
        "encoding": "dynamic_array",
        "label": "bytes32[]",
        "numberOfBytes": "32"
      },
      "t_array(t_struct(WinnerInfo)15339_storage)dyn_storage": {
        "base": "t_struct(WinnerInfo)15339_storage",
        "encoding": "dynamic_array",
        "label": "struct NFTLRaffle.WinnerInfo[]",
        "numberOfBytes": "32"
      },
      "t_array(t_uint256)49_storage": {
        "base": "t_uint256",
        "encoding": "inplace",
        "label": "uint256[49]",
        "numberOfBytes": "1568"
      },
      "t_array(t_uint256)50_storage": {
        "base": "t_uint256",
        "encoding": "inplace",
        "label": "uint256[50]",
        "numberOfBytes": "1600"
      },
      "t_bool": {
        "encoding": "inplace",
        "label": "bool",
        "numberOfBytes": "1"
      },
      "t_bytes32": {
        "encoding": "inplace",
        "label": "bytes32",
        "numberOfBytes": "32"
      },
      "t_contract(IERC20BurnableUpgradeable)15315": {
        "encoding": "inplace",
        "label": "contract IERC20BurnableUpgradeable",
        "numberOfBytes": "20"
      },
      "t_mapping(t_address,t_struct(UintSet)6461_storage)": {
        "encoding": "mapping",
        "key": "t_address",
        "label": "mapping(address => struct EnumerableSetUpgradeable.UintSet)",
        "numberOfBytes": "32",
        "value": "t_struct(UintSet)6461_storage"
      },
      "t_mapping(t_address,t_uint256)": {
        "encoding": "mapping",
        "key": "t_address",
        "label": "mapping(address => uint256)",
        "numberOfBytes": "32",
        "value": "t_uint256"
      },
      "t_mapping(t_bytes32,t_uint256)": {
        "encoding": "mapping",
        "key": "t_bytes32",
        "label": "mapping(bytes32 => uint256)",
        "numberOfBytes": "32",
        "value": "t_uint256"
      },
      "t_mapping(t_uint256,t_address)": {
        "encoding": "mapping",
        "key": "t_uint256",
        "label": "mapping(uint256 => address)",
        "numberOfBytes": "32",
        "value": "t_address"
      },
      "t_struct(AddressSet)6304_storage": {
        "encoding": "inplace",
        "label": "struct EnumerableSetUpgradeable.AddressSet",
        "members": [
          {
            "astId": 6303,
            "contract": "contracts/NFTLRaffle.sol:NFTLRaffle",
            "label": "_inner",
            "offset": 0,
            "slot": "0",
            "type": "t_struct(Set)5989_storage"
          }
        ],
        "numberOfBytes": "64"
      },
      "t_struct(Set)5989_storage": {
        "encoding": "inplace",
        "label": "struct EnumerableSetUpgradeable.Set",
        "members": [
          {
            "astId": 5984,
            "contract": "contracts/NFTLRaffle.sol:NFTLRaffle",
            "label": "_values",
            "offset": 0,
            "slot": "0",
            "type": "t_array(t_bytes32)dyn_storage"
          },
          {
            "astId": 5988,
            "contract": "contracts/NFTLRaffle.sol:NFTLRaffle",
            "label": "_indexes",
            "offset": 0,
            "slot": "1",
            "type": "t_mapping(t_bytes32,t_uint256)"
          }
        ],
        "numberOfBytes": "64"
      },
      "t_struct(UintSet)6461_storage": {
        "encoding": "inplace",
        "label": "struct EnumerableSetUpgradeable.UintSet",
        "members": [
          {
            "astId": 6460,
            "contract": "contracts/NFTLRaffle.sol:NFTLRaffle",
            "label": "_inner",
            "offset": 0,
            "slot": "0",
            "type": "t_struct(Set)5989_storage"
          }
        ],
        "numberOfBytes": "64"
      },
      "t_struct(WinnerInfo)15339_storage": {
        "encoding": "inplace",
        "label": "struct NFTLRaffle.WinnerInfo",
        "members": [
          {
            "astId": 15336,
            "contract": "contracts/NFTLRaffle.sol:NFTLRaffle",
            "label": "ticketId",
            "offset": 0,
            "slot": "0",
            "type": "t_uint256"
          },
          {
            "astId": 15338,
            "contract": "contracts/NFTLRaffle.sol:NFTLRaffle",
            "label": "winner",
            "offset": 0,
            "slot": "1",
            "type": "t_address"
          }
        ],
        "numberOfBytes": "64"
      },
      "t_uint256": {
        "encoding": "inplace",
        "label": "uint256",
        "numberOfBytes": "32"
      },
      "t_uint64": {
        "encoding": "inplace",
        "label": "uint64",
        "numberOfBytes": "8"
      },
      "t_uint8": {
        "encoding": "inplace",
        "label": "uint8",
        "numberOfBytes": "1"
      }
    }
  }
}