{
  "address": "0x86Ff652F40D214722f23C8AdD012b5FdF07e88C6",
  "abi": [
    {
      "inputs": [],
      "stateMutability": "nonpayable",
      "type": "constructor"
    },
    {
      "anonymous": false,
      "inputs": [
        {
          "indexed": false,
          "internalType": "uint8",
          "name": "version",
          "type": "uint8"
        }
      ],
      "name": "Initialized",
      "type": "event"
    },
    {
      "anonymous": false,
      "inputs": [
        {
          "indexed": true,
          "internalType": "address",
          "name": "previousOwner",
          "type": "address"
        },
        {
          "indexed": true,
          "internalType": "address",
          "name": "newOwner",
          "type": "address"
        }
      ],
      "name": "OwnershipTransferred",
      "type": "event"
    },
    {
      "anonymous": false,
      "inputs": [
        {
          "indexed": false,
          "internalType": "address",
          "name": "account",
          "type": "address"
        }
      ],
      "name": "Paused",
      "type": "event"
    },
    {
      "anonymous": false,
      "inputs": [
        {
          "indexed": false,
          "internalType": "address",
          "name": "account",
          "type": "address"
        }
      ],
      "name": "Unpaused",
      "type": "event"
    },
    {
      "inputs": [],
      "name": "NFTL_AMOUNT_FOR_TICKET",
      "outputs": [
        {
          "internalType": "uint256",
          "name": "",
          "type": "uint256"
        }
      ],
      "stateMutability": "view",
      "type": "function"
    },
    {
      "inputs": [
        {
          "internalType": "uint256",
          "name": "_amount",
          "type": "uint256"
        }
      ],
      "name": "deposit",
      "outputs": [],
      "stateMutability": "nonpayable",
      "type": "function"
    },
    {
      "inputs": [
        {
          "internalType": "address",
          "name": "_user",
          "type": "address"
        }
      ],
      "name": "getTicketCountByUser",
      "outputs": [
        {
          "internalType": "uint256",
          "name": "",
          "type": "uint256"
        }
      ],
      "stateMutability": "view",
      "type": "function"
    },
    {
      "inputs": [
        {
          "internalType": "address",
          "name": "_user",
          "type": "address"
        }
      ],
      "name": "getTicketIdsByUser",
      "outputs": [
        {
          "internalType": "uint256[]",
          "name": "",
          "type": "uint256[]"
        }
      ],
      "stateMutability": "view",
      "type": "function"
    },
    {
      "inputs": [],
      "name": "getUserCount",
      "outputs": [
        {
          "internalType": "uint256",
          "name": "",
          "type": "uint256"
        }
      ],
      "stateMutability": "view",
      "type": "function"
    },
    {
      "inputs": [],
      "name": "getUserList",
      "outputs": [
        {
          "internalType": "address[]",
          "name": "",
          "type": "address[]"
        }
      ],
      "stateMutability": "view",
      "type": "function"
    },
    {
      "inputs": [],
      "name": "getWinners",
      "outputs": [
        {
          "components": [
            {
              "internalType": "uint256",
              "name": "ticketId",
              "type": "uint256"
            },
            {
              "internalType": "address",
              "name": "winner",
              "type": "address"
            }
          ],
          "internalType": "struct NFTLRaffle.WinnerInfo[]",
          "name": "",
          "type": "tuple[]"
        }
      ],
      "stateMutability": "view",
      "type": "function"
    },
    {
      "inputs": [
        {
          "internalType": "address",
          "name": "_nftl",
          "type": "address"
        },
        {
          "internalType": "uint256",
          "name": "_pendingPeriod",
          "type": "uint256"
        },
        {
          "internalType": "uint256",
          "name": "_totalWinnerTicketCount",
          "type": "uint256"
        }
      ],
      "name": "initialize",
      "outputs": [],
      "stateMutability": "nonpayable",
      "type": "function"
    },
    {
      "inputs": [],
      "name": "nftl",
      "outputs": [
        {
          "internalType": "contract IERC20BurnableUpgradeable",
          "name": "",
          "type": "address"
        }
      ],
      "stateMutability": "view",
      "type": "function"
    },
    {
      "inputs": [],
      "name": "owner",
      "outputs": [
        {
          "internalType": "address",
          "name": "",
          "type": "address"
        }
      ],
      "stateMutability": "view",
      "type": "function"
    },
    {
      "inputs": [],
      "name": "pause",
      "outputs": [],
      "stateMutability": "nonpayable",
      "type": "function"
    },
    {
      "inputs": [],
      "name": "paused",
      "outputs": [
        {
          "internalType": "bool",
          "name": "",
          "type": "bool"
        }
      ],
      "stateMutability": "view",
      "type": "function"
    },
    {
      "inputs": [],
      "name": "raffleStartAt",
      "outputs": [
        {
          "internalType": "uint256",
          "name": "",
          "type": "uint256"
        }
      ],
      "stateMutability": "view",
      "type": "function"
    },
    {
      "inputs": [],
      "name": "renounceOwnership",
      "outputs": [],
      "stateMutability": "nonpayable",
      "type": "function"
    },
    {
      "inputs": [],
      "name": "selectWinners",
      "outputs": [],
      "stateMutability": "nonpayable",
      "type": "function"
    },
    {
      "inputs": [],
      "name": "totalTicketCount",
      "outputs": [
        {
          "internalType": "uint256",
          "name": "",
          "type": "uint256"
        }
      ],
      "stateMutability": "view",
      "type": "function"
    },
    {
      "inputs": [],
      "name": "totalWinnerTicketCount",
      "outputs": [
        {
          "internalType": "uint256",
          "name": "",
          "type": "uint256"
        }
      ],
      "stateMutability": "view",
      "type": "function"
    },
    {
      "inputs": [
        {
          "internalType": "address",
          "name": "newOwner",
          "type": "address"
        }
      ],
      "name": "transferOwnership",
      "outputs": [],
      "stateMutability": "nonpayable",
      "type": "function"
    },
    {
      "inputs": [],
      "name": "unpause",
      "outputs": [],
      "stateMutability": "nonpayable",
      "type": "function"
    },
    {
      "inputs": [
        {
          "internalType": "uint256",
          "name": "_raffleStartAt",
          "type": "uint256"
        }
      ],
      "name": "updateRaffleStartAt",
      "outputs": [],
      "stateMutability": "nonpayable",
      "type": "function"
    },
    {
      "inputs": [
        {
          "internalType": "uint256",
          "name": "_totalWinnerTicketCount",
          "type": "uint256"
        }
      ],
      "name": "updateTotalWinnerTicketCount",
      "outputs": [],
      "stateMutability": "nonpayable",
      "type": "function"
    },
    {
      "inputs": [
        {
          "internalType": "uint256",
          "name": "",
          "type": "uint256"
        }
      ],
      "name": "userByTicketId",
      "outputs": [
        {
          "internalType": "address",
          "name": "",
          "type": "address"
        }
      ],
      "stateMutability": "view",
      "type": "function"
    },
    {
      "inputs": [
        {
          "internalType": "address",
          "name": "",
          "type": "address"
        }
      ],
      "name": "userDeposits",
      "outputs": [
        {
          "internalType": "uint256",
          "name": "",
          "type": "uint256"
        }
      ],
      "stateMutability": "view",
      "type": "function"
    },
    {
      "inputs": [
        {
          "internalType": "uint256",
          "name": "",
          "type": "uint256"
        }
      ],
      "name": "winners",
      "outputs": [
        {
          "internalType": "uint256",
          "name": "ticketId",
          "type": "uint256"
        },
        {
          "internalType": "address",
          "name": "winner",
          "type": "address"
        }
      ],
      "stateMutability": "view",
      "type": "function"
    }
  ],
  "transactionHash": "0xc91cacea919dabfee41a7f1d2c47e5a21f71c41a3f2a3a3f0731c8045a750e59",
  "args": [],
  "numDeployments": 1,
  "solcInputHash": "4a0cf10886d8dc4055f51ff1020d9765",
  "bytecode": "0x608060405234801561001057600080fd5b5061001961001e565b6100de565b600054610100900460ff161561008a5760405162461bcd60e51b815260206004820152602760248201527f496e697469616c697a61626c653a20636f6e747261637420697320696e697469604482015266616c697a696e6760c81b606482015260840160405180910390fd5b60005460ff90811610156100dc576000805460ff191660ff9081179091556040519081527f7f26b83ff96e1f2b6a682f133852f6798a09c465da95921460cefb38474024989060200160405180910390a15b565b6112be806100ed6000396000f3fe608060405234801561001057600080fd5b50600436106101585760003560e01c80638456cb59116100c3578063b5cb15f71161007c578063b5cb15f7146102cb578063b6b55f25146102d3578063b8522043146102e6578063df15c37e146102fb578063f200006c14610310578063f2fde38b1461033957600080fd5b80638456cb591461024957806384a1890e14610251578063869c046c146102645780638da5cb5b14610277578063a2fb117514610288578063a488af25146102b857600080fd5b80634e81da0a116101155780634e81da0a146101bd5780635671fc66146101e85780635c975abb146101f857806360d131681461020e578063715018a61461022e5780637a1ac61e1461023657600080fd5b80630ba36dcd1461015d57806314558fab1461019057806319d750ce146101995780631a0de74c146101a2578063323c1bb3146101ac5780633f4ba83a146101b5575b600080fd5b61017d61016b36600461102b565b60a06020526000908152604090205481565b6040519081526020015b60405180910390f35b61017d609b5481565b61017d60985481565b6101aa61034c565b005b61017d60995481565b6101aa610552565b6097546101d0906001600160a01b031681565b6040516001600160a01b039091168152602001610187565b61017d683635c9adc5dea0000081565b60655460ff166040519015158152602001610187565b61022161021c36600461102b565b610564565b6040516101879190611046565b6101aa61058e565b6101aa61024436600461108a565b6105a0565b6101aa6107b4565b61017d61025f36600461102b565b6107c4565b6101aa6102723660046110bd565b6107e5565b6033546001600160a01b03166101d0565b61029b6102963660046110bd565b61083d565b604080519283526001600160a01b03909116602083015201610187565b6101aa6102c63660046110bd565b610874565b61017d6108c4565b6101aa6102e13660046110bd565b6108d5565b6102ee610a6e565b60405161018791906110d6565b610303610a7a565b6040516101879190611117565b6101d061031e3660046110bd565b60a2602052600090815260409020546001600160a01b031681565b6101aa61034736600461102b565b610aef565b610354610b65565b42609854111561039c5760405162461bcd60e51b815260206004820152600e60248201526d14195b991a5b99c81c195c9a5bd960921b60448201526064015b60405180910390fd5b6103a6609e610bbf565b60995411156103ef5760405162461bcd60e51b81526020600482015260156024820152744e6f7420656e6f756768206465706f7369746f727360581b6044820152606401610393565b60005b60995481101561054f5760004340334244609954866104119190611185565b60405160200161045595949392919094855260609390931b6bffffffffffffffffffffffff1916602085015260348401919091526054830152607482015260940190565b6040516020818303038152906040528051906020012090506000610479609e610bbf565b61048390836111ba565b90506000610492609e83610bc9565b604080518082018252828152600083815260a26020908152928120546001600160a01b03908116938301938452609a8054600181018255925291517f44da158ba27f9252712a74ff6a55c5d531f69609f1f6e7f17c4443a8e2089be460029092029182015591517f44da158ba27f9252712a74ff6a55c5d531f69609f1f6e7f17c4443a8e2089be590920180546001600160a01b031916929091169190911790559050610540609e82610bdc565b508360010193505050506103f2565b50565b61055a610b65565b610562610be8565b565b6001600160a01b038116600090815260a16020526040902060609061058890610c3a565b92915050565b610596610b65565b6105626000610c47565b600054610100900460ff16158080156105c05750600054600160ff909116105b806105da5750303b1580156105da575060005460ff166001145b61063d5760405162461bcd60e51b815260206004820152602e60248201527f496e697469616c697a61626c653a20636f6e747261637420697320616c72656160448201526d191e481a5b9a5d1a585b1a5e995960921b6064820152608401610393565b6000805460ff191660011790558015610660576000805461ff0019166101001790555b610668610c99565b610670610cc8565b6001600160a01b0384166106b55760405162461bcd60e51b815260206004820152600c60248201526b5a65726f206164647265737360a01b6044820152606401610393565b610e1083116106f05760405162461bcd60e51b81526020600482015260076024820152663120646179202b60c81b6044820152606401610393565b6000821161073b5760405162461bcd60e51b815260206004820152601860248201527716995c9bc81dda5b9b995c881d1a58dad95d0818dbdd5b9d60421b6044820152606401610393565b609780546001600160a01b0319166001600160a01b03861617905561076083426111ce565b609855609982905580156107ae576000805461ff0019169055604051600181527f7f26b83ff96e1f2b6a682f133852f6798a09c465da95921460cefb38474024989060200160405180910390a15b50505050565b6107bc610b65565b610562610cf7565b6001600160a01b038116600090815260a16020526040812061058890610bbf565b6107ed610b65565b600081116108385760405162461bcd60e51b815260206004820152601860248201527716995c9bc81dda5b9b995c881d1a58dad95d0818dbdd5b9d60421b6044820152606401610393565b609955565b609a818154811061084d57600080fd5b6000918252602090912060029091020180546001909101549091506001600160a01b031682565b61087c610b65565b8042106108bf5760405162461bcd60e51b81526020600482015260116024820152700496e76616c69642074696d657374616d7607c1b6044820152606401610393565b609855565b60006108d0609c610bbf565b905090565b60985442106109105760405162461bcd60e51b8152602060048201526007602482015266115e1c1a5c995960ca1b6044820152606401610393565b60975460405163079cc67960e41b8152336004820152602481018390526001600160a01b03909116906379cc679090604401600060405180830381600087803b15801561095c57600080fd5b505af1158015610970573d6000803e3d6000fd5b505033600090815260a06020526040812080548594509092506109949084906111ce565b909155506109a59050609c33610d34565b5060006109b1336107c4565b33600090815260a060205260408120549192509082906109db90683635c9adc5dea00000906111e6565b6109e591906111fa565b609b5490915060005b82811015610a50576000610a0282846111ce565b9050610a0f609e82610d49565b5033600090815260a160205260409020610a299082610d49565b50600090815260a26020526040902080546001600160a01b031916331790556001016109ee565b5081609b6000828254610a6391906111ce565b909155505050505050565b60606108d0609c610c3a565b6060609a805480602002602001604051908101604052809291908181526020016000905b82821015610ae65760008481526020908190206040805180820190915260028502909101805482526001908101546001600160a01b0316828401529083529092019101610a9e565b50505050905090565b610af7610b65565b6001600160a01b038116610b5c5760405162461bcd60e51b815260206004820152602660248201527f4f776e61626c653a206e6577206f776e657220697320746865207a65726f206160448201526564647265737360d01b6064820152608401610393565b61054f81610c47565b6033546001600160a01b031633146105625760405162461bcd60e51b815260206004820181905260248201527f4f776e61626c653a2063616c6c6572206973206e6f7420746865206f776e65726044820152606401610393565b6000610588825490565b6000610bd58383610d55565b9392505050565b6000610bd58383610d7f565b610bf0610e72565b6065805460ff191690557f5db9ee0a495bf2e6ff9c91a7834c1ba4fdd244a5e8aa4e537bd38aeae4b073aa335b6040516001600160a01b03909116815260200160405180910390a1565b60606000610bd583610ebb565b603380546001600160a01b038381166001600160a01b0319831681179093556040519116919082907f8be0079c531659141344cd1fd0a4f28419497f9722a3daafe3b4186f6b6457e090600090a35050565b600054610100900460ff16610cc05760405162461bcd60e51b815260040161039390611211565b610562610f17565b600054610100900460ff16610cef5760405162461bcd60e51b815260040161039390611211565b610562610f47565b610cff610f7a565b6065805460ff191660011790557f62e78cea01bee320cd4e420270b5ea74000d11b0c9f74754ebdbfc544b05a258610c1d3390565b6000610bd5836001600160a01b038416610fc0565b6000610bd58383610fc0565b6000826000018281548110610d6c57610d6c61125c565b9060005260206000200154905092915050565b60008181526001830160205260408120548015610e68576000610da36001836111fa565b8554909150600090610db7906001906111fa565b9050818114610e1c576000866000018281548110610dd757610dd761125c565b9060005260206000200154905080876000018481548110610dfa57610dfa61125c565b6000918252602080832090910192909255918252600188019052604090208390555b8554869080610e2d57610e2d611272565b600190038181906000526020600020016000905590558560010160008681526020019081526020016000206000905560019350505050610588565b6000915050610588565b60655460ff166105625760405162461bcd60e51b815260206004820152601460248201527314185d5cd8589b194e881b9bdd081c185d5cd95960621b6044820152606401610393565b606081600001805480602002602001604051908101604052809291908181526020018280548015610f0b57602002820191906000526020600020905b815481526020019060010190808311610ef7575b50505050509050919050565b600054610100900460ff16610f3e5760405162461bcd60e51b815260040161039390611211565b61056233610c47565b600054610100900460ff16610f6e5760405162461bcd60e51b815260040161039390611211565b6065805460ff19169055565b60655460ff16156105625760405162461bcd60e51b815260206004820152601060248201526f14185d5cd8589b194e881c185d5cd95960821b6044820152606401610393565b600081815260018301602052604081205461100757508154600181810184556000848152602080822090930184905584548482528286019093526040902091909155610588565b506000610588565b80356001600160a01b038116811461102657600080fd5b919050565b60006020828403121561103d57600080fd5b610bd58261100f565b6020808252825182820181905260009190848201906040850190845b8181101561107e57835183529284019291840191600101611062565b50909695505050505050565b60008060006060848603121561109f57600080fd5b6110a88461100f565b95602085013595506040909401359392505050565b6000602082840312156110cf57600080fd5b5035919050565b6020808252825182820181905260009190848201906040850190845b8181101561107e5783516001600160a01b0316835292840192918401916001016110f2565b602080825282518282018190526000919060409081850190868401855b82811015611162578151805185528601516001600160a01b0316868501529284019290850190600101611134565b5091979650505050505050565b634e487b7160e01b600052601160045260246000fd5b600081600019048311821515161561119f5761119f61116f565b500290565b634e487b7160e01b600052601260045260246000fd5b6000826111c9576111c96111a4565b500690565b600082198211156111e1576111e161116f565b500190565b6000826111f5576111f56111a4565b500490565b60008282101561120c5761120c61116f565b500390565b6020808252602b908201527f496e697469616c697a61626c653a20636f6e7472616374206973206e6f74206960408201526a6e697469616c697a696e6760a81b606082015260800190565b634e487b7160e01b600052603260045260246000fd5b634e487b7160e01b600052603160045260246000fdfea2646970667358221220ed34324d2365cf3c46efa5c067c892bd1010cf13776faea19cf5159ac81a929864736f6c634300080b0033",
  "devdoc": {
    "kind": "dev",
    "methods": {
      "constructor": {
        "custom:oz-upgrades-unsafe-allow": "constructor"
      },
      "owner()": {
        "details": "Returns the address of the current owner."
      },
      "paused()": {
        "details": "Returns true if the contract is paused, and false otherwise."
      },
      "renounceOwnership()": {
        "details": "Leaves the contract without owner. It will not be possible to call `onlyOwner` functions anymore. Can only be called by the current owner. NOTE: Renouncing ownership will leave the contract without an owner, thereby removing any functionality that is only available to the owner."
      },
      "transferOwnership(address)": {
        "details": "Transfers ownership of the contract to a new account (`newOwner`). Can only be called by the current owner."
      }
    },
    "stateVariables": {
      "NFTL_AMOUNT_FOR_TICKET": {
        "details": "NFTL amount required for 1 ticket"
      },
      "_ticketIdList": {
        "details": "TokenId list"
      },
      "_ticketIdsByUser": {
        "details": "User -> Ticket Id list"
      },
      "_userList": {
        "details": "User list"
      },
      "nftl": {
        "details": "NFTL address"
      },
      "raffleStartAt": {
        "details": "Timestamp the raffle start"
      },
      "totalTicketCount": {
        "details": "Total ticket count"
      },
      "totalWinnerTicketCount": {
        "details": "Winner count"
      },
      "userByTicketId": {
        "details": "Ticket Id -> User"
      },
      "userDeposits": {
        "details": "User -> NFTL amount deposited"
      },
      "winners": {
        "details": "Winner list"
      }
    },
    "title": "NFTLRaffle",
    "version": 1
  },
  "userdoc": {
    "kind": "user",
    "methods": {
      "pause()": {
        "notice": "Pause the contract"
      },
      "unpause()": {
        "notice": "Unpause the contract"
      }
    },
    "version": 1
  },
  "storageLayout": {
    "storage": [
      {
        "astId": 138,
        "contract": "contracts/NFTLRaffle.sol:NFTLRaffle",
        "label": "_initialized",
        "offset": 0,
        "slot": "0",
        "type": "t_uint8"
      },
      {
        "astId": 141,
        "contract": "contracts/NFTLRaffle.sol:NFTLRaffle",
        "label": "_initializing",
        "offset": 1,
        "slot": "0",
        "type": "t_bool"
      },
      {
        "astId": 830,
        "contract": "contracts/NFTLRaffle.sol:NFTLRaffle",
        "label": "__gap",
        "offset": 0,
        "slot": "1",
        "type": "t_array(t_uint256)50_storage"
      },
      {
        "astId": 10,
        "contract": "contracts/NFTLRaffle.sol:NFTLRaffle",
        "label": "_owner",
        "offset": 0,
        "slot": "51",
        "type": "t_address"
      },
      {
        "astId": 130,
        "contract": "contracts/NFTLRaffle.sol:NFTLRaffle",
        "label": "__gap",
        "offset": 0,
        "slot": "52",
        "type": "t_array(t_uint256)49_storage"
      },
      {
        "astId": 321,
        "contract": "contracts/NFTLRaffle.sol:NFTLRaffle",
        "label": "_paused",
        "offset": 0,
        "slot": "101",
        "type": "t_bool"
      },
      {
        "astId": 426,
        "contract": "contracts/NFTLRaffle.sol:NFTLRaffle",
        "label": "__gap",
        "offset": 0,
        "slot": "102",
        "type": "t_array(t_uint256)49_storage"
      },
      {
        "astId": 1484,
        "contract": "contracts/NFTLRaffle.sol:NFTLRaffle",
        "label": "nftl",
        "offset": 0,
        "slot": "151",
        "type": "t_contract(IERC20BurnableUpgradeable)1460"
      },
      {
        "astId": 1487,
        "contract": "contracts/NFTLRaffle.sol:NFTLRaffle",
        "label": "raffleStartAt",
        "offset": 0,
        "slot": "152",
        "type": "t_uint256"
      },
      {
        "astId": 1490,
        "contract": "contracts/NFTLRaffle.sol:NFTLRaffle",
        "label": "totalWinnerTicketCount",
        "offset": 0,
        "slot": "153",
        "type": "t_uint256"
      },
      {
        "astId": 1495,
        "contract": "contracts/NFTLRaffle.sol:NFTLRaffle",
        "label": "winners",
        "offset": 0,
        "slot": "154",
        "type": "t_array(t_struct(WinnerInfo)1480_storage)dyn_storage"
      },
      {
        "astId": 1498,
        "contract": "contracts/NFTLRaffle.sol:NFTLRaffle",
        "label": "totalTicketCount",
        "offset": 0,
        "slot": "155",
        "type": "t_uint256"
      },
      {
        "astId": 1510,
        "contract": "contracts/NFTLRaffle.sol:NFTLRaffle",
        "label": "_userList",
        "offset": 0,
        "slot": "156",
        "type": "t_struct(AddressSet)1157_storage"
      },
      {
        "astId": 1514,
        "contract": "contracts/NFTLRaffle.sol:NFTLRaffle",
        "label": "_ticketIdList",
        "offset": 0,
        "slot": "158",
        "type": "t_struct(UintSet)1314_storage"
      },
      {
        "astId": 1519,
        "contract": "contracts/NFTLRaffle.sol:NFTLRaffle",
        "label": "userDeposits",
        "offset": 0,
        "slot": "160",
        "type": "t_mapping(t_address,t_uint256)"
      },
      {
        "astId": 1525,
        "contract": "contracts/NFTLRaffle.sol:NFTLRaffle",
        "label": "_ticketIdsByUser",
        "offset": 0,
        "slot": "161",
        "type": "t_mapping(t_address,t_struct(UintSet)1314_storage)"
      },
      {
        "astId": 1530,
        "contract": "contracts/NFTLRaffle.sol:NFTLRaffle",
        "label": "userByTicketId",
        "offset": 0,
        "slot": "162",
        "type": "t_mapping(t_uint256,t_address)"
      }
    ],
    "types": {
      "t_address": {
        "encoding": "inplace",
        "label": "address",
        "numberOfBytes": "20"
      },
      "t_array(t_bytes32)dyn_storage": {
        "base": "t_bytes32",
        "encoding": "dynamic_array",
        "label": "bytes32[]",
        "numberOfBytes": "32"
      },
      "t_array(t_struct(WinnerInfo)1480_storage)dyn_storage": {
        "base": "t_struct(WinnerInfo)1480_storage",
        "encoding": "dynamic_array",
        "label": "struct NFTLRaffle.WinnerInfo[]",
        "numberOfBytes": "32"
      },
      "t_array(t_uint256)49_storage": {
        "base": "t_uint256",
        "encoding": "inplace",
        "label": "uint256[49]",
        "numberOfBytes": "1568"
      },
      "t_array(t_uint256)50_storage": {
        "base": "t_uint256",
        "encoding": "inplace",
        "label": "uint256[50]",
        "numberOfBytes": "1600"
      },
      "t_bool": {
        "encoding": "inplace",
        "label": "bool",
        "numberOfBytes": "1"
      },
      "t_bytes32": {
        "encoding": "inplace",
        "label": "bytes32",
        "numberOfBytes": "32"
      },
      "t_contract(IERC20BurnableUpgradeable)1460": {
        "encoding": "inplace",
        "label": "contract IERC20BurnableUpgradeable",
        "numberOfBytes": "20"
      },
      "t_mapping(t_address,t_struct(UintSet)1314_storage)": {
        "encoding": "mapping",
        "key": "t_address",
        "label": "mapping(address => struct EnumerableSetUpgradeable.UintSet)",
        "numberOfBytes": "32",
        "value": "t_struct(UintSet)1314_storage"
      },
      "t_mapping(t_address,t_uint256)": {
        "encoding": "mapping",
        "key": "t_address",
        "label": "mapping(address => uint256)",
        "numberOfBytes": "32",
        "value": "t_uint256"
      },
      "t_mapping(t_bytes32,t_uint256)": {
        "encoding": "mapping",
        "key": "t_bytes32",
        "label": "mapping(bytes32 => uint256)",
        "numberOfBytes": "32",
        "value": "t_uint256"
      },
      "t_mapping(t_uint256,t_address)": {
        "encoding": "mapping",
        "key": "t_uint256",
        "label": "mapping(uint256 => address)",
        "numberOfBytes": "32",
        "value": "t_address"
      },
      "t_struct(AddressSet)1157_storage": {
        "encoding": "inplace",
        "label": "struct EnumerableSetUpgradeable.AddressSet",
        "members": [
          {
            "astId": 1156,
            "contract": "contracts/NFTLRaffle.sol:NFTLRaffle",
            "label": "_inner",
            "offset": 0,
            "slot": "0",
            "type": "t_struct(Set)842_storage"
          }
        ],
        "numberOfBytes": "64"
      },
      "t_struct(Set)842_storage": {
        "encoding": "inplace",
        "label": "struct EnumerableSetUpgradeable.Set",
        "members": [
          {
            "astId": 837,
            "contract": "contracts/NFTLRaffle.sol:NFTLRaffle",
            "label": "_values",
            "offset": 0,
            "slot": "0",
            "type": "t_array(t_bytes32)dyn_storage"
          },
          {
            "astId": 841,
            "contract": "contracts/NFTLRaffle.sol:NFTLRaffle",
            "label": "_indexes",
            "offset": 0,
            "slot": "1",
            "type": "t_mapping(t_bytes32,t_uint256)"
          }
        ],
        "numberOfBytes": "64"
      },
      "t_struct(UintSet)1314_storage": {
        "encoding": "inplace",
        "label": "struct EnumerableSetUpgradeable.UintSet",
        "members": [
          {
            "astId": 1313,
            "contract": "contracts/NFTLRaffle.sol:NFTLRaffle",
            "label": "_inner",
            "offset": 0,
            "slot": "0",
            "type": "t_struct(Set)842_storage"
          }
        ],
        "numberOfBytes": "64"
      },
      "t_struct(WinnerInfo)1480_storage": {
        "encoding": "inplace",
        "label": "struct NFTLRaffle.WinnerInfo",
        "members": [
          {
            "astId": 1477,
            "contract": "contracts/NFTLRaffle.sol:NFTLRaffle",
            "label": "ticketId",
            "offset": 0,
            "slot": "0",
            "type": "t_uint256"
          },
          {
            "astId": 1479,
            "contract": "contracts/NFTLRaffle.sol:NFTLRaffle",
            "label": "winner",
            "offset": 0,
            "slot": "1",
            "type": "t_address"
          }
        ],
        "numberOfBytes": "64"
      },
      "t_uint256": {
        "encoding": "inplace",
        "label": "uint256",
        "numberOfBytes": "32"
      },
      "t_uint8": {
        "encoding": "inplace",
        "label": "uint8",
        "numberOfBytes": "1"
      }
    }
  }
}