{
  "address": "0x7c33aa7aaCbAf58801D3F2b73Fe4444bcFA1Cd9e",
  "abi": [
    {
      "inputs": [],
      "stateMutability": "nonpayable",
      "type": "constructor"
    },
    {
      "anonymous": false,
      "inputs": [
        {
          "indexed": false,
          "internalType": "uint8",
          "name": "version",
          "type": "uint8"
        }
      ],
      "name": "Initialized",
      "type": "event"
    },
    {
      "anonymous": false,
      "inputs": [
        {
          "indexed": true,
          "internalType": "address",
          "name": "previousOwner",
          "type": "address"
        },
        {
          "indexed": true,
          "internalType": "address",
          "name": "newOwner",
          "type": "address"
        }
      ],
      "name": "OwnershipTransferred",
      "type": "event"
    },
    {
      "anonymous": false,
      "inputs": [
        {
          "indexed": false,
          "internalType": "address",
          "name": "account",
          "type": "address"
        }
      ],
      "name": "Paused",
      "type": "event"
    },
    {
      "anonymous": false,
      "inputs": [
        {
          "indexed": false,
          "internalType": "uint256",
          "name": "requestId",
          "type": "uint256"
        },
        {
          "indexed": false,
          "internalType": "uint256[]",
          "name": "randomWords",
          "type": "uint256[]"
        }
      ],
      "name": "RandomWordsReceived",
      "type": "event"
    },
    {
      "anonymous": false,
      "inputs": [
        {
          "indexed": false,
          "internalType": "uint256",
          "name": "requestId",
          "type": "uint256"
        },
        {
          "indexed": false,
          "internalType": "uint256",
          "name": "randomCountToRequest",
          "type": "uint256"
        }
      ],
      "name": "RandomWordsRequested",
      "type": "event"
    },
    {
      "anonymous": false,
      "inputs": [
        {
          "indexed": true,
          "internalType": "address",
          "name": "to",
          "type": "address"
        },
        {
          "indexed": false,
          "internalType": "uint256",
          "name": "ticketCount",
          "type": "uint256"
        }
      ],
      "name": "TicketDistributed",
      "type": "event"
    },
    {
      "anonymous": false,
      "inputs": [
        {
          "indexed": false,
          "internalType": "address",
          "name": "account",
          "type": "address"
        }
      ],
      "name": "Unpaused",
      "type": "event"
    },
    {
      "anonymous": false,
      "inputs": [
        {
          "indexed": true,
          "internalType": "address",
          "name": "user",
          "type": "address"
        },
        {
          "indexed": false,
          "internalType": "uint256",
          "name": "nftlAmount",
          "type": "uint256"
        }
      ],
      "name": "UserDeposited",
      "type": "event"
    },
    {
      "anonymous": false,
      "inputs": [
        {
          "indexed": true,
          "internalType": "address",
          "name": "by",
          "type": "address"
        },
        {
          "indexed": true,
          "internalType": "address",
          "name": "winner",
          "type": "address"
        },
        {
          "indexed": false,
          "internalType": "uint256",
          "name": "ticketId",
          "type": "uint256"
        },
        {
          "indexed": false,
          "internalType": "uint256",
          "name": "prizeTokenId",
          "type": "uint256"
        }
      ],
      "name": "WinnerSelected",
      "type": "event"
    },
    {
      "inputs": [],
      "name": "NFTL_AMOUNT_FOR_TICKET",
      "outputs": [
        {
          "internalType": "uint256",
          "name": "",
          "type": "uint256"
        }
      ],
      "stateMutability": "view",
      "type": "function"
    },
    {
      "inputs": [],
      "name": "allowUserDeposit",
      "outputs": [],
      "stateMutability": "nonpayable",
      "type": "function"
    },
    {
      "inputs": [],
      "name": "assignTicketToUsers",
      "outputs": [],
      "stateMutability": "nonpayable",
      "type": "function"
    },
    {
      "inputs": [],
      "name": "cancelSubscription",
      "outputs": [],
      "stateMutability": "nonpayable",
      "type": "function"
    },
    {
      "inputs": [
        {
          "internalType": "uint256",
          "name": "_amount",
          "type": "uint256"
        }
      ],
      "name": "chargeLINK",
      "outputs": [],
      "stateMutability": "nonpayable",
      "type": "function"
    },
    {
      "inputs": [],
      "name": "currentWinnerTicketCount",
      "outputs": [
        {
          "internalType": "uint256",
          "name": "",
          "type": "uint256"
        }
      ],
      "stateMutability": "view",
      "type": "function"
    },
    {
      "inputs": [
        {
          "internalType": "uint256",
          "name": "_amount",
          "type": "uint256"
        }
      ],
      "name": "deposit",
      "outputs": [],
      "stateMutability": "nonpayable",
      "type": "function"
    },
    {
      "inputs": [
        {
          "internalType": "uint256[]",
          "name": "_prizeNFTTokenIds",
          "type": "uint256[]"
        }
      ],
      "name": "depositPrizeNFT",
      "outputs": [],
      "stateMutability": "nonpayable",
      "type": "function"
    },
    {
      "inputs": [],
      "name": "disallowUserDeposit",
      "outputs": [],
      "stateMutability": "nonpayable",
      "type": "function"
    },
    {
      "inputs": [
        {
          "internalType": "address[]",
          "name": "_holders",
          "type": "address[]"
        },
        {
          "internalType": "uint256[]",
          "name": "_keyCount",
          "type": "uint256[]"
        }
      ],
      "name": "distributeTicketsToCitadelKeyHolders",
      "outputs": [],
      "stateMutability": "nonpayable",
      "type": "function"
    },
    {
      "inputs": [],
      "name": "getRandomWordsList",
      "outputs": [
        {
          "internalType": "uint256[]",
          "name": "",
          "type": "uint256[]"
        }
      ],
      "stateMutability": "view",
      "type": "function"
    },
    {
      "inputs": [],
      "name": "getUserCount",
      "outputs": [
        {
          "internalType": "uint256",
          "name": "",
          "type": "uint256"
        }
      ],
      "stateMutability": "view",
      "type": "function"
    },
    {
      "inputs": [],
      "name": "getUserList",
      "outputs": [
        {
          "internalType": "address[]",
          "name": "",
          "type": "address[]"
        }
      ],
      "stateMutability": "view",
      "type": "function"
    },
    {
      "inputs": [],
      "name": "getWinners",
      "outputs": [
        {
          "components": [
            {
              "internalType": "uint256",
              "name": "ticketId",
              "type": "uint256"
            },
            {
              "internalType": "address",
              "name": "winner",
              "type": "address"
            },
            {
              "internalType": "uint256",
              "name": "prizeTokenId",
              "type": "uint256"
            }
          ],
          "internalType": "struct NFTLRaffle.WinnerInfo[]",
          "name": "",
          "type": "tuple[]"
        }
      ],
      "stateMutability": "view",
      "type": "function"
    },
    {
      "inputs": [
        {
          "internalType": "address",
          "name": "_nftl",
          "type": "address"
        },
        {
          "internalType": "uint256",
          "name": "_pendingPeriod",
          "type": "uint256"
        },
        {
          "internalType": "uint256",
          "name": "_totalWinnerTicketCount",
          "type": "uint256"
        },
        {
          "internalType": "address",
          "name": "_prizeNFT",
          "type": "address"
        },
        {
          "internalType": "address",
          "name": "_vrfCoordinator",
          "type": "address"
        }
      ],
      "name": "initialize",
      "outputs": [],
      "stateMutability": "nonpayable",
      "type": "function"
    },
    {
      "inputs": [],
      "name": "isTicketAssignedToUsers",
      "outputs": [
        {
          "internalType": "bool",
          "name": "",
          "type": "bool"
        }
      ],
      "stateMutability": "view",
      "type": "function"
    },
    {
      "inputs": [],
      "name": "isUserDepositAllowed",
      "outputs": [
        {
          "internalType": "bool",
          "name": "",
          "type": "bool"
        }
      ],
      "stateMutability": "view",
      "type": "function"
    },
    {
      "inputs": [
        {
          "internalType": "uint256",
          "name": "",
          "type": "uint256"
        }
      ],
      "name": "isWinnerTicketId",
      "outputs": [
        {
          "internalType": "bool",
          "name": "",
          "type": "bool"
        }
      ],
      "stateMutability": "view",
      "type": "function"
    },
    {
      "inputs": [
        {
          "internalType": "address",
          "name": "_consumer",
          "type": "address"
        },
        {
          "internalType": "bool",
          "name": "_add",
          "type": "bool"
        }
      ],
      "name": "manageConsumers",
      "outputs": [],
      "stateMutability": "nonpayable",
      "type": "function"
    },
    {
      "inputs": [],
      "name": "nftl",
      "outputs": [
        {
          "internalType": "contract IERC20BurnableUpgradeable",
          "name": "",
          "type": "address"
        }
      ],
      "stateMutability": "view",
      "type": "function"
    },
    {
      "inputs": [
        {
          "internalType": "address",
          "name": "",
          "type": "address"
        },
        {
          "internalType": "address",
          "name": "",
          "type": "address"
        },
        {
          "internalType": "uint256",
          "name": "",
          "type": "uint256"
        },
        {
          "internalType": "bytes",
          "name": "",
          "type": "bytes"
        }
      ],
      "name": "onERC721Received",
      "outputs": [
        {
          "internalType": "bytes4",
          "name": "",
          "type": "bytes4"
        }
      ],
      "stateMutability": "nonpayable",
      "type": "function"
    },
    {
      "inputs": [],
      "name": "owner",
      "outputs": [
        {
          "internalType": "address",
          "name": "",
          "type": "address"
        }
      ],
      "stateMutability": "view",
      "type": "function"
    },
    {
      "inputs": [],
      "name": "pause",
      "outputs": [],
      "stateMutability": "nonpayable",
      "type": "function"
    },
    {
      "inputs": [],
      "name": "paused",
      "outputs": [
        {
          "internalType": "bool",
          "name": "",
          "type": "bool"
        }
      ],
      "stateMutability": "view",
      "type": "function"
    },
    {
      "inputs": [],
      "name": "prizeNFT",
      "outputs": [
        {
          "internalType": "contract IERC721Upgradeable",
          "name": "",
          "type": "address"
        }
      ],
      "stateMutability": "view",
      "type": "function"
    },
    {
      "inputs": [
        {
          "internalType": "uint256",
          "name": "",
          "type": "uint256"
        }
      ],
      "name": "prizeNFTTokenIndex",
      "outputs": [
        {
          "internalType": "uint256",
          "name": "",
          "type": "uint256"
        }
      ],
      "stateMutability": "view",
      "type": "function"
    },
    {
      "inputs": [
        {
          "internalType": "uint256",
          "name": "",
          "type": "uint256"
        }
      ],
      "name": "prizeNFTokenIds",
      "outputs": [
        {
          "internalType": "uint256",
          "name": "",
          "type": "uint256"
        }
      ],
      "stateMutability": "view",
      "type": "function"
    },
    {
      "inputs": [],
      "name": "raffleStartAt",
      "outputs": [
        {
          "internalType": "uint256",
          "name": "",
          "type": "uint256"
        }
      ],
      "stateMutability": "view",
      "type": "function"
    },
    {
      "inputs": [
        {
          "internalType": "uint256",
          "name": "",
          "type": "uint256"
        }
      ],
      "name": "randomWordList",
      "outputs": [
        {
          "internalType": "uint256",
          "name": "",
          "type": "uint256"
        }
      ],
      "stateMutability": "view",
      "type": "function"
    },
    {
      "inputs": [
        {
          "internalType": "uint256",
          "name": "_requestId",
          "type": "uint256"
        },
        {
          "internalType": "uint256[]",
          "name": "_randomWords",
          "type": "uint256[]"
        }
      ],
      "name": "rawFulfillRandomWords",
      "outputs": [],
      "stateMutability": "nonpayable",
      "type": "function"
    },
    {
      "inputs": [],
      "name": "renounceOwnership",
      "outputs": [],
      "stateMutability": "nonpayable",
      "type": "function"
    },
    {
      "inputs": [],
      "name": "requestRandomWordsForWinnerSelection",
      "outputs": [
        {
          "internalType": "uint256",
          "name": "requestId",
          "type": "uint256"
        }
      ],
      "stateMutability": "nonpayable",
      "type": "function"
    },
    {
      "inputs": [],
      "name": "s_subscriptionId",
      "outputs": [
        {
          "internalType": "uint64",
          "name": "",
          "type": "uint64"
        }
      ],
      "stateMutability": "view",
      "type": "function"
    },
    {
      "inputs": [
        {
          "internalType": "address",
          "name": "",
          "type": "address"
        }
      ],
      "name": "ticketCountByUser",
      "outputs": [
        {
          "internalType": "uint256",
          "name": "",
          "type": "uint256"
        }
      ],
      "stateMutability": "view",
      "type": "function"
    },
    {
      "inputs": [
        {
          "internalType": "uint256",
          "name": "",
          "type": "uint256"
        }
      ],
      "name": "ticketIdList",
      "outputs": [
        {
          "internalType": "uint256",
          "name": "",
          "type": "uint256"
        }
      ],
      "stateMutability": "view",
      "type": "function"
    },
    {
      "inputs": [
        {
          "internalType": "address",
          "name": "",
          "type": "address"
        }
      ],
      "name": "ticketRangeByUser",
      "outputs": [
        {
          "internalType": "uint256",
          "name": "startTicketId",
          "type": "uint256"
        },
        {
          "internalType": "uint256",
          "name": "endTicketId",
          "type": "uint256"
        }
      ],
      "stateMutability": "view",
      "type": "function"
    },
    {
      "inputs": [],
      "name": "totalTicketCount",
      "outputs": [
        {
          "internalType": "uint256",
          "name": "",
          "type": "uint256"
        }
      ],
      "stateMutability": "view",
      "type": "function"
    },
    {
      "inputs": [],
      "name": "totalWinnerTicketCount",
      "outputs": [
        {
          "internalType": "uint256",
          "name": "",
          "type": "uint256"
        }
      ],
      "stateMutability": "view",
      "type": "function"
    },
    {
      "inputs": [
        {
          "internalType": "address",
          "name": "newOwner",
          "type": "address"
        }
      ],
      "name": "transferOwnership",
      "outputs": [],
      "stateMutability": "nonpayable",
      "type": "function"
    },
    {
      "inputs": [],
      "name": "unpause",
      "outputs": [],
      "stateMutability": "nonpayable",
      "type": "function"
    },
    {
      "inputs": [
        {
          "internalType": "uint256",
          "name": "_totalWinnerTicketCount",
          "type": "uint256"
        }
      ],
      "name": "updateTotalWinnerTicketCount",
      "outputs": [],
      "stateMutability": "nonpayable",
      "type": "function"
    },
    {
      "inputs": [
        {
          "internalType": "uint256",
          "name": "",
          "type": "uint256"
        }
      ],
      "name": "userByTicketId",
      "outputs": [
        {
          "internalType": "address",
          "name": "",
          "type": "address"
        }
      ],
      "stateMutability": "view",
      "type": "function"
    },
    {
      "inputs": [
        {
          "internalType": "address",
          "name": "",
          "type": "address"
        }
      ],
      "name": "userDeposits",
      "outputs": [
        {
          "internalType": "uint256",
          "name": "",
          "type": "uint256"
        }
      ],
      "stateMutability": "view",
      "type": "function"
    },
    {
      "inputs": [
        {
          "internalType": "uint256",
          "name": "",
          "type": "uint256"
        }
      ],
      "name": "winners",
      "outputs": [
        {
          "internalType": "uint256",
          "name": "ticketId",
          "type": "uint256"
        },
        {
          "internalType": "address",
          "name": "winner",
          "type": "address"
        },
        {
          "internalType": "uint256",
          "name": "prizeTokenId",
          "type": "uint256"
        }
      ],
      "stateMutability": "view",
      "type": "function"
    },
    {
      "inputs": [
        {
          "internalType": "address",
          "name": "_to",
          "type": "address"
        }
      ],
      "name": "withdrawLINK",
      "outputs": [],
      "stateMutability": "nonpayable",
      "type": "function"
    }
  ],
  "transactionHash": "0x0d83cdd6a6db84c94b37f6074aaa3aecc00b6862d90d2bf7f3ccf0b76fa8045c",
  "args": [],
  "numDeployments": 1,
  "solcInputHash": "8cfc00ae86e455489baa7361937dbbc7",
  "bytecode": "0x60806040523480156200001157600080fd5b506200001c62000022565b620000e4565b600054610100900460ff16156200008f5760405162461bcd60e51b815260206004820152602760248201527f496e697469616c697a61626c653a20636f6e747261637420697320696e697469604482015266616c697a696e6760c81b606482015260840160405180910390fd5b60005460ff9081161015620000e2576000805460ff191660ff9081179091556040519081527f7f26b83ff96e1f2b6a682f133852f6798a09c465da95921460cefb38474024989060200160405180910390a15b565b6129be80620000f46000396000f3fe608060405234801561001057600080fd5b506004361061027f5760003560e01c80637b762fac1161015c578063aa0a1a89116100ce578063c67c11e611610087578063c67c11e6146105cc578063df15c37e146105df578063e6c81c72146105f4578063f200006c14610607578063f2fde38b14610630578063f716675a1461064357600080fd5b8063aa0a1a891461053a578063b5cb15f714610576578063b6b55f251461057e578063b852204314610591578063bc7c7bc2146105a6578063bf384e10146105b957600080fd5b80638c2906d5116101205780638c2906d5146104a85780638da5cb5b146104bb578063931d393e146104cc5780639494b6c4146104d45780639e7d9ae1146104f7578063a2fb11751461050457600080fd5b80637b762fac1461043e5780638456cb59146104465780638699282e1461044e578063869c046c146104635780638ac000211461047657600080fd5b80633951dcff116101f55780635671fc66116101b95780635671fc66146103bd57806359839de6146103cd5780635c975abb146103ed5780635e2692be146104045780636ee7c19914610416578063715018a61461043657600080fd5b80633951dcff1461035c5780633b2490311461036f5780633f4ba83a1461038257806345483d491461038a5780634e81da0a1461039257600080fd5b806319d750ce1161024757806319d750ce146103145780631fe543e31461031d57806324e9edb014610330578063302f0f1814610338578063323c1bb31461034057806333818c881461034957600080fd5b806302e4bb9f1461028457806303b54d52146102995780630ba36dcd146102ac57806314558fab146102df578063150b7a02146102e8575b600080fd5b61029761029236600461220e565b61064c565b005b6102976102a7366004612243565b610727565b6102cc6102ba36600461229a565b60d76020526000908152604090205481565b6040519081526020015b60405180910390f35b6102cc60d25481565b6102fb6102f63660046122fb565b6109b0565b6040516001600160e01b031990911681526020016102d6565b6102cc60cd5481565b61029761032b36600461242e565b6109c1565b610297610a59565b610297610afd565b6102cc60cf5481565b6102cc61035736600461220e565b610b11565b6102cc61036a36600461220e565b610b32565b6102cc61037d36600461220e565b610b42565b610297610b52565b610297610b64565b60cc546103a5906001600160a01b031681565b6040516001600160a01b0390911681526020016102d6565b6102cc683635c9adc5dea0000081565b6102cc6103db36600461229a565b60db6020526000908152604090205481565b60655460ff165b60405190151581526020016102d6565b60dc546103f490610100900460ff1681565b6102cc61042436600461220e565b60ce6020526000908152604090205481565b610297610b7b565b6102cc610b8d565b610297610cf7565b610456610d07565b6040516102d691906124af565b61029761047136600461220e565b610d5f565b60c95461049090600160a01b90046001600160401b031681565b6040516001600160401b0390911681526020016102d6565b6102976104b636600461250d565b610db7565b6033546001600160a01b03166103a5565b610297610f42565b6103f46104e236600461220e565b60de6020526000908152604090205460ff1681565b60dc546103f49060ff1681565b61051761051236600461220e565b6110d8565b604080519384526001600160a01b039092166020840152908201526060016102d6565b61056161054836600461229a565b60dd602052600090815260409020805460019091015482565b604080519283526020830191909152016102d6565b6102cc611117565b61029761058c36600461220e565b611128565b610599611247565b6040516102d69190612578565b6102976105b43660046125d3565b611253565b6102976105c736600461229a565b61130e565b6102976105da36600461260a565b6113ae565b6105e76114ed565b6040516102d6919061263e565b60ca546103a5906001600160a01b031681565b6103a561061536600461220e565b60d9602052600090815260409020546001600160a01b031681565b61029761063e36600461229a565b61156f565b6102cc60d05481565b61066c73326c977e6efc84e512bb9c30f76e30c160ed06fb3330846115e5565b60c95460408051600160a01b83046001600160401b0316602082015273326c977e6efc84e512bb9c30f76e30c160ed06fb92634000aea0926001600160a01b03909116918591016040516020818303038152906040526040518463ffffffff1660e01b81526004016106e0939291906126f8565b6020604051808303816000875af11580156106ff573d6000803e3d6000fd5b505050506040513d601f19601f820116820180604052508101906107239190612728565b5050565b600054610100900460ff16158080156107475750600054600160ff909116105b806107615750303b158015610761575060005460ff166001145b6107c95760405162461bcd60e51b815260206004820152602e60248201527f496e697469616c697a61626c653a20636f6e747261637420697320616c72656160448201526d191e481a5b9a5d1a585b1a5e995960921b60648201526084015b60405180910390fd5b6000805460ff1916600117905580156107ec576000805461ff0019166101001790555b6107f4611656565b6107fc611685565b6108046116b4565b6001600160a01b03861661082a5760405162461bcd60e51b81526004016107c090612745565b6201518085116108665760405162461bcd60e51b81526020600482015260076024820152663120646179202b60c81b60448201526064016107c0565b600084116108b15760405162461bcd60e51b815260206004820152601860248201527716995c9bc81dda5b9b995c881d1a58dad95d0818dbdd5b9d60421b60448201526064016107c0565b6001600160a01b0383166108d75760405162461bcd60e51b81526004016107c090612745565b6001600160a01b0382166108fd5760405162461bcd60e51b81526004016107c090612745565b60cc80546001600160a01b0319166001600160a01b0388161790556109228542612781565b60cd5560cf84905560ca80546001600160a01b038086166001600160a01b03199283161790925560c98054928516929091169190911790556109626116db565b80156109a8576000805461ff0019169055604051600181527f7f26b83ff96e1f2b6a682f133852f6798a09c465da95921460cefb38474024989060200160405180910390a15b505050505050565b630a85bd0160e11b5b949350505050565b60c9546001600160a01b03163314610a125760405162461bcd60e51b815260206004820152601460248201527327b7363c902b29231031b7b7b93234b730ba37b960611b60448201526064016107c0565b610a1c82826117e5565b7f19a2c8ede94142b0c8ed074fd0a4778b9928cc8e06adc32dc2c1b36d698610678282604051610a4d929190612799565b60405180910390a15050565b610a61611851565b60c9546001600160a01b0381169063d7ae1d30906001600160401b03600160a01b90910416610a986033546001600160a01b031690565b6040518363ffffffff1660e01b8152600401610ab59291906127b2565b600060405180830381600087803b158015610acf57600080fd5b505af1158015610ae3573d6000803e3d6000fd5b505060c9805467ffffffffffffffff60a01b191690555050565b610b05611851565b60dc805460ff19169055565b60cb8181548110610b2157600080fd5b600091825260209091200154905081565b60da8181548110610b2157600080fd5b60df8181548110610b2157600080fd5b610b5a611851565b610b626118ab565b565b610b6c611851565b60dc805460ff19166001179055565b610b83611851565b610b6260006118fd565b60dc5460009060ff1615610bdd5760405162461bcd60e51b815260206004820152601760248201527613db9b1e4819195c1bdcda5d08191a5cd85b1b1bddd959604a1b60448201526064016107c0565b610be5611851565b60cf5460d05410610c2b5760405162461bcd60e51b815260206004820152601060248201526f52657175657374206f766572666c6f7760801b60448201526064016107c0565b60d25460cf541115610c775760405162461bcd60e51b81526020600482015260156024820152744e6f7420656e6f756768206465706f7369746f727360581b60448201526064016107c0565b60df5415610c9b576000610c8961194f565b90508015610c9957600091505090565b505b600060cf546002610cac91906127d4565b9050610cb781611d19565b60408051828152602081018490529193507fc904ef81354df41ed9256aa2ab862017f6ab3f33f3f7ca50016a1786083d086d910160405180910390a15090565b610cff611851565b610b62611ddf565b606060df805480602002602001604051908101604052809291908181526020018280548015610d5557602002820191906000526020600020905b815481526020019060010190808311610d41575b5050505050905090565b610d67611851565b60008111610db25760405162461bcd60e51b815260206004820152601860248201527716995c9bc81dda5b9b995c881d1a58dad95d0818dbdd5b9d60421b60448201526064016107c0565b60cf55565b60dc5460ff16610e005760405162461bcd60e51b815260206004820152601460248201527313db9b1e4819195c1bdcda5d08185b1b1bddd95960621b60448201526064016107c0565b610e08611851565b82818114610e495760405162461bcd60e51b815260206004820152600e60248201526d496e76616c696420706172616d7360901b60448201526064016107c0565b60005b818110156109a8576000868683818110610e6857610e686127f3565b9050602002016020810190610e7d919061229a565b90506000858584818110610e9357610e936127f3565b905060200201356064610ea691906127d4565b9050610ebb683635c9adc5dea00000826127d4565b6001600160a01b038316600090815260d7602052604081208054909190610ee3908490612781565b90915550610ef4905060d383611e1c565b50816001600160a01b03167fe3fb7fcd519a3e7c790d02eb7b35c2f9b0ad2b62c0820dcc728151ebd9728d1b82604051610f3091815260200190565b60405180910390a25050600101610e4c565b60dc5460ff1615610f8f5760405162461bcd60e51b815260206004820152601760248201527613db9b1e4819195c1bdcda5d08191a5cd85b1b1bddd959604a1b60448201526064016107c0565b610f97611851565b60dc54610100900460ff1615610fe25760405162461bcd60e51b815260206004820152601060248201526f105b1c9958591e48185cdcda59db995960821b60448201526064016107c0565b60dc805461ff0019166101001790556000610ffb611117565b90506000611007611247565b90506000805b838110156110d0576000838281518110611029576110296127f3565b602002602001015190506000683635c9adc5dea0000060d76000846001600160a01b03166001600160a01b031681526020019081526020016000205461106f919061281f565b90506040518060400160405280858152602001600183876110909190612781565b61109a9190612833565b90526001600160a01b03909216600090815260dd602090815260409091208351815592015160019283015592909201910161100d565b5060d2555050565b60d181815481106110e857600080fd5b60009182526020909120600390910201805460018201546002909201549092506001600160a01b039091169083565b600061112360d3611e38565b905090565b60dc5460ff166111715760405162461bcd60e51b815260206004820152601460248201527313db9b1e4819195c1bdcda5d08185b1b1bddd95960621b60448201526064016107c0565b611179611e42565b60cc5460405163079cc67960e41b8152336004820152602481018390526001600160a01b03909116906379cc679090604401600060405180830381600087803b1580156111c557600080fd5b505af11580156111d9573d6000803e3d6000fd5b505033600090815260d76020526040812080548594509092506111fd908490612781565b9091555061120e905060d333611e1c565b5060405181815233907f951fdc61d6a98f96098a17ea6ac287a6fd38aea6bef73083c93b274cb830107d9060200160405180910390a250565b606061112360d3611e88565b61125b611851565b806112ce5760c954604051639f87fad760e01b81526001600160a01b03821691639f87fad7916112a091600160a01b90046001600160401b03169086906004016127b2565b600060405180830381600087803b1580156112ba57600080fd5b505af11580156109a8573d6000803e3d6000fd5b60c954604051631cd0704360e21b81526001600160a01b03821691637341c10c916112a091600160a01b90046001600160401b03169086906004016127b2565b611316611851565b6040516370a0823160e01b81523060048201526113ab90829073326c977e6efc84e512bb9c30f76e30c160ed06fb906370a0823190602401602060405180830381865afa15801561136b573d6000803e3d6000fd5b505050506040513d601f19601f8201168201806040525081019061138f919061284a565b73326c977e6efc84e512bb9c30f76e30c160ed06fb9190611e95565b50565b6113b6611851565b805160cf5460cb546113c89083612781565b1461140e5760405162461bcd60e51b8152602060048201526016602482015275135a5cdb585d18da1959081c1c9a5e994818dbdd5b9d60521b60448201526064016107c0565b60005b818110156114e857600083828151811061142d5761142d6127f3565b60209081029190910181015160ca546040805193840181526000845251635c46a7ef60e11b81529193506001600160a01b03169163b88d4fde9161147991339130918791600401612863565b600060405180830381600087803b15801561149357600080fd5b505af11580156114a7573d6000803e3d6000fd5b505060cb8054600181810183556000929092527fa7ce836d032b2bf62b7e2097a8e0a6d8aeb35405ad15271e96d3b0188a1d06fb0193909355505001611411565b505050565b606060d1805480602002602001604051908101604052809291908181526020016000905b828210156115665760008481526020908190206040805160608101825260038602909201805483526001808201546001600160a01b031684860152600290910154918301919091529083529092019101611511565b50505050905090565b611577611851565b6001600160a01b0381166115dc5760405162461bcd60e51b815260206004820152602660248201527f4f776e61626c653a206e6577206f776e657220697320746865207a65726f206160448201526564647265737360d01b60648201526084016107c0565b6113ab816118fd565b6040516001600160a01b03808516602483015283166044820152606481018290526116509085906323b872dd60e01b906084015b60408051601f198184030181529190526020810180516001600160e01b03166001600160e01b031990931692909217909152611ec5565b50505050565b600054610100900460ff1661167d5760405162461bcd60e51b81526004016107c0906128a0565b610b62611f97565b600054610100900460ff166116ac5760405162461bcd60e51b81526004016107c0906128a0565b610b62611fc7565b600054610100900460ff16610b625760405162461bcd60e51b81526004016107c0906128a0565b60c960009054906101000a90046001600160a01b03166001600160a01b031663a21a23e46040518163ffffffff1660e01b81526004016020604051808303816000875af1158015611730573d6000803e3d6000fd5b505050506040513d601f19601f8201168201806040525081019061175491906128eb565b60c980546001600160401b03928316600160a01b90810267ffffffffffffffff60a01b198316811793849055604051631cd0704360e21b81526001600160a01b03918216919093161793637341c10c936117b793929004169030906004016127b2565b600060405180830381600087803b1580156117d157600080fd5b505af1158015611650573d6000803e3d6000fd5b60005b81518110156118485760df8282600185516118039190612833565b61180d9190612833565b8151811061181d5761181d6127f3565b60209081029190910181015182546001818101855560009485529290932090920191909155016117e8565b506114e861194f565b6033546001600160a01b03163314610b625760405162461bcd60e51b815260206004820181905260248201527f4f776e61626c653a2063616c6c6572206973206e6f7420746865206f776e657260448201526064016107c0565b6118b3611ffa565b6065805460ff191690557f5db9ee0a495bf2e6ff9c91a7834c1ba4fdd244a5e8aa4e537bd38aeae4b073aa335b6040516001600160a01b03909116815260200160405180910390a1565b603380546001600160a01b038381166001600160a01b0319831681179093556040519116919082907f8be0079c531659141344cd1fd0a4f28419497f9722a3daafe3b4186f6b6457e090600090a35050565b60df8054600091829161196490600190612833565b81548110611974576119746127f3565b9060005260206000200154905060df80548061199257611992612914565b6001900381819060005260206000200160009055905560005b60d2546119b8908361292a565b600081815260de602052604090205490915060ff1615611a3b5760df546119e25760009250505090565b60df80546119f290600190612833565b81548110611a0257611a026127f3565b9060005260206000200154915060df805480611a2057611a20612914565b600190038181906000526020600020016000905590556119ab565b6000611a45611247565b90506000806001611a54611117565b611a5e9190612833565b905060008060005b6002611a728587612781565b611a7c919061281f565b9250858381518110611a9057611a906127f3565b602002602001015191508660dd6000846001600160a01b03166001600160a01b031681526020019081526020016000206000015411158015611aed57506001600160a01b038216600090815260dd60205260409020600101548711155b15611af9575080611b3d565b6001600160a01b038216600090815260dd6020526040902054871015611b2b57611b24600184612833565b9350611a66565b611b36836001612781565b9450611a66565b600060cb60d05481548110611b5457611b546127f3565b600091825260208083209091015460ca546040805193840181529383529251635c46a7ef60e11b81529093506001600160a01b039092169163b88d4fde91611ba59130918791879190600401612863565b600060405180830381600087803b158015611bbf57600080fd5b505af1158015611bd3573d6000803e3d6000fd5b505050600089815260de602090815260408083208054600160ff19909116811790915581516060810183528d81526001600160a01b0388811694820194855292810187815260d180549384018155865290517f695fb3134ad82c3b8022bc5464edd0bcc9424ef672b52245dcb6ab2374327ce360039093029283015592517f695fb3134ad82c3b8022bc5464edd0bcc9424ef672b52245dcb6ab2374327ce4820180546001600160a01b031916919093161790915590517f695fb3134ad82c3b8022bc5464edd0bcc9424ef672b52245dcb6ab2374327ce59091015560d08054909250611cbf9061293e565b9091555060408051898152602081018390526001600160a01b0384169133917fef61d5e7c73a0488ebba4ce7e2cc6cab14e1c52e49e75a2dd6d2c242770db768910160405180910390a36001995050505050505050505090565b60c9546040516305d3b1d360e41b81527f79d3d8832d904592c0bf9818b621522c988bb8b0c05cdc3b15aea1b6e8db0c156004820152600160a01b82046001600160401b0316602482015260036044820152622625a0606482015263ffffffff831660848201526000916001600160a01b031690635d3b1d309060a4016020604051808303816000875af1158015611db5573d6000803e3d6000fd5b505050506040513d601f19601f82011682018060405250810190611dd9919061284a565b92915050565b611de7611e42565b6065805460ff191660011790557f62e78cea01bee320cd4e420270b5ea74000d11b0c9f74754ebdbfc544b05a2586118e03390565b6000611e31836001600160a01b038416612043565b9392505050565b6000611dd9825490565b60655460ff1615610b625760405162461bcd60e51b815260206004820152601060248201526f14185d5cd8589b194e881c185d5cd95960821b60448201526064016107c0565b60606000611e3183612092565b6040516001600160a01b0383166024820152604481018290526114e890849063a9059cbb60e01b90606401611619565b6000611f1a826040518060400160405280602081526020017f5361666545524332303a206c6f772d6c6576656c2063616c6c206661696c6564815250856001600160a01b03166120ee9092919063ffffffff16565b8051909150156114e85780806020019051810190611f389190612728565b6114e85760405162461bcd60e51b815260206004820152602a60248201527f5361666545524332303a204552433230206f7065726174696f6e20646964206e6044820152691bdd081cdd58d8d9595960b21b60648201526084016107c0565b600054610100900460ff16611fbe5760405162461bcd60e51b81526004016107c0906128a0565b610b62336118fd565b600054610100900460ff16611fee5760405162461bcd60e51b81526004016107c0906128a0565b6065805460ff19169055565b60655460ff16610b625760405162461bcd60e51b815260206004820152601460248201527314185d5cd8589b194e881b9bdd081c185d5cd95960621b60448201526064016107c0565b600081815260018301602052604081205461208a57508154600181810184556000848152602080822090930184905584548482528286019093526040902091909155611dd9565b506000611dd9565b6060816000018054806020026020016040519081016040528092919081815260200182805480156120e257602002820191906000526020600020905b8154815260200190600101908083116120ce575b50505050509050919050565b60606109b9848460008585600080866001600160a01b031685876040516121159190612959565b60006040518083038185875af1925050503d8060008114612152576040519150601f19603f3d011682016040523d82523d6000602084013e612157565b606091505b509150915061216887838387612173565b979650505050505050565b606083156121df5782516121d8576001600160a01b0385163b6121d85760405162461bcd60e51b815260206004820152601d60248201527f416464726573733a2063616c6c20746f206e6f6e2d636f6e747261637400000060448201526064016107c0565b50816109b9565b6109b983838151156121f45781518083602001fd5b8060405162461bcd60e51b81526004016107c09190612975565b60006020828403121561222057600080fd5b5035919050565b80356001600160a01b038116811461223e57600080fd5b919050565b600080600080600060a0868803121561225b57600080fd5b61226486612227565b9450602086013593506040860135925061228060608701612227565b915061228e60808701612227565b90509295509295909350565b6000602082840312156122ac57600080fd5b611e3182612227565b634e487b7160e01b600052604160045260246000fd5b604051601f8201601f191681016001600160401b03811182821017156122f3576122f36122b5565b604052919050565b6000806000806080858703121561231157600080fd5b61231a85612227565b93506020612329818701612227565b93506040860135925060608601356001600160401b038082111561234c57600080fd5b818801915088601f83011261236057600080fd5b813581811115612372576123726122b5565b612384601f8201601f191685016122cb565b9150808252898482850101111561239a57600080fd5b808484018584013760008482840101525080935050505092959194509250565b600082601f8301126123cb57600080fd5b813560206001600160401b038211156123e6576123e66122b5565b8160051b6123f58282016122cb565b928352848101820192828101908785111561240f57600080fd5b83870192505b8483101561216857823582529183019190830190612415565b6000806040838503121561244157600080fd5b8235915060208301356001600160401b0381111561245e57600080fd5b61246a858286016123ba565b9150509250929050565b600081518084526020808501945080840160005b838110156124a457815187529582019590820190600101612488565b509495945050505050565b602081526000611e316020830184612474565b60008083601f8401126124d457600080fd5b5081356001600160401b038111156124eb57600080fd5b6020830191508360208260051b850101111561250657600080fd5b9250929050565b6000806000806040858703121561252357600080fd5b84356001600160401b038082111561253a57600080fd5b612546888389016124c2565b9096509450602087013591508082111561255f57600080fd5b5061256c878288016124c2565b95989497509550505050565b6020808252825182820181905260009190848201906040850190845b818110156125b95783516001600160a01b031683529284019291840191600101612594565b50909695505050505050565b80151581146113ab57600080fd5b600080604083850312156125e657600080fd5b6125ef83612227565b915060208301356125ff816125c5565b809150509250929050565b60006020828403121561261c57600080fd5b81356001600160401b0381111561263257600080fd5b6109b9848285016123ba565b602080825282518282018190526000919060409081850190868401855b8281101561269357815180518552868101516001600160a01b031687860152850151858501526060909301929085019060010161265b565b5091979650505050505050565b60005b838110156126bb5781810151838201526020016126a3565b838111156116505750506000910152565b600081518084526126e48160208601602086016126a0565b601f01601f19169290920160200192915050565b60018060a01b038416815282602082015260606040820152600061271f60608301846126cc565b95945050505050565b60006020828403121561273a57600080fd5b8151611e31816125c5565b6020808252600c908201526b5a65726f206164647265737360a01b604082015260600190565b634e487b7160e01b600052601160045260246000fd5b600082198211156127945761279461276b565b500190565b8281526040602082015260006109b96040830184612474565b6001600160401b039290921682526001600160a01b0316602082015260400190565b60008160001904831182151516156127ee576127ee61276b565b500290565b634e487b7160e01b600052603260045260246000fd5b634e487b7160e01b600052601260045260246000fd5b60008261282e5761282e612809565b500490565b6000828210156128455761284561276b565b500390565b60006020828403121561285c57600080fd5b5051919050565b6001600160a01b0385811682528416602082015260408101839052608060608201819052600090612896908301846126cc565b9695505050505050565b6020808252602b908201527f496e697469616c697a61626c653a20636f6e7472616374206973206e6f74206960408201526a6e697469616c697a696e6760a81b606082015260800190565b6000602082840312156128fd57600080fd5b81516001600160401b0381168114611e3157600080fd5b634e487b7160e01b600052603160045260246000fd5b60008261293957612939612809565b500690565b60006000198214156129525761295261276b565b5060010190565b6000825161296b8184602087016126a0565b9190910192915050565b602081526000611e3160208301846126cc56fea264697066735822122062244fc3cf5fb27265a1d5fd13b5a223288bc5155d9514a46774be15792532c664736f6c634300080b0033",
  "devdoc": {
    "kind": "dev",
    "methods": {
      "constructor": {
        "custom:oz-upgrades-unsafe-allow": "constructor"
      },
      "onERC721Received(address,address,uint256,bytes)": {
        "details": "See {IERC721Receiver-onERC721Received}. Always returns `IERC721Receiver.onERC721Received.selector`."
      },
      "owner()": {
        "details": "Returns the address of the current owner."
      },
      "paused()": {
        "details": "Returns true if the contract is paused, and false otherwise."
      },
      "renounceOwnership()": {
        "details": "Leaves the contract without owner. It will not be possible to call `onlyOwner` functions anymore. Can only be called by the current owner. NOTE: Renouncing ownership will leave the contract without an owner, thereby removing any functionality that is only available to the owner."
      },
      "transferOwnership(address)": {
        "details": "Transfers ownership of the contract to a new account (`newOwner`). Can only be called by the current owner."
      }
    },
    "stateVariables": {
      "NFTL_AMOUNT_FOR_TICKET": {
        "details": "NFTL amount required for 1 ticket"
      },
      "_ticketIdList": {
        "details": "TokenId list"
      },
      "_ticketIdsByUser": {
        "details": "User -> Ticket Id list"
      },
      "_userList": {
        "details": "User list"
      },
      "currentWinnerTicketCount": {
        "details": "Current selected winner count"
      },
      "isTicketAssignedToUsers": {
        "details": "Ticket assign status"
      },
      "isUserDepositAllowed": {
        "details": "Swith to on/off the deposit"
      },
      "isWinnerTicketId": {
        "details": "Winner Ticket Id -> Bool"
      },
      "nftl": {
        "details": "NFTL address"
      },
      "prizeNFT": {
        "details": "Prize NFT (NiftyDegen) address"
      },
      "prizeNFTokenIds": {
        "details": "PrizeNFT TokenIds"
      },
      "raffleStartAt": {
        "details": "Timestamp the raffle start"
      },
      "randomWordList": {
        "details": "Random word list"
      },
      "ticketCountByUser": {
        "details": "User -> Ticket count"
      },
      "ticketIdList": {
        "details": "Ticket list"
      },
      "ticketRangeByUser": {
        "details": "User -> Ticket range"
      },
      "totalTicketCount": {
        "details": "Total ticket count"
      },
      "totalWinnerTicketCount": {
        "details": "Total winner count to select"
      },
      "userByTicketId": {
        "details": "Ticket Id -> User"
      },
      "userDeposits": {
        "details": "User -> NFTL amount deposited"
      },
      "vrfCoordinator": {
        "details": "Chainlink VRF params"
      },
      "winners": {
        "details": "Winner list"
      }
    },
    "title": "NFTLRaffle",
    "version": 1
  },
  "userdoc": {
    "kind": "user",
    "methods": {
      "pause()": {
        "notice": "Pause the contract"
      },
      "unpause()": {
        "notice": "Unpause the contract"
      }
    },
    "version": 1
  },
  "storageLayout": {
    "storage": [
      {
        "astId": 1733,
        "contract": "contracts/NFTLRaffle.sol:NFTLRaffle",
        "label": "_initialized",
        "offset": 0,
        "slot": "0",
        "type": "t_uint8"
      },
      {
        "astId": 1736,
        "contract": "contracts/NFTLRaffle.sol:NFTLRaffle",
        "label": "_initializing",
        "offset": 1,
        "slot": "0",
        "type": "t_bool"
      },
      {
        "astId": 4520,
        "contract": "contracts/NFTLRaffle.sol:NFTLRaffle",
        "label": "__gap",
        "offset": 0,
        "slot": "1",
        "type": "t_array(t_uint256)50_storage"
      },
      {
        "astId": 1605,
        "contract": "contracts/NFTLRaffle.sol:NFTLRaffle",
        "label": "_owner",
        "offset": 0,
        "slot": "51",
        "type": "t_address"
      },
      {
        "astId": 1725,
        "contract": "contracts/NFTLRaffle.sol:NFTLRaffle",
        "label": "__gap",
        "offset": 0,
        "slot": "52",
        "type": "t_array(t_uint256)49_storage"
      },
      {
        "astId": 1916,
        "contract": "contracts/NFTLRaffle.sol:NFTLRaffle",
        "label": "_paused",
        "offset": 0,
        "slot": "101",
        "type": "t_bool"
      },
      {
        "astId": 2021,
        "contract": "contracts/NFTLRaffle.sol:NFTLRaffle",
        "label": "__gap",
        "offset": 0,
        "slot": "102",
        "type": "t_array(t_uint256)49_storage"
      },
      {
        "astId": 4194,
        "contract": "contracts/NFTLRaffle.sol:NFTLRaffle",
        "label": "__gap",
        "offset": 0,
        "slot": "151",
        "type": "t_array(t_uint256)50_storage"
      },
      {
        "astId": 15353,
        "contract": "contracts/NFTLRaffle.sol:NFTLRaffle",
        "label": "vrfCoordinator",
        "offset": 0,
        "slot": "201",
        "type": "t_address"
      },
      {
        "astId": 15367,
        "contract": "contracts/NFTLRaffle.sol:NFTLRaffle",
        "label": "s_subscriptionId",
        "offset": 20,
        "slot": "201",
        "type": "t_uint64"
      },
      {
        "astId": 15371,
        "contract": "contracts/NFTLRaffle.sol:NFTLRaffle",
        "label": "prizeNFT",
        "offset": 0,
        "slot": "202",
        "type": "t_contract(IERC721Upgradeable)3716"
      },
      {
        "astId": 15375,
        "contract": "contracts/NFTLRaffle.sol:NFTLRaffle",
        "label": "prizeNFTokenIds",
        "offset": 0,
        "slot": "203",
        "type": "t_array(t_uint256)dyn_storage"
      },
      {
        "astId": 15379,
        "contract": "contracts/NFTLRaffle.sol:NFTLRaffle",
        "label": "nftl",
        "offset": 0,
        "slot": "204",
        "type": "t_contract(IERC20BurnableUpgradeable)15317"
      },
      {
        "astId": 15382,
        "contract": "contracts/NFTLRaffle.sol:NFTLRaffle",
        "label": "raffleStartAt",
        "offset": 0,
        "slot": "205",
        "type": "t_uint256"
      },
      {
        "astId": 15386,
        "contract": "contracts/NFTLRaffle.sol:NFTLRaffle",
        "label": "prizeNFTTokenIndex",
        "offset": 0,
        "slot": "206",
        "type": "t_mapping(t_uint256,t_uint256)"
      },
      {
        "astId": 15389,
        "contract": "contracts/NFTLRaffle.sol:NFTLRaffle",
        "label": "totalWinnerTicketCount",
        "offset": 0,
        "slot": "207",
        "type": "t_uint256"
      },
      {
        "astId": 15392,
        "contract": "contracts/NFTLRaffle.sol:NFTLRaffle",
        "label": "currentWinnerTicketCount",
        "offset": 0,
        "slot": "208",
        "type": "t_uint256"
      },
      {
        "astId": 15397,
        "contract": "contracts/NFTLRaffle.sol:NFTLRaffle",
        "label": "winners",
        "offset": 0,
        "slot": "209",
        "type": "t_array(t_struct(WinnerInfo)15345_storage)dyn_storage"
      },
      {
        "astId": 15400,
        "contract": "contracts/NFTLRaffle.sol:NFTLRaffle",
        "label": "totalTicketCount",
        "offset": 0,
        "slot": "210",
        "type": "t_uint256"
      },
      {
        "astId": 15412,
        "contract": "contracts/NFTLRaffle.sol:NFTLRaffle",
        "label": "_userList",
        "offset": 0,
        "slot": "211",
        "type": "t_struct(AddressSet)6304_storage"
      },
      {
        "astId": 15416,
        "contract": "contracts/NFTLRaffle.sol:NFTLRaffle",
        "label": "_ticketIdList",
        "offset": 0,
        "slot": "213",
        "type": "t_struct(UintSet)6461_storage"
      },
      {
        "astId": 15421,
        "contract": "contracts/NFTLRaffle.sol:NFTLRaffle",
        "label": "userDeposits",
        "offset": 0,
        "slot": "215",
        "type": "t_mapping(t_address,t_uint256)"
      },
      {
        "astId": 15427,
        "contract": "contracts/NFTLRaffle.sol:NFTLRaffle",
        "label": "_ticketIdsByUser",
        "offset": 0,
        "slot": "216",
        "type": "t_mapping(t_address,t_struct(UintSet)6461_storage)"
      },
      {
        "astId": 15432,
        "contract": "contracts/NFTLRaffle.sol:NFTLRaffle",
        "label": "userByTicketId",
        "offset": 0,
        "slot": "217",
        "type": "t_mapping(t_uint256,t_address)"
      },
      {
        "astId": 15436,
        "contract": "contracts/NFTLRaffle.sol:NFTLRaffle",
        "label": "ticketIdList",
        "offset": 0,
        "slot": "218",
        "type": "t_array(t_uint256)dyn_storage"
      },
      {
        "astId": 15441,
        "contract": "contracts/NFTLRaffle.sol:NFTLRaffle",
        "label": "ticketCountByUser",
        "offset": 0,
        "slot": "219",
        "type": "t_mapping(t_address,t_uint256)"
      },
      {
        "astId": 15444,
        "contract": "contracts/NFTLRaffle.sol:NFTLRaffle",
        "label": "isUserDepositAllowed",
        "offset": 0,
        "slot": "220",
        "type": "t_bool"
      },
      {
        "astId": 15447,
        "contract": "contracts/NFTLRaffle.sol:NFTLRaffle",
        "label": "isTicketAssignedToUsers",
        "offset": 1,
        "slot": "220",
        "type": "t_bool"
      },
      {
        "astId": 15453,
        "contract": "contracts/NFTLRaffle.sol:NFTLRaffle",
        "label": "ticketRangeByUser",
        "offset": 0,
        "slot": "221",
        "type": "t_mapping(t_address,t_struct(TicketRange)15350_storage)"
      },
      {
        "astId": 15458,
        "contract": "contracts/NFTLRaffle.sol:NFTLRaffle",
        "label": "isWinnerTicketId",
        "offset": 0,
        "slot": "222",
        "type": "t_mapping(t_uint256,t_bool)"
      },
      {
        "astId": 15462,
        "contract": "contracts/NFTLRaffle.sol:NFTLRaffle",
        "label": "randomWordList",
        "offset": 0,
        "slot": "223",
        "type": "t_array(t_uint256)dyn_storage"
      }
    ],
    "types": {
      "t_address": {
        "encoding": "inplace",
        "label": "address",
        "numberOfBytes": "20"
      },
      "t_array(t_bytes32)dyn_storage": {
        "base": "t_bytes32",
        "encoding": "dynamic_array",
        "label": "bytes32[]",
        "numberOfBytes": "32"
      },
      "t_array(t_struct(WinnerInfo)15345_storage)dyn_storage": {
        "base": "t_struct(WinnerInfo)15345_storage",
        "encoding": "dynamic_array",
        "label": "struct NFTLRaffle.WinnerInfo[]",
        "numberOfBytes": "32"
      },
      "t_array(t_uint256)49_storage": {
        "base": "t_uint256",
        "encoding": "inplace",
        "label": "uint256[49]",
        "numberOfBytes": "1568"
      },
      "t_array(t_uint256)50_storage": {
        "base": "t_uint256",
        "encoding": "inplace",
        "label": "uint256[50]",
        "numberOfBytes": "1600"
      },
      "t_array(t_uint256)dyn_storage": {
        "base": "t_uint256",
        "encoding": "dynamic_array",
        "label": "uint256[]",
        "numberOfBytes": "32"
      },
      "t_bool": {
        "encoding": "inplace",
        "label": "bool",
        "numberOfBytes": "1"
      },
      "t_bytes32": {
        "encoding": "inplace",
        "label": "bytes32",
        "numberOfBytes": "32"
      },
      "t_contract(IERC20BurnableUpgradeable)15317": {
        "encoding": "inplace",
        "label": "contract IERC20BurnableUpgradeable",
        "numberOfBytes": "20"
      },
      "t_contract(IERC721Upgradeable)3716": {
        "encoding": "inplace",
        "label": "contract IERC721Upgradeable",
        "numberOfBytes": "20"
      },
      "t_mapping(t_address,t_struct(TicketRange)15350_storage)": {
        "encoding": "mapping",
        "key": "t_address",
        "label": "mapping(address => struct NFTLRaffle.TicketRange)",
        "numberOfBytes": "32",
        "value": "t_struct(TicketRange)15350_storage"
      },
      "t_mapping(t_address,t_struct(UintSet)6461_storage)": {
        "encoding": "mapping",
        "key": "t_address",
        "label": "mapping(address => struct EnumerableSetUpgradeable.UintSet)",
        "numberOfBytes": "32",
        "value": "t_struct(UintSet)6461_storage"
      },
      "t_mapping(t_address,t_uint256)": {
        "encoding": "mapping",
        "key": "t_address",
        "label": "mapping(address => uint256)",
        "numberOfBytes": "32",
        "value": "t_uint256"
      },
      "t_mapping(t_bytes32,t_uint256)": {
        "encoding": "mapping",
        "key": "t_bytes32",
        "label": "mapping(bytes32 => uint256)",
        "numberOfBytes": "32",
        "value": "t_uint256"
      },
      "t_mapping(t_uint256,t_address)": {
        "encoding": "mapping",
        "key": "t_uint256",
        "label": "mapping(uint256 => address)",
        "numberOfBytes": "32",
        "value": "t_address"
      },
      "t_mapping(t_uint256,t_bool)": {
        "encoding": "mapping",
        "key": "t_uint256",
        "label": "mapping(uint256 => bool)",
        "numberOfBytes": "32",
        "value": "t_bool"
      },
      "t_mapping(t_uint256,t_uint256)": {
        "encoding": "mapping",
        "key": "t_uint256",
        "label": "mapping(uint256 => uint256)",
        "numberOfBytes": "32",
        "value": "t_uint256"
      },
      "t_struct(AddressSet)6304_storage": {
        "encoding": "inplace",
        "label": "struct EnumerableSetUpgradeable.AddressSet",
        "members": [
          {
            "astId": 6303,
            "contract": "contracts/NFTLRaffle.sol:NFTLRaffle",
            "label": "_inner",
            "offset": 0,
            "slot": "0",
            "type": "t_struct(Set)5989_storage"
          }
        ],
        "numberOfBytes": "64"
      },
      "t_struct(Set)5989_storage": {
        "encoding": "inplace",
        "label": "struct EnumerableSetUpgradeable.Set",
        "members": [
          {
            "astId": 5984,
            "contract": "contracts/NFTLRaffle.sol:NFTLRaffle",
            "label": "_values",
            "offset": 0,
            "slot": "0",
            "type": "t_array(t_bytes32)dyn_storage"
          },
          {
            "astId": 5988,
            "contract": "contracts/NFTLRaffle.sol:NFTLRaffle",
            "label": "_indexes",
            "offset": 0,
            "slot": "1",
            "type": "t_mapping(t_bytes32,t_uint256)"
          }
        ],
        "numberOfBytes": "64"
      },
      "t_struct(TicketRange)15350_storage": {
        "encoding": "inplace",
        "label": "struct NFTLRaffle.TicketRange",
        "members": [
          {
            "astId": 15347,
            "contract": "contracts/NFTLRaffle.sol:NFTLRaffle",
            "label": "startTicketId",
            "offset": 0,
            "slot": "0",
            "type": "t_uint256"
          },
          {
            "astId": 15349,
            "contract": "contracts/NFTLRaffle.sol:NFTLRaffle",
            "label": "endTicketId",
            "offset": 0,
            "slot": "1",
            "type": "t_uint256"
          }
        ],
        "numberOfBytes": "64"
      },
      "t_struct(UintSet)6461_storage": {
        "encoding": "inplace",
        "label": "struct EnumerableSetUpgradeable.UintSet",
        "members": [
          {
            "astId": 6460,
            "contract": "contracts/NFTLRaffle.sol:NFTLRaffle",
            "label": "_inner",
            "offset": 0,
            "slot": "0",
            "type": "t_struct(Set)5989_storage"
          }
        ],
        "numberOfBytes": "64"
      },
      "t_struct(WinnerInfo)15345_storage": {
        "encoding": "inplace",
        "label": "struct NFTLRaffle.WinnerInfo",
        "members": [
          {
            "astId": 15340,
            "contract": "contracts/NFTLRaffle.sol:NFTLRaffle",
            "label": "ticketId",
            "offset": 0,
            "slot": "0",
            "type": "t_uint256"
          },
          {
            "astId": 15342,
            "contract": "contracts/NFTLRaffle.sol:NFTLRaffle",
            "label": "winner",
            "offset": 0,
            "slot": "1",
            "type": "t_address"
          },
          {
            "astId": 15344,
            "contract": "contracts/NFTLRaffle.sol:NFTLRaffle",
            "label": "prizeTokenId",
            "offset": 0,
            "slot": "2",
            "type": "t_uint256"
          }
        ],
        "numberOfBytes": "96"
      },
      "t_uint256": {
        "encoding": "inplace",
        "label": "uint256",
        "numberOfBytes": "32"
      },
      "t_uint64": {
        "encoding": "inplace",
        "label": "uint64",
        "numberOfBytes": "8"
      },
      "t_uint8": {
        "encoding": "inplace",
        "label": "uint8",
        "numberOfBytes": "1"
      }
    }
  }
}