{
  "address": "0xe6aC579A182f1617f26BfF31d6C35f72A625aaee",
  "abi": [
    {
      "inputs": [],
      "stateMutability": "nonpayable",
      "type": "constructor"
    },
    {
      "anonymous": false,
      "inputs": [
        {
          "indexed": false,
          "internalType": "uint8",
          "name": "version",
          "type": "uint8"
        }
      ],
      "name": "Initialized",
      "type": "event"
    },
    {
      "anonymous": false,
      "inputs": [
        {
          "indexed": true,
          "internalType": "address",
          "name": "previousOwner",
          "type": "address"
        },
        {
          "indexed": true,
          "internalType": "address",
          "name": "newOwner",
          "type": "address"
        }
      ],
      "name": "OwnershipTransferred",
      "type": "event"
    },
    {
      "anonymous": false,
      "inputs": [
        {
          "indexed": false,
          "internalType": "address",
          "name": "account",
          "type": "address"
        }
      ],
      "name": "Paused",
      "type": "event"
    },
    {
      "anonymous": false,
      "inputs": [
        {
          "indexed": false,
          "internalType": "address",
          "name": "account",
          "type": "address"
        }
      ],
      "name": "Unpaused",
      "type": "event"
    },
    {
      "anonymous": false,
      "inputs": [
        {
          "indexed": true,
          "internalType": "address",
          "name": "user",
          "type": "address"
        },
        {
          "indexed": false,
          "internalType": "uint256",
          "name": "nftlAmount",
          "type": "uint256"
        }
      ],
      "name": "UserDeposited",
      "type": "event"
    },
    {
      "anonymous": false,
      "inputs": [
        {
          "indexed": true,
          "internalType": "address",
          "name": "by",
          "type": "address"
        },
        {
          "indexed": true,
          "internalType": "address",
          "name": "winner",
          "type": "address"
        },
        {
          "indexed": false,
          "internalType": "uint256",
          "name": "ticketId",
          "type": "uint256"
        }
      ],
      "name": "WinnerSelected",
      "type": "event"
    },
    {
      "inputs": [],
      "name": "NFTL_AMOUNT_FOR_TICKET",
      "outputs": [
        {
          "internalType": "uint256",
          "name": "",
          "type": "uint256"
        }
      ],
      "stateMutability": "view",
      "type": "function"
    },
    {
      "inputs": [
        {
          "internalType": "uint256",
          "name": "_amount",
          "type": "uint256"
        }
      ],
      "name": "deposit",
      "outputs": [],
      "stateMutability": "nonpayable",
      "type": "function"
    },
    {
      "inputs": [
        {
          "internalType": "address",
          "name": "_user",
          "type": "address"
        }
      ],
      "name": "getTicketCountByUser",
      "outputs": [
        {
          "internalType": "uint256",
          "name": "",
          "type": "uint256"
        }
      ],
      "stateMutability": "view",
      "type": "function"
    },
    {
      "inputs": [
        {
          "internalType": "address",
          "name": "_user",
          "type": "address"
        }
      ],
      "name": "getTicketIdsByUser",
      "outputs": [
        {
          "internalType": "uint256[]",
          "name": "",
          "type": "uint256[]"
        }
      ],
      "stateMutability": "view",
      "type": "function"
    },
    {
      "inputs": [],
      "name": "getUserCount",
      "outputs": [
        {
          "internalType": "uint256",
          "name": "",
          "type": "uint256"
        }
      ],
      "stateMutability": "view",
      "type": "function"
    },
    {
      "inputs": [],
      "name": "getUserList",
      "outputs": [
        {
          "internalType": "address[]",
          "name": "",
          "type": "address[]"
        }
      ],
      "stateMutability": "view",
      "type": "function"
    },
    {
      "inputs": [],
      "name": "getWinners",
      "outputs": [
        {
          "components": [
            {
              "internalType": "uint256",
              "name": "ticketId",
              "type": "uint256"
            },
            {
              "internalType": "address",
              "name": "winner",
              "type": "address"
            }
          ],
          "internalType": "struct NFTLRaffle.WinnerInfo[]",
          "name": "",
          "type": "tuple[]"
        }
      ],
      "stateMutability": "view",
      "type": "function"
    },
    {
      "inputs": [
        {
          "internalType": "address",
          "name": "_nftl",
          "type": "address"
        },
        {
          "internalType": "uint256",
          "name": "_pendingPeriod",
          "type": "uint256"
        },
        {
          "internalType": "uint256",
          "name": "_totalWinnerTicketCount",
          "type": "uint256"
        }
      ],
      "name": "initialize",
      "outputs": [],
      "stateMutability": "nonpayable",
      "type": "function"
    },
    {
      "inputs": [],
      "name": "nftl",
      "outputs": [
        {
          "internalType": "contract IERC20BurnableUpgradeable",
          "name": "",
          "type": "address"
        }
      ],
      "stateMutability": "view",
      "type": "function"
    },
    {
      "inputs": [],
      "name": "owner",
      "outputs": [
        {
          "internalType": "address",
          "name": "",
          "type": "address"
        }
      ],
      "stateMutability": "view",
      "type": "function"
    },
    {
      "inputs": [],
      "name": "pause",
      "outputs": [],
      "stateMutability": "nonpayable",
      "type": "function"
    },
    {
      "inputs": [],
      "name": "paused",
      "outputs": [
        {
          "internalType": "bool",
          "name": "",
          "type": "bool"
        }
      ],
      "stateMutability": "view",
      "type": "function"
    },
    {
      "inputs": [],
      "name": "raffleStartAt",
      "outputs": [
        {
          "internalType": "uint256",
          "name": "",
          "type": "uint256"
        }
      ],
      "stateMutability": "view",
      "type": "function"
    },
    {
      "inputs": [],
      "name": "renounceOwnership",
      "outputs": [],
      "stateMutability": "nonpayable",
      "type": "function"
    },
    {
      "inputs": [],
      "name": "selectWinners",
      "outputs": [],
      "stateMutability": "nonpayable",
      "type": "function"
    },
    {
      "inputs": [],
      "name": "totalTicketCount",
      "outputs": [
        {
          "internalType": "uint256",
          "name": "",
          "type": "uint256"
        }
      ],
      "stateMutability": "view",
      "type": "function"
    },
    {
      "inputs": [],
      "name": "totalWinnerTicketCount",
      "outputs": [
        {
          "internalType": "uint256",
          "name": "",
          "type": "uint256"
        }
      ],
      "stateMutability": "view",
      "type": "function"
    },
    {
      "inputs": [
        {
          "internalType": "address",
          "name": "newOwner",
          "type": "address"
        }
      ],
      "name": "transferOwnership",
      "outputs": [],
      "stateMutability": "nonpayable",
      "type": "function"
    },
    {
      "inputs": [],
      "name": "unpause",
      "outputs": [],
      "stateMutability": "nonpayable",
      "type": "function"
    },
    {
      "inputs": [
        {
          "internalType": "uint256",
          "name": "_raffleStartAt",
          "type": "uint256"
        }
      ],
      "name": "updateRaffleStartAt",
      "outputs": [],
      "stateMutability": "nonpayable",
      "type": "function"
    },
    {
      "inputs": [
        {
          "internalType": "uint256",
          "name": "_totalWinnerTicketCount",
          "type": "uint256"
        }
      ],
      "name": "updateTotalWinnerTicketCount",
      "outputs": [],
      "stateMutability": "nonpayable",
      "type": "function"
    },
    {
      "inputs": [
        {
          "internalType": "uint256",
          "name": "",
          "type": "uint256"
        }
      ],
      "name": "userByTicketId",
      "outputs": [
        {
          "internalType": "address",
          "name": "",
          "type": "address"
        }
      ],
      "stateMutability": "view",
      "type": "function"
    },
    {
      "inputs": [
        {
          "internalType": "address",
          "name": "",
          "type": "address"
        }
      ],
      "name": "userDeposits",
      "outputs": [
        {
          "internalType": "uint256",
          "name": "",
          "type": "uint256"
        }
      ],
      "stateMutability": "view",
      "type": "function"
    },
    {
      "inputs": [
        {
          "internalType": "uint256",
          "name": "",
          "type": "uint256"
        }
      ],
      "name": "winners",
      "outputs": [
        {
          "internalType": "uint256",
          "name": "ticketId",
          "type": "uint256"
        },
        {
          "internalType": "address",
          "name": "winner",
          "type": "address"
        }
      ],
      "stateMutability": "view",
      "type": "function"
    }
  ],
  "transactionHash": "0x2b87fb4188e27e070d2e4313312c699d985bb75aa8b634f874b10658cd2b263b",
  "args": [],
  "numDeployments": 2,
  "solcInputHash": "7d48931fdb58b2e5e44e54f057ce34fe",
  "bytecode": "0x608060405234801561001057600080fd5b5061001961001e565b6100de565b600054610100900460ff161561008a5760405162461bcd60e51b815260206004820152602760248201527f496e697469616c697a61626c653a20636f6e747261637420697320696e697469604482015266616c697a696e6760c81b606482015260840160405180910390fd5b60005460ff90811610156100dc576000805460ff191660ff9081179091556040519081527f7f26b83ff96e1f2b6a682f133852f6798a09c465da95921460cefb38474024989060200160405180910390a15b565b611337806100ed6000396000f3fe608060405234801561001057600080fd5b50600436106101585760003560e01c80638456cb59116100c3578063b5cb15f71161007c578063b5cb15f7146102cb578063b6b55f25146102d3578063b8522043146102e6578063df15c37e146102fb578063f200006c14610310578063f2fde38b1461033957600080fd5b80638456cb591461024957806384a1890e14610251578063869c046c146102645780638da5cb5b14610277578063a2fb117514610288578063a488af25146102b857600080fd5b80634e81da0a116101155780634e81da0a146101bd5780635671fc66146101e85780635c975abb146101f857806360d131681461020e578063715018a61461022e5780637a1ac61e1461023657600080fd5b80630ba36dcd1461015d57806314558fab1461019057806319d750ce146101995780631a0de74c146101a2578063323c1bb3146101ac5780633f4ba83a146101b5575b600080fd5b61017d61016b3660046110a4565b60a06020526000908152604090205481565b6040519081526020015b60405180910390f35b61017d609b5481565b61017d60985481565b6101aa61034c565b005b61017d60995481565b6101aa610596565b6097546101d0906001600160a01b031681565b6040516001600160a01b039091168152602001610187565b61017d683635c9adc5dea0000081565b60655460ff166040519015158152602001610187565b61022161021c3660046110a4565b6105a8565b60405161018791906110bf565b6101aa6105d2565b6101aa610244366004611103565b6105e4565b6101aa6107f8565b61017d61025f3660046110a4565b610808565b6101aa610272366004611136565b610829565b6033546001600160a01b03166101d0565b61029b610296366004611136565b610881565b604080519283526001600160a01b03909116602083015201610187565b6101aa6102c6366004611136565b6108b8565b61017d610908565b6101aa6102e1366004611136565b610919565b6102ee610ae7565b604051610187919061114f565b610303610af3565b6040516101879190611190565b6101d061031e366004611136565b60a2602052600090815260409020546001600160a01b031681565b6101aa6103473660046110a4565b610b68565b610354610bde565b42609854111561039c5760405162461bcd60e51b815260206004820152600e60248201526d14195b991a5b99c81c195c9a5bd960921b60448201526064015b60405180910390fd5b6103a6609e610c38565b60995411156103ef5760405162461bcd60e51b81526020600482015260156024820152744e6f7420656e6f756768206465706f7369746f727360581b6044820152606401610393565b60005b60995481101561059357600043403342446099548661041191906111fe565b60405160200161045595949392919094855260609390931b6bffffffffffffffffffffffff1916602085015260348401919091526054830152607482015260940190565b6040516020818303038152906040528051906020012090506000610479609e610c38565b6104839083611233565b90506000610492609e83610c42565b600081815260a2602090815260408083205481518083019092528482526001600160a01b03908116928201838152609a8054600181018255955291517f44da158ba27f9252712a74ff6a55c5d531f69609f1f6e7f17c4443a8e2089be460029095029485015590517f44da158ba27f9252712a74ff6a55c5d531f69609f1f6e7f17c4443a8e2089be590930180546001600160a01b0319169390911692909217909155909150610543609e83610c55565b506040518281526001600160a01b0382169033907fd28fd066cbe6a30a425b0a60222cebaba3ee406c3c8f21a2f56ec6b68a6db7ab9060200160405180910390a3846001019450505050506103f2565b50565b61059e610bde565b6105a6610c61565b565b6001600160a01b038116600090815260a1602052604090206060906105cc90610cb3565b92915050565b6105da610bde565b6105a66000610cc0565b600054610100900460ff16158080156106045750600054600160ff909116105b8061061e5750303b15801561061e575060005460ff166001145b6106815760405162461bcd60e51b815260206004820152602e60248201527f496e697469616c697a61626c653a20636f6e747261637420697320616c72656160448201526d191e481a5b9a5d1a585b1a5e995960921b6064820152608401610393565b6000805460ff1916600117905580156106a4576000805461ff0019166101001790555b6106ac610d12565b6106b4610d41565b6001600160a01b0384166106f95760405162461bcd60e51b815260206004820152600c60248201526b5a65726f206164647265737360a01b6044820152606401610393565b610e1083116107345760405162461bcd60e51b81526020600482015260076024820152663120646179202b60c81b6044820152606401610393565b6000821161077f5760405162461bcd60e51b815260206004820152601860248201527716995c9bc81dda5b9b995c881d1a58dad95d0818dbdd5b9d60421b6044820152606401610393565b609780546001600160a01b0319166001600160a01b0386161790556107a48342611247565b609855609982905580156107f2576000805461ff0019169055604051600181527f7f26b83ff96e1f2b6a682f133852f6798a09c465da95921460cefb38474024989060200160405180910390a15b50505050565b610800610bde565b6105a6610d70565b6001600160a01b038116600090815260a1602052604081206105cc90610c38565b610831610bde565b6000811161087c5760405162461bcd60e51b815260206004820152601860248201527716995c9bc81dda5b9b995c881d1a58dad95d0818dbdd5b9d60421b6044820152606401610393565b609955565b609a818154811061089157600080fd5b6000918252602090912060029091020180546001909101549091506001600160a01b031682565b6108c0610bde565b8042106109035760405162461bcd60e51b81526020600482015260116024820152700496e76616c69642074696d657374616d7607c1b6044820152606401610393565b609855565b6000610914609c610c38565b905090565b60985442106109545760405162461bcd60e51b8152602060048201526007602482015266115e1c1a5c995960ca1b6044820152606401610393565b60975460405163079cc67960e41b8152336004820152602481018390526001600160a01b03909116906379cc679090604401600060405180830381600087803b1580156109a057600080fd5b505af11580156109b4573d6000803e3d6000fd5b505033600090815260a06020526040812080548594509092506109d8908490611247565b909155506109e99050609c33610dad565b5060006109f533610808565b33600090815260a06020526040812054919250908290610a1f90683635c9adc5dea000009061125f565b610a299190611273565b609b5490915060005b82811015610a94576000610a468284611247565b9050610a53609e82610dc2565b5033600090815260a160205260409020610a6d9082610dc2565b50600090815260a26020526040902080546001600160a01b03191633179055600101610a32565b5081609b6000828254610aa79190611247565b909155505060405184815233907f951fdc61d6a98f96098a17ea6ac287a6fd38aea6bef73083c93b274cb830107d9060200160405180910390a250505050565b6060610914609c610cb3565b6060609a805480602002602001604051908101604052809291908181526020016000905b82821015610b5f5760008481526020908190206040805180820190915260028502909101805482526001908101546001600160a01b0316828401529083529092019101610b17565b50505050905090565b610b70610bde565b6001600160a01b038116610bd55760405162461bcd60e51b815260206004820152602660248201527f4f776e61626c653a206e6577206f776e657220697320746865207a65726f206160448201526564647265737360d01b6064820152608401610393565b61059381610cc0565b6033546001600160a01b031633146105a65760405162461bcd60e51b815260206004820181905260248201527f4f776e61626c653a2063616c6c6572206973206e6f7420746865206f776e65726044820152606401610393565b60006105cc825490565b6000610c4e8383610dce565b9392505050565b6000610c4e8383610df8565b610c69610eeb565b6065805460ff191690557f5db9ee0a495bf2e6ff9c91a7834c1ba4fdd244a5e8aa4e537bd38aeae4b073aa335b6040516001600160a01b03909116815260200160405180910390a1565b60606000610c4e83610f34565b603380546001600160a01b038381166001600160a01b0319831681179093556040519116919082907f8be0079c531659141344cd1fd0a4f28419497f9722a3daafe3b4186f6b6457e090600090a35050565b600054610100900460ff16610d395760405162461bcd60e51b81526004016103939061128a565b6105a6610f90565b600054610100900460ff16610d685760405162461bcd60e51b81526004016103939061128a565b6105a6610fc0565b610d78610ff3565b6065805460ff191660011790557f62e78cea01bee320cd4e420270b5ea74000d11b0c9f74754ebdbfc544b05a258610c963390565b6000610c4e836001600160a01b038416611039565b6000610c4e8383611039565b6000826000018281548110610de557610de56112d5565b9060005260206000200154905092915050565b60008181526001830160205260408120548015610ee1576000610e1c600183611273565b8554909150600090610e3090600190611273565b9050818114610e95576000866000018281548110610e5057610e506112d5565b9060005260206000200154905080876000018481548110610e7357610e736112d5565b6000918252602080832090910192909255918252600188019052604090208390555b8554869080610ea657610ea66112eb565b6001900381819060005260206000200160009055905585600101600086815260200190815260200160002060009055600193505050506105cc565b60009150506105cc565b60655460ff166105a65760405162461bcd60e51b815260206004820152601460248201527314185d5cd8589b194e881b9bdd081c185d5cd95960621b6044820152606401610393565b606081600001805480602002602001604051908101604052809291908181526020018280548015610f8457602002820191906000526020600020905b815481526020019060010190808311610f70575b50505050509050919050565b600054610100900460ff16610fb75760405162461bcd60e51b81526004016103939061128a565b6105a633610cc0565b600054610100900460ff16610fe75760405162461bcd60e51b81526004016103939061128a565b6065805460ff19169055565b60655460ff16156105a65760405162461bcd60e51b815260206004820152601060248201526f14185d5cd8589b194e881c185d5cd95960821b6044820152606401610393565b6000818152600183016020526040812054611080575081546001818101845560008481526020808220909301849055845484825282860190935260409020919091556105cc565b5060006105cc565b80356001600160a01b038116811461109f57600080fd5b919050565b6000602082840312156110b657600080fd5b610c4e82611088565b6020808252825182820181905260009190848201906040850190845b818110156110f7578351835292840192918401916001016110db565b50909695505050505050565b60008060006060848603121561111857600080fd5b61112184611088565b95602085013595506040909401359392505050565b60006020828403121561114857600080fd5b5035919050565b6020808252825182820181905260009190848201906040850190845b818110156110f75783516001600160a01b03168352928401929184019160010161116b565b602080825282518282018190526000919060409081850190868401855b828110156111db578151805185528601516001600160a01b03168685015292840192908501906001016111ad565b5091979650505050505050565b634e487b7160e01b600052601160045260246000fd5b6000816000190483118215151615611218576112186111e8565b500290565b634e487b7160e01b600052601260045260246000fd5b6000826112425761124261121d565b500690565b6000821982111561125a5761125a6111e8565b500190565b60008261126e5761126e61121d565b500490565b600082821015611285576112856111e8565b500390565b6020808252602b908201527f496e697469616c697a61626c653a20636f6e7472616374206973206e6f74206960408201526a6e697469616c697a696e6760a81b606082015260800190565b634e487b7160e01b600052603260045260246000fd5b634e487b7160e01b600052603160045260246000fdfea2646970667358221220610be30d34e49d4262cff0d4092f3c0cf80639ae79c54e956a72afae0184356a64736f6c634300080b0033",
  "devdoc": {
    "kind": "dev",
    "methods": {
      "constructor": {
        "custom:oz-upgrades-unsafe-allow": "constructor"
      },
      "owner()": {
        "details": "Returns the address of the current owner."
      },
      "paused()": {
        "details": "Returns true if the contract is paused, and false otherwise."
      },
      "renounceOwnership()": {
        "details": "Leaves the contract without owner. It will not be possible to call `onlyOwner` functions anymore. Can only be called by the current owner. NOTE: Renouncing ownership will leave the contract without an owner, thereby removing any functionality that is only available to the owner."
      },
      "transferOwnership(address)": {
        "details": "Transfers ownership of the contract to a new account (`newOwner`). Can only be called by the current owner."
      }
    },
    "stateVariables": {
      "NFTL_AMOUNT_FOR_TICKET": {
        "details": "NFTL amount required for 1 ticket"
      },
      "_ticketIdList": {
        "details": "TokenId list"
      },
      "_ticketIdsByUser": {
        "details": "User -> Ticket Id list"
      },
      "_userList": {
        "details": "User list"
      },
      "nftl": {
        "details": "NFTL address"
      },
      "raffleStartAt": {
        "details": "Timestamp the raffle start"
      },
      "totalTicketCount": {
        "details": "Total ticket count"
      },
      "totalWinnerTicketCount": {
        "details": "Winner count"
      },
      "userByTicketId": {
        "details": "Ticket Id -> User"
      },
      "userDeposits": {
        "details": "User -> NFTL amount deposited"
      },
      "winners": {
        "details": "Winner list"
      }
    },
    "title": "NFTLRaffle",
    "version": 1
  },
  "userdoc": {
    "kind": "user",
    "methods": {
      "pause()": {
        "notice": "Pause the contract"
      },
      "unpause()": {
        "notice": "Unpause the contract"
      }
    },
    "version": 1
  },
  "storageLayout": {
    "storage": [
      {
        "astId": 138,
        "contract": "contracts/NFTLRaffle.sol:NFTLRaffle",
        "label": "_initialized",
        "offset": 0,
        "slot": "0",
        "type": "t_uint8"
      },
      {
        "astId": 141,
        "contract": "contracts/NFTLRaffle.sol:NFTLRaffle",
        "label": "_initializing",
        "offset": 1,
        "slot": "0",
        "type": "t_bool"
      },
      {
        "astId": 830,
        "contract": "contracts/NFTLRaffle.sol:NFTLRaffle",
        "label": "__gap",
        "offset": 0,
        "slot": "1",
        "type": "t_array(t_uint256)50_storage"
      },
      {
        "astId": 10,
        "contract": "contracts/NFTLRaffle.sol:NFTLRaffle",
        "label": "_owner",
        "offset": 0,
        "slot": "51",
        "type": "t_address"
      },
      {
        "astId": 130,
        "contract": "contracts/NFTLRaffle.sol:NFTLRaffle",
        "label": "__gap",
        "offset": 0,
        "slot": "52",
        "type": "t_array(t_uint256)49_storage"
      },
      {
        "astId": 321,
        "contract": "contracts/NFTLRaffle.sol:NFTLRaffle",
        "label": "_paused",
        "offset": 0,
        "slot": "101",
        "type": "t_bool"
      },
      {
        "astId": 426,
        "contract": "contracts/NFTLRaffle.sol:NFTLRaffle",
        "label": "__gap",
        "offset": 0,
        "slot": "102",
        "type": "t_array(t_uint256)49_storage"
      },
      {
        "astId": 1484,
        "contract": "contracts/NFTLRaffle.sol:NFTLRaffle",
        "label": "nftl",
        "offset": 0,
        "slot": "151",
        "type": "t_contract(IERC20BurnableUpgradeable)1460"
      },
      {
        "astId": 1487,
        "contract": "contracts/NFTLRaffle.sol:NFTLRaffle",
        "label": "raffleStartAt",
        "offset": 0,
        "slot": "152",
        "type": "t_uint256"
      },
      {
        "astId": 1490,
        "contract": "contracts/NFTLRaffle.sol:NFTLRaffle",
        "label": "totalWinnerTicketCount",
        "offset": 0,
        "slot": "153",
        "type": "t_uint256"
      },
      {
        "astId": 1495,
        "contract": "contracts/NFTLRaffle.sol:NFTLRaffle",
        "label": "winners",
        "offset": 0,
        "slot": "154",
        "type": "t_array(t_struct(WinnerInfo)1480_storage)dyn_storage"
      },
      {
        "astId": 1498,
        "contract": "contracts/NFTLRaffle.sol:NFTLRaffle",
        "label": "totalTicketCount",
        "offset": 0,
        "slot": "155",
        "type": "t_uint256"
      },
      {
        "astId": 1510,
        "contract": "contracts/NFTLRaffle.sol:NFTLRaffle",
        "label": "_userList",
        "offset": 0,
        "slot": "156",
        "type": "t_struct(AddressSet)1157_storage"
      },
      {
        "astId": 1514,
        "contract": "contracts/NFTLRaffle.sol:NFTLRaffle",
        "label": "_ticketIdList",
        "offset": 0,
        "slot": "158",
        "type": "t_struct(UintSet)1314_storage"
      },
      {
        "astId": 1519,
        "contract": "contracts/NFTLRaffle.sol:NFTLRaffle",
        "label": "userDeposits",
        "offset": 0,
        "slot": "160",
        "type": "t_mapping(t_address,t_uint256)"
      },
      {
        "astId": 1525,
        "contract": "contracts/NFTLRaffle.sol:NFTLRaffle",
        "label": "_ticketIdsByUser",
        "offset": 0,
        "slot": "161",
        "type": "t_mapping(t_address,t_struct(UintSet)1314_storage)"
      },
      {
        "astId": 1530,
        "contract": "contracts/NFTLRaffle.sol:NFTLRaffle",
        "label": "userByTicketId",
        "offset": 0,
        "slot": "162",
        "type": "t_mapping(t_uint256,t_address)"
      }
    ],
    "types": {
      "t_address": {
        "encoding": "inplace",
        "label": "address",
        "numberOfBytes": "20"
      },
      "t_array(t_bytes32)dyn_storage": {
        "base": "t_bytes32",
        "encoding": "dynamic_array",
        "label": "bytes32[]",
        "numberOfBytes": "32"
      },
      "t_array(t_struct(WinnerInfo)1480_storage)dyn_storage": {
        "base": "t_struct(WinnerInfo)1480_storage",
        "encoding": "dynamic_array",
        "label": "struct NFTLRaffle.WinnerInfo[]",
        "numberOfBytes": "32"
      },
      "t_array(t_uint256)49_storage": {
        "base": "t_uint256",
        "encoding": "inplace",
        "label": "uint256[49]",
        "numberOfBytes": "1568"
      },
      "t_array(t_uint256)50_storage": {
        "base": "t_uint256",
        "encoding": "inplace",
        "label": "uint256[50]",
        "numberOfBytes": "1600"
      },
      "t_bool": {
        "encoding": "inplace",
        "label": "bool",
        "numberOfBytes": "1"
      },
      "t_bytes32": {
        "encoding": "inplace",
        "label": "bytes32",
        "numberOfBytes": "32"
      },
      "t_contract(IERC20BurnableUpgradeable)1460": {
        "encoding": "inplace",
        "label": "contract IERC20BurnableUpgradeable",
        "numberOfBytes": "20"
      },
      "t_mapping(t_address,t_struct(UintSet)1314_storage)": {
        "encoding": "mapping",
        "key": "t_address",
        "label": "mapping(address => struct EnumerableSetUpgradeable.UintSet)",
        "numberOfBytes": "32",
        "value": "t_struct(UintSet)1314_storage"
      },
      "t_mapping(t_address,t_uint256)": {
        "encoding": "mapping",
        "key": "t_address",
        "label": "mapping(address => uint256)",
        "numberOfBytes": "32",
        "value": "t_uint256"
      },
      "t_mapping(t_bytes32,t_uint256)": {
        "encoding": "mapping",
        "key": "t_bytes32",
        "label": "mapping(bytes32 => uint256)",
        "numberOfBytes": "32",
        "value": "t_uint256"
      },
      "t_mapping(t_uint256,t_address)": {
        "encoding": "mapping",
        "key": "t_uint256",
        "label": "mapping(uint256 => address)",
        "numberOfBytes": "32",
        "value": "t_address"
      },
      "t_struct(AddressSet)1157_storage": {
        "encoding": "inplace",
        "label": "struct EnumerableSetUpgradeable.AddressSet",
        "members": [
          {
            "astId": 1156,
            "contract": "contracts/NFTLRaffle.sol:NFTLRaffle",
            "label": "_inner",
            "offset": 0,
            "slot": "0",
            "type": "t_struct(Set)842_storage"
          }
        ],
        "numberOfBytes": "64"
      },
      "t_struct(Set)842_storage": {
        "encoding": "inplace",
        "label": "struct EnumerableSetUpgradeable.Set",
        "members": [
          {
            "astId": 837,
            "contract": "contracts/NFTLRaffle.sol:NFTLRaffle",
            "label": "_values",
            "offset": 0,
            "slot": "0",
            "type": "t_array(t_bytes32)dyn_storage"
          },
          {
            "astId": 841,
            "contract": "contracts/NFTLRaffle.sol:NFTLRaffle",
            "label": "_indexes",
            "offset": 0,
            "slot": "1",
            "type": "t_mapping(t_bytes32,t_uint256)"
          }
        ],
        "numberOfBytes": "64"
      },
      "t_struct(UintSet)1314_storage": {
        "encoding": "inplace",
        "label": "struct EnumerableSetUpgradeable.UintSet",
        "members": [
          {
            "astId": 1313,
            "contract": "contracts/NFTLRaffle.sol:NFTLRaffle",
            "label": "_inner",
            "offset": 0,
            "slot": "0",
            "type": "t_struct(Set)842_storage"
          }
        ],
        "numberOfBytes": "64"
      },
      "t_struct(WinnerInfo)1480_storage": {
        "encoding": "inplace",
        "label": "struct NFTLRaffle.WinnerInfo",
        "members": [
          {
            "astId": 1477,
            "contract": "contracts/NFTLRaffle.sol:NFTLRaffle",
            "label": "ticketId",
            "offset": 0,
            "slot": "0",
            "type": "t_uint256"
          },
          {
            "astId": 1479,
            "contract": "contracts/NFTLRaffle.sol:NFTLRaffle",
            "label": "winner",
            "offset": 0,
            "slot": "1",
            "type": "t_address"
          }
        ],
        "numberOfBytes": "64"
      },
      "t_uint256": {
        "encoding": "inplace",
        "label": "uint256",
        "numberOfBytes": "32"
      },
      "t_uint8": {
        "encoding": "inplace",
        "label": "uint8",
        "numberOfBytes": "1"
      }
    }
  }
}