{
  "address": "0x6967Ef17E0F2b5BEf1946D77391228065B06c03D",
  "abi": [
    {
      "inputs": [],
      "stateMutability": "nonpayable",
      "type": "constructor"
    },
    {
      "anonymous": false,
      "inputs": [
        {
          "indexed": false,
          "internalType": "uint8",
          "name": "version",
          "type": "uint8"
        }
      ],
      "name": "Initialized",
      "type": "event"
    },
    {
      "anonymous": false,
      "inputs": [
        {
          "indexed": true,
          "internalType": "address",
          "name": "niftyDegen",
          "type": "address"
        }
      ],
      "name": "NiftyDegenSet",
      "type": "event"
    },
    {
      "anonymous": false,
      "inputs": [
        {
          "indexed": true,
          "internalType": "address",
          "name": "niftyWallet",
          "type": "address"
        }
      ],
      "name": "NiftyWalletSet",
      "type": "event"
    },
    {
      "anonymous": false,
      "inputs": [
        {
          "indexed": true,
          "internalType": "address",
          "name": "previousOwner",
          "type": "address"
        },
        {
          "indexed": true,
          "internalType": "address",
          "name": "newOwner",
          "type": "address"
        }
      ],
      "name": "OwnershipTransferred",
      "type": "event"
    },
    {
      "anonymous": false,
      "inputs": [
        {
          "indexed": false,
          "internalType": "address",
          "name": "account",
          "type": "address"
        }
      ],
      "name": "Paused",
      "type": "event"
    },
    {
      "anonymous": false,
      "inputs": [
        {
          "indexed": true,
          "internalType": "address",
          "name": "user",
          "type": "address"
        },
        {
          "indexed": false,
          "internalType": "uint256[]",
          "name": "tokenIdsBurned",
          "type": "uint256[]"
        },
        {
          "indexed": false,
          "internalType": "uint256",
          "name": "rareDegenTokenId",
          "type": "uint256"
        }
      ],
      "name": "RareDegenClaimed",
      "type": "event"
    },
    {
      "anonymous": false,
      "inputs": [
        {
          "indexed": false,
          "internalType": "address",
          "name": "account",
          "type": "address"
        }
      ],
      "name": "Unpaused",
      "type": "event"
    },
    {
      "inputs": [
        {
          "internalType": "uint256[]",
          "name": "_degenTokenIdList",
          "type": "uint256[]"
        }
      ],
      "name": "claimRandomRareDegen",
      "outputs": [],
      "stateMutability": "nonpayable",
      "type": "function"
    },
    {
      "inputs": [
        {
          "internalType": "uint256[]",
          "name": "_rareDegenTokenIdList",
          "type": "uint256[]"
        }
      ],
      "name": "depositRareDegens",
      "outputs": [],
      "stateMutability": "nonpayable",
      "type": "function"
    },
    {
      "inputs": [],
      "name": "getRareDegensCount",
      "outputs": [
        {
          "internalType": "uint256",
          "name": "rareDegenCount",
          "type": "uint256"
        }
      ],
      "stateMutability": "view",
      "type": "function"
    },
    {
      "inputs": [
        {
          "internalType": "address",
          "name": "_niftyDegen",
          "type": "address"
        },
        {
          "internalType": "address",
          "name": "_niftyWallet",
          "type": "address"
        }
      ],
      "name": "initialize",
      "outputs": [],
      "stateMutability": "nonpayable",
      "type": "function"
    },
    {
      "inputs": [],
      "name": "niftyDegen",
      "outputs": [
        {
          "internalType": "contract IERC721Upgradeable",
          "name": "",
          "type": "address"
        }
      ],
      "stateMutability": "view",
      "type": "function"
    },
    {
      "inputs": [],
      "name": "niftyWallet",
      "outputs": [
        {
          "internalType": "address",
          "name": "",
          "type": "address"
        }
      ],
      "stateMutability": "view",
      "type": "function"
    },
    {
      "inputs": [
        {
          "internalType": "address",
          "name": "",
          "type": "address"
        },
        {
          "internalType": "address",
          "name": "",
          "type": "address"
        },
        {
          "internalType": "uint256",
          "name": "",
          "type": "uint256"
        },
        {
          "internalType": "bytes",
          "name": "",
          "type": "bytes"
        }
      ],
      "name": "onERC721Received",
      "outputs": [
        {
          "internalType": "bytes4",
          "name": "",
          "type": "bytes4"
        }
      ],
      "stateMutability": "nonpayable",
      "type": "function"
    },
    {
      "inputs": [],
      "name": "owner",
      "outputs": [
        {
          "internalType": "address",
          "name": "",
          "type": "address"
        }
      ],
      "stateMutability": "view",
      "type": "function"
    },
    {
      "inputs": [],
      "name": "pause",
      "outputs": [],
      "stateMutability": "nonpayable",
      "type": "function"
    },
    {
      "inputs": [],
      "name": "paused",
      "outputs": [
        {
          "internalType": "bool",
          "name": "",
          "type": "bool"
        }
      ],
      "stateMutability": "view",
      "type": "function"
    },
    {
      "inputs": [
        {
          "internalType": "uint256",
          "name": "",
          "type": "uint256"
        }
      ],
      "name": "rareDegenTokenIds",
      "outputs": [
        {
          "internalType": "uint256",
          "name": "",
          "type": "uint256"
        }
      ],
      "stateMutability": "view",
      "type": "function"
    },
    {
      "inputs": [],
      "name": "renounceOwnership",
      "outputs": [],
      "stateMutability": "nonpayable",
      "type": "function"
    },
    {
      "inputs": [
        {
          "internalType": "address",
          "name": "newOwner",
          "type": "address"
        }
      ],
      "name": "transferOwnership",
      "outputs": [],
      "stateMutability": "nonpayable",
      "type": "function"
    },
    {
      "inputs": [],
      "name": "unpause",
      "outputs": [],
      "stateMutability": "nonpayable",
      "type": "function"
    },
    {
      "inputs": [
        {
          "internalType": "address",
          "name": "_niftyDegen",
          "type": "address"
        }
      ],
      "name": "updateNiftyDegen",
      "outputs": [],
      "stateMutability": "nonpayable",
      "type": "function"
    },
    {
      "inputs": [
        {
          "internalType": "address",
          "name": "_niftyWallet",
          "type": "address"
        }
      ],
      "name": "updateNiftyWallet",
      "outputs": [],
      "stateMutability": "nonpayable",
      "type": "function"
    },
    {
      "inputs": [
        {
          "internalType": "address",
          "name": "_to",
          "type": "address"
        }
      ],
      "name": "withdrawAllRareDegens",
      "outputs": [],
      "stateMutability": "nonpayable",
      "type": "function"
    }
  ],
  "transactionHash": "0x8e75fe6909b49a796be896e9236e8b666580a872f7eba37524a4e5edbe2c55df",
  "args": [],
  "numDeployments": 1,
  "solcInputHash": "b8045d4d868a9a73faf7cfbb2e1d8b53",
  "bytecode": "0x608060405234801561001057600080fd5b5061001961001e565b6100de565b600054610100900460ff161561008a5760405162461bcd60e51b815260206004820152602760248201527f496e697469616c697a61626c653a20636f6e747261637420697320696e697469604482015266616c697a696e6760c81b606482015260840160405180910390fd5b60005460ff90811610156100dc576000805460ff191660ff9081179091556040519081527f7f26b83ff96e1f2b6a682f133852f6798a09c465da95921460cefb38474024989060200160405180910390a15b565b611104806100ed6000396000f3fe608060405234801561001057600080fd5b506004361061010b5760003560e01c8063715018a6116100a2578063bc45de6c11610071578063bc45de6c14610225578063c659f20e14610238578063c73726571461024b578063f2fde38b1461025e578063f71cf4941461027157600080fd5b8063715018a6146101f15780638456cb59146101f95780638da5cb5b14610201578063b76b6d371461021257600080fd5b80633f4ba83a116100de5780633f4ba83a1461019f5780634356d422146101a7578063485cc955146101c85780635c975abb146101db57600080fd5b80630154ec67146101105780630ff2f0db14610125578063150b7a02146101555780631712e79c1461018c575b600080fd5b61012361011e366004610d7d565b610279565b005b60fb54610138906001600160a01b031681565b6040516001600160a01b0390911681526020015b60405180910390f35b610173610163366004610db5565b630a85bd0160e11b949350505050565b6040516001600160e01b0319909116815260200161014c565b60fd54610138906001600160a01b031681565b6101236102cb565b6101ba6101b5366004610e91565b6102dd565b60405190815260200161014c565b6101236101d6366004610eaa565b6102fe565b60655460ff16604051901515815260200161014c565b610123610456565b610123610468565b6033546001600160a01b0316610138565b610123610220366004610edd565b610478565b610123610233366004610d7d565b6107b9565b610123610246366004610edd565b61080b565b610123610259366004610d7d565b6108ed565b61012361026c366004610d7d565b6109a6565b60fc546101ba565b610281610a1f565b60fb80546001600160a01b0319166001600160a01b0383169081179091556040517fca43dfa34599b39cfe4a317fc3e9caa36828092c864c4b2867889e1c4b02cf7b90600090a250565b6102d3610a1f565b6102db610a79565b565b60fc81815481106102ed57600080fd5b600091825260209091200154905081565b600054610100900460ff161580801561031e5750600054600160ff909116105b806103385750303b158015610338575060005460ff166001145b6103a05760405162461bcd60e51b815260206004820152602e60248201527f496e697469616c697a61626c653a20636f6e747261637420697320616c72656160448201526d191e481a5b9a5d1a585b1a5e995960921b60648201526084015b60405180910390fd5b6000805460ff1916600117905580156103c3576000805461ff0019166101001790555b6103cb610acb565b6103d3610afa565b6103db610b29565b60fb80546001600160a01b038086166001600160a01b03199283161790925560fd8054928516929091169190911790558015610451576000805461ff0019169055604051600181527f7f26b83ff96e1f2b6a682f133852f6798a09c465da95921460cefb38474024989060200160405180910390a15b505050565b61045e610a1f565b6102db6000610b58565b610470610a1f565b6102db610baa565b610480610be7565b610488610c41565b60fd5481906001600160a01b03163314156104e35780600c146104de5760405162461bcd60e51b815260206004820152600e60248201526d4e65656420313220646567656e7360901b6044820152606401610397565b610523565b806008146105235760405162461bcd60e51b815260206004820152600d60248201526c4e656564203820646567656e7360981b6044820152606401610397565b600160005b828110156105e65760fb546001600160a01b031663b88d4fde33600188888681811061055657610556610f52565b90506020020135604051806020016040528060008152506040518563ffffffff1660e01b815260040161058c9493929190610f68565b600060405180830381600087803b1580156105a657600080fd5b505af11580156105ba573d6000803e3d6000fd5b505050508484828181106105d0576105d0610f52565b9050602002013582029150806001019050610528565b5060fc5460fe54604080516020810192909252810183905233606090811b6bffffffffffffffffffffffff19169082015242607482015244609482015260009060b40160408051601f1981840301815291905280516020909101209050600061064f8383610fe0565b9050600060fc828154811061066657610666610f52565b600091825260208083209091015460fb546040805193840181529383529251635c46a7ef60e11b81529093506001600160a01b039092169163b88d4fde916106b79130913391879190600401610f68565b600060405180830381600087803b1580156106d157600080fd5b505af11580156106e5573d6000803e3d6000fd5b5050505060fc6001856106f89190611002565b8154811061070857610708610f52565b906000526020600020015460fc838154811061072657610726610f52565b60009182526020909120015560fc80548061074357610743611027565b600190038181906000526020600020016000905590558260fe81905550336001600160a01b03167f3248aee2a29038a6636315e29e294a551f4f951b7f1b749cf341b7d77fbeb9f089898460405161079d9392919061103d565b60405180910390a25050505050506107b56001609755565b5050565b6107c1610a1f565b60fd80546001600160a01b0319166001600160a01b0383169081179091556040517f3c53878a1f583ed1fab7b6754b951e46d9f8676a8bde03b2db18f52dd85f4a0a90600090a250565b610813610a1f565b60005b8181101561045157600083838381811061083257610832610f52565b60fb546040805160208181018352600082529151635c46a7ef60e11b815291909302949094013594506001600160a01b03169263b88d4fde925061087e91339130918791600401610f68565b600060405180830381600087803b15801561089857600080fd5b505af11580156108ac573d6000803e3d6000fd5b505060fc8054600181810183556000929092527f371f36870d18f32a11fea0f144b021c8b407bb50f8e0267c711123f454b963c00193909355505001610816565b6108f5610a1f565b60005b60fc548110156107b557600060fc828154811061091757610917610f52565b600091825260208083209091015460fb546040805193840181529383529251635c46a7ef60e11b81529093506001600160a01b039092169163b88d4fde916109689130918891879190600401610f68565b600060405180830381600087803b15801561098257600080fd5b505af1158015610996573d6000803e3d6000fd5b50505050816001019150506108f8565b6109ae610a1f565b6001600160a01b038116610a135760405162461bcd60e51b815260206004820152602660248201527f4f776e61626c653a206e6577206f776e657220697320746865207a65726f206160448201526564647265737360d01b6064820152608401610397565b610a1c81610b58565b50565b6033546001600160a01b031633146102db5760405162461bcd60e51b815260206004820181905260248201527f4f776e61626c653a2063616c6c6572206973206e6f7420746865206f776e65726044820152606401610397565b610a81610c8e565b6065805460ff191690557f5db9ee0a495bf2e6ff9c91a7834c1ba4fdd244a5e8aa4e537bd38aeae4b073aa335b6040516001600160a01b03909116815260200160405180910390a1565b600054610100900460ff16610af25760405162461bcd60e51b815260040161039790611083565b6102db610cd7565b600054610100900460ff16610b215760405162461bcd60e51b815260040161039790611083565b6102db610d07565b600054610100900460ff16610b505760405162461bcd60e51b815260040161039790611083565b6102db610d3a565b603380546001600160a01b038381166001600160a01b0319831681179093556040519116919082907f8be0079c531659141344cd1fd0a4f28419497f9722a3daafe3b4186f6b6457e090600090a35050565b610bb2610c41565b6065805460ff191660011790557f62e78cea01bee320cd4e420270b5ea74000d11b0c9f74754ebdbfc544b05a258610aae3390565b60026097541415610c3a5760405162461bcd60e51b815260206004820152601f60248201527f5265656e7472616e637947756172643a207265656e7472616e742063616c6c006044820152606401610397565b6002609755565b60655460ff16156102db5760405162461bcd60e51b815260206004820152601060248201526f14185d5cd8589b194e881c185d5cd95960821b6044820152606401610397565b6001609755565b60655460ff166102db5760405162461bcd60e51b815260206004820152601460248201527314185d5cd8589b194e881b9bdd081c185d5cd95960621b6044820152606401610397565b600054610100900460ff16610cfe5760405162461bcd60e51b815260040161039790611083565b6102db33610b58565b600054610100900460ff16610d2e5760405162461bcd60e51b815260040161039790611083565b6065805460ff19169055565b600054610100900460ff16610c875760405162461bcd60e51b815260040161039790611083565b80356001600160a01b0381168114610d7857600080fd5b919050565b600060208284031215610d8f57600080fd5b610d9882610d61565b9392505050565b634e487b7160e01b600052604160045260246000fd5b60008060008060808587031215610dcb57600080fd5b610dd485610d61565b9350610de260208601610d61565b925060408501359150606085013567ffffffffffffffff80821115610e0657600080fd5b818701915087601f830112610e1a57600080fd5b813581811115610e2c57610e2c610d9f565b604051601f8201601f19908116603f01168101908382118183101715610e5457610e54610d9f565b816040528281528a6020848701011115610e6d57600080fd5b82602086016020830137600060208483010152809550505050505092959194509250565b600060208284031215610ea357600080fd5b5035919050565b60008060408385031215610ebd57600080fd5b610ec683610d61565b9150610ed460208401610d61565b90509250929050565b60008060208385031215610ef057600080fd5b823567ffffffffffffffff80821115610f0857600080fd5b818501915085601f830112610f1c57600080fd5b813581811115610f2b57600080fd5b8660208260051b8501011115610f4057600080fd5b60209290920196919550909350505050565b634e487b7160e01b600052603260045260246000fd5b600060018060a01b038087168352602081871681850152856040850152608060608501528451915081608085015260005b82811015610fb55785810182015185820160a001528101610f99565b82811115610fc757600060a084870101525b5050601f01601f19169190910160a00195945050505050565b600082610ffd57634e487b7160e01b600052601260045260246000fd5b500690565b60008282101561102257634e487b7160e01b600052601160045260246000fd5b500390565b634e487b7160e01b600052603160045260246000fd5b6040808252810183905260006001600160fb1b0384111561105d57600080fd5b8360051b8086606085013760009083016060019081526020909201929092529392505050565b6020808252602b908201527f496e697469616c697a61626c653a20636f6e7472616374206973206e6f74206960408201526a6e697469616c697a696e6760a81b60608201526080019056fea26469706673582212201797264ff52c948086e30f33ce3b0a66ddc9b1474ae3763b8a190cfb06f3066264736f6c634300080b0033",
  "devdoc": {
    "kind": "dev",
    "methods": {
      "claimRandomRareDegen(uint256[])": {
        "details": "The users must transfer 8 normal degens to claim 1 random rare degenNiftyWallet must transfer 12 normal degens to claim 1 random rare degenAll the trasnferred the normal degens are burned",
        "params": {
          "_degenTokenIdList": "Token Ids of the normal degen to burn"
        }
      },
      "constructor": {
        "custom:oz-upgrades-unsafe-allow": "constructor"
      },
      "depositRareDegens(uint256[])": {
        "params": {
          "_rareDegenTokenIdList": "Token Ids of the rare degens to deposit"
        }
      },
      "getRareDegensCount()": {
        "returns": {
          "rareDegenCount": "Number of rare degens in the contract"
        }
      },
      "onERC721Received(address,address,uint256,bytes)": {
        "details": "See {IERC721Receiver-onERC721Received}. Always returns `IERC721Receiver.onERC721Received.selector`."
      },
      "owner()": {
        "details": "Returns the address of the current owner."
      },
      "paused()": {
        "details": "Returns true if the contract is paused, and false otherwise."
      },
      "renounceOwnership()": {
        "details": "Leaves the contract without owner. It will not be possible to call `onlyOwner` functions anymore. Can only be called by the current owner. NOTE: Renouncing ownership will leave the contract without an owner, thereby removing any functionality that is only available to the owner."
      },
      "transferOwnership(address)": {
        "details": "Transfers ownership of the contract to a new account (`newOwner`). Can only be called by the current owner."
      },
      "updateNiftyDegen(address)": {
        "params": {
          "_niftyDegen": "NiftyDegen NFT address"
        }
      },
      "updateNiftyWallet(address)": {
        "params": {
          "_niftyWallet": "NiftyLeague wallet address"
        }
      },
      "withdrawAllRareDegens(address)": {
        "params": {
          "_to": "Address to receive the rare degens"
        }
      }
    },
    "stateVariables": {
      "_prevHash": {
        "details": "Random Hash Value"
      },
      "niftyDegen": {
        "details": "NiftyDegen NFT address"
      },
      "niftyWallet": {
        "details": "NiftyLeague Wallet Address"
      },
      "rareDegenTokenIds": {
        "details": "Rare Degen Token Id list"
      }
    },
    "version": 1
  },
  "userdoc": {
    "kind": "user",
    "methods": {
      "claimRandomRareDegen(uint256[])": {
        "notice": "Claim the random rare degen"
      },
      "depositRareDegens(uint256[])": {
        "notice": "Deposit the rare degens"
      },
      "getRareDegensCount()": {
        "notice": "Returns the number of the rare degens in the contract"
      },
      "pause()": {
        "notice": "Pause the contract"
      },
      "unpause()": {
        "notice": "Unpause the contract"
      },
      "updateNiftyDegen(address)": {
        "notice": "Update the NiftyDegen NFT address"
      },
      "updateNiftyWallet(address)": {
        "notice": "Update the NiftyLeague wallet address"
      },
      "withdrawAllRareDegens(address)": {
        "notice": "Withdraw all rare degens"
      }
    },
    "version": 1
  },
  "storageLayout": {
    "storage": [
      {
        "astId": 621,
        "contract": "contracts/NiftyRareDegenDistribution.sol:NiftyRareDegenDistribution",
        "label": "_initialized",
        "offset": 0,
        "slot": "0",
        "type": "t_uint8"
      },
      {
        "astId": 624,
        "contract": "contracts/NiftyRareDegenDistribution.sol:NiftyRareDegenDistribution",
        "label": "_initializing",
        "offset": 1,
        "slot": "0",
        "type": "t_bool"
      },
      {
        "astId": 3408,
        "contract": "contracts/NiftyRareDegenDistribution.sol:NiftyRareDegenDistribution",
        "label": "__gap",
        "offset": 0,
        "slot": "1",
        "type": "t_array(t_uint256)50_storage"
      },
      {
        "astId": 493,
        "contract": "contracts/NiftyRareDegenDistribution.sol:NiftyRareDegenDistribution",
        "label": "_owner",
        "offset": 0,
        "slot": "51",
        "type": "t_address"
      },
      {
        "astId": 613,
        "contract": "contracts/NiftyRareDegenDistribution.sol:NiftyRareDegenDistribution",
        "label": "__gap",
        "offset": 0,
        "slot": "52",
        "type": "t_array(t_uint256)49_storage"
      },
      {
        "astId": 804,
        "contract": "contracts/NiftyRareDegenDistribution.sol:NiftyRareDegenDistribution",
        "label": "_paused",
        "offset": 0,
        "slot": "101",
        "type": "t_bool"
      },
      {
        "astId": 909,
        "contract": "contracts/NiftyRareDegenDistribution.sol:NiftyRareDegenDistribution",
        "label": "__gap",
        "offset": 0,
        "slot": "102",
        "type": "t_array(t_uint256)49_storage"
      },
      {
        "astId": 924,
        "contract": "contracts/NiftyRareDegenDistribution.sol:NiftyRareDegenDistribution",
        "label": "_status",
        "offset": 0,
        "slot": "151",
        "type": "t_uint256"
      },
      {
        "astId": 982,
        "contract": "contracts/NiftyRareDegenDistribution.sol:NiftyRareDegenDistribution",
        "label": "__gap",
        "offset": 0,
        "slot": "152",
        "type": "t_array(t_uint256)49_storage"
      },
      {
        "astId": 3082,
        "contract": "contracts/NiftyRareDegenDistribution.sol:NiftyRareDegenDistribution",
        "label": "__gap",
        "offset": 0,
        "slot": "201",
        "type": "t_array(t_uint256)50_storage"
      },
      {
        "astId": 17054,
        "contract": "contracts/NiftyRareDegenDistribution.sol:NiftyRareDegenDistribution",
        "label": "niftyDegen",
        "offset": 0,
        "slot": "251",
        "type": "t_contract(IERC721Upgradeable)2604"
      },
      {
        "astId": 17058,
        "contract": "contracts/NiftyRareDegenDistribution.sol:NiftyRareDegenDistribution",
        "label": "rareDegenTokenIds",
        "offset": 0,
        "slot": "252",
        "type": "t_array(t_uint256)dyn_storage"
      },
      {
        "astId": 17061,
        "contract": "contracts/NiftyRareDegenDistribution.sol:NiftyRareDegenDistribution",
        "label": "niftyWallet",
        "offset": 0,
        "slot": "253",
        "type": "t_address"
      },
      {
        "astId": 17064,
        "contract": "contracts/NiftyRareDegenDistribution.sol:NiftyRareDegenDistribution",
        "label": "_prevHash",
        "offset": 0,
        "slot": "254",
        "type": "t_bytes32"
      }
    ],
    "types": {
      "t_address": {
        "encoding": "inplace",
        "label": "address",
        "numberOfBytes": "20"
      },
      "t_array(t_uint256)49_storage": {
        "base": "t_uint256",
        "encoding": "inplace",
        "label": "uint256[49]",
        "numberOfBytes": "1568"
      },
      "t_array(t_uint256)50_storage": {
        "base": "t_uint256",
        "encoding": "inplace",
        "label": "uint256[50]",
        "numberOfBytes": "1600"
      },
      "t_array(t_uint256)dyn_storage": {
        "base": "t_uint256",
        "encoding": "dynamic_array",
        "label": "uint256[]",
        "numberOfBytes": "32"
      },
      "t_bool": {
        "encoding": "inplace",
        "label": "bool",
        "numberOfBytes": "1"
      },
      "t_bytes32": {
        "encoding": "inplace",
        "label": "bytes32",
        "numberOfBytes": "32"
      },
      "t_contract(IERC721Upgradeable)2604": {
        "encoding": "inplace",
        "label": "contract IERC721Upgradeable",
        "numberOfBytes": "20"
      },
      "t_uint256": {
        "encoding": "inplace",
        "label": "uint256",
        "numberOfBytes": "32"
      },
      "t_uint8": {
        "encoding": "inplace",
        "label": "uint8",
        "numberOfBytes": "1"
      }
    }
  }
}