{
  "address": "0x08d49340c8D3Bfe1CEad341d8597BD07B959eaab",
  "bytecode": "0x60e06040819052600060c08190526200001b91600f9162000159565b503480156200002957600080fd5b5060405162005d5a38038062005d5a8339810160408190526200004c916200021c565b604080518082018252600a8152692734b33a3ca232b3b2b760b11b6020808301918252835180850190945260058452642222a3a2a760d91b90840152815185939183918391620000a0916000919062000159565b508051620000b690600190602084019062000159565b505050620000d3620000cd6200010360201b60201c565b62000107565b50506006805460ff60a01b191690556001600160601b0319606091821b811660805291901b1660a0525062000290565b3390565b600680546001600160a01b038381166001600160a01b0319831681179093556040519116919082907f8be0079c531659141344cd1fd0a4f28419497f9722a3daafe3b4186f6b6457e090600090a35050565b828054620001679062000253565b90600052602060002090601f0160209004810192826200018b5760008555620001d6565b82601f10620001a657805160ff1916838001178555620001d6565b82800160010185558215620001d6579182015b82811115620001d6578251825591602001919060010190620001b9565b50620001e4929150620001e8565b5090565b5b80821115620001e45760008155600101620001e9565b80516001600160a01b03811681146200021757600080fd5b919050565b600080604083850312156200022f578182fd5b6200023a83620001ff565b91506200024a60208401620001ff565b90509250929050565b600181811c908216806200026857607f821691505b602082108114156200028a57634e487b7160e01b600052602260045260246000fd5b50919050565b60805160601c60a05160601c615a9e620002bc6000396000612ac8015260006124900152615a9e6000f3fe6080604052600436106102a05760003560e01c80636b8ff5741161016e578063b88d4fde116100cb578063e13cae401161007f578063f2fde38b11610064578063f2fde38b1461075c578063fb107a4f1461077c578063ff88dea91461079157600080fd5b8063e13cae40146106fe578063e985e9c51461071357600080fd5b8063c87b56dd116100b0578063c87b56dd146106a9578063d92559ad146106c9578063da8fbf2a146106e957600080fd5b8063b88d4fde14610669578063c39cbef11461068957600080fd5b806395d89b41116101225780639ffdb65a116101075780639ffdb65a14610614578063a22cb46514610634578063ae2003221461065457600080fd5b806395d89b41146105d25780639b046ed3146105e757600080fd5b8063715018a611610153578063715018a61461058c57806372c9f580146105a15780638da5cb5b146105b457600080fd5b80636b8ff5741461054c57806370a082311461056c57600080fd5b806317bed2c51161021c57806342842e0e116101d057806355f804b3116101b557806355f804b3146104dc5780635c975abb146104fc5780636352211e1461052c57600080fd5b806342842e0e1461049f57806354b6f161146104bf57600080fd5b806323b872dd1161020157806323b872dd1461045457806332cb6b0c146104745780633ccfd60b1461048a57600080fd5b806317bed2c51461040d57806318160ddd1461042f57600080fd5b8063081812fc1161027357806315b56d101161025857806315b56d101461039c5780631656efc6146103bc5780631755b27c146103ed57600080fd5b8063081812fc14610344578063095ea7b31461037c57600080fd5b80630194cf12146102a557806301ffc9a7146102bc57806306fdde03146102f15780630750d2fb14610313575b600080fd5b3480156102b157600080fd5b506102ba6107b1565b005b3480156102c857600080fd5b506102dc6102d7366004615284565b610a80565b60405190151581526020015b60405180910390f35b3480156102fd57600080fd5b50610306610b65565b6040516102e89190615625565b34801561031f57600080fd5b506102dc61032e36600461548e565b60009081526008602052604090205460ff161590565b34801561035057600080fd5b5061036461035f36600461548e565b610bf7565b6040516001600160a01b0390911681526020016102e8565b34801561038857600080fd5b506102ba61039736600461516a565b610c9d565b3480156103a857600080fd5b506102dc6103b73660046152bc565b610dcf565b3480156103c857600080fd5b506102dc6103d736600461548e565b60009081526009602052604090205460ff161590565b3480156103f957600080fd5b506102ba6104083660046152ef565b610e02565b34801561041957600080fd5b506104226110db565b6040516102e891906155dd565b34801561043b57600080fd5b50600c546104469081565b6040519081526020016102e8565b34801561046057600080fd5b506102ba61046f366004615080565b61115a565b34801561048057600080fd5b5061044661271081565b34801561049657600080fd5b506102ba6111e1565b3480156104ab57600080fd5b506102ba6104ba366004615080565b61126e565b3480156104cb57600080fd5b50610446683635c9adc5dea0000081565b3480156104e857600080fd5b506102ba6104f73660046152bc565b611289565b34801561050857600080fd5b5060065474010000000000000000000000000000000000000000900460ff166102dc565b34801561053857600080fd5b5061036461054736600461548e565b6112f6565b34801561055857600080fd5b5061030661056736600461548e565b611381565b34801561057857600080fd5b50610446610587366004615034565b611489565b34801561059857600080fd5b506102ba611523565b6102ba6105af366004615193565b611589565b3480156105c057600080fd5b506006546001600160a01b0316610364565b3480156105de57600080fd5b506103066117fb565b3480156105f357600080fd5b5061060761060236600461548e565b61180a565b6040516102e89190615666565b34801561062057600080fd5b506102dc61062f3660046152bc565b611c0c565b34801561064057600080fd5b506102ba61064f366004615134565b612099565b34801561066057600080fd5b506102ba6120a4565b34801561067557600080fd5b506102ba6106843660046150bb565b612106565b34801561069557600080fd5b506103066106a43660046154a6565b612194565b3480156106b557600080fd5b506103066106c436600461548e565b612676565b3480156106d557600080fd5b506102ba6106e436600461548e565b61275f565b3480156106f557600080fd5b506102ba6127be565b34801561070a57600080fd5b50610446606481565b34801561071f57600080fd5b506102dc61072e36600461504e565b6001600160a01b03918216600090815260056020908152604080832093909416825291909152205460ff1690565b34801561076857600080fd5b506102ba610777366004615034565b612820565b34801561078857600080fd5b50610446612902565b34801561079d57600080fd5b506102dc6107ac3660046154eb565b612a62565b6006546001600160a01b031633146108105760405162461bcd60e51b815260206004820181905260248201527f4f776e61626c653a2063616c6c6572206973206e6f7420746865206f776e657260448201526064015b60405180910390fd5b600d60205260717fa5049387d9cb649c59f4bda666105ba636c2a103d8e2b232ba4d125737cd214955600e7fa48544818c2c710afa9849c61ec9c60e8acdb3eaa2885f33b37e118cc8fd04ac55603f7fb91432bedff11256dbe14161d3606a2657bc9dacf8742f6b817d871dd53fb9765560637f0b705463cf5f7356780ee6e96132d37412c1b5816a4d207b8dcd42c34976745755604c7f7b6f1ece0cbe5122a575776770f0494c2d57ed2a50e36c2ba0d811d70ee03b645560297fba9d637f252776d5e1b3534bbd7554a1265a4ef0539d9ca50abe118598a6973c5560657f52c2086a203f40e709b1346663401f6c737b2fce5878601fcf875b047fed5fb65560257fe399baa2fabbab2a0309615b124a802277bab50ec0ca3452a00889e216c4b902819055600c7fe0af3347aa7e5af384208c9d29458f902f0ceddbc90963608afa77235658b360819055602b7f154ef5b709dcdc8b49a2af6408b8a1af209c39b5fa796f03680257c97692546e5560327f52fb6a28cb3c239105f8f829bc7376f939b6bfb040c470bdc2bda0af2e784b9455600a7f01a49be1e7ea084651fd665847100d28826db0b17160863a99534933cbbd2dce557f6fbf3b49b523bc27464b7dbfa6311951351b1d3efd07aa2ee4d1ce319801a0ce5560197f0a206051e911305809ddd48cf2baa7ead2c7fb038e505e1d02f9e6c2ce72930c557f1341e158d1184a2eb4edb96b016176e1c5ad075baae6651557fb93ae3925007a55605c7fdd2af3330d298808a303a10bc360333536e7697099bb3fe7200b0c272de6655855601560005260307f35c0ef8c6f7488ebe28ad34a3af68b3aa3aea0693e227054e9ec90bd504f66d255565b60007fffffffff0000000000000000000000000000000000000000000000000000000082167f80ac58cd000000000000000000000000000000000000000000000000000000001480610b1357507fffffffff0000000000000000000000000000000000000000000000000000000082167f5b5e139f00000000000000000000000000000000000000000000000000000000145b80610b5f57507f01ffc9a7000000000000000000000000000000000000000000000000000000007fffffffff000000000000000000000000000000000000000000000000000000008316145b92915050565b606060008054610b7490615962565b80601f0160208091040260200160405190810160405280929190818152602001828054610ba090615962565b8015610bed5780601f10610bc257610100808354040283529160200191610bed565b820191906000526020600020905b815481529060010190602001808311610bd057829003601f168201915b5050505050905090565b6000818152600260205260408120546001600160a01b0316610c815760405162461bcd60e51b815260206004820152602c60248201527f4552433732313a20617070726f76656420717565727920666f72206e6f6e657860448201527f697374656e7420746f6b656e00000000000000000000000000000000000000006064820152608401610807565b506000908152600460205260409020546001600160a01b031690565b6000610ca8826112f6565b9050806001600160a01b0316836001600160a01b03161415610d325760405162461bcd60e51b815260206004820152602160248201527f4552433732313a20617070726f76616c20746f2063757272656e74206f776e6560448201527f72000000000000000000000000000000000000000000000000000000000000006064820152608401610807565b336001600160a01b0382161480610d4e5750610d4e813361072e565b610dc05760405162461bcd60e51b815260206004820152603860248201527f4552433732313a20617070726f76652063616c6c6572206973206e6f74206f7760448201527f6e6572206e6f7220617070726f76656420666f7220616c6c00000000000000006064820152608401610807565b610dca8383612b54565b505050565b6000600b610ddc83612bda565b604051610de99190615556565b9081526040519081900360200190205460ff1692915050565b6006546001600160a01b03163314610e5c5760405162461bcd60e51b815260206004820181905260248201527f4f776e61626c653a2063616c6c6572206973206e6f7420746865206f776e65726044820152606401610807565b610e64614cfe565b610e6c614d1c565b610e74614d3a565b610e7c614d3a565b610e84614d58565b855161ffff90811686526020870151168560016020908102919091019190915260408781015161ffff908116888301526060808a01518216818a01526080808b01518316818b015260a0808c015184168a5260c08c015184168a87015260e08c015184168a8601526101008c0151841689526101208c01518416898701526101408c01518416898601526101608c01518416898401526101808c01518416898301526101a08c01518416898201526101c08c0151841688526101e08c01518416888701526102008c01518416948801949094526102208b01518316918701919091526102408a0151821690860152610260890151811691850191909152610280880151811683526102a0880151169082015260006110c78686868686600080868160200201519050600a8760016020020151901b1760148760026020020151901b17601e8760036020020151901b1760288760046020020151901b1760328660006020020151901b17603c8660016020020151901b1760468660026020020151901b1760508560006020020151901b17605a8560016020020151901b1760648560026020020151901b17606e8560036020020151901b1760788560046020020151901b1760828560056020020151901b17608c8460006020020151901b1760968460016020020151901b1760a08460026020020151901b1760aa8460036020020151901b1760b48460046020020151901b1760be8460056020020151901b1760c88360006020020151901b1760d28360016020020151901b179695505050505050565b90506110d281612dcf565b50505050505050565b6060600a805480602002602001604051908101604052809291908181526020018280548015610bed57602002820191906000526020600020906000905b82829054906101000a900461ffff1661ffff16815260200190600201906020826001010492830192600103820291508084116111185790505050505050905090565b6111643382612ee6565b6111d65760405162461bcd60e51b815260206004820152603160248201527f4552433732313a207472616e736665722063616c6c6572206973206e6f74206f60448201527f776e6572206e6f7220617070726f7665640000000000000000000000000000006064820152608401610807565b610dca838383612fea565b6006546001600160a01b0316331461123b5760405162461bcd60e51b815260206004820181905260248201527f4f776e61626c653a2063616c6c6572206973206e6f7420746865206f776e65726044820152606401610807565b6040514790339082156108fc029083906000818181858888f1935050505015801561126a573d6000803e3d6000fd5b5050565b610dca83838360405180602001604052806000815250612106565b6006546001600160a01b031633146112e35760405162461bcd60e51b815260206004820181905260248201527f4f776e61626c653a2063616c6c6572206973206e6f7420746865206f776e65726044820152606401610807565b805161126a90600f906020840190614d76565b6000818152600260205260408120546001600160a01b031680610b5f5760405162461bcd60e51b815260206004820152602960248201527f4552433732313a206f776e657220717565727920666f72206e6f6e657869737460448201527f656e7420746f6b656e00000000000000000000000000000000000000000000006064820152608401610807565b6000818152600260205260409020546060906001600160a01b03166113e85760405162461bcd60e51b815260206004820152601160248201527f6e6f6e6578697374656e7420746f6b656e0000000000000000000000000000006044820152606401610807565b6000828152600760205260409020600101805461140490615962565b80601f016020809104026020016040519081016040528092919081815260200182805461143090615962565b801561147d5780601f106114525761010080835404028352916020019161147d565b820191906000526020600020905b81548152906001019060200180831161146057829003601f168201915b50505050509050919050565b60006001600160a01b0382166115075760405162461bcd60e51b815260206004820152602a60248201527f4552433732313a2062616c616e636520717565727920666f7220746865207a6560448201527f726f2061646472657373000000000000000000000000000000000000000000006064820152608401610807565b506001600160a01b031660009081526003602052604090205490565b6006546001600160a01b0316331461157d5760405162461bcd60e51b815260206004820181905260248201527f4f776e61626c653a2063616c6c6572206973206e6f7420746865206f776e65726044820152606401610807565b61158760006131cf565b565b60065474010000000000000000000000000000000000000000900460ff16156115f45760405162461bcd60e51b815260206004820152601060248201527f5061757361626c653a20706175736564000000000000000000000000000000006044820152606401610807565b60006115ff600c5490565b905060038110158061161b57506006546001600160a01b031633145b6116675760405162461bcd60e51b815260206004820152601460248201527f53616c6520686173206e6f7420737461727465640000000000000000000000006044820152606401610807565b61166f612902565b34146116bd5760405162461bcd60e51b815260206004820152601560248201527f45746865722076616c756520696e636f727265637400000000000000000000006044820152606401610807565b6116ca8686868686613239565b60006110c78787878787600080868160200201519050600a8760016020020151901b1760148760026020020151901b17601e8760036020020151901b1760288760046020020151901b1760328660006020020151901b17603c8660016020020151901b1760468660026020020151901b1760508560006020020151901b17605a8560016020020151901b1760648560026020020151901b17606e8560036020020151901b1760788560046020020151901b1760828560056020020151901b17608c8460006020020151901b1760968460016020020151901b1760a08460026020020151901b1760aa8460036020020151901b1760b48460046020020151901b1760be8460056020020151901b1760c88360006020020151901b1760d28360016020020151901b179695505050505050565b606060018054610b7490615962565b604080516102c081018252600080825260208201819052918101829052606081018290526080810182905260a0810182905260c0810182905260e08101829052610100810182905261012081018290526101408101829052610160810182905261018081018290526101a081018290526101c081018290526101e08101829052610200810182905261022081018290526102408101829052610260810182905261028081018290526102a08101919091526000828152600260205260409020546001600160a01b031661191f5760405162461bcd60e51b815260206004820152601160248201527f6e6f6e6578697374656e7420746f6b656e0000000000000000000000000000006044820152606401610807565b6000600760008481526020019081526020016000206040518060400160405290816000820154815260200160018201805461195990615962565b80601f016020809104026020016040519081016040528092919081815260200182805461198590615962565b80156119d25780601f106119a7576101008083540402835291602001916119d2565b820191906000526020600020905b8154815290600101906020018083116119b557829003601f168201915b5050509190925250508151919250506103ff1661ffff16825280516119fb90600a1c6103ff1690565b61ffff1660208301528051611a149060141c6103ff1690565b61ffff1660408301528051611a2d90601e1c6103ff1690565b61ffff1660608301528051611a469060281c6103ff1690565b61ffff1660808301528051611a5f9060321c6103ff1690565b61ffff1660a08301528051611a7890603c1c6103ff1690565b61ffff1660c08301528051611a919060461c6103ff1690565b61ffff1660e08301528051611aaa9060501c6103ff1690565b61ffff166101008301528051611ac490605a1c6103ff1690565b61ffff166101208301528051611ade9060641c6103ff1690565b61ffff166101408301528051611af890606e1c6103ff1690565b61ffff166101608301528051611b129060781c6103ff1690565b61ffff166101808301528051611b2c9060821c6103ff1690565b61ffff166101a08301528051611b4690608c1c6103ff1690565b61ffff166101c08301528051611b609060961c6103ff1690565b61ffff166101e08301528051611b7a9060a01c6103ff1690565b61ffff166102008301528051611b949060aa1c6103ff1690565b61ffff166102208301528051611bae9060b41c6103ff1690565b61ffff166102408301528051611bc89060be1c6103ff1690565b61ffff166102608301528051611be29060c81c6103ff1690565b61ffff166102808301528051611bfc9060d21c6103ff1690565b61ffff166102a083015250919050565b600080829050600181511080611c23575060208151115b15611c315750600092915050565b80600081518110611c5257634e487b7160e01b600052603260045260246000fd5b6020910101517fff00000000000000000000000000000000000000000000000000000000000000167f20000000000000000000000000000000000000000000000000000000000000001480611d1a57508060018251611cb1919061591f565b81518110611ccf57634e487b7160e01b600052603260045260246000fd5b6020910101517fff00000000000000000000000000000000000000000000000000000000000000167f2000000000000000000000000000000000000000000000000000000000000000145b15611d285750600092915050565b600081600081518110611d4b57634e487b7160e01b600052603260045260246000fd5b01602001517fff0000000000000000000000000000000000000000000000000000000000000016905060005b825181101561208e576000838281518110611da257634e487b7160e01b600052603260045260246000fd5b01602001517fff000000000000000000000000000000000000000000000000000000000000001690507f200000000000000000000000000000000000000000000000000000000000000081148015611e3b57507f20000000000000000000000000000000000000000000000000000000000000007fff000000000000000000000000000000000000000000000000000000000000008416145b15611e4c5750600095945050505050565b7f30000000000000000000000000000000000000000000000000000000000000007fff00000000000000000000000000000000000000000000000000000000000000821610801590611ee057507f39000000000000000000000000000000000000000000000000000000000000007fff00000000000000000000000000000000000000000000000000000000000000821611155b158015611f7e57507f41000000000000000000000000000000000000000000000000000000000000007fff00000000000000000000000000000000000000000000000000000000000000821610801590611f7c57507f5a000000000000000000000000000000000000000000000000000000000000007fff00000000000000000000000000000000000000000000000000000000000000821611155b155b801561201b57507f61000000000000000000000000000000000000000000000000000000000000007fff0000000000000000000000000000000000000000000000000000000000000082161080159061201957507f7a000000000000000000000000000000000000000000000000000000000000007fff00000000000000000000000000000000000000000000000000000000000000821611155b155b801561206957507f20000000000000000000000000000000000000000000000000000000000000007fff00000000000000000000000000000000000000000000000000000000000000821614155b1561207a5750600095945050505050565b9150806120868161599d565b915050611d77565b506001949350505050565b61126a338383614216565b6006546001600160a01b031633146120fe5760405162461bcd60e51b815260206004820181905260248201527f4f776e61626c653a2063616c6c6572206973206e6f7420746865206f776e65726044820152606401610807565b611587614303565b6121103383612ee6565b6121825760405162461bcd60e51b815260206004820152603160248201527f4552433732313a207472616e736665722063616c6c6572206973206e6f74206f60448201527f776e6572206e6f7220617070726f7665640000000000000000000000000000006064820152608401610807565b61218e848484846143d5565b50505050565b6000828152600260205260409020546060906001600160a01b03166121fb5760405162461bcd60e51b815260206004820152601160248201527f6e6f6e6578697374656e7420746f6b656e0000000000000000000000000000006044820152606401610807565b6122053384612ee6565b6122515760405162461bcd60e51b815260206004820181905260248201527f43616c6c6572206973206e6f74206f776e6572206e6f7220617070726f7665646044820152606401610807565b6000838152600760205260408120600101805461226d90615962565b80601f016020809104026020016040519081016040528092919081815260200182805461229990615962565b80156122e65780601f106122bb576101008083540402835291602001916122e6565b820191906000526020600020905b8154815290600101906020018083116122c957829003601f168201915b505050505090506002816040516122fd9190615556565b602060405180830381855afa15801561231a573d6000803e3d6000fd5b5050506040513d601f19601f8201168201806040525081019061233d919061526c565b60028460405161234d9190615556565b602060405180830381855afa15801561236a573d6000803e3d6000fd5b5050506040513d601f19601f8201168201806040525081019061238d919061526c565b14156123db5760405162461bcd60e51b815260206004820152601f60248201527f4e6577206e616d6520616e64206f6c64206e616d652061726520657175616c006044820152606401610807565b6123e483611c0c565b6124305760405162461bcd60e51b815260206004820152601360248201527f4e616d65206973206e6f7420616c6c6f776564000000000000000000000000006044820152606401610807565b61243983610dcf565b156124865760405162461bcd60e51b815260206004820152601560248201527f4e616d6520616c726561647920726573657276656400000000000000000000006044820152606401610807565b6001600160a01b037f0000000000000000000000000000000000000000000000000000000000000000166379cc6790336040517fffffffff0000000000000000000000000000000000000000000000000000000060e084901b1681526001600160a01b039091166004820152683635c9adc5dea000006024820152604401600060405180830381600087803b15801561251e57600080fd5b505af1158015612532573d6000803e3d6000fd5b505050600085815260076020526040812060010180549192509061255590615962565b905011156126035760008481526007602052604090206001018054612603919061257e90615962565b80601f01602080910402602001604051908101604052809291908181526020018280546125aa90615962565b80156125f75780601f106125cc576101008083540402835291602001916125f7565b820191906000526020600020905b8154815290600101906020018083116125da57829003601f168201915b5050505050600061445e565b61260e83600161445e565b6000848152600760209081526040909120845161263392600190920191860190614d76565b50837f8eff5208043d31f23e348dc06be3a80821505e5b3e0002e9fa1185f5d47eac598285604051612666929190615638565b60405180910390a2509092915050565b6000818152600260205260409020546060906001600160a01b03166127035760405162461bcd60e51b815260206004820152602f60248201527f4552433732314d657461646174613a2055524920717565727920666f72206e6f60448201527f6e6578697374656e7420746f6b656e00000000000000000000000000000000006064820152608401610807565b600061270d6144b9565b9050600081511161272d5760405180602001604052806000815250612758565b80612737846144c8565b604051602001612748929190615572565b6040516020818303038152906040525b9392505050565b6006546001600160a01b031633146127b95760405162461bcd60e51b815260206004820181905260248201527f4f776e61626c653a2063616c6c6572206973206e6f7420746865206f776e65726044820152606401610807565b600e55565b6006546001600160a01b031633146128185760405162461bcd60e51b815260206004820181905260248201527f4f776e61626c653a2063616c6c6572206973206e6f7420746865206f776e65726044820152606401610807565b611587614616565b6006546001600160a01b0316331461287a5760405162461bcd60e51b815260206004820181905260248201527f4f776e61626c653a2063616c6c6572206973206e6f7420746865206f776e65726044820152606401610807565b6001600160a01b0381166128f65760405162461bcd60e51b815260206004820152602660248201527f4f776e61626c653a206e6577206f776e657220697320746865207a65726f206160448201527f64647265737300000000000000000000000000000000000000000000000000006064820152608401610807565b6128ff816131cf565b50565b60008061290e600c5490565b905061291d606461271061591f565b81108061294057506006546001600160a01b031633148015612940575061271081105b61298c5760405162461bcd60e51b815260206004820152601660248201527f53616c652068617320616c726561647920656e646564000000000000000000006044820152606401610807565b600381108061299d57506126ac8110155b156129aa57600091505090565b67011c37937e080000600e54106129c3575050600e5490565b61251c81106129db576703e2c284391c000091505090565b61213481106129f3576703782dace9d9000091505090565b6119648110612a0b5767030d98d59a96000091505090565b6111948110612a23576702a303fe4b53000091505090565b6109c48110612a3b576702386f26fc10000091505090565b6103e88110612a53576701cdda4faccd000091505090565b67016345785d8a000091505090565b600081612a7157506001610b5f565b60968210612a92575060008181526009602052604090205460ff1615610b5f565b6040517f968ef8f500000000000000000000000000000000000000000000000000000000815260048101849052602481018390527f0000000000000000000000000000000000000000000000000000000000000000906001600160a01b0382169063968ef8f59060440160206040518083038186803b158015612b1457600080fd5b505afa158015612b28573d6000803e3d6000fd5b505050506040513d601f19601f82011682018060405250810190612b4c9190615250565b949350505050565b600081815260046020526040902080547fffffffffffffffffffffffff0000000000000000000000000000000000000000166001600160a01b0384169081179091558190612ba1826112f6565b6001600160a01b03167f8c5be1e5ebec7d5bd14f71427d1e84f3dd0314c0f7b2291e5b200ac8c7c3b92560405160405180910390a45050565b606060008290506000815167ffffffffffffffff811115612c0b57634e487b7160e01b600052604160045260246000fd5b6040519080825280601f01601f191660200182016040528015612c35576020820181803683370190505b50905060005b8251811015612dc7576041838281518110612c6657634e487b7160e01b600052603260045260246000fd5b016020015160f81c10801590612ca45750605a838281518110612c9957634e487b7160e01b600052603260045260246000fd5b016020015160f81c11155b15612d3a57828181518110612cc957634e487b7160e01b600052603260045260246000fd5b602001015160f81c60f81b60f81c6020612ce39190615835565b60f81b828281518110612d0657634e487b7160e01b600052603260045260246000fd5b60200101907effffffffffffffffffffffffffffffffffffffffffffffffffffffffffffff1916908160001a905350612db5565b828181518110612d5a57634e487b7160e01b600052603260045260246000fd5b602001015160f81c60f81b828281518110612d8557634e487b7160e01b600052603260045260246000fd5b60200101907effffffffffffffffffffffffffffffffffffffffffffffffffffffffffffff1916908160001a9053505b80612dbf8161599d565b915050612c3b565b509392505050565b60008181526008602052604090205460ff1615612e2e5760405162461bcd60e51b815260206004820152601e60248201527f4e465420747261697420636f6d626f20616c72656164792065786973747300006044820152606401610807565b600081815260086020526040902080547fffffffffffffffffffffffffffffffffffffffffffffffffffffffffffffff00166001179055612e73600c80546001019055565b6000612e7e600c5490565b9050612e9d604051806040016040528060008152602001606081525090565b8281526000828152600760209081526040909120825181558183015180518493612ece926001850192910190614d76565b50905050612edc82846146e8565b610dca3383614875565b6000818152600260205260408120546001600160a01b0316612f705760405162461bcd60e51b815260206004820152602c60248201527f4552433732313a206f70657261746f7220717565727920666f72206e6f6e657860448201527f697374656e7420746f6b656e00000000000000000000000000000000000000006064820152608401610807565b6000612f7b836112f6565b9050806001600160a01b0316846001600160a01b03161480612fb65750836001600160a01b0316612fab84610bf7565b6001600160a01b0316145b80612b4c57506001600160a01b0380821660009081526005602090815260408083209388168352929052205460ff16612b4c565b826001600160a01b0316612ffd826112f6565b6001600160a01b0316146130795760405162461bcd60e51b815260206004820152602960248201527f4552433732313a207472616e73666572206f6620746f6b656e2074686174206960448201527f73206e6f74206f776e00000000000000000000000000000000000000000000006064820152608401610807565b6001600160a01b0382166130f45760405162461bcd60e51b8152602060048201526024808201527f4552433732313a207472616e7366657220746f20746865207a65726f2061646460448201527f72657373000000000000000000000000000000000000000000000000000000006064820152608401610807565b6130ff600082612b54565b6001600160a01b038316600090815260036020526040812080546001929061312890849061591f565b90915550506001600160a01b038216600090815260036020526040812080546001929061315690849061581d565b909155505060008181526002602052604080822080547fffffffffffffffffffffffff0000000000000000000000000000000000000000166001600160a01b0386811691821790925591518493918716917fddf252ad1be2c89b69c2b068fc378daa952ba7f163c4a11628f55a4df523b3ef91a4505050565b600680546001600160a01b038381167fffffffffffffffffffffffff0000000000000000000000000000000000000000831681179093556040519116919082907f8be0079c531659141344cd1fd0a4f28419497f9722a3daafe3b4186f6b6457e090600090a35050565b8451801580159061326b575060068111158061326b57506009811115801561326b57506006546001600160a01b031633145b6132b75760405162461bcd60e51b815260206004820152600f60248201527f547269626520696e636f727265637400000000000000000000000000000000006044820152606401610807565b60208601516132c990600a604561488f565b806132e457506132e48660015b60200201516077609561488f565b6133305760405162461bcd60e51b815260206004820152601460248201527f536b696e20636f6c6f7220696e636f72726563740000000000000000000000006044820152606401610807565b6040860151613342906046606461488f565b8061335357506133538660026132d6565b61339f5760405162461bcd60e51b815260206004820152601360248201527f46757220636f6c6f7220696e636f7272656374000000000000000000000000006044820152606401610807565b60608601516133b1906065606d61488f565b806133c257506133c28660036132d6565b61340e5760405162461bcd60e51b815260206004820152601360248201527f45796520636f6c6f7220696e636f7272656374000000000000000000000000006044820152606401610807565b608086015161342090606e607661488f565b8061343157506134318660046132d6565b61347d5760405162461bcd60e51b815260206004820152601560248201527f507570696c20636f6c6f7220696e636f727265637400000000000000000000006044820152606401610807565b845161348d90609661010661488f565b6134d95760405162461bcd60e51b815260206004820152600e60248201527f4861697220696e636f72726563740000000000000000000000000000000000006044820152606401610807565b60208501516134ed9061010761011461488f565b6135395760405162461bcd60e51b815260206004820152600f60248201527f4d6f75746820696e636f727265637400000000000000000000000000000000006044820152606401610807565b604085015161354d9061011561015361488f565b6135995760405162461bcd60e51b815260206004820152600f60248201527f426561726420696e636f727265637400000000000000000000000000000000006044820152606401610807565b83516135aa906101546101b661488f565b6135f65760405162461bcd60e51b815260206004820152600d60248201527f546f7020696e636f7272656374000000000000000000000000000000000000006044820152606401610807565b602084015161360a906101b761020261488f565b6136565760405162461bcd60e51b815260206004820152601360248201527f4f757465727765617220696e636f7272656374000000000000000000000000006044820152606401610807565b604084015161366a9061020361022b61488f565b6136b65760405162461bcd60e51b815260206004820152600f60248201527f5072696e7420696e636f727265637400000000000000000000000000000000006044820152606401610807565b60608401516136ca9061022c61029161488f565b6137165760405162461bcd60e51b815260206004820152601060248201527f426f74746f6d20696e636f7272656374000000000000000000000000000000006044820152606401610807565b608084015161372a906102926102b661488f565b6137765760405162461bcd60e51b815260206004820152601260248201527f466f6f747765617220696e636f727265637400000000000000000000000000006044820152606401610807565b60a084015161378a906102b76102c261488f565b6137d65760405162461bcd60e51b815260206004820152600e60248201527f42656c7420696e636f72726563740000000000000000000000000000000000006044820152606401610807565b82516137e7906102c36102ed61488f565b6138335760405162461bcd60e51b815260206004820152600d60248201527f48617420696e636f7272656374000000000000000000000000000000000000006044820152606401610807565b6020830151613847906102ee61031f61488f565b6138935760405162461bcd60e51b815260206004820152601160248201527f4579657765617220696e636f72726563740000000000000000000000000000006044820152606401610807565b60408301516138a79061032061032961488f565b6138f35760405162461bcd60e51b815260206004820152601260248201527f5069657263696e6720696e636f727265637400000000000000000000000000006044820152606401610807565b60608301516139079061032a61033561488f565b6139535760405162461bcd60e51b815260206004820152601960248201527f5772697374206163636573736f727920696e636f7272656374000000000000006044820152606401610807565b60808301516139679061033661034e61488f565b6139b35760405162461bcd60e51b815260206004820152601960248201527f48616e6473206163636573736f727920696e636f7272656374000000000000006044820152606401610807565b60a08301516139c79061034f61037361488f565b613a135760405162461bcd60e51b815260206004820152601260248201527f4e65636b7765617220696e636f727265637400000000000000000000000000006044820152606401610807565b8151613a24906103746103cf61488f565b613a705760405162461bcd60e51b815260206004820152601360248201527f4c656674206974656d20696e636f7272656374000000000000000000000000006044820152606401610807565b6020820151613a84906103d06103ff61488f565b613ad05760405162461bcd60e51b815260206004820152601460248201527f5269676874206974656d20696e636f72726563740000000000000000000000006044820152606401610807565b613ae2818760015b6020020151612a62565b613b2e5760405162461bcd60e51b815260206004820152601660248201527f536b696e20636f6c6f7220756e617661696c61626c65000000000000000000006044820152606401610807565b613b3a81876002613ad8565b613b865760405162461bcd60e51b815260206004820152601560248201527f46757220636f6c6f7220756e617661696c61626c6500000000000000000000006044820152606401610807565b613b9281876003613ad8565b613bde5760405162461bcd60e51b815260206004820152601560248201527f45796520636f6c6f7220756e617661696c61626c6500000000000000000000006044820152606401610807565b613bea81876004613ad8565b613c365760405162461bcd60e51b815260206004820152601760248201527f507570696c20636f6c6f7220756e617661696c61626c650000000000000000006044820152606401610807565b613c4281866000613ad8565b613c8e5760405162461bcd60e51b815260206004820152601060248201527f4861697220756e617661696c61626c65000000000000000000000000000000006044820152606401610807565b613c9a81866001613ad8565b613ce65760405162461bcd60e51b815260206004820152601160248201527f4d6f75746820756e617661696c61626c650000000000000000000000000000006044820152606401610807565b613cf281866002613ad8565b613d3e5760405162461bcd60e51b815260206004820152601160248201527f426561726420756e617661696c61626c650000000000000000000000000000006044820152606401610807565b613d4a81856000613ad8565b613d965760405162461bcd60e51b815260206004820152600f60248201527f546f7020756e617661696c61626c6500000000000000000000000000000000006044820152606401610807565b613da281856001613ad8565b613dee5760405162461bcd60e51b815260206004820152601560248201527f4f757465727765617220756e617661696c61626c6500000000000000000000006044820152606401610807565b613dfa81856002613ad8565b613e465760405162461bcd60e51b815260206004820152601160248201527f5072696e7420756e617661696c61626c650000000000000000000000000000006044820152606401610807565b613e5281856003613ad8565b613e9e5760405162461bcd60e51b815260206004820152601260248201527f426f74746f6d20756e617661696c61626c6500000000000000000000000000006044820152606401610807565b613eaa81856004613ad8565b613ef65760405162461bcd60e51b815260206004820152601460248201527f466f6f747765617220756e617661696c61626c650000000000000000000000006044820152606401610807565b613f0281856005613ad8565b613f4e5760405162461bcd60e51b815260206004820152601060248201527f42656c7420756e617661696c61626c65000000000000000000000000000000006044820152606401610807565b613f5a81846000613ad8565b613fa65760405162461bcd60e51b815260206004820152600f60248201527f48617420756e617661696c61626c6500000000000000000000000000000000006044820152606401610807565b613fb281846001613ad8565b613ffe5760405162461bcd60e51b815260206004820152601360248201527f4579657765617220756e617661696c61626c65000000000000000000000000006044820152606401610807565b61400a81846002613ad8565b6140565760405162461bcd60e51b815260206004820152601460248201527f5069657263696e6720756e617661696c61626c650000000000000000000000006044820152606401610807565b61406281846003613ad8565b6140ae5760405162461bcd60e51b815260206004820152601b60248201527f5772697374206163636573736f727920756e617661696c61626c6500000000006044820152606401610807565b6140ba81846004613ad8565b6141065760405162461bcd60e51b815260206004820152601a60248201527f48616e64206163636573736f727920756e617661696c61626c650000000000006044820152606401610807565b61411281846005613ad8565b61415e5760405162461bcd60e51b815260206004820152601460248201527f4e65636b7765617220756e617661696c61626c650000000000000000000000006044820152606401610807565b61416a81836000613ad8565b6141b65760405162461bcd60e51b815260206004820152601560248201527f4c656674206974656d20756e617661696c61626c6500000000000000000000006044820152606401610807565b6141c281836001613ad8565b61420e5760405162461bcd60e51b815260206004820152601660248201527f5269676874206974656d20756e617661696c61626c65000000000000000000006044820152606401610807565b505050505050565b816001600160a01b0316836001600160a01b031614156142785760405162461bcd60e51b815260206004820152601960248201527f4552433732313a20617070726f766520746f2063616c6c6572000000000000006044820152606401610807565b6001600160a01b0383811660008181526005602090815260408083209487168084529482529182902080547fffffffffffffffffffffffffffffffffffffffffffffffffffffffffffffff001686151590811790915591519182527f17307eab39ab6107e8899845ad3d59bd9653f200f220920489ca2b5937696c31910160405180910390a3505050565b60065474010000000000000000000000000000000000000000900460ff1661436d5760405162461bcd60e51b815260206004820152601460248201527f5061757361626c653a206e6f74207061757365640000000000000000000000006044820152606401610807565b600680547fffffffffffffffffffffff00ffffffffffffffffffffffffffffffffffffffff1690557f5db9ee0a495bf2e6ff9c91a7834c1ba4fdd244a5e8aa4e537bd38aeae4b073aa335b6040516001600160a01b03909116815260200160405180910390a1565b6143e0848484612fea565b6143ec848484846148ae565b61218e5760405162461bcd60e51b815260206004820152603260248201527f4552433732313a207472616e7366657220746f206e6f6e20455243373231526560448201527f63656976657220696d706c656d656e74657200000000000000000000000000006064820152608401610807565b80600b61446a84612bda565b6040516144779190615556565b90815260405190819003602001902080549115157fffffffffffffffffffffffffffffffffffffffffffffffffffffffffffffff009092169190911790555050565b6060600f8054610b7490615962565b60608161450857505060408051808201909152600181527f3000000000000000000000000000000000000000000000000000000000000000602082015290565b8160005b8115614532578061451c8161599d565b915061452b9050600a8361585a565b915061450c565b60008167ffffffffffffffff81111561455b57634e487b7160e01b600052604160045260246000fd5b6040519080825280601f01601f191660200182016040528015614585576020820181803683370190505b5090505b8415612b4c5761459a60018361591f565b91506145a7600a866159d6565b6145b290603061581d565b60f81b8183815181106145d557634e487b7160e01b600052603260045260246000fd5b60200101907effffffffffffffffffffffffffffffffffffffffffffffffffffffffffffff1916908160001a90535061460f600a8661585a565b9450614589565b60065474010000000000000000000000000000000000000000900460ff16156146815760405162461bcd60e51b815260206004820152601060248201527f5061757361626c653a20706175736564000000000000000000000000000000006044820152606401610807565b600680547fffffffffffffffffffffff00ffffffffffffffffffffffffffffffffffffffff16740100000000000000000000000000000000000000001790557f62e78cea01bee320cd4e420270b5ea74000d11b0c9f74754ebdbfc544b05a2586143b83390565b600a5460648110801561470357506147016007846159d6565b155b8061472e57506064811015801561471a575060c881105b801561472e575061472c6009846159d6565b155b8061475a575060c88110158015614746575061012c81105b801561475a5750614758600b846159d6565b155b80614787575061012c8110158015614773575061019081105b80156147875750614785600d846159d6565b155b15610dca57600061479784614a6e565b905060006147b36147a983600a61586e565b85901c6103ff1690565b905061ffff81161561486e576000828152600d6020526040812054906147d882614ab9565b9050806110d257600a80546001818101909255601081047fc65a7bb8d6351c1cf70c95a316cc6a92839c986682d98bc35f958f4883f9d2a801805461ffff8088166002600f909516949094026101000a848102910219909116179055600090815260096020526040902080547fffffffffffffffffffffffffffffffffffffffffffffffffffffffffffffff0016909117905550505b5050505050565b61126a828260405180602001604052806000815250614b1b565b6000831580612b4c5750828410158015612b4c57505090911115919050565b60006001600160a01b0384163b1561208e576040517f150b7a020000000000000000000000000000000000000000000000000000000081526001600160a01b0385169063150b7a029061490b9033908990889088906004016155a1565b602060405180830381600087803b15801561492557600080fd5b505af1925050508015614973575060408051601f3d9081017fffffffffffffffffffffffffffffffffffffffffffffffffffffffffffffffe0168201909252614970918101906152a0565b60015b614a23573d8080156149a1576040519150601f19603f3d011682016040523d82523d6000602084013e6149a6565b606091505b508051614a1b5760405162461bcd60e51b815260206004820152603260248201527f4552433732313a207472616e7366657220746f206e6f6e20455243373231526560448201527f63656976657220696d706c656d656e74657200000000000000000000000000006064820152608401610807565b805181602001fd5b7fffffffff00000000000000000000000000000000000000000000000000000000167f150b7a0200000000000000000000000000000000000000000000000000000000149050612b4c565b6040805160208082018490524282840152446060808401919091528351808403909101815260809092019092528051910120600090614aae6011826159d6565b61275890600561581d565b604080516020808201849052428284015244606080840191909152835180840390910181526080909201909252805191012060009081614afa603d836159d6565b614b059060466158ab565b9050614b13846101f461585a565b139392505050565b614b258383614ba4565b614b3260008484846148ae565b610dca5760405162461bcd60e51b815260206004820152603260248201527f4552433732313a207472616e7366657220746f206e6f6e20455243373231526560448201527f63656976657220696d706c656d656e74657200000000000000000000000000006064820152608401610807565b6001600160a01b038216614bfa5760405162461bcd60e51b815260206004820181905260248201527f4552433732313a206d696e7420746f20746865207a65726f20616464726573736044820152606401610807565b6000818152600260205260409020546001600160a01b031615614c5f5760405162461bcd60e51b815260206004820152601c60248201527f4552433732313a20746f6b656e20616c7265616479206d696e746564000000006044820152606401610807565b6001600160a01b0382166000908152600360205260408120805460019290614c8890849061581d565b909155505060008181526002602052604080822080547fffffffffffffffffffffffff0000000000000000000000000000000000000000166001600160a01b03861690811790915590518392907fddf252ad1be2c89b69c2b068fc378daa952ba7f163c4a11628f55a4df523b3ef908290a45050565b6040518060a001604052806005906020820280368337509192915050565b60405180606001604052806003906020820280368337509192915050565b6040518060c001604052806006906020820280368337509192915050565b60405180604001604052806002906020820280368337509192915050565b828054614d8290615962565b90600052602060002090601f016020900481019282614da45760008555614dea565b82601f10614dbd57805160ff1916838001178555614dea565b82800160010185558215614dea579182015b82811115614dea578251825591602001919060010190614dcf565b50614df6929150614dfa565b5090565b5b80821115614df65760008155600101614dfb565b600060405160a0810181811067ffffffffffffffff82111715614e3457614e34615a16565b6040529050808260a08101851015614e4b57600080fd5b60005b6005811015614e6d578135835260209283019290910190600101614e4e565b50505092915050565b600067ffffffffffffffff80841115614e9157614e91615a16565b604051601f85017fffffffffffffffffffffffffffffffffffffffffffffffffffffffffffffffe0908116603f01168101908282118183101715614ed757614ed7615a16565b81604052809350858152868686011115614ef057600080fd5b858560208301376000602087830101525050509392505050565b80356001600160a01b0381168114614f2157600080fd5b919050565b600082601f830112614f36578081fd5b6040516040810181811067ffffffffffffffff82111715614f5957614f59615a16565b8060405250808385604086011115614f6f578384fd5b835b6002811015614f90578135835260209283019290910190600101614f71565b509195945050505050565b600082601f830112614fab578081fd5b60405160c0810181811067ffffffffffffffff82111715614fce57614fce615a16565b604052808360c08101861015614fe2578384fd5b835b6006811015614f90578135835260209283019290910190600101614fe4565b600082601f830112615013578081fd5b61275883833560208501614e76565b803561ffff81168114614f2157600080fd5b600060208284031215615045578081fd5b61275882614f0a565b60008060408385031215615060578081fd5b61506983614f0a565b915061507760208401614f0a565b90509250929050565b600080600060608486031215615094578081fd5b61509d84614f0a565b92506150ab60208501614f0a565b9150604084013590509250925092565b600080600080608085870312156150d0578182fd5b6150d985614f0a565b93506150e760208601614f0a565b925060408501359150606085013567ffffffffffffffff811115615109578182fd5b8501601f81018713615119578182fd5b61512887823560208401614e76565b91505092959194509250565b60008060408385031215615146578182fd5b61514f83614f0a565b9150602083013561515f81615a2c565b809150509250929050565b6000806040838503121561517c578182fd5b61518583614f0a565b946020939093013593505050565b60008060008060006102c086880312156151ab578283fd5b86601f8701126151b9578283fd5b6151c38787614e0f565b94508660bf8701126151d3578283fd5b6151db6157fa565b8060a0880161010089018a8111156151f1578687fd5b865b60038110156152125782358552602094850194909201916001016151f3565b508297506152208b82614f9b565b965050505050615234876101c08801614f9b565b9150615244876102808801614f26565b90509295509295909350565b600060208284031215615261578081fd5b815161275881615a2c565b60006020828403121561527d578081fd5b5051919050565b600060208284031215615295578081fd5b813561275881615a3a565b6000602082840312156152b1578081fd5b815161275881615a3a565b6000602082840312156152cd578081fd5b813567ffffffffffffffff8111156152e3578182fd5b612b4c84828501615003565b60006102c08284031215615301578081fd5b6153096157d0565b61531283615022565b815261532060208401615022565b602082015261533160408401615022565b604082015261534260608401615022565b606082015261535360808401615022565b608082015261536460a08401615022565b60a082015261537560c08401615022565b60c082015261538660e08401615022565b60e0820152610100615399818501615022565b908201526101206153ab848201615022565b908201526101406153bd848201615022565b908201526101606153cf848201615022565b908201526101806153e1848201615022565b908201526101a06153f3848201615022565b908201526101c0615405848201615022565b908201526101e0615417848201615022565b90820152610200615429848201615022565b9082015261022061543b848201615022565b9082015261024061544d848201615022565b9082015261026061545f848201615022565b90820152610280615471848201615022565b908201526102a0615483848201615022565b908201529392505050565b60006020828403121561549f578081fd5b5035919050565b600080604083850312156154b8578182fd5b82359150602083013567ffffffffffffffff8111156154d5578182fd5b6154e185828601615003565b9150509250929050565b600080604083850312156154fd578182fd5b50508035926020909101359150565b60008151808452615524816020860160208601615936565b601f017fffffffffffffffffffffffffffffffffffffffffffffffffffffffffffffffe0169290920160200192915050565b60008251615568818460208701615936565b9190910192915050565b60008351615584818460208801615936565b835190830190615598818360208801615936565b01949350505050565b60006001600160a01b038087168352808616602084015250836040830152608060608301526155d3608083018461550c565b9695505050505050565b6020808252825182820181905260009190848201906040850190845b8181101561561957835161ffff16835292840192918401916001016155f9565b50909695505050505050565b602081526000612758602083018461550c565b60408152600061564b604083018561550c565b828103602084015261565d818561550c565b95945050505050565b815161ffff1681526102c081016020830151615688602084018261ffff169052565b50604083015161569e604084018261ffff169052565b5060608301516156b4606084018261ffff169052565b5060808301516156ca608084018261ffff169052565b5060a08301516156e060a084018261ffff169052565b5060c08301516156f660c084018261ffff169052565b5060e083015161570c60e084018261ffff169052565b506101008381015161ffff90811691840191909152610120808501518216908401526101408085015182169084015261016080850151821690840152610180808501518216908401526101a0808501518216908401526101c0808501518216908401526101e08085015182169084015261020080850151821690840152610220808501518216908401526102408085015182169084015261026080850151821690840152610280808501518216908401526102a09384015116929091019190915290565b6040516102c0810167ffffffffffffffff811182821017156157f4576157f4615a16565b60405290565b6040516060810167ffffffffffffffff811182821017156157f4576157f4615a16565b60008219821115615830576158306159ea565b500190565b600060ff821660ff84168060ff03821115615852576158526159ea565b019392505050565b60008261586957615869615a00565b500490565b6000817fffffffffffffffffffffffffffffffffffffffffffffffffffffffffffffffff04831182151516156158a6576158a66159ea565b500290565b6000808312837f8000000000000000000000000000000000000000000000000000000000000000018312811516156158e5576158e56159ea565b837f7fffffffffffffffffffffffffffffffffffffffffffffffffffffffffffffff018313811615615919576159196159ea565b50500390565b600082821015615931576159316159ea565b500390565b60005b83811015615951578181015183820152602001615939565b8381111561218e5750506000910152565b600181811c9082168061597657607f821691505b6020821081141561599757634e487b7160e01b600052602260045260246000fd5b50919050565b60007fffffffffffffffffffffffffffffffffffffffffffffffffffffffffffffffff8214156159cf576159cf6159ea565b5060010190565b6000826159e5576159e5615a00565b500690565b634e487b7160e01b600052601160045260246000fd5b634e487b7160e01b600052601260045260246000fd5b634e487b7160e01b600052604160045260246000fd5b80151581146128ff57600080fd5b7fffffffff00000000000000000000000000000000000000000000000000000000811681146128ff57600080fdfea2646970667358221220434b86795bc779cdae4fa37026731286f145db9e26a55167cf4f5365f4aeb4e564736f6c63430008040033",
  "abi": [
    {
      "inputs": [
        {
          "internalType": "address",
          "name": "nftlAddress",
          "type": "address"
        },
        {
          "internalType": "address",
          "name": "storageAddress",
          "type": "address"
        }
      ],
      "stateMutability": "nonpayable",
      "type": "constructor"
    },
    {
      "anonymous": false,
      "inputs": [
        {
          "indexed": true,
          "internalType": "address",
          "name": "owner",
          "type": "address"
        },
        {
          "indexed": true,
          "internalType": "address",
          "name": "approved",
          "type": "address"
        },
        {
          "indexed": true,
          "internalType": "uint256",
          "name": "tokenId",
          "type": "uint256"
        }
      ],
      "name": "Approval",
      "type": "event"
    },
    {
      "anonymous": false,
      "inputs": [
        {
          "indexed": true,
          "internalType": "address",
          "name": "owner",
          "type": "address"
        },
        {
          "indexed": true,
          "internalType": "address",
          "name": "operator",
          "type": "address"
        },
        {
          "indexed": false,
          "internalType": "bool",
          "name": "approved",
          "type": "bool"
        }
      ],
      "name": "ApprovalForAll",
      "type": "event"
    },
    {
      "anonymous": false,
      "inputs": [
        {
          "indexed": true,
          "internalType": "uint256",
          "name": "tokenId",
          "type": "uint256"
        },
        {
          "indexed": false,
          "internalType": "string",
          "name": "previousName",
          "type": "string"
        },
        {
          "indexed": false,
          "internalType": "string",
          "name": "newName",
          "type": "string"
        }
      ],
      "name": "NameUpdated",
      "type": "event"
    },
    {
      "anonymous": false,
      "inputs": [
        {
          "indexed": true,
          "internalType": "address",
          "name": "previousOwner",
          "type": "address"
        },
        {
          "indexed": true,
          "internalType": "address",
          "name": "newOwner",
          "type": "address"
        }
      ],
      "name": "OwnershipTransferred",
      "type": "event"
    },
    {
      "anonymous": false,
      "inputs": [
        {
          "indexed": false,
          "internalType": "address",
          "name": "account",
          "type": "address"
        }
      ],
      "name": "Paused",
      "type": "event"
    },
    {
      "anonymous": false,
      "inputs": [
        {
          "indexed": true,
          "internalType": "address",
          "name": "from",
          "type": "address"
        },
        {
          "indexed": true,
          "internalType": "address",
          "name": "to",
          "type": "address"
        },
        {
          "indexed": true,
          "internalType": "uint256",
          "name": "tokenId",
          "type": "uint256"
        }
      ],
      "name": "Transfer",
      "type": "event"
    },
    {
      "anonymous": false,
      "inputs": [
        {
          "indexed": false,
          "internalType": "address",
          "name": "account",
          "type": "address"
        }
      ],
      "name": "Unpaused",
      "type": "event"
    },
    {
      "inputs": [],
      "name": "MAX_SUPPLY",
      "outputs": [
        {
          "internalType": "uint256",
          "name": "",
          "type": "uint256"
        }
      ],
      "stateMutability": "view",
      "type": "function"
    },
    {
      "inputs": [],
      "name": "NAME_CHANGE_PRICE",
      "outputs": [
        {
          "internalType": "uint256",
          "name": "",
          "type": "uint256"
        }
      ],
      "stateMutability": "view",
      "type": "function"
    },
    {
      "inputs": [],
      "name": "SPECIAL_CHARACTERS",
      "outputs": [
        {
          "internalType": "uint256",
          "name": "",
          "type": "uint256"
        }
      ],
      "stateMutability": "view",
      "type": "function"
    },
    {
      "inputs": [
        {
          "internalType": "address",
          "name": "to",
          "type": "address"
        },
        {
          "internalType": "uint256",
          "name": "tokenId",
          "type": "uint256"
        }
      ],
      "name": "approve",
      "outputs": [],
      "stateMutability": "nonpayable",
      "type": "function"
    },
    {
      "inputs": [
        {
          "internalType": "address",
          "name": "owner",
          "type": "address"
        }
      ],
      "name": "balanceOf",
      "outputs": [
        {
          "internalType": "uint256",
          "name": "",
          "type": "uint256"
        }
      ],
      "stateMutability": "view",
      "type": "function"
    },
    {
      "inputs": [
        {
          "internalType": "uint256",
          "name": "tokenId",
          "type": "uint256"
        },
        {
          "internalType": "string",
          "name": "newName",
          "type": "string"
        }
      ],
      "name": "changeName",
      "outputs": [
        {
          "internalType": "string",
          "name": "",
          "type": "string"
        }
      ],
      "stateMutability": "nonpayable",
      "type": "function"
    },
    {
      "inputs": [
        {
          "internalType": "uint256",
          "name": "tokenId",
          "type": "uint256"
        }
      ],
      "name": "getApproved",
      "outputs": [
        {
          "internalType": "address",
          "name": "",
          "type": "address"
        }
      ],
      "stateMutability": "view",
      "type": "function"
    },
    {
      "inputs": [
        {
          "internalType": "uint256",
          "name": "tokenId",
          "type": "uint256"
        }
      ],
      "name": "getCharacterTraits",
      "outputs": [
        {
          "components": [
            {
              "internalType": "uint16",
              "name": "tribe",
              "type": "uint16"
            },
            {
              "internalType": "uint16",
              "name": "skinColor",
              "type": "uint16"
            },
            {
              "internalType": "uint16",
              "name": "furColor",
              "type": "uint16"
            },
            {
              "internalType": "uint16",
              "name": "eyeColor",
              "type": "uint16"
            },
            {
              "internalType": "uint16",
              "name": "pupilColor",
              "type": "uint16"
            },
            {
              "internalType": "uint16",
              "name": "hair",
              "type": "uint16"
            },
            {
              "internalType": "uint16",
              "name": "mouth",
              "type": "uint16"
            },
            {
              "internalType": "uint16",
              "name": "beard",
              "type": "uint16"
            },
            {
              "internalType": "uint16",
              "name": "top",
              "type": "uint16"
            },
            {
              "internalType": "uint16",
              "name": "outerwear",
              "type": "uint16"
            },
            {
              "internalType": "uint16",
              "name": "print",
              "type": "uint16"
            },
            {
              "internalType": "uint16",
              "name": "bottom",
              "type": "uint16"
            },
            {
              "internalType": "uint16",
              "name": "footwear",
              "type": "uint16"
            },
            {
              "internalType": "uint16",
              "name": "belt",
              "type": "uint16"
            },
            {
              "internalType": "uint16",
              "name": "hat",
              "type": "uint16"
            },
            {
              "internalType": "uint16",
              "name": "eyewear",
              "type": "uint16"
            },
            {
              "internalType": "uint16",
              "name": "piercing",
              "type": "uint16"
            },
            {
              "internalType": "uint16",
              "name": "wrist",
              "type": "uint16"
            },
            {
              "internalType": "uint16",
              "name": "hands",
              "type": "uint16"
            },
            {
              "internalType": "uint16",
              "name": "neckwear",
              "type": "uint16"
            },
            {
              "internalType": "uint16",
              "name": "leftItem",
              "type": "uint16"
            },
            {
              "internalType": "uint16",
              "name": "rightItem",
              "type": "uint16"
            }
          ],
          "internalType": "struct NiftyLeagueCharacter.CharacterTraits",
          "name": "_characterTraits",
          "type": "tuple"
        }
      ],
      "stateMutability": "view",
      "type": "function"
    },
    {
      "inputs": [],
      "name": "getNFTPrice",
      "outputs": [
        {
          "internalType": "uint256",
          "name": "",
          "type": "uint256"
        }
      ],
      "stateMutability": "view",
      "type": "function"
    },
    {
      "inputs": [
        {
          "internalType": "uint256",
          "name": "tokenId",
          "type": "uint256"
        }
      ],
      "name": "getName",
      "outputs": [
        {
          "internalType": "string",
          "name": "",
          "type": "string"
        }
      ],
      "stateMutability": "view",
      "type": "function"
    },
    {
      "inputs": [],
      "name": "getRemovedTraits",
      "outputs": [
        {
          "internalType": "uint16[]",
          "name": "",
          "type": "uint16[]"
        }
      ],
      "stateMutability": "view",
      "type": "function"
    },
    {
      "inputs": [],
      "name": "initPoolSizes",
      "outputs": [],
      "stateMutability": "nonpayable",
      "type": "function"
    },
    {
      "inputs": [
        {
          "internalType": "address",
          "name": "owner",
          "type": "address"
        },
        {
          "internalType": "address",
          "name": "operator",
          "type": "address"
        }
      ],
      "name": "isApprovedForAll",
      "outputs": [
        {
          "internalType": "bool",
          "name": "",
          "type": "bool"
        }
      ],
      "stateMutability": "view",
      "type": "function"
    },
    {
      "inputs": [
        {
          "internalType": "uint256",
          "name": "tribe",
          "type": "uint256"
        },
        {
          "internalType": "uint256",
          "name": "trait",
          "type": "uint256"
        }
      ],
      "name": "isAvailableAndAllowedTrait",
      "outputs": [
        {
          "internalType": "bool",
          "name": "",
          "type": "bool"
        }
      ],
      "stateMutability": "view",
      "type": "function"
    },
    {
      "inputs": [
        {
          "internalType": "uint256",
          "name": "trait",
          "type": "uint256"
        }
      ],
      "name": "isAvailableTrait",
      "outputs": [
        {
          "internalType": "bool",
          "name": "",
          "type": "bool"
        }
      ],
      "stateMutability": "view",
      "type": "function"
    },
    {
      "inputs": [
        {
          "internalType": "string",
          "name": "nameString",
          "type": "string"
        }
      ],
      "name": "isNameReserved",
      "outputs": [
        {
          "internalType": "bool",
          "name": "",
          "type": "bool"
        }
      ],
      "stateMutability": "view",
      "type": "function"
    },
    {
      "inputs": [
        {
          "internalType": "uint256",
          "name": "traitCombo",
          "type": "uint256"
        }
      ],
      "name": "isUnique",
      "outputs": [
        {
          "internalType": "bool",
          "name": "",
          "type": "bool"
        }
      ],
      "stateMutability": "view",
      "type": "function"
    },
    {
      "inputs": [
        {
          "components": [
            {
              "internalType": "uint16",
              "name": "tribe",
              "type": "uint16"
            },
            {
              "internalType": "uint16",
              "name": "skinColor",
              "type": "uint16"
            },
            {
              "internalType": "uint16",
              "name": "furColor",
              "type": "uint16"
            },
            {
              "internalType": "uint16",
              "name": "eyeColor",
              "type": "uint16"
            },
            {
              "internalType": "uint16",
              "name": "pupilColor",
              "type": "uint16"
            },
            {
              "internalType": "uint16",
              "name": "hair",
              "type": "uint16"
            },
            {
              "internalType": "uint16",
              "name": "mouth",
              "type": "uint16"
            },
            {
              "internalType": "uint16",
              "name": "beard",
              "type": "uint16"
            },
            {
              "internalType": "uint16",
              "name": "top",
              "type": "uint16"
            },
            {
              "internalType": "uint16",
              "name": "outerwear",
              "type": "uint16"
            },
            {
              "internalType": "uint16",
              "name": "print",
              "type": "uint16"
            },
            {
              "internalType": "uint16",
              "name": "bottom",
              "type": "uint16"
            },
            {
              "internalType": "uint16",
              "name": "footwear",
              "type": "uint16"
            },
            {
              "internalType": "uint16",
              "name": "belt",
              "type": "uint16"
            },
            {
              "internalType": "uint16",
              "name": "hat",
              "type": "uint16"
            },
            {
              "internalType": "uint16",
              "name": "eyewear",
              "type": "uint16"
            },
            {
              "internalType": "uint16",
              "name": "piercing",
              "type": "uint16"
            },
            {
              "internalType": "uint16",
              "name": "wrist",
              "type": "uint16"
            },
            {
              "internalType": "uint16",
              "name": "hands",
              "type": "uint16"
            },
            {
              "internalType": "uint16",
              "name": "neckwear",
              "type": "uint16"
            },
            {
              "internalType": "uint16",
              "name": "leftItem",
              "type": "uint16"
            },
            {
              "internalType": "uint16",
              "name": "rightItem",
              "type": "uint16"
            }
          ],
          "internalType": "struct NiftyLeagueCharacter.CharacterTraits",
          "name": "_characterTraits",
          "type": "tuple"
        }
      ],
      "name": "mintDegenWithCharacterTraits",
      "outputs": [],
      "stateMutability": "nonpayable",
      "type": "function"
    },
    {
      "inputs": [],
      "name": "name",
      "outputs": [
        {
          "internalType": "string",
          "name": "",
          "type": "string"
        }
      ],
      "stateMutability": "view",
      "type": "function"
    },
    {
      "inputs": [
        {
          "internalType": "uint256",
          "name": "newPrice",
          "type": "uint256"
        }
      ],
      "name": "overrideMintPrice",
      "outputs": [],
      "stateMutability": "nonpayable",
      "type": "function"
    },
    {
      "inputs": [],
      "name": "owner",
      "outputs": [
        {
          "internalType": "address",
          "name": "",
          "type": "address"
        }
      ],
      "stateMutability": "view",
      "type": "function"
    },
    {
      "inputs": [
        {
          "internalType": "uint256",
          "name": "tokenId",
          "type": "uint256"
        }
      ],
      "name": "ownerOf",
      "outputs": [
        {
          "internalType": "address",
          "name": "",
          "type": "address"
        }
      ],
      "stateMutability": "view",
      "type": "function"
    },
    {
      "inputs": [],
      "name": "pauseMinting",
      "outputs": [],
      "stateMutability": "nonpayable",
      "type": "function"
    },
    {
      "inputs": [],
      "name": "paused",
      "outputs": [
        {
          "internalType": "bool",
          "name": "",
          "type": "bool"
        }
      ],
      "stateMutability": "view",
      "type": "function"
    },
    {
      "inputs": [
        {
          "internalType": "uint256[5]",
          "name": "character",
          "type": "uint256[5]"
        },
        {
          "internalType": "uint256[3]",
          "name": "head",
          "type": "uint256[3]"
        },
        {
          "internalType": "uint256[6]",
          "name": "clothing",
          "type": "uint256[6]"
        },
        {
          "internalType": "uint256[6]",
          "name": "accessories",
          "type": "uint256[6]"
        },
        {
          "internalType": "uint256[2]",
          "name": "items",
          "type": "uint256[2]"
        }
      ],
      "name": "purchase",
      "outputs": [],
      "stateMutability": "payable",
      "type": "function"
    },
    {
      "inputs": [],
      "name": "renounceOwnership",
      "outputs": [],
      "stateMutability": "nonpayable",
      "type": "function"
    },
    {
      "inputs": [
        {
          "internalType": "address",
          "name": "from",
          "type": "address"
        },
        {
          "internalType": "address",
          "name": "to",
          "type": "address"
        },
        {
          "internalType": "uint256",
          "name": "tokenId",
          "type": "uint256"
        }
      ],
      "name": "safeTransferFrom",
      "outputs": [],
      "stateMutability": "nonpayable",
      "type": "function"
    },
    {
      "inputs": [
        {
          "internalType": "address",
          "name": "from",
          "type": "address"
        },
        {
          "internalType": "address",
          "name": "to",
          "type": "address"
        },
        {
          "internalType": "uint256",
          "name": "tokenId",
          "type": "uint256"
        },
        {
          "internalType": "bytes",
          "name": "_data",
          "type": "bytes"
        }
      ],
      "name": "safeTransferFrom",
      "outputs": [],
      "stateMutability": "nonpayable",
      "type": "function"
    },
    {
      "inputs": [
        {
          "internalType": "address",
          "name": "operator",
          "type": "address"
        },
        {
          "internalType": "bool",
          "name": "approved",
          "type": "bool"
        }
      ],
      "name": "setApprovalForAll",
      "outputs": [],
      "stateMutability": "nonpayable",
      "type": "function"
    },
    {
      "inputs": [
        {
          "internalType": "string",
          "name": "baseURI",
          "type": "string"
        }
      ],
      "name": "setBaseURI",
      "outputs": [],
      "stateMutability": "nonpayable",
      "type": "function"
    },
    {
      "inputs": [
        {
          "internalType": "bytes4",
          "name": "interfaceId",
          "type": "bytes4"
        }
      ],
      "name": "supportsInterface",
      "outputs": [
        {
          "internalType": "bool",
          "name": "",
          "type": "bool"
        }
      ],
      "stateMutability": "view",
      "type": "function"
    },
    {
      "inputs": [],
      "name": "symbol",
      "outputs": [
        {
          "internalType": "string",
          "name": "",
          "type": "string"
        }
      ],
      "stateMutability": "view",
      "type": "function"
    },
    {
      "inputs": [
        {
          "internalType": "uint256",
          "name": "tokenId",
          "type": "uint256"
        }
      ],
      "name": "tokenURI",
      "outputs": [
        {
          "internalType": "string",
          "name": "",
          "type": "string"
        }
      ],
      "stateMutability": "view",
      "type": "function"
    },
    {
      "inputs": [],
      "name": "totalSupply",
      "outputs": [
        {
          "internalType": "uint256",
          "name": "_value",
          "type": "uint256"
        }
      ],
      "stateMutability": "view",
      "type": "function"
    },
    {
      "inputs": [
        {
          "internalType": "address",
          "name": "from",
          "type": "address"
        },
        {
          "internalType": "address",
          "name": "to",
          "type": "address"
        },
        {
          "internalType": "uint256",
          "name": "tokenId",
          "type": "uint256"
        }
      ],
      "name": "transferFrom",
      "outputs": [],
      "stateMutability": "nonpayable",
      "type": "function"
    },
    {
      "inputs": [
        {
          "internalType": "address",
          "name": "newOwner",
          "type": "address"
        }
      ],
      "name": "transferOwnership",
      "outputs": [],
      "stateMutability": "nonpayable",
      "type": "function"
    },
    {
      "inputs": [],
      "name": "unpauseMinting",
      "outputs": [],
      "stateMutability": "nonpayable",
      "type": "function"
    },
    {
      "inputs": [
        {
          "internalType": "string",
          "name": "newName",
          "type": "string"
        }
      ],
      "name": "validateName",
      "outputs": [
        {
          "internalType": "bool",
          "name": "",
          "type": "bool"
        }
      ],
      "stateMutability": "pure",
      "type": "function"
    },
    {
      "inputs": [],
      "name": "withdraw",
      "outputs": [],
      "stateMutability": "nonpayable",
      "type": "function"
    }
  ]
}